{
	"Desktop/CarbonToken/CarbonToken/carbonToken.sol": {
		"CTToken": {
			"abi": [
				{
					"inputs": [],
					"stateMutability": "nonpayable",
					"type": "constructor"
				},
				{
					"anonymous": false,
					"inputs": [
						{
							"indexed": true,
							"internalType": "address",
							"name": "owner",
							"type": "address"
						},
						{
							"indexed": true,
							"internalType": "address",
							"name": "spender",
							"type": "address"
						},
						{
							"indexed": false,
							"internalType": "uint256",
							"name": "value",
							"type": "uint256"
						}
					],
					"name": "Approval",
					"type": "event"
				},
				{
					"anonymous": false,
					"inputs": [
						{
							"indexed": true,
							"internalType": "address",
							"name": "from",
							"type": "address"
						},
						{
							"indexed": true,
							"internalType": "address",
							"name": "to",
							"type": "address"
						},
						{
							"indexed": false,
							"internalType": "uint256",
							"name": "value",
							"type": "uint256"
						}
					],
					"name": "Transfer",
					"type": "event"
				},
				{
					"inputs": [
						{
							"internalType": "address",
							"name": "owner",
							"type": "address"
						},
						{
							"internalType": "address",
							"name": "spender",
							"type": "address"
						}
					],
					"name": "allowance",
					"outputs": [
						{
							"internalType": "uint256",
							"name": "",
							"type": "uint256"
						}
					],
					"stateMutability": "view",
					"type": "function"
				},
				{
					"inputs": [
						{
							"internalType": "address",
							"name": "spender",
							"type": "address"
						},
						{
							"internalType": "uint256",
							"name": "amount",
							"type": "uint256"
						}
					],
					"name": "approve",
					"outputs": [
						{
							"internalType": "bool",
							"name": "",
							"type": "bool"
						}
					],
					"stateMutability": "nonpayable",
					"type": "function"
				},
				{
					"inputs": [
						{
							"internalType": "address",
							"name": "account",
							"type": "address"
						}
					],
					"name": "balanceOf",
					"outputs": [
						{
							"internalType": "uint256",
							"name": "",
							"type": "uint256"
						}
					],
					"stateMutability": "view",
					"type": "function"
				},
				{
					"inputs": [],
					"name": "decimals",
					"outputs": [
						{
							"internalType": "uint8",
							"name": "",
							"type": "uint8"
						}
					],
					"stateMutability": "view",
					"type": "function"
				},
				{
					"inputs": [
						{
							"internalType": "address",
							"name": "spender",
							"type": "address"
						},
						{
							"internalType": "uint256",
							"name": "subtractedValue",
							"type": "uint256"
						}
					],
					"name": "decreaseAllowance",
					"outputs": [
						{
							"internalType": "bool",
							"name": "",
							"type": "bool"
						}
					],
					"stateMutability": "nonpayable",
					"type": "function"
				},
				{
					"inputs": [
						{
							"internalType": "address[]",
							"name": "addresses",
							"type": "address[]"
						},
						{
							"internalType": "uint256[]",
							"name": "amounts",
							"type": "uint256[]"
						}
					],
					"name": "distributeTokens",
					"outputs": [],
					"stateMutability": "nonpayable",
					"type": "function"
				},
				{
					"inputs": [
						{
							"internalType": "address",
							"name": "user",
							"type": "address"
						}
					],
					"name": "getClaimed",
					"outputs": [
						{
							"internalType": "bool",
							"name": "",
							"type": "bool"
						}
					],
					"stateMutability": "view",
					"type": "function"
				},
				{
					"inputs": [
						{
							"internalType": "address",
							"name": "user",
							"type": "address"
						}
					],
					"name": "getDistributedType",
					"outputs": [
						{
							"internalType": "bool",
							"name": "",
							"type": "bool"
						}
					],
					"stateMutability": "view",
					"type": "function"
				},
				{
					"inputs": [
						{
							"internalType": "address",
							"name": "user",
							"type": "address"
						}
					],
					"name": "getEnterpriseType",
					"outputs": [
						{
							"internalType": "bool",
							"name": "",
							"type": "bool"
						}
					],
					"stateMutability": "view",
					"type": "function"
				},
				{
					"inputs": [
						{
							"internalType": "address",
							"name": "spender",
							"type": "address"
						},
						{
							"internalType": "uint256",
							"name": "addedValue",
							"type": "uint256"
						}
					],
					"name": "increaseAllowance",
					"outputs": [
						{
							"internalType": "bool",
							"name": "",
							"type": "bool"
						}
					],
					"stateMutability": "nonpayable",
					"type": "function"
				},
				{
					"inputs": [],
					"name": "name",
					"outputs": [
						{
							"internalType": "string",
							"name": "",
							"type": "string"
						}
					],
					"stateMutability": "view",
					"type": "function"
				},
				{
					"inputs": [],
					"name": "nextYear",
					"outputs": [],
					"stateMutability": "nonpayable",
					"type": "function"
				},
				{
					"inputs": [
						{
							"internalType": "address[]",
							"name": "addresses",
							"type": "address[]"
						},
						{
							"internalType": "bool[]",
							"name": "isEnterprise",
							"type": "bool[]"
						}
					],
					"name": "setAddressInfo",
					"outputs": [],
					"stateMutability": "nonpayable",
					"type": "function"
				},
				{
					"inputs": [],
					"name": "symbol",
					"outputs": [
						{
							"internalType": "string",
							"name": "",
							"type": "string"
						}
					],
					"stateMutability": "view",
					"type": "function"
				},
				{
					"inputs": [],
					"name": "totalSupply",
					"outputs": [
						{
							"internalType": "uint256",
							"name": "",
							"type": "uint256"
						}
					],
					"stateMutability": "view",
					"type": "function"
				},
				{
					"inputs": [
						{
							"internalType": "address",
							"name": "to",
							"type": "address"
						},
						{
							"internalType": "uint256",
							"name": "amount",
							"type": "uint256"
						}
					],
					"name": "transfer",
					"outputs": [
						{
							"internalType": "bool",
							"name": "",
							"type": "bool"
						}
					],
					"stateMutability": "nonpayable",
					"type": "function"
				},
				{
					"inputs": [
						{
							"internalType": "address",
							"name": "from",
							"type": "address"
						},
						{
							"internalType": "address",
							"name": "to",
							"type": "address"
						},
						{
							"internalType": "uint256",
							"name": "amount",
							"type": "uint256"
						}
					],
					"name": "transferFrom",
					"outputs": [
						{
							"internalType": "bool",
							"name": "",
							"type": "bool"
						}
					],
					"stateMutability": "nonpayable",
					"type": "function"
				}
			],
			"devdoc": {
				"events": {
					"Approval(address,address,uint256)": {
						"details": "Emitted when the allowance of a `spender` for an `owner` is set by a call to {approve}. `value` is the new allowance."
					},
					"Transfer(address,address,uint256)": {
						"details": "Emitted when `value` tokens are moved from one account (`from`) to another (`to`). Note that `value` may be zero."
					}
				},
				"kind": "dev",
				"methods": {
					"allowance(address,address)": {
						"details": "See {IERC20-allowance}."
					},
					"approve(address,uint256)": {
						"details": "See {IERC20-approve}. NOTE: If `amount` is the maximum `uint256`, the allowance is not updated on `transferFrom`. This is semantically equivalent to an infinite approval. Requirements: - `spender` cannot be the zero address."
					},
					"balanceOf(address)": {
						"details": "See {IERC20-balanceOf}."
					},
					"decimals()": {
						"details": "Returns the number of decimals used to get its user representation. For example, if `decimals` equals `2`, a balance of `505` tokens should be displayed to a user as `5.05` (`505 / 10 ** 2`). Tokens usually opt for a value of 18, imitating the relationship between Ether and Wei. This is the value {ERC20} uses, unless this function is overridden; NOTE: This information is only used for _display_ purposes: it in no way affects any of the arithmetic of the contract, including {IERC20-balanceOf} and {IERC20-transfer}."
					},
					"decreaseAllowance(address,uint256)": {
						"details": "Atomically decreases the allowance granted to `spender` by the caller. This is an alternative to {approve} that can be used as a mitigation for problems described in {IERC20-approve}. Emits an {Approval} event indicating the updated allowance. Requirements: - `spender` cannot be the zero address. - `spender` must have allowance for the caller of at least `subtractedValue`."
					},
					"increaseAllowance(address,uint256)": {
						"details": "Atomically increases the allowance granted to `spender` by the caller. This is an alternative to {approve} that can be used as a mitigation for problems described in {IERC20-approve}. Emits an {Approval} event indicating the updated allowance. Requirements: - `spender` cannot be the zero address."
					},
					"name()": {
						"details": "Returns the name of the token."
					},
					"symbol()": {
						"details": "Returns the symbol of the token, usually a shorter version of the name."
					},
					"totalSupply()": {
						"details": "See {IERC20-totalSupply}."
					},
					"transfer(address,uint256)": {
						"details": "See {IERC20-transfer}. Requirements: - `to` cannot be the zero address. - the caller must have a balance of at least `amount`."
					},
					"transferFrom(address,address,uint256)": {
						"details": "See {IERC20-transferFrom}. Emits an {Approval} event indicating the updated allowance. This is not required by the EIP. See the note at the beginning of {ERC20}. NOTE: Does not update the allowance if the current allowance is the maximum `uint256`. Requirements: - `from` and `to` cannot be the zero address. - `from` must have a balance of at least `amount`. - the caller must have allowance for ``from``'s tokens of at least `amount`."
					}
				},
				"version": 1
			},
			"evm": {
				"assembly": "    /* \"Desktop/CarbonToken/CarbonToken/carbonToken.sol\":119:2524  contract CTToken is ERC20 {... */\n  mstore(0x40, 0x80)\n    /* \"Desktop/CarbonToken/CarbonToken/carbonToken.sol\":362:486  constructor() ERC20(\"CT\", \"CT\") {... */\n  callvalue\n  dup1\n  iszero\n  tag_1\n  jumpi\n  0x00\n  dup1\n  revert\ntag_1:\n  pop\n    /* \"@openzeppelin/contracts/token/ERC20/ERC20.sol\":1976:2089  constructor(string memory name_, string memory symbol_) {... */\n  mload(0x40)\n  dup1\n  0x40\n  add\n  0x40\n  mstore\n  dup1\n  0x02\n  dup2\n  mstore\n  0x20\n  add\n  0x4354000000000000000000000000000000000000000000000000000000000000\n  dup2\n  mstore\n  pop\n  mload(0x40)\n  dup1\n  0x40\n  add\n  0x40\n  mstore\n  dup1\n  0x02\n  dup2\n  mstore\n  0x20\n  add\n  0x4354000000000000000000000000000000000000000000000000000000000000\n  dup2\n  mstore\n  pop\n    /* \"@openzeppelin/contracts/token/ERC20/ERC20.sol\":2050:2055  name_ */\n  dup2\n    /* \"@openzeppelin/contracts/token/ERC20/ERC20.sol\":2042:2047  _name */\n  0x03\n    /* \"@openzeppelin/contracts/token/ERC20/ERC20.sol\":2042:2055  _name = name_ */\n  swap1\n  dup2\n  tag_5\n  swap2\n  swap1\n  tag_6\n  jump\t// in\ntag_5:\n  pop\n    /* \"@openzeppelin/contracts/token/ERC20/ERC20.sol\":2075:2082  symbol_ */\n  dup1\n    /* \"@openzeppelin/contracts/token/ERC20/ERC20.sol\":2065:2072  _symbol */\n  0x04\n    /* \"@openzeppelin/contracts/token/ERC20/ERC20.sol\":2065:2082  _symbol = symbol_ */\n  swap1\n  dup2\n  tag_7\n  swap2\n  swap1\n  tag_6\n  jump\t// in\ntag_7:\n  pop\n    /* \"@openzeppelin/contracts/token/ERC20/ERC20.sol\":1976:2089  constructor(string memory name_, string memory symbol_) {... */\n  pop\n  pop\n    /* \"Desktop/CarbonToken/CarbonToken/carbonToken.sol\":405:452  _mint(msg.sender, 1000000 * (10 ** decimals())) */\n  tag_9\n    /* \"Desktop/CarbonToken/CarbonToken/carbonToken.sol\":411:421  msg.sender */\n  caller\n    /* \"Desktop/CarbonToken/CarbonToken/carbonToken.sol\":440:450  decimals() */\n  tag_10\n    /* \"Desktop/CarbonToken/CarbonToken/carbonToken.sol\":440:448  decimals */\n  shl(0x20, tag_11)\n    /* \"Desktop/CarbonToken/CarbonToken/carbonToken.sol\":440:450  decimals() */\n  0x20\n  shr\n  jump\t// in\ntag_10:\n    /* \"Desktop/CarbonToken/CarbonToken/carbonToken.sol\":434:436  10 */\n  0x0a\n    /* \"Desktop/CarbonToken/CarbonToken/carbonToken.sol\":434:450  10 ** decimals() */\n  tag_12\n  swap2\n  swap1\n  tag_13\n  jump\t// in\ntag_12:\n    /* \"Desktop/CarbonToken/CarbonToken/carbonToken.sol\":423:430  1000000 */\n  0x0f4240\n    /* \"Desktop/CarbonToken/CarbonToken/carbonToken.sol\":423:451  1000000 * (10 ** decimals()) */\n  tag_14\n  swap2\n  swap1\n  tag_15\n  jump\t// in\ntag_14:\n    /* \"Desktop/CarbonToken/CarbonToken/carbonToken.sol\":405:410  _mint */\n  shl(0x20, tag_16)\n    /* \"Desktop/CarbonToken/CarbonToken/carbonToken.sol\":405:452  _mint(msg.sender, 1000000 * (10 ** decimals())) */\n  0x20\n  shr\n  jump\t// in\ntag_9:\n    /* \"Desktop/CarbonToken/CarbonToken/carbonToken.sol\":477:478  1 */\n  0x01\n    /* \"Desktop/CarbonToken/CarbonToken/carbonToken.sol\":463:474  currentYear */\n  0x06\n    /* \"Desktop/CarbonToken/CarbonToken/carbonToken.sol\":463:478  currentYear = 1 */\n  dup2\n  swap1\n  sstore\n  pop\n    /* \"Desktop/CarbonToken/CarbonToken/carbonToken.sol\":119:2524  contract CTToken is ERC20 {... */\n  jump(tag_17)\n    /* \"@openzeppelin/contracts/token/ERC20/ERC20.sol\":3091:3182  function decimals() public view virtual override returns (uint8) {... */\ntag_11:\n    /* \"@openzeppelin/contracts/token/ERC20/ERC20.sol\":3149:3154  uint8 */\n  0x00\n    /* \"@openzeppelin/contracts/token/ERC20/ERC20.sol\":3173:3175  18 */\n  0x12\n    /* \"@openzeppelin/contracts/token/ERC20/ERC20.sol\":3166:3175  return 18 */\n  swap1\n  pop\n    /* \"@openzeppelin/contracts/token/ERC20/ERC20.sol\":3091:3182  function decimals() public view virtual override returns (uint8) {... */\n  swap1\n  jump\t// out\n    /* \"@openzeppelin/contracts/token/ERC20/ERC20.sol\":8567:9102  function _mint(address account, uint256 amount) internal virtual {... */\ntag_16:\n    /* \"@openzeppelin/contracts/token/ERC20/ERC20.sol\":8669:8670  0 */\n  0x00\n    /* \"@openzeppelin/contracts/token/ERC20/ERC20.sol\":8650:8671  account != address(0) */\n  0xffffffffffffffffffffffffffffffffffffffff\n  and\n    /* \"@openzeppelin/contracts/token/ERC20/ERC20.sol\":8650:8657  account */\n  dup3\n    /* \"@openzeppelin/contracts/token/ERC20/ERC20.sol\":8650:8671  account != address(0) */\n  0xffffffffffffffffffffffffffffffffffffffff\n  and\n  sub\n    /* \"@openzeppelin/contracts/token/ERC20/ERC20.sol\":8642:8707  require(account != address(0), \"ERC20: mint to the zero address\") */\n  tag_20\n  jumpi\n  mload(0x40)\n  0x08c379a000000000000000000000000000000000000000000000000000000000\n  dup2\n  mstore\n  0x04\n  add\n  tag_21\n  swap1\n  tag_22\n  jump\t// in\ntag_21:\n  mload(0x40)\n  dup1\n  swap2\n  sub\n  swap1\n  revert\ntag_20:\n    /* \"@openzeppelin/contracts/token/ERC20/ERC20.sol\":8718:8767  _beforeTokenTransfer(address(0), account, amount) */\n  tag_23\n    /* \"@openzeppelin/contracts/token/ERC20/ERC20.sol\":8747:8748  0 */\n  0x00\n    /* \"@openzeppelin/contracts/token/ERC20/ERC20.sol\":8751:8758  account */\n  dup4\n    /* \"@openzeppelin/contracts/token/ERC20/ERC20.sol\":8760:8766  amount */\n  dup4\n    /* \"@openzeppelin/contracts/token/ERC20/ERC20.sol\":8718:8738  _beforeTokenTransfer */\n  shl(0x20, tag_24)\n    /* \"@openzeppelin/contracts/token/ERC20/ERC20.sol\":8718:8767  _beforeTokenTransfer(address(0), account, amount) */\n  0x20\n  shr\n  jump\t// in\ntag_23:\n    /* \"@openzeppelin/contracts/token/ERC20/ERC20.sol\":8794:8800  amount */\n  dup1\n    /* \"@openzeppelin/contracts/token/ERC20/ERC20.sol\":8778:8790  _totalSupply */\n  0x02\n  0x00\n    /* \"@openzeppelin/contracts/token/ERC20/ERC20.sol\":8778:8800  _totalSupply += amount */\n  dup3\n  dup3\n  sload\n  tag_25\n  swap2\n  swap1\n  tag_26\n  jump\t// in\ntag_25:\n  swap3\n  pop\n  pop\n  dup2\n  swap1\n  sstore\n  pop\n    /* \"@openzeppelin/contracts/token/ERC20/ERC20.sol\":8968:8974  amount */\n  dup1\n    /* \"@openzeppelin/contracts/token/ERC20/ERC20.sol\":8946:8955  _balances */\n  0x00\n    /* \"@openzeppelin/contracts/token/ERC20/ERC20.sol\":8946:8964  _balances[account] */\n  dup1\n    /* \"@openzeppelin/contracts/token/ERC20/ERC20.sol\":8956:8963  account */\n  dup5\n    /* \"@openzeppelin/contracts/token/ERC20/ERC20.sol\":8946:8964  _balances[account] */\n  0xffffffffffffffffffffffffffffffffffffffff\n  and\n  0xffffffffffffffffffffffffffffffffffffffff\n  and\n  dup2\n  mstore\n  0x20\n  add\n  swap1\n  dup2\n  mstore\n  0x20\n  add\n  0x00\n  keccak256\n  0x00\n    /* \"@openzeppelin/contracts/token/ERC20/ERC20.sol\":8946:8974  _balances[account] += amount */\n  dup3\n  dup3\n  sload\n  add\n  swap3\n  pop\n  pop\n  dup2\n  swap1\n  sstore\n  pop\n    /* \"@openzeppelin/contracts/token/ERC20/ERC20.sol\":9020:9027  account */\n  dup2\n    /* \"@openzeppelin/contracts/token/ERC20/ERC20.sol\":8999:9036  Transfer(address(0), account, amount) */\n  0xffffffffffffffffffffffffffffffffffffffff\n  and\n    /* \"@openzeppelin/contracts/token/ERC20/ERC20.sol\":9016:9017  0 */\n  0x00\n    /* \"@openzeppelin/contracts/token/ERC20/ERC20.sol\":8999:9036  Transfer(address(0), account, amount) */\n  0xffffffffffffffffffffffffffffffffffffffff\n  and\n  0xddf252ad1be2c89b69c2b068fc378daa952ba7f163c4a11628f55a4df523b3ef\n    /* \"@openzeppelin/contracts/token/ERC20/ERC20.sol\":9029:9035  amount */\n  dup4\n    /* \"@openzeppelin/contracts/token/ERC20/ERC20.sol\":8999:9036  Transfer(address(0), account, amount) */\n  mload(0x40)\n  tag_27\n  swap2\n  swap1\n  tag_28\n  jump\t// in\ntag_27:\n  mload(0x40)\n  dup1\n  swap2\n  sub\n  swap1\n  log3\n    /* \"@openzeppelin/contracts/token/ERC20/ERC20.sol\":9047:9095  _afterTokenTransfer(address(0), account, amount) */\n  tag_29\n    /* \"@openzeppelin/contracts/token/ERC20/ERC20.sol\":9075:9076  0 */\n  0x00\n    /* \"@openzeppelin/contracts/token/ERC20/ERC20.sol\":9079:9086  account */\n  dup4\n    /* \"@openzeppelin/contracts/token/ERC20/ERC20.sol\":9088:9094  amount */\n  dup4\n    /* \"@openzeppelin/contracts/token/ERC20/ERC20.sol\":9047:9066  _afterTokenTransfer */\n  shl(0x20, tag_30)\n    /* \"@openzeppelin/contracts/token/ERC20/ERC20.sol\":9047:9095  _afterTokenTransfer(address(0), account, amount) */\n  0x20\n  shr\n  jump\t// in\ntag_29:\n    /* \"@openzeppelin/contracts/token/ERC20/ERC20.sol\":8567:9102  function _mint(address account, uint256 amount) internal virtual {... */\n  pop\n  pop\n  jump\t// out\n    /* \"@openzeppelin/contracts/token/ERC20/ERC20.sol\":12180:12301  function _beforeTokenTransfer(... */\ntag_24:\n  pop\n  pop\n  pop\n  jump\t// out\n    /* \"@openzeppelin/contracts/token/ERC20/ERC20.sol\":12889:13009  function _afterTokenTransfer(... */\ntag_30:\n  pop\n  pop\n  pop\n  jump\t// out\n    /* \"#utility.yul\":7:106   */\ntag_33:\n    /* \"#utility.yul\":59:65   */\n  0x00\n    /* \"#utility.yul\":93:98   */\n  dup2\n    /* \"#utility.yul\":87:99   */\n  mload\n    /* \"#utility.yul\":77:99   */\n  swap1\n  pop\n    /* \"#utility.yul\":7:106   */\n  swap2\n  swap1\n  pop\n  jump\t// out\n    /* \"#utility.yul\":112:292   */\ntag_34:\n    /* \"#utility.yul\":160:237   */\n  0x4e487b7100000000000000000000000000000000000000000000000000000000\n    /* \"#utility.yul\":157:158   */\n  0x00\n    /* \"#utility.yul\":150:238   */\n  mstore\n    /* \"#utility.yul\":257:261   */\n  0x41\n    /* \"#utility.yul\":254:255   */\n  0x04\n    /* \"#utility.yul\":247:262   */\n  mstore\n    /* \"#utility.yul\":281:285   */\n  0x24\n    /* \"#utility.yul\":278:279   */\n  0x00\n    /* \"#utility.yul\":271:286   */\n  revert\n    /* \"#utility.yul\":298:478   */\ntag_35:\n    /* \"#utility.yul\":346:423   */\n  0x4e487b7100000000000000000000000000000000000000000000000000000000\n    /* \"#utility.yul\":343:344   */\n  0x00\n    /* \"#utility.yul\":336:424   */\n  mstore\n    /* \"#utility.yul\":443:447   */\n  0x22\n    /* \"#utility.yul\":440:441   */\n  0x04\n    /* \"#utility.yul\":433:448   */\n  mstore\n    /* \"#utility.yul\":467:471   */\n  0x24\n    /* \"#utility.yul\":464:465   */\n  0x00\n    /* \"#utility.yul\":457:472   */\n  revert\n    /* \"#utility.yul\":484:804   */\ntag_36:\n    /* \"#utility.yul\":528:534   */\n  0x00\n    /* \"#utility.yul\":565:566   */\n  0x02\n    /* \"#utility.yul\":559:563   */\n  dup3\n    /* \"#utility.yul\":555:567   */\n  div\n    /* \"#utility.yul\":545:567   */\n  swap1\n  pop\n    /* \"#utility.yul\":612:613   */\n  0x01\n    /* \"#utility.yul\":606:610   */\n  dup3\n    /* \"#utility.yul\":602:614   */\n  and\n    /* \"#utility.yul\":633:651   */\n  dup1\n    /* \"#utility.yul\":623:704   */\n  tag_67\n  jumpi\n    /* \"#utility.yul\":689:693   */\n  0x7f\n    /* \"#utility.yul\":681:687   */\n  dup3\n    /* \"#utility.yul\":677:694   */\n  and\n    /* \"#utility.yul\":667:694   */\n  swap2\n  pop\n    /* \"#utility.yul\":623:704   */\ntag_67:\n    /* \"#utility.yul\":751:753   */\n  0x20\n    /* \"#utility.yul\":743:749   */\n  dup3\n    /* \"#utility.yul\":740:754   */\n  lt\n    /* \"#utility.yul\":720:738   */\n  dup2\n    /* \"#utility.yul\":717:755   */\n  sub\n    /* \"#utility.yul\":714:798   */\n  tag_68\n  jumpi\n    /* \"#utility.yul\":770:788   */\n  tag_69\n  tag_35\n  jump\t// in\ntag_69:\n    /* \"#utility.yul\":714:798   */\ntag_68:\n    /* \"#utility.yul\":535:804   */\n  pop\n    /* \"#utility.yul\":484:804   */\n  swap2\n  swap1\n  pop\n  jump\t// out\n    /* \"#utility.yul\":810:951   */\ntag_37:\n    /* \"#utility.yul\":859:863   */\n  0x00\n    /* \"#utility.yul\":882:885   */\n  dup2\n    /* \"#utility.yul\":874:885   */\n  swap1\n  pop\n    /* \"#utility.yul\":905:908   */\n  dup2\n    /* \"#utility.yul\":902:903   */\n  0x00\n    /* \"#utility.yul\":895:909   */\n  mstore\n    /* \"#utility.yul\":939:943   */\n  0x20\n    /* \"#utility.yul\":936:937   */\n  0x00\n    /* \"#utility.yul\":926:944   */\n  keccak256\n    /* \"#utility.yul\":918:944   */\n  swap1\n  pop\n    /* \"#utility.yul\":810:951   */\n  swap2\n  swap1\n  pop\n  jump\t// out\n    /* \"#utility.yul\":957:1050   */\ntag_38:\n    /* \"#utility.yul\":994:1000   */\n  0x00\n    /* \"#utility.yul\":1041:1043   */\n  0x20\n    /* \"#utility.yul\":1036:1038   */\n  0x1f\n    /* \"#utility.yul\":1029:1034   */\n  dup4\n    /* \"#utility.yul\":1025:1039   */\n  add\n    /* \"#utility.yul\":1021:1044   */\n  div\n    /* \"#utility.yul\":1011:1044   */\n  swap1\n  pop\n    /* \"#utility.yul\":957:1050   */\n  swap2\n  swap1\n  pop\n  jump\t// out\n    /* \"#utility.yul\":1056:1163   */\ntag_39:\n    /* \"#utility.yul\":1100:1108   */\n  0x00\n    /* \"#utility.yul\":1150:1155   */\n  dup3\n    /* \"#utility.yul\":1144:1148   */\n  dup3\n    /* \"#utility.yul\":1140:1156   */\n  shl\n    /* \"#utility.yul\":1119:1156   */\n  swap1\n  pop\n    /* \"#utility.yul\":1056:1163   */\n  swap3\n  swap2\n  pop\n  pop\n  jump\t// out\n    /* \"#utility.yul\":1169:1562   */\ntag_40:\n    /* \"#utility.yul\":1238:1244   */\n  0x00\n    /* \"#utility.yul\":1288:1289   */\n  0x08\n    /* \"#utility.yul\":1276:1286   */\n  dup4\n    /* \"#utility.yul\":1272:1290   */\n  mul\n    /* \"#utility.yul\":1311:1408   */\n  tag_74\n    /* \"#utility.yul\":1341:1407   */\n  0xffffffffffffffffffffffffffffffffffffffffffffffffffffffffffffffff\n    /* \"#utility.yul\":1330:1339   */\n  dup3\n    /* \"#utility.yul\":1311:1408   */\n  tag_39\n  jump\t// in\ntag_74:\n    /* \"#utility.yul\":1429:1468   */\n  tag_75\n    /* \"#utility.yul\":1459:1467   */\n  dup7\n    /* \"#utility.yul\":1448:1457   */\n  dup4\n    /* \"#utility.yul\":1429:1468   */\n  tag_39\n  jump\t// in\ntag_75:\n    /* \"#utility.yul\":1417:1468   */\n  swap6\n  pop\n    /* \"#utility.yul\":1501:1505   */\n  dup1\n    /* \"#utility.yul\":1497:1506   */\n  not\n    /* \"#utility.yul\":1490:1495   */\n  dup5\n    /* \"#utility.yul\":1486:1507   */\n  and\n    /* \"#utility.yul\":1477:1507   */\n  swap4\n  pop\n    /* \"#utility.yul\":1550:1554   */\n  dup1\n    /* \"#utility.yul\":1540:1548   */\n  dup7\n    /* \"#utility.yul\":1536:1555   */\n  and\n    /* \"#utility.yul\":1529:1534   */\n  dup5\n    /* \"#utility.yul\":1526:1556   */\n  or\n    /* \"#utility.yul\":1516:1556   */\n  swap3\n  pop\n    /* \"#utility.yul\":1245:1562   */\n  pop\n  pop\n    /* \"#utility.yul\":1169:1562   */\n  swap4\n  swap3\n  pop\n  pop\n  pop\n  jump\t// out\n    /* \"#utility.yul\":1568:1645   */\ntag_41:\n    /* \"#utility.yul\":1605:1612   */\n  0x00\n    /* \"#utility.yul\":1634:1639   */\n  dup2\n    /* \"#utility.yul\":1623:1639   */\n  swap1\n  pop\n    /* \"#utility.yul\":1568:1645   */\n  swap2\n  swap1\n  pop\n  jump\t// out\n    /* \"#utility.yul\":1651:1711   */\ntag_42:\n    /* \"#utility.yul\":1679:1682   */\n  0x00\n    /* \"#utility.yul\":1700:1705   */\n  dup2\n    /* \"#utility.yul\":1693:1705   */\n  swap1\n  pop\n    /* \"#utility.yul\":1651:1711   */\n  swap2\n  swap1\n  pop\n  jump\t// out\n    /* \"#utility.yul\":1717:1859   */\ntag_43:\n    /* \"#utility.yul\":1767:1776   */\n  0x00\n    /* \"#utility.yul\":1800:1853   */\n  tag_79\n    /* \"#utility.yul\":1818:1852   */\n  tag_80\n    /* \"#utility.yul\":1827:1851   */\n  tag_81\n    /* \"#utility.yul\":1845:1850   */\n  dup5\n    /* \"#utility.yul\":1827:1851   */\n  tag_41\n  jump\t// in\ntag_81:\n    /* \"#utility.yul\":1818:1852   */\n  tag_42\n  jump\t// in\ntag_80:\n    /* \"#utility.yul\":1800:1853   */\n  tag_41\n  jump\t// in\ntag_79:\n    /* \"#utility.yul\":1787:1853   */\n  swap1\n  pop\n    /* \"#utility.yul\":1717:1859   */\n  swap2\n  swap1\n  pop\n  jump\t// out\n    /* \"#utility.yul\":1865:1940   */\ntag_44:\n    /* \"#utility.yul\":1908:1911   */\n  0x00\n    /* \"#utility.yul\":1929:1934   */\n  dup2\n    /* \"#utility.yul\":1922:1934   */\n  swap1\n  pop\n    /* \"#utility.yul\":1865:1940   */\n  swap2\n  swap1\n  pop\n  jump\t// out\n    /* \"#utility.yul\":1946:2215   */\ntag_45:\n    /* \"#utility.yul\":2056:2095   */\n  tag_84\n    /* \"#utility.yul\":2087:2094   */\n  dup4\n    /* \"#utility.yul\":2056:2095   */\n  tag_43\n  jump\t// in\ntag_84:\n    /* \"#utility.yul\":2117:2208   */\n  tag_85\n    /* \"#utility.yul\":2166:2207   */\n  tag_86\n    /* \"#utility.yul\":2190:2206   */\n  dup3\n    /* \"#utility.yul\":2166:2207   */\n  tag_44\n  jump\t// in\ntag_86:\n    /* \"#utility.yul\":2158:2164   */\n  dup5\n    /* \"#utility.yul\":2151:2155   */\n  dup5\n    /* \"#utility.yul\":2145:2156   */\n  sload\n    /* \"#utility.yul\":2117:2208   */\n  tag_40\n  jump\t// in\ntag_85:\n    /* \"#utility.yul\":2111:2115   */\n  dup3\n    /* \"#utility.yul\":2104:2209   */\n  sstore\n    /* \"#utility.yul\":2022:2215   */\n  pop\n    /* \"#utility.yul\":1946:2215   */\n  pop\n  pop\n  pop\n  jump\t// out\n    /* \"#utility.yul\":2221:2294   */\ntag_46:\n    /* \"#utility.yul\":2266:2269   */\n  0x00\n    /* \"#utility.yul\":2221:2294   */\n  swap1\n  jump\t// out\n    /* \"#utility.yul\":2300:2489   */\ntag_47:\n    /* \"#utility.yul\":2377:2409   */\n  tag_89\n  tag_46\n  jump\t// in\ntag_89:\n    /* \"#utility.yul\":2418:2483   */\n  tag_90\n    /* \"#utility.yul\":2476:2482   */\n  dup2\n    /* \"#utility.yul\":2468:2474   */\n  dup5\n    /* \"#utility.yul\":2462:2466   */\n  dup5\n    /* \"#utility.yul\":2418:2483   */\n  tag_45\n  jump\t// in\ntag_90:\n    /* \"#utility.yul\":2353:2489   */\n  pop\n    /* \"#utility.yul\":2300:2489   */\n  pop\n  pop\n  jump\t// out\n    /* \"#utility.yul\":2495:2681   */\ntag_48:\n    /* \"#utility.yul\":2555:2675   */\ntag_92:\n    /* \"#utility.yul\":2572:2575   */\n  dup2\n    /* \"#utility.yul\":2565:2570   */\n  dup2\n    /* \"#utility.yul\":2562:2576   */\n  lt\n    /* \"#utility.yul\":2555:2675   */\n  iszero\n  tag_94\n  jumpi\n    /* \"#utility.yul\":2626:2665   */\n  tag_95\n    /* \"#utility.yul\":2663:2664   */\n  0x00\n    /* \"#utility.yul\":2656:2661   */\n  dup3\n    /* \"#utility.yul\":2626:2665   */\n  tag_47\n  jump\t// in\ntag_95:\n    /* \"#utility.yul\":2599:2600   */\n  0x01\n    /* \"#utility.yul\":2592:2597   */\n  dup2\n    /* \"#utility.yul\":2588:2601   */\n  add\n    /* \"#utility.yul\":2579:2601   */\n  swap1\n  pop\n    /* \"#utility.yul\":2555:2675   */\n  jump(tag_92)\ntag_94:\n    /* \"#utility.yul\":2495:2681   */\n  pop\n  pop\n  jump\t// out\n    /* \"#utility.yul\":2687:3230   */\ntag_49:\n    /* \"#utility.yul\":2788:2790   */\n  0x1f\n    /* \"#utility.yul\":2783:2786   */\n  dup3\n    /* \"#utility.yul\":2780:2791   */\n  gt\n    /* \"#utility.yul\":2777:3223   */\n  iszero\n  tag_97\n  jumpi\n    /* \"#utility.yul\":2822:2860   */\n  tag_98\n    /* \"#utility.yul\":2854:2859   */\n  dup2\n    /* \"#utility.yul\":2822:2860   */\n  tag_37\n  jump\t// in\ntag_98:\n    /* \"#utility.yul\":2906:2935   */\n  tag_99\n    /* \"#utility.yul\":2924:2934   */\n  dup5\n    /* \"#utility.yul\":2906:2935   */\n  tag_38\n  jump\t// in\ntag_99:\n    /* \"#utility.yul\":2896:2904   */\n  dup2\n    /* \"#utility.yul\":2892:2936   */\n  add\n    /* \"#utility.yul\":3089:3091   */\n  0x20\n    /* \"#utility.yul\":3077:3087   */\n  dup6\n    /* \"#utility.yul\":3074:3092   */\n  lt\n    /* \"#utility.yul\":3071:3120   */\n  iszero\n  tag_100\n  jumpi\n    /* \"#utility.yul\":3110:3118   */\n  dup2\n    /* \"#utility.yul\":3095:3118   */\n  swap1\n  pop\n    /* \"#utility.yul\":3071:3120   */\ntag_100:\n    /* \"#utility.yul\":3133:3213   */\n  tag_101\n    /* \"#utility.yul\":3189:3211   */\n  tag_102\n    /* \"#utility.yul\":3207:3210   */\n  dup6\n    /* \"#utility.yul\":3189:3211   */\n  tag_38\n  jump\t// in\ntag_102:\n    /* \"#utility.yul\":3179:3187   */\n  dup4\n    /* \"#utility.yul\":3175:3212   */\n  add\n    /* \"#utility.yul\":3162:3173   */\n  dup3\n    /* \"#utility.yul\":3133:3213   */\n  tag_48\n  jump\t// in\ntag_101:\n    /* \"#utility.yul\":2792:3223   */\n  pop\n  pop\n    /* \"#utility.yul\":2777:3223   */\ntag_97:\n    /* \"#utility.yul\":2687:3230   */\n  pop\n  pop\n  pop\n  jump\t// out\n    /* \"#utility.yul\":3236:3353   */\ntag_50:\n    /* \"#utility.yul\":3290:3298   */\n  0x00\n    /* \"#utility.yul\":3340:3345   */\n  dup3\n    /* \"#utility.yul\":3334:3338   */\n  dup3\n    /* \"#utility.yul\":3330:3346   */\n  shr\n    /* \"#utility.yul\":3309:3346   */\n  swap1\n  pop\n    /* \"#utility.yul\":3236:3353   */\n  swap3\n  swap2\n  pop\n  pop\n  jump\t// out\n    /* \"#utility.yul\":3359:3528   */\ntag_51:\n    /* \"#utility.yul\":3403:3409   */\n  0x00\n    /* \"#utility.yul\":3436:3487   */\n  tag_105\n    /* \"#utility.yul\":3484:3485   */\n  0x00\n    /* \"#utility.yul\":3480:3486   */\n  not\n    /* \"#utility.yul\":3472:3477   */\n  dup5\n    /* \"#utility.yul\":3469:3470   */\n  0x08\n    /* \"#utility.yul\":3465:3478   */\n  mul\n    /* \"#utility.yul\":3436:3487   */\n  tag_50\n  jump\t// in\ntag_105:\n    /* \"#utility.yul\":3432:3488   */\n  not\n    /* \"#utility.yul\":3517:3521   */\n  dup1\n    /* \"#utility.yul\":3511:3515   */\n  dup4\n    /* \"#utility.yul\":3507:3522   */\n  and\n    /* \"#utility.yul\":3497:3522   */\n  swap2\n  pop\n    /* \"#utility.yul\":3410:3528   */\n  pop\n    /* \"#utility.yul\":3359:3528   */\n  swap3\n  swap2\n  pop\n  pop\n  jump\t// out\n    /* \"#utility.yul\":3533:3828   */\ntag_52:\n    /* \"#utility.yul\":3609:3613   */\n  0x00\n    /* \"#utility.yul\":3755:3784   */\n  tag_107\n    /* \"#utility.yul\":3780:3783   */\n  dup4\n    /* \"#utility.yul\":3774:3778   */\n  dup4\n    /* \"#utility.yul\":3755:3784   */\n  tag_51\n  jump\t// in\ntag_107:\n    /* \"#utility.yul\":3747:3784   */\n  swap2\n  pop\n    /* \"#utility.yul\":3817:3820   */\n  dup3\n    /* \"#utility.yul\":3814:3815   */\n  0x02\n    /* \"#utility.yul\":3810:3821   */\n  mul\n    /* \"#utility.yul\":3804:3808   */\n  dup3\n    /* \"#utility.yul\":3801:3822   */\n  or\n    /* \"#utility.yul\":3793:3822   */\n  swap1\n  pop\n    /* \"#utility.yul\":3533:3828   */\n  swap3\n  swap2\n  pop\n  pop\n  jump\t// out\n    /* \"#utility.yul\":3833:5228   */\ntag_6:\n    /* \"#utility.yul\":3950:3987   */\n  tag_109\n    /* \"#utility.yul\":3983:3986   */\n  dup3\n    /* \"#utility.yul\":3950:3987   */\n  tag_33\n  jump\t// in\ntag_109:\n    /* \"#utility.yul\":4052:4070   */\n  0xffffffffffffffff\n    /* \"#utility.yul\":4044:4050   */\n  dup2\n    /* \"#utility.yul\":4041:4071   */\n  gt\n    /* \"#utility.yul\":4038:4094   */\n  iszero\n  tag_110\n  jumpi\n    /* \"#utility.yul\":4074:4092   */\n  tag_111\n  tag_34\n  jump\t// in\ntag_111:\n    /* \"#utility.yul\":4038:4094   */\ntag_110:\n    /* \"#utility.yul\":4118:4156   */\n  tag_112\n    /* \"#utility.yul\":4150:4154   */\n  dup3\n    /* \"#utility.yul\":4144:4155   */\n  sload\n    /* \"#utility.yul\":4118:4156   */\n  tag_36\n  jump\t// in\ntag_112:\n    /* \"#utility.yul\":4203:4270   */\n  tag_113\n    /* \"#utility.yul\":4263:4269   */\n  dup3\n    /* \"#utility.yul\":4255:4261   */\n  dup3\n    /* \"#utility.yul\":4249:4253   */\n  dup6\n    /* \"#utility.yul\":4203:4270   */\n  tag_49\n  jump\t// in\ntag_113:\n    /* \"#utility.yul\":4297:4298   */\n  0x00\n    /* \"#utility.yul\":4321:4325   */\n  0x20\n    /* \"#utility.yul\":4308:4325   */\n  swap1\n  pop\n    /* \"#utility.yul\":4353:4355   */\n  0x1f\n    /* \"#utility.yul\":4345:4351   */\n  dup4\n    /* \"#utility.yul\":4342:4356   */\n  gt\n    /* \"#utility.yul\":4370:4371   */\n  0x01\n    /* \"#utility.yul\":4365:4983   */\n  dup2\n  eq\n  tag_115\n  jumpi\n    /* \"#utility.yul\":5027:5028   */\n  0x00\n    /* \"#utility.yul\":5044:5050   */\n  dup5\n    /* \"#utility.yul\":5041:5118   */\n  iszero\n  tag_116\n  jumpi\n    /* \"#utility.yul\":5093:5102   */\n  dup3\n    /* \"#utility.yul\":5088:5091   */\n  dup8\n    /* \"#utility.yul\":5084:5103   */\n  add\n    /* \"#utility.yul\":5078:5104   */\n  mload\n    /* \"#utility.yul\":5069:5104   */\n  swap1\n  pop\n    /* \"#utility.yul\":5041:5118   */\ntag_116:\n    /* \"#utility.yul\":5144:5211   */\n  tag_117\n    /* \"#utility.yul\":5204:5210   */\n  dup6\n    /* \"#utility.yul\":5197:5202   */\n  dup3\n    /* \"#utility.yul\":5144:5211   */\n  tag_52\n  jump\t// in\ntag_117:\n    /* \"#utility.yul\":5138:5142   */\n  dup7\n    /* \"#utility.yul\":5131:5212   */\n  sstore\n    /* \"#utility.yul\":5000:5222   */\n  pop\n    /* \"#utility.yul\":4335:5222   */\n  jump(tag_114)\n    /* \"#utility.yul\":4365:4983   */\ntag_115:\n    /* \"#utility.yul\":4417:4421   */\n  0x1f\n    /* \"#utility.yul\":4413:4422   */\n  not\n    /* \"#utility.yul\":4405:4411   */\n  dup5\n    /* \"#utility.yul\":4401:4423   */\n  and\n    /* \"#utility.yul\":4451:4488   */\n  tag_118\n    /* \"#utility.yul\":4483:4487   */\n  dup7\n    /* \"#utility.yul\":4451:4488   */\n  tag_37\n  jump\t// in\ntag_118:\n    /* \"#utility.yul\":4510:4511   */\n  0x00\n    /* \"#utility.yul\":4524:4732   */\ntag_119:\n    /* \"#utility.yul\":4538:4545   */\n  dup3\n    /* \"#utility.yul\":4535:4536   */\n  dup2\n    /* \"#utility.yul\":4532:4546   */\n  lt\n    /* \"#utility.yul\":4524:4732   */\n  iszero\n  tag_121\n  jumpi\n    /* \"#utility.yul\":4617:4626   */\n  dup5\n    /* \"#utility.yul\":4612:4615   */\n  dup10\n    /* \"#utility.yul\":4608:4627   */\n  add\n    /* \"#utility.yul\":4602:4628   */\n  mload\n    /* \"#utility.yul\":4594:4600   */\n  dup3\n    /* \"#utility.yul\":4587:4629   */\n  sstore\n    /* \"#utility.yul\":4668:4669   */\n  0x01\n    /* \"#utility.yul\":4660:4666   */\n  dup3\n    /* \"#utility.yul\":4656:4670   */\n  add\n    /* \"#utility.yul\":4646:4670   */\n  swap2\n  pop\n    /* \"#utility.yul\":4715:4717   */\n  0x20\n    /* \"#utility.yul\":4704:4713   */\n  dup6\n    /* \"#utility.yul\":4700:4718   */\n  add\n    /* \"#utility.yul\":4687:4718   */\n  swap5\n  pop\n    /* \"#utility.yul\":4561:4565   */\n  0x20\n    /* \"#utility.yul\":4558:4559   */\n  dup2\n    /* \"#utility.yul\":4554:4566   */\n  add\n    /* \"#utility.yul\":4549:4566   */\n  swap1\n  pop\n    /* \"#utility.yul\":4524:4732   */\n  jump(tag_119)\ntag_121:\n    /* \"#utility.yul\":4760:4766   */\n  dup7\n    /* \"#utility.yul\":4751:4758   */\n  dup4\n    /* \"#utility.yul\":4748:4767   */\n  lt\n    /* \"#utility.yul\":4745:4924   */\n  iszero\n  tag_122\n  jumpi\n    /* \"#utility.yul\":4818:4827   */\n  dup5\n    /* \"#utility.yul\":4813:4816   */\n  dup10\n    /* \"#utility.yul\":4809:4828   */\n  add\n    /* \"#utility.yul\":4803:4829   */\n  mload\n    /* \"#utility.yul\":4861:4909   */\n  tag_123\n    /* \"#utility.yul\":4903:4907   */\n  0x1f\n    /* \"#utility.yul\":4895:4901   */\n  dup10\n    /* \"#utility.yul\":4891:4908   */\n  and\n    /* \"#utility.yul\":4880:4889   */\n  dup3\n    /* \"#utility.yul\":4861:4909   */\n  tag_51\n  jump\t// in\ntag_123:\n    /* \"#utility.yul\":4853:4859   */\n  dup4\n    /* \"#utility.yul\":4846:4910   */\n  sstore\n    /* \"#utility.yul\":4768:4924   */\n  pop\n    /* \"#utility.yul\":4745:4924   */\ntag_122:\n    /* \"#utility.yul\":4970:4971   */\n  0x01\n    /* \"#utility.yul\":4966:4967   */\n  0x02\n    /* \"#utility.yul\":4958:4964   */\n  dup9\n    /* \"#utility.yul\":4954:4968   */\n  mul\n    /* \"#utility.yul\":4950:4972   */\n  add\n    /* \"#utility.yul\":4944:4948   */\n  dup9\n    /* \"#utility.yul\":4937:4973   */\n  sstore\n    /* \"#utility.yul\":4372:4983   */\n  pop\n  pop\n  pop\n    /* \"#utility.yul\":4335:5222   */\ntag_114:\n  pop\n    /* \"#utility.yul\":3925:5228   */\n  pop\n  pop\n  pop\n    /* \"#utility.yul\":3833:5228   */\n  pop\n  pop\n  jump\t// out\n    /* \"#utility.yul\":5234:5414   */\ntag_53:\n    /* \"#utility.yul\":5282:5359   */\n  0x4e487b7100000000000000000000000000000000000000000000000000000000\n    /* \"#utility.yul\":5279:5280   */\n  0x00\n    /* \"#utility.yul\":5272:5360   */\n  mstore\n    /* \"#utility.yul\":5379:5383   */\n  0x11\n    /* \"#utility.yul\":5376:5377   */\n  0x04\n    /* \"#utility.yul\":5369:5384   */\n  mstore\n    /* \"#utility.yul\":5403:5407   */\n  0x24\n    /* \"#utility.yul\":5400:5401   */\n  0x00\n    /* \"#utility.yul\":5393:5408   */\n  revert\n    /* \"#utility.yul\":5420:5522   */\ntag_54:\n    /* \"#utility.yul\":5462:5470   */\n  0x00\n    /* \"#utility.yul\":5509:5514   */\n  dup2\n    /* \"#utility.yul\":5506:5507   */\n  0x01\n    /* \"#utility.yul\":5502:5515   */\n  shr\n    /* \"#utility.yul\":5481:5515   */\n  swap1\n  pop\n    /* \"#utility.yul\":5420:5522   */\n  swap2\n  swap1\n  pop\n  jump\t// out\n    /* \"#utility.yul\":5528:6376   */\ntag_55:\n    /* \"#utility.yul\":5589:5594   */\n  0x00\n    /* \"#utility.yul\":5596:5600   */\n  dup1\n    /* \"#utility.yul\":5620:5626   */\n  dup3\n    /* \"#utility.yul\":5611:5626   */\n  swap2\n  pop\n    /* \"#utility.yul\":5644:5649   */\n  dup4\n    /* \"#utility.yul\":5635:5649   */\n  swap1\n  pop\n    /* \"#utility.yul\":5658:6370   */\ntag_127:\n    /* \"#utility.yul\":5679:5680   */\n  0x01\n    /* \"#utility.yul\":5669:5677   */\n  dup6\n    /* \"#utility.yul\":5666:5681   */\n  gt\n    /* \"#utility.yul\":5658:6370   */\n  iszero\n  tag_129\n  jumpi\n    /* \"#utility.yul\":5774:5778   */\n  dup1\n    /* \"#utility.yul\":5769:5772   */\n  dup7\n    /* \"#utility.yul\":5765:5779   */\n  div\n    /* \"#utility.yul\":5759:5763   */\n  dup2\n    /* \"#utility.yul\":5756:5780   */\n  gt\n    /* \"#utility.yul\":5753:5803   */\n  iszero\n  tag_130\n  jumpi\n    /* \"#utility.yul\":5783:5801   */\n  tag_131\n  tag_53\n  jump\t// in\ntag_131:\n    /* \"#utility.yul\":5753:5803   */\ntag_130:\n    /* \"#utility.yul\":5833:5834   */\n  0x01\n    /* \"#utility.yul\":5823:5831   */\n  dup6\n    /* \"#utility.yul\":5819:5835   */\n  and\n    /* \"#utility.yul\":5816:6267   */\n  iszero\n  tag_132\n  jumpi\n    /* \"#utility.yul\":6248:6252   */\n  dup1\n    /* \"#utility.yul\":6241:6246   */\n  dup3\n    /* \"#utility.yul\":6237:6253   */\n  mul\n    /* \"#utility.yul\":6228:6253   */\n  swap2\n  pop\n    /* \"#utility.yul\":5816:6267   */\ntag_132:\n    /* \"#utility.yul\":6298:6302   */\n  dup1\n    /* \"#utility.yul\":6292:6296   */\n  dup2\n    /* \"#utility.yul\":6288:6303   */\n  mul\n    /* \"#utility.yul\":6280:6303   */\n  swap1\n  pop\n    /* \"#utility.yul\":6328:6360   */\n  tag_133\n    /* \"#utility.yul\":6351:6359   */\n  dup6\n    /* \"#utility.yul\":6328:6360   */\n  tag_54\n  jump\t// in\ntag_133:\n    /* \"#utility.yul\":6316:6360   */\n  swap5\n  pop\n    /* \"#utility.yul\":5658:6370   */\n  jump(tag_127)\ntag_129:\n    /* \"#utility.yul\":5528:6376   */\n  swap5\n  pop\n  swap5\n  swap3\n  pop\n  pop\n  pop\n  jump\t// out\n    /* \"#utility.yul\":6382:7455   */\ntag_56:\n    /* \"#utility.yul\":6436:6441   */\n  0x00\n    /* \"#utility.yul\":6627:6635   */\n  dup3\n    /* \"#utility.yul\":6617:6657   */\n  tag_135\n  jumpi\n    /* \"#utility.yul\":6648:6649   */\n  0x01\n    /* \"#utility.yul\":6639:6649   */\n  swap1\n  pop\n    /* \"#utility.yul\":6650:6655   */\n  jump(tag_134)\n    /* \"#utility.yul\":6617:6657   */\ntag_135:\n    /* \"#utility.yul\":6676:6680   */\n  dup2\n    /* \"#utility.yul\":6666:6702   */\n  tag_136\n  jumpi\n    /* \"#utility.yul\":6693:6694   */\n  0x00\n    /* \"#utility.yul\":6684:6694   */\n  swap1\n  pop\n    /* \"#utility.yul\":6695:6700   */\n  jump(tag_134)\n    /* \"#utility.yul\":6666:6702   */\ntag_136:\n    /* \"#utility.yul\":6762:6766   */\n  dup2\n    /* \"#utility.yul\":6810:6811   */\n  0x01\n    /* \"#utility.yul\":6805:6832   */\n  dup2\n  eq\n  tag_138\n  jumpi\n    /* \"#utility.yul\":6846:6847   */\n  0x02\n    /* \"#utility.yul\":6841:7032   */\n  dup2\n  eq\n  tag_139\n  jumpi\n    /* \"#utility.yul\":6755:7032   */\n  jump(tag_137)\n    /* \"#utility.yul\":6805:6832   */\ntag_138:\n    /* \"#utility.yul\":6823:6824   */\n  0x01\n    /* \"#utility.yul\":6814:6824   */\n  swap2\n  pop\n    /* \"#utility.yul\":6825:6830   */\n  pop\n  jump(tag_134)\n    /* \"#utility.yul\":6841:7032   */\ntag_139:\n    /* \"#utility.yul\":6886:6889   */\n  0xff\n    /* \"#utility.yul\":6876:6884   */\n  dup5\n    /* \"#utility.yul\":6873:6890   */\n  gt\n    /* \"#utility.yul\":6870:6913   */\n  iszero\n  tag_140\n  jumpi\n    /* \"#utility.yul\":6893:6911   */\n  tag_141\n  tag_53\n  jump\t// in\ntag_141:\n    /* \"#utility.yul\":6870:6913   */\ntag_140:\n    /* \"#utility.yul\":6942:6950   */\n  dup4\n    /* \"#utility.yul\":6939:6940   */\n  0x02\n    /* \"#utility.yul\":6935:6951   */\n  exp\n    /* \"#utility.yul\":6926:6951   */\n  swap2\n  pop\n    /* \"#utility.yul\":6977:6980   */\n  dup5\n    /* \"#utility.yul\":6970:6975   */\n  dup3\n    /* \"#utility.yul\":6967:6981   */\n  gt\n    /* \"#utility.yul\":6964:7004   */\n  iszero\n  tag_142\n  jumpi\n    /* \"#utility.yul\":6984:7002   */\n  tag_143\n  tag_53\n  jump\t// in\ntag_143:\n    /* \"#utility.yul\":6964:7004   */\ntag_142:\n    /* \"#utility.yul\":7017:7022   */\n  pop\n  jump(tag_134)\n    /* \"#utility.yul\":6755:7032   */\ntag_137:\n  pop\n    /* \"#utility.yul\":7141:7143   */\n  0x20\n    /* \"#utility.yul\":7131:7139   */\n  dup4\n    /* \"#utility.yul\":7128:7144   */\n  lt\n    /* \"#utility.yul\":7122:7125   */\n  0x0133\n    /* \"#utility.yul\":7116:7120   */\n  dup4\n    /* \"#utility.yul\":7113:7126   */\n  lt\n    /* \"#utility.yul\":7109:7145   */\n  and\n    /* \"#utility.yul\":7091:7093   */\n  0x4e\n    /* \"#utility.yul\":7081:7089   */\n  dup5\n    /* \"#utility.yul\":7078:7094   */\n  lt\n    /* \"#utility.yul\":7073:7075   */\n  0x0b\n    /* \"#utility.yul\":7067:7071   */\n  dup5\n    /* \"#utility.yul\":7064:7076   */\n  lt\n    /* \"#utility.yul\":7060:7095   */\n  and\n    /* \"#utility.yul\":7044:7155   */\n  or\n    /* \"#utility.yul\":7041:7287   */\n  iszero\n  tag_144\n  jumpi\n    /* \"#utility.yul\":7197:7205   */\n  dup3\n    /* \"#utility.yul\":7191:7195   */\n  dup3\n    /* \"#utility.yul\":7187:7206   */\n  exp\n    /* \"#utility.yul\":7178:7206   */\n  swap1\n  pop\n    /* \"#utility.yul\":7232:7235   */\n  dup4\n    /* \"#utility.yul\":7225:7230   */\n  dup2\n    /* \"#utility.yul\":7222:7236   */\n  gt\n    /* \"#utility.yul\":7219:7259   */\n  iszero\n  tag_145\n  jumpi\n    /* \"#utility.yul\":7239:7257   */\n  tag_146\n  tag_53\n  jump\t// in\ntag_146:\n    /* \"#utility.yul\":7219:7259   */\ntag_145:\n    /* \"#utility.yul\":7272:7277   */\n  jump(tag_134)\n    /* \"#utility.yul\":7041:7287   */\ntag_144:\n    /* \"#utility.yul\":7312:7354   */\n  tag_147\n    /* \"#utility.yul\":7350:7353   */\n  dup5\n    /* \"#utility.yul\":7340:7348   */\n  dup5\n    /* \"#utility.yul\":7334:7338   */\n  dup5\n    /* \"#utility.yul\":7331:7332   */\n  0x01\n    /* \"#utility.yul\":7312:7354   */\n  tag_55\n  jump\t// in\ntag_147:\n    /* \"#utility.yul\":7297:7354   */\n  swap3\n  pop\n  swap1\n  pop\n    /* \"#utility.yul\":7386:7390   */\n  dup2\n    /* \"#utility.yul\":7381:7384   */\n  dup5\n    /* \"#utility.yul\":7377:7391   */\n  div\n    /* \"#utility.yul\":7370:7375   */\n  dup2\n    /* \"#utility.yul\":7367:7392   */\n  gt\n    /* \"#utility.yul\":7364:7415   */\n  iszero\n  tag_148\n  jumpi\n    /* \"#utility.yul\":7395:7413   */\n  tag_149\n  tag_53\n  jump\t// in\ntag_149:\n    /* \"#utility.yul\":7364:7415   */\ntag_148:\n    /* \"#utility.yul\":7444:7448   */\n  dup2\n    /* \"#utility.yul\":7437:7442   */\n  dup2\n    /* \"#utility.yul\":7433:7449   */\n  mul\n    /* \"#utility.yul\":7424:7449   */\n  swap1\n  pop\n    /* \"#utility.yul\":6382:7455   */\ntag_134:\n  swap4\n  swap3\n  pop\n  pop\n  pop\n  jump\t// out\n    /* \"#utility.yul\":7461:7547   */\ntag_57:\n    /* \"#utility.yul\":7496:7503   */\n  0x00\n    /* \"#utility.yul\":7536:7540   */\n  0xff\n    /* \"#utility.yul\":7529:7534   */\n  dup3\n    /* \"#utility.yul\":7525:7541   */\n  and\n    /* \"#utility.yul\":7514:7541   */\n  swap1\n  pop\n    /* \"#utility.yul\":7461:7547   */\n  swap2\n  swap1\n  pop\n  jump\t// out\n    /* \"#utility.yul\":7553:7834   */\ntag_13:\n    /* \"#utility.yul\":7611:7616   */\n  0x00\n    /* \"#utility.yul\":7635:7658   */\n  tag_152\n    /* \"#utility.yul\":7653:7657   */\n  dup3\n    /* \"#utility.yul\":7635:7658   */\n  tag_41\n  jump\t// in\ntag_152:\n    /* \"#utility.yul\":7627:7658   */\n  swap2\n  pop\n    /* \"#utility.yul\":7679:7704   */\n  tag_153\n    /* \"#utility.yul\":7695:7703   */\n  dup4\n    /* \"#utility.yul\":7679:7704   */\n  tag_57\n  jump\t// in\ntag_153:\n    /* \"#utility.yul\":7667:7704   */\n  swap3\n  pop\n    /* \"#utility.yul\":7723:7827   */\n  tag_154\n    /* \"#utility.yul\":7760:7826   */\n  0xffffffffffffffffffffffffffffffffffffffffffffffffffffffffffffffff\n    /* \"#utility.yul\":7750:7758   */\n  dup5\n    /* \"#utility.yul\":7744:7748   */\n  dup5\n    /* \"#utility.yul\":7723:7827   */\n  tag_56\n  jump\t// in\ntag_154:\n    /* \"#utility.yul\":7714:7827   */\n  swap1\n  pop\n    /* \"#utility.yul\":7553:7834   */\n  swap3\n  swap2\n  pop\n  pop\n  jump\t// out\n    /* \"#utility.yul\":7840:8250   */\ntag_15:\n    /* \"#utility.yul\":7880:7887   */\n  0x00\n    /* \"#utility.yul\":7903:7923   */\n  tag_156\n    /* \"#utility.yul\":7921:7922   */\n  dup3\n    /* \"#utility.yul\":7903:7923   */\n  tag_41\n  jump\t// in\ntag_156:\n    /* \"#utility.yul\":7898:7923   */\n  swap2\n  pop\n    /* \"#utility.yul\":7937:7957   */\n  tag_157\n    /* \"#utility.yul\":7955:7956   */\n  dup4\n    /* \"#utility.yul\":7937:7957   */\n  tag_41\n  jump\t// in\ntag_157:\n    /* \"#utility.yul\":7932:7957   */\n  swap3\n  pop\n    /* \"#utility.yul\":7992:7993   */\n  dup3\n    /* \"#utility.yul\":7989:7990   */\n  dup3\n    /* \"#utility.yul\":7985:7994   */\n  mul\n    /* \"#utility.yul\":8014:8044   */\n  tag_158\n    /* \"#utility.yul\":8032:8043   */\n  dup2\n    /* \"#utility.yul\":8014:8044   */\n  tag_41\n  jump\t// in\ntag_158:\n    /* \"#utility.yul\":8003:8044   */\n  swap2\n  pop\n    /* \"#utility.yul\":8193:8194   */\n  dup3\n    /* \"#utility.yul\":8184:8191   */\n  dup3\n    /* \"#utility.yul\":8180:8195   */\n  div\n    /* \"#utility.yul\":8177:8178   */\n  dup5\n    /* \"#utility.yul\":8174:8196   */\n  eq\n    /* \"#utility.yul\":8154:8155   */\n  dup4\n    /* \"#utility.yul\":8147:8156   */\n  iszero\n    /* \"#utility.yul\":8127:8210   */\n  or\n    /* \"#utility.yul\":8104:8243   */\n  tag_159\n  jumpi\n    /* \"#utility.yul\":8223:8241   */\n  tag_160\n  tag_53\n  jump\t// in\ntag_160:\n    /* \"#utility.yul\":8104:8243   */\ntag_159:\n    /* \"#utility.yul\":7888:8250   */\n  pop\n    /* \"#utility.yul\":7840:8250   */\n  swap3\n  swap2\n  pop\n  pop\n  jump\t// out\n    /* \"#utility.yul\":8256:8425   */\ntag_58:\n    /* \"#utility.yul\":8340:8351   */\n  0x00\n    /* \"#utility.yul\":8374:8380   */\n  dup3\n    /* \"#utility.yul\":8369:8372   */\n  dup3\n    /* \"#utility.yul\":8362:8381   */\n  mstore\n    /* \"#utility.yul\":8414:8418   */\n  0x20\n    /* \"#utility.yul\":8409:8412   */\n  dup3\n    /* \"#utility.yul\":8405:8419   */\n  add\n    /* \"#utility.yul\":8390:8419   */\n  swap1\n  pop\n    /* \"#utility.yul\":8256:8425   */\n  swap3\n  swap2\n  pop\n  pop\n  jump\t// out\n    /* \"#utility.yul\":8431:8612   */\ntag_59:\n    /* \"#utility.yul\":8571:8604   */\n  0x45524332303a206d696e7420746f20746865207a65726f206164647265737300\n    /* \"#utility.yul\":8567:8568   */\n  0x00\n    /* \"#utility.yul\":8559:8565   */\n  dup3\n    /* \"#utility.yul\":8555:8569   */\n  add\n    /* \"#utility.yul\":8548:8605   */\n  mstore\n    /* \"#utility.yul\":8431:8612   */\n  pop\n  jump\t// out\n    /* \"#utility.yul\":8618:8984   */\ntag_60:\n    /* \"#utility.yul\":8760:8763   */\n  0x00\n    /* \"#utility.yul\":8781:8848   */\n  tag_164\n    /* \"#utility.yul\":8845:8847   */\n  0x1f\n    /* \"#utility.yul\":8840:8843   */\n  dup4\n    /* \"#utility.yul\":8781:8848   */\n  tag_58\n  jump\t// in\ntag_164:\n    /* \"#utility.yul\":8774:8848   */\n  swap2\n  pop\n    /* \"#utility.yul\":8857:8950   */\n  tag_165\n    /* \"#utility.yul\":8946:8949   */\n  dup3\n    /* \"#utility.yul\":8857:8950   */\n  tag_59\n  jump\t// in\ntag_165:\n    /* \"#utility.yul\":8975:8977   */\n  0x20\n    /* \"#utility.yul\":8970:8973   */\n  dup3\n    /* \"#utility.yul\":8966:8978   */\n  add\n    /* \"#utility.yul\":8959:8978   */\n  swap1\n  pop\n    /* \"#utility.yul\":8618:8984   */\n  swap2\n  swap1\n  pop\n  jump\t// out\n    /* \"#utility.yul\":8990:9409   */\ntag_22:\n    /* \"#utility.yul\":9156:9160   */\n  0x00\n    /* \"#utility.yul\":9194:9196   */\n  0x20\n    /* \"#utility.yul\":9183:9192   */\n  dup3\n    /* \"#utility.yul\":9179:9197   */\n  add\n    /* \"#utility.yul\":9171:9197   */\n  swap1\n  pop\n    /* \"#utility.yul\":9243:9252   */\n  dup2\n    /* \"#utility.yul\":9237:9241   */\n  dup2\n    /* \"#utility.yul\":9233:9253   */\n  sub\n    /* \"#utility.yul\":9229:9230   */\n  0x00\n    /* \"#utility.yul\":9218:9227   */\n  dup4\n    /* \"#utility.yul\":9214:9231   */\n  add\n    /* \"#utility.yul\":9207:9254   */\n  mstore\n    /* \"#utility.yul\":9271:9402   */\n  tag_167\n    /* \"#utility.yul\":9397:9401   */\n  dup2\n    /* \"#utility.yul\":9271:9402   */\n  tag_60\n  jump\t// in\ntag_167:\n    /* \"#utility.yul\":9263:9402   */\n  swap1\n  pop\n    /* \"#utility.yul\":8990:9409   */\n  swap2\n  swap1\n  pop\n  jump\t// out\n    /* \"#utility.yul\":9415:9606   */\ntag_26:\n    /* \"#utility.yul\":9455:9458   */\n  0x00\n    /* \"#utility.yul\":9474:9494   */\n  tag_169\n    /* \"#utility.yul\":9492:9493   */\n  dup3\n    /* \"#utility.yul\":9474:9494   */\n  tag_41\n  jump\t// in\ntag_169:\n    /* \"#utility.yul\":9469:9494   */\n  swap2\n  pop\n    /* \"#utility.yul\":9508:9528   */\n  tag_170\n    /* \"#utility.yul\":9526:9527   */\n  dup4\n    /* \"#utility.yul\":9508:9528   */\n  tag_41\n  jump\t// in\ntag_170:\n    /* \"#utility.yul\":9503:9528   */\n  swap3\n  pop\n    /* \"#utility.yul\":9551:9552   */\n  dup3\n    /* \"#utility.yul\":9548:9549   */\n  dup3\n    /* \"#utility.yul\":9544:9553   */\n  add\n    /* \"#utility.yul\":9537:9553   */\n  swap1\n  pop\n    /* \"#utility.yul\":9572:9575   */\n  dup1\n    /* \"#utility.yul\":9569:9570   */\n  dup3\n    /* \"#utility.yul\":9566:9576   */\n  gt\n    /* \"#utility.yul\":9563:9599   */\n  iszero\n  tag_171\n  jumpi\n    /* \"#utility.yul\":9579:9597   */\n  tag_172\n  tag_53\n  jump\t// in\ntag_172:\n    /* \"#utility.yul\":9563:9599   */\ntag_171:\n    /* \"#utility.yul\":9415:9606   */\n  swap3\n  swap2\n  pop\n  pop\n  jump\t// out\n    /* \"#utility.yul\":9612:9730   */\ntag_61:\n    /* \"#utility.yul\":9699:9723   */\n  tag_174\n    /* \"#utility.yul\":9717:9722   */\n  dup2\n    /* \"#utility.yul\":9699:9723   */\n  tag_41\n  jump\t// in\ntag_174:\n    /* \"#utility.yul\":9694:9697   */\n  dup3\n    /* \"#utility.yul\":9687:9724   */\n  mstore\n    /* \"#utility.yul\":9612:9730   */\n  pop\n  pop\n  jump\t// out\n    /* \"#utility.yul\":9736:9958   */\ntag_28:\n    /* \"#utility.yul\":9829:9833   */\n  0x00\n    /* \"#utility.yul\":9867:9869   */\n  0x20\n    /* \"#utility.yul\":9856:9865   */\n  dup3\n    /* \"#utility.yul\":9852:9870   */\n  add\n    /* \"#utility.yul\":9844:9870   */\n  swap1\n  pop\n    /* \"#utility.yul\":9880:9951   */\n  tag_176\n    /* \"#utility.yul\":9948:9949   */\n  0x00\n    /* \"#utility.yul\":9937:9946   */\n  dup4\n    /* \"#utility.yul\":9933:9950   */\n  add\n    /* \"#utility.yul\":9924:9930   */\n  dup5\n    /* \"#utility.yul\":9880:9951   */\n  tag_61\n  jump\t// in\ntag_176:\n    /* \"#utility.yul\":9736:9958   */\n  swap3\n  swap2\n  pop\n  pop\n  jump\t// out\n    /* \"Desktop/CarbonToken/CarbonToken/carbonToken.sol\":119:2524  contract CTToken is ERC20 {... */\ntag_17:\n  dataSize(sub_0)\n  dup1\n  dataOffset(sub_0)\n  0x00\n  codecopy\n  0x00\n  return\nstop\n\nsub_0: assembly {\n        /* \"Desktop/CarbonToken/CarbonToken/carbonToken.sol\":119:2524  contract CTToken is ERC20 {... */\n      mstore(0x40, 0x80)\n      callvalue\n      dup1\n      iszero\n      tag_1\n      jumpi\n      0x00\n      dup1\n      revert\n    tag_1:\n      pop\n      jumpi(tag_2, lt(calldatasize, 0x04))\n      shr(0xe0, calldataload(0x00))\n      dup1\n      0x70a08231\n      gt\n      tag_20\n      jumpi\n      dup1\n      0xa9059cbb\n      gt\n      tag_21\n      jumpi\n      dup1\n      0xa9059cbb\n      eq\n      tag_15\n      jumpi\n      dup1\n      0xb0ef2f68\n      eq\n      tag_16\n      jumpi\n      dup1\n      0xdd62ed3e\n      eq\n      tag_17\n      jumpi\n      dup1\n      0xeb46260e\n      eq\n      tag_18\n      jumpi\n      dup1\n      0xed6387b7\n      eq\n      tag_19\n      jumpi\n      jump(tag_2)\n    tag_21:\n      dup1\n      0x70a08231\n      eq\n      tag_11\n      jumpi\n      dup1\n      0x865cf788\n      eq\n      tag_12\n      jumpi\n      dup1\n      0x95d89b41\n      eq\n      tag_13\n      jumpi\n      dup1\n      0xa457c2d7\n      eq\n      tag_14\n      jumpi\n      jump(tag_2)\n    tag_20:\n      dup1\n      0x23b872dd\n      gt\n      tag_22\n      jumpi\n      dup1\n      0x23b872dd\n      eq\n      tag_7\n      jumpi\n      dup1\n      0x313ce567\n      eq\n      tag_8\n      jumpi\n      dup1\n      0x39509351\n      eq\n      tag_9\n      jumpi\n      dup1\n      0x4bd09c2a\n      eq\n      tag_10\n      jumpi\n      jump(tag_2)\n    tag_22:\n      dup1\n      0x06fdde03\n      eq\n      tag_3\n      jumpi\n      dup1\n      0x095ea7b3\n      eq\n      tag_4\n      jumpi\n      dup1\n      0x146bea7b\n      eq\n      tag_5\n      jumpi\n      dup1\n      0x18160ddd\n      eq\n      tag_6\n      jumpi\n    tag_2:\n      0x00\n      dup1\n      revert\n        /* \"@openzeppelin/contracts/token/ERC20/ERC20.sol\":2154:2252  function name() public view virtual override returns (string memory) {... */\n    tag_3:\n      tag_23\n      tag_24\n      jump\t// in\n    tag_23:\n      mload(0x40)\n      tag_25\n      swap2\n      swap1\n      tag_26\n      jump\t// in\n    tag_25:\n      mload(0x40)\n      dup1\n      swap2\n      sub\n      swap1\n      return\n        /* \"@openzeppelin/contracts/token/ERC20/ERC20.sol\":4431:4628  function approve(address spender, uint256 amount) public virtual override returns (bool) {... */\n    tag_4:\n      tag_27\n      0x04\n      dup1\n      calldatasize\n      sub\n      dup2\n      add\n      swap1\n      tag_28\n      swap2\n      swap1\n      tag_29\n      jump\t// in\n    tag_28:\n      tag_30\n      jump\t// in\n    tag_27:\n      mload(0x40)\n      tag_31\n      swap2\n      swap1\n      tag_32\n      jump\t// in\n    tag_31:\n      mload(0x40)\n      dup1\n      swap2\n      sub\n      swap1\n      return\n        /* \"Desktop/CarbonToken/CarbonToken/carbonToken.sol\":2216:2316  function nextYear() external {... */\n    tag_5:\n      tag_33\n      tag_34\n      jump\t// in\n    tag_33:\n      stop\n        /* \"@openzeppelin/contracts/token/ERC20/ERC20.sol\":3242:3348  function totalSupply() public view virtual override returns (uint256) {... */\n    tag_6:\n      tag_35\n      tag_36\n      jump\t// in\n    tag_35:\n      mload(0x40)\n      tag_37\n      swap2\n      swap1\n      tag_38\n      jump\t// in\n    tag_37:\n      mload(0x40)\n      dup1\n      swap2\n      sub\n      swap1\n      return\n        /* \"@openzeppelin/contracts/token/ERC20/ERC20.sol\":5190:5476  function transferFrom(... */\n    tag_7:\n      tag_39\n      0x04\n      dup1\n      calldatasize\n      sub\n      dup2\n      add\n      swap1\n      tag_40\n      swap2\n      swap1\n      tag_41\n      jump\t// in\n    tag_40:\n      tag_42\n      jump\t// in\n    tag_39:\n      mload(0x40)\n      tag_43\n      swap2\n      swap1\n      tag_32\n      jump\t// in\n    tag_43:\n      mload(0x40)\n      dup1\n      swap2\n      sub\n      swap1\n      return\n        /* \"@openzeppelin/contracts/token/ERC20/ERC20.sol\":3091:3182  function decimals() public view virtual override returns (uint8) {... */\n    tag_8:\n      tag_44\n      tag_45\n      jump\t// in\n    tag_44:\n      mload(0x40)\n      tag_46\n      swap2\n      swap1\n      tag_47\n      jump\t// in\n    tag_46:\n      mload(0x40)\n      dup1\n      swap2\n      sub\n      swap1\n      return\n        /* \"@openzeppelin/contracts/token/ERC20/ERC20.sol\":5871:6105  function increaseAllowance(address spender, uint256 addedValue) public virtual returns (bool) {... */\n    tag_9:\n      tag_48\n      0x04\n      dup1\n      calldatasize\n      sub\n      dup2\n      add\n      swap1\n      tag_49\n      swap2\n      swap1\n      tag_29\n      jump\t// in\n    tag_49:\n      tag_50\n      jump\t// in\n    tag_48:\n      mload(0x40)\n      tag_51\n      swap2\n      swap1\n      tag_32\n      jump\t// in\n    tag_51:\n      mload(0x40)\n      dup1\n      swap2\n      sub\n      swap1\n      return\n        /* \"Desktop/CarbonToken/CarbonToken/carbonToken.sol\":889:1828  function distributeTokens(address[] memory addresses, uint256[] memory amounts) external {... */\n    tag_10:\n      tag_52\n      0x04\n      dup1\n      calldatasize\n      sub\n      dup2\n      add\n      swap1\n      tag_53\n      swap2\n      swap1\n      tag_54\n      jump\t// in\n    tag_53:\n      tag_55\n      jump\t// in\n    tag_52:\n      stop\n        /* \"@openzeppelin/contracts/token/ERC20/ERC20.sol\":3406:3531  function balanceOf(address account) public view virtual override returns (uint256) {... */\n    tag_11:\n      tag_56\n      0x04\n      dup1\n      calldatasize\n      sub\n      dup2\n      add\n      swap1\n      tag_57\n      swap2\n      swap1\n      tag_58\n      jump\t// in\n    tag_57:\n      tag_59\n      jump\t// in\n    tag_56:\n      mload(0x40)\n      tag_60\n      swap2\n      swap1\n      tag_38\n      jump\t// in\n    tag_60:\n      mload(0x40)\n      dup1\n      swap2\n      sub\n      swap1\n      return\n        /* \"Desktop/CarbonToken/CarbonToken/carbonToken.sol\":519:868  function setAddressInfo(address[] memory addresses, bool[] memory isEnterprise) external {... */\n    tag_12:\n      tag_61\n      0x04\n      dup1\n      calldatasize\n      sub\n      dup2\n      add\n      swap1\n      tag_62\n      swap2\n      swap1\n      tag_63\n      jump\t// in\n    tag_62:\n      tag_64\n      jump\t// in\n    tag_61:\n      stop\n        /* \"@openzeppelin/contracts/token/ERC20/ERC20.sol\":2365:2467  function symbol() public view virtual override returns (string memory) {... */\n    tag_13:\n      tag_65\n      tag_66\n      jump\t// in\n    tag_65:\n      mload(0x40)\n      tag_67\n      swap2\n      swap1\n      tag_26\n      jump\t// in\n    tag_67:\n      mload(0x40)\n      dup1\n      swap2\n      sub\n      swap1\n      return\n        /* \"@openzeppelin/contracts/token/ERC20/ERC20.sol\":6592:7019  function decreaseAllowance(address spender, uint256 subtractedValue) public virtual returns (bool) {... */\n    tag_14:\n      tag_68\n      0x04\n      dup1\n      calldatasize\n      sub\n      dup2\n      add\n      swap1\n      tag_69\n      swap2\n      swap1\n      tag_29\n      jump\t// in\n    tag_69:\n      tag_70\n      jump\t// in\n    tag_68:\n      mload(0x40)\n      tag_71\n      swap2\n      swap1\n      tag_32\n      jump\t// in\n    tag_71:\n      mload(0x40)\n      dup1\n      swap2\n      sub\n      swap1\n      return\n        /* \"@openzeppelin/contracts/token/ERC20/ERC20.sol\":3727:3916  function transfer(address to, uint256 amount) public virtual override returns (bool) {... */\n    tag_15:\n      tag_72\n      0x04\n      dup1\n      calldatasize\n      sub\n      dup2\n      add\n      swap1\n      tag_73\n      swap2\n      swap1\n      tag_29\n      jump\t// in\n    tag_73:\n      tag_74\n      jump\t// in\n    tag_72:\n      mload(0x40)\n      tag_75\n      swap2\n      swap1\n      tag_32\n      jump\t// in\n    tag_75:\n      mload(0x40)\n      dup1\n      swap2\n      sub\n      swap1\n      return\n        /* \"Desktop/CarbonToken/CarbonToken/carbonToken.sol\":2084:2210  function getDistributedType(address user) external view returns(bool){... */\n    tag_16:\n      tag_76\n      0x04\n      dup1\n      calldatasize\n      sub\n      dup2\n      add\n      swap1\n      tag_77\n      swap2\n      swap1\n      tag_58\n      jump\t// in\n    tag_77:\n      tag_78\n      jump\t// in\n    tag_76:\n      mload(0x40)\n      tag_79\n      swap2\n      swap1\n      tag_32\n      jump\t// in\n    tag_79:\n      mload(0x40)\n      dup1\n      swap2\n      sub\n      swap1\n      return\n        /* \"@openzeppelin/contracts/token/ERC20/ERC20.sol\":3974:4123  function allowance(address owner, address spender) public view virtual override returns (uint256) {... */\n    tag_17:\n      tag_80\n      0x04\n      dup1\n      calldatasize\n      sub\n      dup2\n      add\n      swap1\n      tag_81\n      swap2\n      swap1\n      tag_82\n      jump\t// in\n    tag_81:\n      tag_83\n      jump\t// in\n    tag_80:\n      mload(0x40)\n      tag_84\n      swap2\n      swap1\n      tag_38\n      jump\t// in\n    tag_84:\n      mload(0x40)\n      dup1\n      swap2\n      sub\n      swap1\n      return\n        /* \"Desktop/CarbonToken/CarbonToken/carbonToken.sol\":1834:1948  function getClaimed(address user) external view returns(bool){... */\n    tag_18:\n      tag_85\n      0x04\n      dup1\n      calldatasize\n      sub\n      dup2\n      add\n      swap1\n      tag_86\n      swap2\n      swap1\n      tag_58\n      jump\t// in\n    tag_86:\n      tag_87\n      jump\t// in\n    tag_85:\n      mload(0x40)\n      tag_88\n      swap2\n      swap1\n      tag_32\n      jump\t// in\n    tag_88:\n      mload(0x40)\n      dup1\n      swap2\n      sub\n      swap1\n      return\n        /* \"Desktop/CarbonToken/CarbonToken/carbonToken.sol\":1954:2078  function getEnterpriseType(address user) external view returns(bool){... */\n    tag_19:\n      tag_89\n      0x04\n      dup1\n      calldatasize\n      sub\n      dup2\n      add\n      swap1\n      tag_90\n      swap2\n      swap1\n      tag_58\n      jump\t// in\n    tag_90:\n      tag_91\n      jump\t// in\n    tag_89:\n      mload(0x40)\n      tag_92\n      swap2\n      swap1\n      tag_32\n      jump\t// in\n    tag_92:\n      mload(0x40)\n      dup1\n      swap2\n      sub\n      swap1\n      return\n        /* \"@openzeppelin/contracts/token/ERC20/ERC20.sol\":2154:2252  function name() public view virtual override returns (string memory) {... */\n    tag_24:\n        /* \"@openzeppelin/contracts/token/ERC20/ERC20.sol\":2208:2221  string memory */\n      0x60\n        /* \"@openzeppelin/contracts/token/ERC20/ERC20.sol\":2240:2245  _name */\n      0x03\n        /* \"@openzeppelin/contracts/token/ERC20/ERC20.sol\":2233:2245  return _name */\n      dup1\n      sload\n      tag_94\n      swap1\n      tag_95\n      jump\t// in\n    tag_94:\n      dup1\n      0x1f\n      add\n      0x20\n      dup1\n      swap2\n      div\n      mul\n      0x20\n      add\n      mload(0x40)\n      swap1\n      dup2\n      add\n      0x40\n      mstore\n      dup1\n      swap3\n      swap2\n      swap1\n      dup2\n      dup2\n      mstore\n      0x20\n      add\n      dup3\n      dup1\n      sload\n      tag_96\n      swap1\n      tag_95\n      jump\t// in\n    tag_96:\n      dup1\n      iszero\n      tag_97\n      jumpi\n      dup1\n      0x1f\n      lt\n      tag_98\n      jumpi\n      0x0100\n      dup1\n      dup4\n      sload\n      div\n      mul\n      dup4\n      mstore\n      swap2\n      0x20\n      add\n      swap2\n      jump(tag_97)\n    tag_98:\n      dup3\n      add\n      swap2\n      swap1\n      0x00\n      mstore\n      keccak256(0x00, 0x20)\n      swap1\n    tag_99:\n      dup2\n      sload\n      dup2\n      mstore\n      swap1\n      0x01\n      add\n      swap1\n      0x20\n      add\n      dup1\n      dup4\n      gt\n      tag_99\n      jumpi\n      dup3\n      swap1\n      sub\n      0x1f\n      and\n      dup3\n      add\n      swap2\n    tag_97:\n      pop\n      pop\n      pop\n      pop\n      pop\n      swap1\n      pop\n        /* \"@openzeppelin/contracts/token/ERC20/ERC20.sol\":2154:2252  function name() public view virtual override returns (string memory) {... */\n      swap1\n      jump\t// out\n        /* \"@openzeppelin/contracts/token/ERC20/ERC20.sol\":4431:4628  function approve(address spender, uint256 amount) public virtual override returns (bool) {... */\n    tag_30:\n        /* \"@openzeppelin/contracts/token/ERC20/ERC20.sol\":4514:4518  bool */\n      0x00\n        /* \"@openzeppelin/contracts/token/ERC20/ERC20.sol\":4530:4543  address owner */\n      dup1\n        /* \"@openzeppelin/contracts/token/ERC20/ERC20.sol\":4546:4558  _msgSender() */\n      tag_101\n        /* \"@openzeppelin/contracts/token/ERC20/ERC20.sol\":4546:4556  _msgSender */\n      tag_102\n        /* \"@openzeppelin/contracts/token/ERC20/ERC20.sol\":4546:4558  _msgSender() */\n      jump\t// in\n    tag_101:\n        /* \"@openzeppelin/contracts/token/ERC20/ERC20.sol\":4530:4558  address owner = _msgSender() */\n      swap1\n      pop\n        /* \"@openzeppelin/contracts/token/ERC20/ERC20.sol\":4568:4600  _approve(owner, spender, amount) */\n      tag_103\n        /* \"@openzeppelin/contracts/token/ERC20/ERC20.sol\":4577:4582  owner */\n      dup2\n        /* \"@openzeppelin/contracts/token/ERC20/ERC20.sol\":4584:4591  spender */\n      dup6\n        /* \"@openzeppelin/contracts/token/ERC20/ERC20.sol\":4593:4599  amount */\n      dup6\n        /* \"@openzeppelin/contracts/token/ERC20/ERC20.sol\":4568:4576  _approve */\n      tag_104\n        /* \"@openzeppelin/contracts/token/ERC20/ERC20.sol\":4568:4600  _approve(owner, spender, amount) */\n      jump\t// in\n    tag_103:\n        /* \"@openzeppelin/contracts/token/ERC20/ERC20.sol\":4617:4621  true */\n      0x01\n        /* \"@openzeppelin/contracts/token/ERC20/ERC20.sol\":4610:4621  return true */\n      swap2\n      pop\n      pop\n        /* \"@openzeppelin/contracts/token/ERC20/ERC20.sol\":4431:4628  function approve(address spender, uint256 amount) public virtual override returns (bool) {... */\n      swap3\n      swap2\n      pop\n      pop\n      jump\t// out\n        /* \"Desktop/CarbonToken/CarbonToken/carbonToken.sol\":2216:2316  function nextYear() external {... */\n    tag_34:\n        /* \"Desktop/CarbonToken/CarbonToken/carbonToken.sol\":2256:2267  currentYear */\n      0x06\n      0x00\n        /* \"Desktop/CarbonToken/CarbonToken/carbonToken.sol\":2256:2269  currentYear++ */\n      dup2\n      sload\n      dup1\n      swap3\n      swap2\n      swap1\n      tag_106\n      swap1\n      tag_107\n      jump\t// in\n    tag_106:\n      swap2\n      swap1\n      pop\n      sstore\n      pop\n        /* \"Desktop/CarbonToken/CarbonToken/carbonToken.sol\":2216:2316  function nextYear() external {... */\n      jump\t// out\n        /* \"@openzeppelin/contracts/token/ERC20/ERC20.sol\":3242:3348  function totalSupply() public view virtual override returns (uint256) {... */\n    tag_36:\n        /* \"@openzeppelin/contracts/token/ERC20/ERC20.sol\":3303:3310  uint256 */\n      0x00\n        /* \"@openzeppelin/contracts/token/ERC20/ERC20.sol\":3329:3341  _totalSupply */\n      sload(0x02)\n        /* \"@openzeppelin/contracts/token/ERC20/ERC20.sol\":3322:3341  return _totalSupply */\n      swap1\n      pop\n        /* \"@openzeppelin/contracts/token/ERC20/ERC20.sol\":3242:3348  function totalSupply() public view virtual override returns (uint256) {... */\n      swap1\n      jump\t// out\n        /* \"@openzeppelin/contracts/token/ERC20/ERC20.sol\":5190:5476  function transferFrom(... */\n    tag_42:\n        /* \"@openzeppelin/contracts/token/ERC20/ERC20.sol\":5317:5321  bool */\n      0x00\n        /* \"@openzeppelin/contracts/token/ERC20/ERC20.sol\":5333:5348  address spender */\n      dup1\n        /* \"@openzeppelin/contracts/token/ERC20/ERC20.sol\":5351:5363  _msgSender() */\n      tag_110\n        /* \"@openzeppelin/contracts/token/ERC20/ERC20.sol\":5351:5361  _msgSender */\n      tag_102\n        /* \"@openzeppelin/contracts/token/ERC20/ERC20.sol\":5351:5363  _msgSender() */\n      jump\t// in\n    tag_110:\n        /* \"@openzeppelin/contracts/token/ERC20/ERC20.sol\":5333:5363  address spender = _msgSender() */\n      swap1\n      pop\n        /* \"@openzeppelin/contracts/token/ERC20/ERC20.sol\":5373:5411  _spendAllowance(from, spender, amount) */\n      tag_111\n        /* \"@openzeppelin/contracts/token/ERC20/ERC20.sol\":5389:5393  from */\n      dup6\n        /* \"@openzeppelin/contracts/token/ERC20/ERC20.sol\":5395:5402  spender */\n      dup3\n        /* \"@openzeppelin/contracts/token/ERC20/ERC20.sol\":5404:5410  amount */\n      dup6\n        /* \"@openzeppelin/contracts/token/ERC20/ERC20.sol\":5373:5388  _spendAllowance */\n      tag_112\n        /* \"@openzeppelin/contracts/token/ERC20/ERC20.sol\":5373:5411  _spendAllowance(from, spender, amount) */\n      jump\t// in\n    tag_111:\n        /* \"@openzeppelin/contracts/token/ERC20/ERC20.sol\":5421:5448  _transfer(from, to, amount) */\n      tag_113\n        /* \"@openzeppelin/contracts/token/ERC20/ERC20.sol\":5431:5435  from */\n      dup6\n        /* \"@openzeppelin/contracts/token/ERC20/ERC20.sol\":5437:5439  to */\n      dup6\n        /* \"@openzeppelin/contracts/token/ERC20/ERC20.sol\":5441:5447  amount */\n      dup6\n        /* \"@openzeppelin/contracts/token/ERC20/ERC20.sol\":5421:5430  _transfer */\n      tag_114\n        /* \"@openzeppelin/contracts/token/ERC20/ERC20.sol\":5421:5448  _transfer(from, to, amount) */\n      jump\t// in\n    tag_113:\n        /* \"@openzeppelin/contracts/token/ERC20/ERC20.sol\":5465:5469  true */\n      0x01\n        /* \"@openzeppelin/contracts/token/ERC20/ERC20.sol\":5458:5469  return true */\n      swap2\n      pop\n      pop\n        /* \"@openzeppelin/contracts/token/ERC20/ERC20.sol\":5190:5476  function transferFrom(... */\n      swap4\n      swap3\n      pop\n      pop\n      pop\n      jump\t// out\n        /* \"@openzeppelin/contracts/token/ERC20/ERC20.sol\":3091:3182  function decimals() public view virtual override returns (uint8) {... */\n    tag_45:\n        /* \"@openzeppelin/contracts/token/ERC20/ERC20.sol\":3149:3154  uint8 */\n      0x00\n        /* \"@openzeppelin/contracts/token/ERC20/ERC20.sol\":3173:3175  18 */\n      0x12\n        /* \"@openzeppelin/contracts/token/ERC20/ERC20.sol\":3166:3175  return 18 */\n      swap1\n      pop\n        /* \"@openzeppelin/contracts/token/ERC20/ERC20.sol\":3091:3182  function decimals() public view virtual override returns (uint8) {... */\n      swap1\n      jump\t// out\n        /* \"@openzeppelin/contracts/token/ERC20/ERC20.sol\":5871:6105  function increaseAllowance(address spender, uint256 addedValue) public virtual returns (bool) {... */\n    tag_50:\n        /* \"@openzeppelin/contracts/token/ERC20/ERC20.sol\":5959:5963  bool */\n      0x00\n        /* \"@openzeppelin/contracts/token/ERC20/ERC20.sol\":5975:5988  address owner */\n      dup1\n        /* \"@openzeppelin/contracts/token/ERC20/ERC20.sol\":5991:6003  _msgSender() */\n      tag_117\n        /* \"@openzeppelin/contracts/token/ERC20/ERC20.sol\":5991:6001  _msgSender */\n      tag_102\n        /* \"@openzeppelin/contracts/token/ERC20/ERC20.sol\":5991:6003  _msgSender() */\n      jump\t// in\n    tag_117:\n        /* \"@openzeppelin/contracts/token/ERC20/ERC20.sol\":5975:6003  address owner = _msgSender() */\n      swap1\n      pop\n        /* \"@openzeppelin/contracts/token/ERC20/ERC20.sol\":6013:6077  _approve(owner, spender, allowance(owner, spender) + addedValue) */\n      tag_118\n        /* \"@openzeppelin/contracts/token/ERC20/ERC20.sol\":6022:6027  owner */\n      dup2\n        /* \"@openzeppelin/contracts/token/ERC20/ERC20.sol\":6029:6036  spender */\n      dup6\n        /* \"@openzeppelin/contracts/token/ERC20/ERC20.sol\":6066:6076  addedValue */\n      dup6\n        /* \"@openzeppelin/contracts/token/ERC20/ERC20.sol\":6038:6063  allowance(owner, spender) */\n      tag_119\n        /* \"@openzeppelin/contracts/token/ERC20/ERC20.sol\":6048:6053  owner */\n      dup6\n        /* \"@openzeppelin/contracts/token/ERC20/ERC20.sol\":6055:6062  spender */\n      dup10\n        /* \"@openzeppelin/contracts/token/ERC20/ERC20.sol\":6038:6047  allowance */\n      tag_83\n        /* \"@openzeppelin/contracts/token/ERC20/ERC20.sol\":6038:6063  allowance(owner, spender) */\n      jump\t// in\n    tag_119:\n        /* \"@openzeppelin/contracts/token/ERC20/ERC20.sol\":6038:6076  allowance(owner, spender) + addedValue */\n      tag_120\n      swap2\n      swap1\n      tag_121\n      jump\t// in\n    tag_120:\n        /* \"@openzeppelin/contracts/token/ERC20/ERC20.sol\":6013:6021  _approve */\n      tag_104\n        /* \"@openzeppelin/contracts/token/ERC20/ERC20.sol\":6013:6077  _approve(owner, spender, allowance(owner, spender) + addedValue) */\n      jump\t// in\n    tag_118:\n        /* \"@openzeppelin/contracts/token/ERC20/ERC20.sol\":6094:6098  true */\n      0x01\n        /* \"@openzeppelin/contracts/token/ERC20/ERC20.sol\":6087:6098  return true */\n      swap2\n      pop\n      pop\n        /* \"@openzeppelin/contracts/token/ERC20/ERC20.sol\":5871:6105  function increaseAllowance(address spender, uint256 addedValue) public virtual returns (bool) {... */\n      swap3\n      swap2\n      pop\n      pop\n      jump\t// out\n        /* \"Desktop/CarbonToken/CarbonToken/carbonToken.sol\":889:1828  function distributeTokens(address[] memory addresses, uint256[] memory amounts) external {... */\n    tag_55:\n        /* \"Desktop/CarbonToken/CarbonToken/carbonToken.sol\":1017:1024  amounts */\n      dup1\n        /* \"Desktop/CarbonToken/CarbonToken/carbonToken.sol\":1017:1031  amounts.length */\n      mload\n        /* \"Desktop/CarbonToken/CarbonToken/carbonToken.sol\":997:1006  addresses */\n      dup3\n        /* \"Desktop/CarbonToken/CarbonToken/carbonToken.sol\":997:1013  addresses.length */\n      mload\n        /* \"Desktop/CarbonToken/CarbonToken/carbonToken.sol\":997:1031  addresses.length == amounts.length */\n      eq\n        /* \"Desktop/CarbonToken/CarbonToken/carbonToken.sol\":989:1049  require(addresses.length == amounts.length, \"Invalid input\") */\n      tag_123\n      jumpi\n      mload(0x40)\n      0x08c379a000000000000000000000000000000000000000000000000000000000\n      dup2\n      mstore\n      0x04\n      add\n      tag_124\n      swap1\n      tag_125\n      jump\t// in\n    tag_124:\n      mload(0x40)\n      dup1\n      swap2\n      sub\n      swap1\n      revert\n    tag_123:\n        /* \"Desktop/CarbonToken/CarbonToken/carbonToken.sol\":1067:1076  uint256 i */\n      0x00\n        /* \"Desktop/CarbonToken/CarbonToken/carbonToken.sol\":1062:1821  for (uint256 i = 0; i < addresses.length; i++) {... */\n    tag_126:\n        /* \"Desktop/CarbonToken/CarbonToken/carbonToken.sol\":1086:1095  addresses */\n      dup3\n        /* \"Desktop/CarbonToken/CarbonToken/carbonToken.sol\":1086:1102  addresses.length */\n      mload\n        /* \"Desktop/CarbonToken/CarbonToken/carbonToken.sol\":1082:1083  i */\n      dup2\n        /* \"Desktop/CarbonToken/CarbonToken/carbonToken.sol\":1082:1102  i < addresses.length */\n      lt\n        /* \"Desktop/CarbonToken/CarbonToken/carbonToken.sol\":1062:1821  for (uint256 i = 0; i < addresses.length; i++) {... */\n      iszero\n      tag_127\n      jumpi\n        /* \"Desktop/CarbonToken/CarbonToken/carbonToken.sol\":1145:1146  0 */\n      0x00\n        /* \"Desktop/CarbonToken/CarbonToken/carbonToken.sol\":1132:1139  amounts */\n      dup3\n        /* \"Desktop/CarbonToken/CarbonToken/carbonToken.sol\":1140:1141  i */\n      dup3\n        /* \"Desktop/CarbonToken/CarbonToken/carbonToken.sol\":1132:1142  amounts[i] */\n      dup2\n      mload\n      dup2\n      lt\n      tag_129\n      jumpi\n      tag_130\n      tag_131\n      jump\t// in\n    tag_130:\n    tag_129:\n      0x20\n      mul\n      0x20\n      add\n      add\n      mload\n        /* \"Desktop/CarbonToken/CarbonToken/carbonToken.sol\":1132:1146  amounts[i] > 0 */\n      gt\n        /* \"Desktop/CarbonToken/CarbonToken/carbonToken.sol\":1124:1183  require(amounts[i] > 0, \"Amount must be greater than zero\") */\n      tag_132\n      jumpi\n      mload(0x40)\n      0x08c379a000000000000000000000000000000000000000000000000000000000\n      dup2\n      mstore\n      0x04\n      add\n      tag_133\n      swap1\n      tag_134\n      jump\t// in\n    tag_133:\n      mload(0x40)\n      dup1\n      swap2\n      sub\n      swap1\n      revert\n    tag_132:\n        /* \"Desktop/CarbonToken/CarbonToken/carbonToken.sol\":1200:1217  address recipient */\n      0x00\n        /* \"Desktop/CarbonToken/CarbonToken/carbonToken.sol\":1220:1229  addresses */\n      dup4\n        /* \"Desktop/CarbonToken/CarbonToken/carbonToken.sol\":1230:1231  i */\n      dup3\n        /* \"Desktop/CarbonToken/CarbonToken/carbonToken.sol\":1220:1232  addresses[i] */\n      dup2\n      mload\n      dup2\n      lt\n      tag_135\n      jumpi\n      tag_136\n      tag_131\n      jump\t// in\n    tag_136:\n    tag_135:\n      0x20\n      mul\n      0x20\n      add\n      add\n      mload\n        /* \"Desktop/CarbonToken/CarbonToken/carbonToken.sol\":1200:1232  address recipient = addresses[i] */\n      swap1\n      pop\n        /* \"Desktop/CarbonToken/CarbonToken/carbonToken.sol\":1247:1261  uint256 amount */\n      0x00\n        /* \"Desktop/CarbonToken/CarbonToken/carbonToken.sol\":1264:1271  amounts */\n      dup4\n        /* \"Desktop/CarbonToken/CarbonToken/carbonToken.sol\":1272:1273  i */\n      dup4\n        /* \"Desktop/CarbonToken/CarbonToken/carbonToken.sol\":1264:1274  amounts[i] */\n      dup2\n      mload\n      dup2\n      lt\n      tag_137\n      jumpi\n      tag_138\n      tag_131\n      jump\t// in\n    tag_138:\n    tag_137:\n      0x20\n      mul\n      0x20\n      add\n      add\n      mload\n        /* \"Desktop/CarbonToken/CarbonToken/carbonToken.sol\":1247:1274  uint256 amount = amounts[i] */\n      swap1\n      pop\n        /* \"Desktop/CarbonToken/CarbonToken/carbonToken.sol\":1300:1311  addressInfo */\n      0x05\n        /* \"Desktop/CarbonToken/CarbonToken/carbonToken.sol\":1300:1322  addressInfo[recipient] */\n      0x00\n        /* \"Desktop/CarbonToken/CarbonToken/carbonToken.sol\":1312:1321  recipient */\n      dup4\n        /* \"Desktop/CarbonToken/CarbonToken/carbonToken.sol\":1300:1322  addressInfo[recipient] */\n      0xffffffffffffffffffffffffffffffffffffffff\n      and\n      0xffffffffffffffffffffffffffffffffffffffff\n      and\n      dup2\n      mstore\n      0x20\n      add\n      swap1\n      dup2\n      mstore\n      0x20\n      add\n      0x00\n      keccak256\n        /* \"Desktop/CarbonToken/CarbonToken/carbonToken.sol\":1300:1336  addressInfo[recipient].isDistributed */\n      0x00\n      add\n      0x01\n      swap1\n      sload\n      swap1\n      0x0100\n      exp\n      swap1\n      div\n      0xff\n      and\n        /* \"Desktop/CarbonToken/CarbonToken/carbonToken.sol\":1299:1336  !addressInfo[recipient].isDistributed */\n      iszero\n        /* \"Desktop/CarbonToken/CarbonToken/carbonToken.sol\":1291:1381  require(!addressInfo[recipient].isDistributed, \"Tokens already distributed for this year\") */\n      tag_139\n      jumpi\n      mload(0x40)\n      0x08c379a000000000000000000000000000000000000000000000000000000000\n      dup2\n      mstore\n      0x04\n      add\n      tag_140\n      swap1\n      tag_141\n      jump\t// in\n    tag_140:\n      mload(0x40)\n      dup1\n      swap2\n      sub\n      swap1\n      revert\n    tag_139:\n        /* \"Desktop/CarbonToken/CarbonToken/carbonToken.sol\":1402:1413  addressInfo */\n      0x05\n        /* \"Desktop/CarbonToken/CarbonToken/carbonToken.sol\":1402:1424  addressInfo[recipient] */\n      0x00\n        /* \"Desktop/CarbonToken/CarbonToken/carbonToken.sol\":1414:1423  recipient */\n      dup4\n        /* \"Desktop/CarbonToken/CarbonToken/carbonToken.sol\":1402:1424  addressInfo[recipient] */\n      0xffffffffffffffffffffffffffffffffffffffff\n      and\n      0xffffffffffffffffffffffffffffffffffffffff\n      and\n      dup2\n      mstore\n      0x20\n      add\n      swap1\n      dup2\n      mstore\n      0x20\n      add\n      0x00\n      keccak256\n        /* \"Desktop/CarbonToken/CarbonToken/carbonToken.sol\":1402:1437  addressInfo[recipient].isEnterprise */\n      0x00\n      add\n      0x00\n      swap1\n      sload\n      swap1\n      0x0100\n      exp\n      swap1\n      div\n      0xff\n      and\n        /* \"Desktop/CarbonToken/CarbonToken/carbonToken.sol\":1398:1697  if (addressInfo[recipient].isEnterprise) {... */\n      iszero\n      tag_142\n      jumpi\n        /* \"Desktop/CarbonToken/CarbonToken/carbonToken.sol\":1500:1540  _transfer(msg.sender, recipient, amount) */\n      tag_143\n        /* \"Desktop/CarbonToken/CarbonToken/carbonToken.sol\":1510:1520  msg.sender */\n      caller\n        /* \"Desktop/CarbonToken/CarbonToken/carbonToken.sol\":1522:1531  recipient */\n      dup4\n        /* \"Desktop/CarbonToken/CarbonToken/carbonToken.sol\":1533:1539  amount */\n      dup4\n        /* \"Desktop/CarbonToken/CarbonToken/carbonToken.sol\":1500:1509  _transfer */\n      tag_114\n        /* \"Desktop/CarbonToken/CarbonToken/carbonToken.sol\":1500:1540  _transfer(msg.sender, recipient, amount) */\n      jump\t// in\n    tag_143:\n        /* \"Desktop/CarbonToken/CarbonToken/carbonToken.sol\":1398:1697  if (addressInfo[recipient].isEnterprise) {... */\n      jump(tag_144)\n    tag_142:\n        /* \"Desktop/CarbonToken/CarbonToken/carbonToken.sol\":1641:1681  _transfer(msg.sender, recipient, amount) */\n      tag_145\n        /* \"Desktop/CarbonToken/CarbonToken/carbonToken.sol\":1651:1661  msg.sender */\n      caller\n        /* \"Desktop/CarbonToken/CarbonToken/carbonToken.sol\":1663:1672  recipient */\n      dup4\n        /* \"Desktop/CarbonToken/CarbonToken/carbonToken.sol\":1674:1680  amount */\n      dup4\n        /* \"Desktop/CarbonToken/CarbonToken/carbonToken.sol\":1641:1650  _transfer */\n      tag_114\n        /* \"Desktop/CarbonToken/CarbonToken/carbonToken.sol\":1641:1681  _transfer(msg.sender, recipient, amount) */\n      jump\t// in\n    tag_145:\n        /* \"Desktop/CarbonToken/CarbonToken/carbonToken.sol\":1398:1697  if (addressInfo[recipient].isEnterprise) {... */\n    tag_144:\n        /* \"Desktop/CarbonToken/CarbonToken/carbonToken.sol\":1752:1756  true */\n      0x01\n        /* \"Desktop/CarbonToken/CarbonToken/carbonToken.sol\":1713:1724  addressInfo */\n      0x05\n        /* \"Desktop/CarbonToken/CarbonToken/carbonToken.sol\":1713:1735  addressInfo[recipient] */\n      0x00\n        /* \"Desktop/CarbonToken/CarbonToken/carbonToken.sol\":1725:1734  recipient */\n      dup5\n        /* \"Desktop/CarbonToken/CarbonToken/carbonToken.sol\":1713:1735  addressInfo[recipient] */\n      0xffffffffffffffffffffffffffffffffffffffff\n      and\n      0xffffffffffffffffffffffffffffffffffffffff\n      and\n      dup2\n      mstore\n      0x20\n      add\n      swap1\n      dup2\n      mstore\n      0x20\n      add\n      0x00\n      keccak256\n        /* \"Desktop/CarbonToken/CarbonToken/carbonToken.sol\":1713:1749  addressInfo[recipient].isDistributed */\n      0x00\n      add\n      0x01\n        /* \"Desktop/CarbonToken/CarbonToken/carbonToken.sol\":1713:1756  addressInfo[recipient].isDistributed = true */\n      0x0100\n      exp\n      dup2\n      sload\n      dup2\n      0xff\n      mul\n      not\n      and\n      swap1\n      dup4\n      iszero\n      iszero\n      mul\n      or\n      swap1\n      sstore\n      pop\n        /* \"Desktop/CarbonToken/CarbonToken/carbonToken.sol\":1805:1809  true */\n      0x01\n        /* \"Desktop/CarbonToken/CarbonToken/carbonToken.sol\":1771:1782  addressInfo */\n      0x05\n        /* \"Desktop/CarbonToken/CarbonToken/carbonToken.sol\":1771:1793  addressInfo[recipient] */\n      0x00\n        /* \"Desktop/CarbonToken/CarbonToken/carbonToken.sol\":1783:1792  recipient */\n      dup5\n        /* \"Desktop/CarbonToken/CarbonToken/carbonToken.sol\":1771:1793  addressInfo[recipient] */\n      0xffffffffffffffffffffffffffffffffffffffff\n      and\n      0xffffffffffffffffffffffffffffffffffffffff\n      and\n      dup2\n      mstore\n      0x20\n      add\n      swap1\n      dup2\n      mstore\n      0x20\n      add\n      0x00\n      keccak256\n        /* \"Desktop/CarbonToken/CarbonToken/carbonToken.sol\":1771:1803  addressInfo[recipient].isClaimed */\n      0x00\n      add\n      0x02\n        /* \"Desktop/CarbonToken/CarbonToken/carbonToken.sol\":1771:1809  addressInfo[recipient].isClaimed =true */\n      0x0100\n      exp\n      dup2\n      sload\n      dup2\n      0xff\n      mul\n      not\n      and\n      swap1\n      dup4\n      iszero\n      iszero\n      mul\n      or\n      swap1\n      sstore\n      pop\n        /* \"Desktop/CarbonToken/CarbonToken/carbonToken.sol\":1109:1821  {... */\n      pop\n      pop\n        /* \"Desktop/CarbonToken/CarbonToken/carbonToken.sol\":1104:1107  i++ */\n      dup1\n      dup1\n      tag_146\n      swap1\n      tag_107\n      jump\t// in\n    tag_146:\n      swap2\n      pop\n      pop\n        /* \"Desktop/CarbonToken/CarbonToken/carbonToken.sol\":1062:1821  for (uint256 i = 0; i < addresses.length; i++) {... */\n      jump(tag_126)\n    tag_127:\n      pop\n        /* \"Desktop/CarbonToken/CarbonToken/carbonToken.sol\":889:1828  function distributeTokens(address[] memory addresses, uint256[] memory amounts) external {... */\n      pop\n      pop\n      jump\t// out\n        /* \"@openzeppelin/contracts/token/ERC20/ERC20.sol\":3406:3531  function balanceOf(address account) public view virtual override returns (uint256) {... */\n    tag_59:\n        /* \"@openzeppelin/contracts/token/ERC20/ERC20.sol\":3480:3487  uint256 */\n      0x00\n        /* \"@openzeppelin/contracts/token/ERC20/ERC20.sol\":3506:3515  _balances */\n      dup1\n        /* \"@openzeppelin/contracts/token/ERC20/ERC20.sol\":3506:3524  _balances[account] */\n      0x00\n        /* \"@openzeppelin/contracts/token/ERC20/ERC20.sol\":3516:3523  account */\n      dup4\n        /* \"@openzeppelin/contracts/token/ERC20/ERC20.sol\":3506:3524  _balances[account] */\n      0xffffffffffffffffffffffffffffffffffffffff\n      and\n      0xffffffffffffffffffffffffffffffffffffffff\n      and\n      dup2\n      mstore\n      0x20\n      add\n      swap1\n      dup2\n      mstore\n      0x20\n      add\n      0x00\n      keccak256\n      sload\n        /* \"@openzeppelin/contracts/token/ERC20/ERC20.sol\":3499:3524  return _balances[account] */\n      swap1\n      pop\n        /* \"@openzeppelin/contracts/token/ERC20/ERC20.sol\":3406:3531  function balanceOf(address account) public view virtual override returns (uint256) {... */\n      swap2\n      swap1\n      pop\n      jump\t// out\n        /* \"Desktop/CarbonToken/CarbonToken/carbonToken.sol\":519:868  function setAddressInfo(address[] memory addresses, bool[] memory isEnterprise) external {... */\n    tag_64:\n        /* \"Desktop/CarbonToken/CarbonToken/carbonToken.sol\":647:659  isEnterprise */\n      dup1\n        /* \"Desktop/CarbonToken/CarbonToken/carbonToken.sol\":647:666  isEnterprise.length */\n      mload\n        /* \"Desktop/CarbonToken/CarbonToken/carbonToken.sol\":627:636  addresses */\n      dup3\n        /* \"Desktop/CarbonToken/CarbonToken/carbonToken.sol\":627:643  addresses.length */\n      mload\n        /* \"Desktop/CarbonToken/CarbonToken/carbonToken.sol\":627:666  addresses.length == isEnterprise.length */\n      eq\n        /* \"Desktop/CarbonToken/CarbonToken/carbonToken.sol\":619:684  require(addresses.length == isEnterprise.length, \"Invalid input\") */\n      tag_149\n      jumpi\n      mload(0x40)\n      0x08c379a000000000000000000000000000000000000000000000000000000000\n      dup2\n      mstore\n      0x04\n      add\n      tag_150\n      swap1\n      tag_125\n      jump\t// in\n    tag_150:\n      mload(0x40)\n      dup1\n      swap2\n      sub\n      swap1\n      revert\n    tag_149:\n        /* \"Desktop/CarbonToken/CarbonToken/carbonToken.sol\":702:711  uint256 i */\n      0x00\n        /* \"Desktop/CarbonToken/CarbonToken/carbonToken.sol\":697:861  for (uint256 i = 0; i < addresses.length; i++) {... */\n    tag_151:\n        /* \"Desktop/CarbonToken/CarbonToken/carbonToken.sol\":721:730  addresses */\n      dup3\n        /* \"Desktop/CarbonToken/CarbonToken/carbonToken.sol\":721:737  addresses.length */\n      mload\n        /* \"Desktop/CarbonToken/CarbonToken/carbonToken.sol\":717:718  i */\n      dup2\n        /* \"Desktop/CarbonToken/CarbonToken/carbonToken.sol\":717:737  i < addresses.length */\n      lt\n        /* \"Desktop/CarbonToken/CarbonToken/carbonToken.sol\":697:861  for (uint256 i = 0; i < addresses.length; i++) {... */\n      iszero\n      tag_152\n      jumpi\n        /* \"Desktop/CarbonToken/CarbonToken/carbonToken.sol\":759:771  address addr */\n      0x00\n        /* \"Desktop/CarbonToken/CarbonToken/carbonToken.sol\":774:783  addresses */\n      dup4\n        /* \"Desktop/CarbonToken/CarbonToken/carbonToken.sol\":784:785  i */\n      dup3\n        /* \"Desktop/CarbonToken/CarbonToken/carbonToken.sol\":774:786  addresses[i] */\n      dup2\n      mload\n      dup2\n      lt\n      tag_154\n      jumpi\n      tag_155\n      tag_131\n      jump\t// in\n    tag_155:\n    tag_154:\n      0x20\n      mul\n      0x20\n      add\n      add\n      mload\n        /* \"Desktop/CarbonToken/CarbonToken/carbonToken.sol\":759:786  address addr = addresses[i] */\n      swap1\n      pop\n        /* \"Desktop/CarbonToken/CarbonToken/carbonToken.sol\":834:846  isEnterprise */\n      dup3\n        /* \"Desktop/CarbonToken/CarbonToken/carbonToken.sol\":847:848  i */\n      dup3\n        /* \"Desktop/CarbonToken/CarbonToken/carbonToken.sol\":834:849  isEnterprise[i] */\n      dup2\n      mload\n      dup2\n      lt\n      tag_156\n      jumpi\n      tag_157\n      tag_131\n      jump\t// in\n    tag_157:\n    tag_156:\n      0x20\n      mul\n      0x20\n      add\n      add\n      mload\n        /* \"Desktop/CarbonToken/CarbonToken/carbonToken.sol\":801:812  addressInfo */\n      0x05\n        /* \"Desktop/CarbonToken/CarbonToken/carbonToken.sol\":801:818  addressInfo[addr] */\n      0x00\n        /* \"Desktop/CarbonToken/CarbonToken/carbonToken.sol\":813:817  addr */\n      dup4\n        /* \"Desktop/CarbonToken/CarbonToken/carbonToken.sol\":801:818  addressInfo[addr] */\n      0xffffffffffffffffffffffffffffffffffffffff\n      and\n      0xffffffffffffffffffffffffffffffffffffffff\n      and\n      dup2\n      mstore\n      0x20\n      add\n      swap1\n      dup2\n      mstore\n      0x20\n      add\n      0x00\n      keccak256\n        /* \"Desktop/CarbonToken/CarbonToken/carbonToken.sol\":801:831  addressInfo[addr].isEnterprise */\n      0x00\n      add\n      0x00\n        /* \"Desktop/CarbonToken/CarbonToken/carbonToken.sol\":801:849  addressInfo[addr].isEnterprise = isEnterprise[i] */\n      0x0100\n      exp\n      dup2\n      sload\n      dup2\n      0xff\n      mul\n      not\n      and\n      swap1\n      dup4\n      iszero\n      iszero\n      mul\n      or\n      swap1\n      sstore\n      pop\n        /* \"Desktop/CarbonToken/CarbonToken/carbonToken.sol\":744:861  {... */\n      pop\n        /* \"Desktop/CarbonToken/CarbonToken/carbonToken.sol\":739:742  i++ */\n      dup1\n      dup1\n      tag_158\n      swap1\n      tag_107\n      jump\t// in\n    tag_158:\n      swap2\n      pop\n      pop\n        /* \"Desktop/CarbonToken/CarbonToken/carbonToken.sol\":697:861  for (uint256 i = 0; i < addresses.length; i++) {... */\n      jump(tag_151)\n    tag_152:\n      pop\n        /* \"Desktop/CarbonToken/CarbonToken/carbonToken.sol\":519:868  function setAddressInfo(address[] memory addresses, bool[] memory isEnterprise) external {... */\n      pop\n      pop\n      jump\t// out\n        /* \"@openzeppelin/contracts/token/ERC20/ERC20.sol\":2365:2467  function symbol() public view virtual override returns (string memory) {... */\n    tag_66:\n        /* \"@openzeppelin/contracts/token/ERC20/ERC20.sol\":2421:2434  string memory */\n      0x60\n        /* \"@openzeppelin/contracts/token/ERC20/ERC20.sol\":2453:2460  _symbol */\n      0x04\n        /* \"@openzeppelin/contracts/token/ERC20/ERC20.sol\":2446:2460  return _symbol */\n      dup1\n      sload\n      tag_160\n      swap1\n      tag_95\n      jump\t// in\n    tag_160:\n      dup1\n      0x1f\n      add\n      0x20\n      dup1\n      swap2\n      div\n      mul\n      0x20\n      add\n      mload(0x40)\n      swap1\n      dup2\n      add\n      0x40\n      mstore\n      dup1\n      swap3\n      swap2\n      swap1\n      dup2\n      dup2\n      mstore\n      0x20\n      add\n      dup3\n      dup1\n      sload\n      tag_161\n      swap1\n      tag_95\n      jump\t// in\n    tag_161:\n      dup1\n      iszero\n      tag_162\n      jumpi\n      dup1\n      0x1f\n      lt\n      tag_163\n      jumpi\n      0x0100\n      dup1\n      dup4\n      sload\n      div\n      mul\n      dup4\n      mstore\n      swap2\n      0x20\n      add\n      swap2\n      jump(tag_162)\n    tag_163:\n      dup3\n      add\n      swap2\n      swap1\n      0x00\n      mstore\n      keccak256(0x00, 0x20)\n      swap1\n    tag_164:\n      dup2\n      sload\n      dup2\n      mstore\n      swap1\n      0x01\n      add\n      swap1\n      0x20\n      add\n      dup1\n      dup4\n      gt\n      tag_164\n      jumpi\n      dup3\n      swap1\n      sub\n      0x1f\n      and\n      dup3\n      add\n      swap2\n    tag_162:\n      pop\n      pop\n      pop\n      pop\n      pop\n      swap1\n      pop\n        /* \"@openzeppelin/contracts/token/ERC20/ERC20.sol\":2365:2467  function symbol() public view virtual override returns (string memory) {... */\n      swap1\n      jump\t// out\n        /* \"@openzeppelin/contracts/token/ERC20/ERC20.sol\":6592:7019  function decreaseAllowance(address spender, uint256 subtractedValue) public virtual returns (bool) {... */\n    tag_70:\n        /* \"@openzeppelin/contracts/token/ERC20/ERC20.sol\":6685:6689  bool */\n      0x00\n        /* \"@openzeppelin/contracts/token/ERC20/ERC20.sol\":6701:6714  address owner */\n      dup1\n        /* \"@openzeppelin/contracts/token/ERC20/ERC20.sol\":6717:6729  _msgSender() */\n      tag_166\n        /* \"@openzeppelin/contracts/token/ERC20/ERC20.sol\":6717:6727  _msgSender */\n      tag_102\n        /* \"@openzeppelin/contracts/token/ERC20/ERC20.sol\":6717:6729  _msgSender() */\n      jump\t// in\n    tag_166:\n        /* \"@openzeppelin/contracts/token/ERC20/ERC20.sol\":6701:6729  address owner = _msgSender() */\n      swap1\n      pop\n        /* \"@openzeppelin/contracts/token/ERC20/ERC20.sol\":6739:6763  uint256 currentAllowance */\n      0x00\n        /* \"@openzeppelin/contracts/token/ERC20/ERC20.sol\":6766:6791  allowance(owner, spender) */\n      tag_167\n        /* \"@openzeppelin/contracts/token/ERC20/ERC20.sol\":6776:6781  owner */\n      dup3\n        /* \"@openzeppelin/contracts/token/ERC20/ERC20.sol\":6783:6790  spender */\n      dup7\n        /* \"@openzeppelin/contracts/token/ERC20/ERC20.sol\":6766:6775  allowance */\n      tag_83\n        /* \"@openzeppelin/contracts/token/ERC20/ERC20.sol\":6766:6791  allowance(owner, spender) */\n      jump\t// in\n    tag_167:\n        /* \"@openzeppelin/contracts/token/ERC20/ERC20.sol\":6739:6791  uint256 currentAllowance = allowance(owner, spender) */\n      swap1\n      pop\n        /* \"@openzeppelin/contracts/token/ERC20/ERC20.sol\":6829:6844  subtractedValue */\n      dup4\n        /* \"@openzeppelin/contracts/token/ERC20/ERC20.sol\":6809:6825  currentAllowance */\n      dup2\n        /* \"@openzeppelin/contracts/token/ERC20/ERC20.sol\":6809:6844  currentAllowance >= subtractedValue */\n      lt\n      iszero\n        /* \"@openzeppelin/contracts/token/ERC20/ERC20.sol\":6801:6886  require(currentAllowance >= subtractedValue, \"ERC20: decreased allowance below zero\") */\n      tag_168\n      jumpi\n      mload(0x40)\n      0x08c379a000000000000000000000000000000000000000000000000000000000\n      dup2\n      mstore\n      0x04\n      add\n      tag_169\n      swap1\n      tag_170\n      jump\t// in\n    tag_169:\n      mload(0x40)\n      dup1\n      swap2\n      sub\n      swap1\n      revert\n    tag_168:\n        /* \"@openzeppelin/contracts/token/ERC20/ERC20.sol\":6920:6980  _approve(owner, spender, currentAllowance - subtractedValue) */\n      tag_171\n        /* \"@openzeppelin/contracts/token/ERC20/ERC20.sol\":6929:6934  owner */\n      dup3\n        /* \"@openzeppelin/contracts/token/ERC20/ERC20.sol\":6936:6943  spender */\n      dup7\n        /* \"@openzeppelin/contracts/token/ERC20/ERC20.sol\":6964:6979  subtractedValue */\n      dup7\n        /* \"@openzeppelin/contracts/token/ERC20/ERC20.sol\":6945:6961  currentAllowance */\n      dup5\n        /* \"@openzeppelin/contracts/token/ERC20/ERC20.sol\":6945:6979  currentAllowance - subtractedValue */\n      sub\n        /* \"@openzeppelin/contracts/token/ERC20/ERC20.sol\":6920:6928  _approve */\n      tag_104\n        /* \"@openzeppelin/contracts/token/ERC20/ERC20.sol\":6920:6980  _approve(owner, spender, currentAllowance - subtractedValue) */\n      jump\t// in\n    tag_171:\n        /* \"@openzeppelin/contracts/token/ERC20/ERC20.sol\":7008:7012  true */\n      0x01\n        /* \"@openzeppelin/contracts/token/ERC20/ERC20.sol\":7001:7012  return true */\n      swap3\n      pop\n      pop\n      pop\n        /* \"@openzeppelin/contracts/token/ERC20/ERC20.sol\":6592:7019  function decreaseAllowance(address spender, uint256 subtractedValue) public virtual returns (bool) {... */\n      swap3\n      swap2\n      pop\n      pop\n      jump\t// out\n        /* \"@openzeppelin/contracts/token/ERC20/ERC20.sol\":3727:3916  function transfer(address to, uint256 amount) public virtual override returns (bool) {... */\n    tag_74:\n        /* \"@openzeppelin/contracts/token/ERC20/ERC20.sol\":3806:3810  bool */\n      0x00\n        /* \"@openzeppelin/contracts/token/ERC20/ERC20.sol\":3822:3835  address owner */\n      dup1\n        /* \"@openzeppelin/contracts/token/ERC20/ERC20.sol\":3838:3850  _msgSender() */\n      tag_173\n        /* \"@openzeppelin/contracts/token/ERC20/ERC20.sol\":3838:3848  _msgSender */\n      tag_102\n        /* \"@openzeppelin/contracts/token/ERC20/ERC20.sol\":3838:3850  _msgSender() */\n      jump\t// in\n    tag_173:\n        /* \"@openzeppelin/contracts/token/ERC20/ERC20.sol\":3822:3850  address owner = _msgSender() */\n      swap1\n      pop\n        /* \"@openzeppelin/contracts/token/ERC20/ERC20.sol\":3860:3888  _transfer(owner, to, amount) */\n      tag_174\n        /* \"@openzeppelin/contracts/token/ERC20/ERC20.sol\":3870:3875  owner */\n      dup2\n        /* \"@openzeppelin/contracts/token/ERC20/ERC20.sol\":3877:3879  to */\n      dup6\n        /* \"@openzeppelin/contracts/token/ERC20/ERC20.sol\":3881:3887  amount */\n      dup6\n        /* \"@openzeppelin/contracts/token/ERC20/ERC20.sol\":3860:3869  _transfer */\n      tag_114\n        /* \"@openzeppelin/contracts/token/ERC20/ERC20.sol\":3860:3888  _transfer(owner, to, amount) */\n      jump\t// in\n    tag_174:\n        /* \"@openzeppelin/contracts/token/ERC20/ERC20.sol\":3905:3909  true */\n      0x01\n        /* \"@openzeppelin/contracts/token/ERC20/ERC20.sol\":3898:3909  return true */\n      swap2\n      pop\n      pop\n        /* \"@openzeppelin/contracts/token/ERC20/ERC20.sol\":3727:3916  function transfer(address to, uint256 amount) public virtual override returns (bool) {... */\n      swap3\n      swap2\n      pop\n      pop\n      jump\t// out\n        /* \"Desktop/CarbonToken/CarbonToken/carbonToken.sol\":2084:2210  function getDistributedType(address user) external view returns(bool){... */\n    tag_78:\n        /* \"Desktop/CarbonToken/CarbonToken/carbonToken.sol\":2148:2152  bool */\n      0x00\n        /* \"Desktop/CarbonToken/CarbonToken/carbonToken.sol\":2171:2182  addressInfo */\n      0x05\n        /* \"Desktop/CarbonToken/CarbonToken/carbonToken.sol\":2171:2188  addressInfo[user] */\n      0x00\n        /* \"Desktop/CarbonToken/CarbonToken/carbonToken.sol\":2183:2187  user */\n      dup4\n        /* \"Desktop/CarbonToken/CarbonToken/carbonToken.sol\":2171:2188  addressInfo[user] */\n      0xffffffffffffffffffffffffffffffffffffffff\n      and\n      0xffffffffffffffffffffffffffffffffffffffff\n      and\n      dup2\n      mstore\n      0x20\n      add\n      swap1\n      dup2\n      mstore\n      0x20\n      add\n      0x00\n      keccak256\n        /* \"Desktop/CarbonToken/CarbonToken/carbonToken.sol\":2171:2202  addressInfo[user].isDistributed */\n      0x00\n      add\n      0x01\n      swap1\n      sload\n      swap1\n      0x0100\n      exp\n      swap1\n      div\n      0xff\n      and\n        /* \"Desktop/CarbonToken/CarbonToken/carbonToken.sol\":2164:2202  return addressInfo[user].isDistributed */\n      swap1\n      pop\n        /* \"Desktop/CarbonToken/CarbonToken/carbonToken.sol\":2084:2210  function getDistributedType(address user) external view returns(bool){... */\n      swap2\n      swap1\n      pop\n      jump\t// out\n        /* \"@openzeppelin/contracts/token/ERC20/ERC20.sol\":3974:4123  function allowance(address owner, address spender) public view virtual override returns (uint256) {... */\n    tag_83:\n        /* \"@openzeppelin/contracts/token/ERC20/ERC20.sol\":4063:4070  uint256 */\n      0x00\n        /* \"@openzeppelin/contracts/token/ERC20/ERC20.sol\":4089:4100  _allowances */\n      0x01\n        /* \"@openzeppelin/contracts/token/ERC20/ERC20.sol\":4089:4107  _allowances[owner] */\n      0x00\n        /* \"@openzeppelin/contracts/token/ERC20/ERC20.sol\":4101:4106  owner */\n      dup5\n        /* \"@openzeppelin/contracts/token/ERC20/ERC20.sol\":4089:4107  _allowances[owner] */\n      0xffffffffffffffffffffffffffffffffffffffff\n      and\n      0xffffffffffffffffffffffffffffffffffffffff\n      and\n      dup2\n      mstore\n      0x20\n      add\n      swap1\n      dup2\n      mstore\n      0x20\n      add\n      0x00\n      keccak256\n        /* \"@openzeppelin/contracts/token/ERC20/ERC20.sol\":4089:4116  _allowances[owner][spender] */\n      0x00\n        /* \"@openzeppelin/contracts/token/ERC20/ERC20.sol\":4108:4115  spender */\n      dup4\n        /* \"@openzeppelin/contracts/token/ERC20/ERC20.sol\":4089:4116  _allowances[owner][spender] */\n      0xffffffffffffffffffffffffffffffffffffffff\n      and\n      0xffffffffffffffffffffffffffffffffffffffff\n      and\n      dup2\n      mstore\n      0x20\n      add\n      swap1\n      dup2\n      mstore\n      0x20\n      add\n      0x00\n      keccak256\n      sload\n        /* \"@openzeppelin/contracts/token/ERC20/ERC20.sol\":4082:4116  return _allowances[owner][spender] */\n      swap1\n      pop\n        /* \"@openzeppelin/contracts/token/ERC20/ERC20.sol\":3974:4123  function allowance(address owner, address spender) public view virtual override returns (uint256) {... */\n      swap3\n      swap2\n      pop\n      pop\n      jump\t// out\n        /* \"Desktop/CarbonToken/CarbonToken/carbonToken.sol\":1834:1948  function getClaimed(address user) external view returns(bool){... */\n    tag_87:\n        /* \"Desktop/CarbonToken/CarbonToken/carbonToken.sol\":1890:1894  bool */\n      0x00\n        /* \"Desktop/CarbonToken/CarbonToken/carbonToken.sol\":1913:1924  addressInfo */\n      0x05\n        /* \"Desktop/CarbonToken/CarbonToken/carbonToken.sol\":1913:1930  addressInfo[user] */\n      0x00\n        /* \"Desktop/CarbonToken/CarbonToken/carbonToken.sol\":1925:1929  user */\n      dup4\n        /* \"Desktop/CarbonToken/CarbonToken/carbonToken.sol\":1913:1930  addressInfo[user] */\n      0xffffffffffffffffffffffffffffffffffffffff\n      and\n      0xffffffffffffffffffffffffffffffffffffffff\n      and\n      dup2\n      mstore\n      0x20\n      add\n      swap1\n      dup2\n      mstore\n      0x20\n      add\n      0x00\n      keccak256\n        /* \"Desktop/CarbonToken/CarbonToken/carbonToken.sol\":1913:1940  addressInfo[user].isClaimed */\n      0x00\n      add\n      0x02\n      swap1\n      sload\n      swap1\n      0x0100\n      exp\n      swap1\n      div\n      0xff\n      and\n        /* \"Desktop/CarbonToken/CarbonToken/carbonToken.sol\":1906:1940  return addressInfo[user].isClaimed */\n      swap1\n      pop\n        /* \"Desktop/CarbonToken/CarbonToken/carbonToken.sol\":1834:1948  function getClaimed(address user) external view returns(bool){... */\n      swap2\n      swap1\n      pop\n      jump\t// out\n        /* \"Desktop/CarbonToken/CarbonToken/carbonToken.sol\":1954:2078  function getEnterpriseType(address user) external view returns(bool){... */\n    tag_91:\n        /* \"Desktop/CarbonToken/CarbonToken/carbonToken.sol\":2017:2021  bool */\n      0x00\n        /* \"Desktop/CarbonToken/CarbonToken/carbonToken.sol\":2040:2051  addressInfo */\n      0x05\n        /* \"Desktop/CarbonToken/CarbonToken/carbonToken.sol\":2040:2057  addressInfo[user] */\n      0x00\n        /* \"Desktop/CarbonToken/CarbonToken/carbonToken.sol\":2052:2056  user */\n      dup4\n        /* \"Desktop/CarbonToken/CarbonToken/carbonToken.sol\":2040:2057  addressInfo[user] */\n      0xffffffffffffffffffffffffffffffffffffffff\n      and\n      0xffffffffffffffffffffffffffffffffffffffff\n      and\n      dup2\n      mstore\n      0x20\n      add\n      swap1\n      dup2\n      mstore\n      0x20\n      add\n      0x00\n      keccak256\n        /* \"Desktop/CarbonToken/CarbonToken/carbonToken.sol\":2040:2070  addressInfo[user].isEnterprise */\n      0x00\n      add\n      0x00\n      swap1\n      sload\n      swap1\n      0x0100\n      exp\n      swap1\n      div\n      0xff\n      and\n        /* \"Desktop/CarbonToken/CarbonToken/carbonToken.sol\":2033:2070  return addressInfo[user].isEnterprise */\n      swap1\n      pop\n        /* \"Desktop/CarbonToken/CarbonToken/carbonToken.sol\":1954:2078  function getEnterpriseType(address user) external view returns(bool){... */\n      swap2\n      swap1\n      pop\n      jump\t// out\n        /* \"@openzeppelin/contracts/utils/Context.sol\":640:736  function _msgSender() internal view virtual returns (address) {... */\n    tag_102:\n        /* \"@openzeppelin/contracts/utils/Context.sol\":693:700  address */\n      0x00\n        /* \"@openzeppelin/contracts/utils/Context.sol\":719:729  msg.sender */\n      caller\n        /* \"@openzeppelin/contracts/utils/Context.sol\":712:729  return msg.sender */\n      swap1\n      pop\n        /* \"@openzeppelin/contracts/utils/Context.sol\":640:736  function _msgSender() internal view virtual returns (address) {... */\n      swap1\n      jump\t// out\n        /* \"@openzeppelin/contracts/token/ERC20/ERC20.sol\":10504:10874  function _approve(... */\n    tag_104:\n        /* \"@openzeppelin/contracts/token/ERC20/ERC20.sol\":10652:10653  0 */\n      0x00\n        /* \"@openzeppelin/contracts/token/ERC20/ERC20.sol\":10635:10654  owner != address(0) */\n      0xffffffffffffffffffffffffffffffffffffffff\n      and\n        /* \"@openzeppelin/contracts/token/ERC20/ERC20.sol\":10635:10640  owner */\n      dup4\n        /* \"@openzeppelin/contracts/token/ERC20/ERC20.sol\":10635:10654  owner != address(0) */\n      0xffffffffffffffffffffffffffffffffffffffff\n      and\n      sub\n        /* \"@openzeppelin/contracts/token/ERC20/ERC20.sol\":10627:10695  require(owner != address(0), \"ERC20: approve from the zero address\") */\n      tag_181\n      jumpi\n      mload(0x40)\n      0x08c379a000000000000000000000000000000000000000000000000000000000\n      dup2\n      mstore\n      0x04\n      add\n      tag_182\n      swap1\n      tag_183\n      jump\t// in\n    tag_182:\n      mload(0x40)\n      dup1\n      swap2\n      sub\n      swap1\n      revert\n    tag_181:\n        /* \"@openzeppelin/contracts/token/ERC20/ERC20.sol\":10732:10733  0 */\n      0x00\n        /* \"@openzeppelin/contracts/token/ERC20/ERC20.sol\":10713:10734  spender != address(0) */\n      0xffffffffffffffffffffffffffffffffffffffff\n      and\n        /* \"@openzeppelin/contracts/token/ERC20/ERC20.sol\":10713:10720  spender */\n      dup3\n        /* \"@openzeppelin/contracts/token/ERC20/ERC20.sol\":10713:10734  spender != address(0) */\n      0xffffffffffffffffffffffffffffffffffffffff\n      and\n      sub\n        /* \"@openzeppelin/contracts/token/ERC20/ERC20.sol\":10705:10773  require(spender != address(0), \"ERC20: approve to the zero address\") */\n      tag_184\n      jumpi\n      mload(0x40)\n      0x08c379a000000000000000000000000000000000000000000000000000000000\n      dup2\n      mstore\n      0x04\n      add\n      tag_185\n      swap1\n      tag_186\n      jump\t// in\n    tag_185:\n      mload(0x40)\n      dup1\n      swap2\n      sub\n      swap1\n      revert\n    tag_184:\n        /* \"@openzeppelin/contracts/token/ERC20/ERC20.sol\":10814:10820  amount */\n      dup1\n        /* \"@openzeppelin/contracts/token/ERC20/ERC20.sol\":10784:10795  _allowances */\n      0x01\n        /* \"@openzeppelin/contracts/token/ERC20/ERC20.sol\":10784:10802  _allowances[owner] */\n      0x00\n        /* \"@openzeppelin/contracts/token/ERC20/ERC20.sol\":10796:10801  owner */\n      dup6\n        /* \"@openzeppelin/contracts/token/ERC20/ERC20.sol\":10784:10802  _allowances[owner] */\n      0xffffffffffffffffffffffffffffffffffffffff\n      and\n      0xffffffffffffffffffffffffffffffffffffffff\n      and\n      dup2\n      mstore\n      0x20\n      add\n      swap1\n      dup2\n      mstore\n      0x20\n      add\n      0x00\n      keccak256\n        /* \"@openzeppelin/contracts/token/ERC20/ERC20.sol\":10784:10811  _allowances[owner][spender] */\n      0x00\n        /* \"@openzeppelin/contracts/token/ERC20/ERC20.sol\":10803:10810  spender */\n      dup5\n        /* \"@openzeppelin/contracts/token/ERC20/ERC20.sol\":10784:10811  _allowances[owner][spender] */\n      0xffffffffffffffffffffffffffffffffffffffff\n      and\n      0xffffffffffffffffffffffffffffffffffffffff\n      and\n      dup2\n      mstore\n      0x20\n      add\n      swap1\n      dup2\n      mstore\n      0x20\n      add\n      0x00\n      keccak256\n        /* \"@openzeppelin/contracts/token/ERC20/ERC20.sol\":10784:10820  _allowances[owner][spender] = amount */\n      dup2\n      swap1\n      sstore\n      pop\n        /* \"@openzeppelin/contracts/token/ERC20/ERC20.sol\":10851:10858  spender */\n      dup2\n        /* \"@openzeppelin/contracts/token/ERC20/ERC20.sol\":10835:10867  Approval(owner, spender, amount) */\n      0xffffffffffffffffffffffffffffffffffffffff\n      and\n        /* \"@openzeppelin/contracts/token/ERC20/ERC20.sol\":10844:10849  owner */\n      dup4\n        /* \"@openzeppelin/contracts/token/ERC20/ERC20.sol\":10835:10867  Approval(owner, spender, amount) */\n      0xffffffffffffffffffffffffffffffffffffffff\n      and\n      0x8c5be1e5ebec7d5bd14f71427d1e84f3dd0314c0f7b2291e5b200ac8c7c3b925\n        /* \"@openzeppelin/contracts/token/ERC20/ERC20.sol\":10860:10866  amount */\n      dup4\n        /* \"@openzeppelin/contracts/token/ERC20/ERC20.sol\":10835:10867  Approval(owner, spender, amount) */\n      mload(0x40)\n      tag_187\n      swap2\n      swap1\n      tag_38\n      jump\t// in\n    tag_187:\n      mload(0x40)\n      dup1\n      swap2\n      sub\n      swap1\n      log3\n        /* \"@openzeppelin/contracts/token/ERC20/ERC20.sol\":10504:10874  function _approve(... */\n      pop\n      pop\n      pop\n      jump\t// out\n        /* \"@openzeppelin/contracts/token/ERC20/ERC20.sol\":11155:11596  function _spendAllowance(... */\n    tag_112:\n        /* \"@openzeppelin/contracts/token/ERC20/ERC20.sol\":11285:11309  uint256 currentAllowance */\n      0x00\n        /* \"@openzeppelin/contracts/token/ERC20/ERC20.sol\":11312:11337  allowance(owner, spender) */\n      tag_189\n        /* \"@openzeppelin/contracts/token/ERC20/ERC20.sol\":11322:11327  owner */\n      dup5\n        /* \"@openzeppelin/contracts/token/ERC20/ERC20.sol\":11329:11336  spender */\n      dup5\n        /* \"@openzeppelin/contracts/token/ERC20/ERC20.sol\":11312:11321  allowance */\n      tag_83\n        /* \"@openzeppelin/contracts/token/ERC20/ERC20.sol\":11312:11337  allowance(owner, spender) */\n      jump\t// in\n    tag_189:\n        /* \"@openzeppelin/contracts/token/ERC20/ERC20.sol\":11285:11337  uint256 currentAllowance = allowance(owner, spender) */\n      swap1\n      pop\n        /* \"@openzeppelin/contracts/token/ERC20/ERC20.sol\":11371:11388  type(uint256).max */\n      0xffffffffffffffffffffffffffffffffffffffffffffffffffffffffffffffff\n        /* \"@openzeppelin/contracts/token/ERC20/ERC20.sol\":11351:11367  currentAllowance */\n      dup2\n        /* \"@openzeppelin/contracts/token/ERC20/ERC20.sol\":11351:11388  currentAllowance != type(uint256).max */\n      eq\n        /* \"@openzeppelin/contracts/token/ERC20/ERC20.sol\":11347:11590  if (currentAllowance != type(uint256).max) {... */\n      tag_190\n      jumpi\n        /* \"@openzeppelin/contracts/token/ERC20/ERC20.sol\":11432:11438  amount */\n      dup2\n        /* \"@openzeppelin/contracts/token/ERC20/ERC20.sol\":11412:11428  currentAllowance */\n      dup2\n        /* \"@openzeppelin/contracts/token/ERC20/ERC20.sol\":11412:11438  currentAllowance >= amount */\n      lt\n      iszero\n        /* \"@openzeppelin/contracts/token/ERC20/ERC20.sol\":11404:11472  require(currentAllowance >= amount, \"ERC20: insufficient allowance\") */\n      tag_191\n      jumpi\n      mload(0x40)\n      0x08c379a000000000000000000000000000000000000000000000000000000000\n      dup2\n      mstore\n      0x04\n      add\n      tag_192\n      swap1\n      tag_193\n      jump\t// in\n    tag_192:\n      mload(0x40)\n      dup1\n      swap2\n      sub\n      swap1\n      revert\n    tag_191:\n        /* \"@openzeppelin/contracts/token/ERC20/ERC20.sol\":11514:11565  _approve(owner, spender, currentAllowance - amount) */\n      tag_194\n        /* \"@openzeppelin/contracts/token/ERC20/ERC20.sol\":11523:11528  owner */\n      dup5\n        /* \"@openzeppelin/contracts/token/ERC20/ERC20.sol\":11530:11537  spender */\n      dup5\n        /* \"@openzeppelin/contracts/token/ERC20/ERC20.sol\":11558:11564  amount */\n      dup5\n        /* \"@openzeppelin/contracts/token/ERC20/ERC20.sol\":11539:11555  currentAllowance */\n      dup5\n        /* \"@openzeppelin/contracts/token/ERC20/ERC20.sol\":11539:11564  currentAllowance - amount */\n      sub\n        /* \"@openzeppelin/contracts/token/ERC20/ERC20.sol\":11514:11522  _approve */\n      tag_104\n        /* \"@openzeppelin/contracts/token/ERC20/ERC20.sol\":11514:11565  _approve(owner, spender, currentAllowance - amount) */\n      jump\t// in\n    tag_194:\n        /* \"@openzeppelin/contracts/token/ERC20/ERC20.sol\":11347:11590  if (currentAllowance != type(uint256).max) {... */\n    tag_190:\n        /* \"@openzeppelin/contracts/token/ERC20/ERC20.sol\":11275:11596  {... */\n      pop\n        /* \"@openzeppelin/contracts/token/ERC20/ERC20.sol\":11155:11596  function _spendAllowance(... */\n      pop\n      pop\n      pop\n      jump\t// out\n        /* \"@openzeppelin/contracts/token/ERC20/ERC20.sol\":7473:8291  function _transfer(... */\n    tag_114:\n        /* \"@openzeppelin/contracts/token/ERC20/ERC20.sol\":7615:7616  0 */\n      0x00\n        /* \"@openzeppelin/contracts/token/ERC20/ERC20.sol\":7599:7617  from != address(0) */\n      0xffffffffffffffffffffffffffffffffffffffff\n      and\n        /* \"@openzeppelin/contracts/token/ERC20/ERC20.sol\":7599:7603  from */\n      dup4\n        /* \"@openzeppelin/contracts/token/ERC20/ERC20.sol\":7599:7617  from != address(0) */\n      0xffffffffffffffffffffffffffffffffffffffff\n      and\n      sub\n        /* \"@openzeppelin/contracts/token/ERC20/ERC20.sol\":7591:7659  require(from != address(0), \"ERC20: transfer from the zero address\") */\n      tag_196\n      jumpi\n      mload(0x40)\n      0x08c379a000000000000000000000000000000000000000000000000000000000\n      dup2\n      mstore\n      0x04\n      add\n      tag_197\n      swap1\n      tag_198\n      jump\t// in\n    tag_197:\n      mload(0x40)\n      dup1\n      swap2\n      sub\n      swap1\n      revert\n    tag_196:\n        /* \"@openzeppelin/contracts/token/ERC20/ERC20.sol\":7691:7692  0 */\n      0x00\n        /* \"@openzeppelin/contracts/token/ERC20/ERC20.sol\":7677:7693  to != address(0) */\n      0xffffffffffffffffffffffffffffffffffffffff\n      and\n        /* \"@openzeppelin/contracts/token/ERC20/ERC20.sol\":7677:7679  to */\n      dup3\n        /* \"@openzeppelin/contracts/token/ERC20/ERC20.sol\":7677:7693  to != address(0) */\n      0xffffffffffffffffffffffffffffffffffffffff\n      and\n      sub\n        /* \"@openzeppelin/contracts/token/ERC20/ERC20.sol\":7669:7733  require(to != address(0), \"ERC20: transfer to the zero address\") */\n      tag_199\n      jumpi\n      mload(0x40)\n      0x08c379a000000000000000000000000000000000000000000000000000000000\n      dup2\n      mstore\n      0x04\n      add\n      tag_200\n      swap1\n      tag_201\n      jump\t// in\n    tag_200:\n      mload(0x40)\n      dup1\n      swap2\n      sub\n      swap1\n      revert\n    tag_199:\n        /* \"@openzeppelin/contracts/token/ERC20/ERC20.sol\":7744:7782  _beforeTokenTransfer(from, to, amount) */\n      tag_202\n        /* \"@openzeppelin/contracts/token/ERC20/ERC20.sol\":7765:7769  from */\n      dup4\n        /* \"@openzeppelin/contracts/token/ERC20/ERC20.sol\":7771:7773  to */\n      dup4\n        /* \"@openzeppelin/contracts/token/ERC20/ERC20.sol\":7775:7781  amount */\n      dup4\n        /* \"@openzeppelin/contracts/token/ERC20/ERC20.sol\":7744:7764  _beforeTokenTransfer */\n      tag_203\n        /* \"@openzeppelin/contracts/token/ERC20/ERC20.sol\":7744:7782  _beforeTokenTransfer(from, to, amount) */\n      jump\t// in\n    tag_202:\n        /* \"@openzeppelin/contracts/token/ERC20/ERC20.sol\":7793:7812  uint256 fromBalance */\n      0x00\n        /* \"@openzeppelin/contracts/token/ERC20/ERC20.sol\":7815:7824  _balances */\n      dup1\n        /* \"@openzeppelin/contracts/token/ERC20/ERC20.sol\":7815:7830  _balances[from] */\n      0x00\n        /* \"@openzeppelin/contracts/token/ERC20/ERC20.sol\":7825:7829  from */\n      dup6\n        /* \"@openzeppelin/contracts/token/ERC20/ERC20.sol\":7815:7830  _balances[from] */\n      0xffffffffffffffffffffffffffffffffffffffff\n      and\n      0xffffffffffffffffffffffffffffffffffffffff\n      and\n      dup2\n      mstore\n      0x20\n      add\n      swap1\n      dup2\n      mstore\n      0x20\n      add\n      0x00\n      keccak256\n      sload\n        /* \"@openzeppelin/contracts/token/ERC20/ERC20.sol\":7793:7830  uint256 fromBalance = _balances[from] */\n      swap1\n      pop\n        /* \"@openzeppelin/contracts/token/ERC20/ERC20.sol\":7863:7869  amount */\n      dup2\n        /* \"@openzeppelin/contracts/token/ERC20/ERC20.sol\":7848:7859  fromBalance */\n      dup2\n        /* \"@openzeppelin/contracts/token/ERC20/ERC20.sol\":7848:7869  fromBalance >= amount */\n      lt\n      iszero\n        /* \"@openzeppelin/contracts/token/ERC20/ERC20.sol\":7840:7912  require(fromBalance >= amount, \"ERC20: transfer amount exceeds balance\") */\n      tag_204\n      jumpi\n      mload(0x40)\n      0x08c379a000000000000000000000000000000000000000000000000000000000\n      dup2\n      mstore\n      0x04\n      add\n      tag_205\n      swap1\n      tag_206\n      jump\t// in\n    tag_205:\n      mload(0x40)\n      dup1\n      swap2\n      sub\n      swap1\n      revert\n    tag_204:\n        /* \"@openzeppelin/contracts/token/ERC20/ERC20.sol\":7978:7984  amount */\n      dup2\n        /* \"@openzeppelin/contracts/token/ERC20/ERC20.sol\":7964:7975  fromBalance */\n      dup2\n        /* \"@openzeppelin/contracts/token/ERC20/ERC20.sol\":7964:7984  fromBalance - amount */\n      sub\n        /* \"@openzeppelin/contracts/token/ERC20/ERC20.sol\":7946:7955  _balances */\n      0x00\n        /* \"@openzeppelin/contracts/token/ERC20/ERC20.sol\":7946:7961  _balances[from] */\n      dup1\n        /* \"@openzeppelin/contracts/token/ERC20/ERC20.sol\":7956:7960  from */\n      dup7\n        /* \"@openzeppelin/contracts/token/ERC20/ERC20.sol\":7946:7961  _balances[from] */\n      0xffffffffffffffffffffffffffffffffffffffff\n      and\n      0xffffffffffffffffffffffffffffffffffffffff\n      and\n      dup2\n      mstore\n      0x20\n      add\n      swap1\n      dup2\n      mstore\n      0x20\n      add\n      0x00\n      keccak256\n        /* \"@openzeppelin/contracts/token/ERC20/ERC20.sol\":7946:7984  _balances[from] = fromBalance - amount */\n      dup2\n      swap1\n      sstore\n      pop\n        /* \"@openzeppelin/contracts/token/ERC20/ERC20.sol\":8178:8184  amount */\n      dup2\n        /* \"@openzeppelin/contracts/token/ERC20/ERC20.sol\":8161:8170  _balances */\n      0x00\n        /* \"@openzeppelin/contracts/token/ERC20/ERC20.sol\":8161:8174  _balances[to] */\n      dup1\n        /* \"@openzeppelin/contracts/token/ERC20/ERC20.sol\":8171:8173  to */\n      dup6\n        /* \"@openzeppelin/contracts/token/ERC20/ERC20.sol\":8161:8174  _balances[to] */\n      0xffffffffffffffffffffffffffffffffffffffff\n      and\n      0xffffffffffffffffffffffffffffffffffffffff\n      and\n      dup2\n      mstore\n      0x20\n      add\n      swap1\n      dup2\n      mstore\n      0x20\n      add\n      0x00\n      keccak256\n      0x00\n        /* \"@openzeppelin/contracts/token/ERC20/ERC20.sol\":8161:8184  _balances[to] += amount */\n      dup3\n      dup3\n      sload\n      add\n      swap3\n      pop\n      pop\n      dup2\n      swap1\n      sstore\n      pop\n        /* \"@openzeppelin/contracts/token/ERC20/ERC20.sol\":8225:8227  to */\n      dup3\n        /* \"@openzeppelin/contracts/token/ERC20/ERC20.sol\":8210:8236  Transfer(from, to, amount) */\n      0xffffffffffffffffffffffffffffffffffffffff\n      and\n        /* \"@openzeppelin/contracts/token/ERC20/ERC20.sol\":8219:8223  from */\n      dup5\n        /* \"@openzeppelin/contracts/token/ERC20/ERC20.sol\":8210:8236  Transfer(from, to, amount) */\n      0xffffffffffffffffffffffffffffffffffffffff\n      and\n      0xddf252ad1be2c89b69c2b068fc378daa952ba7f163c4a11628f55a4df523b3ef\n        /* \"@openzeppelin/contracts/token/ERC20/ERC20.sol\":8229:8235  amount */\n      dup5\n        /* \"@openzeppelin/contracts/token/ERC20/ERC20.sol\":8210:8236  Transfer(from, to, amount) */\n      mload(0x40)\n      tag_207\n      swap2\n      swap1\n      tag_38\n      jump\t// in\n    tag_207:\n      mload(0x40)\n      dup1\n      swap2\n      sub\n      swap1\n      log3\n        /* \"@openzeppelin/contracts/token/ERC20/ERC20.sol\":8247:8284  _afterTokenTransfer(from, to, amount) */\n      tag_208\n        /* \"@openzeppelin/contracts/token/ERC20/ERC20.sol\":8267:8271  from */\n      dup5\n        /* \"@openzeppelin/contracts/token/ERC20/ERC20.sol\":8273:8275  to */\n      dup5\n        /* \"@openzeppelin/contracts/token/ERC20/ERC20.sol\":8277:8283  amount */\n      dup5\n        /* \"@openzeppelin/contracts/token/ERC20/ERC20.sol\":8247:8266  _afterTokenTransfer */\n      tag_209\n        /* \"@openzeppelin/contracts/token/ERC20/ERC20.sol\":8247:8284  _afterTokenTransfer(from, to, amount) */\n      jump\t// in\n    tag_208:\n        /* \"@openzeppelin/contracts/token/ERC20/ERC20.sol\":7581:8291  {... */\n      pop\n        /* \"@openzeppelin/contracts/token/ERC20/ERC20.sol\":7473:8291  function _transfer(... */\n      pop\n      pop\n      pop\n      jump\t// out\n        /* \"@openzeppelin/contracts/token/ERC20/ERC20.sol\":12180:12301  function _beforeTokenTransfer(... */\n    tag_203:\n      pop\n      pop\n      pop\n      jump\t// out\n        /* \"@openzeppelin/contracts/token/ERC20/ERC20.sol\":12889:13009  function _afterTokenTransfer(... */\n    tag_209:\n      pop\n      pop\n      pop\n      jump\t// out\n        /* \"#utility.yul\":7:106   */\n    tag_212:\n        /* \"#utility.yul\":59:65   */\n      0x00\n        /* \"#utility.yul\":93:98   */\n      dup2\n        /* \"#utility.yul\":87:99   */\n      mload\n        /* \"#utility.yul\":77:99   */\n      swap1\n      pop\n        /* \"#utility.yul\":7:106   */\n      swap2\n      swap1\n      pop\n      jump\t// out\n        /* \"#utility.yul\":112:281   */\n    tag_213:\n        /* \"#utility.yul\":196:207   */\n      0x00\n        /* \"#utility.yul\":230:236   */\n      dup3\n        /* \"#utility.yul\":225:228   */\n      dup3\n        /* \"#utility.yul\":218:237   */\n      mstore\n        /* \"#utility.yul\":270:274   */\n      0x20\n        /* \"#utility.yul\":265:268   */\n      dup3\n        /* \"#utility.yul\":261:275   */\n      add\n        /* \"#utility.yul\":246:275   */\n      swap1\n      pop\n        /* \"#utility.yul\":112:281   */\n      swap3\n      swap2\n      pop\n      pop\n      jump\t// out\n        /* \"#utility.yul\":287:533   */\n    tag_214:\n        /* \"#utility.yul\":368:369   */\n      0x00\n        /* \"#utility.yul\":378:491   */\n    tag_274:\n        /* \"#utility.yul\":392:398   */\n      dup4\n        /* \"#utility.yul\":389:390   */\n      dup2\n        /* \"#utility.yul\":386:399   */\n      lt\n        /* \"#utility.yul\":378:491   */\n      iszero\n      tag_276\n      jumpi\n        /* \"#utility.yul\":477:478   */\n      dup1\n        /* \"#utility.yul\":472:475   */\n      dup3\n        /* \"#utility.yul\":468:479   */\n      add\n        /* \"#utility.yul\":462:480   */\n      mload\n        /* \"#utility.yul\":458:459   */\n      dup2\n        /* \"#utility.yul\":453:456   */\n      dup5\n        /* \"#utility.yul\":449:460   */\n      add\n        /* \"#utility.yul\":442:481   */\n      mstore\n        /* \"#utility.yul\":414:416   */\n      0x20\n        /* \"#utility.yul\":411:412   */\n      dup2\n        /* \"#utility.yul\":407:417   */\n      add\n        /* \"#utility.yul\":402:417   */\n      swap1\n      pop\n        /* \"#utility.yul\":378:491   */\n      jump(tag_274)\n    tag_276:\n        /* \"#utility.yul\":525:526   */\n      0x00\n        /* \"#utility.yul\":516:522   */\n      dup5\n        /* \"#utility.yul\":511:514   */\n      dup5\n        /* \"#utility.yul\":507:523   */\n      add\n        /* \"#utility.yul\":500:527   */\n      mstore\n        /* \"#utility.yul\":349:533   */\n      pop\n        /* \"#utility.yul\":287:533   */\n      pop\n      pop\n      pop\n      jump\t// out\n        /* \"#utility.yul\":539:641   */\n    tag_215:\n        /* \"#utility.yul\":580:586   */\n      0x00\n        /* \"#utility.yul\":631:633   */\n      0x1f\n        /* \"#utility.yul\":627:634   */\n      not\n        /* \"#utility.yul\":622:624   */\n      0x1f\n        /* \"#utility.yul\":615:620   */\n      dup4\n        /* \"#utility.yul\":611:625   */\n      add\n        /* \"#utility.yul\":607:635   */\n      and\n        /* \"#utility.yul\":597:635   */\n      swap1\n      pop\n        /* \"#utility.yul\":539:641   */\n      swap2\n      swap1\n      pop\n      jump\t// out\n        /* \"#utility.yul\":647:1024   */\n    tag_216:\n        /* \"#utility.yul\":735:738   */\n      0x00\n        /* \"#utility.yul\":763:802   */\n      tag_279\n        /* \"#utility.yul\":796:801   */\n      dup3\n        /* \"#utility.yul\":763:802   */\n      tag_212\n      jump\t// in\n    tag_279:\n        /* \"#utility.yul\":818:889   */\n      tag_280\n        /* \"#utility.yul\":882:888   */\n      dup2\n        /* \"#utility.yul\":877:880   */\n      dup6\n        /* \"#utility.yul\":818:889   */\n      tag_213\n      jump\t// in\n    tag_280:\n        /* \"#utility.yul\":811:889   */\n      swap4\n      pop\n        /* \"#utility.yul\":898:963   */\n      tag_281\n        /* \"#utility.yul\":956:962   */\n      dup2\n        /* \"#utility.yul\":951:954   */\n      dup6\n        /* \"#utility.yul\":944:948   */\n      0x20\n        /* \"#utility.yul\":937:942   */\n      dup7\n        /* \"#utility.yul\":933:949   */\n      add\n        /* \"#utility.yul\":898:963   */\n      tag_214\n      jump\t// in\n    tag_281:\n        /* \"#utility.yul\":988:1017   */\n      tag_282\n        /* \"#utility.yul\":1010:1016   */\n      dup2\n        /* \"#utility.yul\":988:1017   */\n      tag_215\n      jump\t// in\n    tag_282:\n        /* \"#utility.yul\":983:986   */\n      dup5\n        /* \"#utility.yul\":979:1018   */\n      add\n        /* \"#utility.yul\":972:1018   */\n      swap2\n      pop\n        /* \"#utility.yul\":739:1024   */\n      pop\n        /* \"#utility.yul\":647:1024   */\n      swap3\n      swap2\n      pop\n      pop\n      jump\t// out\n        /* \"#utility.yul\":1030:1343   */\n    tag_26:\n        /* \"#utility.yul\":1143:1147   */\n      0x00\n        /* \"#utility.yul\":1181:1183   */\n      0x20\n        /* \"#utility.yul\":1170:1179   */\n      dup3\n        /* \"#utility.yul\":1166:1184   */\n      add\n        /* \"#utility.yul\":1158:1184   */\n      swap1\n      pop\n        /* \"#utility.yul\":1230:1239   */\n      dup2\n        /* \"#utility.yul\":1224:1228   */\n      dup2\n        /* \"#utility.yul\":1220:1240   */\n      sub\n        /* \"#utility.yul\":1216:1217   */\n      0x00\n        /* \"#utility.yul\":1205:1214   */\n      dup4\n        /* \"#utility.yul\":1201:1218   */\n      add\n        /* \"#utility.yul\":1194:1241   */\n      mstore\n        /* \"#utility.yul\":1258:1336   */\n      tag_284\n        /* \"#utility.yul\":1331:1335   */\n      dup2\n        /* \"#utility.yul\":1322:1328   */\n      dup5\n        /* \"#utility.yul\":1258:1336   */\n      tag_216\n      jump\t// in\n    tag_284:\n        /* \"#utility.yul\":1250:1336   */\n      swap1\n      pop\n        /* \"#utility.yul\":1030:1343   */\n      swap3\n      swap2\n      pop\n      pop\n      jump\t// out\n        /* \"#utility.yul\":1349:1424   */\n    tag_217:\n        /* \"#utility.yul\":1382:1388   */\n      0x00\n        /* \"#utility.yul\":1415:1417   */\n      0x40\n        /* \"#utility.yul\":1409:1418   */\n      mload\n        /* \"#utility.yul\":1399:1418   */\n      swap1\n      pop\n        /* \"#utility.yul\":1349:1424   */\n      swap1\n      jump\t// out\n        /* \"#utility.yul\":1430:1547   */\n    tag_218:\n        /* \"#utility.yul\":1539:1540   */\n      0x00\n        /* \"#utility.yul\":1536:1537   */\n      dup1\n        /* \"#utility.yul\":1529:1541   */\n      revert\n        /* \"#utility.yul\":1553:1670   */\n    tag_219:\n        /* \"#utility.yul\":1662:1663   */\n      0x00\n        /* \"#utility.yul\":1659:1660   */\n      dup1\n        /* \"#utility.yul\":1652:1664   */\n      revert\n        /* \"#utility.yul\":1676:1802   */\n    tag_220:\n        /* \"#utility.yul\":1713:1720   */\n      0x00\n        /* \"#utility.yul\":1753:1795   */\n      0xffffffffffffffffffffffffffffffffffffffff\n        /* \"#utility.yul\":1746:1751   */\n      dup3\n        /* \"#utility.yul\":1742:1796   */\n      and\n        /* \"#utility.yul\":1731:1796   */\n      swap1\n      pop\n        /* \"#utility.yul\":1676:1802   */\n      swap2\n      swap1\n      pop\n      jump\t// out\n        /* \"#utility.yul\":1808:1904   */\n    tag_221:\n        /* \"#utility.yul\":1845:1852   */\n      0x00\n        /* \"#utility.yul\":1874:1898   */\n      tag_290\n        /* \"#utility.yul\":1892:1897   */\n      dup3\n        /* \"#utility.yul\":1874:1898   */\n      tag_220\n      jump\t// in\n    tag_290:\n        /* \"#utility.yul\":1863:1898   */\n      swap1\n      pop\n        /* \"#utility.yul\":1808:1904   */\n      swap2\n      swap1\n      pop\n      jump\t// out\n        /* \"#utility.yul\":1910:2032   */\n    tag_222:\n        /* \"#utility.yul\":1983:2007   */\n      tag_292\n        /* \"#utility.yul\":2001:2006   */\n      dup2\n        /* \"#utility.yul\":1983:2007   */\n      tag_221\n      jump\t// in\n    tag_292:\n        /* \"#utility.yul\":1976:1981   */\n      dup2\n        /* \"#utility.yul\":1973:2008   */\n      eq\n        /* \"#utility.yul\":1963:2026   */\n      tag_293\n      jumpi\n        /* \"#utility.yul\":2022:2023   */\n      0x00\n        /* \"#utility.yul\":2019:2020   */\n      dup1\n        /* \"#utility.yul\":2012:2024   */\n      revert\n        /* \"#utility.yul\":1963:2026   */\n    tag_293:\n        /* \"#utility.yul\":1910:2032   */\n      pop\n      jump\t// out\n        /* \"#utility.yul\":2038:2177   */\n    tag_223:\n        /* \"#utility.yul\":2084:2089   */\n      0x00\n        /* \"#utility.yul\":2122:2128   */\n      dup2\n        /* \"#utility.yul\":2109:2129   */\n      calldataload\n        /* \"#utility.yul\":2100:2129   */\n      swap1\n      pop\n        /* \"#utility.yul\":2138:2171   */\n      tag_295\n        /* \"#utility.yul\":2165:2170   */\n      dup2\n        /* \"#utility.yul\":2138:2171   */\n      tag_222\n      jump\t// in\n    tag_295:\n        /* \"#utility.yul\":2038:2177   */\n      swap3\n      swap2\n      pop\n      pop\n      jump\t// out\n        /* \"#utility.yul\":2183:2260   */\n    tag_224:\n        /* \"#utility.yul\":2220:2227   */\n      0x00\n        /* \"#utility.yul\":2249:2254   */\n      dup2\n        /* \"#utility.yul\":2238:2254   */\n      swap1\n      pop\n        /* \"#utility.yul\":2183:2260   */\n      swap2\n      swap1\n      pop\n      jump\t// out\n        /* \"#utility.yul\":2266:2388   */\n    tag_225:\n        /* \"#utility.yul\":2339:2363   */\n      tag_298\n        /* \"#utility.yul\":2357:2362   */\n      dup2\n        /* \"#utility.yul\":2339:2363   */\n      tag_224\n      jump\t// in\n    tag_298:\n        /* \"#utility.yul\":2332:2337   */\n      dup2\n        /* \"#utility.yul\":2329:2364   */\n      eq\n        /* \"#utility.yul\":2319:2382   */\n      tag_299\n      jumpi\n        /* \"#utility.yul\":2378:2379   */\n      0x00\n        /* \"#utility.yul\":2375:2376   */\n      dup1\n        /* \"#utility.yul\":2368:2380   */\n      revert\n        /* \"#utility.yul\":2319:2382   */\n    tag_299:\n        /* \"#utility.yul\":2266:2388   */\n      pop\n      jump\t// out\n        /* \"#utility.yul\":2394:2533   */\n    tag_226:\n        /* \"#utility.yul\":2440:2445   */\n      0x00\n        /* \"#utility.yul\":2478:2484   */\n      dup2\n        /* \"#utility.yul\":2465:2485   */\n      calldataload\n        /* \"#utility.yul\":2456:2485   */\n      swap1\n      pop\n        /* \"#utility.yul\":2494:2527   */\n      tag_301\n        /* \"#utility.yul\":2521:2526   */\n      dup2\n        /* \"#utility.yul\":2494:2527   */\n      tag_225\n      jump\t// in\n    tag_301:\n        /* \"#utility.yul\":2394:2533   */\n      swap3\n      swap2\n      pop\n      pop\n      jump\t// out\n        /* \"#utility.yul\":2539:3013   */\n    tag_29:\n        /* \"#utility.yul\":2607:2613   */\n      0x00\n        /* \"#utility.yul\":2615:2621   */\n      dup1\n        /* \"#utility.yul\":2664:2666   */\n      0x40\n        /* \"#utility.yul\":2652:2661   */\n      dup4\n        /* \"#utility.yul\":2643:2650   */\n      dup6\n        /* \"#utility.yul\":2639:2662   */\n      sub\n        /* \"#utility.yul\":2635:2667   */\n      slt\n        /* \"#utility.yul\":2632:2751   */\n      iszero\n      tag_303\n      jumpi\n        /* \"#utility.yul\":2670:2749   */\n      tag_304\n      tag_218\n      jump\t// in\n    tag_304:\n        /* \"#utility.yul\":2632:2751   */\n    tag_303:\n        /* \"#utility.yul\":2790:2791   */\n      0x00\n        /* \"#utility.yul\":2815:2868   */\n      tag_305\n        /* \"#utility.yul\":2860:2867   */\n      dup6\n        /* \"#utility.yul\":2851:2857   */\n      dup3\n        /* \"#utility.yul\":2840:2849   */\n      dup7\n        /* \"#utility.yul\":2836:2858   */\n      add\n        /* \"#utility.yul\":2815:2868   */\n      tag_223\n      jump\t// in\n    tag_305:\n        /* \"#utility.yul\":2805:2868   */\n      swap3\n      pop\n        /* \"#utility.yul\":2761:2878   */\n      pop\n        /* \"#utility.yul\":2917:2919   */\n      0x20\n        /* \"#utility.yul\":2943:2996   */\n      tag_306\n        /* \"#utility.yul\":2988:2995   */\n      dup6\n        /* \"#utility.yul\":2979:2985   */\n      dup3\n        /* \"#utility.yul\":2968:2977   */\n      dup7\n        /* \"#utility.yul\":2964:2986   */\n      add\n        /* \"#utility.yul\":2943:2996   */\n      tag_226\n      jump\t// in\n    tag_306:\n        /* \"#utility.yul\":2933:2996   */\n      swap2\n      pop\n        /* \"#utility.yul\":2888:3006   */\n      pop\n        /* \"#utility.yul\":2539:3013   */\n      swap3\n      pop\n      swap3\n      swap1\n      pop\n      jump\t// out\n        /* \"#utility.yul\":3019:3109   */\n    tag_227:\n        /* \"#utility.yul\":3053:3060   */\n      0x00\n        /* \"#utility.yul\":3096:3101   */\n      dup2\n        /* \"#utility.yul\":3089:3102   */\n      iszero\n        /* \"#utility.yul\":3082:3103   */\n      iszero\n        /* \"#utility.yul\":3071:3103   */\n      swap1\n      pop\n        /* \"#utility.yul\":3019:3109   */\n      swap2\n      swap1\n      pop\n      jump\t// out\n        /* \"#utility.yul\":3115:3224   */\n    tag_228:\n        /* \"#utility.yul\":3196:3217   */\n      tag_309\n        /* \"#utility.yul\":3211:3216   */\n      dup2\n        /* \"#utility.yul\":3196:3217   */\n      tag_227\n      jump\t// in\n    tag_309:\n        /* \"#utility.yul\":3191:3194   */\n      dup3\n        /* \"#utility.yul\":3184:3218   */\n      mstore\n        /* \"#utility.yul\":3115:3224   */\n      pop\n      pop\n      jump\t// out\n        /* \"#utility.yul\":3230:3440   */\n    tag_32:\n        /* \"#utility.yul\":3317:3321   */\n      0x00\n        /* \"#utility.yul\":3355:3357   */\n      0x20\n        /* \"#utility.yul\":3344:3353   */\n      dup3\n        /* \"#utility.yul\":3340:3358   */\n      add\n        /* \"#utility.yul\":3332:3358   */\n      swap1\n      pop\n        /* \"#utility.yul\":3368:3433   */\n      tag_311\n        /* \"#utility.yul\":3430:3431   */\n      0x00\n        /* \"#utility.yul\":3419:3428   */\n      dup4\n        /* \"#utility.yul\":3415:3432   */\n      add\n        /* \"#utility.yul\":3406:3412   */\n      dup5\n        /* \"#utility.yul\":3368:3433   */\n      tag_228\n      jump\t// in\n    tag_311:\n        /* \"#utility.yul\":3230:3440   */\n      swap3\n      swap2\n      pop\n      pop\n      jump\t// out\n        /* \"#utility.yul\":3446:3564   */\n    tag_229:\n        /* \"#utility.yul\":3533:3557   */\n      tag_313\n        /* \"#utility.yul\":3551:3556   */\n      dup2\n        /* \"#utility.yul\":3533:3557   */\n      tag_224\n      jump\t// in\n    tag_313:\n        /* \"#utility.yul\":3528:3531   */\n      dup3\n        /* \"#utility.yul\":3521:3558   */\n      mstore\n        /* \"#utility.yul\":3446:3564   */\n      pop\n      pop\n      jump\t// out\n        /* \"#utility.yul\":3570:3792   */\n    tag_38:\n        /* \"#utility.yul\":3663:3667   */\n      0x00\n        /* \"#utility.yul\":3701:3703   */\n      0x20\n        /* \"#utility.yul\":3690:3699   */\n      dup3\n        /* \"#utility.yul\":3686:3704   */\n      add\n        /* \"#utility.yul\":3678:3704   */\n      swap1\n      pop\n        /* \"#utility.yul\":3714:3785   */\n      tag_315\n        /* \"#utility.yul\":3782:3783   */\n      0x00\n        /* \"#utility.yul\":3771:3780   */\n      dup4\n        /* \"#utility.yul\":3767:3784   */\n      add\n        /* \"#utility.yul\":3758:3764   */\n      dup5\n        /* \"#utility.yul\":3714:3785   */\n      tag_229\n      jump\t// in\n    tag_315:\n        /* \"#utility.yul\":3570:3792   */\n      swap3\n      swap2\n      pop\n      pop\n      jump\t// out\n        /* \"#utility.yul\":3798:4417   */\n    tag_41:\n        /* \"#utility.yul\":3875:3881   */\n      0x00\n        /* \"#utility.yul\":3883:3889   */\n      dup1\n        /* \"#utility.yul\":3891:3897   */\n      0x00\n        /* \"#utility.yul\":3940:3942   */\n      0x60\n        /* \"#utility.yul\":3928:3937   */\n      dup5\n        /* \"#utility.yul\":3919:3926   */\n      dup7\n        /* \"#utility.yul\":3915:3938   */\n      sub\n        /* \"#utility.yul\":3911:3943   */\n      slt\n        /* \"#utility.yul\":3908:4027   */\n      iszero\n      tag_317\n      jumpi\n        /* \"#utility.yul\":3946:4025   */\n      tag_318\n      tag_218\n      jump\t// in\n    tag_318:\n        /* \"#utility.yul\":3908:4027   */\n    tag_317:\n        /* \"#utility.yul\":4066:4067   */\n      0x00\n        /* \"#utility.yul\":4091:4144   */\n      tag_319\n        /* \"#utility.yul\":4136:4143   */\n      dup7\n        /* \"#utility.yul\":4127:4133   */\n      dup3\n        /* \"#utility.yul\":4116:4125   */\n      dup8\n        /* \"#utility.yul\":4112:4134   */\n      add\n        /* \"#utility.yul\":4091:4144   */\n      tag_223\n      jump\t// in\n    tag_319:\n        /* \"#utility.yul\":4081:4144   */\n      swap4\n      pop\n        /* \"#utility.yul\":4037:4154   */\n      pop\n        /* \"#utility.yul\":4193:4195   */\n      0x20\n        /* \"#utility.yul\":4219:4272   */\n      tag_320\n        /* \"#utility.yul\":4264:4271   */\n      dup7\n        /* \"#utility.yul\":4255:4261   */\n      dup3\n        /* \"#utility.yul\":4244:4253   */\n      dup8\n        /* \"#utility.yul\":4240:4262   */\n      add\n        /* \"#utility.yul\":4219:4272   */\n      tag_223\n      jump\t// in\n    tag_320:\n        /* \"#utility.yul\":4209:4272   */\n      swap3\n      pop\n        /* \"#utility.yul\":4164:4282   */\n      pop\n        /* \"#utility.yul\":4321:4323   */\n      0x40\n        /* \"#utility.yul\":4347:4400   */\n      tag_321\n        /* \"#utility.yul\":4392:4399   */\n      dup7\n        /* \"#utility.yul\":4383:4389   */\n      dup3\n        /* \"#utility.yul\":4372:4381   */\n      dup8\n        /* \"#utility.yul\":4368:4390   */\n      add\n        /* \"#utility.yul\":4347:4400   */\n      tag_226\n      jump\t// in\n    tag_321:\n        /* \"#utility.yul\":4337:4400   */\n      swap2\n      pop\n        /* \"#utility.yul\":4292:4410   */\n      pop\n        /* \"#utility.yul\":3798:4417   */\n      swap3\n      pop\n      swap3\n      pop\n      swap3\n      jump\t// out\n        /* \"#utility.yul\":4423:4509   */\n    tag_230:\n        /* \"#utility.yul\":4458:4465   */\n      0x00\n        /* \"#utility.yul\":4498:4502   */\n      0xff\n        /* \"#utility.yul\":4491:4496   */\n      dup3\n        /* \"#utility.yul\":4487:4503   */\n      and\n        /* \"#utility.yul\":4476:4503   */\n      swap1\n      pop\n        /* \"#utility.yul\":4423:4509   */\n      swap2\n      swap1\n      pop\n      jump\t// out\n        /* \"#utility.yul\":4515:4627   */\n    tag_231:\n        /* \"#utility.yul\":4598:4620   */\n      tag_324\n        /* \"#utility.yul\":4614:4619   */\n      dup2\n        /* \"#utility.yul\":4598:4620   */\n      tag_230\n      jump\t// in\n    tag_324:\n        /* \"#utility.yul\":4593:4596   */\n      dup3\n        /* \"#utility.yul\":4586:4621   */\n      mstore\n        /* \"#utility.yul\":4515:4627   */\n      pop\n      pop\n      jump\t// out\n        /* \"#utility.yul\":4633:4847   */\n    tag_47:\n        /* \"#utility.yul\":4722:4726   */\n      0x00\n        /* \"#utility.yul\":4760:4762   */\n      0x20\n        /* \"#utility.yul\":4749:4758   */\n      dup3\n        /* \"#utility.yul\":4745:4763   */\n      add\n        /* \"#utility.yul\":4737:4763   */\n      swap1\n      pop\n        /* \"#utility.yul\":4773:4840   */\n      tag_326\n        /* \"#utility.yul\":4837:4838   */\n      0x00\n        /* \"#utility.yul\":4826:4835   */\n      dup4\n        /* \"#utility.yul\":4822:4839   */\n      add\n        /* \"#utility.yul\":4813:4819   */\n      dup5\n        /* \"#utility.yul\":4773:4840   */\n      tag_231\n      jump\t// in\n    tag_326:\n        /* \"#utility.yul\":4633:4847   */\n      swap3\n      swap2\n      pop\n      pop\n      jump\t// out\n        /* \"#utility.yul\":4853:4970   */\n    tag_232:\n        /* \"#utility.yul\":4962:4963   */\n      0x00\n        /* \"#utility.yul\":4959:4960   */\n      dup1\n        /* \"#utility.yul\":4952:4964   */\n      revert\n        /* \"#utility.yul\":4976:5156   */\n    tag_233:\n        /* \"#utility.yul\":5024:5101   */\n      0x4e487b7100000000000000000000000000000000000000000000000000000000\n        /* \"#utility.yul\":5021:5022   */\n      0x00\n        /* \"#utility.yul\":5014:5102   */\n      mstore\n        /* \"#utility.yul\":5121:5125   */\n      0x41\n        /* \"#utility.yul\":5118:5119   */\n      0x04\n        /* \"#utility.yul\":5111:5126   */\n      mstore\n        /* \"#utility.yul\":5145:5149   */\n      0x24\n        /* \"#utility.yul\":5142:5143   */\n      0x00\n        /* \"#utility.yul\":5135:5150   */\n      revert\n        /* \"#utility.yul\":5162:5443   */\n    tag_234:\n        /* \"#utility.yul\":5245:5272   */\n      tag_330\n        /* \"#utility.yul\":5267:5271   */\n      dup3\n        /* \"#utility.yul\":5245:5272   */\n      tag_215\n      jump\t// in\n    tag_330:\n        /* \"#utility.yul\":5237:5243   */\n      dup2\n        /* \"#utility.yul\":5233:5273   */\n      add\n        /* \"#utility.yul\":5375:5381   */\n      dup2\n        /* \"#utility.yul\":5363:5373   */\n      dup2\n        /* \"#utility.yul\":5360:5382   */\n      lt\n        /* \"#utility.yul\":5339:5357   */\n      0xffffffffffffffff\n        /* \"#utility.yul\":5327:5337   */\n      dup3\n        /* \"#utility.yul\":5324:5358   */\n      gt\n        /* \"#utility.yul\":5321:5383   */\n      or\n        /* \"#utility.yul\":5318:5406   */\n      iszero\n      tag_331\n      jumpi\n        /* \"#utility.yul\":5386:5404   */\n      tag_332\n      tag_233\n      jump\t// in\n    tag_332:\n        /* \"#utility.yul\":5318:5406   */\n    tag_331:\n        /* \"#utility.yul\":5426:5436   */\n      dup1\n        /* \"#utility.yul\":5422:5424   */\n      0x40\n        /* \"#utility.yul\":5415:5437   */\n      mstore\n        /* \"#utility.yul\":5205:5443   */\n      pop\n        /* \"#utility.yul\":5162:5443   */\n      pop\n      pop\n      jump\t// out\n        /* \"#utility.yul\":5449:5578   */\n    tag_235:\n        /* \"#utility.yul\":5483:5489   */\n      0x00\n        /* \"#utility.yul\":5510:5530   */\n      tag_334\n      tag_217\n      jump\t// in\n    tag_334:\n        /* \"#utility.yul\":5500:5530   */\n      swap1\n      pop\n        /* \"#utility.yul\":5539:5572   */\n      tag_335\n        /* \"#utility.yul\":5567:5571   */\n      dup3\n        /* \"#utility.yul\":5559:5565   */\n      dup3\n        /* \"#utility.yul\":5539:5572   */\n      tag_234\n      jump\t// in\n    tag_335:\n        /* \"#utility.yul\":5449:5578   */\n      swap2\n      swap1\n      pop\n      jump\t// out\n        /* \"#utility.yul\":5584:5895   */\n    tag_236:\n        /* \"#utility.yul\":5661:5665   */\n      0x00\n        /* \"#utility.yul\":5751:5769   */\n      0xffffffffffffffff\n        /* \"#utility.yul\":5743:5749   */\n      dup3\n        /* \"#utility.yul\":5740:5770   */\n      gt\n        /* \"#utility.yul\":5737:5793   */\n      iszero\n      tag_337\n      jumpi\n        /* \"#utility.yul\":5773:5791   */\n      tag_338\n      tag_233\n      jump\t// in\n    tag_338:\n        /* \"#utility.yul\":5737:5793   */\n    tag_337:\n        /* \"#utility.yul\":5823:5827   */\n      0x20\n        /* \"#utility.yul\":5815:5821   */\n      dup3\n        /* \"#utility.yul\":5811:5828   */\n      mul\n        /* \"#utility.yul\":5803:5828   */\n      swap1\n      pop\n        /* \"#utility.yul\":5883:5887   */\n      0x20\n        /* \"#utility.yul\":5877:5881   */\n      dup2\n        /* \"#utility.yul\":5873:5888   */\n      add\n        /* \"#utility.yul\":5865:5888   */\n      swap1\n      pop\n        /* \"#utility.yul\":5584:5895   */\n      swap2\n      swap1\n      pop\n      jump\t// out\n        /* \"#utility.yul\":5901:6018   */\n    tag_237:\n        /* \"#utility.yul\":6010:6011   */\n      0x00\n        /* \"#utility.yul\":6007:6008   */\n      dup1\n        /* \"#utility.yul\":6000:6012   */\n      revert\n        /* \"#utility.yul\":6041:6751   */\n    tag_238:\n        /* \"#utility.yul\":6137:6142   */\n      0x00\n        /* \"#utility.yul\":6162:6243   */\n      tag_341\n        /* \"#utility.yul\":6178:6242   */\n      tag_342\n        /* \"#utility.yul\":6235:6241   */\n      dup5\n        /* \"#utility.yul\":6178:6242   */\n      tag_236\n      jump\t// in\n    tag_342:\n        /* \"#utility.yul\":6162:6243   */\n      tag_235\n      jump\t// in\n    tag_341:\n        /* \"#utility.yul\":6153:6243   */\n      swap1\n      pop\n        /* \"#utility.yul\":6263:6268   */\n      dup1\n        /* \"#utility.yul\":6292:6298   */\n      dup4\n        /* \"#utility.yul\":6285:6290   */\n      dup3\n        /* \"#utility.yul\":6278:6299   */\n      mstore\n        /* \"#utility.yul\":6326:6330   */\n      0x20\n        /* \"#utility.yul\":6319:6324   */\n      dup3\n        /* \"#utility.yul\":6315:6331   */\n      add\n        /* \"#utility.yul\":6308:6331   */\n      swap1\n      pop\n        /* \"#utility.yul\":6379:6383   */\n      0x20\n        /* \"#utility.yul\":6371:6377   */\n      dup5\n        /* \"#utility.yul\":6367:6384   */\n      mul\n        /* \"#utility.yul\":6359:6365   */\n      dup4\n        /* \"#utility.yul\":6355:6385   */\n      add\n        /* \"#utility.yul\":6408:6411   */\n      dup6\n        /* \"#utility.yul\":6400:6406   */\n      dup2\n        /* \"#utility.yul\":6397:6412   */\n      gt\n        /* \"#utility.yul\":6394:6516   */\n      iszero\n      tag_343\n      jumpi\n        /* \"#utility.yul\":6427:6506   */\n      tag_344\n      tag_237\n      jump\t// in\n    tag_344:\n        /* \"#utility.yul\":6394:6516   */\n    tag_343:\n        /* \"#utility.yul\":6542:6548   */\n      dup4\n        /* \"#utility.yul\":6525:6745   */\n    tag_345:\n        /* \"#utility.yul\":6559:6565   */\n      dup2\n        /* \"#utility.yul\":6554:6557   */\n      dup2\n        /* \"#utility.yul\":6551:6566   */\n      lt\n        /* \"#utility.yul\":6525:6745   */\n      iszero\n      tag_347\n      jumpi\n        /* \"#utility.yul\":6634:6637   */\n      dup1\n        /* \"#utility.yul\":6663:6700   */\n      tag_348\n        /* \"#utility.yul\":6696:6699   */\n      dup9\n        /* \"#utility.yul\":6684:6694   */\n      dup3\n        /* \"#utility.yul\":6663:6700   */\n      tag_223\n      jump\t// in\n    tag_348:\n        /* \"#utility.yul\":6658:6661   */\n      dup5\n        /* \"#utility.yul\":6651:6701   */\n      mstore\n        /* \"#utility.yul\":6730:6734   */\n      0x20\n        /* \"#utility.yul\":6725:6728   */\n      dup5\n        /* \"#utility.yul\":6721:6735   */\n      add\n        /* \"#utility.yul\":6714:6735   */\n      swap4\n      pop\n        /* \"#utility.yul\":6601:6745   */\n      pop\n        /* \"#utility.yul\":6585:6589   */\n      0x20\n        /* \"#utility.yul\":6580:6583   */\n      dup2\n        /* \"#utility.yul\":6576:6590   */\n      add\n        /* \"#utility.yul\":6569:6590   */\n      swap1\n      pop\n        /* \"#utility.yul\":6525:6745   */\n      jump(tag_345)\n    tag_347:\n        /* \"#utility.yul\":6529:6550   */\n      pop\n        /* \"#utility.yul\":6143:6751   */\n      pop\n      pop\n        /* \"#utility.yul\":6041:6751   */\n      swap4\n      swap3\n      pop\n      pop\n      pop\n      jump\t// out\n        /* \"#utility.yul\":6774:7144   */\n    tag_239:\n        /* \"#utility.yul\":6845:6850   */\n      0x00\n        /* \"#utility.yul\":6894:6897   */\n      dup3\n        /* \"#utility.yul\":6887:6891   */\n      0x1f\n        /* \"#utility.yul\":6879:6885   */\n      dup4\n        /* \"#utility.yul\":6875:6892   */\n      add\n        /* \"#utility.yul\":6871:6898   */\n      slt\n        /* \"#utility.yul\":6861:6983   */\n      tag_350\n      jumpi\n        /* \"#utility.yul\":6902:6981   */\n      tag_351\n      tag_232\n      jump\t// in\n    tag_351:\n        /* \"#utility.yul\":6861:6983   */\n    tag_350:\n        /* \"#utility.yul\":7019:7025   */\n      dup2\n        /* \"#utility.yul\":7006:7026   */\n      calldataload\n        /* \"#utility.yul\":7044:7138   */\n      tag_352\n        /* \"#utility.yul\":7134:7137   */\n      dup5\n        /* \"#utility.yul\":7126:7132   */\n      dup3\n        /* \"#utility.yul\":7119:7123   */\n      0x20\n        /* \"#utility.yul\":7111:7117   */\n      dup7\n        /* \"#utility.yul\":7107:7124   */\n      add\n        /* \"#utility.yul\":7044:7138   */\n      tag_238\n      jump\t// in\n    tag_352:\n        /* \"#utility.yul\":7035:7138   */\n      swap2\n      pop\n        /* \"#utility.yul\":6851:7144   */\n      pop\n        /* \"#utility.yul\":6774:7144   */\n      swap3\n      swap2\n      pop\n      pop\n      jump\t// out\n        /* \"#utility.yul\":7150:7461   */\n    tag_240:\n        /* \"#utility.yul\":7227:7231   */\n      0x00\n        /* \"#utility.yul\":7317:7335   */\n      0xffffffffffffffff\n        /* \"#utility.yul\":7309:7315   */\n      dup3\n        /* \"#utility.yul\":7306:7336   */\n      gt\n        /* \"#utility.yul\":7303:7359   */\n      iszero\n      tag_354\n      jumpi\n        /* \"#utility.yul\":7339:7357   */\n      tag_355\n      tag_233\n      jump\t// in\n    tag_355:\n        /* \"#utility.yul\":7303:7359   */\n    tag_354:\n        /* \"#utility.yul\":7389:7393   */\n      0x20\n        /* \"#utility.yul\":7381:7387   */\n      dup3\n        /* \"#utility.yul\":7377:7394   */\n      mul\n        /* \"#utility.yul\":7369:7394   */\n      swap1\n      pop\n        /* \"#utility.yul\":7449:7453   */\n      0x20\n        /* \"#utility.yul\":7443:7447   */\n      dup2\n        /* \"#utility.yul\":7439:7454   */\n      add\n        /* \"#utility.yul\":7431:7454   */\n      swap1\n      pop\n        /* \"#utility.yul\":7150:7461   */\n      swap2\n      swap1\n      pop\n      jump\t// out\n        /* \"#utility.yul\":7484:8194   */\n    tag_241:\n        /* \"#utility.yul\":7580:7585   */\n      0x00\n        /* \"#utility.yul\":7605:7686   */\n      tag_357\n        /* \"#utility.yul\":7621:7685   */\n      tag_358\n        /* \"#utility.yul\":7678:7684   */\n      dup5\n        /* \"#utility.yul\":7621:7685   */\n      tag_240\n      jump\t// in\n    tag_358:\n        /* \"#utility.yul\":7605:7686   */\n      tag_235\n      jump\t// in\n    tag_357:\n        /* \"#utility.yul\":7596:7686   */\n      swap1\n      pop\n        /* \"#utility.yul\":7706:7711   */\n      dup1\n        /* \"#utility.yul\":7735:7741   */\n      dup4\n        /* \"#utility.yul\":7728:7733   */\n      dup3\n        /* \"#utility.yul\":7721:7742   */\n      mstore\n        /* \"#utility.yul\":7769:7773   */\n      0x20\n        /* \"#utility.yul\":7762:7767   */\n      dup3\n        /* \"#utility.yul\":7758:7774   */\n      add\n        /* \"#utility.yul\":7751:7774   */\n      swap1\n      pop\n        /* \"#utility.yul\":7822:7826   */\n      0x20\n        /* \"#utility.yul\":7814:7820   */\n      dup5\n        /* \"#utility.yul\":7810:7827   */\n      mul\n        /* \"#utility.yul\":7802:7808   */\n      dup4\n        /* \"#utility.yul\":7798:7828   */\n      add\n        /* \"#utility.yul\":7851:7854   */\n      dup6\n        /* \"#utility.yul\":7843:7849   */\n      dup2\n        /* \"#utility.yul\":7840:7855   */\n      gt\n        /* \"#utility.yul\":7837:7959   */\n      iszero\n      tag_359\n      jumpi\n        /* \"#utility.yul\":7870:7949   */\n      tag_360\n      tag_237\n      jump\t// in\n    tag_360:\n        /* \"#utility.yul\":7837:7959   */\n    tag_359:\n        /* \"#utility.yul\":7985:7991   */\n      dup4\n        /* \"#utility.yul\":7968:8188   */\n    tag_361:\n        /* \"#utility.yul\":8002:8008   */\n      dup2\n        /* \"#utility.yul\":7997:8000   */\n      dup2\n        /* \"#utility.yul\":7994:8009   */\n      lt\n        /* \"#utility.yul\":7968:8188   */\n      iszero\n      tag_363\n      jumpi\n        /* \"#utility.yul\":8077:8080   */\n      dup1\n        /* \"#utility.yul\":8106:8143   */\n      tag_364\n        /* \"#utility.yul\":8139:8142   */\n      dup9\n        /* \"#utility.yul\":8127:8137   */\n      dup3\n        /* \"#utility.yul\":8106:8143   */\n      tag_226\n      jump\t// in\n    tag_364:\n        /* \"#utility.yul\":8101:8104   */\n      dup5\n        /* \"#utility.yul\":8094:8144   */\n      mstore\n        /* \"#utility.yul\":8173:8177   */\n      0x20\n        /* \"#utility.yul\":8168:8171   */\n      dup5\n        /* \"#utility.yul\":8164:8178   */\n      add\n        /* \"#utility.yul\":8157:8178   */\n      swap4\n      pop\n        /* \"#utility.yul\":8044:8188   */\n      pop\n        /* \"#utility.yul\":8028:8032   */\n      0x20\n        /* \"#utility.yul\":8023:8026   */\n      dup2\n        /* \"#utility.yul\":8019:8033   */\n      add\n        /* \"#utility.yul\":8012:8033   */\n      swap1\n      pop\n        /* \"#utility.yul\":7968:8188   */\n      jump(tag_361)\n    tag_363:\n        /* \"#utility.yul\":7972:7993   */\n      pop\n        /* \"#utility.yul\":7586:8194   */\n      pop\n      pop\n        /* \"#utility.yul\":7484:8194   */\n      swap4\n      swap3\n      pop\n      pop\n      pop\n      jump\t// out\n        /* \"#utility.yul\":8217:8587   */\n    tag_242:\n        /* \"#utility.yul\":8288:8293   */\n      0x00\n        /* \"#utility.yul\":8337:8340   */\n      dup3\n        /* \"#utility.yul\":8330:8334   */\n      0x1f\n        /* \"#utility.yul\":8322:8328   */\n      dup4\n        /* \"#utility.yul\":8318:8335   */\n      add\n        /* \"#utility.yul\":8314:8341   */\n      slt\n        /* \"#utility.yul\":8304:8426   */\n      tag_366\n      jumpi\n        /* \"#utility.yul\":8345:8424   */\n      tag_367\n      tag_232\n      jump\t// in\n    tag_367:\n        /* \"#utility.yul\":8304:8426   */\n    tag_366:\n        /* \"#utility.yul\":8462:8468   */\n      dup2\n        /* \"#utility.yul\":8449:8469   */\n      calldataload\n        /* \"#utility.yul\":8487:8581   */\n      tag_368\n        /* \"#utility.yul\":8577:8580   */\n      dup5\n        /* \"#utility.yul\":8569:8575   */\n      dup3\n        /* \"#utility.yul\":8562:8566   */\n      0x20\n        /* \"#utility.yul\":8554:8560   */\n      dup7\n        /* \"#utility.yul\":8550:8567   */\n      add\n        /* \"#utility.yul\":8487:8581   */\n      tag_241\n      jump\t// in\n    tag_368:\n        /* \"#utility.yul\":8478:8581   */\n      swap2\n      pop\n        /* \"#utility.yul\":8294:8587   */\n      pop\n        /* \"#utility.yul\":8217:8587   */\n      swap3\n      swap2\n      pop\n      pop\n      jump\t// out\n        /* \"#utility.yul\":8593:9487   */\n    tag_54:\n        /* \"#utility.yul\":8711:8717   */\n      0x00\n        /* \"#utility.yul\":8719:8725   */\n      dup1\n        /* \"#utility.yul\":8768:8770   */\n      0x40\n        /* \"#utility.yul\":8756:8765   */\n      dup4\n        /* \"#utility.yul\":8747:8754   */\n      dup6\n        /* \"#utility.yul\":8743:8766   */\n      sub\n        /* \"#utility.yul\":8739:8771   */\n      slt\n        /* \"#utility.yul\":8736:8855   */\n      iszero\n      tag_370\n      jumpi\n        /* \"#utility.yul\":8774:8853   */\n      tag_371\n      tag_218\n      jump\t// in\n    tag_371:\n        /* \"#utility.yul\":8736:8855   */\n    tag_370:\n        /* \"#utility.yul\":8922:8923   */\n      0x00\n        /* \"#utility.yul\":8911:8920   */\n      dup4\n        /* \"#utility.yul\":8907:8924   */\n      add\n        /* \"#utility.yul\":8894:8925   */\n      calldataload\n        /* \"#utility.yul\":8952:8970   */\n      0xffffffffffffffff\n        /* \"#utility.yul\":8944:8950   */\n      dup2\n        /* \"#utility.yul\":8941:8971   */\n      gt\n        /* \"#utility.yul\":8938:9055   */\n      iszero\n      tag_372\n      jumpi\n        /* \"#utility.yul\":8974:9053   */\n      tag_373\n      tag_219\n      jump\t// in\n    tag_373:\n        /* \"#utility.yul\":8938:9055   */\n    tag_372:\n        /* \"#utility.yul\":9079:9157   */\n      tag_374\n        /* \"#utility.yul\":9149:9156   */\n      dup6\n        /* \"#utility.yul\":9140:9146   */\n      dup3\n        /* \"#utility.yul\":9129:9138   */\n      dup7\n        /* \"#utility.yul\":9125:9147   */\n      add\n        /* \"#utility.yul\":9079:9157   */\n      tag_239\n      jump\t// in\n    tag_374:\n        /* \"#utility.yul\":9069:9157   */\n      swap3\n      pop\n        /* \"#utility.yul\":8865:9167   */\n      pop\n        /* \"#utility.yul\":9234:9236   */\n      0x20\n        /* \"#utility.yul\":9223:9232   */\n      dup4\n        /* \"#utility.yul\":9219:9237   */\n      add\n        /* \"#utility.yul\":9206:9238   */\n      calldataload\n        /* \"#utility.yul\":9265:9283   */\n      0xffffffffffffffff\n        /* \"#utility.yul\":9257:9263   */\n      dup2\n        /* \"#utility.yul\":9254:9284   */\n      gt\n        /* \"#utility.yul\":9251:9368   */\n      iszero\n      tag_375\n      jumpi\n        /* \"#utility.yul\":9287:9366   */\n      tag_376\n      tag_219\n      jump\t// in\n    tag_376:\n        /* \"#utility.yul\":9251:9368   */\n    tag_375:\n        /* \"#utility.yul\":9392:9470   */\n      tag_377\n        /* \"#utility.yul\":9462:9469   */\n      dup6\n        /* \"#utility.yul\":9453:9459   */\n      dup3\n        /* \"#utility.yul\":9442:9451   */\n      dup7\n        /* \"#utility.yul\":9438:9460   */\n      add\n        /* \"#utility.yul\":9392:9470   */\n      tag_242\n      jump\t// in\n    tag_377:\n        /* \"#utility.yul\":9382:9470   */\n      swap2\n      pop\n        /* \"#utility.yul\":9177:9480   */\n      pop\n        /* \"#utility.yul\":8593:9487   */\n      swap3\n      pop\n      swap3\n      swap1\n      pop\n      jump\t// out\n        /* \"#utility.yul\":9493:9822   */\n    tag_58:\n        /* \"#utility.yul\":9552:9558   */\n      0x00\n        /* \"#utility.yul\":9601:9603   */\n      0x20\n        /* \"#utility.yul\":9589:9598   */\n      dup3\n        /* \"#utility.yul\":9580:9587   */\n      dup5\n        /* \"#utility.yul\":9576:9599   */\n      sub\n        /* \"#utility.yul\":9572:9604   */\n      slt\n        /* \"#utility.yul\":9569:9688   */\n      iszero\n      tag_379\n      jumpi\n        /* \"#utility.yul\":9607:9686   */\n      tag_380\n      tag_218\n      jump\t// in\n    tag_380:\n        /* \"#utility.yul\":9569:9688   */\n    tag_379:\n        /* \"#utility.yul\":9727:9728   */\n      0x00\n        /* \"#utility.yul\":9752:9805   */\n      tag_381\n        /* \"#utility.yul\":9797:9804   */\n      dup5\n        /* \"#utility.yul\":9788:9794   */\n      dup3\n        /* \"#utility.yul\":9777:9786   */\n      dup6\n        /* \"#utility.yul\":9773:9795   */\n      add\n        /* \"#utility.yul\":9752:9805   */\n      tag_223\n      jump\t// in\n    tag_381:\n        /* \"#utility.yul\":9742:9805   */\n      swap2\n      pop\n        /* \"#utility.yul\":9698:9815   */\n      pop\n        /* \"#utility.yul\":9493:9822   */\n      swap3\n      swap2\n      pop\n      pop\n      jump\t// out\n        /* \"#utility.yul\":9828:10136   */\n    tag_243:\n        /* \"#utility.yul\":9902:9906   */\n      0x00\n        /* \"#utility.yul\":9992:10010   */\n      0xffffffffffffffff\n        /* \"#utility.yul\":9984:9990   */\n      dup3\n        /* \"#utility.yul\":9981:10011   */\n      gt\n        /* \"#utility.yul\":9978:10034   */\n      iszero\n      tag_383\n      jumpi\n        /* \"#utility.yul\":10014:10032   */\n      tag_384\n      tag_233\n      jump\t// in\n    tag_384:\n        /* \"#utility.yul\":9978:10034   */\n    tag_383:\n        /* \"#utility.yul\":10064:10068   */\n      0x20\n        /* \"#utility.yul\":10056:10062   */\n      dup3\n        /* \"#utility.yul\":10052:10069   */\n      mul\n        /* \"#utility.yul\":10044:10069   */\n      swap1\n      pop\n        /* \"#utility.yul\":10124:10128   */\n      0x20\n        /* \"#utility.yul\":10118:10122   */\n      dup2\n        /* \"#utility.yul\":10114:10129   */\n      add\n        /* \"#utility.yul\":10106:10129   */\n      swap1\n      pop\n        /* \"#utility.yul\":9828:10136   */\n      swap2\n      swap1\n      pop\n      jump\t// out\n        /* \"#utility.yul\":10142:10258   */\n    tag_244:\n        /* \"#utility.yul\":10212:10233   */\n      tag_386\n        /* \"#utility.yul\":10227:10232   */\n      dup2\n        /* \"#utility.yul\":10212:10233   */\n      tag_227\n      jump\t// in\n    tag_386:\n        /* \"#utility.yul\":10205:10210   */\n      dup2\n        /* \"#utility.yul\":10202:10234   */\n      eq\n        /* \"#utility.yul\":10192:10252   */\n      tag_387\n      jumpi\n        /* \"#utility.yul\":10248:10249   */\n      0x00\n        /* \"#utility.yul\":10245:10246   */\n      dup1\n        /* \"#utility.yul\":10238:10250   */\n      revert\n        /* \"#utility.yul\":10192:10252   */\n    tag_387:\n        /* \"#utility.yul\":10142:10258   */\n      pop\n      jump\t// out\n        /* \"#utility.yul\":10264:10397   */\n    tag_245:\n        /* \"#utility.yul\":10307:10312   */\n      0x00\n        /* \"#utility.yul\":10345:10351   */\n      dup2\n        /* \"#utility.yul\":10332:10352   */\n      calldataload\n        /* \"#utility.yul\":10323:10352   */\n      swap1\n      pop\n        /* \"#utility.yul\":10361:10391   */\n      tag_389\n        /* \"#utility.yul\":10385:10390   */\n      dup2\n        /* \"#utility.yul\":10361:10391   */\n      tag_244\n      jump\t// in\n    tag_389:\n        /* \"#utility.yul\":10264:10397   */\n      swap3\n      swap2\n      pop\n      pop\n      jump\t// out\n        /* \"#utility.yul\":10417:11118   */\n    tag_246:\n        /* \"#utility.yul\":10510:10515   */\n      0x00\n        /* \"#utility.yul\":10535:10613   */\n      tag_391\n        /* \"#utility.yul\":10551:10612   */\n      tag_392\n        /* \"#utility.yul\":10605:10611   */\n      dup5\n        /* \"#utility.yul\":10551:10612   */\n      tag_243\n      jump\t// in\n    tag_392:\n        /* \"#utility.yul\":10535:10613   */\n      tag_235\n      jump\t// in\n    tag_391:\n        /* \"#utility.yul\":10526:10613   */\n      swap1\n      pop\n        /* \"#utility.yul\":10633:10638   */\n      dup1\n        /* \"#utility.yul\":10662:10668   */\n      dup4\n        /* \"#utility.yul\":10655:10660   */\n      dup3\n        /* \"#utility.yul\":10648:10669   */\n      mstore\n        /* \"#utility.yul\":10696:10700   */\n      0x20\n        /* \"#utility.yul\":10689:10694   */\n      dup3\n        /* \"#utility.yul\":10685:10701   */\n      add\n        /* \"#utility.yul\":10678:10701   */\n      swap1\n      pop\n        /* \"#utility.yul\":10749:10753   */\n      0x20\n        /* \"#utility.yul\":10741:10747   */\n      dup5\n        /* \"#utility.yul\":10737:10754   */\n      mul\n        /* \"#utility.yul\":10729:10735   */\n      dup4\n        /* \"#utility.yul\":10725:10755   */\n      add\n        /* \"#utility.yul\":10778:10781   */\n      dup6\n        /* \"#utility.yul\":10770:10776   */\n      dup2\n        /* \"#utility.yul\":10767:10782   */\n      gt\n        /* \"#utility.yul\":10764:10886   */\n      iszero\n      tag_393\n      jumpi\n        /* \"#utility.yul\":10797:10876   */\n      tag_394\n      tag_237\n      jump\t// in\n    tag_394:\n        /* \"#utility.yul\":10764:10886   */\n    tag_393:\n        /* \"#utility.yul\":10912:10918   */\n      dup4\n        /* \"#utility.yul\":10895:11112   */\n    tag_395:\n        /* \"#utility.yul\":10929:10935   */\n      dup2\n        /* \"#utility.yul\":10924:10927   */\n      dup2\n        /* \"#utility.yul\":10921:10936   */\n      lt\n        /* \"#utility.yul\":10895:11112   */\n      iszero\n      tag_397\n      jumpi\n        /* \"#utility.yul\":11004:11007   */\n      dup1\n        /* \"#utility.yul\":11033:11067   */\n      tag_398\n        /* \"#utility.yul\":11063:11066   */\n      dup9\n        /* \"#utility.yul\":11051:11061   */\n      dup3\n        /* \"#utility.yul\":11033:11067   */\n      tag_245\n      jump\t// in\n    tag_398:\n        /* \"#utility.yul\":11028:11031   */\n      dup5\n        /* \"#utility.yul\":11021:11068   */\n      mstore\n        /* \"#utility.yul\":11097:11101   */\n      0x20\n        /* \"#utility.yul\":11092:11095   */\n      dup5\n        /* \"#utility.yul\":11088:11102   */\n      add\n        /* \"#utility.yul\":11081:11102   */\n      swap4\n      pop\n        /* \"#utility.yul\":10971:11112   */\n      pop\n        /* \"#utility.yul\":10955:10959   */\n      0x20\n        /* \"#utility.yul\":10950:10953   */\n      dup2\n        /* \"#utility.yul\":10946:10960   */\n      add\n        /* \"#utility.yul\":10939:10960   */\n      swap1\n      pop\n        /* \"#utility.yul\":10895:11112   */\n      jump(tag_395)\n    tag_397:\n        /* \"#utility.yul\":10899:10920   */\n      pop\n        /* \"#utility.yul\":10516:11118   */\n      pop\n      pop\n        /* \"#utility.yul\":10417:11118   */\n      swap4\n      swap3\n      pop\n      pop\n      pop\n      jump\t// out\n        /* \"#utility.yul\":11138:11502   */\n    tag_247:\n        /* \"#utility.yul\":11206:11211   */\n      0x00\n        /* \"#utility.yul\":11255:11258   */\n      dup3\n        /* \"#utility.yul\":11248:11252   */\n      0x1f\n        /* \"#utility.yul\":11240:11246   */\n      dup4\n        /* \"#utility.yul\":11236:11253   */\n      add\n        /* \"#utility.yul\":11232:11259   */\n      slt\n        /* \"#utility.yul\":11222:11344   */\n      tag_400\n      jumpi\n        /* \"#utility.yul\":11263:11342   */\n      tag_401\n      tag_232\n      jump\t// in\n    tag_401:\n        /* \"#utility.yul\":11222:11344   */\n    tag_400:\n        /* \"#utility.yul\":11380:11386   */\n      dup2\n        /* \"#utility.yul\":11367:11387   */\n      calldataload\n        /* \"#utility.yul\":11405:11496   */\n      tag_402\n        /* \"#utility.yul\":11492:11495   */\n      dup5\n        /* \"#utility.yul\":11484:11490   */\n      dup3\n        /* \"#utility.yul\":11477:11481   */\n      0x20\n        /* \"#utility.yul\":11469:11475   */\n      dup7\n        /* \"#utility.yul\":11465:11482   */\n      add\n        /* \"#utility.yul\":11405:11496   */\n      tag_246\n      jump\t// in\n    tag_402:\n        /* \"#utility.yul\":11396:11496   */\n      swap2\n      pop\n        /* \"#utility.yul\":11212:11502   */\n      pop\n        /* \"#utility.yul\":11138:11502   */\n      swap3\n      swap2\n      pop\n      pop\n      jump\t// out\n        /* \"#utility.yul\":11508:12396   */\n    tag_63:\n        /* \"#utility.yul\":11623:11629   */\n      0x00\n        /* \"#utility.yul\":11631:11637   */\n      dup1\n        /* \"#utility.yul\":11680:11682   */\n      0x40\n        /* \"#utility.yul\":11668:11677   */\n      dup4\n        /* \"#utility.yul\":11659:11666   */\n      dup6\n        /* \"#utility.yul\":11655:11678   */\n      sub\n        /* \"#utility.yul\":11651:11683   */\n      slt\n        /* \"#utility.yul\":11648:11767   */\n      iszero\n      tag_404\n      jumpi\n        /* \"#utility.yul\":11686:11765   */\n      tag_405\n      tag_218\n      jump\t// in\n    tag_405:\n        /* \"#utility.yul\":11648:11767   */\n    tag_404:\n        /* \"#utility.yul\":11834:11835   */\n      0x00\n        /* \"#utility.yul\":11823:11832   */\n      dup4\n        /* \"#utility.yul\":11819:11836   */\n      add\n        /* \"#utility.yul\":11806:11837   */\n      calldataload\n        /* \"#utility.yul\":11864:11882   */\n      0xffffffffffffffff\n        /* \"#utility.yul\":11856:11862   */\n      dup2\n        /* \"#utility.yul\":11853:11883   */\n      gt\n        /* \"#utility.yul\":11850:11967   */\n      iszero\n      tag_406\n      jumpi\n        /* \"#utility.yul\":11886:11965   */\n      tag_407\n      tag_219\n      jump\t// in\n    tag_407:\n        /* \"#utility.yul\":11850:11967   */\n    tag_406:\n        /* \"#utility.yul\":11991:12069   */\n      tag_408\n        /* \"#utility.yul\":12061:12068   */\n      dup6\n        /* \"#utility.yul\":12052:12058   */\n      dup3\n        /* \"#utility.yul\":12041:12050   */\n      dup7\n        /* \"#utility.yul\":12037:12059   */\n      add\n        /* \"#utility.yul\":11991:12069   */\n      tag_239\n      jump\t// in\n    tag_408:\n        /* \"#utility.yul\":11981:12069   */\n      swap3\n      pop\n        /* \"#utility.yul\":11777:12079   */\n      pop\n        /* \"#utility.yul\":12146:12148   */\n      0x20\n        /* \"#utility.yul\":12135:12144   */\n      dup4\n        /* \"#utility.yul\":12131:12149   */\n      add\n        /* \"#utility.yul\":12118:12150   */\n      calldataload\n        /* \"#utility.yul\":12177:12195   */\n      0xffffffffffffffff\n        /* \"#utility.yul\":12169:12175   */\n      dup2\n        /* \"#utility.yul\":12166:12196   */\n      gt\n        /* \"#utility.yul\":12163:12280   */\n      iszero\n      tag_409\n      jumpi\n        /* \"#utility.yul\":12199:12278   */\n      tag_410\n      tag_219\n      jump\t// in\n    tag_410:\n        /* \"#utility.yul\":12163:12280   */\n    tag_409:\n        /* \"#utility.yul\":12304:12379   */\n      tag_411\n        /* \"#utility.yul\":12371:12378   */\n      dup6\n        /* \"#utility.yul\":12362:12368   */\n      dup3\n        /* \"#utility.yul\":12351:12360   */\n      dup7\n        /* \"#utility.yul\":12347:12369   */\n      add\n        /* \"#utility.yul\":12304:12379   */\n      tag_247\n      jump\t// in\n    tag_411:\n        /* \"#utility.yul\":12294:12379   */\n      swap2\n      pop\n        /* \"#utility.yul\":12089:12389   */\n      pop\n        /* \"#utility.yul\":11508:12396   */\n      swap3\n      pop\n      swap3\n      swap1\n      pop\n      jump\t// out\n        /* \"#utility.yul\":12402:12876   */\n    tag_82:\n        /* \"#utility.yul\":12470:12476   */\n      0x00\n        /* \"#utility.yul\":12478:12484   */\n      dup1\n        /* \"#utility.yul\":12527:12529   */\n      0x40\n        /* \"#utility.yul\":12515:12524   */\n      dup4\n        /* \"#utility.yul\":12506:12513   */\n      dup6\n        /* \"#utility.yul\":12502:12525   */\n      sub\n        /* \"#utility.yul\":12498:12530   */\n      slt\n        /* \"#utility.yul\":12495:12614   */\n      iszero\n      tag_413\n      jumpi\n        /* \"#utility.yul\":12533:12612   */\n      tag_414\n      tag_218\n      jump\t// in\n    tag_414:\n        /* \"#utility.yul\":12495:12614   */\n    tag_413:\n        /* \"#utility.yul\":12653:12654   */\n      0x00\n        /* \"#utility.yul\":12678:12731   */\n      tag_415\n        /* \"#utility.yul\":12723:12730   */\n      dup6\n        /* \"#utility.yul\":12714:12720   */\n      dup3\n        /* \"#utility.yul\":12703:12712   */\n      dup7\n        /* \"#utility.yul\":12699:12721   */\n      add\n        /* \"#utility.yul\":12678:12731   */\n      tag_223\n      jump\t// in\n    tag_415:\n        /* \"#utility.yul\":12668:12731   */\n      swap3\n      pop\n        /* \"#utility.yul\":12624:12741   */\n      pop\n        /* \"#utility.yul\":12780:12782   */\n      0x20\n        /* \"#utility.yul\":12806:12859   */\n      tag_416\n        /* \"#utility.yul\":12851:12858   */\n      dup6\n        /* \"#utility.yul\":12842:12848   */\n      dup3\n        /* \"#utility.yul\":12831:12840   */\n      dup7\n        /* \"#utility.yul\":12827:12849   */\n      add\n        /* \"#utility.yul\":12806:12859   */\n      tag_223\n      jump\t// in\n    tag_416:\n        /* \"#utility.yul\":12796:12859   */\n      swap2\n      pop\n        /* \"#utility.yul\":12751:12869   */\n      pop\n        /* \"#utility.yul\":12402:12876   */\n      swap3\n      pop\n      swap3\n      swap1\n      pop\n      jump\t// out\n        /* \"#utility.yul\":12882:13062   */\n    tag_248:\n        /* \"#utility.yul\":12930:13007   */\n      0x4e487b7100000000000000000000000000000000000000000000000000000000\n        /* \"#utility.yul\":12927:12928   */\n      0x00\n        /* \"#utility.yul\":12920:13008   */\n      mstore\n        /* \"#utility.yul\":13027:13031   */\n      0x22\n        /* \"#utility.yul\":13024:13025   */\n      0x04\n        /* \"#utility.yul\":13017:13032   */\n      mstore\n        /* \"#utility.yul\":13051:13055   */\n      0x24\n        /* \"#utility.yul\":13048:13049   */\n      0x00\n        /* \"#utility.yul\":13041:13056   */\n      revert\n        /* \"#utility.yul\":13068:13388   */\n    tag_95:\n        /* \"#utility.yul\":13112:13118   */\n      0x00\n        /* \"#utility.yul\":13149:13150   */\n      0x02\n        /* \"#utility.yul\":13143:13147   */\n      dup3\n        /* \"#utility.yul\":13139:13151   */\n      div\n        /* \"#utility.yul\":13129:13151   */\n      swap1\n      pop\n        /* \"#utility.yul\":13196:13197   */\n      0x01\n        /* \"#utility.yul\":13190:13194   */\n      dup3\n        /* \"#utility.yul\":13186:13198   */\n      and\n        /* \"#utility.yul\":13217:13235   */\n      dup1\n        /* \"#utility.yul\":13207:13288   */\n      tag_419\n      jumpi\n        /* \"#utility.yul\":13273:13277   */\n      0x7f\n        /* \"#utility.yul\":13265:13271   */\n      dup3\n        /* \"#utility.yul\":13261:13278   */\n      and\n        /* \"#utility.yul\":13251:13278   */\n      swap2\n      pop\n        /* \"#utility.yul\":13207:13288   */\n    tag_419:\n        /* \"#utility.yul\":13335:13337   */\n      0x20\n        /* \"#utility.yul\":13327:13333   */\n      dup3\n        /* \"#utility.yul\":13324:13338   */\n      lt\n        /* \"#utility.yul\":13304:13322   */\n      dup2\n        /* \"#utility.yul\":13301:13339   */\n      sub\n        /* \"#utility.yul\":13298:13382   */\n      tag_420\n      jumpi\n        /* \"#utility.yul\":13354:13372   */\n      tag_421\n      tag_248\n      jump\t// in\n    tag_421:\n        /* \"#utility.yul\":13298:13382   */\n    tag_420:\n        /* \"#utility.yul\":13119:13388   */\n      pop\n        /* \"#utility.yul\":13068:13388   */\n      swap2\n      swap1\n      pop\n      jump\t// out\n        /* \"#utility.yul\":13394:13574   */\n    tag_249:\n        /* \"#utility.yul\":13442:13519   */\n      0x4e487b7100000000000000000000000000000000000000000000000000000000\n        /* \"#utility.yul\":13439:13440   */\n      0x00\n        /* \"#utility.yul\":13432:13520   */\n      mstore\n        /* \"#utility.yul\":13539:13543   */\n      0x11\n        /* \"#utility.yul\":13536:13537   */\n      0x04\n        /* \"#utility.yul\":13529:13544   */\n      mstore\n        /* \"#utility.yul\":13563:13567   */\n      0x24\n        /* \"#utility.yul\":13560:13561   */\n      0x00\n        /* \"#utility.yul\":13553:13568   */\n      revert\n        /* \"#utility.yul\":13580:13813   */\n    tag_107:\n        /* \"#utility.yul\":13619:13622   */\n      0x00\n        /* \"#utility.yul\":13642:13666   */\n      tag_424\n        /* \"#utility.yul\":13660:13665   */\n      dup3\n        /* \"#utility.yul\":13642:13666   */\n      tag_224\n      jump\t// in\n    tag_424:\n        /* \"#utility.yul\":13633:13666   */\n      swap2\n      pop\n        /* \"#utility.yul\":13688:13754   */\n      0xffffffffffffffffffffffffffffffffffffffffffffffffffffffffffffffff\n        /* \"#utility.yul\":13681:13686   */\n      dup3\n        /* \"#utility.yul\":13678:13755   */\n      sub\n        /* \"#utility.yul\":13675:13778   */\n      tag_425\n      jumpi\n        /* \"#utility.yul\":13758:13776   */\n      tag_426\n      tag_249\n      jump\t// in\n    tag_426:\n        /* \"#utility.yul\":13675:13778   */\n    tag_425:\n        /* \"#utility.yul\":13805:13806   */\n      0x01\n        /* \"#utility.yul\":13798:13803   */\n      dup3\n        /* \"#utility.yul\":13794:13807   */\n      add\n        /* \"#utility.yul\":13787:13807   */\n      swap1\n      pop\n        /* \"#utility.yul\":13580:13813   */\n      swap2\n      swap1\n      pop\n      jump\t// out\n        /* \"#utility.yul\":13819:14010   */\n    tag_121:\n        /* \"#utility.yul\":13859:13862   */\n      0x00\n        /* \"#utility.yul\":13878:13898   */\n      tag_428\n        /* \"#utility.yul\":13896:13897   */\n      dup3\n        /* \"#utility.yul\":13878:13898   */\n      tag_224\n      jump\t// in\n    tag_428:\n        /* \"#utility.yul\":13873:13898   */\n      swap2\n      pop\n        /* \"#utility.yul\":13912:13932   */\n      tag_429\n        /* \"#utility.yul\":13930:13931   */\n      dup4\n        /* \"#utility.yul\":13912:13932   */\n      tag_224\n      jump\t// in\n    tag_429:\n        /* \"#utility.yul\":13907:13932   */\n      swap3\n      pop\n        /* \"#utility.yul\":13955:13956   */\n      dup3\n        /* \"#utility.yul\":13952:13953   */\n      dup3\n        /* \"#utility.yul\":13948:13957   */\n      add\n        /* \"#utility.yul\":13941:13957   */\n      swap1\n      pop\n        /* \"#utility.yul\":13976:13979   */\n      dup1\n        /* \"#utility.yul\":13973:13974   */\n      dup3\n        /* \"#utility.yul\":13970:13980   */\n      gt\n        /* \"#utility.yul\":13967:14003   */\n      iszero\n      tag_430\n      jumpi\n        /* \"#utility.yul\":13983:14001   */\n      tag_431\n      tag_249\n      jump\t// in\n    tag_431:\n        /* \"#utility.yul\":13967:14003   */\n    tag_430:\n        /* \"#utility.yul\":13819:14010   */\n      swap3\n      swap2\n      pop\n      pop\n      jump\t// out\n        /* \"#utility.yul\":14016:14179   */\n    tag_250:\n        /* \"#utility.yul\":14156:14171   */\n      0x496e76616c696420696e70757400000000000000000000000000000000000000\n        /* \"#utility.yul\":14152:14153   */\n      0x00\n        /* \"#utility.yul\":14144:14150   */\n      dup3\n        /* \"#utility.yul\":14140:14154   */\n      add\n        /* \"#utility.yul\":14133:14172   */\n      mstore\n        /* \"#utility.yul\":14016:14179   */\n      pop\n      jump\t// out\n        /* \"#utility.yul\":14185:14551   */\n    tag_251:\n        /* \"#utility.yul\":14327:14330   */\n      0x00\n        /* \"#utility.yul\":14348:14415   */\n      tag_434\n        /* \"#utility.yul\":14412:14414   */\n      0x0d\n        /* \"#utility.yul\":14407:14410   */\n      dup4\n        /* \"#utility.yul\":14348:14415   */\n      tag_213\n      jump\t// in\n    tag_434:\n        /* \"#utility.yul\":14341:14415   */\n      swap2\n      pop\n        /* \"#utility.yul\":14424:14517   */\n      tag_435\n        /* \"#utility.yul\":14513:14516   */\n      dup3\n        /* \"#utility.yul\":14424:14517   */\n      tag_250\n      jump\t// in\n    tag_435:\n        /* \"#utility.yul\":14542:14544   */\n      0x20\n        /* \"#utility.yul\":14537:14540   */\n      dup3\n        /* \"#utility.yul\":14533:14545   */\n      add\n        /* \"#utility.yul\":14526:14545   */\n      swap1\n      pop\n        /* \"#utility.yul\":14185:14551   */\n      swap2\n      swap1\n      pop\n      jump\t// out\n        /* \"#utility.yul\":14557:14976   */\n    tag_125:\n        /* \"#utility.yul\":14723:14727   */\n      0x00\n        /* \"#utility.yul\":14761:14763   */\n      0x20\n        /* \"#utility.yul\":14750:14759   */\n      dup3\n        /* \"#utility.yul\":14746:14764   */\n      add\n        /* \"#utility.yul\":14738:14764   */\n      swap1\n      pop\n        /* \"#utility.yul\":14810:14819   */\n      dup2\n        /* \"#utility.yul\":14804:14808   */\n      dup2\n        /* \"#utility.yul\":14800:14820   */\n      sub\n        /* \"#utility.yul\":14796:14797   */\n      0x00\n        /* \"#utility.yul\":14785:14794   */\n      dup4\n        /* \"#utility.yul\":14781:14798   */\n      add\n        /* \"#utility.yul\":14774:14821   */\n      mstore\n        /* \"#utility.yul\":14838:14969   */\n      tag_437\n        /* \"#utility.yul\":14964:14968   */\n      dup2\n        /* \"#utility.yul\":14838:14969   */\n      tag_251\n      jump\t// in\n    tag_437:\n        /* \"#utility.yul\":14830:14969   */\n      swap1\n      pop\n        /* \"#utility.yul\":14557:14976   */\n      swap2\n      swap1\n      pop\n      jump\t// out\n        /* \"#utility.yul\":14982:15162   */\n    tag_131:\n        /* \"#utility.yul\":15030:15107   */\n      0x4e487b7100000000000000000000000000000000000000000000000000000000\n        /* \"#utility.yul\":15027:15028   */\n      0x00\n        /* \"#utility.yul\":15020:15108   */\n      mstore\n        /* \"#utility.yul\":15127:15131   */\n      0x32\n        /* \"#utility.yul\":15124:15125   */\n      0x04\n        /* \"#utility.yul\":15117:15132   */\n      mstore\n        /* \"#utility.yul\":15151:15155   */\n      0x24\n        /* \"#utility.yul\":15148:15149   */\n      0x00\n        /* \"#utility.yul\":15141:15156   */\n      revert\n        /* \"#utility.yul\":15168:15350   */\n    tag_252:\n        /* \"#utility.yul\":15308:15342   */\n      0x416d6f756e74206d7573742062652067726561746572207468616e207a65726f\n        /* \"#utility.yul\":15304:15305   */\n      0x00\n        /* \"#utility.yul\":15296:15302   */\n      dup3\n        /* \"#utility.yul\":15292:15306   */\n      add\n        /* \"#utility.yul\":15285:15343   */\n      mstore\n        /* \"#utility.yul\":15168:15350   */\n      pop\n      jump\t// out\n        /* \"#utility.yul\":15356:15722   */\n    tag_253:\n        /* \"#utility.yul\":15498:15501   */\n      0x00\n        /* \"#utility.yul\":15519:15586   */\n      tag_441\n        /* \"#utility.yul\":15583:15585   */\n      0x20\n        /* \"#utility.yul\":15578:15581   */\n      dup4\n        /* \"#utility.yul\":15519:15586   */\n      tag_213\n      jump\t// in\n    tag_441:\n        /* \"#utility.yul\":15512:15586   */\n      swap2\n      pop\n        /* \"#utility.yul\":15595:15688   */\n      tag_442\n        /* \"#utility.yul\":15684:15687   */\n      dup3\n        /* \"#utility.yul\":15595:15688   */\n      tag_252\n      jump\t// in\n    tag_442:\n        /* \"#utility.yul\":15713:15715   */\n      0x20\n        /* \"#utility.yul\":15708:15711   */\n      dup3\n        /* \"#utility.yul\":15704:15716   */\n      add\n        /* \"#utility.yul\":15697:15716   */\n      swap1\n      pop\n        /* \"#utility.yul\":15356:15722   */\n      swap2\n      swap1\n      pop\n      jump\t// out\n        /* \"#utility.yul\":15728:16147   */\n    tag_134:\n        /* \"#utility.yul\":15894:15898   */\n      0x00\n        /* \"#utility.yul\":15932:15934   */\n      0x20\n        /* \"#utility.yul\":15921:15930   */\n      dup3\n        /* \"#utility.yul\":15917:15935   */\n      add\n        /* \"#utility.yul\":15909:15935   */\n      swap1\n      pop\n        /* \"#utility.yul\":15981:15990   */\n      dup2\n        /* \"#utility.yul\":15975:15979   */\n      dup2\n        /* \"#utility.yul\":15971:15991   */\n      sub\n        /* \"#utility.yul\":15967:15968   */\n      0x00\n        /* \"#utility.yul\":15956:15965   */\n      dup4\n        /* \"#utility.yul\":15952:15969   */\n      add\n        /* \"#utility.yul\":15945:15992   */\n      mstore\n        /* \"#utility.yul\":16009:16140   */\n      tag_444\n        /* \"#utility.yul\":16135:16139   */\n      dup2\n        /* \"#utility.yul\":16009:16140   */\n      tag_253\n      jump\t// in\n    tag_444:\n        /* \"#utility.yul\":16001:16140   */\n      swap1\n      pop\n        /* \"#utility.yul\":15728:16147   */\n      swap2\n      swap1\n      pop\n      jump\t// out\n        /* \"#utility.yul\":16153:16380   */\n    tag_254:\n        /* \"#utility.yul\":16293:16327   */\n      0x546f6b656e7320616c726561647920646973747269627574656420666f722074\n        /* \"#utility.yul\":16289:16290   */\n      0x00\n        /* \"#utility.yul\":16281:16287   */\n      dup3\n        /* \"#utility.yul\":16277:16291   */\n      add\n        /* \"#utility.yul\":16270:16328   */\n      mstore\n        /* \"#utility.yul\":16362:16372   */\n      0x6869732079656172000000000000000000000000000000000000000000000000\n        /* \"#utility.yul\":16357:16359   */\n      0x20\n        /* \"#utility.yul\":16349:16355   */\n      dup3\n        /* \"#utility.yul\":16345:16360   */\n      add\n        /* \"#utility.yul\":16338:16373   */\n      mstore\n        /* \"#utility.yul\":16153:16380   */\n      pop\n      jump\t// out\n        /* \"#utility.yul\":16386:16752   */\n    tag_255:\n        /* \"#utility.yul\":16528:16531   */\n      0x00\n        /* \"#utility.yul\":16549:16616   */\n      tag_447\n        /* \"#utility.yul\":16613:16615   */\n      0x28\n        /* \"#utility.yul\":16608:16611   */\n      dup4\n        /* \"#utility.yul\":16549:16616   */\n      tag_213\n      jump\t// in\n    tag_447:\n        /* \"#utility.yul\":16542:16616   */\n      swap2\n      pop\n        /* \"#utility.yul\":16625:16718   */\n      tag_448\n        /* \"#utility.yul\":16714:16717   */\n      dup3\n        /* \"#utility.yul\":16625:16718   */\n      tag_254\n      jump\t// in\n    tag_448:\n        /* \"#utility.yul\":16743:16745   */\n      0x40\n        /* \"#utility.yul\":16738:16741   */\n      dup3\n        /* \"#utility.yul\":16734:16746   */\n      add\n        /* \"#utility.yul\":16727:16746   */\n      swap1\n      pop\n        /* \"#utility.yul\":16386:16752   */\n      swap2\n      swap1\n      pop\n      jump\t// out\n        /* \"#utility.yul\":16758:17177   */\n    tag_141:\n        /* \"#utility.yul\":16924:16928   */\n      0x00\n        /* \"#utility.yul\":16962:16964   */\n      0x20\n        /* \"#utility.yul\":16951:16960   */\n      dup3\n        /* \"#utility.yul\":16947:16965   */\n      add\n        /* \"#utility.yul\":16939:16965   */\n      swap1\n      pop\n        /* \"#utility.yul\":17011:17020   */\n      dup2\n        /* \"#utility.yul\":17005:17009   */\n      dup2\n        /* \"#utility.yul\":17001:17021   */\n      sub\n        /* \"#utility.yul\":16997:16998   */\n      0x00\n        /* \"#utility.yul\":16986:16995   */\n      dup4\n        /* \"#utility.yul\":16982:16999   */\n      add\n        /* \"#utility.yul\":16975:17022   */\n      mstore\n        /* \"#utility.yul\":17039:17170   */\n      tag_450\n        /* \"#utility.yul\":17165:17169   */\n      dup2\n        /* \"#utility.yul\":17039:17170   */\n      tag_255\n      jump\t// in\n    tag_450:\n        /* \"#utility.yul\":17031:17170   */\n      swap1\n      pop\n        /* \"#utility.yul\":16758:17177   */\n      swap2\n      swap1\n      pop\n      jump\t// out\n        /* \"#utility.yul\":17183:17407   */\n    tag_256:\n        /* \"#utility.yul\":17323:17357   */\n      0x45524332303a2064656372656173656420616c6c6f77616e63652062656c6f77\n        /* \"#utility.yul\":17319:17320   */\n      0x00\n        /* \"#utility.yul\":17311:17317   */\n      dup3\n        /* \"#utility.yul\":17307:17321   */\n      add\n        /* \"#utility.yul\":17300:17358   */\n      mstore\n        /* \"#utility.yul\":17392:17399   */\n      0x207a65726f000000000000000000000000000000000000000000000000000000\n        /* \"#utility.yul\":17387:17389   */\n      0x20\n        /* \"#utility.yul\":17379:17385   */\n      dup3\n        /* \"#utility.yul\":17375:17390   */\n      add\n        /* \"#utility.yul\":17368:17400   */\n      mstore\n        /* \"#utility.yul\":17183:17407   */\n      pop\n      jump\t// out\n        /* \"#utility.yul\":17413:17779   */\n    tag_257:\n        /* \"#utility.yul\":17555:17558   */\n      0x00\n        /* \"#utility.yul\":17576:17643   */\n      tag_453\n        /* \"#utility.yul\":17640:17642   */\n      0x25\n        /* \"#utility.yul\":17635:17638   */\n      dup4\n        /* \"#utility.yul\":17576:17643   */\n      tag_213\n      jump\t// in\n    tag_453:\n        /* \"#utility.yul\":17569:17643   */\n      swap2\n      pop\n        /* \"#utility.yul\":17652:17745   */\n      tag_454\n        /* \"#utility.yul\":17741:17744   */\n      dup3\n        /* \"#utility.yul\":17652:17745   */\n      tag_256\n      jump\t// in\n    tag_454:\n        /* \"#utility.yul\":17770:17772   */\n      0x40\n        /* \"#utility.yul\":17765:17768   */\n      dup3\n        /* \"#utility.yul\":17761:17773   */\n      add\n        /* \"#utility.yul\":17754:17773   */\n      swap1\n      pop\n        /* \"#utility.yul\":17413:17779   */\n      swap2\n      swap1\n      pop\n      jump\t// out\n        /* \"#utility.yul\":17785:18204   */\n    tag_170:\n        /* \"#utility.yul\":17951:17955   */\n      0x00\n        /* \"#utility.yul\":17989:17991   */\n      0x20\n        /* \"#utility.yul\":17978:17987   */\n      dup3\n        /* \"#utility.yul\":17974:17992   */\n      add\n        /* \"#utility.yul\":17966:17992   */\n      swap1\n      pop\n        /* \"#utility.yul\":18038:18047   */\n      dup2\n        /* \"#utility.yul\":18032:18036   */\n      dup2\n        /* \"#utility.yul\":18028:18048   */\n      sub\n        /* \"#utility.yul\":18024:18025   */\n      0x00\n        /* \"#utility.yul\":18013:18022   */\n      dup4\n        /* \"#utility.yul\":18009:18026   */\n      add\n        /* \"#utility.yul\":18002:18049   */\n      mstore\n        /* \"#utility.yul\":18066:18197   */\n      tag_456\n        /* \"#utility.yul\":18192:18196   */\n      dup2\n        /* \"#utility.yul\":18066:18197   */\n      tag_257\n      jump\t// in\n    tag_456:\n        /* \"#utility.yul\":18058:18197   */\n      swap1\n      pop\n        /* \"#utility.yul\":17785:18204   */\n      swap2\n      swap1\n      pop\n      jump\t// out\n        /* \"#utility.yul\":18210:18433   */\n    tag_258:\n        /* \"#utility.yul\":18350:18384   */\n      0x45524332303a20617070726f76652066726f6d20746865207a65726f20616464\n        /* \"#utility.yul\":18346:18347   */\n      0x00\n        /* \"#utility.yul\":18338:18344   */\n      dup3\n        /* \"#utility.yul\":18334:18348   */\n      add\n        /* \"#utility.yul\":18327:18385   */\n      mstore\n        /* \"#utility.yul\":18419:18425   */\n      0x7265737300000000000000000000000000000000000000000000000000000000\n        /* \"#utility.yul\":18414:18416   */\n      0x20\n        /* \"#utility.yul\":18406:18412   */\n      dup3\n        /* \"#utility.yul\":18402:18417   */\n      add\n        /* \"#utility.yul\":18395:18426   */\n      mstore\n        /* \"#utility.yul\":18210:18433   */\n      pop\n      jump\t// out\n        /* \"#utility.yul\":18439:18805   */\n    tag_259:\n        /* \"#utility.yul\":18581:18584   */\n      0x00\n        /* \"#utility.yul\":18602:18669   */\n      tag_459\n        /* \"#utility.yul\":18666:18668   */\n      0x24\n        /* \"#utility.yul\":18661:18664   */\n      dup4\n        /* \"#utility.yul\":18602:18669   */\n      tag_213\n      jump\t// in\n    tag_459:\n        /* \"#utility.yul\":18595:18669   */\n      swap2\n      pop\n        /* \"#utility.yul\":18678:18771   */\n      tag_460\n        /* \"#utility.yul\":18767:18770   */\n      dup3\n        /* \"#utility.yul\":18678:18771   */\n      tag_258\n      jump\t// in\n    tag_460:\n        /* \"#utility.yul\":18796:18798   */\n      0x40\n        /* \"#utility.yul\":18791:18794   */\n      dup3\n        /* \"#utility.yul\":18787:18799   */\n      add\n        /* \"#utility.yul\":18780:18799   */\n      swap1\n      pop\n        /* \"#utility.yul\":18439:18805   */\n      swap2\n      swap1\n      pop\n      jump\t// out\n        /* \"#utility.yul\":18811:19230   */\n    tag_183:\n        /* \"#utility.yul\":18977:18981   */\n      0x00\n        /* \"#utility.yul\":19015:19017   */\n      0x20\n        /* \"#utility.yul\":19004:19013   */\n      dup3\n        /* \"#utility.yul\":19000:19018   */\n      add\n        /* \"#utility.yul\":18992:19018   */\n      swap1\n      pop\n        /* \"#utility.yul\":19064:19073   */\n      dup2\n        /* \"#utility.yul\":19058:19062   */\n      dup2\n        /* \"#utility.yul\":19054:19074   */\n      sub\n        /* \"#utility.yul\":19050:19051   */\n      0x00\n        /* \"#utility.yul\":19039:19048   */\n      dup4\n        /* \"#utility.yul\":19035:19052   */\n      add\n        /* \"#utility.yul\":19028:19075   */\n      mstore\n        /* \"#utility.yul\":19092:19223   */\n      tag_462\n        /* \"#utility.yul\":19218:19222   */\n      dup2\n        /* \"#utility.yul\":19092:19223   */\n      tag_259\n      jump\t// in\n    tag_462:\n        /* \"#utility.yul\":19084:19223   */\n      swap1\n      pop\n        /* \"#utility.yul\":18811:19230   */\n      swap2\n      swap1\n      pop\n      jump\t// out\n        /* \"#utility.yul\":19236:19457   */\n    tag_260:\n        /* \"#utility.yul\":19376:19410   */\n      0x45524332303a20617070726f766520746f20746865207a65726f206164647265\n        /* \"#utility.yul\":19372:19373   */\n      0x00\n        /* \"#utility.yul\":19364:19370   */\n      dup3\n        /* \"#utility.yul\":19360:19374   */\n      add\n        /* \"#utility.yul\":19353:19411   */\n      mstore\n        /* \"#utility.yul\":19445:19449   */\n      0x7373000000000000000000000000000000000000000000000000000000000000\n        /* \"#utility.yul\":19440:19442   */\n      0x20\n        /* \"#utility.yul\":19432:19438   */\n      dup3\n        /* \"#utility.yul\":19428:19443   */\n      add\n        /* \"#utility.yul\":19421:19450   */\n      mstore\n        /* \"#utility.yul\":19236:19457   */\n      pop\n      jump\t// out\n        /* \"#utility.yul\":19463:19829   */\n    tag_261:\n        /* \"#utility.yul\":19605:19608   */\n      0x00\n        /* \"#utility.yul\":19626:19693   */\n      tag_465\n        /* \"#utility.yul\":19690:19692   */\n      0x22\n        /* \"#utility.yul\":19685:19688   */\n      dup4\n        /* \"#utility.yul\":19626:19693   */\n      tag_213\n      jump\t// in\n    tag_465:\n        /* \"#utility.yul\":19619:19693   */\n      swap2\n      pop\n        /* \"#utility.yul\":19702:19795   */\n      tag_466\n        /* \"#utility.yul\":19791:19794   */\n      dup3\n        /* \"#utility.yul\":19702:19795   */\n      tag_260\n      jump\t// in\n    tag_466:\n        /* \"#utility.yul\":19820:19822   */\n      0x40\n        /* \"#utility.yul\":19815:19818   */\n      dup3\n        /* \"#utility.yul\":19811:19823   */\n      add\n        /* \"#utility.yul\":19804:19823   */\n      swap1\n      pop\n        /* \"#utility.yul\":19463:19829   */\n      swap2\n      swap1\n      pop\n      jump\t// out\n        /* \"#utility.yul\":19835:20254   */\n    tag_186:\n        /* \"#utility.yul\":20001:20005   */\n      0x00\n        /* \"#utility.yul\":20039:20041   */\n      0x20\n        /* \"#utility.yul\":20028:20037   */\n      dup3\n        /* \"#utility.yul\":20024:20042   */\n      add\n        /* \"#utility.yul\":20016:20042   */\n      swap1\n      pop\n        /* \"#utility.yul\":20088:20097   */\n      dup2\n        /* \"#utility.yul\":20082:20086   */\n      dup2\n        /* \"#utility.yul\":20078:20098   */\n      sub\n        /* \"#utility.yul\":20074:20075   */\n      0x00\n        /* \"#utility.yul\":20063:20072   */\n      dup4\n        /* \"#utility.yul\":20059:20076   */\n      add\n        /* \"#utility.yul\":20052:20099   */\n      mstore\n        /* \"#utility.yul\":20116:20247   */\n      tag_468\n        /* \"#utility.yul\":20242:20246   */\n      dup2\n        /* \"#utility.yul\":20116:20247   */\n      tag_261\n      jump\t// in\n    tag_468:\n        /* \"#utility.yul\":20108:20247   */\n      swap1\n      pop\n        /* \"#utility.yul\":19835:20254   */\n      swap2\n      swap1\n      pop\n      jump\t// out\n        /* \"#utility.yul\":20260:20439   */\n    tag_262:\n        /* \"#utility.yul\":20400:20431   */\n      0x45524332303a20696e73756666696369656e7420616c6c6f77616e6365000000\n        /* \"#utility.yul\":20396:20397   */\n      0x00\n        /* \"#utility.yul\":20388:20394   */\n      dup3\n        /* \"#utility.yul\":20384:20398   */\n      add\n        /* \"#utility.yul\":20377:20432   */\n      mstore\n        /* \"#utility.yul\":20260:20439   */\n      pop\n      jump\t// out\n        /* \"#utility.yul\":20445:20811   */\n    tag_263:\n        /* \"#utility.yul\":20587:20590   */\n      0x00\n        /* \"#utility.yul\":20608:20675   */\n      tag_471\n        /* \"#utility.yul\":20672:20674   */\n      0x1d\n        /* \"#utility.yul\":20667:20670   */\n      dup4\n        /* \"#utility.yul\":20608:20675   */\n      tag_213\n      jump\t// in\n    tag_471:\n        /* \"#utility.yul\":20601:20675   */\n      swap2\n      pop\n        /* \"#utility.yul\":20684:20777   */\n      tag_472\n        /* \"#utility.yul\":20773:20776   */\n      dup3\n        /* \"#utility.yul\":20684:20777   */\n      tag_262\n      jump\t// in\n    tag_472:\n        /* \"#utility.yul\":20802:20804   */\n      0x20\n        /* \"#utility.yul\":20797:20800   */\n      dup3\n        /* \"#utility.yul\":20793:20805   */\n      add\n        /* \"#utility.yul\":20786:20805   */\n      swap1\n      pop\n        /* \"#utility.yul\":20445:20811   */\n      swap2\n      swap1\n      pop\n      jump\t// out\n        /* \"#utility.yul\":20817:21236   */\n    tag_193:\n        /* \"#utility.yul\":20983:20987   */\n      0x00\n        /* \"#utility.yul\":21021:21023   */\n      0x20\n        /* \"#utility.yul\":21010:21019   */\n      dup3\n        /* \"#utility.yul\":21006:21024   */\n      add\n        /* \"#utility.yul\":20998:21024   */\n      swap1\n      pop\n        /* \"#utility.yul\":21070:21079   */\n      dup2\n        /* \"#utility.yul\":21064:21068   */\n      dup2\n        /* \"#utility.yul\":21060:21080   */\n      sub\n        /* \"#utility.yul\":21056:21057   */\n      0x00\n        /* \"#utility.yul\":21045:21054   */\n      dup4\n        /* \"#utility.yul\":21041:21058   */\n      add\n        /* \"#utility.yul\":21034:21081   */\n      mstore\n        /* \"#utility.yul\":21098:21229   */\n      tag_474\n        /* \"#utility.yul\":21224:21228   */\n      dup2\n        /* \"#utility.yul\":21098:21229   */\n      tag_263\n      jump\t// in\n    tag_474:\n        /* \"#utility.yul\":21090:21229   */\n      swap1\n      pop\n        /* \"#utility.yul\":20817:21236   */\n      swap2\n      swap1\n      pop\n      jump\t// out\n        /* \"#utility.yul\":21242:21466   */\n    tag_264:\n        /* \"#utility.yul\":21382:21416   */\n      0x45524332303a207472616e736665722066726f6d20746865207a65726f206164\n        /* \"#utility.yul\":21378:21379   */\n      0x00\n        /* \"#utility.yul\":21370:21376   */\n      dup3\n        /* \"#utility.yul\":21366:21380   */\n      add\n        /* \"#utility.yul\":21359:21417   */\n      mstore\n        /* \"#utility.yul\":21451:21458   */\n      0x6472657373000000000000000000000000000000000000000000000000000000\n        /* \"#utility.yul\":21446:21448   */\n      0x20\n        /* \"#utility.yul\":21438:21444   */\n      dup3\n        /* \"#utility.yul\":21434:21449   */\n      add\n        /* \"#utility.yul\":21427:21459   */\n      mstore\n        /* \"#utility.yul\":21242:21466   */\n      pop\n      jump\t// out\n        /* \"#utility.yul\":21472:21838   */\n    tag_265:\n        /* \"#utility.yul\":21614:21617   */\n      0x00\n        /* \"#utility.yul\":21635:21702   */\n      tag_477\n        /* \"#utility.yul\":21699:21701   */\n      0x25\n        /* \"#utility.yul\":21694:21697   */\n      dup4\n        /* \"#utility.yul\":21635:21702   */\n      tag_213\n      jump\t// in\n    tag_477:\n        /* \"#utility.yul\":21628:21702   */\n      swap2\n      pop\n        /* \"#utility.yul\":21711:21804   */\n      tag_478\n        /* \"#utility.yul\":21800:21803   */\n      dup3\n        /* \"#utility.yul\":21711:21804   */\n      tag_264\n      jump\t// in\n    tag_478:\n        /* \"#utility.yul\":21829:21831   */\n      0x40\n        /* \"#utility.yul\":21824:21827   */\n      dup3\n        /* \"#utility.yul\":21820:21832   */\n      add\n        /* \"#utility.yul\":21813:21832   */\n      swap1\n      pop\n        /* \"#utility.yul\":21472:21838   */\n      swap2\n      swap1\n      pop\n      jump\t// out\n        /* \"#utility.yul\":21844:22263   */\n    tag_198:\n        /* \"#utility.yul\":22010:22014   */\n      0x00\n        /* \"#utility.yul\":22048:22050   */\n      0x20\n        /* \"#utility.yul\":22037:22046   */\n      dup3\n        /* \"#utility.yul\":22033:22051   */\n      add\n        /* \"#utility.yul\":22025:22051   */\n      swap1\n      pop\n        /* \"#utility.yul\":22097:22106   */\n      dup2\n        /* \"#utility.yul\":22091:22095   */\n      dup2\n        /* \"#utility.yul\":22087:22107   */\n      sub\n        /* \"#utility.yul\":22083:22084   */\n      0x00\n        /* \"#utility.yul\":22072:22081   */\n      dup4\n        /* \"#utility.yul\":22068:22085   */\n      add\n        /* \"#utility.yul\":22061:22108   */\n      mstore\n        /* \"#utility.yul\":22125:22256   */\n      tag_480\n        /* \"#utility.yul\":22251:22255   */\n      dup2\n        /* \"#utility.yul\":22125:22256   */\n      tag_265\n      jump\t// in\n    tag_480:\n        /* \"#utility.yul\":22117:22256   */\n      swap1\n      pop\n        /* \"#utility.yul\":21844:22263   */\n      swap2\n      swap1\n      pop\n      jump\t// out\n        /* \"#utility.yul\":22269:22491   */\n    tag_266:\n        /* \"#utility.yul\":22409:22443   */\n      0x45524332303a207472616e7366657220746f20746865207a65726f2061646472\n        /* \"#utility.yul\":22405:22406   */\n      0x00\n        /* \"#utility.yul\":22397:22403   */\n      dup3\n        /* \"#utility.yul\":22393:22407   */\n      add\n        /* \"#utility.yul\":22386:22444   */\n      mstore\n        /* \"#utility.yul\":22478:22483   */\n      0x6573730000000000000000000000000000000000000000000000000000000000\n        /* \"#utility.yul\":22473:22475   */\n      0x20\n        /* \"#utility.yul\":22465:22471   */\n      dup3\n        /* \"#utility.yul\":22461:22476   */\n      add\n        /* \"#utility.yul\":22454:22484   */\n      mstore\n        /* \"#utility.yul\":22269:22491   */\n      pop\n      jump\t// out\n        /* \"#utility.yul\":22497:22863   */\n    tag_267:\n        /* \"#utility.yul\":22639:22642   */\n      0x00\n        /* \"#utility.yul\":22660:22727   */\n      tag_483\n        /* \"#utility.yul\":22724:22726   */\n      0x23\n        /* \"#utility.yul\":22719:22722   */\n      dup4\n        /* \"#utility.yul\":22660:22727   */\n      tag_213\n      jump\t// in\n    tag_483:\n        /* \"#utility.yul\":22653:22727   */\n      swap2\n      pop\n        /* \"#utility.yul\":22736:22829   */\n      tag_484\n        /* \"#utility.yul\":22825:22828   */\n      dup3\n        /* \"#utility.yul\":22736:22829   */\n      tag_266\n      jump\t// in\n    tag_484:\n        /* \"#utility.yul\":22854:22856   */\n      0x40\n        /* \"#utility.yul\":22849:22852   */\n      dup3\n        /* \"#utility.yul\":22845:22857   */\n      add\n        /* \"#utility.yul\":22838:22857   */\n      swap1\n      pop\n        /* \"#utility.yul\":22497:22863   */\n      swap2\n      swap1\n      pop\n      jump\t// out\n        /* \"#utility.yul\":22869:23288   */\n    tag_201:\n        /* \"#utility.yul\":23035:23039   */\n      0x00\n        /* \"#utility.yul\":23073:23075   */\n      0x20\n        /* \"#utility.yul\":23062:23071   */\n      dup3\n        /* \"#utility.yul\":23058:23076   */\n      add\n        /* \"#utility.yul\":23050:23076   */\n      swap1\n      pop\n        /* \"#utility.yul\":23122:23131   */\n      dup2\n        /* \"#utility.yul\":23116:23120   */\n      dup2\n        /* \"#utility.yul\":23112:23132   */\n      sub\n        /* \"#utility.yul\":23108:23109   */\n      0x00\n        /* \"#utility.yul\":23097:23106   */\n      dup4\n        /* \"#utility.yul\":23093:23110   */\n      add\n        /* \"#utility.yul\":23086:23133   */\n      mstore\n        /* \"#utility.yul\":23150:23281   */\n      tag_486\n        /* \"#utility.yul\":23276:23280   */\n      dup2\n        /* \"#utility.yul\":23150:23281   */\n      tag_267\n      jump\t// in\n    tag_486:\n        /* \"#utility.yul\":23142:23281   */\n      swap1\n      pop\n        /* \"#utility.yul\":22869:23288   */\n      swap2\n      swap1\n      pop\n      jump\t// out\n        /* \"#utility.yul\":23294:23519   */\n    tag_268:\n        /* \"#utility.yul\":23434:23468   */\n      0x45524332303a207472616e7366657220616d6f756e7420657863656564732062\n        /* \"#utility.yul\":23430:23431   */\n      0x00\n        /* \"#utility.yul\":23422:23428   */\n      dup3\n        /* \"#utility.yul\":23418:23432   */\n      add\n        /* \"#utility.yul\":23411:23469   */\n      mstore\n        /* \"#utility.yul\":23503:23511   */\n      0x616c616e63650000000000000000000000000000000000000000000000000000\n        /* \"#utility.yul\":23498:23500   */\n      0x20\n        /* \"#utility.yul\":23490:23496   */\n      dup3\n        /* \"#utility.yul\":23486:23501   */\n      add\n        /* \"#utility.yul\":23479:23512   */\n      mstore\n        /* \"#utility.yul\":23294:23519   */\n      pop\n      jump\t// out\n        /* \"#utility.yul\":23525:23891   */\n    tag_269:\n        /* \"#utility.yul\":23667:23670   */\n      0x00\n        /* \"#utility.yul\":23688:23755   */\n      tag_489\n        /* \"#utility.yul\":23752:23754   */\n      0x26\n        /* \"#utility.yul\":23747:23750   */\n      dup4\n        /* \"#utility.yul\":23688:23755   */\n      tag_213\n      jump\t// in\n    tag_489:\n        /* \"#utility.yul\":23681:23755   */\n      swap2\n      pop\n        /* \"#utility.yul\":23764:23857   */\n      tag_490\n        /* \"#utility.yul\":23853:23856   */\n      dup3\n        /* \"#utility.yul\":23764:23857   */\n      tag_268\n      jump\t// in\n    tag_490:\n        /* \"#utility.yul\":23882:23884   */\n      0x40\n        /* \"#utility.yul\":23877:23880   */\n      dup3\n        /* \"#utility.yul\":23873:23885   */\n      add\n        /* \"#utility.yul\":23866:23885   */\n      swap1\n      pop\n        /* \"#utility.yul\":23525:23891   */\n      swap2\n      swap1\n      pop\n      jump\t// out\n        /* \"#utility.yul\":23897:24316   */\n    tag_206:\n        /* \"#utility.yul\":24063:24067   */\n      0x00\n        /* \"#utility.yul\":24101:24103   */\n      0x20\n        /* \"#utility.yul\":24090:24099   */\n      dup3\n        /* \"#utility.yul\":24086:24104   */\n      add\n        /* \"#utility.yul\":24078:24104   */\n      swap1\n      pop\n        /* \"#utility.yul\":24150:24159   */\n      dup2\n        /* \"#utility.yul\":24144:24148   */\n      dup2\n        /* \"#utility.yul\":24140:24160   */\n      sub\n        /* \"#utility.yul\":24136:24137   */\n      0x00\n        /* \"#utility.yul\":24125:24134   */\n      dup4\n        /* \"#utility.yul\":24121:24138   */\n      add\n        /* \"#utility.yul\":24114:24161   */\n      mstore\n        /* \"#utility.yul\":24178:24309   */\n      tag_492\n        /* \"#utility.yul\":24304:24308   */\n      dup2\n        /* \"#utility.yul\":24178:24309   */\n      tag_269\n      jump\t// in\n    tag_492:\n        /* \"#utility.yul\":24170:24309   */\n      swap1\n      pop\n        /* \"#utility.yul\":23897:24316   */\n      swap2\n      swap1\n      pop\n      jump\t// out\n\n    auxdata: 0xa2646970667358221220bd0f741c8a44f00d32a8ca8d9d450153678f41eabcae56cc73bd30d6a4b9789964736f6c63430008120033\n}\n",
				"bytecode": {
					"linkReferences": {},
					"object": "60806040523480156200001157600080fd5b506040518060400160405280600281526020017f43540000000000000000000000000000000000000000000000000000000000008152506040518060400160405280600281526020017f435400000000000000000000000000000000000000000000000000000000000081525081600390816200008f9190620004eb565b508060049081620000a19190620004eb565b505050620000e333620000b9620000f160201b60201c565b600a620000c7919062000762565b620f4240620000d79190620007b3565b620000fa60201b60201c565b6001600681905550620008ea565b60006012905090565b600073ffffffffffffffffffffffffffffffffffffffff168273ffffffffffffffffffffffffffffffffffffffff16036200016c576040517f08c379a000000000000000000000000000000000000000000000000000000000815260040162000163906200085f565b60405180910390fd5b62000180600083836200026760201b60201c565b806002600082825462000194919062000881565b92505081905550806000808473ffffffffffffffffffffffffffffffffffffffff1673ffffffffffffffffffffffffffffffffffffffff168152602001908152602001600020600082825401925050819055508173ffffffffffffffffffffffffffffffffffffffff16600073ffffffffffffffffffffffffffffffffffffffff167fddf252ad1be2c89b69c2b068fc378daa952ba7f163c4a11628f55a4df523b3ef83604051620002479190620008cd565b60405180910390a362000263600083836200026c60201b60201c565b5050565b505050565b505050565b600081519050919050565b7f4e487b7100000000000000000000000000000000000000000000000000000000600052604160045260246000fd5b7f4e487b7100000000000000000000000000000000000000000000000000000000600052602260045260246000fd5b60006002820490506001821680620002f357607f821691505b602082108103620003095762000308620002ab565b5b50919050565b60008190508160005260206000209050919050565b60006020601f8301049050919050565b600082821b905092915050565b600060088302620003737fffffffffffffffffffffffffffffffffffffffffffffffffffffffffffffffff8262000334565b6200037f868362000334565b95508019841693508086168417925050509392505050565b6000819050919050565b6000819050919050565b6000620003cc620003c6620003c08462000397565b620003a1565b62000397565b9050919050565b6000819050919050565b620003e883620003ab565b62000400620003f782620003d3565b84845462000341565b825550505050565b600090565b6200041762000408565b62000424818484620003dd565b505050565b5b818110156200044c57620004406000826200040d565b6001810190506200042a565b5050565b601f8211156200049b5762000465816200030f565b620004708462000324565b8101602085101562000480578190505b620004986200048f8562000324565b83018262000429565b50505b505050565b600082821c905092915050565b6000620004c060001984600802620004a0565b1980831691505092915050565b6000620004db8383620004ad565b9150826002028217905092915050565b620004f68262000271565b67ffffffffffffffff8111156200051257620005116200027c565b5b6200051e8254620002da565b6200052b82828562000450565b600060209050601f8311600181146200056357600084156200054e578287015190505b6200055a8582620004cd565b865550620005ca565b601f19841662000573866200030f565b60005b828110156200059d5784890151825560018201915060208501945060208101905062000576565b86831015620005bd5784890151620005b9601f891682620004ad565b8355505b6001600288020188555050505b505050505050565b7f4e487b7100000000000000000000000000000000000000000000000000000000600052601160045260246000fd5b60008160011c9050919050565b6000808291508390505b60018511156200066057808604811115620006385762000637620005d2565b5b6001851615620006485780820291505b8081029050620006588562000601565b945062000618565b94509492505050565b6000826200067b57600190506200074e565b816200068b57600090506200074e565b8160018114620006a45760028114620006af57620006e5565b60019150506200074e565b60ff841115620006c457620006c3620005d2565b5b8360020a915084821115620006de57620006dd620005d2565b5b506200074e565b5060208310610133831016604e8410600b84101617156200071f5782820a905083811115620007195762000718620005d2565b5b6200074e565b6200072e84848460016200060e565b92509050818404811115620007485762000747620005d2565b5b81810290505b9392505050565b600060ff82169050919050565b60006200076f8262000397565b91506200077c8362000755565b9250620007ab7fffffffffffffffffffffffffffffffffffffffffffffffffffffffffffffffff848462000669565b905092915050565b6000620007c08262000397565b9150620007cd8362000397565b9250828202620007dd8162000397565b91508282048414831517620007f757620007f6620005d2565b5b5092915050565b600082825260208201905092915050565b7f45524332303a206d696e7420746f20746865207a65726f206164647265737300600082015250565b600062000847601f83620007fe565b915062000854826200080f565b602082019050919050565b600060208201905081810360008301526200087a8162000838565b9050919050565b60006200088e8262000397565b91506200089b8362000397565b9250828201905080821115620008b657620008b5620005d2565b5b92915050565b620008c78162000397565b82525050565b6000602082019050620008e46000830184620008bc565b92915050565b611e1a80620008fa6000396000f3fe608060405234801561001057600080fd5b506004361061010b5760003560e01c806370a08231116100a2578063a9059cbb11610071578063a9059cbb146102ba578063b0ef2f68146102ea578063dd62ed3e1461031a578063eb46260e1461034a578063ed6387b71461037a5761010b565b806370a0823114610220578063865cf7881461025057806395d89b411461026c578063a457c2d71461028a5761010b565b806323b872dd116100de57806323b872dd14610186578063313ce567146101b657806339509351146101d45780634bd09c2a146102045761010b565b806306fdde0314610110578063095ea7b31461012e578063146bea7b1461015e57806318160ddd14610168575b600080fd5b6101186103aa565b604051610125919061111d565b60405180910390f35b610148600480360381019061014391906111e7565b61043c565b6040516101559190611242565b60405180910390f35b61016661045f565b005b610170610479565b60405161017d919061126c565b60405180910390f35b6101a0600480360381019061019b9190611287565b610483565b6040516101ad9190611242565b60405180910390f35b6101be6104b2565b6040516101cb91906112f6565b60405180910390f35b6101ee60048036038101906101e991906111e7565b6104bb565b6040516101fb9190611242565b60405180910390f35b61021e6004803603810190610219919061151c565b6104f2565b005b61023a60048036038101906102359190611594565b6107ae565b604051610247919061126c565b60405180910390f35b61026a600480360381019061026591906116b0565b6107f6565b005b6102746108f2565b604051610281919061111d565b60405180910390f35b6102a4600480360381019061029f91906111e7565b610984565b6040516102b19190611242565b60405180910390f35b6102d460048036038101906102cf91906111e7565b6109fb565b6040516102e19190611242565b60405180910390f35b61030460048036038101906102ff9190611594565b610a1e565b6040516103119190611242565b60405180910390f35b610334600480360381019061032f9190611728565b610a77565b604051610341919061126c565b60405180910390f35b610364600480360381019061035f9190611594565b610afe565b6040516103719190611242565b60405180910390f35b610394600480360381019061038f9190611594565b610b57565b6040516103a19190611242565b60405180910390f35b6060600380546103b990611797565b80601f01602080910402602001604051908101604052809291908181526020018280546103e590611797565b80156104325780601f1061040757610100808354040283529160200191610432565b820191906000526020600020905b81548152906001019060200180831161041557829003601f168201915b5050505050905090565b600080610447610bb0565b9050610454818585610bb8565b600191505092915050565b60066000815480929190610472906117f7565b9190505550565b6000600254905090565b60008061048e610bb0565b905061049b858285610d81565b6104a6858585610e0d565b60019150509392505050565b60006012905090565b6000806104c6610bb0565b90506104e78185856104d88589610a77565b6104e2919061183f565b610bb8565b600191505092915050565b8051825114610536576040517f08c379a000000000000000000000000000000000000000000000000000000000815260040161052d906118bf565b60405180910390fd5b60005b82518110156107a9576000828281518110610557576105566118df565b5b60200260200101511161059f576040517f08c379a00000000000000000000000000000000000000000000000000000000081526004016105969061195a565b60405180910390fd5b60008382815181106105b4576105b36118df565b5b6020026020010151905060008383815181106105d3576105d26118df565b5b60200260200101519050600560008373ffffffffffffffffffffffffffffffffffffffff1673ffffffffffffffffffffffffffffffffffffffff16815260200190815260200160002060000160019054906101000a900460ff161561066d576040517f08c379a0000000000000000000000000000000000000000000000000000000008152600401610664906119ec565b60405180910390fd5b600560008373ffffffffffffffffffffffffffffffffffffffff1673ffffffffffffffffffffffffffffffffffffffff16815260200190815260200160002060000160009054906101000a900460ff16156106d2576106cd338383610e0d565b6106de565b6106dd338383610e0d565b5b6001600560008473ffffffffffffffffffffffffffffffffffffffff1673ffffffffffffffffffffffffffffffffffffffff16815260200190815260200160002060000160016101000a81548160ff0219169083151502179055506001600560008473ffffffffffffffffffffffffffffffffffffffff1673ffffffffffffffffffffffffffffffffffffffff16815260200190815260200160002060000160026101000a81548160ff021916908315150217905550505080806107a1906117f7565b915050610539565b505050565b60008060008373ffffffffffffffffffffffffffffffffffffffff1673ffffffffffffffffffffffffffffffffffffffff168152602001908152602001600020549050919050565b805182511461083a576040517f08c379a0000000000000000000000000000000000000000000000000000000008152600401610831906118bf565b60405180910390fd5b60005b82518110156108ed57600083828151811061085b5761085a6118df565b5b60200260200101519050828281518110610878576108776118df565b5b6020026020010151600560008373ffffffffffffffffffffffffffffffffffffffff1673ffffffffffffffffffffffffffffffffffffffff16815260200190815260200160002060000160006101000a81548160ff0219169083151502179055505080806108e5906117f7565b91505061083d565b505050565b60606004805461090190611797565b80601f016020809104026020016040519081016040528092919081815260200182805461092d90611797565b801561097a5780601f1061094f5761010080835404028352916020019161097a565b820191906000526020600020905b81548152906001019060200180831161095d57829003601f168201915b5050505050905090565b60008061098f610bb0565b9050600061099d8286610a77565b9050838110156109e2576040517f08c379a00000000000000000000000000000000000000000000000000000000081526004016109d990611a7e565b60405180910390fd5b6109ef8286868403610bb8565b60019250505092915050565b600080610a06610bb0565b9050610a13818585610e0d565b600191505092915050565b6000600560008373ffffffffffffffffffffffffffffffffffffffff1673ffffffffffffffffffffffffffffffffffffffff16815260200190815260200160002060000160019054906101000a900460ff169050919050565b6000600160008473ffffffffffffffffffffffffffffffffffffffff1673ffffffffffffffffffffffffffffffffffffffff16815260200190815260200160002060008373ffffffffffffffffffffffffffffffffffffffff1673ffffffffffffffffffffffffffffffffffffffff16815260200190815260200160002054905092915050565b6000600560008373ffffffffffffffffffffffffffffffffffffffff1673ffffffffffffffffffffffffffffffffffffffff16815260200190815260200160002060000160029054906101000a900460ff169050919050565b6000600560008373ffffffffffffffffffffffffffffffffffffffff1673ffffffffffffffffffffffffffffffffffffffff16815260200190815260200160002060000160009054906101000a900460ff169050919050565b600033905090565b600073ffffffffffffffffffffffffffffffffffffffff168373ffffffffffffffffffffffffffffffffffffffff1603610c27576040517f08c379a0000000000000000000000000000000000000000000000000000000008152600401610c1e90611b10565b60405180910390fd5b600073ffffffffffffffffffffffffffffffffffffffff168273ffffffffffffffffffffffffffffffffffffffff1603610c96576040517f08c379a0000000000000000000000000000000000000000000000000000000008152600401610c8d90611ba2565b60405180910390fd5b80600160008573ffffffffffffffffffffffffffffffffffffffff1673ffffffffffffffffffffffffffffffffffffffff16815260200190815260200160002060008473ffffffffffffffffffffffffffffffffffffffff1673ffffffffffffffffffffffffffffffffffffffff168152602001908152602001600020819055508173ffffffffffffffffffffffffffffffffffffffff168373ffffffffffffffffffffffffffffffffffffffff167f8c5be1e5ebec7d5bd14f71427d1e84f3dd0314c0f7b2291e5b200ac8c7c3b92583604051610d74919061126c565b60405180910390a3505050565b6000610d8d8484610a77565b90507fffffffffffffffffffffffffffffffffffffffffffffffffffffffffffffffff8114610e075781811015610df9576040517f08c379a0000000000000000000000000000000000000000000000000000000008152600401610df090611c0e565b60405180910390fd5b610e068484848403610bb8565b5b50505050565b600073ffffffffffffffffffffffffffffffffffffffff168373ffffffffffffffffffffffffffffffffffffffff1603610e7c576040517f08c379a0000000000000000000000000000000000000000000000000000000008152600401610e7390611ca0565b60405180910390fd5b600073ffffffffffffffffffffffffffffffffffffffff168273ffffffffffffffffffffffffffffffffffffffff1603610eeb576040517f08c379a0000000000000000000000000000000000000000000000000000000008152600401610ee290611d32565b60405180910390fd5b610ef6838383611083565b60008060008573ffffffffffffffffffffffffffffffffffffffff1673ffffffffffffffffffffffffffffffffffffffff16815260200190815260200160002054905081811015610f7c576040517f08c379a0000000000000000000000000000000000000000000000000000000008152600401610f7390611dc4565b60405180910390fd5b8181036000808673ffffffffffffffffffffffffffffffffffffffff1673ffffffffffffffffffffffffffffffffffffffff16815260200190815260200160002081905550816000808573ffffffffffffffffffffffffffffffffffffffff1673ffffffffffffffffffffffffffffffffffffffff168152602001908152602001600020600082825401925050819055508273ffffffffffffffffffffffffffffffffffffffff168473ffffffffffffffffffffffffffffffffffffffff167fddf252ad1be2c89b69c2b068fc378daa952ba7f163c4a11628f55a4df523b3ef8460405161106a919061126c565b60405180910390a361107d848484611088565b50505050565b505050565b505050565b600081519050919050565b600082825260208201905092915050565b60005b838110156110c75780820151818401526020810190506110ac565b60008484015250505050565b6000601f19601f8301169050919050565b60006110ef8261108d565b6110f98185611098565b93506111098185602086016110a9565b611112816110d3565b840191505092915050565b6000602082019050818103600083015261113781846110e4565b905092915050565b6000604051905090565b600080fd5b600080fd5b600073ffffffffffffffffffffffffffffffffffffffff82169050919050565b600061117e82611153565b9050919050565b61118e81611173565b811461119957600080fd5b50565b6000813590506111ab81611185565b92915050565b6000819050919050565b6111c4816111b1565b81146111cf57600080fd5b50565b6000813590506111e1816111bb565b92915050565b600080604083850312156111fe576111fd611149565b5b600061120c8582860161119c565b925050602061121d858286016111d2565b9150509250929050565b60008115159050919050565b61123c81611227565b82525050565b60006020820190506112576000830184611233565b92915050565b611266816111b1565b82525050565b6000602082019050611281600083018461125d565b92915050565b6000806000606084860312156112a05761129f611149565b5b60006112ae8682870161119c565b93505060206112bf8682870161119c565b92505060406112d0868287016111d2565b9150509250925092565b600060ff82169050919050565b6112f0816112da565b82525050565b600060208201905061130b60008301846112e7565b92915050565b600080fd5b7f4e487b7100000000000000000000000000000000000000000000000000000000600052604160045260246000fd5b61134e826110d3565b810181811067ffffffffffffffff8211171561136d5761136c611316565b5b80604052505050565b600061138061113f565b905061138c8282611345565b919050565b600067ffffffffffffffff8211156113ac576113ab611316565b5b602082029050602081019050919050565b600080fd5b60006113d56113d084611391565b611376565b905080838252602082019050602084028301858111156113f8576113f76113bd565b5b835b81811015611421578061140d888261119c565b8452602084019350506020810190506113fa565b5050509392505050565b600082601f8301126114405761143f611311565b5b81356114508482602086016113c2565b91505092915050565b600067ffffffffffffffff82111561147457611473611316565b5b602082029050602081019050919050565b600061149861149384611459565b611376565b905080838252602082019050602084028301858111156114bb576114ba6113bd565b5b835b818110156114e457806114d088826111d2565b8452602084019350506020810190506114bd565b5050509392505050565b600082601f83011261150357611502611311565b5b8135611513848260208601611485565b91505092915050565b6000806040838503121561153357611532611149565b5b600083013567ffffffffffffffff8111156115515761155061114e565b5b61155d8582860161142b565b925050602083013567ffffffffffffffff81111561157e5761157d61114e565b5b61158a858286016114ee565b9150509250929050565b6000602082840312156115aa576115a9611149565b5b60006115b88482850161119c565b91505092915050565b600067ffffffffffffffff8211156115dc576115db611316565b5b602082029050602081019050919050565b6115f681611227565b811461160157600080fd5b50565b600081359050611613816115ed565b92915050565b600061162c611627846115c1565b611376565b9050808382526020820190506020840283018581111561164f5761164e6113bd565b5b835b8181101561167857806116648882611604565b845260208401935050602081019050611651565b5050509392505050565b600082601f83011261169757611696611311565b5b81356116a7848260208601611619565b91505092915050565b600080604083850312156116c7576116c6611149565b5b600083013567ffffffffffffffff8111156116e5576116e461114e565b5b6116f18582860161142b565b925050602083013567ffffffffffffffff8111156117125761171161114e565b5b61171e85828601611682565b9150509250929050565b6000806040838503121561173f5761173e611149565b5b600061174d8582860161119c565b925050602061175e8582860161119c565b9150509250929050565b7f4e487b7100000000000000000000000000000000000000000000000000000000600052602260045260246000fd5b600060028204905060018216806117af57607f821691505b6020821081036117c2576117c1611768565b5b50919050565b7f4e487b7100000000000000000000000000000000000000000000000000000000600052601160045260246000fd5b6000611802826111b1565b91507fffffffffffffffffffffffffffffffffffffffffffffffffffffffffffffffff8203611834576118336117c8565b5b600182019050919050565b600061184a826111b1565b9150611855836111b1565b925082820190508082111561186d5761186c6117c8565b5b92915050565b7f496e76616c696420696e70757400000000000000000000000000000000000000600082015250565b60006118a9600d83611098565b91506118b482611873565b602082019050919050565b600060208201905081810360008301526118d88161189c565b9050919050565b7f4e487b7100000000000000000000000000000000000000000000000000000000600052603260045260246000fd5b7f416d6f756e74206d7573742062652067726561746572207468616e207a65726f600082015250565b6000611944602083611098565b915061194f8261190e565b602082019050919050565b6000602082019050818103600083015261197381611937565b9050919050565b7f546f6b656e7320616c726561647920646973747269627574656420666f72207460008201527f6869732079656172000000000000000000000000000000000000000000000000602082015250565b60006119d6602883611098565b91506119e18261197a565b604082019050919050565b60006020820190508181036000830152611a05816119c9565b9050919050565b7f45524332303a2064656372656173656420616c6c6f77616e63652062656c6f7760008201527f207a65726f000000000000000000000000000000000000000000000000000000602082015250565b6000611a68602583611098565b9150611a7382611a0c565b604082019050919050565b60006020820190508181036000830152611a9781611a5b565b9050919050565b7f45524332303a20617070726f76652066726f6d20746865207a65726f2061646460008201527f7265737300000000000000000000000000000000000000000000000000000000602082015250565b6000611afa602483611098565b9150611b0582611a9e565b604082019050919050565b60006020820190508181036000830152611b2981611aed565b9050919050565b7f45524332303a20617070726f766520746f20746865207a65726f20616464726560008201527f7373000000000000000000000000000000000000000000000000000000000000602082015250565b6000611b8c602283611098565b9150611b9782611b30565b604082019050919050565b60006020820190508181036000830152611bbb81611b7f565b9050919050565b7f45524332303a20696e73756666696369656e7420616c6c6f77616e6365000000600082015250565b6000611bf8601d83611098565b9150611c0382611bc2565b602082019050919050565b60006020820190508181036000830152611c2781611beb565b9050919050565b7f45524332303a207472616e736665722066726f6d20746865207a65726f20616460008201527f6472657373000000000000000000000000000000000000000000000000000000602082015250565b6000611c8a602583611098565b9150611c9582611c2e565b604082019050919050565b60006020820190508181036000830152611cb981611c7d565b9050919050565b7f45524332303a207472616e7366657220746f20746865207a65726f206164647260008201527f6573730000000000000000000000000000000000000000000000000000000000602082015250565b6000611d1c602383611098565b9150611d2782611cc0565b604082019050919050565b60006020820190508181036000830152611d4b81611d0f565b9050919050565b7f45524332303a207472616e7366657220616d6f756e742065786365656473206260008201527f616c616e63650000000000000000000000000000000000000000000000000000602082015250565b6000611dae602683611098565b9150611db982611d52565b604082019050919050565b60006020820190508181036000830152611ddd81611da1565b905091905056fea2646970667358221220bd0f741c8a44f00d32a8ca8d9d450153678f41eabcae56cc73bd30d6a4b9789964736f6c63430008120033",
					"opcodes": "PUSH1 0x80 PUSH1 0x40 MSTORE CALLVALUE DUP1 ISZERO PUSH3 0x11 JUMPI PUSH1 0x0 DUP1 REVERT JUMPDEST POP PUSH1 0x40 MLOAD DUP1 PUSH1 0x40 ADD PUSH1 0x40 MSTORE DUP1 PUSH1 0x2 DUP2 MSTORE PUSH1 0x20 ADD PUSH32 0x4354000000000000000000000000000000000000000000000000000000000000 DUP2 MSTORE POP PUSH1 0x40 MLOAD DUP1 PUSH1 0x40 ADD PUSH1 0x40 MSTORE DUP1 PUSH1 0x2 DUP2 MSTORE PUSH1 0x20 ADD PUSH32 0x4354000000000000000000000000000000000000000000000000000000000000 DUP2 MSTORE POP DUP2 PUSH1 0x3 SWAP1 DUP2 PUSH3 0x8F SWAP2 SWAP1 PUSH3 0x4EB JUMP JUMPDEST POP DUP1 PUSH1 0x4 SWAP1 DUP2 PUSH3 0xA1 SWAP2 SWAP1 PUSH3 0x4EB JUMP JUMPDEST POP POP POP PUSH3 0xE3 CALLER PUSH3 0xB9 PUSH3 0xF1 PUSH1 0x20 SHL PUSH1 0x20 SHR JUMP JUMPDEST PUSH1 0xA PUSH3 0xC7 SWAP2 SWAP1 PUSH3 0x762 JUMP JUMPDEST PUSH3 0xF4240 PUSH3 0xD7 SWAP2 SWAP1 PUSH3 0x7B3 JUMP JUMPDEST PUSH3 0xFA PUSH1 0x20 SHL PUSH1 0x20 SHR JUMP JUMPDEST PUSH1 0x1 PUSH1 0x6 DUP2 SWAP1 SSTORE POP PUSH3 0x8EA JUMP JUMPDEST PUSH1 0x0 PUSH1 0x12 SWAP1 POP SWAP1 JUMP JUMPDEST PUSH1 0x0 PUSH20 0xFFFFFFFFFFFFFFFFFFFFFFFFFFFFFFFFFFFFFFFF AND DUP3 PUSH20 0xFFFFFFFFFFFFFFFFFFFFFFFFFFFFFFFFFFFFFFFF AND SUB PUSH3 0x16C JUMPI PUSH1 0x40 MLOAD PUSH32 0x8C379A000000000000000000000000000000000000000000000000000000000 DUP2 MSTORE PUSH1 0x4 ADD PUSH3 0x163 SWAP1 PUSH3 0x85F JUMP JUMPDEST PUSH1 0x40 MLOAD DUP1 SWAP2 SUB SWAP1 REVERT JUMPDEST PUSH3 0x180 PUSH1 0x0 DUP4 DUP4 PUSH3 0x267 PUSH1 0x20 SHL PUSH1 0x20 SHR JUMP JUMPDEST DUP1 PUSH1 0x2 PUSH1 0x0 DUP3 DUP3 SLOAD PUSH3 0x194 SWAP2 SWAP1 PUSH3 0x881 JUMP JUMPDEST SWAP3 POP POP DUP2 SWAP1 SSTORE POP DUP1 PUSH1 0x0 DUP1 DUP5 PUSH20 0xFFFFFFFFFFFFFFFFFFFFFFFFFFFFFFFFFFFFFFFF AND PUSH20 0xFFFFFFFFFFFFFFFFFFFFFFFFFFFFFFFFFFFFFFFF AND DUP2 MSTORE PUSH1 0x20 ADD SWAP1 DUP2 MSTORE PUSH1 0x20 ADD PUSH1 0x0 KECCAK256 PUSH1 0x0 DUP3 DUP3 SLOAD ADD SWAP3 POP POP DUP2 SWAP1 SSTORE POP DUP2 PUSH20 0xFFFFFFFFFFFFFFFFFFFFFFFFFFFFFFFFFFFFFFFF AND PUSH1 0x0 PUSH20 0xFFFFFFFFFFFFFFFFFFFFFFFFFFFFFFFFFFFFFFFF AND PUSH32 0xDDF252AD1BE2C89B69C2B068FC378DAA952BA7F163C4A11628F55A4DF523B3EF DUP4 PUSH1 0x40 MLOAD PUSH3 0x247 SWAP2 SWAP1 PUSH3 0x8CD JUMP JUMPDEST PUSH1 0x40 MLOAD DUP1 SWAP2 SUB SWAP1 LOG3 PUSH3 0x263 PUSH1 0x0 DUP4 DUP4 PUSH3 0x26C PUSH1 0x20 SHL PUSH1 0x20 SHR JUMP JUMPDEST POP POP JUMP JUMPDEST POP POP POP JUMP JUMPDEST POP POP POP JUMP JUMPDEST PUSH1 0x0 DUP2 MLOAD SWAP1 POP SWAP2 SWAP1 POP JUMP JUMPDEST PUSH32 0x4E487B7100000000000000000000000000000000000000000000000000000000 PUSH1 0x0 MSTORE PUSH1 0x41 PUSH1 0x4 MSTORE PUSH1 0x24 PUSH1 0x0 REVERT JUMPDEST PUSH32 0x4E487B7100000000000000000000000000000000000000000000000000000000 PUSH1 0x0 MSTORE PUSH1 0x22 PUSH1 0x4 MSTORE PUSH1 0x24 PUSH1 0x0 REVERT JUMPDEST PUSH1 0x0 PUSH1 0x2 DUP3 DIV SWAP1 POP PUSH1 0x1 DUP3 AND DUP1 PUSH3 0x2F3 JUMPI PUSH1 0x7F DUP3 AND SWAP2 POP JUMPDEST PUSH1 0x20 DUP3 LT DUP2 SUB PUSH3 0x309 JUMPI PUSH3 0x308 PUSH3 0x2AB JUMP JUMPDEST JUMPDEST POP SWAP2 SWAP1 POP JUMP JUMPDEST PUSH1 0x0 DUP2 SWAP1 POP DUP2 PUSH1 0x0 MSTORE PUSH1 0x20 PUSH1 0x0 KECCAK256 SWAP1 POP SWAP2 SWAP1 POP JUMP JUMPDEST PUSH1 0x0 PUSH1 0x20 PUSH1 0x1F DUP4 ADD DIV SWAP1 POP SWAP2 SWAP1 POP JUMP JUMPDEST PUSH1 0x0 DUP3 DUP3 SHL SWAP1 POP SWAP3 SWAP2 POP POP JUMP JUMPDEST PUSH1 0x0 PUSH1 0x8 DUP4 MUL PUSH3 0x373 PUSH32 0xFFFFFFFFFFFFFFFFFFFFFFFFFFFFFFFFFFFFFFFFFFFFFFFFFFFFFFFFFFFFFFFF DUP3 PUSH3 0x334 JUMP JUMPDEST PUSH3 0x37F DUP7 DUP4 PUSH3 0x334 JUMP JUMPDEST SWAP6 POP DUP1 NOT DUP5 AND SWAP4 POP DUP1 DUP7 AND DUP5 OR SWAP3 POP POP POP SWAP4 SWAP3 POP POP POP JUMP JUMPDEST PUSH1 0x0 DUP2 SWAP1 POP SWAP2 SWAP1 POP JUMP JUMPDEST PUSH1 0x0 DUP2 SWAP1 POP SWAP2 SWAP1 POP JUMP JUMPDEST PUSH1 0x0 PUSH3 0x3CC PUSH3 0x3C6 PUSH3 0x3C0 DUP5 PUSH3 0x397 JUMP JUMPDEST PUSH3 0x3A1 JUMP JUMPDEST PUSH3 0x397 JUMP JUMPDEST SWAP1 POP SWAP2 SWAP1 POP JUMP JUMPDEST PUSH1 0x0 DUP2 SWAP1 POP SWAP2 SWAP1 POP JUMP JUMPDEST PUSH3 0x3E8 DUP4 PUSH3 0x3AB JUMP JUMPDEST PUSH3 0x400 PUSH3 0x3F7 DUP3 PUSH3 0x3D3 JUMP JUMPDEST DUP5 DUP5 SLOAD PUSH3 0x341 JUMP JUMPDEST DUP3 SSTORE POP POP POP POP JUMP JUMPDEST PUSH1 0x0 SWAP1 JUMP JUMPDEST PUSH3 0x417 PUSH3 0x408 JUMP JUMPDEST PUSH3 0x424 DUP2 DUP5 DUP5 PUSH3 0x3DD JUMP JUMPDEST POP POP POP JUMP JUMPDEST JUMPDEST DUP2 DUP2 LT ISZERO PUSH3 0x44C JUMPI PUSH3 0x440 PUSH1 0x0 DUP3 PUSH3 0x40D JUMP JUMPDEST PUSH1 0x1 DUP2 ADD SWAP1 POP PUSH3 0x42A JUMP JUMPDEST POP POP JUMP JUMPDEST PUSH1 0x1F DUP3 GT ISZERO PUSH3 0x49B JUMPI PUSH3 0x465 DUP2 PUSH3 0x30F JUMP JUMPDEST PUSH3 0x470 DUP5 PUSH3 0x324 JUMP JUMPDEST DUP2 ADD PUSH1 0x20 DUP6 LT ISZERO PUSH3 0x480 JUMPI DUP2 SWAP1 POP JUMPDEST PUSH3 0x498 PUSH3 0x48F DUP6 PUSH3 0x324 JUMP JUMPDEST DUP4 ADD DUP3 PUSH3 0x429 JUMP JUMPDEST POP POP JUMPDEST POP POP POP JUMP JUMPDEST PUSH1 0x0 DUP3 DUP3 SHR SWAP1 POP SWAP3 SWAP2 POP POP JUMP JUMPDEST PUSH1 0x0 PUSH3 0x4C0 PUSH1 0x0 NOT DUP5 PUSH1 0x8 MUL PUSH3 0x4A0 JUMP JUMPDEST NOT DUP1 DUP4 AND SWAP2 POP POP SWAP3 SWAP2 POP POP JUMP JUMPDEST PUSH1 0x0 PUSH3 0x4DB DUP4 DUP4 PUSH3 0x4AD JUMP JUMPDEST SWAP2 POP DUP3 PUSH1 0x2 MUL DUP3 OR SWAP1 POP SWAP3 SWAP2 POP POP JUMP JUMPDEST PUSH3 0x4F6 DUP3 PUSH3 0x271 JUMP JUMPDEST PUSH8 0xFFFFFFFFFFFFFFFF DUP2 GT ISZERO PUSH3 0x512 JUMPI PUSH3 0x511 PUSH3 0x27C JUMP JUMPDEST JUMPDEST PUSH3 0x51E DUP3 SLOAD PUSH3 0x2DA JUMP JUMPDEST PUSH3 0x52B DUP3 DUP3 DUP6 PUSH3 0x450 JUMP JUMPDEST PUSH1 0x0 PUSH1 0x20 SWAP1 POP PUSH1 0x1F DUP4 GT PUSH1 0x1 DUP2 EQ PUSH3 0x563 JUMPI PUSH1 0x0 DUP5 ISZERO PUSH3 0x54E JUMPI DUP3 DUP8 ADD MLOAD SWAP1 POP JUMPDEST PUSH3 0x55A DUP6 DUP3 PUSH3 0x4CD JUMP JUMPDEST DUP7 SSTORE POP PUSH3 0x5CA JUMP JUMPDEST PUSH1 0x1F NOT DUP5 AND PUSH3 0x573 DUP7 PUSH3 0x30F JUMP JUMPDEST PUSH1 0x0 JUMPDEST DUP3 DUP2 LT ISZERO PUSH3 0x59D JUMPI DUP5 DUP10 ADD MLOAD DUP3 SSTORE PUSH1 0x1 DUP3 ADD SWAP2 POP PUSH1 0x20 DUP6 ADD SWAP5 POP PUSH1 0x20 DUP2 ADD SWAP1 POP PUSH3 0x576 JUMP JUMPDEST DUP7 DUP4 LT ISZERO PUSH3 0x5BD JUMPI DUP5 DUP10 ADD MLOAD PUSH3 0x5B9 PUSH1 0x1F DUP10 AND DUP3 PUSH3 0x4AD JUMP JUMPDEST DUP4 SSTORE POP JUMPDEST PUSH1 0x1 PUSH1 0x2 DUP9 MUL ADD DUP9 SSTORE POP POP POP JUMPDEST POP POP POP POP POP POP JUMP JUMPDEST PUSH32 0x4E487B7100000000000000000000000000000000000000000000000000000000 PUSH1 0x0 MSTORE PUSH1 0x11 PUSH1 0x4 MSTORE PUSH1 0x24 PUSH1 0x0 REVERT JUMPDEST PUSH1 0x0 DUP2 PUSH1 0x1 SHR SWAP1 POP SWAP2 SWAP1 POP JUMP JUMPDEST PUSH1 0x0 DUP1 DUP3 SWAP2 POP DUP4 SWAP1 POP JUMPDEST PUSH1 0x1 DUP6 GT ISZERO PUSH3 0x660 JUMPI DUP1 DUP7 DIV DUP2 GT ISZERO PUSH3 0x638 JUMPI PUSH3 0x637 PUSH3 0x5D2 JUMP JUMPDEST JUMPDEST PUSH1 0x1 DUP6 AND ISZERO PUSH3 0x648 JUMPI DUP1 DUP3 MUL SWAP2 POP JUMPDEST DUP1 DUP2 MUL SWAP1 POP PUSH3 0x658 DUP6 PUSH3 0x601 JUMP JUMPDEST SWAP5 POP PUSH3 0x618 JUMP JUMPDEST SWAP5 POP SWAP5 SWAP3 POP POP POP JUMP JUMPDEST PUSH1 0x0 DUP3 PUSH3 0x67B JUMPI PUSH1 0x1 SWAP1 POP PUSH3 0x74E JUMP JUMPDEST DUP2 PUSH3 0x68B JUMPI PUSH1 0x0 SWAP1 POP PUSH3 0x74E JUMP JUMPDEST DUP2 PUSH1 0x1 DUP2 EQ PUSH3 0x6A4 JUMPI PUSH1 0x2 DUP2 EQ PUSH3 0x6AF JUMPI PUSH3 0x6E5 JUMP JUMPDEST PUSH1 0x1 SWAP2 POP POP PUSH3 0x74E JUMP JUMPDEST PUSH1 0xFF DUP5 GT ISZERO PUSH3 0x6C4 JUMPI PUSH3 0x6C3 PUSH3 0x5D2 JUMP JUMPDEST JUMPDEST DUP4 PUSH1 0x2 EXP SWAP2 POP DUP5 DUP3 GT ISZERO PUSH3 0x6DE JUMPI PUSH3 0x6DD PUSH3 0x5D2 JUMP JUMPDEST JUMPDEST POP PUSH3 0x74E JUMP JUMPDEST POP PUSH1 0x20 DUP4 LT PUSH2 0x133 DUP4 LT AND PUSH1 0x4E DUP5 LT PUSH1 0xB DUP5 LT AND OR ISZERO PUSH3 0x71F JUMPI DUP3 DUP3 EXP SWAP1 POP DUP4 DUP2 GT ISZERO PUSH3 0x719 JUMPI PUSH3 0x718 PUSH3 0x5D2 JUMP JUMPDEST JUMPDEST PUSH3 0x74E JUMP JUMPDEST PUSH3 0x72E DUP5 DUP5 DUP5 PUSH1 0x1 PUSH3 0x60E JUMP JUMPDEST SWAP3 POP SWAP1 POP DUP2 DUP5 DIV DUP2 GT ISZERO PUSH3 0x748 JUMPI PUSH3 0x747 PUSH3 0x5D2 JUMP JUMPDEST JUMPDEST DUP2 DUP2 MUL SWAP1 POP JUMPDEST SWAP4 SWAP3 POP POP POP JUMP JUMPDEST PUSH1 0x0 PUSH1 0xFF DUP3 AND SWAP1 POP SWAP2 SWAP1 POP JUMP JUMPDEST PUSH1 0x0 PUSH3 0x76F DUP3 PUSH3 0x397 JUMP JUMPDEST SWAP2 POP PUSH3 0x77C DUP4 PUSH3 0x755 JUMP JUMPDEST SWAP3 POP PUSH3 0x7AB PUSH32 0xFFFFFFFFFFFFFFFFFFFFFFFFFFFFFFFFFFFFFFFFFFFFFFFFFFFFFFFFFFFFFFFF DUP5 DUP5 PUSH3 0x669 JUMP JUMPDEST SWAP1 POP SWAP3 SWAP2 POP POP JUMP JUMPDEST PUSH1 0x0 PUSH3 0x7C0 DUP3 PUSH3 0x397 JUMP JUMPDEST SWAP2 POP PUSH3 0x7CD DUP4 PUSH3 0x397 JUMP JUMPDEST SWAP3 POP DUP3 DUP3 MUL PUSH3 0x7DD DUP2 PUSH3 0x397 JUMP JUMPDEST SWAP2 POP DUP3 DUP3 DIV DUP5 EQ DUP4 ISZERO OR PUSH3 0x7F7 JUMPI PUSH3 0x7F6 PUSH3 0x5D2 JUMP JUMPDEST JUMPDEST POP SWAP3 SWAP2 POP POP JUMP JUMPDEST PUSH1 0x0 DUP3 DUP3 MSTORE PUSH1 0x20 DUP3 ADD SWAP1 POP SWAP3 SWAP2 POP POP JUMP JUMPDEST PUSH32 0x45524332303A206D696E7420746F20746865207A65726F206164647265737300 PUSH1 0x0 DUP3 ADD MSTORE POP JUMP JUMPDEST PUSH1 0x0 PUSH3 0x847 PUSH1 0x1F DUP4 PUSH3 0x7FE JUMP JUMPDEST SWAP2 POP PUSH3 0x854 DUP3 PUSH3 0x80F JUMP JUMPDEST PUSH1 0x20 DUP3 ADD SWAP1 POP SWAP2 SWAP1 POP JUMP JUMPDEST PUSH1 0x0 PUSH1 0x20 DUP3 ADD SWAP1 POP DUP2 DUP2 SUB PUSH1 0x0 DUP4 ADD MSTORE PUSH3 0x87A DUP2 PUSH3 0x838 JUMP JUMPDEST SWAP1 POP SWAP2 SWAP1 POP JUMP JUMPDEST PUSH1 0x0 PUSH3 0x88E DUP3 PUSH3 0x397 JUMP JUMPDEST SWAP2 POP PUSH3 0x89B DUP4 PUSH3 0x397 JUMP JUMPDEST SWAP3 POP DUP3 DUP3 ADD SWAP1 POP DUP1 DUP3 GT ISZERO PUSH3 0x8B6 JUMPI PUSH3 0x8B5 PUSH3 0x5D2 JUMP JUMPDEST JUMPDEST SWAP3 SWAP2 POP POP JUMP JUMPDEST PUSH3 0x8C7 DUP2 PUSH3 0x397 JUMP JUMPDEST DUP3 MSTORE POP POP JUMP JUMPDEST PUSH1 0x0 PUSH1 0x20 DUP3 ADD SWAP1 POP PUSH3 0x8E4 PUSH1 0x0 DUP4 ADD DUP5 PUSH3 0x8BC JUMP JUMPDEST SWAP3 SWAP2 POP POP JUMP JUMPDEST PUSH2 0x1E1A DUP1 PUSH3 0x8FA PUSH1 0x0 CODECOPY PUSH1 0x0 RETURN INVALID PUSH1 0x80 PUSH1 0x40 MSTORE CALLVALUE DUP1 ISZERO PUSH2 0x10 JUMPI PUSH1 0x0 DUP1 REVERT JUMPDEST POP PUSH1 0x4 CALLDATASIZE LT PUSH2 0x10B JUMPI PUSH1 0x0 CALLDATALOAD PUSH1 0xE0 SHR DUP1 PUSH4 0x70A08231 GT PUSH2 0xA2 JUMPI DUP1 PUSH4 0xA9059CBB GT PUSH2 0x71 JUMPI DUP1 PUSH4 0xA9059CBB EQ PUSH2 0x2BA JUMPI DUP1 PUSH4 0xB0EF2F68 EQ PUSH2 0x2EA JUMPI DUP1 PUSH4 0xDD62ED3E EQ PUSH2 0x31A JUMPI DUP1 PUSH4 0xEB46260E EQ PUSH2 0x34A JUMPI DUP1 PUSH4 0xED6387B7 EQ PUSH2 0x37A JUMPI PUSH2 0x10B JUMP JUMPDEST DUP1 PUSH4 0x70A08231 EQ PUSH2 0x220 JUMPI DUP1 PUSH4 0x865CF788 EQ PUSH2 0x250 JUMPI DUP1 PUSH4 0x95D89B41 EQ PUSH2 0x26C JUMPI DUP1 PUSH4 0xA457C2D7 EQ PUSH2 0x28A JUMPI PUSH2 0x10B JUMP JUMPDEST DUP1 PUSH4 0x23B872DD GT PUSH2 0xDE JUMPI DUP1 PUSH4 0x23B872DD EQ PUSH2 0x186 JUMPI DUP1 PUSH4 0x313CE567 EQ PUSH2 0x1B6 JUMPI DUP1 PUSH4 0x39509351 EQ PUSH2 0x1D4 JUMPI DUP1 PUSH4 0x4BD09C2A EQ PUSH2 0x204 JUMPI PUSH2 0x10B JUMP JUMPDEST DUP1 PUSH4 0x6FDDE03 EQ PUSH2 0x110 JUMPI DUP1 PUSH4 0x95EA7B3 EQ PUSH2 0x12E JUMPI DUP1 PUSH4 0x146BEA7B EQ PUSH2 0x15E JUMPI DUP1 PUSH4 0x18160DDD EQ PUSH2 0x168 JUMPI JUMPDEST PUSH1 0x0 DUP1 REVERT JUMPDEST PUSH2 0x118 PUSH2 0x3AA JUMP JUMPDEST PUSH1 0x40 MLOAD PUSH2 0x125 SWAP2 SWAP1 PUSH2 0x111D JUMP JUMPDEST PUSH1 0x40 MLOAD DUP1 SWAP2 SUB SWAP1 RETURN JUMPDEST PUSH2 0x148 PUSH1 0x4 DUP1 CALLDATASIZE SUB DUP2 ADD SWAP1 PUSH2 0x143 SWAP2 SWAP1 PUSH2 0x11E7 JUMP JUMPDEST PUSH2 0x43C JUMP JUMPDEST PUSH1 0x40 MLOAD PUSH2 0x155 SWAP2 SWAP1 PUSH2 0x1242 JUMP JUMPDEST PUSH1 0x40 MLOAD DUP1 SWAP2 SUB SWAP1 RETURN JUMPDEST PUSH2 0x166 PUSH2 0x45F JUMP JUMPDEST STOP JUMPDEST PUSH2 0x170 PUSH2 0x479 JUMP JUMPDEST PUSH1 0x40 MLOAD PUSH2 0x17D SWAP2 SWAP1 PUSH2 0x126C JUMP JUMPDEST PUSH1 0x40 MLOAD DUP1 SWAP2 SUB SWAP1 RETURN JUMPDEST PUSH2 0x1A0 PUSH1 0x4 DUP1 CALLDATASIZE SUB DUP2 ADD SWAP1 PUSH2 0x19B SWAP2 SWAP1 PUSH2 0x1287 JUMP JUMPDEST PUSH2 0x483 JUMP JUMPDEST PUSH1 0x40 MLOAD PUSH2 0x1AD SWAP2 SWAP1 PUSH2 0x1242 JUMP JUMPDEST PUSH1 0x40 MLOAD DUP1 SWAP2 SUB SWAP1 RETURN JUMPDEST PUSH2 0x1BE PUSH2 0x4B2 JUMP JUMPDEST PUSH1 0x40 MLOAD PUSH2 0x1CB SWAP2 SWAP1 PUSH2 0x12F6 JUMP JUMPDEST PUSH1 0x40 MLOAD DUP1 SWAP2 SUB SWAP1 RETURN JUMPDEST PUSH2 0x1EE PUSH1 0x4 DUP1 CALLDATASIZE SUB DUP2 ADD SWAP1 PUSH2 0x1E9 SWAP2 SWAP1 PUSH2 0x11E7 JUMP JUMPDEST PUSH2 0x4BB JUMP JUMPDEST PUSH1 0x40 MLOAD PUSH2 0x1FB SWAP2 SWAP1 PUSH2 0x1242 JUMP JUMPDEST PUSH1 0x40 MLOAD DUP1 SWAP2 SUB SWAP1 RETURN JUMPDEST PUSH2 0x21E PUSH1 0x4 DUP1 CALLDATASIZE SUB DUP2 ADD SWAP1 PUSH2 0x219 SWAP2 SWAP1 PUSH2 0x151C JUMP JUMPDEST PUSH2 0x4F2 JUMP JUMPDEST STOP JUMPDEST PUSH2 0x23A PUSH1 0x4 DUP1 CALLDATASIZE SUB DUP2 ADD SWAP1 PUSH2 0x235 SWAP2 SWAP1 PUSH2 0x1594 JUMP JUMPDEST PUSH2 0x7AE JUMP JUMPDEST PUSH1 0x40 MLOAD PUSH2 0x247 SWAP2 SWAP1 PUSH2 0x126C JUMP JUMPDEST PUSH1 0x40 MLOAD DUP1 SWAP2 SUB SWAP1 RETURN JUMPDEST PUSH2 0x26A PUSH1 0x4 DUP1 CALLDATASIZE SUB DUP2 ADD SWAP1 PUSH2 0x265 SWAP2 SWAP1 PUSH2 0x16B0 JUMP JUMPDEST PUSH2 0x7F6 JUMP JUMPDEST STOP JUMPDEST PUSH2 0x274 PUSH2 0x8F2 JUMP JUMPDEST PUSH1 0x40 MLOAD PUSH2 0x281 SWAP2 SWAP1 PUSH2 0x111D JUMP JUMPDEST PUSH1 0x40 MLOAD DUP1 SWAP2 SUB SWAP1 RETURN JUMPDEST PUSH2 0x2A4 PUSH1 0x4 DUP1 CALLDATASIZE SUB DUP2 ADD SWAP1 PUSH2 0x29F SWAP2 SWAP1 PUSH2 0x11E7 JUMP JUMPDEST PUSH2 0x984 JUMP JUMPDEST PUSH1 0x40 MLOAD PUSH2 0x2B1 SWAP2 SWAP1 PUSH2 0x1242 JUMP JUMPDEST PUSH1 0x40 MLOAD DUP1 SWAP2 SUB SWAP1 RETURN JUMPDEST PUSH2 0x2D4 PUSH1 0x4 DUP1 CALLDATASIZE SUB DUP2 ADD SWAP1 PUSH2 0x2CF SWAP2 SWAP1 PUSH2 0x11E7 JUMP JUMPDEST PUSH2 0x9FB JUMP JUMPDEST PUSH1 0x40 MLOAD PUSH2 0x2E1 SWAP2 SWAP1 PUSH2 0x1242 JUMP JUMPDEST PUSH1 0x40 MLOAD DUP1 SWAP2 SUB SWAP1 RETURN JUMPDEST PUSH2 0x304 PUSH1 0x4 DUP1 CALLDATASIZE SUB DUP2 ADD SWAP1 PUSH2 0x2FF SWAP2 SWAP1 PUSH2 0x1594 JUMP JUMPDEST PUSH2 0xA1E JUMP JUMPDEST PUSH1 0x40 MLOAD PUSH2 0x311 SWAP2 SWAP1 PUSH2 0x1242 JUMP JUMPDEST PUSH1 0x40 MLOAD DUP1 SWAP2 SUB SWAP1 RETURN JUMPDEST PUSH2 0x334 PUSH1 0x4 DUP1 CALLDATASIZE SUB DUP2 ADD SWAP1 PUSH2 0x32F SWAP2 SWAP1 PUSH2 0x1728 JUMP JUMPDEST PUSH2 0xA77 JUMP JUMPDEST PUSH1 0x40 MLOAD PUSH2 0x341 SWAP2 SWAP1 PUSH2 0x126C JUMP JUMPDEST PUSH1 0x40 MLOAD DUP1 SWAP2 SUB SWAP1 RETURN JUMPDEST PUSH2 0x364 PUSH1 0x4 DUP1 CALLDATASIZE SUB DUP2 ADD SWAP1 PUSH2 0x35F SWAP2 SWAP1 PUSH2 0x1594 JUMP JUMPDEST PUSH2 0xAFE JUMP JUMPDEST PUSH1 0x40 MLOAD PUSH2 0x371 SWAP2 SWAP1 PUSH2 0x1242 JUMP JUMPDEST PUSH1 0x40 MLOAD DUP1 SWAP2 SUB SWAP1 RETURN JUMPDEST PUSH2 0x394 PUSH1 0x4 DUP1 CALLDATASIZE SUB DUP2 ADD SWAP1 PUSH2 0x38F SWAP2 SWAP1 PUSH2 0x1594 JUMP JUMPDEST PUSH2 0xB57 JUMP JUMPDEST PUSH1 0x40 MLOAD PUSH2 0x3A1 SWAP2 SWAP1 PUSH2 0x1242 JUMP JUMPDEST PUSH1 0x40 MLOAD DUP1 SWAP2 SUB SWAP1 RETURN JUMPDEST PUSH1 0x60 PUSH1 0x3 DUP1 SLOAD PUSH2 0x3B9 SWAP1 PUSH2 0x1797 JUMP JUMPDEST DUP1 PUSH1 0x1F ADD PUSH1 0x20 DUP1 SWAP2 DIV MUL PUSH1 0x20 ADD PUSH1 0x40 MLOAD SWAP1 DUP2 ADD PUSH1 0x40 MSTORE DUP1 SWAP3 SWAP2 SWAP1 DUP2 DUP2 MSTORE PUSH1 0x20 ADD DUP3 DUP1 SLOAD PUSH2 0x3E5 SWAP1 PUSH2 0x1797 JUMP JUMPDEST DUP1 ISZERO PUSH2 0x432 JUMPI DUP1 PUSH1 0x1F LT PUSH2 0x407 JUMPI PUSH2 0x100 DUP1 DUP4 SLOAD DIV MUL DUP4 MSTORE SWAP2 PUSH1 0x20 ADD SWAP2 PUSH2 0x432 JUMP JUMPDEST DUP3 ADD SWAP2 SWAP1 PUSH1 0x0 MSTORE PUSH1 0x20 PUSH1 0x0 KECCAK256 SWAP1 JUMPDEST DUP2 SLOAD DUP2 MSTORE SWAP1 PUSH1 0x1 ADD SWAP1 PUSH1 0x20 ADD DUP1 DUP4 GT PUSH2 0x415 JUMPI DUP3 SWAP1 SUB PUSH1 0x1F AND DUP3 ADD SWAP2 JUMPDEST POP POP POP POP POP SWAP1 POP SWAP1 JUMP JUMPDEST PUSH1 0x0 DUP1 PUSH2 0x447 PUSH2 0xBB0 JUMP JUMPDEST SWAP1 POP PUSH2 0x454 DUP2 DUP6 DUP6 PUSH2 0xBB8 JUMP JUMPDEST PUSH1 0x1 SWAP2 POP POP SWAP3 SWAP2 POP POP JUMP JUMPDEST PUSH1 0x6 PUSH1 0x0 DUP2 SLOAD DUP1 SWAP3 SWAP2 SWAP1 PUSH2 0x472 SWAP1 PUSH2 0x17F7 JUMP JUMPDEST SWAP2 SWAP1 POP SSTORE POP JUMP JUMPDEST PUSH1 0x0 PUSH1 0x2 SLOAD SWAP1 POP SWAP1 JUMP JUMPDEST PUSH1 0x0 DUP1 PUSH2 0x48E PUSH2 0xBB0 JUMP JUMPDEST SWAP1 POP PUSH2 0x49B DUP6 DUP3 DUP6 PUSH2 0xD81 JUMP JUMPDEST PUSH2 0x4A6 DUP6 DUP6 DUP6 PUSH2 0xE0D JUMP JUMPDEST PUSH1 0x1 SWAP2 POP POP SWAP4 SWAP3 POP POP POP JUMP JUMPDEST PUSH1 0x0 PUSH1 0x12 SWAP1 POP SWAP1 JUMP JUMPDEST PUSH1 0x0 DUP1 PUSH2 0x4C6 PUSH2 0xBB0 JUMP JUMPDEST SWAP1 POP PUSH2 0x4E7 DUP2 DUP6 DUP6 PUSH2 0x4D8 DUP6 DUP10 PUSH2 0xA77 JUMP JUMPDEST PUSH2 0x4E2 SWAP2 SWAP1 PUSH2 0x183F JUMP JUMPDEST PUSH2 0xBB8 JUMP JUMPDEST PUSH1 0x1 SWAP2 POP POP SWAP3 SWAP2 POP POP JUMP JUMPDEST DUP1 MLOAD DUP3 MLOAD EQ PUSH2 0x536 JUMPI PUSH1 0x40 MLOAD PUSH32 0x8C379A000000000000000000000000000000000000000000000000000000000 DUP2 MSTORE PUSH1 0x4 ADD PUSH2 0x52D SWAP1 PUSH2 0x18BF JUMP JUMPDEST PUSH1 0x40 MLOAD DUP1 SWAP2 SUB SWAP1 REVERT JUMPDEST PUSH1 0x0 JUMPDEST DUP3 MLOAD DUP2 LT ISZERO PUSH2 0x7A9 JUMPI PUSH1 0x0 DUP3 DUP3 DUP2 MLOAD DUP2 LT PUSH2 0x557 JUMPI PUSH2 0x556 PUSH2 0x18DF JUMP JUMPDEST JUMPDEST PUSH1 0x20 MUL PUSH1 0x20 ADD ADD MLOAD GT PUSH2 0x59F JUMPI PUSH1 0x40 MLOAD PUSH32 0x8C379A000000000000000000000000000000000000000000000000000000000 DUP2 MSTORE PUSH1 0x4 ADD PUSH2 0x596 SWAP1 PUSH2 0x195A JUMP JUMPDEST PUSH1 0x40 MLOAD DUP1 SWAP2 SUB SWAP1 REVERT JUMPDEST PUSH1 0x0 DUP4 DUP3 DUP2 MLOAD DUP2 LT PUSH2 0x5B4 JUMPI PUSH2 0x5B3 PUSH2 0x18DF JUMP JUMPDEST JUMPDEST PUSH1 0x20 MUL PUSH1 0x20 ADD ADD MLOAD SWAP1 POP PUSH1 0x0 DUP4 DUP4 DUP2 MLOAD DUP2 LT PUSH2 0x5D3 JUMPI PUSH2 0x5D2 PUSH2 0x18DF JUMP JUMPDEST JUMPDEST PUSH1 0x20 MUL PUSH1 0x20 ADD ADD MLOAD SWAP1 POP PUSH1 0x5 PUSH1 0x0 DUP4 PUSH20 0xFFFFFFFFFFFFFFFFFFFFFFFFFFFFFFFFFFFFFFFF AND PUSH20 0xFFFFFFFFFFFFFFFFFFFFFFFFFFFFFFFFFFFFFFFF AND DUP2 MSTORE PUSH1 0x20 ADD SWAP1 DUP2 MSTORE PUSH1 0x20 ADD PUSH1 0x0 KECCAK256 PUSH1 0x0 ADD PUSH1 0x1 SWAP1 SLOAD SWAP1 PUSH2 0x100 EXP SWAP1 DIV PUSH1 0xFF AND ISZERO PUSH2 0x66D JUMPI PUSH1 0x40 MLOAD PUSH32 0x8C379A000000000000000000000000000000000000000000000000000000000 DUP2 MSTORE PUSH1 0x4 ADD PUSH2 0x664 SWAP1 PUSH2 0x19EC JUMP JUMPDEST PUSH1 0x40 MLOAD DUP1 SWAP2 SUB SWAP1 REVERT JUMPDEST PUSH1 0x5 PUSH1 0x0 DUP4 PUSH20 0xFFFFFFFFFFFFFFFFFFFFFFFFFFFFFFFFFFFFFFFF AND PUSH20 0xFFFFFFFFFFFFFFFFFFFFFFFFFFFFFFFFFFFFFFFF AND DUP2 MSTORE PUSH1 0x20 ADD SWAP1 DUP2 MSTORE PUSH1 0x20 ADD PUSH1 0x0 KECCAK256 PUSH1 0x0 ADD PUSH1 0x0 SWAP1 SLOAD SWAP1 PUSH2 0x100 EXP SWAP1 DIV PUSH1 0xFF AND ISZERO PUSH2 0x6D2 JUMPI PUSH2 0x6CD CALLER DUP4 DUP4 PUSH2 0xE0D JUMP JUMPDEST PUSH2 0x6DE JUMP JUMPDEST PUSH2 0x6DD CALLER DUP4 DUP4 PUSH2 0xE0D JUMP JUMPDEST JUMPDEST PUSH1 0x1 PUSH1 0x5 PUSH1 0x0 DUP5 PUSH20 0xFFFFFFFFFFFFFFFFFFFFFFFFFFFFFFFFFFFFFFFF AND PUSH20 0xFFFFFFFFFFFFFFFFFFFFFFFFFFFFFFFFFFFFFFFF AND DUP2 MSTORE PUSH1 0x20 ADD SWAP1 DUP2 MSTORE PUSH1 0x20 ADD PUSH1 0x0 KECCAK256 PUSH1 0x0 ADD PUSH1 0x1 PUSH2 0x100 EXP DUP2 SLOAD DUP2 PUSH1 0xFF MUL NOT AND SWAP1 DUP4 ISZERO ISZERO MUL OR SWAP1 SSTORE POP PUSH1 0x1 PUSH1 0x5 PUSH1 0x0 DUP5 PUSH20 0xFFFFFFFFFFFFFFFFFFFFFFFFFFFFFFFFFFFFFFFF AND PUSH20 0xFFFFFFFFFFFFFFFFFFFFFFFFFFFFFFFFFFFFFFFF AND DUP2 MSTORE PUSH1 0x20 ADD SWAP1 DUP2 MSTORE PUSH1 0x20 ADD PUSH1 0x0 KECCAK256 PUSH1 0x0 ADD PUSH1 0x2 PUSH2 0x100 EXP DUP2 SLOAD DUP2 PUSH1 0xFF MUL NOT AND SWAP1 DUP4 ISZERO ISZERO MUL OR SWAP1 SSTORE POP POP POP DUP1 DUP1 PUSH2 0x7A1 SWAP1 PUSH2 0x17F7 JUMP JUMPDEST SWAP2 POP POP PUSH2 0x539 JUMP JUMPDEST POP POP POP JUMP JUMPDEST PUSH1 0x0 DUP1 PUSH1 0x0 DUP4 PUSH20 0xFFFFFFFFFFFFFFFFFFFFFFFFFFFFFFFFFFFFFFFF AND PUSH20 0xFFFFFFFFFFFFFFFFFFFFFFFFFFFFFFFFFFFFFFFF AND DUP2 MSTORE PUSH1 0x20 ADD SWAP1 DUP2 MSTORE PUSH1 0x20 ADD PUSH1 0x0 KECCAK256 SLOAD SWAP1 POP SWAP2 SWAP1 POP JUMP JUMPDEST DUP1 MLOAD DUP3 MLOAD EQ PUSH2 0x83A JUMPI PUSH1 0x40 MLOAD PUSH32 0x8C379A000000000000000000000000000000000000000000000000000000000 DUP2 MSTORE PUSH1 0x4 ADD PUSH2 0x831 SWAP1 PUSH2 0x18BF JUMP JUMPDEST PUSH1 0x40 MLOAD DUP1 SWAP2 SUB SWAP1 REVERT JUMPDEST PUSH1 0x0 JUMPDEST DUP3 MLOAD DUP2 LT ISZERO PUSH2 0x8ED JUMPI PUSH1 0x0 DUP4 DUP3 DUP2 MLOAD DUP2 LT PUSH2 0x85B JUMPI PUSH2 0x85A PUSH2 0x18DF JUMP JUMPDEST JUMPDEST PUSH1 0x20 MUL PUSH1 0x20 ADD ADD MLOAD SWAP1 POP DUP3 DUP3 DUP2 MLOAD DUP2 LT PUSH2 0x878 JUMPI PUSH2 0x877 PUSH2 0x18DF JUMP JUMPDEST JUMPDEST PUSH1 0x20 MUL PUSH1 0x20 ADD ADD MLOAD PUSH1 0x5 PUSH1 0x0 DUP4 PUSH20 0xFFFFFFFFFFFFFFFFFFFFFFFFFFFFFFFFFFFFFFFF AND PUSH20 0xFFFFFFFFFFFFFFFFFFFFFFFFFFFFFFFFFFFFFFFF AND DUP2 MSTORE PUSH1 0x20 ADD SWAP1 DUP2 MSTORE PUSH1 0x20 ADD PUSH1 0x0 KECCAK256 PUSH1 0x0 ADD PUSH1 0x0 PUSH2 0x100 EXP DUP2 SLOAD DUP2 PUSH1 0xFF MUL NOT AND SWAP1 DUP4 ISZERO ISZERO MUL OR SWAP1 SSTORE POP POP DUP1 DUP1 PUSH2 0x8E5 SWAP1 PUSH2 0x17F7 JUMP JUMPDEST SWAP2 POP POP PUSH2 0x83D JUMP JUMPDEST POP POP POP JUMP JUMPDEST PUSH1 0x60 PUSH1 0x4 DUP1 SLOAD PUSH2 0x901 SWAP1 PUSH2 0x1797 JUMP JUMPDEST DUP1 PUSH1 0x1F ADD PUSH1 0x20 DUP1 SWAP2 DIV MUL PUSH1 0x20 ADD PUSH1 0x40 MLOAD SWAP1 DUP2 ADD PUSH1 0x40 MSTORE DUP1 SWAP3 SWAP2 SWAP1 DUP2 DUP2 MSTORE PUSH1 0x20 ADD DUP3 DUP1 SLOAD PUSH2 0x92D SWAP1 PUSH2 0x1797 JUMP JUMPDEST DUP1 ISZERO PUSH2 0x97A JUMPI DUP1 PUSH1 0x1F LT PUSH2 0x94F JUMPI PUSH2 0x100 DUP1 DUP4 SLOAD DIV MUL DUP4 MSTORE SWAP2 PUSH1 0x20 ADD SWAP2 PUSH2 0x97A JUMP JUMPDEST DUP3 ADD SWAP2 SWAP1 PUSH1 0x0 MSTORE PUSH1 0x20 PUSH1 0x0 KECCAK256 SWAP1 JUMPDEST DUP2 SLOAD DUP2 MSTORE SWAP1 PUSH1 0x1 ADD SWAP1 PUSH1 0x20 ADD DUP1 DUP4 GT PUSH2 0x95D JUMPI DUP3 SWAP1 SUB PUSH1 0x1F AND DUP3 ADD SWAP2 JUMPDEST POP POP POP POP POP SWAP1 POP SWAP1 JUMP JUMPDEST PUSH1 0x0 DUP1 PUSH2 0x98F PUSH2 0xBB0 JUMP JUMPDEST SWAP1 POP PUSH1 0x0 PUSH2 0x99D DUP3 DUP7 PUSH2 0xA77 JUMP JUMPDEST SWAP1 POP DUP4 DUP2 LT ISZERO PUSH2 0x9E2 JUMPI PUSH1 0x40 MLOAD PUSH32 0x8C379A000000000000000000000000000000000000000000000000000000000 DUP2 MSTORE PUSH1 0x4 ADD PUSH2 0x9D9 SWAP1 PUSH2 0x1A7E JUMP JUMPDEST PUSH1 0x40 MLOAD DUP1 SWAP2 SUB SWAP1 REVERT JUMPDEST PUSH2 0x9EF DUP3 DUP7 DUP7 DUP5 SUB PUSH2 0xBB8 JUMP JUMPDEST PUSH1 0x1 SWAP3 POP POP POP SWAP3 SWAP2 POP POP JUMP JUMPDEST PUSH1 0x0 DUP1 PUSH2 0xA06 PUSH2 0xBB0 JUMP JUMPDEST SWAP1 POP PUSH2 0xA13 DUP2 DUP6 DUP6 PUSH2 0xE0D JUMP JUMPDEST PUSH1 0x1 SWAP2 POP POP SWAP3 SWAP2 POP POP JUMP JUMPDEST PUSH1 0x0 PUSH1 0x5 PUSH1 0x0 DUP4 PUSH20 0xFFFFFFFFFFFFFFFFFFFFFFFFFFFFFFFFFFFFFFFF AND PUSH20 0xFFFFFFFFFFFFFFFFFFFFFFFFFFFFFFFFFFFFFFFF AND DUP2 MSTORE PUSH1 0x20 ADD SWAP1 DUP2 MSTORE PUSH1 0x20 ADD PUSH1 0x0 KECCAK256 PUSH1 0x0 ADD PUSH1 0x1 SWAP1 SLOAD SWAP1 PUSH2 0x100 EXP SWAP1 DIV PUSH1 0xFF AND SWAP1 POP SWAP2 SWAP1 POP JUMP JUMPDEST PUSH1 0x0 PUSH1 0x1 PUSH1 0x0 DUP5 PUSH20 0xFFFFFFFFFFFFFFFFFFFFFFFFFFFFFFFFFFFFFFFF AND PUSH20 0xFFFFFFFFFFFFFFFFFFFFFFFFFFFFFFFFFFFFFFFF AND DUP2 MSTORE PUSH1 0x20 ADD SWAP1 DUP2 MSTORE PUSH1 0x20 ADD PUSH1 0x0 KECCAK256 PUSH1 0x0 DUP4 PUSH20 0xFFFFFFFFFFFFFFFFFFFFFFFFFFFFFFFFFFFFFFFF AND PUSH20 0xFFFFFFFFFFFFFFFFFFFFFFFFFFFFFFFFFFFFFFFF AND DUP2 MSTORE PUSH1 0x20 ADD SWAP1 DUP2 MSTORE PUSH1 0x20 ADD PUSH1 0x0 KECCAK256 SLOAD SWAP1 POP SWAP3 SWAP2 POP POP JUMP JUMPDEST PUSH1 0x0 PUSH1 0x5 PUSH1 0x0 DUP4 PUSH20 0xFFFFFFFFFFFFFFFFFFFFFFFFFFFFFFFFFFFFFFFF AND PUSH20 0xFFFFFFFFFFFFFFFFFFFFFFFFFFFFFFFFFFFFFFFF AND DUP2 MSTORE PUSH1 0x20 ADD SWAP1 DUP2 MSTORE PUSH1 0x20 ADD PUSH1 0x0 KECCAK256 PUSH1 0x0 ADD PUSH1 0x2 SWAP1 SLOAD SWAP1 PUSH2 0x100 EXP SWAP1 DIV PUSH1 0xFF AND SWAP1 POP SWAP2 SWAP1 POP JUMP JUMPDEST PUSH1 0x0 PUSH1 0x5 PUSH1 0x0 DUP4 PUSH20 0xFFFFFFFFFFFFFFFFFFFFFFFFFFFFFFFFFFFFFFFF AND PUSH20 0xFFFFFFFFFFFFFFFFFFFFFFFFFFFFFFFFFFFFFFFF AND DUP2 MSTORE PUSH1 0x20 ADD SWAP1 DUP2 MSTORE PUSH1 0x20 ADD PUSH1 0x0 KECCAK256 PUSH1 0x0 ADD PUSH1 0x0 SWAP1 SLOAD SWAP1 PUSH2 0x100 EXP SWAP1 DIV PUSH1 0xFF AND SWAP1 POP SWAP2 SWAP1 POP JUMP JUMPDEST PUSH1 0x0 CALLER SWAP1 POP SWAP1 JUMP JUMPDEST PUSH1 0x0 PUSH20 0xFFFFFFFFFFFFFFFFFFFFFFFFFFFFFFFFFFFFFFFF AND DUP4 PUSH20 0xFFFFFFFFFFFFFFFFFFFFFFFFFFFFFFFFFFFFFFFF AND SUB PUSH2 0xC27 JUMPI PUSH1 0x40 MLOAD PUSH32 0x8C379A000000000000000000000000000000000000000000000000000000000 DUP2 MSTORE PUSH1 0x4 ADD PUSH2 0xC1E SWAP1 PUSH2 0x1B10 JUMP JUMPDEST PUSH1 0x40 MLOAD DUP1 SWAP2 SUB SWAP1 REVERT JUMPDEST PUSH1 0x0 PUSH20 0xFFFFFFFFFFFFFFFFFFFFFFFFFFFFFFFFFFFFFFFF AND DUP3 PUSH20 0xFFFFFFFFFFFFFFFFFFFFFFFFFFFFFFFFFFFFFFFF AND SUB PUSH2 0xC96 JUMPI PUSH1 0x40 MLOAD PUSH32 0x8C379A000000000000000000000000000000000000000000000000000000000 DUP2 MSTORE PUSH1 0x4 ADD PUSH2 0xC8D SWAP1 PUSH2 0x1BA2 JUMP JUMPDEST PUSH1 0x40 MLOAD DUP1 SWAP2 SUB SWAP1 REVERT JUMPDEST DUP1 PUSH1 0x1 PUSH1 0x0 DUP6 PUSH20 0xFFFFFFFFFFFFFFFFFFFFFFFFFFFFFFFFFFFFFFFF AND PUSH20 0xFFFFFFFFFFFFFFFFFFFFFFFFFFFFFFFFFFFFFFFF AND DUP2 MSTORE PUSH1 0x20 ADD SWAP1 DUP2 MSTORE PUSH1 0x20 ADD PUSH1 0x0 KECCAK256 PUSH1 0x0 DUP5 PUSH20 0xFFFFFFFFFFFFFFFFFFFFFFFFFFFFFFFFFFFFFFFF AND PUSH20 0xFFFFFFFFFFFFFFFFFFFFFFFFFFFFFFFFFFFFFFFF AND DUP2 MSTORE PUSH1 0x20 ADD SWAP1 DUP2 MSTORE PUSH1 0x20 ADD PUSH1 0x0 KECCAK256 DUP2 SWAP1 SSTORE POP DUP2 PUSH20 0xFFFFFFFFFFFFFFFFFFFFFFFFFFFFFFFFFFFFFFFF AND DUP4 PUSH20 0xFFFFFFFFFFFFFFFFFFFFFFFFFFFFFFFFFFFFFFFF AND PUSH32 0x8C5BE1E5EBEC7D5BD14F71427D1E84F3DD0314C0F7B2291E5B200AC8C7C3B925 DUP4 PUSH1 0x40 MLOAD PUSH2 0xD74 SWAP2 SWAP1 PUSH2 0x126C JUMP JUMPDEST PUSH1 0x40 MLOAD DUP1 SWAP2 SUB SWAP1 LOG3 POP POP POP JUMP JUMPDEST PUSH1 0x0 PUSH2 0xD8D DUP5 DUP5 PUSH2 0xA77 JUMP JUMPDEST SWAP1 POP PUSH32 0xFFFFFFFFFFFFFFFFFFFFFFFFFFFFFFFFFFFFFFFFFFFFFFFFFFFFFFFFFFFFFFFF DUP2 EQ PUSH2 0xE07 JUMPI DUP2 DUP2 LT ISZERO PUSH2 0xDF9 JUMPI PUSH1 0x40 MLOAD PUSH32 0x8C379A000000000000000000000000000000000000000000000000000000000 DUP2 MSTORE PUSH1 0x4 ADD PUSH2 0xDF0 SWAP1 PUSH2 0x1C0E JUMP JUMPDEST PUSH1 0x40 MLOAD DUP1 SWAP2 SUB SWAP1 REVERT JUMPDEST PUSH2 0xE06 DUP5 DUP5 DUP5 DUP5 SUB PUSH2 0xBB8 JUMP JUMPDEST JUMPDEST POP POP POP POP JUMP JUMPDEST PUSH1 0x0 PUSH20 0xFFFFFFFFFFFFFFFFFFFFFFFFFFFFFFFFFFFFFFFF AND DUP4 PUSH20 0xFFFFFFFFFFFFFFFFFFFFFFFFFFFFFFFFFFFFFFFF AND SUB PUSH2 0xE7C JUMPI PUSH1 0x40 MLOAD PUSH32 0x8C379A000000000000000000000000000000000000000000000000000000000 DUP2 MSTORE PUSH1 0x4 ADD PUSH2 0xE73 SWAP1 PUSH2 0x1CA0 JUMP JUMPDEST PUSH1 0x40 MLOAD DUP1 SWAP2 SUB SWAP1 REVERT JUMPDEST PUSH1 0x0 PUSH20 0xFFFFFFFFFFFFFFFFFFFFFFFFFFFFFFFFFFFFFFFF AND DUP3 PUSH20 0xFFFFFFFFFFFFFFFFFFFFFFFFFFFFFFFFFFFFFFFF AND SUB PUSH2 0xEEB JUMPI PUSH1 0x40 MLOAD PUSH32 0x8C379A000000000000000000000000000000000000000000000000000000000 DUP2 MSTORE PUSH1 0x4 ADD PUSH2 0xEE2 SWAP1 PUSH2 0x1D32 JUMP JUMPDEST PUSH1 0x40 MLOAD DUP1 SWAP2 SUB SWAP1 REVERT JUMPDEST PUSH2 0xEF6 DUP4 DUP4 DUP4 PUSH2 0x1083 JUMP JUMPDEST PUSH1 0x0 DUP1 PUSH1 0x0 DUP6 PUSH20 0xFFFFFFFFFFFFFFFFFFFFFFFFFFFFFFFFFFFFFFFF AND PUSH20 0xFFFFFFFFFFFFFFFFFFFFFFFFFFFFFFFFFFFFFFFF AND DUP2 MSTORE PUSH1 0x20 ADD SWAP1 DUP2 MSTORE PUSH1 0x20 ADD PUSH1 0x0 KECCAK256 SLOAD SWAP1 POP DUP2 DUP2 LT ISZERO PUSH2 0xF7C JUMPI PUSH1 0x40 MLOAD PUSH32 0x8C379A000000000000000000000000000000000000000000000000000000000 DUP2 MSTORE PUSH1 0x4 ADD PUSH2 0xF73 SWAP1 PUSH2 0x1DC4 JUMP JUMPDEST PUSH1 0x40 MLOAD DUP1 SWAP2 SUB SWAP1 REVERT JUMPDEST DUP2 DUP2 SUB PUSH1 0x0 DUP1 DUP7 PUSH20 0xFFFFFFFFFFFFFFFFFFFFFFFFFFFFFFFFFFFFFFFF AND PUSH20 0xFFFFFFFFFFFFFFFFFFFFFFFFFFFFFFFFFFFFFFFF AND DUP2 MSTORE PUSH1 0x20 ADD SWAP1 DUP2 MSTORE PUSH1 0x20 ADD PUSH1 0x0 KECCAK256 DUP2 SWAP1 SSTORE POP DUP2 PUSH1 0x0 DUP1 DUP6 PUSH20 0xFFFFFFFFFFFFFFFFFFFFFFFFFFFFFFFFFFFFFFFF AND PUSH20 0xFFFFFFFFFFFFFFFFFFFFFFFFFFFFFFFFFFFFFFFF AND DUP2 MSTORE PUSH1 0x20 ADD SWAP1 DUP2 MSTORE PUSH1 0x20 ADD PUSH1 0x0 KECCAK256 PUSH1 0x0 DUP3 DUP3 SLOAD ADD SWAP3 POP POP DUP2 SWAP1 SSTORE POP DUP3 PUSH20 0xFFFFFFFFFFFFFFFFFFFFFFFFFFFFFFFFFFFFFFFF AND DUP5 PUSH20 0xFFFFFFFFFFFFFFFFFFFFFFFFFFFFFFFFFFFFFFFF AND PUSH32 0xDDF252AD1BE2C89B69C2B068FC378DAA952BA7F163C4A11628F55A4DF523B3EF DUP5 PUSH1 0x40 MLOAD PUSH2 0x106A SWAP2 SWAP1 PUSH2 0x126C JUMP JUMPDEST PUSH1 0x40 MLOAD DUP1 SWAP2 SUB SWAP1 LOG3 PUSH2 0x107D DUP5 DUP5 DUP5 PUSH2 0x1088 JUMP JUMPDEST POP POP POP POP JUMP JUMPDEST POP POP POP JUMP JUMPDEST POP POP POP JUMP JUMPDEST PUSH1 0x0 DUP2 MLOAD SWAP1 POP SWAP2 SWAP1 POP JUMP JUMPDEST PUSH1 0x0 DUP3 DUP3 MSTORE PUSH1 0x20 DUP3 ADD SWAP1 POP SWAP3 SWAP2 POP POP JUMP JUMPDEST PUSH1 0x0 JUMPDEST DUP4 DUP2 LT ISZERO PUSH2 0x10C7 JUMPI DUP1 DUP3 ADD MLOAD DUP2 DUP5 ADD MSTORE PUSH1 0x20 DUP2 ADD SWAP1 POP PUSH2 0x10AC JUMP JUMPDEST PUSH1 0x0 DUP5 DUP5 ADD MSTORE POP POP POP POP JUMP JUMPDEST PUSH1 0x0 PUSH1 0x1F NOT PUSH1 0x1F DUP4 ADD AND SWAP1 POP SWAP2 SWAP1 POP JUMP JUMPDEST PUSH1 0x0 PUSH2 0x10EF DUP3 PUSH2 0x108D JUMP JUMPDEST PUSH2 0x10F9 DUP2 DUP6 PUSH2 0x1098 JUMP JUMPDEST SWAP4 POP PUSH2 0x1109 DUP2 DUP6 PUSH1 0x20 DUP7 ADD PUSH2 0x10A9 JUMP JUMPDEST PUSH2 0x1112 DUP2 PUSH2 0x10D3 JUMP JUMPDEST DUP5 ADD SWAP2 POP POP SWAP3 SWAP2 POP POP JUMP JUMPDEST PUSH1 0x0 PUSH1 0x20 DUP3 ADD SWAP1 POP DUP2 DUP2 SUB PUSH1 0x0 DUP4 ADD MSTORE PUSH2 0x1137 DUP2 DUP5 PUSH2 0x10E4 JUMP JUMPDEST SWAP1 POP SWAP3 SWAP2 POP POP JUMP JUMPDEST PUSH1 0x0 PUSH1 0x40 MLOAD SWAP1 POP SWAP1 JUMP JUMPDEST PUSH1 0x0 DUP1 REVERT JUMPDEST PUSH1 0x0 DUP1 REVERT JUMPDEST PUSH1 0x0 PUSH20 0xFFFFFFFFFFFFFFFFFFFFFFFFFFFFFFFFFFFFFFFF DUP3 AND SWAP1 POP SWAP2 SWAP1 POP JUMP JUMPDEST PUSH1 0x0 PUSH2 0x117E DUP3 PUSH2 0x1153 JUMP JUMPDEST SWAP1 POP SWAP2 SWAP1 POP JUMP JUMPDEST PUSH2 0x118E DUP2 PUSH2 0x1173 JUMP JUMPDEST DUP2 EQ PUSH2 0x1199 JUMPI PUSH1 0x0 DUP1 REVERT JUMPDEST POP JUMP JUMPDEST PUSH1 0x0 DUP2 CALLDATALOAD SWAP1 POP PUSH2 0x11AB DUP2 PUSH2 0x1185 JUMP JUMPDEST SWAP3 SWAP2 POP POP JUMP JUMPDEST PUSH1 0x0 DUP2 SWAP1 POP SWAP2 SWAP1 POP JUMP JUMPDEST PUSH2 0x11C4 DUP2 PUSH2 0x11B1 JUMP JUMPDEST DUP2 EQ PUSH2 0x11CF JUMPI PUSH1 0x0 DUP1 REVERT JUMPDEST POP JUMP JUMPDEST PUSH1 0x0 DUP2 CALLDATALOAD SWAP1 POP PUSH2 0x11E1 DUP2 PUSH2 0x11BB JUMP JUMPDEST SWAP3 SWAP2 POP POP JUMP JUMPDEST PUSH1 0x0 DUP1 PUSH1 0x40 DUP4 DUP6 SUB SLT ISZERO PUSH2 0x11FE JUMPI PUSH2 0x11FD PUSH2 0x1149 JUMP JUMPDEST JUMPDEST PUSH1 0x0 PUSH2 0x120C DUP6 DUP3 DUP7 ADD PUSH2 0x119C JUMP JUMPDEST SWAP3 POP POP PUSH1 0x20 PUSH2 0x121D DUP6 DUP3 DUP7 ADD PUSH2 0x11D2 JUMP JUMPDEST SWAP2 POP POP SWAP3 POP SWAP3 SWAP1 POP JUMP JUMPDEST PUSH1 0x0 DUP2 ISZERO ISZERO SWAP1 POP SWAP2 SWAP1 POP JUMP JUMPDEST PUSH2 0x123C DUP2 PUSH2 0x1227 JUMP JUMPDEST DUP3 MSTORE POP POP JUMP JUMPDEST PUSH1 0x0 PUSH1 0x20 DUP3 ADD SWAP1 POP PUSH2 0x1257 PUSH1 0x0 DUP4 ADD DUP5 PUSH2 0x1233 JUMP JUMPDEST SWAP3 SWAP2 POP POP JUMP JUMPDEST PUSH2 0x1266 DUP2 PUSH2 0x11B1 JUMP JUMPDEST DUP3 MSTORE POP POP JUMP JUMPDEST PUSH1 0x0 PUSH1 0x20 DUP3 ADD SWAP1 POP PUSH2 0x1281 PUSH1 0x0 DUP4 ADD DUP5 PUSH2 0x125D JUMP JUMPDEST SWAP3 SWAP2 POP POP JUMP JUMPDEST PUSH1 0x0 DUP1 PUSH1 0x0 PUSH1 0x60 DUP5 DUP7 SUB SLT ISZERO PUSH2 0x12A0 JUMPI PUSH2 0x129F PUSH2 0x1149 JUMP JUMPDEST JUMPDEST PUSH1 0x0 PUSH2 0x12AE DUP7 DUP3 DUP8 ADD PUSH2 0x119C JUMP JUMPDEST SWAP4 POP POP PUSH1 0x20 PUSH2 0x12BF DUP7 DUP3 DUP8 ADD PUSH2 0x119C JUMP JUMPDEST SWAP3 POP POP PUSH1 0x40 PUSH2 0x12D0 DUP7 DUP3 DUP8 ADD PUSH2 0x11D2 JUMP JUMPDEST SWAP2 POP POP SWAP3 POP SWAP3 POP SWAP3 JUMP JUMPDEST PUSH1 0x0 PUSH1 0xFF DUP3 AND SWAP1 POP SWAP2 SWAP1 POP JUMP JUMPDEST PUSH2 0x12F0 DUP2 PUSH2 0x12DA JUMP JUMPDEST DUP3 MSTORE POP POP JUMP JUMPDEST PUSH1 0x0 PUSH1 0x20 DUP3 ADD SWAP1 POP PUSH2 0x130B PUSH1 0x0 DUP4 ADD DUP5 PUSH2 0x12E7 JUMP JUMPDEST SWAP3 SWAP2 POP POP JUMP JUMPDEST PUSH1 0x0 DUP1 REVERT JUMPDEST PUSH32 0x4E487B7100000000000000000000000000000000000000000000000000000000 PUSH1 0x0 MSTORE PUSH1 0x41 PUSH1 0x4 MSTORE PUSH1 0x24 PUSH1 0x0 REVERT JUMPDEST PUSH2 0x134E DUP3 PUSH2 0x10D3 JUMP JUMPDEST DUP2 ADD DUP2 DUP2 LT PUSH8 0xFFFFFFFFFFFFFFFF DUP3 GT OR ISZERO PUSH2 0x136D JUMPI PUSH2 0x136C PUSH2 0x1316 JUMP JUMPDEST JUMPDEST DUP1 PUSH1 0x40 MSTORE POP POP POP JUMP JUMPDEST PUSH1 0x0 PUSH2 0x1380 PUSH2 0x113F JUMP JUMPDEST SWAP1 POP PUSH2 0x138C DUP3 DUP3 PUSH2 0x1345 JUMP JUMPDEST SWAP2 SWAP1 POP JUMP JUMPDEST PUSH1 0x0 PUSH8 0xFFFFFFFFFFFFFFFF DUP3 GT ISZERO PUSH2 0x13AC JUMPI PUSH2 0x13AB PUSH2 0x1316 JUMP JUMPDEST JUMPDEST PUSH1 0x20 DUP3 MUL SWAP1 POP PUSH1 0x20 DUP2 ADD SWAP1 POP SWAP2 SWAP1 POP JUMP JUMPDEST PUSH1 0x0 DUP1 REVERT JUMPDEST PUSH1 0x0 PUSH2 0x13D5 PUSH2 0x13D0 DUP5 PUSH2 0x1391 JUMP JUMPDEST PUSH2 0x1376 JUMP JUMPDEST SWAP1 POP DUP1 DUP4 DUP3 MSTORE PUSH1 0x20 DUP3 ADD SWAP1 POP PUSH1 0x20 DUP5 MUL DUP4 ADD DUP6 DUP2 GT ISZERO PUSH2 0x13F8 JUMPI PUSH2 0x13F7 PUSH2 0x13BD JUMP JUMPDEST JUMPDEST DUP4 JUMPDEST DUP2 DUP2 LT ISZERO PUSH2 0x1421 JUMPI DUP1 PUSH2 0x140D DUP9 DUP3 PUSH2 0x119C JUMP JUMPDEST DUP5 MSTORE PUSH1 0x20 DUP5 ADD SWAP4 POP POP PUSH1 0x20 DUP2 ADD SWAP1 POP PUSH2 0x13FA JUMP JUMPDEST POP POP POP SWAP4 SWAP3 POP POP POP JUMP JUMPDEST PUSH1 0x0 DUP3 PUSH1 0x1F DUP4 ADD SLT PUSH2 0x1440 JUMPI PUSH2 0x143F PUSH2 0x1311 JUMP JUMPDEST JUMPDEST DUP2 CALLDATALOAD PUSH2 0x1450 DUP5 DUP3 PUSH1 0x20 DUP7 ADD PUSH2 0x13C2 JUMP JUMPDEST SWAP2 POP POP SWAP3 SWAP2 POP POP JUMP JUMPDEST PUSH1 0x0 PUSH8 0xFFFFFFFFFFFFFFFF DUP3 GT ISZERO PUSH2 0x1474 JUMPI PUSH2 0x1473 PUSH2 0x1316 JUMP JUMPDEST JUMPDEST PUSH1 0x20 DUP3 MUL SWAP1 POP PUSH1 0x20 DUP2 ADD SWAP1 POP SWAP2 SWAP1 POP JUMP JUMPDEST PUSH1 0x0 PUSH2 0x1498 PUSH2 0x1493 DUP5 PUSH2 0x1459 JUMP JUMPDEST PUSH2 0x1376 JUMP JUMPDEST SWAP1 POP DUP1 DUP4 DUP3 MSTORE PUSH1 0x20 DUP3 ADD SWAP1 POP PUSH1 0x20 DUP5 MUL DUP4 ADD DUP6 DUP2 GT ISZERO PUSH2 0x14BB JUMPI PUSH2 0x14BA PUSH2 0x13BD JUMP JUMPDEST JUMPDEST DUP4 JUMPDEST DUP2 DUP2 LT ISZERO PUSH2 0x14E4 JUMPI DUP1 PUSH2 0x14D0 DUP9 DUP3 PUSH2 0x11D2 JUMP JUMPDEST DUP5 MSTORE PUSH1 0x20 DUP5 ADD SWAP4 POP POP PUSH1 0x20 DUP2 ADD SWAP1 POP PUSH2 0x14BD JUMP JUMPDEST POP POP POP SWAP4 SWAP3 POP POP POP JUMP JUMPDEST PUSH1 0x0 DUP3 PUSH1 0x1F DUP4 ADD SLT PUSH2 0x1503 JUMPI PUSH2 0x1502 PUSH2 0x1311 JUMP JUMPDEST JUMPDEST DUP2 CALLDATALOAD PUSH2 0x1513 DUP5 DUP3 PUSH1 0x20 DUP7 ADD PUSH2 0x1485 JUMP JUMPDEST SWAP2 POP POP SWAP3 SWAP2 POP POP JUMP JUMPDEST PUSH1 0x0 DUP1 PUSH1 0x40 DUP4 DUP6 SUB SLT ISZERO PUSH2 0x1533 JUMPI PUSH2 0x1532 PUSH2 0x1149 JUMP JUMPDEST JUMPDEST PUSH1 0x0 DUP4 ADD CALLDATALOAD PUSH8 0xFFFFFFFFFFFFFFFF DUP2 GT ISZERO PUSH2 0x1551 JUMPI PUSH2 0x1550 PUSH2 0x114E JUMP JUMPDEST JUMPDEST PUSH2 0x155D DUP6 DUP3 DUP7 ADD PUSH2 0x142B JUMP JUMPDEST SWAP3 POP POP PUSH1 0x20 DUP4 ADD CALLDATALOAD PUSH8 0xFFFFFFFFFFFFFFFF DUP2 GT ISZERO PUSH2 0x157E JUMPI PUSH2 0x157D PUSH2 0x114E JUMP JUMPDEST JUMPDEST PUSH2 0x158A DUP6 DUP3 DUP7 ADD PUSH2 0x14EE JUMP JUMPDEST SWAP2 POP POP SWAP3 POP SWAP3 SWAP1 POP JUMP JUMPDEST PUSH1 0x0 PUSH1 0x20 DUP3 DUP5 SUB SLT ISZERO PUSH2 0x15AA JUMPI PUSH2 0x15A9 PUSH2 0x1149 JUMP JUMPDEST JUMPDEST PUSH1 0x0 PUSH2 0x15B8 DUP5 DUP3 DUP6 ADD PUSH2 0x119C JUMP JUMPDEST SWAP2 POP POP SWAP3 SWAP2 POP POP JUMP JUMPDEST PUSH1 0x0 PUSH8 0xFFFFFFFFFFFFFFFF DUP3 GT ISZERO PUSH2 0x15DC JUMPI PUSH2 0x15DB PUSH2 0x1316 JUMP JUMPDEST JUMPDEST PUSH1 0x20 DUP3 MUL SWAP1 POP PUSH1 0x20 DUP2 ADD SWAP1 POP SWAP2 SWAP1 POP JUMP JUMPDEST PUSH2 0x15F6 DUP2 PUSH2 0x1227 JUMP JUMPDEST DUP2 EQ PUSH2 0x1601 JUMPI PUSH1 0x0 DUP1 REVERT JUMPDEST POP JUMP JUMPDEST PUSH1 0x0 DUP2 CALLDATALOAD SWAP1 POP PUSH2 0x1613 DUP2 PUSH2 0x15ED JUMP JUMPDEST SWAP3 SWAP2 POP POP JUMP JUMPDEST PUSH1 0x0 PUSH2 0x162C PUSH2 0x1627 DUP5 PUSH2 0x15C1 JUMP JUMPDEST PUSH2 0x1376 JUMP JUMPDEST SWAP1 POP DUP1 DUP4 DUP3 MSTORE PUSH1 0x20 DUP3 ADD SWAP1 POP PUSH1 0x20 DUP5 MUL DUP4 ADD DUP6 DUP2 GT ISZERO PUSH2 0x164F JUMPI PUSH2 0x164E PUSH2 0x13BD JUMP JUMPDEST JUMPDEST DUP4 JUMPDEST DUP2 DUP2 LT ISZERO PUSH2 0x1678 JUMPI DUP1 PUSH2 0x1664 DUP9 DUP3 PUSH2 0x1604 JUMP JUMPDEST DUP5 MSTORE PUSH1 0x20 DUP5 ADD SWAP4 POP POP PUSH1 0x20 DUP2 ADD SWAP1 POP PUSH2 0x1651 JUMP JUMPDEST POP POP POP SWAP4 SWAP3 POP POP POP JUMP JUMPDEST PUSH1 0x0 DUP3 PUSH1 0x1F DUP4 ADD SLT PUSH2 0x1697 JUMPI PUSH2 0x1696 PUSH2 0x1311 JUMP JUMPDEST JUMPDEST DUP2 CALLDATALOAD PUSH2 0x16A7 DUP5 DUP3 PUSH1 0x20 DUP7 ADD PUSH2 0x1619 JUMP JUMPDEST SWAP2 POP POP SWAP3 SWAP2 POP POP JUMP JUMPDEST PUSH1 0x0 DUP1 PUSH1 0x40 DUP4 DUP6 SUB SLT ISZERO PUSH2 0x16C7 JUMPI PUSH2 0x16C6 PUSH2 0x1149 JUMP JUMPDEST JUMPDEST PUSH1 0x0 DUP4 ADD CALLDATALOAD PUSH8 0xFFFFFFFFFFFFFFFF DUP2 GT ISZERO PUSH2 0x16E5 JUMPI PUSH2 0x16E4 PUSH2 0x114E JUMP JUMPDEST JUMPDEST PUSH2 0x16F1 DUP6 DUP3 DUP7 ADD PUSH2 0x142B JUMP JUMPDEST SWAP3 POP POP PUSH1 0x20 DUP4 ADD CALLDATALOAD PUSH8 0xFFFFFFFFFFFFFFFF DUP2 GT ISZERO PUSH2 0x1712 JUMPI PUSH2 0x1711 PUSH2 0x114E JUMP JUMPDEST JUMPDEST PUSH2 0x171E DUP6 DUP3 DUP7 ADD PUSH2 0x1682 JUMP JUMPDEST SWAP2 POP POP SWAP3 POP SWAP3 SWAP1 POP JUMP JUMPDEST PUSH1 0x0 DUP1 PUSH1 0x40 DUP4 DUP6 SUB SLT ISZERO PUSH2 0x173F JUMPI PUSH2 0x173E PUSH2 0x1149 JUMP JUMPDEST JUMPDEST PUSH1 0x0 PUSH2 0x174D DUP6 DUP3 DUP7 ADD PUSH2 0x119C JUMP JUMPDEST SWAP3 POP POP PUSH1 0x20 PUSH2 0x175E DUP6 DUP3 DUP7 ADD PUSH2 0x119C JUMP JUMPDEST SWAP2 POP POP SWAP3 POP SWAP3 SWAP1 POP JUMP JUMPDEST PUSH32 0x4E487B7100000000000000000000000000000000000000000000000000000000 PUSH1 0x0 MSTORE PUSH1 0x22 PUSH1 0x4 MSTORE PUSH1 0x24 PUSH1 0x0 REVERT JUMPDEST PUSH1 0x0 PUSH1 0x2 DUP3 DIV SWAP1 POP PUSH1 0x1 DUP3 AND DUP1 PUSH2 0x17AF JUMPI PUSH1 0x7F DUP3 AND SWAP2 POP JUMPDEST PUSH1 0x20 DUP3 LT DUP2 SUB PUSH2 0x17C2 JUMPI PUSH2 0x17C1 PUSH2 0x1768 JUMP JUMPDEST JUMPDEST POP SWAP2 SWAP1 POP JUMP JUMPDEST PUSH32 0x4E487B7100000000000000000000000000000000000000000000000000000000 PUSH1 0x0 MSTORE PUSH1 0x11 PUSH1 0x4 MSTORE PUSH1 0x24 PUSH1 0x0 REVERT JUMPDEST PUSH1 0x0 PUSH2 0x1802 DUP3 PUSH2 0x11B1 JUMP JUMPDEST SWAP2 POP PUSH32 0xFFFFFFFFFFFFFFFFFFFFFFFFFFFFFFFFFFFFFFFFFFFFFFFFFFFFFFFFFFFFFFFF DUP3 SUB PUSH2 0x1834 JUMPI PUSH2 0x1833 PUSH2 0x17C8 JUMP JUMPDEST JUMPDEST PUSH1 0x1 DUP3 ADD SWAP1 POP SWAP2 SWAP1 POP JUMP JUMPDEST PUSH1 0x0 PUSH2 0x184A DUP3 PUSH2 0x11B1 JUMP JUMPDEST SWAP2 POP PUSH2 0x1855 DUP4 PUSH2 0x11B1 JUMP JUMPDEST SWAP3 POP DUP3 DUP3 ADD SWAP1 POP DUP1 DUP3 GT ISZERO PUSH2 0x186D JUMPI PUSH2 0x186C PUSH2 0x17C8 JUMP JUMPDEST JUMPDEST SWAP3 SWAP2 POP POP JUMP JUMPDEST PUSH32 0x496E76616C696420696E70757400000000000000000000000000000000000000 PUSH1 0x0 DUP3 ADD MSTORE POP JUMP JUMPDEST PUSH1 0x0 PUSH2 0x18A9 PUSH1 0xD DUP4 PUSH2 0x1098 JUMP JUMPDEST SWAP2 POP PUSH2 0x18B4 DUP3 PUSH2 0x1873 JUMP JUMPDEST PUSH1 0x20 DUP3 ADD SWAP1 POP SWAP2 SWAP1 POP JUMP JUMPDEST PUSH1 0x0 PUSH1 0x20 DUP3 ADD SWAP1 POP DUP2 DUP2 SUB PUSH1 0x0 DUP4 ADD MSTORE PUSH2 0x18D8 DUP2 PUSH2 0x189C JUMP JUMPDEST SWAP1 POP SWAP2 SWAP1 POP JUMP JUMPDEST PUSH32 0x4E487B7100000000000000000000000000000000000000000000000000000000 PUSH1 0x0 MSTORE PUSH1 0x32 PUSH1 0x4 MSTORE PUSH1 0x24 PUSH1 0x0 REVERT JUMPDEST PUSH32 0x416D6F756E74206D7573742062652067726561746572207468616E207A65726F PUSH1 0x0 DUP3 ADD MSTORE POP JUMP JUMPDEST PUSH1 0x0 PUSH2 0x1944 PUSH1 0x20 DUP4 PUSH2 0x1098 JUMP JUMPDEST SWAP2 POP PUSH2 0x194F DUP3 PUSH2 0x190E JUMP JUMPDEST PUSH1 0x20 DUP3 ADD SWAP1 POP SWAP2 SWAP1 POP JUMP JUMPDEST PUSH1 0x0 PUSH1 0x20 DUP3 ADD SWAP1 POP DUP2 DUP2 SUB PUSH1 0x0 DUP4 ADD MSTORE PUSH2 0x1973 DUP2 PUSH2 0x1937 JUMP JUMPDEST SWAP1 POP SWAP2 SWAP1 POP JUMP JUMPDEST PUSH32 0x546F6B656E7320616C726561647920646973747269627574656420666F722074 PUSH1 0x0 DUP3 ADD MSTORE PUSH32 0x6869732079656172000000000000000000000000000000000000000000000000 PUSH1 0x20 DUP3 ADD MSTORE POP JUMP JUMPDEST PUSH1 0x0 PUSH2 0x19D6 PUSH1 0x28 DUP4 PUSH2 0x1098 JUMP JUMPDEST SWAP2 POP PUSH2 0x19E1 DUP3 PUSH2 0x197A JUMP JUMPDEST PUSH1 0x40 DUP3 ADD SWAP1 POP SWAP2 SWAP1 POP JUMP JUMPDEST PUSH1 0x0 PUSH1 0x20 DUP3 ADD SWAP1 POP DUP2 DUP2 SUB PUSH1 0x0 DUP4 ADD MSTORE PUSH2 0x1A05 DUP2 PUSH2 0x19C9 JUMP JUMPDEST SWAP1 POP SWAP2 SWAP1 POP JUMP JUMPDEST PUSH32 0x45524332303A2064656372656173656420616C6C6F77616E63652062656C6F77 PUSH1 0x0 DUP3 ADD MSTORE PUSH32 0x207A65726F000000000000000000000000000000000000000000000000000000 PUSH1 0x20 DUP3 ADD MSTORE POP JUMP JUMPDEST PUSH1 0x0 PUSH2 0x1A68 PUSH1 0x25 DUP4 PUSH2 0x1098 JUMP JUMPDEST SWAP2 POP PUSH2 0x1A73 DUP3 PUSH2 0x1A0C JUMP JUMPDEST PUSH1 0x40 DUP3 ADD SWAP1 POP SWAP2 SWAP1 POP JUMP JUMPDEST PUSH1 0x0 PUSH1 0x20 DUP3 ADD SWAP1 POP DUP2 DUP2 SUB PUSH1 0x0 DUP4 ADD MSTORE PUSH2 0x1A97 DUP2 PUSH2 0x1A5B JUMP JUMPDEST SWAP1 POP SWAP2 SWAP1 POP JUMP JUMPDEST PUSH32 0x45524332303A20617070726F76652066726F6D20746865207A65726F20616464 PUSH1 0x0 DUP3 ADD MSTORE PUSH32 0x7265737300000000000000000000000000000000000000000000000000000000 PUSH1 0x20 DUP3 ADD MSTORE POP JUMP JUMPDEST PUSH1 0x0 PUSH2 0x1AFA PUSH1 0x24 DUP4 PUSH2 0x1098 JUMP JUMPDEST SWAP2 POP PUSH2 0x1B05 DUP3 PUSH2 0x1A9E JUMP JUMPDEST PUSH1 0x40 DUP3 ADD SWAP1 POP SWAP2 SWAP1 POP JUMP JUMPDEST PUSH1 0x0 PUSH1 0x20 DUP3 ADD SWAP1 POP DUP2 DUP2 SUB PUSH1 0x0 DUP4 ADD MSTORE PUSH2 0x1B29 DUP2 PUSH2 0x1AED JUMP JUMPDEST SWAP1 POP SWAP2 SWAP1 POP JUMP JUMPDEST PUSH32 0x45524332303A20617070726F766520746F20746865207A65726F206164647265 PUSH1 0x0 DUP3 ADD MSTORE PUSH32 0x7373000000000000000000000000000000000000000000000000000000000000 PUSH1 0x20 DUP3 ADD MSTORE POP JUMP JUMPDEST PUSH1 0x0 PUSH2 0x1B8C PUSH1 0x22 DUP4 PUSH2 0x1098 JUMP JUMPDEST SWAP2 POP PUSH2 0x1B97 DUP3 PUSH2 0x1B30 JUMP JUMPDEST PUSH1 0x40 DUP3 ADD SWAP1 POP SWAP2 SWAP1 POP JUMP JUMPDEST PUSH1 0x0 PUSH1 0x20 DUP3 ADD SWAP1 POP DUP2 DUP2 SUB PUSH1 0x0 DUP4 ADD MSTORE PUSH2 0x1BBB DUP2 PUSH2 0x1B7F JUMP JUMPDEST SWAP1 POP SWAP2 SWAP1 POP JUMP JUMPDEST PUSH32 0x45524332303A20696E73756666696369656E7420616C6C6F77616E6365000000 PUSH1 0x0 DUP3 ADD MSTORE POP JUMP JUMPDEST PUSH1 0x0 PUSH2 0x1BF8 PUSH1 0x1D DUP4 PUSH2 0x1098 JUMP JUMPDEST SWAP2 POP PUSH2 0x1C03 DUP3 PUSH2 0x1BC2 JUMP JUMPDEST PUSH1 0x20 DUP3 ADD SWAP1 POP SWAP2 SWAP1 POP JUMP JUMPDEST PUSH1 0x0 PUSH1 0x20 DUP3 ADD SWAP1 POP DUP2 DUP2 SUB PUSH1 0x0 DUP4 ADD MSTORE PUSH2 0x1C27 DUP2 PUSH2 0x1BEB JUMP JUMPDEST SWAP1 POP SWAP2 SWAP1 POP JUMP JUMPDEST PUSH32 0x45524332303A207472616E736665722066726F6D20746865207A65726F206164 PUSH1 0x0 DUP3 ADD MSTORE PUSH32 0x6472657373000000000000000000000000000000000000000000000000000000 PUSH1 0x20 DUP3 ADD MSTORE POP JUMP JUMPDEST PUSH1 0x0 PUSH2 0x1C8A PUSH1 0x25 DUP4 PUSH2 0x1098 JUMP JUMPDEST SWAP2 POP PUSH2 0x1C95 DUP3 PUSH2 0x1C2E JUMP JUMPDEST PUSH1 0x40 DUP3 ADD SWAP1 POP SWAP2 SWAP1 POP JUMP JUMPDEST PUSH1 0x0 PUSH1 0x20 DUP3 ADD SWAP1 POP DUP2 DUP2 SUB PUSH1 0x0 DUP4 ADD MSTORE PUSH2 0x1CB9 DUP2 PUSH2 0x1C7D JUMP JUMPDEST SWAP1 POP SWAP2 SWAP1 POP JUMP JUMPDEST PUSH32 0x45524332303A207472616E7366657220746F20746865207A65726F2061646472 PUSH1 0x0 DUP3 ADD MSTORE PUSH32 0x6573730000000000000000000000000000000000000000000000000000000000 PUSH1 0x20 DUP3 ADD MSTORE POP JUMP JUMPDEST PUSH1 0x0 PUSH2 0x1D1C PUSH1 0x23 DUP4 PUSH2 0x1098 JUMP JUMPDEST SWAP2 POP PUSH2 0x1D27 DUP3 PUSH2 0x1CC0 JUMP JUMPDEST PUSH1 0x40 DUP3 ADD SWAP1 POP SWAP2 SWAP1 POP JUMP JUMPDEST PUSH1 0x0 PUSH1 0x20 DUP3 ADD SWAP1 POP DUP2 DUP2 SUB PUSH1 0x0 DUP4 ADD MSTORE PUSH2 0x1D4B DUP2 PUSH2 0x1D0F JUMP JUMPDEST SWAP1 POP SWAP2 SWAP1 POP JUMP JUMPDEST PUSH32 0x45524332303A207472616E7366657220616D6F756E7420657863656564732062 PUSH1 0x0 DUP3 ADD MSTORE PUSH32 0x616C616E63650000000000000000000000000000000000000000000000000000 PUSH1 0x20 DUP3 ADD MSTORE POP JUMP JUMPDEST PUSH1 0x0 PUSH2 0x1DAE PUSH1 0x26 DUP4 PUSH2 0x1098 JUMP JUMPDEST SWAP2 POP PUSH2 0x1DB9 DUP3 PUSH2 0x1D52 JUMP JUMPDEST PUSH1 0x40 DUP3 ADD SWAP1 POP SWAP2 SWAP1 POP JUMP JUMPDEST PUSH1 0x0 PUSH1 0x20 DUP3 ADD SWAP1 POP DUP2 DUP2 SUB PUSH1 0x0 DUP4 ADD MSTORE PUSH2 0x1DDD DUP2 PUSH2 0x1DA1 JUMP JUMPDEST SWAP1 POP SWAP2 SWAP1 POP JUMP INVALID LOG2 PUSH5 0x6970667358 0x22 SLT KECCAK256 0xBD 0xF PUSH21 0x1C8A44F00D32A8CA8D9D450153678F41EABCAE56CC PUSH20 0xBD30D6A4B9789964736F6C634300081200330000 "
				},
				"gasEstimates": {
					"creation": {
						"codeDepositCost": "1541200",
						"executionCost": "infinite",
						"totalCost": "infinite"
					},
					"external": {
						"allowance(address,address)": "infinite",
						"approve(address,uint256)": "infinite",
						"balanceOf(address)": "2864",
						"decimals()": "388",
						"decreaseAllowance(address,uint256)": "infinite",
						"distributeTokens(address[],uint256[])": "infinite",
						"getClaimed(address)": "3027",
						"getDistributedType(address)": "2983",
						"getEnterpriseType(address)": "2999",
						"increaseAllowance(address,uint256)": "infinite",
						"name()": "infinite",
						"nextYear()": "24569",
						"setAddressInfo(address[],bool[])": "infinite",
						"symbol()": "infinite",
						"totalSupply()": "2527",
						"transfer(address,uint256)": "infinite",
						"transferFrom(address,address,uint256)": "infinite"
					}
				},
				"methodIdentifiers": {
					"allowance(address,address)": "dd62ed3e",
					"approve(address,uint256)": "095ea7b3",
					"balanceOf(address)": "70a08231",
					"decimals()": "313ce567",
					"decreaseAllowance(address,uint256)": "a457c2d7",
					"distributeTokens(address[],uint256[])": "4bd09c2a",
					"getClaimed(address)": "eb46260e",
					"getDistributedType(address)": "b0ef2f68",
					"getEnterpriseType(address)": "ed6387b7",
					"increaseAllowance(address,uint256)": "39509351",
					"name()": "06fdde03",
					"nextYear()": "146bea7b",
					"setAddressInfo(address[],bool[])": "865cf788",
					"symbol()": "95d89b41",
					"totalSupply()": "18160ddd",
					"transfer(address,uint256)": "a9059cbb",
					"transferFrom(address,address,uint256)": "23b872dd"
				}
			},
			"storageLayout": {
				"storage": [
					{
						"astId": 15,
						"contract": "Desktop/CarbonToken/CarbonToken/carbonToken.sol:CTToken",
						"label": "_balances",
						"offset": 0,
						"slot": "0",
						"type": "t_mapping(t_address,t_uint256)"
					},
					{
						"astId": 21,
						"contract": "Desktop/CarbonToken/CarbonToken/carbonToken.sol:CTToken",
						"label": "_allowances",
						"offset": 0,
						"slot": "1",
						"type": "t_mapping(t_address,t_mapping(t_address,t_uint256))"
					},
					{
						"astId": 23,
						"contract": "Desktop/CarbonToken/CarbonToken/carbonToken.sol:CTToken",
						"label": "_totalSupply",
						"offset": 0,
						"slot": "2",
						"type": "t_uint256"
					},
					{
						"astId": 25,
						"contract": "Desktop/CarbonToken/CarbonToken/carbonToken.sol:CTToken",
						"label": "_name",
						"offset": 0,
						"slot": "3",
						"type": "t_string_storage"
					},
					{
						"astId": 27,
						"contract": "Desktop/CarbonToken/CarbonToken/carbonToken.sol:CTToken",
						"label": "_symbol",
						"offset": 0,
						"slot": "4",
						"type": "t_string_storage"
					},
					{
						"astId": 728,
						"contract": "Desktop/CarbonToken/CarbonToken/carbonToken.sol:CTToken",
						"label": "addressInfo",
						"offset": 0,
						"slot": "5",
						"type": "t_mapping(t_address,t_struct(AddressInfo)723_storage)"
					},
					{
						"astId": 730,
						"contract": "Desktop/CarbonToken/CarbonToken/carbonToken.sol:CTToken",
						"label": "currentYear",
						"offset": 0,
						"slot": "6",
						"type": "t_uint256"
					}
				],
				"types": {
					"t_address": {
						"encoding": "inplace",
						"label": "address",
						"numberOfBytes": "20"
					},
					"t_bool": {
						"encoding": "inplace",
						"label": "bool",
						"numberOfBytes": "1"
					},
					"t_mapping(t_address,t_mapping(t_address,t_uint256))": {
						"encoding": "mapping",
						"key": "t_address",
						"label": "mapping(address => mapping(address => uint256))",
						"numberOfBytes": "32",
						"value": "t_mapping(t_address,t_uint256)"
					},
					"t_mapping(t_address,t_struct(AddressInfo)723_storage)": {
						"encoding": "mapping",
						"key": "t_address",
						"label": "mapping(address => struct CTToken.AddressInfo)",
						"numberOfBytes": "32",
						"value": "t_struct(AddressInfo)723_storage"
					},
					"t_mapping(t_address,t_uint256)": {
						"encoding": "mapping",
						"key": "t_address",
						"label": "mapping(address => uint256)",
						"numberOfBytes": "32",
						"value": "t_uint256"
					},
					"t_string_storage": {
						"encoding": "bytes",
						"label": "string",
						"numberOfBytes": "32"
					},
					"t_struct(AddressInfo)723_storage": {
						"encoding": "inplace",
						"label": "struct CTToken.AddressInfo",
						"members": [
							{
								"astId": 718,
								"contract": "Desktop/CarbonToken/CarbonToken/carbonToken.sol:CTToken",
								"label": "isEnterprise",
								"offset": 0,
								"slot": "0",
								"type": "t_bool"
							},
							{
								"astId": 720,
								"contract": "Desktop/CarbonToken/CarbonToken/carbonToken.sol:CTToken",
								"label": "isDistributed",
								"offset": 1,
								"slot": "0",
								"type": "t_bool"
							},
							{
								"astId": 722,
								"contract": "Desktop/CarbonToken/CarbonToken/carbonToken.sol:CTToken",
								"label": "isClaimed",
								"offset": 2,
								"slot": "0",
								"type": "t_bool"
							}
						],
						"numberOfBytes": "32"
					},
					"t_uint256": {
						"encoding": "inplace",
						"label": "uint256",
						"numberOfBytes": "32"
					}
				}
			},
			"userdoc": {
				"kind": "user",
				"methods": {},
				"version": 1
			}
		}
	}
}