{
	"Desktop/CarbonToken/TheTwoDaos/EnterpriseDao.sol": {
		"enterpriseDao": {
			"abi": [
				{
					"inputs": [
						{
							"internalType": "address",
							"name": "enterpriseAddress",
							"type": "address"
						},
						{
							"internalType": "address",
							"name": "CTaddress",
							"type": "address"
						}
					],
					"stateMutability": "nonpayable",
					"type": "constructor"
				},
				{
					"inputs": [],
					"name": "cTToken",
					"outputs": [
						{
							"internalType": "contract CTToken",
							"name": "",
							"type": "address"
						}
					],
					"stateMutability": "view",
					"type": "function"
				},
				{
					"inputs": [],
					"name": "claim",
					"outputs": [
						{
							"internalType": "uint256",
							"name": "",
							"type": "uint256"
						}
					],
					"stateMutability": "view",
					"type": "function"
				},
				{
					"inputs": [
						{
							"internalType": "bytes32[]",
							"name": "proof",
							"type": "bytes32[]"
						}
					],
					"name": "isClaimed",
					"outputs": [
						{
							"internalType": "bool",
							"name": "",
							"type": "bool"
						}
					],
					"stateMutability": "view",
					"type": "function"
				},
				{
					"inputs": [
						{
							"internalType": "bytes32[]",
							"name": "proof",
							"type": "bytes32[]"
						}
					],
					"name": "isMember",
					"outputs": [
						{
							"internalType": "bool",
							"name": "",
							"type": "bool"
						}
					],
					"stateMutability": "view",
					"type": "function"
				},
				{
					"inputs": [
						{
							"internalType": "address",
							"name": "setEnterpriseAddress",
							"type": "address"
						},
						{
							"internalType": "uint256",
							"name": "score",
							"type": "uint256"
						},
						{
							"internalType": "uint256",
							"name": "_efficacy",
							"type": "uint256"
						}
					],
					"name": "setType",
					"outputs": [],
					"stateMutability": "nonpayable",
					"type": "function"
				}
			],
			"devdoc": {
				"kind": "dev",
				"methods": {},
				"version": 1
			},
			"evm": {
				"assembly": "    /* \"Desktop/CarbonToken/TheTwoDaos/EnterpriseDao.sol\":105:2158  contract enterpriseDao {... */\n  mstore(0x40, 0x80)\n    /* \"Desktop/CarbonToken/TheTwoDaos/EnterpriseDao.sol\":488:638  constructor(address enterpriseAddress, address CTaddress) {... */\n  callvalue\n  dup1\n  iszero\n  tag_1\n  jumpi\n  0x00\n  dup1\n  revert\ntag_1:\n  pop\n  mload(0x40)\n  sub(codesize, bytecodeSize)\n  dup1\n  bytecodeSize\n  dup4\n  codecopy\n  dup2\n  dup2\n  add\n  0x40\n  mstore\n  dup2\n  add\n  swap1\n  tag_2\n  swap2\n  swap1\n  tag_3\n  jump\t// in\ntag_2:\n    /* \"Desktop/CarbonToken/TheTwoDaos/EnterpriseDao.sol\":576:593  enterpriseAddress */\n  dup2\n    /* \"Desktop/CarbonToken/TheTwoDaos/EnterpriseDao.sol\":556:573  EnterpriseAddress */\n  0x00\n  dup1\n    /* \"Desktop/CarbonToken/TheTwoDaos/EnterpriseDao.sol\":556:593  EnterpriseAddress = enterpriseAddress */\n  0x0100\n  exp\n  dup2\n  sload\n  dup2\n  0xffffffffffffffffffffffffffffffffffffffff\n  mul\n  not\n  and\n  swap1\n  dup4\n  0xffffffffffffffffffffffffffffffffffffffff\n  and\n  mul\n  or\n  swap1\n  sstore\n  pop\n    /* \"Desktop/CarbonToken/TheTwoDaos/EnterpriseDao.sol\":621:630  CTaddress */\n  dup1\n    /* \"Desktop/CarbonToken/TheTwoDaos/EnterpriseDao.sol\":603:610  cTToken */\n  0x05\n  0x00\n    /* \"Desktop/CarbonToken/TheTwoDaos/EnterpriseDao.sol\":603:631  cTToken = CTToken(CTaddress) */\n  0x0100\n  exp\n  dup2\n  sload\n  dup2\n  0xffffffffffffffffffffffffffffffffffffffff\n  mul\n  not\n  and\n  swap1\n  dup4\n  0xffffffffffffffffffffffffffffffffffffffff\n  and\n  mul\n  or\n  swap1\n  sstore\n  pop\n    /* \"Desktop/CarbonToken/TheTwoDaos/EnterpriseDao.sol\":488:638  constructor(address enterpriseAddress, address CTaddress) {... */\n  pop\n  pop\n    /* \"Desktop/CarbonToken/TheTwoDaos/EnterpriseDao.sol\":105:2158  contract enterpriseDao {... */\n  jump(tag_6)\n    /* \"#utility.yul\":88:205   */\ntag_8:\n    /* \"#utility.yul\":197:198   */\n  0x00\n    /* \"#utility.yul\":194:195   */\n  dup1\n    /* \"#utility.yul\":187:199   */\n  revert\n    /* \"#utility.yul\":334:460   */\ntag_10:\n    /* \"#utility.yul\":371:378   */\n  0x00\n    /* \"#utility.yul\":411:453   */\n  0xffffffffffffffffffffffffffffffffffffffff\n    /* \"#utility.yul\":404:409   */\n  dup3\n    /* \"#utility.yul\":400:454   */\n  and\n    /* \"#utility.yul\":389:454   */\n  swap1\n  pop\n    /* \"#utility.yul\":334:460   */\n  swap2\n  swap1\n  pop\n  jump\t// out\n    /* \"#utility.yul\":466:562   */\ntag_11:\n    /* \"#utility.yul\":503:510   */\n  0x00\n    /* \"#utility.yul\":532:556   */\n  tag_20\n    /* \"#utility.yul\":550:555   */\n  dup3\n    /* \"#utility.yul\":532:556   */\n  tag_10\n  jump\t// in\ntag_20:\n    /* \"#utility.yul\":521:556   */\n  swap1\n  pop\n    /* \"#utility.yul\":466:562   */\n  swap2\n  swap1\n  pop\n  jump\t// out\n    /* \"#utility.yul\":568:690   */\ntag_12:\n    /* \"#utility.yul\":641:665   */\n  tag_22\n    /* \"#utility.yul\":659:664   */\n  dup2\n    /* \"#utility.yul\":641:665   */\n  tag_11\n  jump\t// in\ntag_22:\n    /* \"#utility.yul\":634:639   */\n  dup2\n    /* \"#utility.yul\":631:666   */\n  eq\n    /* \"#utility.yul\":621:684   */\n  tag_23\n  jumpi\n    /* \"#utility.yul\":680:681   */\n  0x00\n    /* \"#utility.yul\":677:678   */\n  dup1\n    /* \"#utility.yul\":670:682   */\n  revert\n    /* \"#utility.yul\":621:684   */\ntag_23:\n    /* \"#utility.yul\":568:690   */\n  pop\n  jump\t// out\n    /* \"#utility.yul\":696:839   */\ntag_13:\n    /* \"#utility.yul\":753:758   */\n  0x00\n    /* \"#utility.yul\":784:790   */\n  dup2\n    /* \"#utility.yul\":778:791   */\n  mload\n    /* \"#utility.yul\":769:791   */\n  swap1\n  pop\n    /* \"#utility.yul\":800:833   */\n  tag_25\n    /* \"#utility.yul\":827:832   */\n  dup2\n    /* \"#utility.yul\":800:833   */\n  tag_12\n  jump\t// in\ntag_25:\n    /* \"#utility.yul\":696:839   */\n  swap3\n  swap2\n  pop\n  pop\n  jump\t// out\n    /* \"#utility.yul\":845:1352   */\ntag_3:\n    /* \"#utility.yul\":924:930   */\n  0x00\n    /* \"#utility.yul\":932:938   */\n  dup1\n    /* \"#utility.yul\":981:983   */\n  0x40\n    /* \"#utility.yul\":969:978   */\n  dup4\n    /* \"#utility.yul\":960:967   */\n  dup6\n    /* \"#utility.yul\":956:979   */\n  sub\n    /* \"#utility.yul\":952:984   */\n  slt\n    /* \"#utility.yul\":949:1068   */\n  iszero\n  tag_27\n  jumpi\n    /* \"#utility.yul\":987:1066   */\n  tag_28\n  tag_8\n  jump\t// in\ntag_28:\n    /* \"#utility.yul\":949:1068   */\ntag_27:\n    /* \"#utility.yul\":1107:1108   */\n  0x00\n    /* \"#utility.yul\":1132:1196   */\n  tag_29\n    /* \"#utility.yul\":1188:1195   */\n  dup6\n    /* \"#utility.yul\":1179:1185   */\n  dup3\n    /* \"#utility.yul\":1168:1177   */\n  dup7\n    /* \"#utility.yul\":1164:1186   */\n  add\n    /* \"#utility.yul\":1132:1196   */\n  tag_13\n  jump\t// in\ntag_29:\n    /* \"#utility.yul\":1122:1196   */\n  swap3\n  pop\n    /* \"#utility.yul\":1078:1206   */\n  pop\n    /* \"#utility.yul\":1245:1247   */\n  0x20\n    /* \"#utility.yul\":1271:1335   */\n  tag_30\n    /* \"#utility.yul\":1327:1334   */\n  dup6\n    /* \"#utility.yul\":1318:1324   */\n  dup3\n    /* \"#utility.yul\":1307:1316   */\n  dup7\n    /* \"#utility.yul\":1303:1325   */\n  add\n    /* \"#utility.yul\":1271:1335   */\n  tag_13\n  jump\t// in\ntag_30:\n    /* \"#utility.yul\":1261:1335   */\n  swap2\n  pop\n    /* \"#utility.yul\":1216:1345   */\n  pop\n    /* \"#utility.yul\":845:1352   */\n  swap3\n  pop\n  swap3\n  swap1\n  pop\n  jump\t// out\n    /* \"Desktop/CarbonToken/TheTwoDaos/EnterpriseDao.sol\":105:2158  contract enterpriseDao {... */\ntag_6:\n  dataSize(sub_0)\n  dup1\n  dataOffset(sub_0)\n  0x00\n  codecopy\n  0x00\n  return\nstop\n\nsub_0: assembly {\n        /* \"Desktop/CarbonToken/TheTwoDaos/EnterpriseDao.sol\":105:2158  contract enterpriseDao {... */\n      mstore(0x40, 0x80)\n      callvalue\n      dup1\n      iszero\n      tag_1\n      jumpi\n      0x00\n      dup1\n      revert\n    tag_1:\n      pop\n      jumpi(tag_2, lt(calldatasize, 0x04))\n      shr(0xe0, calldataload(0x00))\n      dup1\n      0x4317615a\n      eq\n      tag_3\n      jumpi\n      dup1\n      0x4e71d92d\n      eq\n      tag_4\n      jumpi\n      dup1\n      0xa35602f0\n      eq\n      tag_5\n      jumpi\n      dup1\n      0xf62ea2aa\n      eq\n      tag_6\n      jumpi\n      dup1\n      0xf8a8256d\n      eq\n      tag_7\n      jumpi\n    tag_2:\n      0x00\n      dup1\n      revert\n        /* \"Desktop/CarbonToken/TheTwoDaos/EnterpriseDao.sol\":1378:1708  function setType(address setEnterpriseAddress, uint256 score,uint256 _efficacy) external onlyintendant{... */\n    tag_3:\n      tag_8\n      0x04\n      dup1\n      calldatasize\n      sub\n      dup2\n      add\n      swap1\n      tag_9\n      swap2\n      swap1\n      tag_10\n      jump\t// in\n    tag_9:\n      tag_11\n      jump\t// in\n    tag_8:\n      stop\n        /* \"Desktop/CarbonToken/TheTwoDaos/EnterpriseDao.sol\":2049:2156  function claim() external view returns(uint256){... */\n    tag_4:\n      tag_12\n      tag_13\n      jump\t// in\n    tag_12:\n      mload(0x40)\n      tag_14\n      swap2\n      swap1\n      tag_15\n      jump\t// in\n    tag_14:\n      mload(0x40)\n      dup1\n      swap2\n      sub\n      swap1\n      return\n        /* \"Desktop/CarbonToken/TheTwoDaos/EnterpriseDao.sol\":644:1372  function isMember(bytes32[] memory proof) public view returns (bool) {... */\n    tag_5:\n      tag_16\n      0x04\n      dup1\n      calldatasize\n      sub\n      dup2\n      add\n      swap1\n      tag_17\n      swap2\n      swap1\n      tag_18\n      jump\t// in\n    tag_17:\n      tag_19\n      jump\t// in\n    tag_16:\n      mload(0x40)\n      tag_20\n      swap2\n      swap1\n      tag_21\n      jump\t// in\n    tag_20:\n      mload(0x40)\n      dup1\n      swap2\n      sub\n      swap1\n      return\n        /* \"Desktop/CarbonToken/TheTwoDaos/EnterpriseDao.sol\":328:350  CTToken public cTToken */\n    tag_6:\n      tag_22\n      tag_23\n      jump\t// in\n    tag_22:\n      mload(0x40)\n      tag_24\n      swap2\n      swap1\n      tag_25\n      jump\t// in\n    tag_24:\n      mload(0x40)\n      dup1\n      swap2\n      sub\n      swap1\n      return\n        /* \"Desktop/CarbonToken/TheTwoDaos/EnterpriseDao.sol\":1746:2015  function isClaimed(bytes32[] memory proof) external view returns(bool){... */\n    tag_7:\n      tag_26\n      0x04\n      dup1\n      calldatasize\n      sub\n      dup2\n      add\n      swap1\n      tag_27\n      swap2\n      swap1\n      tag_18\n      jump\t// in\n    tag_27:\n      tag_28\n      jump\t// in\n    tag_26:\n      mload(0x40)\n      tag_29\n      swap2\n      swap1\n      tag_21\n      jump\t// in\n    tag_29:\n      mload(0x40)\n      dup1\n      swap2\n      sub\n      swap1\n      return\n        /* \"Desktop/CarbonToken/TheTwoDaos/EnterpriseDao.sol\":1378:1708  function setType(address setEnterpriseAddress, uint256 score,uint256 _efficacy) external onlyintendant{... */\n    tag_11:\n        /* \"Desktop/CarbonToken/TheTwoDaos/EnterpriseDao.sol\":413:422  intendant */\n      0x01\n      0x00\n      swap1\n      sload\n      swap1\n      0x0100\n      exp\n      swap1\n      div\n      0xffffffffffffffffffffffffffffffffffffffff\n      and\n        /* \"Desktop/CarbonToken/TheTwoDaos/EnterpriseDao.sol\":399:422  msg.sender == intendant */\n      0xffffffffffffffffffffffffffffffffffffffff\n      and\n        /* \"Desktop/CarbonToken/TheTwoDaos/EnterpriseDao.sol\":399:409  msg.sender */\n      caller\n        /* \"Desktop/CarbonToken/TheTwoDaos/EnterpriseDao.sol\":399:422  msg.sender == intendant */\n      0xffffffffffffffffffffffffffffffffffffffff\n      and\n      eq\n        /* \"Desktop/CarbonToken/TheTwoDaos/EnterpriseDao.sol\":391:464  require(msg.sender == intendant, \"Only intendant can call this function\") */\n      tag_31\n      jumpi\n      mload(0x40)\n      0x08c379a000000000000000000000000000000000000000000000000000000000\n      dup2\n      mstore\n      0x04\n      add\n      tag_32\n      swap1\n      tag_33\n      jump\t// in\n    tag_32:\n      mload(0x40)\n      dup1\n      swap2\n      sub\n      swap1\n      revert\n    tag_31:\n        /* \"Desktop/CarbonToken/TheTwoDaos/EnterpriseDao.sol\":1490:1506  bool Distributed */\n      0x00\n        /* \"Desktop/CarbonToken/TheTwoDaos/EnterpriseDao.sol\":1509:1516  cTToken */\n      0x05\n      0x00\n      swap1\n      sload\n      swap1\n      0x0100\n      exp\n      swap1\n      div\n      0xffffffffffffffffffffffffffffffffffffffff\n      and\n        /* \"Desktop/CarbonToken/TheTwoDaos/EnterpriseDao.sol\":1509:1535  cTToken.getDistributedType */\n      0xffffffffffffffffffffffffffffffffffffffff\n      and\n      0xb0ef2f68\n        /* \"Desktop/CarbonToken/TheTwoDaos/EnterpriseDao.sol\":1536:1556  setEnterpriseAddress */\n      dup6\n        /* \"Desktop/CarbonToken/TheTwoDaos/EnterpriseDao.sol\":1509:1557  cTToken.getDistributedType(setEnterpriseAddress) */\n      mload(0x40)\n      dup3\n      0xffffffff\n      and\n      0xe0\n      shl\n      dup2\n      mstore\n      0x04\n      add\n      tag_35\n      swap2\n      swap1\n      tag_36\n      jump\t// in\n    tag_35:\n      0x20\n      mload(0x40)\n      dup1\n      dup4\n      sub\n      dup2\n      dup7\n      gas\n      staticcall\n      iszero\n      dup1\n      iszero\n      tag_38\n      jumpi\n      returndatasize\n      0x00\n      dup1\n      returndatacopy\n      revert(0x00, returndatasize)\n    tag_38:\n      pop\n      pop\n      pop\n      pop\n      mload(0x40)\n      returndatasize\n      not(0x1f)\n      0x1f\n      dup3\n      add\n      and\n      dup3\n      add\n      dup1\n      0x40\n      mstore\n      pop\n      dup2\n      add\n      swap1\n      tag_39\n      swap2\n      swap1\n      tag_40\n      jump\t// in\n    tag_39:\n        /* \"Desktop/CarbonToken/TheTwoDaos/EnterpriseDao.sol\":1490:1557  bool Distributed = cTToken.getDistributedType(setEnterpriseAddress) */\n      swap1\n      pop\n        /* \"Desktop/CarbonToken/TheTwoDaos/EnterpriseDao.sol\":1571:1582  Distributed */\n      dup1\n        /* \"Desktop/CarbonToken/TheTwoDaos/EnterpriseDao.sol\":1567:1702  if (Distributed) {... */\n      iszero\n      tag_41\n      jumpi\n        /* \"Desktop/CarbonToken/TheTwoDaos/EnterpriseDao.sol\":1630:1635  score */\n      dup3\n        /* \"Desktop/CarbonToken/TheTwoDaos/EnterpriseDao.sol\":1598:1605  theType */\n      0x03\n        /* \"Desktop/CarbonToken/TheTwoDaos/EnterpriseDao.sol\":1598:1627  theType[setEnterpriseAddress] */\n      0x00\n        /* \"Desktop/CarbonToken/TheTwoDaos/EnterpriseDao.sol\":1606:1626  setEnterpriseAddress */\n      dup7\n        /* \"Desktop/CarbonToken/TheTwoDaos/EnterpriseDao.sol\":1598:1627  theType[setEnterpriseAddress] */\n      0xffffffffffffffffffffffffffffffffffffffff\n      and\n      0xffffffffffffffffffffffffffffffffffffffff\n      and\n      dup2\n      mstore\n      0x20\n      add\n      swap1\n      dup2\n      mstore\n      0x20\n      add\n      0x00\n      keccak256\n        /* \"Desktop/CarbonToken/TheTwoDaos/EnterpriseDao.sol\":1598:1635  theType[setEnterpriseAddress] = score */\n      dup2\n      swap1\n      sstore\n      pop\n        /* \"Desktop/CarbonToken/TheTwoDaos/EnterpriseDao.sol\":1682:1691  _efficacy */\n      dup2\n        /* \"Desktop/CarbonToken/TheTwoDaos/EnterpriseDao.sol\":1649:1657  efficacy */\n      0x04\n        /* \"Desktop/CarbonToken/TheTwoDaos/EnterpriseDao.sol\":1649:1679  efficacy[setEnterpriseAddress] */\n      0x00\n        /* \"Desktop/CarbonToken/TheTwoDaos/EnterpriseDao.sol\":1658:1678  setEnterpriseAddress */\n      dup7\n        /* \"Desktop/CarbonToken/TheTwoDaos/EnterpriseDao.sol\":1649:1679  efficacy[setEnterpriseAddress] */\n      0xffffffffffffffffffffffffffffffffffffffff\n      and\n      0xffffffffffffffffffffffffffffffffffffffff\n      and\n      dup2\n      mstore\n      0x20\n      add\n      swap1\n      dup2\n      mstore\n      0x20\n      add\n      0x00\n      keccak256\n        /* \"Desktop/CarbonToken/TheTwoDaos/EnterpriseDao.sol\":1649:1691  efficacy[setEnterpriseAddress] = _efficacy */\n      dup2\n      swap1\n      sstore\n      pop\n        /* \"Desktop/CarbonToken/TheTwoDaos/EnterpriseDao.sol\":1567:1702  if (Distributed) {... */\n    tag_41:\n        /* \"Desktop/CarbonToken/TheTwoDaos/EnterpriseDao.sol\":1480:1708  {... */\n      pop\n        /* \"Desktop/CarbonToken/TheTwoDaos/EnterpriseDao.sol\":1378:1708  function setType(address setEnterpriseAddress, uint256 score,uint256 _efficacy) external onlyintendant{... */\n      pop\n      pop\n      pop\n      jump\t// out\n        /* \"Desktop/CarbonToken/TheTwoDaos/EnterpriseDao.sol\":2049:2156  function claim() external view returns(uint256){... */\n    tag_13:\n        /* \"Desktop/CarbonToken/TheTwoDaos/EnterpriseDao.sol\":2088:2095  uint256 */\n      0x00\n        /* \"Desktop/CarbonToken/TheTwoDaos/EnterpriseDao.sol\":2113:2120  cTToken */\n      0x05\n      0x00\n      swap1\n      sload\n      swap1\n      0x0100\n      exp\n      swap1\n      div\n      0xffffffffffffffffffffffffffffffffffffffff\n      and\n        /* \"Desktop/CarbonToken/TheTwoDaos/EnterpriseDao.sol\":2113:2130  cTToken.balanceOf */\n      0xffffffffffffffffffffffffffffffffffffffff\n      and\n      0x70a08231\n        /* \"Desktop/CarbonToken/TheTwoDaos/EnterpriseDao.sol\":2131:2148  EnterpriseAddress */\n      0x00\n      dup1\n      sload\n      swap1\n      0x0100\n      exp\n      swap1\n      div\n      0xffffffffffffffffffffffffffffffffffffffff\n      and\n        /* \"Desktop/CarbonToken/TheTwoDaos/EnterpriseDao.sol\":2113:2149  cTToken.balanceOf(EnterpriseAddress) */\n      mload(0x40)\n      dup3\n      0xffffffff\n      and\n      0xe0\n      shl\n      dup2\n      mstore\n      0x04\n      add\n      tag_43\n      swap2\n      swap1\n      tag_36\n      jump\t// in\n    tag_43:\n      0x20\n      mload(0x40)\n      dup1\n      dup4\n      sub\n      dup2\n      dup7\n      gas\n      staticcall\n      iszero\n      dup1\n      iszero\n      tag_45\n      jumpi\n      returndatasize\n      0x00\n      dup1\n      returndatacopy\n      revert(0x00, returndatasize)\n    tag_45:\n      pop\n      pop\n      pop\n      pop\n      mload(0x40)\n      returndatasize\n      not(0x1f)\n      0x1f\n      dup3\n      add\n      and\n      dup3\n      add\n      dup1\n      0x40\n      mstore\n      pop\n      dup2\n      add\n      swap1\n      tag_46\n      swap2\n      swap1\n      tag_47\n      jump\t// in\n    tag_46:\n        /* \"Desktop/CarbonToken/TheTwoDaos/EnterpriseDao.sol\":2106:2149  return cTToken.balanceOf(EnterpriseAddress) */\n      swap1\n      pop\n        /* \"Desktop/CarbonToken/TheTwoDaos/EnterpriseDao.sol\":2049:2156  function claim() external view returns(uint256){... */\n      swap1\n      jump\t// out\n        /* \"Desktop/CarbonToken/TheTwoDaos/EnterpriseDao.sol\":644:1372  function isMember(bytes32[] memory proof) public view returns (bool) {... */\n    tag_19:\n        /* \"Desktop/CarbonToken/TheTwoDaos/EnterpriseDao.sol\":707:711  bool */\n      0x00\n        /* \"Desktop/CarbonToken/TheTwoDaos/EnterpriseDao.sol\":723:743  bytes32 computedHash */\n      dup1\n        /* \"Desktop/CarbonToken/TheTwoDaos/EnterpriseDao.sol\":773:790  EnterpriseAddress */\n      0x00\n      dup1\n      sload\n      swap1\n      0x0100\n      exp\n      swap1\n      div\n      0xffffffffffffffffffffffffffffffffffffffff\n      and\n        /* \"Desktop/CarbonToken/TheTwoDaos/EnterpriseDao.sol\":756:791  abi.encodePacked(EnterpriseAddress) */\n      add(0x20, mload(0x40))\n      tag_49\n      swap2\n      swap1\n      tag_50\n      jump\t// in\n    tag_49:\n      mload(0x40)\n      0x20\n      dup2\n      dup4\n      sub\n      sub\n      dup2\n      mstore\n      swap1\n      0x40\n      mstore\n        /* \"Desktop/CarbonToken/TheTwoDaos/EnterpriseDao.sol\":746:792  keccak256(abi.encodePacked(EnterpriseAddress)) */\n      dup1\n      mload\n      swap1\n      0x20\n      add\n      keccak256\n        /* \"Desktop/CarbonToken/TheTwoDaos/EnterpriseDao.sol\":723:792  bytes32 computedHash = keccak256(abi.encodePacked(EnterpriseAddress)) */\n      swap1\n      pop\n        /* \"Desktop/CarbonToken/TheTwoDaos/EnterpriseDao.sol\":808:817  uint256 i */\n      0x00\n        /* \"Desktop/CarbonToken/TheTwoDaos/EnterpriseDao.sol\":803:1237  for (uint256 i = 0; i < proof.length; i++) {... */\n    tag_51:\n        /* \"Desktop/CarbonToken/TheTwoDaos/EnterpriseDao.sol\":827:832  proof */\n      dup4\n        /* \"Desktop/CarbonToken/TheTwoDaos/EnterpriseDao.sol\":827:839  proof.length */\n      mload\n        /* \"Desktop/CarbonToken/TheTwoDaos/EnterpriseDao.sol\":823:824  i */\n      dup2\n        /* \"Desktop/CarbonToken/TheTwoDaos/EnterpriseDao.sol\":823:839  i < proof.length */\n      lt\n        /* \"Desktop/CarbonToken/TheTwoDaos/EnterpriseDao.sol\":803:1237  for (uint256 i = 0; i < proof.length; i++) {... */\n      iszero\n      tag_52\n      jumpi\n        /* \"Desktop/CarbonToken/TheTwoDaos/EnterpriseDao.sol\":860:880  bytes32 proofElement */\n      0x00\n        /* \"Desktop/CarbonToken/TheTwoDaos/EnterpriseDao.sol\":883:888  proof */\n      dup5\n        /* \"Desktop/CarbonToken/TheTwoDaos/EnterpriseDao.sol\":889:890  i */\n      dup3\n        /* \"Desktop/CarbonToken/TheTwoDaos/EnterpriseDao.sol\":883:891  proof[i] */\n      dup2\n      mload\n      dup2\n      lt\n      tag_54\n      jumpi\n      tag_55\n      tag_56\n      jump\t// in\n    tag_55:\n    tag_54:\n      0x20\n      mul\n      0x20\n      add\n      add\n      mload\n        /* \"Desktop/CarbonToken/TheTwoDaos/EnterpriseDao.sol\":860:891  bytes32 proofElement = proof[i] */\n      swap1\n      pop\n        /* \"Desktop/CarbonToken/TheTwoDaos/EnterpriseDao.sol\":925:937  proofElement */\n      dup1\n        /* \"Desktop/CarbonToken/TheTwoDaos/EnterpriseDao.sol\":910:922  computedHash */\n      dup4\n        /* \"Desktop/CarbonToken/TheTwoDaos/EnterpriseDao.sol\":910:937  computedHash < proofElement */\n      lt\n        /* \"Desktop/CarbonToken/TheTwoDaos/EnterpriseDao.sol\":906:1227  if (computedHash < proofElement) {... */\n      iszero\n      tag_57\n      jumpi\n        /* \"Desktop/CarbonToken/TheTwoDaos/EnterpriseDao.sol\":1020:1032  computedHash */\n      dup3\n        /* \"Desktop/CarbonToken/TheTwoDaos/EnterpriseDao.sol\":1034:1046  proofElement */\n      dup2\n        /* \"Desktop/CarbonToken/TheTwoDaos/EnterpriseDao.sol\":1003:1047  abi.encodePacked(computedHash, proofElement) */\n      add(0x20, mload(0x40))\n      tag_58\n      swap3\n      swap2\n      swap1\n      tag_59\n      jump\t// in\n    tag_58:\n      mload(0x40)\n      0x20\n      dup2\n      dup4\n      sub\n      sub\n      dup2\n      mstore\n      swap1\n      0x40\n      mstore\n        /* \"Desktop/CarbonToken/TheTwoDaos/EnterpriseDao.sol\":972:1065  keccak256(... */\n      dup1\n      mload\n      swap1\n      0x20\n      add\n      keccak256\n        /* \"Desktop/CarbonToken/TheTwoDaos/EnterpriseDao.sol\":957:1065  computedHash = keccak256(... */\n      swap3\n      pop\n        /* \"Desktop/CarbonToken/TheTwoDaos/EnterpriseDao.sol\":906:1227  if (computedHash < proofElement) {... */\n      jump(tag_60)\n    tag_57:\n        /* \"Desktop/CarbonToken/TheTwoDaos/EnterpriseDao.sol\":1167:1179  proofElement */\n      dup1\n        /* \"Desktop/CarbonToken/TheTwoDaos/EnterpriseDao.sol\":1181:1193  computedHash */\n      dup4\n        /* \"Desktop/CarbonToken/TheTwoDaos/EnterpriseDao.sol\":1150:1194  abi.encodePacked(proofElement, computedHash) */\n      add(0x20, mload(0x40))\n      tag_61\n      swap3\n      swap2\n      swap1\n      tag_59\n      jump\t// in\n    tag_61:\n      mload(0x40)\n      0x20\n      dup2\n      dup4\n      sub\n      sub\n      dup2\n      mstore\n      swap1\n      0x40\n      mstore\n        /* \"Desktop/CarbonToken/TheTwoDaos/EnterpriseDao.sol\":1119:1212  keccak256(... */\n      dup1\n      mload\n      swap1\n      0x20\n      add\n      keccak256\n        /* \"Desktop/CarbonToken/TheTwoDaos/EnterpriseDao.sol\":1104:1212  computedHash = keccak256(... */\n      swap3\n      pop\n        /* \"Desktop/CarbonToken/TheTwoDaos/EnterpriseDao.sol\":906:1227  if (computedHash < proofElement) {... */\n    tag_60:\n        /* \"Desktop/CarbonToken/TheTwoDaos/EnterpriseDao.sol\":846:1237  {... */\n      pop\n        /* \"Desktop/CarbonToken/TheTwoDaos/EnterpriseDao.sol\":841:844  i++ */\n      dup1\n      dup1\n      tag_62\n      swap1\n      tag_63\n      jump\t// in\n    tag_62:\n      swap2\n      pop\n      pop\n        /* \"Desktop/CarbonToken/TheTwoDaos/EnterpriseDao.sol\":803:1237  for (uint256 i = 0; i < proof.length; i++) {... */\n      jump(tag_51)\n    tag_52:\n      pop\n        /* \"Desktop/CarbonToken/TheTwoDaos/EnterpriseDao.sol\":1361:1365  root */\n      sload(0x02)\n        /* \"Desktop/CarbonToken/TheTwoDaos/EnterpriseDao.sol\":1345:1357  computedHash */\n      dup2\n        /* \"Desktop/CarbonToken/TheTwoDaos/EnterpriseDao.sol\":1345:1365  computedHash == root */\n      eq\n        /* \"Desktop/CarbonToken/TheTwoDaos/EnterpriseDao.sol\":1338:1365  return computedHash == root */\n      swap2\n      pop\n      pop\n        /* \"Desktop/CarbonToken/TheTwoDaos/EnterpriseDao.sol\":644:1372  function isMember(bytes32[] memory proof) public view returns (bool) {... */\n      swap2\n      swap1\n      pop\n      jump\t// out\n        /* \"Desktop/CarbonToken/TheTwoDaos/EnterpriseDao.sol\":328:350  CTToken public cTToken */\n    tag_23:\n      0x05\n      0x00\n      swap1\n      sload\n      swap1\n      0x0100\n      exp\n      swap1\n      div\n      0xffffffffffffffffffffffffffffffffffffffff\n      and\n      dup2\n      jump\t// out\n        /* \"Desktop/CarbonToken/TheTwoDaos/EnterpriseDao.sol\":1746:2015  function isClaimed(bytes32[] memory proof) external view returns(bool){... */\n    tag_28:\n        /* \"Desktop/CarbonToken/TheTwoDaos/EnterpriseDao.sol\":1811:1815  bool */\n      0x00\n        /* \"Desktop/CarbonToken/TheTwoDaos/EnterpriseDao.sol\":1826:1842  bool cangetClaim */\n      dup1\n        /* \"Desktop/CarbonToken/TheTwoDaos/EnterpriseDao.sol\":1845:1860  isMember(proof) */\n      tag_65\n        /* \"Desktop/CarbonToken/TheTwoDaos/EnterpriseDao.sol\":1854:1859  proof */\n      dup4\n        /* \"Desktop/CarbonToken/TheTwoDaos/EnterpriseDao.sol\":1845:1853  isMember */\n      tag_19\n        /* \"Desktop/CarbonToken/TheTwoDaos/EnterpriseDao.sol\":1845:1860  isMember(proof) */\n      jump\t// in\n    tag_65:\n        /* \"Desktop/CarbonToken/TheTwoDaos/EnterpriseDao.sol\":1826:1860  bool cangetClaim = isMember(proof) */\n      swap1\n      pop\n        /* \"Desktop/CarbonToken/TheTwoDaos/EnterpriseDao.sol\":1870:1884  bool getClaime */\n      0x00\n        /* \"Desktop/CarbonToken/TheTwoDaos/EnterpriseDao.sol\":1897:1908  cangetClaim */\n      dup2\n        /* \"Desktop/CarbonToken/TheTwoDaos/EnterpriseDao.sol\":1894:1983  if(cangetClaim){... */\n      iszero\n      tag_66\n      jumpi\n        /* \"Desktop/CarbonToken/TheTwoDaos/EnterpriseDao.sol\":1935:1942  cTToken */\n      0x05\n      0x00\n      swap1\n      sload\n      swap1\n      0x0100\n      exp\n      swap1\n      div\n      0xffffffffffffffffffffffffffffffffffffffff\n      and\n        /* \"Desktop/CarbonToken/TheTwoDaos/EnterpriseDao.sol\":1935:1953  cTToken.getClaimed */\n      0xffffffffffffffffffffffffffffffffffffffff\n      and\n      0xeb46260e\n        /* \"Desktop/CarbonToken/TheTwoDaos/EnterpriseDao.sol\":1954:1971  EnterpriseAddress */\n      0x00\n      dup1\n      sload\n      swap1\n      0x0100\n      exp\n      swap1\n      div\n      0xffffffffffffffffffffffffffffffffffffffff\n      and\n        /* \"Desktop/CarbonToken/TheTwoDaos/EnterpriseDao.sol\":1935:1972  cTToken.getClaimed(EnterpriseAddress) */\n      mload(0x40)\n      dup3\n      0xffffffff\n      and\n      0xe0\n      shl\n      dup2\n      mstore\n      0x04\n      add\n      tag_67\n      swap2\n      swap1\n      tag_36\n      jump\t// in\n    tag_67:\n      0x20\n      mload(0x40)\n      dup1\n      dup4\n      sub\n      dup2\n      dup7\n      gas\n      staticcall\n      iszero\n      dup1\n      iszero\n      tag_69\n      jumpi\n      returndatasize\n      0x00\n      dup1\n      returndatacopy\n      revert(0x00, returndatasize)\n    tag_69:\n      pop\n      pop\n      pop\n      pop\n      mload(0x40)\n      returndatasize\n      not(0x1f)\n      0x1f\n      dup3\n      add\n      and\n      dup3\n      add\n      dup1\n      0x40\n      mstore\n      pop\n      dup2\n      add\n      swap1\n      tag_70\n      swap2\n      swap1\n      tag_40\n      jump\t// in\n    tag_70:\n        /* \"Desktop/CarbonToken/TheTwoDaos/EnterpriseDao.sol\":1923:1972  getClaime = cTToken.getClaimed(EnterpriseAddress) */\n      swap1\n      pop\n        /* \"Desktop/CarbonToken/TheTwoDaos/EnterpriseDao.sol\":1894:1983  if(cangetClaim){... */\n    tag_66:\n        /* \"Desktop/CarbonToken/TheTwoDaos/EnterpriseDao.sol\":1999:2008  getClaime */\n      dup1\n        /* \"Desktop/CarbonToken/TheTwoDaos/EnterpriseDao.sol\":1992:2008  return getClaime */\n      swap3\n      pop\n      pop\n      pop\n        /* \"Desktop/CarbonToken/TheTwoDaos/EnterpriseDao.sol\":1746:2015  function isClaimed(bytes32[] memory proof) external view returns(bool){... */\n      swap2\n      swap1\n      pop\n      jump\t// out\n        /* \"#utility.yul\":7:82   */\n    tag_71:\n        /* \"#utility.yul\":40:46   */\n      0x00\n        /* \"#utility.yul\":73:75   */\n      0x40\n        /* \"#utility.yul\":67:76   */\n      mload\n        /* \"#utility.yul\":57:76   */\n      swap1\n      pop\n        /* \"#utility.yul\":7:82   */\n      swap1\n      jump\t// out\n        /* \"#utility.yul\":88:205   */\n    tag_72:\n        /* \"#utility.yul\":197:198   */\n      0x00\n        /* \"#utility.yul\":194:195   */\n      dup1\n        /* \"#utility.yul\":187:199   */\n      revert\n        /* \"#utility.yul\":211:328   */\n    tag_73:\n        /* \"#utility.yul\":320:321   */\n      0x00\n        /* \"#utility.yul\":317:318   */\n      dup1\n        /* \"#utility.yul\":310:322   */\n      revert\n        /* \"#utility.yul\":334:460   */\n    tag_74:\n        /* \"#utility.yul\":371:378   */\n      0x00\n        /* \"#utility.yul\":411:453   */\n      0xffffffffffffffffffffffffffffffffffffffff\n        /* \"#utility.yul\":404:409   */\n      dup3\n        /* \"#utility.yul\":400:454   */\n      and\n        /* \"#utility.yul\":389:454   */\n      swap1\n      pop\n        /* \"#utility.yul\":334:460   */\n      swap2\n      swap1\n      pop\n      jump\t// out\n        /* \"#utility.yul\":466:562   */\n    tag_75:\n        /* \"#utility.yul\":503:510   */\n      0x00\n        /* \"#utility.yul\":532:556   */\n      tag_121\n        /* \"#utility.yul\":550:555   */\n      dup3\n        /* \"#utility.yul\":532:556   */\n      tag_74\n      jump\t// in\n    tag_121:\n        /* \"#utility.yul\":521:556   */\n      swap1\n      pop\n        /* \"#utility.yul\":466:562   */\n      swap2\n      swap1\n      pop\n      jump\t// out\n        /* \"#utility.yul\":568:690   */\n    tag_76:\n        /* \"#utility.yul\":641:665   */\n      tag_123\n        /* \"#utility.yul\":659:664   */\n      dup2\n        /* \"#utility.yul\":641:665   */\n      tag_75\n      jump\t// in\n    tag_123:\n        /* \"#utility.yul\":634:639   */\n      dup2\n        /* \"#utility.yul\":631:666   */\n      eq\n        /* \"#utility.yul\":621:684   */\n      tag_124\n      jumpi\n        /* \"#utility.yul\":680:681   */\n      0x00\n        /* \"#utility.yul\":677:678   */\n      dup1\n        /* \"#utility.yul\":670:682   */\n      revert\n        /* \"#utility.yul\":621:684   */\n    tag_124:\n        /* \"#utility.yul\":568:690   */\n      pop\n      jump\t// out\n        /* \"#utility.yul\":696:835   */\n    tag_77:\n        /* \"#utility.yul\":742:747   */\n      0x00\n        /* \"#utility.yul\":780:786   */\n      dup2\n        /* \"#utility.yul\":767:787   */\n      calldataload\n        /* \"#utility.yul\":758:787   */\n      swap1\n      pop\n        /* \"#utility.yul\":796:829   */\n      tag_126\n        /* \"#utility.yul\":823:828   */\n      dup2\n        /* \"#utility.yul\":796:829   */\n      tag_76\n      jump\t// in\n    tag_126:\n        /* \"#utility.yul\":696:835   */\n      swap3\n      swap2\n      pop\n      pop\n      jump\t// out\n        /* \"#utility.yul\":841:918   */\n    tag_78:\n        /* \"#utility.yul\":878:885   */\n      0x00\n        /* \"#utility.yul\":907:912   */\n      dup2\n        /* \"#utility.yul\":896:912   */\n      swap1\n      pop\n        /* \"#utility.yul\":841:918   */\n      swap2\n      swap1\n      pop\n      jump\t// out\n        /* \"#utility.yul\":924:1046   */\n    tag_79:\n        /* \"#utility.yul\":997:1021   */\n      tag_129\n        /* \"#utility.yul\":1015:1020   */\n      dup2\n        /* \"#utility.yul\":997:1021   */\n      tag_78\n      jump\t// in\n    tag_129:\n        /* \"#utility.yul\":990:995   */\n      dup2\n        /* \"#utility.yul\":987:1022   */\n      eq\n        /* \"#utility.yul\":977:1040   */\n      tag_130\n      jumpi\n        /* \"#utility.yul\":1036:1037   */\n      0x00\n        /* \"#utility.yul\":1033:1034   */\n      dup1\n        /* \"#utility.yul\":1026:1038   */\n      revert\n        /* \"#utility.yul\":977:1040   */\n    tag_130:\n        /* \"#utility.yul\":924:1046   */\n      pop\n      jump\t// out\n        /* \"#utility.yul\":1052:1191   */\n    tag_80:\n        /* \"#utility.yul\":1098:1103   */\n      0x00\n        /* \"#utility.yul\":1136:1142   */\n      dup2\n        /* \"#utility.yul\":1123:1143   */\n      calldataload\n        /* \"#utility.yul\":1114:1143   */\n      swap1\n      pop\n        /* \"#utility.yul\":1152:1185   */\n      tag_132\n        /* \"#utility.yul\":1179:1184   */\n      dup2\n        /* \"#utility.yul\":1152:1185   */\n      tag_79\n      jump\t// in\n    tag_132:\n        /* \"#utility.yul\":1052:1191   */\n      swap3\n      swap2\n      pop\n      pop\n      jump\t// out\n        /* \"#utility.yul\":1197:1816   */\n    tag_10:\n        /* \"#utility.yul\":1274:1280   */\n      0x00\n        /* \"#utility.yul\":1282:1288   */\n      dup1\n        /* \"#utility.yul\":1290:1296   */\n      0x00\n        /* \"#utility.yul\":1339:1341   */\n      0x60\n        /* \"#utility.yul\":1327:1336   */\n      dup5\n        /* \"#utility.yul\":1318:1325   */\n      dup7\n        /* \"#utility.yul\":1314:1337   */\n      sub\n        /* \"#utility.yul\":1310:1342   */\n      slt\n        /* \"#utility.yul\":1307:1426   */\n      iszero\n      tag_134\n      jumpi\n        /* \"#utility.yul\":1345:1424   */\n      tag_135\n      tag_72\n      jump\t// in\n    tag_135:\n        /* \"#utility.yul\":1307:1426   */\n    tag_134:\n        /* \"#utility.yul\":1465:1466   */\n      0x00\n        /* \"#utility.yul\":1490:1543   */\n      tag_136\n        /* \"#utility.yul\":1535:1542   */\n      dup7\n        /* \"#utility.yul\":1526:1532   */\n      dup3\n        /* \"#utility.yul\":1515:1524   */\n      dup8\n        /* \"#utility.yul\":1511:1533   */\n      add\n        /* \"#utility.yul\":1490:1543   */\n      tag_77\n      jump\t// in\n    tag_136:\n        /* \"#utility.yul\":1480:1543   */\n      swap4\n      pop\n        /* \"#utility.yul\":1436:1553   */\n      pop\n        /* \"#utility.yul\":1592:1594   */\n      0x20\n        /* \"#utility.yul\":1618:1671   */\n      tag_137\n        /* \"#utility.yul\":1663:1670   */\n      dup7\n        /* \"#utility.yul\":1654:1660   */\n      dup3\n        /* \"#utility.yul\":1643:1652   */\n      dup8\n        /* \"#utility.yul\":1639:1661   */\n      add\n        /* \"#utility.yul\":1618:1671   */\n      tag_80\n      jump\t// in\n    tag_137:\n        /* \"#utility.yul\":1608:1671   */\n      swap3\n      pop\n        /* \"#utility.yul\":1563:1681   */\n      pop\n        /* \"#utility.yul\":1720:1722   */\n      0x40\n        /* \"#utility.yul\":1746:1799   */\n      tag_138\n        /* \"#utility.yul\":1791:1798   */\n      dup7\n        /* \"#utility.yul\":1782:1788   */\n      dup3\n        /* \"#utility.yul\":1771:1780   */\n      dup8\n        /* \"#utility.yul\":1767:1789   */\n      add\n        /* \"#utility.yul\":1746:1799   */\n      tag_80\n      jump\t// in\n    tag_138:\n        /* \"#utility.yul\":1736:1799   */\n      swap2\n      pop\n        /* \"#utility.yul\":1691:1809   */\n      pop\n        /* \"#utility.yul\":1197:1816   */\n      swap3\n      pop\n      swap3\n      pop\n      swap3\n      jump\t// out\n        /* \"#utility.yul\":1822:1940   */\n    tag_81:\n        /* \"#utility.yul\":1909:1933   */\n      tag_140\n        /* \"#utility.yul\":1927:1932   */\n      dup2\n        /* \"#utility.yul\":1909:1933   */\n      tag_78\n      jump\t// in\n    tag_140:\n        /* \"#utility.yul\":1904:1907   */\n      dup3\n        /* \"#utility.yul\":1897:1934   */\n      mstore\n        /* \"#utility.yul\":1822:1940   */\n      pop\n      pop\n      jump\t// out\n        /* \"#utility.yul\":1946:2168   */\n    tag_15:\n        /* \"#utility.yul\":2039:2043   */\n      0x00\n        /* \"#utility.yul\":2077:2079   */\n      0x20\n        /* \"#utility.yul\":2066:2075   */\n      dup3\n        /* \"#utility.yul\":2062:2080   */\n      add\n        /* \"#utility.yul\":2054:2080   */\n      swap1\n      pop\n        /* \"#utility.yul\":2090:2161   */\n      tag_142\n        /* \"#utility.yul\":2158:2159   */\n      0x00\n        /* \"#utility.yul\":2147:2156   */\n      dup4\n        /* \"#utility.yul\":2143:2160   */\n      add\n        /* \"#utility.yul\":2134:2140   */\n      dup5\n        /* \"#utility.yul\":2090:2161   */\n      tag_81\n      jump\t// in\n    tag_142:\n        /* \"#utility.yul\":1946:2168   */\n      swap3\n      swap2\n      pop\n      pop\n      jump\t// out\n        /* \"#utility.yul\":2174:2291   */\n    tag_82:\n        /* \"#utility.yul\":2283:2284   */\n      0x00\n        /* \"#utility.yul\":2280:2281   */\n      dup1\n        /* \"#utility.yul\":2273:2285   */\n      revert\n        /* \"#utility.yul\":2297:2399   */\n    tag_83:\n        /* \"#utility.yul\":2338:2344   */\n      0x00\n        /* \"#utility.yul\":2389:2391   */\n      0x1f\n        /* \"#utility.yul\":2385:2392   */\n      not\n        /* \"#utility.yul\":2380:2382   */\n      0x1f\n        /* \"#utility.yul\":2373:2378   */\n      dup4\n        /* \"#utility.yul\":2369:2383   */\n      add\n        /* \"#utility.yul\":2365:2393   */\n      and\n        /* \"#utility.yul\":2355:2393   */\n      swap1\n      pop\n        /* \"#utility.yul\":2297:2399   */\n      swap2\n      swap1\n      pop\n      jump\t// out\n        /* \"#utility.yul\":2405:2585   */\n    tag_84:\n        /* \"#utility.yul\":2453:2530   */\n      0x4e487b7100000000000000000000000000000000000000000000000000000000\n        /* \"#utility.yul\":2450:2451   */\n      0x00\n        /* \"#utility.yul\":2443:2531   */\n      mstore\n        /* \"#utility.yul\":2550:2554   */\n      0x41\n        /* \"#utility.yul\":2547:2548   */\n      0x04\n        /* \"#utility.yul\":2540:2555   */\n      mstore\n        /* \"#utility.yul\":2574:2578   */\n      0x24\n        /* \"#utility.yul\":2571:2572   */\n      0x00\n        /* \"#utility.yul\":2564:2579   */\n      revert\n        /* \"#utility.yul\":2591:2872   */\n    tag_85:\n        /* \"#utility.yul\":2674:2701   */\n      tag_147\n        /* \"#utility.yul\":2696:2700   */\n      dup3\n        /* \"#utility.yul\":2674:2701   */\n      tag_83\n      jump\t// in\n    tag_147:\n        /* \"#utility.yul\":2666:2672   */\n      dup2\n        /* \"#utility.yul\":2662:2702   */\n      add\n        /* \"#utility.yul\":2804:2810   */\n      dup2\n        /* \"#utility.yul\":2792:2802   */\n      dup2\n        /* \"#utility.yul\":2789:2811   */\n      lt\n        /* \"#utility.yul\":2768:2786   */\n      0xffffffffffffffff\n        /* \"#utility.yul\":2756:2766   */\n      dup3\n        /* \"#utility.yul\":2753:2787   */\n      gt\n        /* \"#utility.yul\":2750:2812   */\n      or\n        /* \"#utility.yul\":2747:2835   */\n      iszero\n      tag_148\n      jumpi\n        /* \"#utility.yul\":2815:2833   */\n      tag_149\n      tag_84\n      jump\t// in\n    tag_149:\n        /* \"#utility.yul\":2747:2835   */\n    tag_148:\n        /* \"#utility.yul\":2855:2865   */\n      dup1\n        /* \"#utility.yul\":2851:2853   */\n      0x40\n        /* \"#utility.yul\":2844:2866   */\n      mstore\n        /* \"#utility.yul\":2634:2872   */\n      pop\n        /* \"#utility.yul\":2591:2872   */\n      pop\n      pop\n      jump\t// out\n        /* \"#utility.yul\":2878:3007   */\n    tag_86:\n        /* \"#utility.yul\":2912:2918   */\n      0x00\n        /* \"#utility.yul\":2939:2959   */\n      tag_151\n      tag_71\n      jump\t// in\n    tag_151:\n        /* \"#utility.yul\":2929:2959   */\n      swap1\n      pop\n        /* \"#utility.yul\":2968:3001   */\n      tag_152\n        /* \"#utility.yul\":2996:3000   */\n      dup3\n        /* \"#utility.yul\":2988:2994   */\n      dup3\n        /* \"#utility.yul\":2968:3001   */\n      tag_85\n      jump\t// in\n    tag_152:\n        /* \"#utility.yul\":2878:3007   */\n      swap2\n      swap1\n      pop\n      jump\t// out\n        /* \"#utility.yul\":3013:3324   */\n    tag_87:\n        /* \"#utility.yul\":3090:3094   */\n      0x00\n        /* \"#utility.yul\":3180:3198   */\n      0xffffffffffffffff\n        /* \"#utility.yul\":3172:3178   */\n      dup3\n        /* \"#utility.yul\":3169:3199   */\n      gt\n        /* \"#utility.yul\":3166:3222   */\n      iszero\n      tag_154\n      jumpi\n        /* \"#utility.yul\":3202:3220   */\n      tag_155\n      tag_84\n      jump\t// in\n    tag_155:\n        /* \"#utility.yul\":3166:3222   */\n    tag_154:\n        /* \"#utility.yul\":3252:3256   */\n      0x20\n        /* \"#utility.yul\":3244:3250   */\n      dup3\n        /* \"#utility.yul\":3240:3257   */\n      mul\n        /* \"#utility.yul\":3232:3257   */\n      swap1\n      pop\n        /* \"#utility.yul\":3312:3316   */\n      0x20\n        /* \"#utility.yul\":3306:3310   */\n      dup2\n        /* \"#utility.yul\":3302:3317   */\n      add\n        /* \"#utility.yul\":3294:3317   */\n      swap1\n      pop\n        /* \"#utility.yul\":3013:3324   */\n      swap2\n      swap1\n      pop\n      jump\t// out\n        /* \"#utility.yul\":3330:3447   */\n    tag_88:\n        /* \"#utility.yul\":3439:3440   */\n      0x00\n        /* \"#utility.yul\":3436:3437   */\n      dup1\n        /* \"#utility.yul\":3429:3441   */\n      revert\n        /* \"#utility.yul\":3453:3530   */\n    tag_89:\n        /* \"#utility.yul\":3490:3497   */\n      0x00\n        /* \"#utility.yul\":3519:3524   */\n      dup2\n        /* \"#utility.yul\":3508:3524   */\n      swap1\n      pop\n        /* \"#utility.yul\":3453:3530   */\n      swap2\n      swap1\n      pop\n      jump\t// out\n        /* \"#utility.yul\":3536:3658   */\n    tag_90:\n        /* \"#utility.yul\":3609:3633   */\n      tag_159\n        /* \"#utility.yul\":3627:3632   */\n      dup2\n        /* \"#utility.yul\":3609:3633   */\n      tag_89\n      jump\t// in\n    tag_159:\n        /* \"#utility.yul\":3602:3607   */\n      dup2\n        /* \"#utility.yul\":3599:3634   */\n      eq\n        /* \"#utility.yul\":3589:3652   */\n      tag_160\n      jumpi\n        /* \"#utility.yul\":3648:3649   */\n      0x00\n        /* \"#utility.yul\":3645:3646   */\n      dup1\n        /* \"#utility.yul\":3638:3650   */\n      revert\n        /* \"#utility.yul\":3589:3652   */\n    tag_160:\n        /* \"#utility.yul\":3536:3658   */\n      pop\n      jump\t// out\n        /* \"#utility.yul\":3664:3803   */\n    tag_91:\n        /* \"#utility.yul\":3710:3715   */\n      0x00\n        /* \"#utility.yul\":3748:3754   */\n      dup2\n        /* \"#utility.yul\":3735:3755   */\n      calldataload\n        /* \"#utility.yul\":3726:3755   */\n      swap1\n      pop\n        /* \"#utility.yul\":3764:3797   */\n      tag_162\n        /* \"#utility.yul\":3791:3796   */\n      dup2\n        /* \"#utility.yul\":3764:3797   */\n      tag_90\n      jump\t// in\n    tag_162:\n        /* \"#utility.yul\":3664:3803   */\n      swap3\n      swap2\n      pop\n      pop\n      jump\t// out\n        /* \"#utility.yul\":3826:4536   */\n    tag_92:\n        /* \"#utility.yul\":3922:3927   */\n      0x00\n        /* \"#utility.yul\":3947:4028   */\n      tag_164\n        /* \"#utility.yul\":3963:4027   */\n      tag_165\n        /* \"#utility.yul\":4020:4026   */\n      dup5\n        /* \"#utility.yul\":3963:4027   */\n      tag_87\n      jump\t// in\n    tag_165:\n        /* \"#utility.yul\":3947:4028   */\n      tag_86\n      jump\t// in\n    tag_164:\n        /* \"#utility.yul\":3938:4028   */\n      swap1\n      pop\n        /* \"#utility.yul\":4048:4053   */\n      dup1\n        /* \"#utility.yul\":4077:4083   */\n      dup4\n        /* \"#utility.yul\":4070:4075   */\n      dup3\n        /* \"#utility.yul\":4063:4084   */\n      mstore\n        /* \"#utility.yul\":4111:4115   */\n      0x20\n        /* \"#utility.yul\":4104:4109   */\n      dup3\n        /* \"#utility.yul\":4100:4116   */\n      add\n        /* \"#utility.yul\":4093:4116   */\n      swap1\n      pop\n        /* \"#utility.yul\":4164:4168   */\n      0x20\n        /* \"#utility.yul\":4156:4162   */\n      dup5\n        /* \"#utility.yul\":4152:4169   */\n      mul\n        /* \"#utility.yul\":4144:4150   */\n      dup4\n        /* \"#utility.yul\":4140:4170   */\n      add\n        /* \"#utility.yul\":4193:4196   */\n      dup6\n        /* \"#utility.yul\":4185:4191   */\n      dup2\n        /* \"#utility.yul\":4182:4197   */\n      gt\n        /* \"#utility.yul\":4179:4301   */\n      iszero\n      tag_166\n      jumpi\n        /* \"#utility.yul\":4212:4291   */\n      tag_167\n      tag_88\n      jump\t// in\n    tag_167:\n        /* \"#utility.yul\":4179:4301   */\n    tag_166:\n        /* \"#utility.yul\":4327:4333   */\n      dup4\n        /* \"#utility.yul\":4310:4530   */\n    tag_168:\n        /* \"#utility.yul\":4344:4350   */\n      dup2\n        /* \"#utility.yul\":4339:4342   */\n      dup2\n        /* \"#utility.yul\":4336:4351   */\n      lt\n        /* \"#utility.yul\":4310:4530   */\n      iszero\n      tag_170\n      jumpi\n        /* \"#utility.yul\":4419:4422   */\n      dup1\n        /* \"#utility.yul\":4448:4485   */\n      tag_171\n        /* \"#utility.yul\":4481:4484   */\n      dup9\n        /* \"#utility.yul\":4469:4479   */\n      dup3\n        /* \"#utility.yul\":4448:4485   */\n      tag_91\n      jump\t// in\n    tag_171:\n        /* \"#utility.yul\":4443:4446   */\n      dup5\n        /* \"#utility.yul\":4436:4486   */\n      mstore\n        /* \"#utility.yul\":4515:4519   */\n      0x20\n        /* \"#utility.yul\":4510:4513   */\n      dup5\n        /* \"#utility.yul\":4506:4520   */\n      add\n        /* \"#utility.yul\":4499:4520   */\n      swap4\n      pop\n        /* \"#utility.yul\":4386:4530   */\n      pop\n        /* \"#utility.yul\":4370:4374   */\n      0x20\n        /* \"#utility.yul\":4365:4368   */\n      dup2\n        /* \"#utility.yul\":4361:4375   */\n      add\n        /* \"#utility.yul\":4354:4375   */\n      swap1\n      pop\n        /* \"#utility.yul\":4310:4530   */\n      jump(tag_168)\n    tag_170:\n        /* \"#utility.yul\":4314:4335   */\n      pop\n        /* \"#utility.yul\":3928:4536   */\n      pop\n      pop\n        /* \"#utility.yul\":3826:4536   */\n      swap4\n      swap3\n      pop\n      pop\n      pop\n      jump\t// out\n        /* \"#utility.yul\":4559:4929   */\n    tag_93:\n        /* \"#utility.yul\":4630:4635   */\n      0x00\n        /* \"#utility.yul\":4679:4682   */\n      dup3\n        /* \"#utility.yul\":4672:4676   */\n      0x1f\n        /* \"#utility.yul\":4664:4670   */\n      dup4\n        /* \"#utility.yul\":4660:4677   */\n      add\n        /* \"#utility.yul\":4656:4683   */\n      slt\n        /* \"#utility.yul\":4646:4768   */\n      tag_173\n      jumpi\n        /* \"#utility.yul\":4687:4766   */\n      tag_174\n      tag_82\n      jump\t// in\n    tag_174:\n        /* \"#utility.yul\":4646:4768   */\n    tag_173:\n        /* \"#utility.yul\":4804:4810   */\n      dup2\n        /* \"#utility.yul\":4791:4811   */\n      calldataload\n        /* \"#utility.yul\":4829:4923   */\n      tag_175\n        /* \"#utility.yul\":4919:4922   */\n      dup5\n        /* \"#utility.yul\":4911:4917   */\n      dup3\n        /* \"#utility.yul\":4904:4908   */\n      0x20\n        /* \"#utility.yul\":4896:4902   */\n      dup7\n        /* \"#utility.yul\":4892:4909   */\n      add\n        /* \"#utility.yul\":4829:4923   */\n      tag_92\n      jump\t// in\n    tag_175:\n        /* \"#utility.yul\":4820:4923   */\n      swap2\n      pop\n        /* \"#utility.yul\":4636:4929   */\n      pop\n        /* \"#utility.yul\":4559:4929   */\n      swap3\n      swap2\n      pop\n      pop\n      jump\t// out\n        /* \"#utility.yul\":4935:5474   */\n    tag_18:\n        /* \"#utility.yul\":5019:5025   */\n      0x00\n        /* \"#utility.yul\":5068:5070   */\n      0x20\n        /* \"#utility.yul\":5056:5065   */\n      dup3\n        /* \"#utility.yul\":5047:5054   */\n      dup5\n        /* \"#utility.yul\":5043:5066   */\n      sub\n        /* \"#utility.yul\":5039:5071   */\n      slt\n        /* \"#utility.yul\":5036:5155   */\n      iszero\n      tag_177\n      jumpi\n        /* \"#utility.yul\":5074:5153   */\n      tag_178\n      tag_72\n      jump\t// in\n    tag_178:\n        /* \"#utility.yul\":5036:5155   */\n    tag_177:\n        /* \"#utility.yul\":5222:5223   */\n      0x00\n        /* \"#utility.yul\":5211:5220   */\n      dup3\n        /* \"#utility.yul\":5207:5224   */\n      add\n        /* \"#utility.yul\":5194:5225   */\n      calldataload\n        /* \"#utility.yul\":5252:5270   */\n      0xffffffffffffffff\n        /* \"#utility.yul\":5244:5250   */\n      dup2\n        /* \"#utility.yul\":5241:5271   */\n      gt\n        /* \"#utility.yul\":5238:5355   */\n      iszero\n      tag_179\n      jumpi\n        /* \"#utility.yul\":5274:5353   */\n      tag_180\n      tag_73\n      jump\t// in\n    tag_180:\n        /* \"#utility.yul\":5238:5355   */\n    tag_179:\n        /* \"#utility.yul\":5379:5457   */\n      tag_181\n        /* \"#utility.yul\":5449:5456   */\n      dup5\n        /* \"#utility.yul\":5440:5446   */\n      dup3\n        /* \"#utility.yul\":5429:5438   */\n      dup6\n        /* \"#utility.yul\":5425:5447   */\n      add\n        /* \"#utility.yul\":5379:5457   */\n      tag_93\n      jump\t// in\n    tag_181:\n        /* \"#utility.yul\":5369:5457   */\n      swap2\n      pop\n        /* \"#utility.yul\":5165:5467   */\n      pop\n        /* \"#utility.yul\":4935:5474   */\n      swap3\n      swap2\n      pop\n      pop\n      jump\t// out\n        /* \"#utility.yul\":5480:5570   */\n    tag_94:\n        /* \"#utility.yul\":5514:5521   */\n      0x00\n        /* \"#utility.yul\":5557:5562   */\n      dup2\n        /* \"#utility.yul\":5550:5563   */\n      iszero\n        /* \"#utility.yul\":5543:5564   */\n      iszero\n        /* \"#utility.yul\":5532:5564   */\n      swap1\n      pop\n        /* \"#utility.yul\":5480:5570   */\n      swap2\n      swap1\n      pop\n      jump\t// out\n        /* \"#utility.yul\":5576:5685   */\n    tag_95:\n        /* \"#utility.yul\":5657:5678   */\n      tag_184\n        /* \"#utility.yul\":5672:5677   */\n      dup2\n        /* \"#utility.yul\":5657:5678   */\n      tag_94\n      jump\t// in\n    tag_184:\n        /* \"#utility.yul\":5652:5655   */\n      dup3\n        /* \"#utility.yul\":5645:5679   */\n      mstore\n        /* \"#utility.yul\":5576:5685   */\n      pop\n      pop\n      jump\t// out\n        /* \"#utility.yul\":5691:5901   */\n    tag_21:\n        /* \"#utility.yul\":5778:5782   */\n      0x00\n        /* \"#utility.yul\":5816:5818   */\n      0x20\n        /* \"#utility.yul\":5805:5814   */\n      dup3\n        /* \"#utility.yul\":5801:5819   */\n      add\n        /* \"#utility.yul\":5793:5819   */\n      swap1\n      pop\n        /* \"#utility.yul\":5829:5894   */\n      tag_186\n        /* \"#utility.yul\":5891:5892   */\n      0x00\n        /* \"#utility.yul\":5880:5889   */\n      dup4\n        /* \"#utility.yul\":5876:5893   */\n      add\n        /* \"#utility.yul\":5867:5873   */\n      dup5\n        /* \"#utility.yul\":5829:5894   */\n      tag_95\n      jump\t// in\n    tag_186:\n        /* \"#utility.yul\":5691:5901   */\n      swap3\n      swap2\n      pop\n      pop\n      jump\t// out\n        /* \"#utility.yul\":5907:5967   */\n    tag_96:\n        /* \"#utility.yul\":5935:5938   */\n      0x00\n        /* \"#utility.yul\":5956:5961   */\n      dup2\n        /* \"#utility.yul\":5949:5961   */\n      swap1\n      pop\n        /* \"#utility.yul\":5907:5967   */\n      swap2\n      swap1\n      pop\n      jump\t// out\n        /* \"#utility.yul\":5973:6115   */\n    tag_97:\n        /* \"#utility.yul\":6023:6032   */\n      0x00\n        /* \"#utility.yul\":6056:6109   */\n      tag_189\n        /* \"#utility.yul\":6074:6108   */\n      tag_190\n        /* \"#utility.yul\":6083:6107   */\n      tag_191\n        /* \"#utility.yul\":6101:6106   */\n      dup5\n        /* \"#utility.yul\":6083:6107   */\n      tag_74\n      jump\t// in\n    tag_191:\n        /* \"#utility.yul\":6074:6108   */\n      tag_96\n      jump\t// in\n    tag_190:\n        /* \"#utility.yul\":6056:6109   */\n      tag_74\n      jump\t// in\n    tag_189:\n        /* \"#utility.yul\":6043:6109   */\n      swap1\n      pop\n        /* \"#utility.yul\":5973:6115   */\n      swap2\n      swap1\n      pop\n      jump\t// out\n        /* \"#utility.yul\":6121:6247   */\n    tag_98:\n        /* \"#utility.yul\":6171:6180   */\n      0x00\n        /* \"#utility.yul\":6204:6241   */\n      tag_193\n        /* \"#utility.yul\":6235:6240   */\n      dup3\n        /* \"#utility.yul\":6204:6241   */\n      tag_97\n      jump\t// in\n    tag_193:\n        /* \"#utility.yul\":6191:6241   */\n      swap1\n      pop\n        /* \"#utility.yul\":6121:6247   */\n      swap2\n      swap1\n      pop\n      jump\t// out\n        /* \"#utility.yul\":6253:6394   */\n    tag_99:\n        /* \"#utility.yul\":6318:6327   */\n      0x00\n        /* \"#utility.yul\":6351:6388   */\n      tag_195\n        /* \"#utility.yul\":6382:6387   */\n      dup3\n        /* \"#utility.yul\":6351:6388   */\n      tag_98\n      jump\t// in\n    tag_195:\n        /* \"#utility.yul\":6338:6388   */\n      swap1\n      pop\n        /* \"#utility.yul\":6253:6394   */\n      swap2\n      swap1\n      pop\n      jump\t// out\n        /* \"#utility.yul\":6400:6561   */\n    tag_100:\n        /* \"#utility.yul\":6502:6554   */\n      tag_197\n        /* \"#utility.yul\":6548:6553   */\n      dup2\n        /* \"#utility.yul\":6502:6554   */\n      tag_99\n      jump\t// in\n    tag_197:\n        /* \"#utility.yul\":6497:6500   */\n      dup3\n        /* \"#utility.yul\":6490:6555   */\n      mstore\n        /* \"#utility.yul\":6400:6561   */\n      pop\n      pop\n      jump\t// out\n        /* \"#utility.yul\":6567:6819   */\n    tag_25:\n        /* \"#utility.yul\":6675:6679   */\n      0x00\n        /* \"#utility.yul\":6713:6715   */\n      0x20\n        /* \"#utility.yul\":6702:6711   */\n      dup3\n        /* \"#utility.yul\":6698:6716   */\n      add\n        /* \"#utility.yul\":6690:6716   */\n      swap1\n      pop\n        /* \"#utility.yul\":6726:6812   */\n      tag_199\n        /* \"#utility.yul\":6809:6810   */\n      0x00\n        /* \"#utility.yul\":6798:6807   */\n      dup4\n        /* \"#utility.yul\":6794:6811   */\n      add\n        /* \"#utility.yul\":6785:6791   */\n      dup5\n        /* \"#utility.yul\":6726:6812   */\n      tag_100\n      jump\t// in\n    tag_199:\n        /* \"#utility.yul\":6567:6819   */\n      swap3\n      swap2\n      pop\n      pop\n      jump\t// out\n        /* \"#utility.yul\":6825:6994   */\n    tag_101:\n        /* \"#utility.yul\":6909:6920   */\n      0x00\n        /* \"#utility.yul\":6943:6949   */\n      dup3\n        /* \"#utility.yul\":6938:6941   */\n      dup3\n        /* \"#utility.yul\":6931:6950   */\n      mstore\n        /* \"#utility.yul\":6983:6987   */\n      0x20\n        /* \"#utility.yul\":6978:6981   */\n      dup3\n        /* \"#utility.yul\":6974:6988   */\n      add\n        /* \"#utility.yul\":6959:6988   */\n      swap1\n      pop\n        /* \"#utility.yul\":6825:6994   */\n      swap3\n      swap2\n      pop\n      pop\n      jump\t// out\n        /* \"#utility.yul\":7000:7224   */\n    tag_102:\n        /* \"#utility.yul\":7140:7174   */\n      0x4f6e6c7920696e74656e64616e742063616e2063616c6c20746869732066756e\n        /* \"#utility.yul\":7136:7137   */\n      0x00\n        /* \"#utility.yul\":7128:7134   */\n      dup3\n        /* \"#utility.yul\":7124:7138   */\n      add\n        /* \"#utility.yul\":7117:7175   */\n      mstore\n        /* \"#utility.yul\":7209:7216   */\n      0x6374696f6e000000000000000000000000000000000000000000000000000000\n        /* \"#utility.yul\":7204:7206   */\n      0x20\n        /* \"#utility.yul\":7196:7202   */\n      dup3\n        /* \"#utility.yul\":7192:7207   */\n      add\n        /* \"#utility.yul\":7185:7217   */\n      mstore\n        /* \"#utility.yul\":7000:7224   */\n      pop\n      jump\t// out\n        /* \"#utility.yul\":7230:7596   */\n    tag_103:\n        /* \"#utility.yul\":7372:7375   */\n      0x00\n        /* \"#utility.yul\":7393:7460   */\n      tag_203\n        /* \"#utility.yul\":7457:7459   */\n      0x25\n        /* \"#utility.yul\":7452:7455   */\n      dup4\n        /* \"#utility.yul\":7393:7460   */\n      tag_101\n      jump\t// in\n    tag_203:\n        /* \"#utility.yul\":7386:7460   */\n      swap2\n      pop\n        /* \"#utility.yul\":7469:7562   */\n      tag_204\n        /* \"#utility.yul\":7558:7561   */\n      dup3\n        /* \"#utility.yul\":7469:7562   */\n      tag_102\n      jump\t// in\n    tag_204:\n        /* \"#utility.yul\":7587:7589   */\n      0x40\n        /* \"#utility.yul\":7582:7585   */\n      dup3\n        /* \"#utility.yul\":7578:7590   */\n      add\n        /* \"#utility.yul\":7571:7590   */\n      swap1\n      pop\n        /* \"#utility.yul\":7230:7596   */\n      swap2\n      swap1\n      pop\n      jump\t// out\n        /* \"#utility.yul\":7602:8021   */\n    tag_33:\n        /* \"#utility.yul\":7768:7772   */\n      0x00\n        /* \"#utility.yul\":7806:7808   */\n      0x20\n        /* \"#utility.yul\":7795:7804   */\n      dup3\n        /* \"#utility.yul\":7791:7809   */\n      add\n        /* \"#utility.yul\":7783:7809   */\n      swap1\n      pop\n        /* \"#utility.yul\":7855:7864   */\n      dup2\n        /* \"#utility.yul\":7849:7853   */\n      dup2\n        /* \"#utility.yul\":7845:7865   */\n      sub\n        /* \"#utility.yul\":7841:7842   */\n      0x00\n        /* \"#utility.yul\":7830:7839   */\n      dup4\n        /* \"#utility.yul\":7826:7843   */\n      add\n        /* \"#utility.yul\":7819:7866   */\n      mstore\n        /* \"#utility.yul\":7883:8014   */\n      tag_206\n        /* \"#utility.yul\":8009:8013   */\n      dup2\n        /* \"#utility.yul\":7883:8014   */\n      tag_103\n      jump\t// in\n    tag_206:\n        /* \"#utility.yul\":7875:8014   */\n      swap1\n      pop\n        /* \"#utility.yul\":7602:8021   */\n      swap2\n      swap1\n      pop\n      jump\t// out\n        /* \"#utility.yul\":8027:8145   */\n    tag_104:\n        /* \"#utility.yul\":8114:8138   */\n      tag_208\n        /* \"#utility.yul\":8132:8137   */\n      dup2\n        /* \"#utility.yul\":8114:8138   */\n      tag_75\n      jump\t// in\n    tag_208:\n        /* \"#utility.yul\":8109:8112   */\n      dup3\n        /* \"#utility.yul\":8102:8139   */\n      mstore\n        /* \"#utility.yul\":8027:8145   */\n      pop\n      pop\n      jump\t// out\n        /* \"#utility.yul\":8151:8373   */\n    tag_36:\n        /* \"#utility.yul\":8244:8248   */\n      0x00\n        /* \"#utility.yul\":8282:8284   */\n      0x20\n        /* \"#utility.yul\":8271:8280   */\n      dup3\n        /* \"#utility.yul\":8267:8285   */\n      add\n        /* \"#utility.yul\":8259:8285   */\n      swap1\n      pop\n        /* \"#utility.yul\":8295:8366   */\n      tag_210\n        /* \"#utility.yul\":8363:8364   */\n      0x00\n        /* \"#utility.yul\":8352:8361   */\n      dup4\n        /* \"#utility.yul\":8348:8365   */\n      add\n        /* \"#utility.yul\":8339:8345   */\n      dup5\n        /* \"#utility.yul\":8295:8366   */\n      tag_104\n      jump\t// in\n    tag_210:\n        /* \"#utility.yul\":8151:8373   */\n      swap3\n      swap2\n      pop\n      pop\n      jump\t// out\n        /* \"#utility.yul\":8379:8495   */\n    tag_105:\n        /* \"#utility.yul\":8449:8470   */\n      tag_212\n        /* \"#utility.yul\":8464:8469   */\n      dup2\n        /* \"#utility.yul\":8449:8470   */\n      tag_94\n      jump\t// in\n    tag_212:\n        /* \"#utility.yul\":8442:8447   */\n      dup2\n        /* \"#utility.yul\":8439:8471   */\n      eq\n        /* \"#utility.yul\":8429:8489   */\n      tag_213\n      jumpi\n        /* \"#utility.yul\":8485:8486   */\n      0x00\n        /* \"#utility.yul\":8482:8483   */\n      dup1\n        /* \"#utility.yul\":8475:8487   */\n      revert\n        /* \"#utility.yul\":8429:8489   */\n    tag_213:\n        /* \"#utility.yul\":8379:8495   */\n      pop\n      jump\t// out\n        /* \"#utility.yul\":8501:8638   */\n    tag_106:\n        /* \"#utility.yul\":8555:8560   */\n      0x00\n        /* \"#utility.yul\":8586:8592   */\n      dup2\n        /* \"#utility.yul\":8580:8593   */\n      mload\n        /* \"#utility.yul\":8571:8593   */\n      swap1\n      pop\n        /* \"#utility.yul\":8602:8632   */\n      tag_215\n        /* \"#utility.yul\":8626:8631   */\n      dup2\n        /* \"#utility.yul\":8602:8632   */\n      tag_105\n      jump\t// in\n    tag_215:\n        /* \"#utility.yul\":8501:8638   */\n      swap3\n      swap2\n      pop\n      pop\n      jump\t// out\n        /* \"#utility.yul\":8644:8989   */\n    tag_40:\n        /* \"#utility.yul\":8711:8717   */\n      0x00\n        /* \"#utility.yul\":8760:8762   */\n      0x20\n        /* \"#utility.yul\":8748:8757   */\n      dup3\n        /* \"#utility.yul\":8739:8746   */\n      dup5\n        /* \"#utility.yul\":8735:8758   */\n      sub\n        /* \"#utility.yul\":8731:8763   */\n      slt\n        /* \"#utility.yul\":8728:8847   */\n      iszero\n      tag_217\n      jumpi\n        /* \"#utility.yul\":8766:8845   */\n      tag_218\n      tag_72\n      jump\t// in\n    tag_218:\n        /* \"#utility.yul\":8728:8847   */\n    tag_217:\n        /* \"#utility.yul\":8886:8887   */\n      0x00\n        /* \"#utility.yul\":8911:8972   */\n      tag_219\n        /* \"#utility.yul\":8964:8971   */\n      dup5\n        /* \"#utility.yul\":8955:8961   */\n      dup3\n        /* \"#utility.yul\":8944:8953   */\n      dup6\n        /* \"#utility.yul\":8940:8962   */\n      add\n        /* \"#utility.yul\":8911:8972   */\n      tag_106\n      jump\t// in\n    tag_219:\n        /* \"#utility.yul\":8901:8972   */\n      swap2\n      pop\n        /* \"#utility.yul\":8857:8982   */\n      pop\n        /* \"#utility.yul\":8644:8989   */\n      swap3\n      swap2\n      pop\n      pop\n      jump\t// out\n        /* \"#utility.yul\":8995:9138   */\n    tag_107:\n        /* \"#utility.yul\":9052:9057   */\n      0x00\n        /* \"#utility.yul\":9083:9089   */\n      dup2\n        /* \"#utility.yul\":9077:9090   */\n      mload\n        /* \"#utility.yul\":9068:9090   */\n      swap1\n      pop\n        /* \"#utility.yul\":9099:9132   */\n      tag_221\n        /* \"#utility.yul\":9126:9131   */\n      dup2\n        /* \"#utility.yul\":9099:9132   */\n      tag_79\n      jump\t// in\n    tag_221:\n        /* \"#utility.yul\":8995:9138   */\n      swap3\n      swap2\n      pop\n      pop\n      jump\t// out\n        /* \"#utility.yul\":9144:9495   */\n    tag_47:\n        /* \"#utility.yul\":9214:9220   */\n      0x00\n        /* \"#utility.yul\":9263:9265   */\n      0x20\n        /* \"#utility.yul\":9251:9260   */\n      dup3\n        /* \"#utility.yul\":9242:9249   */\n      dup5\n        /* \"#utility.yul\":9238:9261   */\n      sub\n        /* \"#utility.yul\":9234:9266   */\n      slt\n        /* \"#utility.yul\":9231:9350   */\n      iszero\n      tag_223\n      jumpi\n        /* \"#utility.yul\":9269:9348   */\n      tag_224\n      tag_72\n      jump\t// in\n    tag_224:\n        /* \"#utility.yul\":9231:9350   */\n    tag_223:\n        /* \"#utility.yul\":9389:9390   */\n      0x00\n        /* \"#utility.yul\":9414:9478   */\n      tag_225\n        /* \"#utility.yul\":9470:9477   */\n      dup5\n        /* \"#utility.yul\":9461:9467   */\n      dup3\n        /* \"#utility.yul\":9450:9459   */\n      dup6\n        /* \"#utility.yul\":9446:9468   */\n      add\n        /* \"#utility.yul\":9414:9478   */\n      tag_107\n      jump\t// in\n    tag_225:\n        /* \"#utility.yul\":9404:9478   */\n      swap2\n      pop\n        /* \"#utility.yul\":9360:9488   */\n      pop\n        /* \"#utility.yul\":9144:9495   */\n      swap3\n      swap2\n      pop\n      pop\n      jump\t// out\n        /* \"#utility.yul\":9501:9595   */\n    tag_108:\n        /* \"#utility.yul\":9534:9542   */\n      0x00\n        /* \"#utility.yul\":9582:9587   */\n      dup2\n        /* \"#utility.yul\":9578:9580   */\n      0x60\n        /* \"#utility.yul\":9574:9588   */\n      shl\n        /* \"#utility.yul\":9553:9588   */\n      swap1\n      pop\n        /* \"#utility.yul\":9501:9595   */\n      swap2\n      swap1\n      pop\n      jump\t// out\n        /* \"#utility.yul\":9601:9695   */\n    tag_109:\n        /* \"#utility.yul\":9640:9647   */\n      0x00\n        /* \"#utility.yul\":9669:9689   */\n      tag_228\n        /* \"#utility.yul\":9683:9688   */\n      dup3\n        /* \"#utility.yul\":9669:9689   */\n      tag_108\n      jump\t// in\n    tag_228:\n        /* \"#utility.yul\":9658:9689   */\n      swap1\n      pop\n        /* \"#utility.yul\":9601:9695   */\n      swap2\n      swap1\n      pop\n      jump\t// out\n        /* \"#utility.yul\":9701:9801   */\n    tag_110:\n        /* \"#utility.yul\":9740:9747   */\n      0x00\n        /* \"#utility.yul\":9769:9795   */\n      tag_230\n        /* \"#utility.yul\":9789:9794   */\n      dup3\n        /* \"#utility.yul\":9769:9795   */\n      tag_109\n      jump\t// in\n    tag_230:\n        /* \"#utility.yul\":9758:9795   */\n      swap1\n      pop\n        /* \"#utility.yul\":9701:9801   */\n      swap2\n      swap1\n      pop\n      jump\t// out\n        /* \"#utility.yul\":9807:9964   */\n    tag_111:\n        /* \"#utility.yul\":9912:9957   */\n      tag_232\n        /* \"#utility.yul\":9932:9956   */\n      tag_233\n        /* \"#utility.yul\":9950:9955   */\n      dup3\n        /* \"#utility.yul\":9932:9956   */\n      tag_75\n      jump\t// in\n    tag_233:\n        /* \"#utility.yul\":9912:9957   */\n      tag_110\n      jump\t// in\n    tag_232:\n        /* \"#utility.yul\":9907:9910   */\n      dup3\n        /* \"#utility.yul\":9900:9958   */\n      mstore\n        /* \"#utility.yul\":9807:9964   */\n      pop\n      pop\n      jump\t// out\n        /* \"#utility.yul\":9970:10226   */\n    tag_50:\n        /* \"#utility.yul\":10082:10085   */\n      0x00\n        /* \"#utility.yul\":10097:10172   */\n      tag_235\n        /* \"#utility.yul\":10168:10171   */\n      dup3\n        /* \"#utility.yul\":10159:10165   */\n      dup5\n        /* \"#utility.yul\":10097:10172   */\n      tag_111\n      jump\t// in\n    tag_235:\n        /* \"#utility.yul\":10197:10199   */\n      0x14\n        /* \"#utility.yul\":10192:10195   */\n      dup3\n        /* \"#utility.yul\":10188:10200   */\n      add\n        /* \"#utility.yul\":10181:10200   */\n      swap2\n      pop\n        /* \"#utility.yul\":10217:10220   */\n      dup2\n        /* \"#utility.yul\":10210:10220   */\n      swap1\n      pop\n        /* \"#utility.yul\":9970:10226   */\n      swap3\n      swap2\n      pop\n      pop\n      jump\t// out\n        /* \"#utility.yul\":10232:10412   */\n    tag_56:\n        /* \"#utility.yul\":10280:10357   */\n      0x4e487b7100000000000000000000000000000000000000000000000000000000\n        /* \"#utility.yul\":10277:10278   */\n      0x00\n        /* \"#utility.yul\":10270:10358   */\n      mstore\n        /* \"#utility.yul\":10377:10381   */\n      0x32\n        /* \"#utility.yul\":10374:10375   */\n      0x04\n        /* \"#utility.yul\":10367:10382   */\n      mstore\n        /* \"#utility.yul\":10401:10405   */\n      0x24\n        /* \"#utility.yul\":10398:10399   */\n      0x00\n        /* \"#utility.yul\":10391:10406   */\n      revert\n        /* \"#utility.yul\":10418:10497   */\n    tag_112:\n        /* \"#utility.yul\":10457:10464   */\n      0x00\n        /* \"#utility.yul\":10486:10491   */\n      dup2\n        /* \"#utility.yul\":10475:10491   */\n      swap1\n      pop\n        /* \"#utility.yul\":10418:10497   */\n      swap2\n      swap1\n      pop\n      jump\t// out\n        /* \"#utility.yul\":10503:10660   */\n    tag_113:\n        /* \"#utility.yul\":10608:10653   */\n      tag_239\n        /* \"#utility.yul\":10628:10652   */\n      tag_240\n        /* \"#utility.yul\":10646:10651   */\n      dup3\n        /* \"#utility.yul\":10628:10652   */\n      tag_89\n      jump\t// in\n    tag_240:\n        /* \"#utility.yul\":10608:10653   */\n      tag_112\n      jump\t// in\n    tag_239:\n        /* \"#utility.yul\":10603:10606   */\n      dup3\n        /* \"#utility.yul\":10596:10654   */\n      mstore\n        /* \"#utility.yul\":10503:10660   */\n      pop\n      pop\n      jump\t// out\n        /* \"#utility.yul\":10666:11063   */\n    tag_59:\n        /* \"#utility.yul\":10806:10809   */\n      0x00\n        /* \"#utility.yul\":10821:10896   */\n      tag_242\n        /* \"#utility.yul\":10892:10895   */\n      dup3\n        /* \"#utility.yul\":10883:10889   */\n      dup6\n        /* \"#utility.yul\":10821:10896   */\n      tag_113\n      jump\t// in\n    tag_242:\n        /* \"#utility.yul\":10921:10923   */\n      0x20\n        /* \"#utility.yul\":10916:10919   */\n      dup3\n        /* \"#utility.yul\":10912:10924   */\n      add\n        /* \"#utility.yul\":10905:10924   */\n      swap2\n      pop\n        /* \"#utility.yul\":10934:11009   */\n      tag_243\n        /* \"#utility.yul\":11005:11008   */\n      dup3\n        /* \"#utility.yul\":10996:11002   */\n      dup5\n        /* \"#utility.yul\":10934:11009   */\n      tag_113\n      jump\t// in\n    tag_243:\n        /* \"#utility.yul\":11034:11036   */\n      0x20\n        /* \"#utility.yul\":11029:11032   */\n      dup3\n        /* \"#utility.yul\":11025:11037   */\n      add\n        /* \"#utility.yul\":11018:11037   */\n      swap2\n      pop\n        /* \"#utility.yul\":11054:11057   */\n      dup2\n        /* \"#utility.yul\":11047:11057   */\n      swap1\n      pop\n        /* \"#utility.yul\":10666:11063   */\n      swap4\n      swap3\n      pop\n      pop\n      pop\n      jump\t// out\n        /* \"#utility.yul\":11069:11249   */\n    tag_114:\n        /* \"#utility.yul\":11117:11194   */\n      0x4e487b7100000000000000000000000000000000000000000000000000000000\n        /* \"#utility.yul\":11114:11115   */\n      0x00\n        /* \"#utility.yul\":11107:11195   */\n      mstore\n        /* \"#utility.yul\":11214:11218   */\n      0x11\n        /* \"#utility.yul\":11211:11212   */\n      0x04\n        /* \"#utility.yul\":11204:11219   */\n      mstore\n        /* \"#utility.yul\":11238:11242   */\n      0x24\n        /* \"#utility.yul\":11235:11236   */\n      0x00\n        /* \"#utility.yul\":11228:11243   */\n      revert\n        /* \"#utility.yul\":11255:11488   */\n    tag_63:\n        /* \"#utility.yul\":11294:11297   */\n      0x00\n        /* \"#utility.yul\":11317:11341   */\n      tag_246\n        /* \"#utility.yul\":11335:11340   */\n      dup3\n        /* \"#utility.yul\":11317:11341   */\n      tag_78\n      jump\t// in\n    tag_246:\n        /* \"#utility.yul\":11308:11341   */\n      swap2\n      pop\n        /* \"#utility.yul\":11363:11429   */\n      0xffffffffffffffffffffffffffffffffffffffffffffffffffffffffffffffff\n        /* \"#utility.yul\":11356:11361   */\n      dup3\n        /* \"#utility.yul\":11353:11430   */\n      sub\n        /* \"#utility.yul\":11350:11453   */\n      tag_247\n      jumpi\n        /* \"#utility.yul\":11433:11451   */\n      tag_248\n      tag_114\n      jump\t// in\n    tag_248:\n        /* \"#utility.yul\":11350:11453   */\n    tag_247:\n        /* \"#utility.yul\":11480:11481   */\n      0x01\n        /* \"#utility.yul\":11473:11478   */\n      dup3\n        /* \"#utility.yul\":11469:11482   */\n      add\n        /* \"#utility.yul\":11462:11482   */\n      swap1\n      pop\n        /* \"#utility.yul\":11255:11488   */\n      swap2\n      swap1\n      pop\n      jump\t// out\n\n    auxdata: 0xa2646970667358221220dc868b4649720c964131ba2e059ffb9af2a3fa79f88589563a35abd1dfe2a99e64736f6c63430008120033\n}\n",
				"bytecode": {
					"linkReferences": {},
					"object": "608060405234801561001057600080fd5b50604051610dab380380610dab8339818101604052810190610032919061011d565b816000806101000a81548173ffffffffffffffffffffffffffffffffffffffff021916908373ffffffffffffffffffffffffffffffffffffffff16021790555080600560006101000a81548173ffffffffffffffffffffffffffffffffffffffff021916908373ffffffffffffffffffffffffffffffffffffffff160217905550505061015d565b600080fd5b600073ffffffffffffffffffffffffffffffffffffffff82169050919050565b60006100ea826100bf565b9050919050565b6100fa816100df565b811461010557600080fd5b50565b600081519050610117816100f1565b92915050565b60008060408385031215610134576101336100ba565b5b600061014285828601610108565b925050602061015385828601610108565b9150509250929050565b610c3f8061016c6000396000f3fe608060405234801561001057600080fd5b50600436106100575760003560e01c80634317615a1461005c5780634e71d92d14610078578063a35602f014610096578063f62ea2aa146100c6578063f8a8256d146100e4575b600080fd5b61007660048036038101906100719190610646565b610114565b005b6100806102d9565b60405161008d91906106a8565b60405180910390f35b6100b060048036038101906100ab9190610852565b61039c565b6040516100bd91906108b6565b60405180910390f35b6100ce610499565b6040516100db9190610930565b60405180910390f35b6100fe60048036038101906100f99190610852565b6104bf565b60405161010b91906108b6565b60405180910390f35b600160009054906101000a900473ffffffffffffffffffffffffffffffffffffffff1673ffffffffffffffffffffffffffffffffffffffff163373ffffffffffffffffffffffffffffffffffffffff16146101a4576040517f08c379a000000000000000000000000000000000000000000000000000000000815260040161019b906109ce565b60405180910390fd5b6000600560009054906101000a900473ffffffffffffffffffffffffffffffffffffffff1673ffffffffffffffffffffffffffffffffffffffff1663b0ef2f68856040518263ffffffff1660e01b815260040161020191906109fd565b602060405180830381865afa15801561021e573d6000803e3d6000fd5b505050506040513d601f19601f820116820180604052508101906102429190610a44565b905080156102d35782600360008673ffffffffffffffffffffffffffffffffffffffff1673ffffffffffffffffffffffffffffffffffffffff1681526020019081526020016000208190555081600460008673ffffffffffffffffffffffffffffffffffffffff1673ffffffffffffffffffffffffffffffffffffffff168152602001908152602001600020819055505b50505050565b6000600560009054906101000a900473ffffffffffffffffffffffffffffffffffffffff1673ffffffffffffffffffffffffffffffffffffffff166370a0823160008054906101000a900473ffffffffffffffffffffffffffffffffffffffff166040518263ffffffff1660e01b815260040161035691906109fd565b602060405180830381865afa158015610373573d6000803e3d6000fd5b505050506040513d601f19601f820116820180604052508101906103979190610a86565b905090565b60008060008054906101000a900473ffffffffffffffffffffffffffffffffffffffff166040516020016103d09190610afb565b60405160208183030381529060405280519060200120905060005b835181101561048b57600084828151811061040957610408610b16565b5b602002602001015190508083101561044b57828160405160200161042e929190610b66565b604051602081830303815290604052805190602001209250610477565b808360405160200161045e929190610b66565b6040516020818303038152906040528051906020012092505b50808061048390610bc1565b9150506103eb565b506002548114915050919050565b600560009054906101000a900473ffffffffffffffffffffffffffffffffffffffff1681565b6000806104cb8361039c565b90506000811561059457600560009054906101000a900473ffffffffffffffffffffffffffffffffffffffff1673ffffffffffffffffffffffffffffffffffffffff1663eb46260e60008054906101000a900473ffffffffffffffffffffffffffffffffffffffff166040518263ffffffff1660e01b815260040161055091906109fd565b602060405180830381865afa15801561056d573d6000803e3d6000fd5b505050506040513d601f19601f820116820180604052508101906105919190610a44565b90505b8092505050919050565b6000604051905090565b600080fd5b600080fd5b600073ffffffffffffffffffffffffffffffffffffffff82169050919050565b60006105dd826105b2565b9050919050565b6105ed816105d2565b81146105f857600080fd5b50565b60008135905061060a816105e4565b92915050565b6000819050919050565b61062381610610565b811461062e57600080fd5b50565b6000813590506106408161061a565b92915050565b60008060006060848603121561065f5761065e6105a8565b5b600061066d868287016105fb565b935050602061067e86828701610631565b925050604061068f86828701610631565b9150509250925092565b6106a281610610565b82525050565b60006020820190506106bd6000830184610699565b92915050565b600080fd5b6000601f19601f8301169050919050565b7f4e487b7100000000000000000000000000000000000000000000000000000000600052604160045260246000fd5b610711826106c8565b810181811067ffffffffffffffff821117156107305761072f6106d9565b5b80604052505050565b600061074361059e565b905061074f8282610708565b919050565b600067ffffffffffffffff82111561076f5761076e6106d9565b5b602082029050602081019050919050565b600080fd5b6000819050919050565b61079881610785565b81146107a357600080fd5b50565b6000813590506107b58161078f565b92915050565b60006107ce6107c984610754565b610739565b905080838252602082019050602084028301858111156107f1576107f0610780565b5b835b8181101561081a578061080688826107a6565b8452602084019350506020810190506107f3565b5050509392505050565b600082601f830112610839576108386106c3565b5b81356108498482602086016107bb565b91505092915050565b600060208284031215610868576108676105a8565b5b600082013567ffffffffffffffff811115610886576108856105ad565b5b61089284828501610824565b91505092915050565b60008115159050919050565b6108b08161089b565b82525050565b60006020820190506108cb60008301846108a7565b92915050565b6000819050919050565b60006108f66108f16108ec846105b2565b6108d1565b6105b2565b9050919050565b6000610908826108db565b9050919050565b600061091a826108fd565b9050919050565b61092a8161090f565b82525050565b60006020820190506109456000830184610921565b92915050565b600082825260208201905092915050565b7f4f6e6c7920696e74656e64616e742063616e2063616c6c20746869732066756e60008201527f6374696f6e000000000000000000000000000000000000000000000000000000602082015250565b60006109b860258361094b565b91506109c38261095c565b604082019050919050565b600060208201905081810360008301526109e7816109ab565b9050919050565b6109f7816105d2565b82525050565b6000602082019050610a1260008301846109ee565b92915050565b610a218161089b565b8114610a2c57600080fd5b50565b600081519050610a3e81610a18565b92915050565b600060208284031215610a5a57610a596105a8565b5b6000610a6884828501610a2f565b91505092915050565b600081519050610a808161061a565b92915050565b600060208284031215610a9c57610a9b6105a8565b5b6000610aaa84828501610a71565b91505092915050565b60008160601b9050919050565b6000610acb82610ab3565b9050919050565b6000610add82610ac0565b9050919050565b610af5610af0826105d2565b610ad2565b82525050565b6000610b078284610ae4565b60148201915081905092915050565b7f4e487b7100000000000000000000000000000000000000000000000000000000600052603260045260246000fd5b6000819050919050565b610b60610b5b82610785565b610b45565b82525050565b6000610b728285610b4f565b602082019150610b828284610b4f565b6020820191508190509392505050565b7f4e487b7100000000000000000000000000000000000000000000000000000000600052601160045260246000fd5b6000610bcc82610610565b91507fffffffffffffffffffffffffffffffffffffffffffffffffffffffffffffffff8203610bfe57610bfd610b92565b5b60018201905091905056fea2646970667358221220dc868b4649720c964131ba2e059ffb9af2a3fa79f88589563a35abd1dfe2a99e64736f6c63430008120033",
					"opcodes": "PUSH1 0x80 PUSH1 0x40 MSTORE CALLVALUE DUP1 ISZERO PUSH2 0x10 JUMPI PUSH1 0x0 DUP1 REVERT JUMPDEST POP PUSH1 0x40 MLOAD PUSH2 0xDAB CODESIZE SUB DUP1 PUSH2 0xDAB DUP4 CODECOPY DUP2 DUP2 ADD PUSH1 0x40 MSTORE DUP2 ADD SWAP1 PUSH2 0x32 SWAP2 SWAP1 PUSH2 0x11D JUMP JUMPDEST DUP2 PUSH1 0x0 DUP1 PUSH2 0x100 EXP DUP2 SLOAD DUP2 PUSH20 0xFFFFFFFFFFFFFFFFFFFFFFFFFFFFFFFFFFFFFFFF MUL NOT AND SWAP1 DUP4 PUSH20 0xFFFFFFFFFFFFFFFFFFFFFFFFFFFFFFFFFFFFFFFF AND MUL OR SWAP1 SSTORE POP DUP1 PUSH1 0x5 PUSH1 0x0 PUSH2 0x100 EXP DUP2 SLOAD DUP2 PUSH20 0xFFFFFFFFFFFFFFFFFFFFFFFFFFFFFFFFFFFFFFFF MUL NOT AND SWAP1 DUP4 PUSH20 0xFFFFFFFFFFFFFFFFFFFFFFFFFFFFFFFFFFFFFFFF AND MUL OR SWAP1 SSTORE POP POP POP PUSH2 0x15D JUMP JUMPDEST PUSH1 0x0 DUP1 REVERT JUMPDEST PUSH1 0x0 PUSH20 0xFFFFFFFFFFFFFFFFFFFFFFFFFFFFFFFFFFFFFFFF DUP3 AND SWAP1 POP SWAP2 SWAP1 POP JUMP JUMPDEST PUSH1 0x0 PUSH2 0xEA DUP3 PUSH2 0xBF JUMP JUMPDEST SWAP1 POP SWAP2 SWAP1 POP JUMP JUMPDEST PUSH2 0xFA DUP2 PUSH2 0xDF JUMP JUMPDEST DUP2 EQ PUSH2 0x105 JUMPI PUSH1 0x0 DUP1 REVERT JUMPDEST POP JUMP JUMPDEST PUSH1 0x0 DUP2 MLOAD SWAP1 POP PUSH2 0x117 DUP2 PUSH2 0xF1 JUMP JUMPDEST SWAP3 SWAP2 POP POP JUMP JUMPDEST PUSH1 0x0 DUP1 PUSH1 0x40 DUP4 DUP6 SUB SLT ISZERO PUSH2 0x134 JUMPI PUSH2 0x133 PUSH2 0xBA JUMP JUMPDEST JUMPDEST PUSH1 0x0 PUSH2 0x142 DUP6 DUP3 DUP7 ADD PUSH2 0x108 JUMP JUMPDEST SWAP3 POP POP PUSH1 0x20 PUSH2 0x153 DUP6 DUP3 DUP7 ADD PUSH2 0x108 JUMP JUMPDEST SWAP2 POP POP SWAP3 POP SWAP3 SWAP1 POP JUMP JUMPDEST PUSH2 0xC3F DUP1 PUSH2 0x16C PUSH1 0x0 CODECOPY PUSH1 0x0 RETURN INVALID PUSH1 0x80 PUSH1 0x40 MSTORE CALLVALUE DUP1 ISZERO PUSH2 0x10 JUMPI PUSH1 0x0 DUP1 REVERT JUMPDEST POP PUSH1 0x4 CALLDATASIZE LT PUSH2 0x57 JUMPI PUSH1 0x0 CALLDATALOAD PUSH1 0xE0 SHR DUP1 PUSH4 0x4317615A EQ PUSH2 0x5C JUMPI DUP1 PUSH4 0x4E71D92D EQ PUSH2 0x78 JUMPI DUP1 PUSH4 0xA35602F0 EQ PUSH2 0x96 JUMPI DUP1 PUSH4 0xF62EA2AA EQ PUSH2 0xC6 JUMPI DUP1 PUSH4 0xF8A8256D EQ PUSH2 0xE4 JUMPI JUMPDEST PUSH1 0x0 DUP1 REVERT JUMPDEST PUSH2 0x76 PUSH1 0x4 DUP1 CALLDATASIZE SUB DUP2 ADD SWAP1 PUSH2 0x71 SWAP2 SWAP1 PUSH2 0x646 JUMP JUMPDEST PUSH2 0x114 JUMP JUMPDEST STOP JUMPDEST PUSH2 0x80 PUSH2 0x2D9 JUMP JUMPDEST PUSH1 0x40 MLOAD PUSH2 0x8D SWAP2 SWAP1 PUSH2 0x6A8 JUMP JUMPDEST PUSH1 0x40 MLOAD DUP1 SWAP2 SUB SWAP1 RETURN JUMPDEST PUSH2 0xB0 PUSH1 0x4 DUP1 CALLDATASIZE SUB DUP2 ADD SWAP1 PUSH2 0xAB SWAP2 SWAP1 PUSH2 0x852 JUMP JUMPDEST PUSH2 0x39C JUMP JUMPDEST PUSH1 0x40 MLOAD PUSH2 0xBD SWAP2 SWAP1 PUSH2 0x8B6 JUMP JUMPDEST PUSH1 0x40 MLOAD DUP1 SWAP2 SUB SWAP1 RETURN JUMPDEST PUSH2 0xCE PUSH2 0x499 JUMP JUMPDEST PUSH1 0x40 MLOAD PUSH2 0xDB SWAP2 SWAP1 PUSH2 0x930 JUMP JUMPDEST PUSH1 0x40 MLOAD DUP1 SWAP2 SUB SWAP1 RETURN JUMPDEST PUSH2 0xFE PUSH1 0x4 DUP1 CALLDATASIZE SUB DUP2 ADD SWAP1 PUSH2 0xF9 SWAP2 SWAP1 PUSH2 0x852 JUMP JUMPDEST PUSH2 0x4BF JUMP JUMPDEST PUSH1 0x40 MLOAD PUSH2 0x10B SWAP2 SWAP1 PUSH2 0x8B6 JUMP JUMPDEST PUSH1 0x40 MLOAD DUP1 SWAP2 SUB SWAP1 RETURN JUMPDEST PUSH1 0x1 PUSH1 0x0 SWAP1 SLOAD SWAP1 PUSH2 0x100 EXP SWAP1 DIV PUSH20 0xFFFFFFFFFFFFFFFFFFFFFFFFFFFFFFFFFFFFFFFF AND PUSH20 0xFFFFFFFFFFFFFFFFFFFFFFFFFFFFFFFFFFFFFFFF AND CALLER PUSH20 0xFFFFFFFFFFFFFFFFFFFFFFFFFFFFFFFFFFFFFFFF AND EQ PUSH2 0x1A4 JUMPI PUSH1 0x40 MLOAD PUSH32 0x8C379A000000000000000000000000000000000000000000000000000000000 DUP2 MSTORE PUSH1 0x4 ADD PUSH2 0x19B SWAP1 PUSH2 0x9CE JUMP JUMPDEST PUSH1 0x40 MLOAD DUP1 SWAP2 SUB SWAP1 REVERT JUMPDEST PUSH1 0x0 PUSH1 0x5 PUSH1 0x0 SWAP1 SLOAD SWAP1 PUSH2 0x100 EXP SWAP1 DIV PUSH20 0xFFFFFFFFFFFFFFFFFFFFFFFFFFFFFFFFFFFFFFFF AND PUSH20 0xFFFFFFFFFFFFFFFFFFFFFFFFFFFFFFFFFFFFFFFF AND PUSH4 0xB0EF2F68 DUP6 PUSH1 0x40 MLOAD DUP3 PUSH4 0xFFFFFFFF AND PUSH1 0xE0 SHL DUP2 MSTORE PUSH1 0x4 ADD PUSH2 0x201 SWAP2 SWAP1 PUSH2 0x9FD JUMP JUMPDEST PUSH1 0x20 PUSH1 0x40 MLOAD DUP1 DUP4 SUB DUP2 DUP7 GAS STATICCALL ISZERO DUP1 ISZERO PUSH2 0x21E JUMPI RETURNDATASIZE PUSH1 0x0 DUP1 RETURNDATACOPY RETURNDATASIZE PUSH1 0x0 REVERT JUMPDEST POP POP POP POP PUSH1 0x40 MLOAD RETURNDATASIZE PUSH1 0x1F NOT PUSH1 0x1F DUP3 ADD AND DUP3 ADD DUP1 PUSH1 0x40 MSTORE POP DUP2 ADD SWAP1 PUSH2 0x242 SWAP2 SWAP1 PUSH2 0xA44 JUMP JUMPDEST SWAP1 POP DUP1 ISZERO PUSH2 0x2D3 JUMPI DUP3 PUSH1 0x3 PUSH1 0x0 DUP7 PUSH20 0xFFFFFFFFFFFFFFFFFFFFFFFFFFFFFFFFFFFFFFFF AND PUSH20 0xFFFFFFFFFFFFFFFFFFFFFFFFFFFFFFFFFFFFFFFF AND DUP2 MSTORE PUSH1 0x20 ADD SWAP1 DUP2 MSTORE PUSH1 0x20 ADD PUSH1 0x0 KECCAK256 DUP2 SWAP1 SSTORE POP DUP2 PUSH1 0x4 PUSH1 0x0 DUP7 PUSH20 0xFFFFFFFFFFFFFFFFFFFFFFFFFFFFFFFFFFFFFFFF AND PUSH20 0xFFFFFFFFFFFFFFFFFFFFFFFFFFFFFFFFFFFFFFFF AND DUP2 MSTORE PUSH1 0x20 ADD SWAP1 DUP2 MSTORE PUSH1 0x20 ADD PUSH1 0x0 KECCAK256 DUP2 SWAP1 SSTORE POP JUMPDEST POP POP POP POP JUMP JUMPDEST PUSH1 0x0 PUSH1 0x5 PUSH1 0x0 SWAP1 SLOAD SWAP1 PUSH2 0x100 EXP SWAP1 DIV PUSH20 0xFFFFFFFFFFFFFFFFFFFFFFFFFFFFFFFFFFFFFFFF AND PUSH20 0xFFFFFFFFFFFFFFFFFFFFFFFFFFFFFFFFFFFFFFFF AND PUSH4 0x70A08231 PUSH1 0x0 DUP1 SLOAD SWAP1 PUSH2 0x100 EXP SWAP1 DIV PUSH20 0xFFFFFFFFFFFFFFFFFFFFFFFFFFFFFFFFFFFFFFFF AND PUSH1 0x40 MLOAD DUP3 PUSH4 0xFFFFFFFF AND PUSH1 0xE0 SHL DUP2 MSTORE PUSH1 0x4 ADD PUSH2 0x356 SWAP2 SWAP1 PUSH2 0x9FD JUMP JUMPDEST PUSH1 0x20 PUSH1 0x40 MLOAD DUP1 DUP4 SUB DUP2 DUP7 GAS STATICCALL ISZERO DUP1 ISZERO PUSH2 0x373 JUMPI RETURNDATASIZE PUSH1 0x0 DUP1 RETURNDATACOPY RETURNDATASIZE PUSH1 0x0 REVERT JUMPDEST POP POP POP POP PUSH1 0x40 MLOAD RETURNDATASIZE PUSH1 0x1F NOT PUSH1 0x1F DUP3 ADD AND DUP3 ADD DUP1 PUSH1 0x40 MSTORE POP DUP2 ADD SWAP1 PUSH2 0x397 SWAP2 SWAP1 PUSH2 0xA86 JUMP JUMPDEST SWAP1 POP SWAP1 JUMP JUMPDEST PUSH1 0x0 DUP1 PUSH1 0x0 DUP1 SLOAD SWAP1 PUSH2 0x100 EXP SWAP1 DIV PUSH20 0xFFFFFFFFFFFFFFFFFFFFFFFFFFFFFFFFFFFFFFFF AND PUSH1 0x40 MLOAD PUSH1 0x20 ADD PUSH2 0x3D0 SWAP2 SWAP1 PUSH2 0xAFB JUMP JUMPDEST PUSH1 0x40 MLOAD PUSH1 0x20 DUP2 DUP4 SUB SUB DUP2 MSTORE SWAP1 PUSH1 0x40 MSTORE DUP1 MLOAD SWAP1 PUSH1 0x20 ADD KECCAK256 SWAP1 POP PUSH1 0x0 JUMPDEST DUP4 MLOAD DUP2 LT ISZERO PUSH2 0x48B JUMPI PUSH1 0x0 DUP5 DUP3 DUP2 MLOAD DUP2 LT PUSH2 0x409 JUMPI PUSH2 0x408 PUSH2 0xB16 JUMP JUMPDEST JUMPDEST PUSH1 0x20 MUL PUSH1 0x20 ADD ADD MLOAD SWAP1 POP DUP1 DUP4 LT ISZERO PUSH2 0x44B JUMPI DUP3 DUP2 PUSH1 0x40 MLOAD PUSH1 0x20 ADD PUSH2 0x42E SWAP3 SWAP2 SWAP1 PUSH2 0xB66 JUMP JUMPDEST PUSH1 0x40 MLOAD PUSH1 0x20 DUP2 DUP4 SUB SUB DUP2 MSTORE SWAP1 PUSH1 0x40 MSTORE DUP1 MLOAD SWAP1 PUSH1 0x20 ADD KECCAK256 SWAP3 POP PUSH2 0x477 JUMP JUMPDEST DUP1 DUP4 PUSH1 0x40 MLOAD PUSH1 0x20 ADD PUSH2 0x45E SWAP3 SWAP2 SWAP1 PUSH2 0xB66 JUMP JUMPDEST PUSH1 0x40 MLOAD PUSH1 0x20 DUP2 DUP4 SUB SUB DUP2 MSTORE SWAP1 PUSH1 0x40 MSTORE DUP1 MLOAD SWAP1 PUSH1 0x20 ADD KECCAK256 SWAP3 POP JUMPDEST POP DUP1 DUP1 PUSH2 0x483 SWAP1 PUSH2 0xBC1 JUMP JUMPDEST SWAP2 POP POP PUSH2 0x3EB JUMP JUMPDEST POP PUSH1 0x2 SLOAD DUP2 EQ SWAP2 POP POP SWAP2 SWAP1 POP JUMP JUMPDEST PUSH1 0x5 PUSH1 0x0 SWAP1 SLOAD SWAP1 PUSH2 0x100 EXP SWAP1 DIV PUSH20 0xFFFFFFFFFFFFFFFFFFFFFFFFFFFFFFFFFFFFFFFF AND DUP2 JUMP JUMPDEST PUSH1 0x0 DUP1 PUSH2 0x4CB DUP4 PUSH2 0x39C JUMP JUMPDEST SWAP1 POP PUSH1 0x0 DUP2 ISZERO PUSH2 0x594 JUMPI PUSH1 0x5 PUSH1 0x0 SWAP1 SLOAD SWAP1 PUSH2 0x100 EXP SWAP1 DIV PUSH20 0xFFFFFFFFFFFFFFFFFFFFFFFFFFFFFFFFFFFFFFFF AND PUSH20 0xFFFFFFFFFFFFFFFFFFFFFFFFFFFFFFFFFFFFFFFF AND PUSH4 0xEB46260E PUSH1 0x0 DUP1 SLOAD SWAP1 PUSH2 0x100 EXP SWAP1 DIV PUSH20 0xFFFFFFFFFFFFFFFFFFFFFFFFFFFFFFFFFFFFFFFF AND PUSH1 0x40 MLOAD DUP3 PUSH4 0xFFFFFFFF AND PUSH1 0xE0 SHL DUP2 MSTORE PUSH1 0x4 ADD PUSH2 0x550 SWAP2 SWAP1 PUSH2 0x9FD JUMP JUMPDEST PUSH1 0x20 PUSH1 0x40 MLOAD DUP1 DUP4 SUB DUP2 DUP7 GAS STATICCALL ISZERO DUP1 ISZERO PUSH2 0x56D JUMPI RETURNDATASIZE PUSH1 0x0 DUP1 RETURNDATACOPY RETURNDATASIZE PUSH1 0x0 REVERT JUMPDEST POP POP POP POP PUSH1 0x40 MLOAD RETURNDATASIZE PUSH1 0x1F NOT PUSH1 0x1F DUP3 ADD AND DUP3 ADD DUP1 PUSH1 0x40 MSTORE POP DUP2 ADD SWAP1 PUSH2 0x591 SWAP2 SWAP1 PUSH2 0xA44 JUMP JUMPDEST SWAP1 POP JUMPDEST DUP1 SWAP3 POP POP POP SWAP2 SWAP1 POP JUMP JUMPDEST PUSH1 0x0 PUSH1 0x40 MLOAD SWAP1 POP SWAP1 JUMP JUMPDEST PUSH1 0x0 DUP1 REVERT JUMPDEST PUSH1 0x0 DUP1 REVERT JUMPDEST PUSH1 0x0 PUSH20 0xFFFFFFFFFFFFFFFFFFFFFFFFFFFFFFFFFFFFFFFF DUP3 AND SWAP1 POP SWAP2 SWAP1 POP JUMP JUMPDEST PUSH1 0x0 PUSH2 0x5DD DUP3 PUSH2 0x5B2 JUMP JUMPDEST SWAP1 POP SWAP2 SWAP1 POP JUMP JUMPDEST PUSH2 0x5ED DUP2 PUSH2 0x5D2 JUMP JUMPDEST DUP2 EQ PUSH2 0x5F8 JUMPI PUSH1 0x0 DUP1 REVERT JUMPDEST POP JUMP JUMPDEST PUSH1 0x0 DUP2 CALLDATALOAD SWAP1 POP PUSH2 0x60A DUP2 PUSH2 0x5E4 JUMP JUMPDEST SWAP3 SWAP2 POP POP JUMP JUMPDEST PUSH1 0x0 DUP2 SWAP1 POP SWAP2 SWAP1 POP JUMP JUMPDEST PUSH2 0x623 DUP2 PUSH2 0x610 JUMP JUMPDEST DUP2 EQ PUSH2 0x62E JUMPI PUSH1 0x0 DUP1 REVERT JUMPDEST POP JUMP JUMPDEST PUSH1 0x0 DUP2 CALLDATALOAD SWAP1 POP PUSH2 0x640 DUP2 PUSH2 0x61A JUMP JUMPDEST SWAP3 SWAP2 POP POP JUMP JUMPDEST PUSH1 0x0 DUP1 PUSH1 0x0 PUSH1 0x60 DUP5 DUP7 SUB SLT ISZERO PUSH2 0x65F JUMPI PUSH2 0x65E PUSH2 0x5A8 JUMP JUMPDEST JUMPDEST PUSH1 0x0 PUSH2 0x66D DUP7 DUP3 DUP8 ADD PUSH2 0x5FB JUMP JUMPDEST SWAP4 POP POP PUSH1 0x20 PUSH2 0x67E DUP7 DUP3 DUP8 ADD PUSH2 0x631 JUMP JUMPDEST SWAP3 POP POP PUSH1 0x40 PUSH2 0x68F DUP7 DUP3 DUP8 ADD PUSH2 0x631 JUMP JUMPDEST SWAP2 POP POP SWAP3 POP SWAP3 POP SWAP3 JUMP JUMPDEST PUSH2 0x6A2 DUP2 PUSH2 0x610 JUMP JUMPDEST DUP3 MSTORE POP POP JUMP JUMPDEST PUSH1 0x0 PUSH1 0x20 DUP3 ADD SWAP1 POP PUSH2 0x6BD PUSH1 0x0 DUP4 ADD DUP5 PUSH2 0x699 JUMP JUMPDEST SWAP3 SWAP2 POP POP JUMP JUMPDEST PUSH1 0x0 DUP1 REVERT JUMPDEST PUSH1 0x0 PUSH1 0x1F NOT PUSH1 0x1F DUP4 ADD AND SWAP1 POP SWAP2 SWAP1 POP JUMP JUMPDEST PUSH32 0x4E487B7100000000000000000000000000000000000000000000000000000000 PUSH1 0x0 MSTORE PUSH1 0x41 PUSH1 0x4 MSTORE PUSH1 0x24 PUSH1 0x0 REVERT JUMPDEST PUSH2 0x711 DUP3 PUSH2 0x6C8 JUMP JUMPDEST DUP2 ADD DUP2 DUP2 LT PUSH8 0xFFFFFFFFFFFFFFFF DUP3 GT OR ISZERO PUSH2 0x730 JUMPI PUSH2 0x72F PUSH2 0x6D9 JUMP JUMPDEST JUMPDEST DUP1 PUSH1 0x40 MSTORE POP POP POP JUMP JUMPDEST PUSH1 0x0 PUSH2 0x743 PUSH2 0x59E JUMP JUMPDEST SWAP1 POP PUSH2 0x74F DUP3 DUP3 PUSH2 0x708 JUMP JUMPDEST SWAP2 SWAP1 POP JUMP JUMPDEST PUSH1 0x0 PUSH8 0xFFFFFFFFFFFFFFFF DUP3 GT ISZERO PUSH2 0x76F JUMPI PUSH2 0x76E PUSH2 0x6D9 JUMP JUMPDEST JUMPDEST PUSH1 0x20 DUP3 MUL SWAP1 POP PUSH1 0x20 DUP2 ADD SWAP1 POP SWAP2 SWAP1 POP JUMP JUMPDEST PUSH1 0x0 DUP1 REVERT JUMPDEST PUSH1 0x0 DUP2 SWAP1 POP SWAP2 SWAP1 POP JUMP JUMPDEST PUSH2 0x798 DUP2 PUSH2 0x785 JUMP JUMPDEST DUP2 EQ PUSH2 0x7A3 JUMPI PUSH1 0x0 DUP1 REVERT JUMPDEST POP JUMP JUMPDEST PUSH1 0x0 DUP2 CALLDATALOAD SWAP1 POP PUSH2 0x7B5 DUP2 PUSH2 0x78F JUMP JUMPDEST SWAP3 SWAP2 POP POP JUMP JUMPDEST PUSH1 0x0 PUSH2 0x7CE PUSH2 0x7C9 DUP5 PUSH2 0x754 JUMP JUMPDEST PUSH2 0x739 JUMP JUMPDEST SWAP1 POP DUP1 DUP4 DUP3 MSTORE PUSH1 0x20 DUP3 ADD SWAP1 POP PUSH1 0x20 DUP5 MUL DUP4 ADD DUP6 DUP2 GT ISZERO PUSH2 0x7F1 JUMPI PUSH2 0x7F0 PUSH2 0x780 JUMP JUMPDEST JUMPDEST DUP4 JUMPDEST DUP2 DUP2 LT ISZERO PUSH2 0x81A JUMPI DUP1 PUSH2 0x806 DUP9 DUP3 PUSH2 0x7A6 JUMP JUMPDEST DUP5 MSTORE PUSH1 0x20 DUP5 ADD SWAP4 POP POP PUSH1 0x20 DUP2 ADD SWAP1 POP PUSH2 0x7F3 JUMP JUMPDEST POP POP POP SWAP4 SWAP3 POP POP POP JUMP JUMPDEST PUSH1 0x0 DUP3 PUSH1 0x1F DUP4 ADD SLT PUSH2 0x839 JUMPI PUSH2 0x838 PUSH2 0x6C3 JUMP JUMPDEST JUMPDEST DUP2 CALLDATALOAD PUSH2 0x849 DUP5 DUP3 PUSH1 0x20 DUP7 ADD PUSH2 0x7BB JUMP JUMPDEST SWAP2 POP POP SWAP3 SWAP2 POP POP JUMP JUMPDEST PUSH1 0x0 PUSH1 0x20 DUP3 DUP5 SUB SLT ISZERO PUSH2 0x868 JUMPI PUSH2 0x867 PUSH2 0x5A8 JUMP JUMPDEST JUMPDEST PUSH1 0x0 DUP3 ADD CALLDATALOAD PUSH8 0xFFFFFFFFFFFFFFFF DUP2 GT ISZERO PUSH2 0x886 JUMPI PUSH2 0x885 PUSH2 0x5AD JUMP JUMPDEST JUMPDEST PUSH2 0x892 DUP5 DUP3 DUP6 ADD PUSH2 0x824 JUMP JUMPDEST SWAP2 POP POP SWAP3 SWAP2 POP POP JUMP JUMPDEST PUSH1 0x0 DUP2 ISZERO ISZERO SWAP1 POP SWAP2 SWAP1 POP JUMP JUMPDEST PUSH2 0x8B0 DUP2 PUSH2 0x89B JUMP JUMPDEST DUP3 MSTORE POP POP JUMP JUMPDEST PUSH1 0x0 PUSH1 0x20 DUP3 ADD SWAP1 POP PUSH2 0x8CB PUSH1 0x0 DUP4 ADD DUP5 PUSH2 0x8A7 JUMP JUMPDEST SWAP3 SWAP2 POP POP JUMP JUMPDEST PUSH1 0x0 DUP2 SWAP1 POP SWAP2 SWAP1 POP JUMP JUMPDEST PUSH1 0x0 PUSH2 0x8F6 PUSH2 0x8F1 PUSH2 0x8EC DUP5 PUSH2 0x5B2 JUMP JUMPDEST PUSH2 0x8D1 JUMP JUMPDEST PUSH2 0x5B2 JUMP JUMPDEST SWAP1 POP SWAP2 SWAP1 POP JUMP JUMPDEST PUSH1 0x0 PUSH2 0x908 DUP3 PUSH2 0x8DB JUMP JUMPDEST SWAP1 POP SWAP2 SWAP1 POP JUMP JUMPDEST PUSH1 0x0 PUSH2 0x91A DUP3 PUSH2 0x8FD JUMP JUMPDEST SWAP1 POP SWAP2 SWAP1 POP JUMP JUMPDEST PUSH2 0x92A DUP2 PUSH2 0x90F JUMP JUMPDEST DUP3 MSTORE POP POP JUMP JUMPDEST PUSH1 0x0 PUSH1 0x20 DUP3 ADD SWAP1 POP PUSH2 0x945 PUSH1 0x0 DUP4 ADD DUP5 PUSH2 0x921 JUMP JUMPDEST SWAP3 SWAP2 POP POP JUMP JUMPDEST PUSH1 0x0 DUP3 DUP3 MSTORE PUSH1 0x20 DUP3 ADD SWAP1 POP SWAP3 SWAP2 POP POP JUMP JUMPDEST PUSH32 0x4F6E6C7920696E74656E64616E742063616E2063616C6C20746869732066756E PUSH1 0x0 DUP3 ADD MSTORE PUSH32 0x6374696F6E000000000000000000000000000000000000000000000000000000 PUSH1 0x20 DUP3 ADD MSTORE POP JUMP JUMPDEST PUSH1 0x0 PUSH2 0x9B8 PUSH1 0x25 DUP4 PUSH2 0x94B JUMP JUMPDEST SWAP2 POP PUSH2 0x9C3 DUP3 PUSH2 0x95C JUMP JUMPDEST PUSH1 0x40 DUP3 ADD SWAP1 POP SWAP2 SWAP1 POP JUMP JUMPDEST PUSH1 0x0 PUSH1 0x20 DUP3 ADD SWAP1 POP DUP2 DUP2 SUB PUSH1 0x0 DUP4 ADD MSTORE PUSH2 0x9E7 DUP2 PUSH2 0x9AB JUMP JUMPDEST SWAP1 POP SWAP2 SWAP1 POP JUMP JUMPDEST PUSH2 0x9F7 DUP2 PUSH2 0x5D2 JUMP JUMPDEST DUP3 MSTORE POP POP JUMP JUMPDEST PUSH1 0x0 PUSH1 0x20 DUP3 ADD SWAP1 POP PUSH2 0xA12 PUSH1 0x0 DUP4 ADD DUP5 PUSH2 0x9EE JUMP JUMPDEST SWAP3 SWAP2 POP POP JUMP JUMPDEST PUSH2 0xA21 DUP2 PUSH2 0x89B JUMP JUMPDEST DUP2 EQ PUSH2 0xA2C JUMPI PUSH1 0x0 DUP1 REVERT JUMPDEST POP JUMP JUMPDEST PUSH1 0x0 DUP2 MLOAD SWAP1 POP PUSH2 0xA3E DUP2 PUSH2 0xA18 JUMP JUMPDEST SWAP3 SWAP2 POP POP JUMP JUMPDEST PUSH1 0x0 PUSH1 0x20 DUP3 DUP5 SUB SLT ISZERO PUSH2 0xA5A JUMPI PUSH2 0xA59 PUSH2 0x5A8 JUMP JUMPDEST JUMPDEST PUSH1 0x0 PUSH2 0xA68 DUP5 DUP3 DUP6 ADD PUSH2 0xA2F JUMP JUMPDEST SWAP2 POP POP SWAP3 SWAP2 POP POP JUMP JUMPDEST PUSH1 0x0 DUP2 MLOAD SWAP1 POP PUSH2 0xA80 DUP2 PUSH2 0x61A JUMP JUMPDEST SWAP3 SWAP2 POP POP JUMP JUMPDEST PUSH1 0x0 PUSH1 0x20 DUP3 DUP5 SUB SLT ISZERO PUSH2 0xA9C JUMPI PUSH2 0xA9B PUSH2 0x5A8 JUMP JUMPDEST JUMPDEST PUSH1 0x0 PUSH2 0xAAA DUP5 DUP3 DUP6 ADD PUSH2 0xA71 JUMP JUMPDEST SWAP2 POP POP SWAP3 SWAP2 POP POP JUMP JUMPDEST PUSH1 0x0 DUP2 PUSH1 0x60 SHL SWAP1 POP SWAP2 SWAP1 POP JUMP JUMPDEST PUSH1 0x0 PUSH2 0xACB DUP3 PUSH2 0xAB3 JUMP JUMPDEST SWAP1 POP SWAP2 SWAP1 POP JUMP JUMPDEST PUSH1 0x0 PUSH2 0xADD DUP3 PUSH2 0xAC0 JUMP JUMPDEST SWAP1 POP SWAP2 SWAP1 POP JUMP JUMPDEST PUSH2 0xAF5 PUSH2 0xAF0 DUP3 PUSH2 0x5D2 JUMP JUMPDEST PUSH2 0xAD2 JUMP JUMPDEST DUP3 MSTORE POP POP JUMP JUMPDEST PUSH1 0x0 PUSH2 0xB07 DUP3 DUP5 PUSH2 0xAE4 JUMP JUMPDEST PUSH1 0x14 DUP3 ADD SWAP2 POP DUP2 SWAP1 POP SWAP3 SWAP2 POP POP JUMP JUMPDEST PUSH32 0x4E487B7100000000000000000000000000000000000000000000000000000000 PUSH1 0x0 MSTORE PUSH1 0x32 PUSH1 0x4 MSTORE PUSH1 0x24 PUSH1 0x0 REVERT JUMPDEST PUSH1 0x0 DUP2 SWAP1 POP SWAP2 SWAP1 POP JUMP JUMPDEST PUSH2 0xB60 PUSH2 0xB5B DUP3 PUSH2 0x785 JUMP JUMPDEST PUSH2 0xB45 JUMP JUMPDEST DUP3 MSTORE POP POP JUMP JUMPDEST PUSH1 0x0 PUSH2 0xB72 DUP3 DUP6 PUSH2 0xB4F JUMP JUMPDEST PUSH1 0x20 DUP3 ADD SWAP2 POP PUSH2 0xB82 DUP3 DUP5 PUSH2 0xB4F JUMP JUMPDEST PUSH1 0x20 DUP3 ADD SWAP2 POP DUP2 SWAP1 POP SWAP4 SWAP3 POP POP POP JUMP JUMPDEST PUSH32 0x4E487B7100000000000000000000000000000000000000000000000000000000 PUSH1 0x0 MSTORE PUSH1 0x11 PUSH1 0x4 MSTORE PUSH1 0x24 PUSH1 0x0 REVERT JUMPDEST PUSH1 0x0 PUSH2 0xBCC DUP3 PUSH2 0x610 JUMP JUMPDEST SWAP2 POP PUSH32 0xFFFFFFFFFFFFFFFFFFFFFFFFFFFFFFFFFFFFFFFFFFFFFFFFFFFFFFFFFFFFFFFF DUP3 SUB PUSH2 0xBFE JUMPI PUSH2 0xBFD PUSH2 0xB92 JUMP JUMPDEST JUMPDEST PUSH1 0x1 DUP3 ADD SWAP1 POP SWAP2 SWAP1 POP JUMP INVALID LOG2 PUSH5 0x6970667358 0x22 SLT KECCAK256 0xDC DUP7 DUP12 CHAINID 0x49 PUSH19 0xC964131BA2E059FFB9AF2A3FA79F88589563A CALLDATALOAD 0xAB 0xD1 0xDF 0xE2 0xA9 SWAP15 PUSH5 0x736F6C6343 STOP ADDMOD SLT STOP CALLER "
				},
				"gasEstimates": {
					"creation": {
						"codeDepositCost": "627000",
						"executionCost": "infinite",
						"totalCost": "infinite"
					},
					"external": {
						"cTToken()": "infinite",
						"claim()": "infinite",
						"isClaimed(bytes32[])": "infinite",
						"isMember(bytes32[])": "infinite",
						"setType(address,uint256,uint256)": "infinite"
					}
				},
				"methodIdentifiers": {
					"cTToken()": "f62ea2aa",
					"claim()": "4e71d92d",
					"isClaimed(bytes32[])": "f8a8256d",
					"isMember(bytes32[])": "a35602f0",
					"setType(address,uint256,uint256)": "4317615a"
				}
			},
			"storageLayout": {
				"storage": [
					{
						"astId": 950,
						"contract": "Desktop/CarbonToken/TheTwoDaos/EnterpriseDao.sol:enterpriseDao",
						"label": "EnterpriseAddress",
						"offset": 0,
						"slot": "0",
						"type": "t_address"
					},
					{
						"astId": 952,
						"contract": "Desktop/CarbonToken/TheTwoDaos/EnterpriseDao.sol:enterpriseDao",
						"label": "intendant",
						"offset": 0,
						"slot": "1",
						"type": "t_address"
					},
					{
						"astId": 954,
						"contract": "Desktop/CarbonToken/TheTwoDaos/EnterpriseDao.sol:enterpriseDao",
						"label": "root",
						"offset": 0,
						"slot": "2",
						"type": "t_bytes32"
					},
					{
						"astId": 958,
						"contract": "Desktop/CarbonToken/TheTwoDaos/EnterpriseDao.sol:enterpriseDao",
						"label": "theType",
						"offset": 0,
						"slot": "3",
						"type": "t_mapping(t_address,t_uint256)"
					},
					{
						"astId": 962,
						"contract": "Desktop/CarbonToken/TheTwoDaos/EnterpriseDao.sol:enterpriseDao",
						"label": "efficacy",
						"offset": 0,
						"slot": "4",
						"type": "t_mapping(t_address,t_uint256)"
					},
					{
						"astId": 965,
						"contract": "Desktop/CarbonToken/TheTwoDaos/EnterpriseDao.sol:enterpriseDao",
						"label": "cTToken",
						"offset": 0,
						"slot": "5",
						"type": "t_contract(CTToken)945"
					}
				],
				"types": {
					"t_address": {
						"encoding": "inplace",
						"label": "address",
						"numberOfBytes": "20"
					},
					"t_bytes32": {
						"encoding": "inplace",
						"label": "bytes32",
						"numberOfBytes": "32"
					},
					"t_contract(CTToken)945": {
						"encoding": "inplace",
						"label": "contract CTToken",
						"numberOfBytes": "20"
					},
					"t_mapping(t_address,t_uint256)": {
						"encoding": "mapping",
						"key": "t_address",
						"label": "mapping(address => uint256)",
						"numberOfBytes": "32",
						"value": "t_uint256"
					},
					"t_uint256": {
						"encoding": "inplace",
						"label": "uint256",
						"numberOfBytes": "32"
					}
				}
			},
			"userdoc": {
				"kind": "user",
				"methods": {},
				"version": 1
			}
		}
	}
}