{
	"Carbon Token/CT.sol": {
		"CTToken": {
			"abi": [
				{
					"inputs": [],
					"stateMutability": "payable",
					"type": "constructor"
				},
				{
					"anonymous": false,
					"inputs": [
						{
							"indexed": true,
							"internalType": "address",
							"name": "owner",
							"type": "address"
						},
						{
							"indexed": true,
							"internalType": "address",
							"name": "spender",
							"type": "address"
						},
						{
							"indexed": false,
							"internalType": "uint256",
							"name": "value",
							"type": "uint256"
						}
					],
					"name": "Approval",
					"type": "event"
				},
				{
					"anonymous": false,
					"inputs": [
						{
							"indexed": true,
							"internalType": "address",
							"name": "from",
							"type": "address"
						},
						{
							"indexed": true,
							"internalType": "address",
							"name": "to",
							"type": "address"
						},
						{
							"indexed": false,
							"internalType": "uint256",
							"name": "value",
							"type": "uint256"
						}
					],
					"name": "Transfer",
					"type": "event"
				},
				{
					"inputs": [],
					"name": "CT_DEFAULT",
					"outputs": [
						{
							"internalType": "uint256",
							"name": "",
							"type": "uint256"
						}
					],
					"stateMutability": "view",
					"type": "function"
				},
				{
					"inputs": [
						{
							"internalType": "address",
							"name": "owner",
							"type": "address"
						},
						{
							"internalType": "address",
							"name": "spender",
							"type": "address"
						}
					],
					"name": "allowance",
					"outputs": [
						{
							"internalType": "uint256",
							"name": "",
							"type": "uint256"
						}
					],
					"stateMutability": "view",
					"type": "function"
				},
				{
					"inputs": [
						{
							"internalType": "address",
							"name": "spender",
							"type": "address"
						},
						{
							"internalType": "uint256",
							"name": "amount",
							"type": "uint256"
						}
					],
					"name": "approve",
					"outputs": [
						{
							"internalType": "bool",
							"name": "",
							"type": "bool"
						}
					],
					"stateMutability": "nonpayable",
					"type": "function"
				},
				{
					"inputs": [
						{
							"internalType": "address",
							"name": "account",
							"type": "address"
						}
					],
					"name": "balanceOf",
					"outputs": [
						{
							"internalType": "uint256",
							"name": "",
							"type": "uint256"
						}
					],
					"stateMutability": "view",
					"type": "function"
				},
				{
					"inputs": [
						{
							"internalType": "address",
							"name": "",
							"type": "address"
						}
					],
					"name": "debts",
					"outputs": [
						{
							"internalType": "uint256",
							"name": "",
							"type": "uint256"
						}
					],
					"stateMutability": "view",
					"type": "function"
				},
				{
					"inputs": [],
					"name": "decimals",
					"outputs": [
						{
							"internalType": "uint8",
							"name": "",
							"type": "uint8"
						}
					],
					"stateMutability": "view",
					"type": "function"
				},
				{
					"inputs": [
						{
							"internalType": "address",
							"name": "spender",
							"type": "address"
						},
						{
							"internalType": "uint256",
							"name": "subtractedValue",
							"type": "uint256"
						}
					],
					"name": "decreaseAllowance",
					"outputs": [
						{
							"internalType": "bool",
							"name": "",
							"type": "bool"
						}
					],
					"stateMutability": "nonpayable",
					"type": "function"
				},
				{
					"inputs": [],
					"name": "depositETH",
					"outputs": [],
					"stateMutability": "payable",
					"type": "function"
				},
				{
					"inputs": [
						{
							"internalType": "address[]",
							"name": "addresses",
							"type": "address[]"
						},
						{
							"internalType": "uint256[]",
							"name": "amounts",
							"type": "uint256[]"
						}
					],
					"name": "distributeTokens",
					"outputs": [],
					"stateMutability": "nonpayable",
					"type": "function"
				},
				{
					"inputs": [],
					"name": "getContractBalance",
					"outputs": [
						{
							"internalType": "uint256",
							"name": "",
							"type": "uint256"
						}
					],
					"stateMutability": "view",
					"type": "function"
				},
				{
					"inputs": [
						{
							"internalType": "address",
							"name": "spender",
							"type": "address"
						},
						{
							"internalType": "uint256",
							"name": "addedValue",
							"type": "uint256"
						}
					],
					"name": "increaseAllowance",
					"outputs": [
						{
							"internalType": "bool",
							"name": "",
							"type": "bool"
						}
					],
					"stateMutability": "nonpayable",
					"type": "function"
				},
				{
					"inputs": [
						{
							"internalType": "address",
							"name": "",
							"type": "address"
						}
					],
					"name": "isAddressInMerkleTree",
					"outputs": [
						{
							"internalType": "bool",
							"name": "",
							"type": "bool"
						}
					],
					"stateMutability": "view",
					"type": "function"
				},
				{
					"inputs": [],
					"name": "merkleRoot",
					"outputs": [
						{
							"internalType": "bytes32",
							"name": "",
							"type": "bytes32"
						}
					],
					"stateMutability": "view",
					"type": "function"
				},
				{
					"inputs": [],
					"name": "name",
					"outputs": [
						{
							"internalType": "string",
							"name": "",
							"type": "string"
						}
					],
					"stateMutability": "view",
					"type": "function"
				},
				{
					"inputs": [],
					"name": "nextYear",
					"outputs": [],
					"stateMutability": "nonpayable",
					"type": "function"
				},
				{
					"inputs": [
						{
							"internalType": "address[]",
							"name": "addresses",
							"type": "address[]"
						},
						{
							"internalType": "bool[]",
							"name": "isEnterprise",
							"type": "bool[]"
						}
					],
					"name": "setAddressInfo",
					"outputs": [],
					"stateMutability": "nonpayable",
					"type": "function"
				},
				{
					"inputs": [
						{
							"internalType": "address",
							"name": "user",
							"type": "address"
						},
						{
							"internalType": "uint256",
							"name": "amount",
							"type": "uint256"
						}
					],
					"name": "settleAccounts",
					"outputs": [],
					"stateMutability": "nonpayable",
					"type": "function"
				},
				{
					"inputs": [],
					"name": "symbol",
					"outputs": [
						{
							"internalType": "string",
							"name": "",
							"type": "string"
						}
					],
					"stateMutability": "view",
					"type": "function"
				},
				{
					"inputs": [],
					"name": "totalSupply",
					"outputs": [
						{
							"internalType": "uint256",
							"name": "",
							"type": "uint256"
						}
					],
					"stateMutability": "view",
					"type": "function"
				},
				{
					"inputs": [
						{
							"internalType": "address",
							"name": "to",
							"type": "address"
						},
						{
							"internalType": "uint256",
							"name": "amount",
							"type": "uint256"
						}
					],
					"name": "transfer",
					"outputs": [
						{
							"internalType": "bool",
							"name": "",
							"type": "bool"
						}
					],
					"stateMutability": "nonpayable",
					"type": "function"
				},
				{
					"inputs": [
						{
							"internalType": "address payable",
							"name": "recipient",
							"type": "address"
						},
						{
							"internalType": "uint256",
							"name": "amount",
							"type": "uint256"
						}
					],
					"name": "transferETHToExternalAccount",
					"outputs": [],
					"stateMutability": "nonpayable",
					"type": "function"
				},
				{
					"inputs": [
						{
							"internalType": "address",
							"name": "from",
							"type": "address"
						},
						{
							"internalType": "address",
							"name": "to",
							"type": "address"
						},
						{
							"internalType": "uint256",
							"name": "amount",
							"type": "uint256"
						}
					],
					"name": "transferFrom",
					"outputs": [
						{
							"internalType": "bool",
							"name": "",
							"type": "bool"
						}
					],
					"stateMutability": "nonpayable",
					"type": "function"
				},
				{
					"stateMutability": "payable",
					"type": "receive"
				}
			],
			"devdoc": {
				"events": {
					"Approval(address,address,uint256)": {
						"details": "Emitted when the allowance of a `spender` for an `owner` is set by a call to {approve}. `value` is the new allowance."
					},
					"Transfer(address,address,uint256)": {
						"details": "Emitted when `value` tokens are moved from one account (`from`) to another (`to`). Note that `value` may be zero."
					}
				},
				"kind": "dev",
				"methods": {
					"allowance(address,address)": {
						"details": "See {IERC20-allowance}."
					},
					"approve(address,uint256)": {
						"details": "See {IERC20-approve}. NOTE: If `amount` is the maximum `uint256`, the allowance is not updated on `transferFrom`. This is semantically equivalent to an infinite approval. Requirements: - `spender` cannot be the zero address."
					},
					"balanceOf(address)": {
						"details": "See {IERC20-balanceOf}."
					},
					"decimals()": {
						"details": "Returns the number of decimals used to get its user representation. For example, if `decimals` equals `2`, a balance of `505` tokens should be displayed to a user as `5.05` (`505 / 10 ** 2`). Tokens usually opt for a value of 18, imitating the relationship between Ether and Wei. This is the value {ERC20} uses, unless this function is overridden; NOTE: This information is only used for _display_ purposes: it in no way affects any of the arithmetic of the contract, including {IERC20-balanceOf} and {IERC20-transfer}."
					},
					"decreaseAllowance(address,uint256)": {
						"details": "Atomically decreases the allowance granted to `spender` by the caller. This is an alternative to {approve} that can be used as a mitigation for problems described in {IERC20-approve}. Emits an {Approval} event indicating the updated allowance. Requirements: - `spender` cannot be the zero address. - `spender` must have allowance for the caller of at least `subtractedValue`."
					},
					"increaseAllowance(address,uint256)": {
						"details": "Atomically increases the allowance granted to `spender` by the caller. This is an alternative to {approve} that can be used as a mitigation for problems described in {IERC20-approve}. Emits an {Approval} event indicating the updated allowance. Requirements: - `spender` cannot be the zero address."
					},
					"name()": {
						"details": "Returns the name of the token."
					},
					"symbol()": {
						"details": "Returns the symbol of the token, usually a shorter version of the name."
					},
					"totalSupply()": {
						"details": "See {IERC20-totalSupply}."
					},
					"transfer(address,uint256)": {
						"details": "See {IERC20-transfer}. Requirements: - `to` cannot be the zero address. - the caller must have a balance of at least `amount`."
					},
					"transferFrom(address,address,uint256)": {
						"details": "See {IERC20-transferFrom}. Emits an {Approval} event indicating the updated allowance. This is not required by the EIP. See the note at the beginning of {ERC20}. NOTE: Does not update the allowance if the current allowance is the maximum `uint256`. Requirements: - `from` and `to` cannot be the zero address. - `from` must have a balance of at least `amount`. - the caller must have allowance for ``from``'s tokens of at least `amount`."
					}
				},
				"version": 1
			},
			"evm": {
				"assembly": "    /* \"Carbon Token/CT.sol\":119:3475  contract CTToken is ERC20 {... */\n  mstore(0x40, 0x80)\n    /* \"@openzeppelin/contracts/token/ERC20/ERC20.sol\":1976:2089  constructor(string memory name_, string memory symbol_) {... */\n  mload(0x40)\n  dup1\n  0x40\n  add\n  0x40\n  mstore\n  dup1\n  0x02\n  dup2\n  mstore\n  0x20\n  add\n  0x4354000000000000000000000000000000000000000000000000000000000000\n  dup2\n  mstore\n  pop\n  mload(0x40)\n  dup1\n  0x40\n  add\n  0x40\n  mstore\n  dup1\n  0x02\n  dup2\n  mstore\n  0x20\n  add\n  0x4354000000000000000000000000000000000000000000000000000000000000\n  dup2\n  mstore\n  pop\n    /* \"@openzeppelin/contracts/token/ERC20/ERC20.sol\":2050:2055  name_ */\n  dup2\n    /* \"@openzeppelin/contracts/token/ERC20/ERC20.sol\":2042:2047  _name */\n  0x03\n    /* \"@openzeppelin/contracts/token/ERC20/ERC20.sol\":2042:2055  _name = name_ */\n  swap1\n  dup2\n  tag_4\n  swap2\n  swap1\n  tag_5\n  jump\t// in\ntag_4:\n  pop\n    /* \"@openzeppelin/contracts/token/ERC20/ERC20.sol\":2075:2082  symbol_ */\n  dup1\n    /* \"@openzeppelin/contracts/token/ERC20/ERC20.sol\":2065:2072  _symbol */\n  0x04\n    /* \"@openzeppelin/contracts/token/ERC20/ERC20.sol\":2065:2082  _symbol = symbol_ */\n  swap1\n  dup2\n  tag_6\n  swap2\n  swap1\n  tag_5\n  jump\t// in\ntag_6:\n  pop\n    /* \"@openzeppelin/contracts/token/ERC20/ERC20.sol\":1976:2089  constructor(string memory name_, string memory symbol_) {... */\n  pop\n  pop\n    /* \"Carbon Token/CT.sol\":801:848  _mint(msg.sender, 1000000 * (10 ** decimals())) */\n  tag_8\n    /* \"Carbon Token/CT.sol\":807:817  msg.sender */\n  caller\n    /* \"Carbon Token/CT.sol\":836:846  decimals() */\n  tag_9\n    /* \"Carbon Token/CT.sol\":836:844  decimals */\n  shl(0x20, tag_10)\n    /* \"Carbon Token/CT.sol\":836:846  decimals() */\n  0x20\n  shr\n  jump\t// in\ntag_9:\n    /* \"Carbon Token/CT.sol\":830:832  10 */\n  0x0a\n    /* \"Carbon Token/CT.sol\":830:846  10 ** decimals() */\n  tag_11\n  swap2\n  swap1\n  tag_12\n  jump\t// in\ntag_11:\n    /* \"Carbon Token/CT.sol\":819:826  1000000 */\n  0x0f4240\n    /* \"Carbon Token/CT.sol\":819:847  1000000 * (10 ** decimals()) */\n  tag_13\n  swap2\n  swap1\n  tag_14\n  jump\t// in\ntag_13:\n    /* \"Carbon Token/CT.sol\":801:806  _mint */\n  shl(0x20, tag_15)\n    /* \"Carbon Token/CT.sol\":801:848  _mint(msg.sender, 1000000 * (10 ** decimals())) */\n  0x20\n  shr\n  jump\t// in\ntag_8:\n    /* \"Carbon Token/CT.sol\":867:877  msg.sender */\n  caller\n    /* \"Carbon Token/CT.sol\":859:864  admin */\n  0x0a\n  0x00\n    /* \"Carbon Token/CT.sol\":859:877  admin = msg.sender */\n  0x0100\n  exp\n  dup2\n  sload\n  dup2\n  0xffffffffffffffffffffffffffffffffffffffff\n  mul\n  not\n  and\n  swap1\n  dup4\n  0xffffffffffffffffffffffffffffffffffffffff\n  and\n  mul\n  or\n  swap1\n  sstore\n  pop\n    /* \"Carbon Token/CT.sol\":902:903  1 */\n  0x01\n    /* \"Carbon Token/CT.sol\":888:899  currentYear */\n  0x09\n    /* \"Carbon Token/CT.sol\":888:903  currentYear = 1 */\n  dup2\n  swap1\n  sstore\n  pop\n    /* \"Carbon Token/CT.sol\":119:3475  contract CTToken is ERC20 {... */\n  jump(tag_16)\n    /* \"@openzeppelin/contracts/token/ERC20/ERC20.sol\":3091:3182  function decimals() public view virtual override returns (uint8) {... */\ntag_10:\n    /* \"@openzeppelin/contracts/token/ERC20/ERC20.sol\":3149:3154  uint8 */\n  0x00\n    /* \"@openzeppelin/contracts/token/ERC20/ERC20.sol\":3173:3175  18 */\n  0x12\n    /* \"@openzeppelin/contracts/token/ERC20/ERC20.sol\":3166:3175  return 18 */\n  swap1\n  pop\n    /* \"@openzeppelin/contracts/token/ERC20/ERC20.sol\":3091:3182  function decimals() public view virtual override returns (uint8) {... */\n  swap1\n  jump\t// out\n    /* \"@openzeppelin/contracts/token/ERC20/ERC20.sol\":8567:9102  function _mint(address account, uint256 amount) internal virtual {... */\ntag_15:\n    /* \"@openzeppelin/contracts/token/ERC20/ERC20.sol\":8669:8670  0 */\n  0x00\n    /* \"@openzeppelin/contracts/token/ERC20/ERC20.sol\":8650:8671  account != address(0) */\n  0xffffffffffffffffffffffffffffffffffffffff\n  and\n    /* \"@openzeppelin/contracts/token/ERC20/ERC20.sol\":8650:8657  account */\n  dup3\n    /* \"@openzeppelin/contracts/token/ERC20/ERC20.sol\":8650:8671  account != address(0) */\n  0xffffffffffffffffffffffffffffffffffffffff\n  and\n  sub\n    /* \"@openzeppelin/contracts/token/ERC20/ERC20.sol\":8642:8707  require(account != address(0), \"ERC20: mint to the zero address\") */\n  tag_19\n  jumpi\n  mload(0x40)\n  0x08c379a000000000000000000000000000000000000000000000000000000000\n  dup2\n  mstore\n  0x04\n  add\n  tag_20\n  swap1\n  tag_21\n  jump\t// in\ntag_20:\n  mload(0x40)\n  dup1\n  swap2\n  sub\n  swap1\n  revert\ntag_19:\n    /* \"@openzeppelin/contracts/token/ERC20/ERC20.sol\":8718:8767  _beforeTokenTransfer(address(0), account, amount) */\n  tag_22\n    /* \"@openzeppelin/contracts/token/ERC20/ERC20.sol\":8747:8748  0 */\n  0x00\n    /* \"@openzeppelin/contracts/token/ERC20/ERC20.sol\":8751:8758  account */\n  dup4\n    /* \"@openzeppelin/contracts/token/ERC20/ERC20.sol\":8760:8766  amount */\n  dup4\n    /* \"@openzeppelin/contracts/token/ERC20/ERC20.sol\":8718:8738  _beforeTokenTransfer */\n  shl(0x20, tag_23)\n    /* \"@openzeppelin/contracts/token/ERC20/ERC20.sol\":8718:8767  _beforeTokenTransfer(address(0), account, amount) */\n  0x20\n  shr\n  jump\t// in\ntag_22:\n    /* \"@openzeppelin/contracts/token/ERC20/ERC20.sol\":8794:8800  amount */\n  dup1\n    /* \"@openzeppelin/contracts/token/ERC20/ERC20.sol\":8778:8790  _totalSupply */\n  0x02\n  0x00\n    /* \"@openzeppelin/contracts/token/ERC20/ERC20.sol\":8778:8800  _totalSupply += amount */\n  dup3\n  dup3\n  sload\n  tag_24\n  swap2\n  swap1\n  tag_25\n  jump\t// in\ntag_24:\n  swap3\n  pop\n  pop\n  dup2\n  swap1\n  sstore\n  pop\n    /* \"@openzeppelin/contracts/token/ERC20/ERC20.sol\":8968:8974  amount */\n  dup1\n    /* \"@openzeppelin/contracts/token/ERC20/ERC20.sol\":8946:8955  _balances */\n  0x00\n    /* \"@openzeppelin/contracts/token/ERC20/ERC20.sol\":8946:8964  _balances[account] */\n  dup1\n    /* \"@openzeppelin/contracts/token/ERC20/ERC20.sol\":8956:8963  account */\n  dup5\n    /* \"@openzeppelin/contracts/token/ERC20/ERC20.sol\":8946:8964  _balances[account] */\n  0xffffffffffffffffffffffffffffffffffffffff\n  and\n  0xffffffffffffffffffffffffffffffffffffffff\n  and\n  dup2\n  mstore\n  0x20\n  add\n  swap1\n  dup2\n  mstore\n  0x20\n  add\n  0x00\n  keccak256\n  0x00\n    /* \"@openzeppelin/contracts/token/ERC20/ERC20.sol\":8946:8974  _balances[account] += amount */\n  dup3\n  dup3\n  sload\n  add\n  swap3\n  pop\n  pop\n  dup2\n  swap1\n  sstore\n  pop\n    /* \"@openzeppelin/contracts/token/ERC20/ERC20.sol\":9020:9027  account */\n  dup2\n    /* \"@openzeppelin/contracts/token/ERC20/ERC20.sol\":8999:9036  Transfer(address(0), account, amount) */\n  0xffffffffffffffffffffffffffffffffffffffff\n  and\n    /* \"@openzeppelin/contracts/token/ERC20/ERC20.sol\":9016:9017  0 */\n  0x00\n    /* \"@openzeppelin/contracts/token/ERC20/ERC20.sol\":8999:9036  Transfer(address(0), account, amount) */\n  0xffffffffffffffffffffffffffffffffffffffff\n  and\n  0xddf252ad1be2c89b69c2b068fc378daa952ba7f163c4a11628f55a4df523b3ef\n    /* \"@openzeppelin/contracts/token/ERC20/ERC20.sol\":9029:9035  amount */\n  dup4\n    /* \"@openzeppelin/contracts/token/ERC20/ERC20.sol\":8999:9036  Transfer(address(0), account, amount) */\n  mload(0x40)\n  tag_26\n  swap2\n  swap1\n  tag_27\n  jump\t// in\ntag_26:\n  mload(0x40)\n  dup1\n  swap2\n  sub\n  swap1\n  log3\n    /* \"@openzeppelin/contracts/token/ERC20/ERC20.sol\":9047:9095  _afterTokenTransfer(address(0), account, amount) */\n  tag_28\n    /* \"@openzeppelin/contracts/token/ERC20/ERC20.sol\":9075:9076  0 */\n  0x00\n    /* \"@openzeppelin/contracts/token/ERC20/ERC20.sol\":9079:9086  account */\n  dup4\n    /* \"@openzeppelin/contracts/token/ERC20/ERC20.sol\":9088:9094  amount */\n  dup4\n    /* \"@openzeppelin/contracts/token/ERC20/ERC20.sol\":9047:9066  _afterTokenTransfer */\n  shl(0x20, tag_29)\n    /* \"@openzeppelin/contracts/token/ERC20/ERC20.sol\":9047:9095  _afterTokenTransfer(address(0), account, amount) */\n  0x20\n  shr\n  jump\t// in\ntag_28:\n    /* \"@openzeppelin/contracts/token/ERC20/ERC20.sol\":8567:9102  function _mint(address account, uint256 amount) internal virtual {... */\n  pop\n  pop\n  jump\t// out\n    /* \"@openzeppelin/contracts/token/ERC20/ERC20.sol\":12180:12301  function _beforeTokenTransfer(... */\ntag_23:\n  pop\n  pop\n  pop\n  jump\t// out\n    /* \"@openzeppelin/contracts/token/ERC20/ERC20.sol\":12889:13009  function _afterTokenTransfer(... */\ntag_29:\n  pop\n  pop\n  pop\n  jump\t// out\n    /* \"#utility.yul\":7:106   */\ntag_32:\n    /* \"#utility.yul\":59:65   */\n  0x00\n    /* \"#utility.yul\":93:98   */\n  dup2\n    /* \"#utility.yul\":87:99   */\n  mload\n    /* \"#utility.yul\":77:99   */\n  swap1\n  pop\n    /* \"#utility.yul\":7:106   */\n  swap2\n  swap1\n  pop\n  jump\t// out\n    /* \"#utility.yul\":112:292   */\ntag_33:\n    /* \"#utility.yul\":160:237   */\n  0x4e487b7100000000000000000000000000000000000000000000000000000000\n    /* \"#utility.yul\":157:158   */\n  0x00\n    /* \"#utility.yul\":150:238   */\n  mstore\n    /* \"#utility.yul\":257:261   */\n  0x41\n    /* \"#utility.yul\":254:255   */\n  0x04\n    /* \"#utility.yul\":247:262   */\n  mstore\n    /* \"#utility.yul\":281:285   */\n  0x24\n    /* \"#utility.yul\":278:279   */\n  0x00\n    /* \"#utility.yul\":271:286   */\n  revert\n    /* \"#utility.yul\":298:478   */\ntag_34:\n    /* \"#utility.yul\":346:423   */\n  0x4e487b7100000000000000000000000000000000000000000000000000000000\n    /* \"#utility.yul\":343:344   */\n  0x00\n    /* \"#utility.yul\":336:424   */\n  mstore\n    /* \"#utility.yul\":443:447   */\n  0x22\n    /* \"#utility.yul\":440:441   */\n  0x04\n    /* \"#utility.yul\":433:448   */\n  mstore\n    /* \"#utility.yul\":467:471   */\n  0x24\n    /* \"#utility.yul\":464:465   */\n  0x00\n    /* \"#utility.yul\":457:472   */\n  revert\n    /* \"#utility.yul\":484:804   */\ntag_35:\n    /* \"#utility.yul\":528:534   */\n  0x00\n    /* \"#utility.yul\":565:566   */\n  0x02\n    /* \"#utility.yul\":559:563   */\n  dup3\n    /* \"#utility.yul\":555:567   */\n  div\n    /* \"#utility.yul\":545:567   */\n  swap1\n  pop\n    /* \"#utility.yul\":612:613   */\n  0x01\n    /* \"#utility.yul\":606:610   */\n  dup3\n    /* \"#utility.yul\":602:614   */\n  and\n    /* \"#utility.yul\":633:651   */\n  dup1\n    /* \"#utility.yul\":623:704   */\n  tag_66\n  jumpi\n    /* \"#utility.yul\":689:693   */\n  0x7f\n    /* \"#utility.yul\":681:687   */\n  dup3\n    /* \"#utility.yul\":677:694   */\n  and\n    /* \"#utility.yul\":667:694   */\n  swap2\n  pop\n    /* \"#utility.yul\":623:704   */\ntag_66:\n    /* \"#utility.yul\":751:753   */\n  0x20\n    /* \"#utility.yul\":743:749   */\n  dup3\n    /* \"#utility.yul\":740:754   */\n  lt\n    /* \"#utility.yul\":720:738   */\n  dup2\n    /* \"#utility.yul\":717:755   */\n  sub\n    /* \"#utility.yul\":714:798   */\n  tag_67\n  jumpi\n    /* \"#utility.yul\":770:788   */\n  tag_68\n  tag_34\n  jump\t// in\ntag_68:\n    /* \"#utility.yul\":714:798   */\ntag_67:\n    /* \"#utility.yul\":535:804   */\n  pop\n    /* \"#utility.yul\":484:804   */\n  swap2\n  swap1\n  pop\n  jump\t// out\n    /* \"#utility.yul\":810:951   */\ntag_36:\n    /* \"#utility.yul\":859:863   */\n  0x00\n    /* \"#utility.yul\":882:885   */\n  dup2\n    /* \"#utility.yul\":874:885   */\n  swap1\n  pop\n    /* \"#utility.yul\":905:908   */\n  dup2\n    /* \"#utility.yul\":902:903   */\n  0x00\n    /* \"#utility.yul\":895:909   */\n  mstore\n    /* \"#utility.yul\":939:943   */\n  0x20\n    /* \"#utility.yul\":936:937   */\n  0x00\n    /* \"#utility.yul\":926:944   */\n  keccak256\n    /* \"#utility.yul\":918:944   */\n  swap1\n  pop\n    /* \"#utility.yul\":810:951   */\n  swap2\n  swap1\n  pop\n  jump\t// out\n    /* \"#utility.yul\":957:1050   */\ntag_37:\n    /* \"#utility.yul\":994:1000   */\n  0x00\n    /* \"#utility.yul\":1041:1043   */\n  0x20\n    /* \"#utility.yul\":1036:1038   */\n  0x1f\n    /* \"#utility.yul\":1029:1034   */\n  dup4\n    /* \"#utility.yul\":1025:1039   */\n  add\n    /* \"#utility.yul\":1021:1044   */\n  div\n    /* \"#utility.yul\":1011:1044   */\n  swap1\n  pop\n    /* \"#utility.yul\":957:1050   */\n  swap2\n  swap1\n  pop\n  jump\t// out\n    /* \"#utility.yul\":1056:1163   */\ntag_38:\n    /* \"#utility.yul\":1100:1108   */\n  0x00\n    /* \"#utility.yul\":1150:1155   */\n  dup3\n    /* \"#utility.yul\":1144:1148   */\n  dup3\n    /* \"#utility.yul\":1140:1156   */\n  shl\n    /* \"#utility.yul\":1119:1156   */\n  swap1\n  pop\n    /* \"#utility.yul\":1056:1163   */\n  swap3\n  swap2\n  pop\n  pop\n  jump\t// out\n    /* \"#utility.yul\":1169:1562   */\ntag_39:\n    /* \"#utility.yul\":1238:1244   */\n  0x00\n    /* \"#utility.yul\":1288:1289   */\n  0x08\n    /* \"#utility.yul\":1276:1286   */\n  dup4\n    /* \"#utility.yul\":1272:1290   */\n  mul\n    /* \"#utility.yul\":1311:1408   */\n  tag_73\n    /* \"#utility.yul\":1341:1407   */\n  0xffffffffffffffffffffffffffffffffffffffffffffffffffffffffffffffff\n    /* \"#utility.yul\":1330:1339   */\n  dup3\n    /* \"#utility.yul\":1311:1408   */\n  tag_38\n  jump\t// in\ntag_73:\n    /* \"#utility.yul\":1429:1468   */\n  tag_74\n    /* \"#utility.yul\":1459:1467   */\n  dup7\n    /* \"#utility.yul\":1448:1457   */\n  dup4\n    /* \"#utility.yul\":1429:1468   */\n  tag_38\n  jump\t// in\ntag_74:\n    /* \"#utility.yul\":1417:1468   */\n  swap6\n  pop\n    /* \"#utility.yul\":1501:1505   */\n  dup1\n    /* \"#utility.yul\":1497:1506   */\n  not\n    /* \"#utility.yul\":1490:1495   */\n  dup5\n    /* \"#utility.yul\":1486:1507   */\n  and\n    /* \"#utility.yul\":1477:1507   */\n  swap4\n  pop\n    /* \"#utility.yul\":1550:1554   */\n  dup1\n    /* \"#utility.yul\":1540:1548   */\n  dup7\n    /* \"#utility.yul\":1536:1555   */\n  and\n    /* \"#utility.yul\":1529:1534   */\n  dup5\n    /* \"#utility.yul\":1526:1556   */\n  or\n    /* \"#utility.yul\":1516:1556   */\n  swap3\n  pop\n    /* \"#utility.yul\":1245:1562   */\n  pop\n  pop\n    /* \"#utility.yul\":1169:1562   */\n  swap4\n  swap3\n  pop\n  pop\n  pop\n  jump\t// out\n    /* \"#utility.yul\":1568:1645   */\ntag_40:\n    /* \"#utility.yul\":1605:1612   */\n  0x00\n    /* \"#utility.yul\":1634:1639   */\n  dup2\n    /* \"#utility.yul\":1623:1639   */\n  swap1\n  pop\n    /* \"#utility.yul\":1568:1645   */\n  swap2\n  swap1\n  pop\n  jump\t// out\n    /* \"#utility.yul\":1651:1711   */\ntag_41:\n    /* \"#utility.yul\":1679:1682   */\n  0x00\n    /* \"#utility.yul\":1700:1705   */\n  dup2\n    /* \"#utility.yul\":1693:1705   */\n  swap1\n  pop\n    /* \"#utility.yul\":1651:1711   */\n  swap2\n  swap1\n  pop\n  jump\t// out\n    /* \"#utility.yul\":1717:1859   */\ntag_42:\n    /* \"#utility.yul\":1767:1776   */\n  0x00\n    /* \"#utility.yul\":1800:1853   */\n  tag_78\n    /* \"#utility.yul\":1818:1852   */\n  tag_79\n    /* \"#utility.yul\":1827:1851   */\n  tag_80\n    /* \"#utility.yul\":1845:1850   */\n  dup5\n    /* \"#utility.yul\":1827:1851   */\n  tag_40\n  jump\t// in\ntag_80:\n    /* \"#utility.yul\":1818:1852   */\n  tag_41\n  jump\t// in\ntag_79:\n    /* \"#utility.yul\":1800:1853   */\n  tag_40\n  jump\t// in\ntag_78:\n    /* \"#utility.yul\":1787:1853   */\n  swap1\n  pop\n    /* \"#utility.yul\":1717:1859   */\n  swap2\n  swap1\n  pop\n  jump\t// out\n    /* \"#utility.yul\":1865:1940   */\ntag_43:\n    /* \"#utility.yul\":1908:1911   */\n  0x00\n    /* \"#utility.yul\":1929:1934   */\n  dup2\n    /* \"#utility.yul\":1922:1934   */\n  swap1\n  pop\n    /* \"#utility.yul\":1865:1940   */\n  swap2\n  swap1\n  pop\n  jump\t// out\n    /* \"#utility.yul\":1946:2215   */\ntag_44:\n    /* \"#utility.yul\":2056:2095   */\n  tag_83\n    /* \"#utility.yul\":2087:2094   */\n  dup4\n    /* \"#utility.yul\":2056:2095   */\n  tag_42\n  jump\t// in\ntag_83:\n    /* \"#utility.yul\":2117:2208   */\n  tag_84\n    /* \"#utility.yul\":2166:2207   */\n  tag_85\n    /* \"#utility.yul\":2190:2206   */\n  dup3\n    /* \"#utility.yul\":2166:2207   */\n  tag_43\n  jump\t// in\ntag_85:\n    /* \"#utility.yul\":2158:2164   */\n  dup5\n    /* \"#utility.yul\":2151:2155   */\n  dup5\n    /* \"#utility.yul\":2145:2156   */\n  sload\n    /* \"#utility.yul\":2117:2208   */\n  tag_39\n  jump\t// in\ntag_84:\n    /* \"#utility.yul\":2111:2115   */\n  dup3\n    /* \"#utility.yul\":2104:2209   */\n  sstore\n    /* \"#utility.yul\":2022:2215   */\n  pop\n    /* \"#utility.yul\":1946:2215   */\n  pop\n  pop\n  pop\n  jump\t// out\n    /* \"#utility.yul\":2221:2294   */\ntag_45:\n    /* \"#utility.yul\":2266:2269   */\n  0x00\n    /* \"#utility.yul\":2221:2294   */\n  swap1\n  jump\t// out\n    /* \"#utility.yul\":2300:2489   */\ntag_46:\n    /* \"#utility.yul\":2377:2409   */\n  tag_88\n  tag_45\n  jump\t// in\ntag_88:\n    /* \"#utility.yul\":2418:2483   */\n  tag_89\n    /* \"#utility.yul\":2476:2482   */\n  dup2\n    /* \"#utility.yul\":2468:2474   */\n  dup5\n    /* \"#utility.yul\":2462:2466   */\n  dup5\n    /* \"#utility.yul\":2418:2483   */\n  tag_44\n  jump\t// in\ntag_89:\n    /* \"#utility.yul\":2353:2489   */\n  pop\n    /* \"#utility.yul\":2300:2489   */\n  pop\n  pop\n  jump\t// out\n    /* \"#utility.yul\":2495:2681   */\ntag_47:\n    /* \"#utility.yul\":2555:2675   */\ntag_91:\n    /* \"#utility.yul\":2572:2575   */\n  dup2\n    /* \"#utility.yul\":2565:2570   */\n  dup2\n    /* \"#utility.yul\":2562:2576   */\n  lt\n    /* \"#utility.yul\":2555:2675   */\n  iszero\n  tag_93\n  jumpi\n    /* \"#utility.yul\":2626:2665   */\n  tag_94\n    /* \"#utility.yul\":2663:2664   */\n  0x00\n    /* \"#utility.yul\":2656:2661   */\n  dup3\n    /* \"#utility.yul\":2626:2665   */\n  tag_46\n  jump\t// in\ntag_94:\n    /* \"#utility.yul\":2599:2600   */\n  0x01\n    /* \"#utility.yul\":2592:2597   */\n  dup2\n    /* \"#utility.yul\":2588:2601   */\n  add\n    /* \"#utility.yul\":2579:2601   */\n  swap1\n  pop\n    /* \"#utility.yul\":2555:2675   */\n  jump(tag_91)\ntag_93:\n    /* \"#utility.yul\":2495:2681   */\n  pop\n  pop\n  jump\t// out\n    /* \"#utility.yul\":2687:3230   */\ntag_48:\n    /* \"#utility.yul\":2788:2790   */\n  0x1f\n    /* \"#utility.yul\":2783:2786   */\n  dup3\n    /* \"#utility.yul\":2780:2791   */\n  gt\n    /* \"#utility.yul\":2777:3223   */\n  iszero\n  tag_96\n  jumpi\n    /* \"#utility.yul\":2822:2860   */\n  tag_97\n    /* \"#utility.yul\":2854:2859   */\n  dup2\n    /* \"#utility.yul\":2822:2860   */\n  tag_36\n  jump\t// in\ntag_97:\n    /* \"#utility.yul\":2906:2935   */\n  tag_98\n    /* \"#utility.yul\":2924:2934   */\n  dup5\n    /* \"#utility.yul\":2906:2935   */\n  tag_37\n  jump\t// in\ntag_98:\n    /* \"#utility.yul\":2896:2904   */\n  dup2\n    /* \"#utility.yul\":2892:2936   */\n  add\n    /* \"#utility.yul\":3089:3091   */\n  0x20\n    /* \"#utility.yul\":3077:3087   */\n  dup6\n    /* \"#utility.yul\":3074:3092   */\n  lt\n    /* \"#utility.yul\":3071:3120   */\n  iszero\n  tag_99\n  jumpi\n    /* \"#utility.yul\":3110:3118   */\n  dup2\n    /* \"#utility.yul\":3095:3118   */\n  swap1\n  pop\n    /* \"#utility.yul\":3071:3120   */\ntag_99:\n    /* \"#utility.yul\":3133:3213   */\n  tag_100\n    /* \"#utility.yul\":3189:3211   */\n  tag_101\n    /* \"#utility.yul\":3207:3210   */\n  dup6\n    /* \"#utility.yul\":3189:3211   */\n  tag_37\n  jump\t// in\ntag_101:\n    /* \"#utility.yul\":3179:3187   */\n  dup4\n    /* \"#utility.yul\":3175:3212   */\n  add\n    /* \"#utility.yul\":3162:3173   */\n  dup3\n    /* \"#utility.yul\":3133:3213   */\n  tag_47\n  jump\t// in\ntag_100:\n    /* \"#utility.yul\":2792:3223   */\n  pop\n  pop\n    /* \"#utility.yul\":2777:3223   */\ntag_96:\n    /* \"#utility.yul\":2687:3230   */\n  pop\n  pop\n  pop\n  jump\t// out\n    /* \"#utility.yul\":3236:3353   */\ntag_49:\n    /* \"#utility.yul\":3290:3298   */\n  0x00\n    /* \"#utility.yul\":3340:3345   */\n  dup3\n    /* \"#utility.yul\":3334:3338   */\n  dup3\n    /* \"#utility.yul\":3330:3346   */\n  shr\n    /* \"#utility.yul\":3309:3346   */\n  swap1\n  pop\n    /* \"#utility.yul\":3236:3353   */\n  swap3\n  swap2\n  pop\n  pop\n  jump\t// out\n    /* \"#utility.yul\":3359:3528   */\ntag_50:\n    /* \"#utility.yul\":3403:3409   */\n  0x00\n    /* \"#utility.yul\":3436:3487   */\n  tag_104\n    /* \"#utility.yul\":3484:3485   */\n  0x00\n    /* \"#utility.yul\":3480:3486   */\n  not\n    /* \"#utility.yul\":3472:3477   */\n  dup5\n    /* \"#utility.yul\":3469:3470   */\n  0x08\n    /* \"#utility.yul\":3465:3478   */\n  mul\n    /* \"#utility.yul\":3436:3487   */\n  tag_49\n  jump\t// in\ntag_104:\n    /* \"#utility.yul\":3432:3488   */\n  not\n    /* \"#utility.yul\":3517:3521   */\n  dup1\n    /* \"#utility.yul\":3511:3515   */\n  dup4\n    /* \"#utility.yul\":3507:3522   */\n  and\n    /* \"#utility.yul\":3497:3522   */\n  swap2\n  pop\n    /* \"#utility.yul\":3410:3528   */\n  pop\n    /* \"#utility.yul\":3359:3528   */\n  swap3\n  swap2\n  pop\n  pop\n  jump\t// out\n    /* \"#utility.yul\":3533:3828   */\ntag_51:\n    /* \"#utility.yul\":3609:3613   */\n  0x00\n    /* \"#utility.yul\":3755:3784   */\n  tag_106\n    /* \"#utility.yul\":3780:3783   */\n  dup4\n    /* \"#utility.yul\":3774:3778   */\n  dup4\n    /* \"#utility.yul\":3755:3784   */\n  tag_50\n  jump\t// in\ntag_106:\n    /* \"#utility.yul\":3747:3784   */\n  swap2\n  pop\n    /* \"#utility.yul\":3817:3820   */\n  dup3\n    /* \"#utility.yul\":3814:3815   */\n  0x02\n    /* \"#utility.yul\":3810:3821   */\n  mul\n    /* \"#utility.yul\":3804:3808   */\n  dup3\n    /* \"#utility.yul\":3801:3822   */\n  or\n    /* \"#utility.yul\":3793:3822   */\n  swap1\n  pop\n    /* \"#utility.yul\":3533:3828   */\n  swap3\n  swap2\n  pop\n  pop\n  jump\t// out\n    /* \"#utility.yul\":3833:5228   */\ntag_5:\n    /* \"#utility.yul\":3950:3987   */\n  tag_108\n    /* \"#utility.yul\":3983:3986   */\n  dup3\n    /* \"#utility.yul\":3950:3987   */\n  tag_32\n  jump\t// in\ntag_108:\n    /* \"#utility.yul\":4052:4070   */\n  0xffffffffffffffff\n    /* \"#utility.yul\":4044:4050   */\n  dup2\n    /* \"#utility.yul\":4041:4071   */\n  gt\n    /* \"#utility.yul\":4038:4094   */\n  iszero\n  tag_109\n  jumpi\n    /* \"#utility.yul\":4074:4092   */\n  tag_110\n  tag_33\n  jump\t// in\ntag_110:\n    /* \"#utility.yul\":4038:4094   */\ntag_109:\n    /* \"#utility.yul\":4118:4156   */\n  tag_111\n    /* \"#utility.yul\":4150:4154   */\n  dup3\n    /* \"#utility.yul\":4144:4155   */\n  sload\n    /* \"#utility.yul\":4118:4156   */\n  tag_35\n  jump\t// in\ntag_111:\n    /* \"#utility.yul\":4203:4270   */\n  tag_112\n    /* \"#utility.yul\":4263:4269   */\n  dup3\n    /* \"#utility.yul\":4255:4261   */\n  dup3\n    /* \"#utility.yul\":4249:4253   */\n  dup6\n    /* \"#utility.yul\":4203:4270   */\n  tag_48\n  jump\t// in\ntag_112:\n    /* \"#utility.yul\":4297:4298   */\n  0x00\n    /* \"#utility.yul\":4321:4325   */\n  0x20\n    /* \"#utility.yul\":4308:4325   */\n  swap1\n  pop\n    /* \"#utility.yul\":4353:4355   */\n  0x1f\n    /* \"#utility.yul\":4345:4351   */\n  dup4\n    /* \"#utility.yul\":4342:4356   */\n  gt\n    /* \"#utility.yul\":4370:4371   */\n  0x01\n    /* \"#utility.yul\":4365:4983   */\n  dup2\n  eq\n  tag_114\n  jumpi\n    /* \"#utility.yul\":5027:5028   */\n  0x00\n    /* \"#utility.yul\":5044:5050   */\n  dup5\n    /* \"#utility.yul\":5041:5118   */\n  iszero\n  tag_115\n  jumpi\n    /* \"#utility.yul\":5093:5102   */\n  dup3\n    /* \"#utility.yul\":5088:5091   */\n  dup8\n    /* \"#utility.yul\":5084:5103   */\n  add\n    /* \"#utility.yul\":5078:5104   */\n  mload\n    /* \"#utility.yul\":5069:5104   */\n  swap1\n  pop\n    /* \"#utility.yul\":5041:5118   */\ntag_115:\n    /* \"#utility.yul\":5144:5211   */\n  tag_116\n    /* \"#utility.yul\":5204:5210   */\n  dup6\n    /* \"#utility.yul\":5197:5202   */\n  dup3\n    /* \"#utility.yul\":5144:5211   */\n  tag_51\n  jump\t// in\ntag_116:\n    /* \"#utility.yul\":5138:5142   */\n  dup7\n    /* \"#utility.yul\":5131:5212   */\n  sstore\n    /* \"#utility.yul\":5000:5222   */\n  pop\n    /* \"#utility.yul\":4335:5222   */\n  jump(tag_113)\n    /* \"#utility.yul\":4365:4983   */\ntag_114:\n    /* \"#utility.yul\":4417:4421   */\n  0x1f\n    /* \"#utility.yul\":4413:4422   */\n  not\n    /* \"#utility.yul\":4405:4411   */\n  dup5\n    /* \"#utility.yul\":4401:4423   */\n  and\n    /* \"#utility.yul\":4451:4488   */\n  tag_117\n    /* \"#utility.yul\":4483:4487   */\n  dup7\n    /* \"#utility.yul\":4451:4488   */\n  tag_36\n  jump\t// in\ntag_117:\n    /* \"#utility.yul\":4510:4511   */\n  0x00\n    /* \"#utility.yul\":4524:4732   */\ntag_118:\n    /* \"#utility.yul\":4538:4545   */\n  dup3\n    /* \"#utility.yul\":4535:4536   */\n  dup2\n    /* \"#utility.yul\":4532:4546   */\n  lt\n    /* \"#utility.yul\":4524:4732   */\n  iszero\n  tag_120\n  jumpi\n    /* \"#utility.yul\":4617:4626   */\n  dup5\n    /* \"#utility.yul\":4612:4615   */\n  dup10\n    /* \"#utility.yul\":4608:4627   */\n  add\n    /* \"#utility.yul\":4602:4628   */\n  mload\n    /* \"#utility.yul\":4594:4600   */\n  dup3\n    /* \"#utility.yul\":4587:4629   */\n  sstore\n    /* \"#utility.yul\":4668:4669   */\n  0x01\n    /* \"#utility.yul\":4660:4666   */\n  dup3\n    /* \"#utility.yul\":4656:4670   */\n  add\n    /* \"#utility.yul\":4646:4670   */\n  swap2\n  pop\n    /* \"#utility.yul\":4715:4717   */\n  0x20\n    /* \"#utility.yul\":4704:4713   */\n  dup6\n    /* \"#utility.yul\":4700:4718   */\n  add\n    /* \"#utility.yul\":4687:4718   */\n  swap5\n  pop\n    /* \"#utility.yul\":4561:4565   */\n  0x20\n    /* \"#utility.yul\":4558:4559   */\n  dup2\n    /* \"#utility.yul\":4554:4566   */\n  add\n    /* \"#utility.yul\":4549:4566   */\n  swap1\n  pop\n    /* \"#utility.yul\":4524:4732   */\n  jump(tag_118)\ntag_120:\n    /* \"#utility.yul\":4760:4766   */\n  dup7\n    /* \"#utility.yul\":4751:4758   */\n  dup4\n    /* \"#utility.yul\":4748:4767   */\n  lt\n    /* \"#utility.yul\":4745:4924   */\n  iszero\n  tag_121\n  jumpi\n    /* \"#utility.yul\":4818:4827   */\n  dup5\n    /* \"#utility.yul\":4813:4816   */\n  dup10\n    /* \"#utility.yul\":4809:4828   */\n  add\n    /* \"#utility.yul\":4803:4829   */\n  mload\n    /* \"#utility.yul\":4861:4909   */\n  tag_122\n    /* \"#utility.yul\":4903:4907   */\n  0x1f\n    /* \"#utility.yul\":4895:4901   */\n  dup10\n    /* \"#utility.yul\":4891:4908   */\n  and\n    /* \"#utility.yul\":4880:4889   */\n  dup3\n    /* \"#utility.yul\":4861:4909   */\n  tag_50\n  jump\t// in\ntag_122:\n    /* \"#utility.yul\":4853:4859   */\n  dup4\n    /* \"#utility.yul\":4846:4910   */\n  sstore\n    /* \"#utility.yul\":4768:4924   */\n  pop\n    /* \"#utility.yul\":4745:4924   */\ntag_121:\n    /* \"#utility.yul\":4970:4971   */\n  0x01\n    /* \"#utility.yul\":4966:4967   */\n  0x02\n    /* \"#utility.yul\":4958:4964   */\n  dup9\n    /* \"#utility.yul\":4954:4968   */\n  mul\n    /* \"#utility.yul\":4950:4972   */\n  add\n    /* \"#utility.yul\":4944:4948   */\n  dup9\n    /* \"#utility.yul\":4937:4973   */\n  sstore\n    /* \"#utility.yul\":4372:4983   */\n  pop\n  pop\n  pop\n    /* \"#utility.yul\":4335:5222   */\ntag_113:\n  pop\n    /* \"#utility.yul\":3925:5228   */\n  pop\n  pop\n  pop\n    /* \"#utility.yul\":3833:5228   */\n  pop\n  pop\n  jump\t// out\n    /* \"#utility.yul\":5234:5414   */\ntag_52:\n    /* \"#utility.yul\":5282:5359   */\n  0x4e487b7100000000000000000000000000000000000000000000000000000000\n    /* \"#utility.yul\":5279:5280   */\n  0x00\n    /* \"#utility.yul\":5272:5360   */\n  mstore\n    /* \"#utility.yul\":5379:5383   */\n  0x11\n    /* \"#utility.yul\":5376:5377   */\n  0x04\n    /* \"#utility.yul\":5369:5384   */\n  mstore\n    /* \"#utility.yul\":5403:5407   */\n  0x24\n    /* \"#utility.yul\":5400:5401   */\n  0x00\n    /* \"#utility.yul\":5393:5408   */\n  revert\n    /* \"#utility.yul\":5420:5522   */\ntag_53:\n    /* \"#utility.yul\":5462:5470   */\n  0x00\n    /* \"#utility.yul\":5509:5514   */\n  dup2\n    /* \"#utility.yul\":5506:5507   */\n  0x01\n    /* \"#utility.yul\":5502:5515   */\n  shr\n    /* \"#utility.yul\":5481:5515   */\n  swap1\n  pop\n    /* \"#utility.yul\":5420:5522   */\n  swap2\n  swap1\n  pop\n  jump\t// out\n    /* \"#utility.yul\":5528:6376   */\ntag_54:\n    /* \"#utility.yul\":5589:5594   */\n  0x00\n    /* \"#utility.yul\":5596:5600   */\n  dup1\n    /* \"#utility.yul\":5620:5626   */\n  dup3\n    /* \"#utility.yul\":5611:5626   */\n  swap2\n  pop\n    /* \"#utility.yul\":5644:5649   */\n  dup4\n    /* \"#utility.yul\":5635:5649   */\n  swap1\n  pop\n    /* \"#utility.yul\":5658:6370   */\ntag_126:\n    /* \"#utility.yul\":5679:5680   */\n  0x01\n    /* \"#utility.yul\":5669:5677   */\n  dup6\n    /* \"#utility.yul\":5666:5681   */\n  gt\n    /* \"#utility.yul\":5658:6370   */\n  iszero\n  tag_128\n  jumpi\n    /* \"#utility.yul\":5774:5778   */\n  dup1\n    /* \"#utility.yul\":5769:5772   */\n  dup7\n    /* \"#utility.yul\":5765:5779   */\n  div\n    /* \"#utility.yul\":5759:5763   */\n  dup2\n    /* \"#utility.yul\":5756:5780   */\n  gt\n    /* \"#utility.yul\":5753:5803   */\n  iszero\n  tag_129\n  jumpi\n    /* \"#utility.yul\":5783:5801   */\n  tag_130\n  tag_52\n  jump\t// in\ntag_130:\n    /* \"#utility.yul\":5753:5803   */\ntag_129:\n    /* \"#utility.yul\":5833:5834   */\n  0x01\n    /* \"#utility.yul\":5823:5831   */\n  dup6\n    /* \"#utility.yul\":5819:5835   */\n  and\n    /* \"#utility.yul\":5816:6267   */\n  iszero\n  tag_131\n  jumpi\n    /* \"#utility.yul\":6248:6252   */\n  dup1\n    /* \"#utility.yul\":6241:6246   */\n  dup3\n    /* \"#utility.yul\":6237:6253   */\n  mul\n    /* \"#utility.yul\":6228:6253   */\n  swap2\n  pop\n    /* \"#utility.yul\":5816:6267   */\ntag_131:\n    /* \"#utility.yul\":6298:6302   */\n  dup1\n    /* \"#utility.yul\":6292:6296   */\n  dup2\n    /* \"#utility.yul\":6288:6303   */\n  mul\n    /* \"#utility.yul\":6280:6303   */\n  swap1\n  pop\n    /* \"#utility.yul\":6328:6360   */\n  tag_132\n    /* \"#utility.yul\":6351:6359   */\n  dup6\n    /* \"#utility.yul\":6328:6360   */\n  tag_53\n  jump\t// in\ntag_132:\n    /* \"#utility.yul\":6316:6360   */\n  swap5\n  pop\n    /* \"#utility.yul\":5658:6370   */\n  jump(tag_126)\ntag_128:\n    /* \"#utility.yul\":5528:6376   */\n  swap5\n  pop\n  swap5\n  swap3\n  pop\n  pop\n  pop\n  jump\t// out\n    /* \"#utility.yul\":6382:7455   */\ntag_55:\n    /* \"#utility.yul\":6436:6441   */\n  0x00\n    /* \"#utility.yul\":6627:6635   */\n  dup3\n    /* \"#utility.yul\":6617:6657   */\n  tag_134\n  jumpi\n    /* \"#utility.yul\":6648:6649   */\n  0x01\n    /* \"#utility.yul\":6639:6649   */\n  swap1\n  pop\n    /* \"#utility.yul\":6650:6655   */\n  jump(tag_133)\n    /* \"#utility.yul\":6617:6657   */\ntag_134:\n    /* \"#utility.yul\":6676:6680   */\n  dup2\n    /* \"#utility.yul\":6666:6702   */\n  tag_135\n  jumpi\n    /* \"#utility.yul\":6693:6694   */\n  0x00\n    /* \"#utility.yul\":6684:6694   */\n  swap1\n  pop\n    /* \"#utility.yul\":6695:6700   */\n  jump(tag_133)\n    /* \"#utility.yul\":6666:6702   */\ntag_135:\n    /* \"#utility.yul\":6762:6766   */\n  dup2\n    /* \"#utility.yul\":6810:6811   */\n  0x01\n    /* \"#utility.yul\":6805:6832   */\n  dup2\n  eq\n  tag_137\n  jumpi\n    /* \"#utility.yul\":6846:6847   */\n  0x02\n    /* \"#utility.yul\":6841:7032   */\n  dup2\n  eq\n  tag_138\n  jumpi\n    /* \"#utility.yul\":6755:7032   */\n  jump(tag_136)\n    /* \"#utility.yul\":6805:6832   */\ntag_137:\n    /* \"#utility.yul\":6823:6824   */\n  0x01\n    /* \"#utility.yul\":6814:6824   */\n  swap2\n  pop\n    /* \"#utility.yul\":6825:6830   */\n  pop\n  jump(tag_133)\n    /* \"#utility.yul\":6841:7032   */\ntag_138:\n    /* \"#utility.yul\":6886:6889   */\n  0xff\n    /* \"#utility.yul\":6876:6884   */\n  dup5\n    /* \"#utility.yul\":6873:6890   */\n  gt\n    /* \"#utility.yul\":6870:6913   */\n  iszero\n  tag_139\n  jumpi\n    /* \"#utility.yul\":6893:6911   */\n  tag_140\n  tag_52\n  jump\t// in\ntag_140:\n    /* \"#utility.yul\":6870:6913   */\ntag_139:\n    /* \"#utility.yul\":6942:6950   */\n  dup4\n    /* \"#utility.yul\":6939:6940   */\n  0x02\n    /* \"#utility.yul\":6935:6951   */\n  exp\n    /* \"#utility.yul\":6926:6951   */\n  swap2\n  pop\n    /* \"#utility.yul\":6977:6980   */\n  dup5\n    /* \"#utility.yul\":6970:6975   */\n  dup3\n    /* \"#utility.yul\":6967:6981   */\n  gt\n    /* \"#utility.yul\":6964:7004   */\n  iszero\n  tag_141\n  jumpi\n    /* \"#utility.yul\":6984:7002   */\n  tag_142\n  tag_52\n  jump\t// in\ntag_142:\n    /* \"#utility.yul\":6964:7004   */\ntag_141:\n    /* \"#utility.yul\":7017:7022   */\n  pop\n  jump(tag_133)\n    /* \"#utility.yul\":6755:7032   */\ntag_136:\n  pop\n    /* \"#utility.yul\":7141:7143   */\n  0x20\n    /* \"#utility.yul\":7131:7139   */\n  dup4\n    /* \"#utility.yul\":7128:7144   */\n  lt\n    /* \"#utility.yul\":7122:7125   */\n  0x0133\n    /* \"#utility.yul\":7116:7120   */\n  dup4\n    /* \"#utility.yul\":7113:7126   */\n  lt\n    /* \"#utility.yul\":7109:7145   */\n  and\n    /* \"#utility.yul\":7091:7093   */\n  0x4e\n    /* \"#utility.yul\":7081:7089   */\n  dup5\n    /* \"#utility.yul\":7078:7094   */\n  lt\n    /* \"#utility.yul\":7073:7075   */\n  0x0b\n    /* \"#utility.yul\":7067:7071   */\n  dup5\n    /* \"#utility.yul\":7064:7076   */\n  lt\n    /* \"#utility.yul\":7060:7095   */\n  and\n    /* \"#utility.yul\":7044:7155   */\n  or\n    /* \"#utility.yul\":7041:7287   */\n  iszero\n  tag_143\n  jumpi\n    /* \"#utility.yul\":7197:7205   */\n  dup3\n    /* \"#utility.yul\":7191:7195   */\n  dup3\n    /* \"#utility.yul\":7187:7206   */\n  exp\n    /* \"#utility.yul\":7178:7206   */\n  swap1\n  pop\n    /* \"#utility.yul\":7232:7235   */\n  dup4\n    /* \"#utility.yul\":7225:7230   */\n  dup2\n    /* \"#utility.yul\":7222:7236   */\n  gt\n    /* \"#utility.yul\":7219:7259   */\n  iszero\n  tag_144\n  jumpi\n    /* \"#utility.yul\":7239:7257   */\n  tag_145\n  tag_52\n  jump\t// in\ntag_145:\n    /* \"#utility.yul\":7219:7259   */\ntag_144:\n    /* \"#utility.yul\":7272:7277   */\n  jump(tag_133)\n    /* \"#utility.yul\":7041:7287   */\ntag_143:\n    /* \"#utility.yul\":7312:7354   */\n  tag_146\n    /* \"#utility.yul\":7350:7353   */\n  dup5\n    /* \"#utility.yul\":7340:7348   */\n  dup5\n    /* \"#utility.yul\":7334:7338   */\n  dup5\n    /* \"#utility.yul\":7331:7332   */\n  0x01\n    /* \"#utility.yul\":7312:7354   */\n  tag_54\n  jump\t// in\ntag_146:\n    /* \"#utility.yul\":7297:7354   */\n  swap3\n  pop\n  swap1\n  pop\n    /* \"#utility.yul\":7386:7390   */\n  dup2\n    /* \"#utility.yul\":7381:7384   */\n  dup5\n    /* \"#utility.yul\":7377:7391   */\n  div\n    /* \"#utility.yul\":7370:7375   */\n  dup2\n    /* \"#utility.yul\":7367:7392   */\n  gt\n    /* \"#utility.yul\":7364:7415   */\n  iszero\n  tag_147\n  jumpi\n    /* \"#utility.yul\":7395:7413   */\n  tag_148\n  tag_52\n  jump\t// in\ntag_148:\n    /* \"#utility.yul\":7364:7415   */\ntag_147:\n    /* \"#utility.yul\":7444:7448   */\n  dup2\n    /* \"#utility.yul\":7437:7442   */\n  dup2\n    /* \"#utility.yul\":7433:7449   */\n  mul\n    /* \"#utility.yul\":7424:7449   */\n  swap1\n  pop\n    /* \"#utility.yul\":6382:7455   */\ntag_133:\n  swap4\n  swap3\n  pop\n  pop\n  pop\n  jump\t// out\n    /* \"#utility.yul\":7461:7547   */\ntag_56:\n    /* \"#utility.yul\":7496:7503   */\n  0x00\n    /* \"#utility.yul\":7536:7540   */\n  0xff\n    /* \"#utility.yul\":7529:7534   */\n  dup3\n    /* \"#utility.yul\":7525:7541   */\n  and\n    /* \"#utility.yul\":7514:7541   */\n  swap1\n  pop\n    /* \"#utility.yul\":7461:7547   */\n  swap2\n  swap1\n  pop\n  jump\t// out\n    /* \"#utility.yul\":7553:7834   */\ntag_12:\n    /* \"#utility.yul\":7611:7616   */\n  0x00\n    /* \"#utility.yul\":7635:7658   */\n  tag_151\n    /* \"#utility.yul\":7653:7657   */\n  dup3\n    /* \"#utility.yul\":7635:7658   */\n  tag_40\n  jump\t// in\ntag_151:\n    /* \"#utility.yul\":7627:7658   */\n  swap2\n  pop\n    /* \"#utility.yul\":7679:7704   */\n  tag_152\n    /* \"#utility.yul\":7695:7703   */\n  dup4\n    /* \"#utility.yul\":7679:7704   */\n  tag_56\n  jump\t// in\ntag_152:\n    /* \"#utility.yul\":7667:7704   */\n  swap3\n  pop\n    /* \"#utility.yul\":7723:7827   */\n  tag_153\n    /* \"#utility.yul\":7760:7826   */\n  0xffffffffffffffffffffffffffffffffffffffffffffffffffffffffffffffff\n    /* \"#utility.yul\":7750:7758   */\n  dup5\n    /* \"#utility.yul\":7744:7748   */\n  dup5\n    /* \"#utility.yul\":7723:7827   */\n  tag_55\n  jump\t// in\ntag_153:\n    /* \"#utility.yul\":7714:7827   */\n  swap1\n  pop\n    /* \"#utility.yul\":7553:7834   */\n  swap3\n  swap2\n  pop\n  pop\n  jump\t// out\n    /* \"#utility.yul\":7840:8250   */\ntag_14:\n    /* \"#utility.yul\":7880:7887   */\n  0x00\n    /* \"#utility.yul\":7903:7923   */\n  tag_155\n    /* \"#utility.yul\":7921:7922   */\n  dup3\n    /* \"#utility.yul\":7903:7923   */\n  tag_40\n  jump\t// in\ntag_155:\n    /* \"#utility.yul\":7898:7923   */\n  swap2\n  pop\n    /* \"#utility.yul\":7937:7957   */\n  tag_156\n    /* \"#utility.yul\":7955:7956   */\n  dup4\n    /* \"#utility.yul\":7937:7957   */\n  tag_40\n  jump\t// in\ntag_156:\n    /* \"#utility.yul\":7932:7957   */\n  swap3\n  pop\n    /* \"#utility.yul\":7992:7993   */\n  dup3\n    /* \"#utility.yul\":7989:7990   */\n  dup3\n    /* \"#utility.yul\":7985:7994   */\n  mul\n    /* \"#utility.yul\":8014:8044   */\n  tag_157\n    /* \"#utility.yul\":8032:8043   */\n  dup2\n    /* \"#utility.yul\":8014:8044   */\n  tag_40\n  jump\t// in\ntag_157:\n    /* \"#utility.yul\":8003:8044   */\n  swap2\n  pop\n    /* \"#utility.yul\":8193:8194   */\n  dup3\n    /* \"#utility.yul\":8184:8191   */\n  dup3\n    /* \"#utility.yul\":8180:8195   */\n  div\n    /* \"#utility.yul\":8177:8178   */\n  dup5\n    /* \"#utility.yul\":8174:8196   */\n  eq\n    /* \"#utility.yul\":8154:8155   */\n  dup4\n    /* \"#utility.yul\":8147:8156   */\n  iszero\n    /* \"#utility.yul\":8127:8210   */\n  or\n    /* \"#utility.yul\":8104:8243   */\n  tag_158\n  jumpi\n    /* \"#utility.yul\":8223:8241   */\n  tag_159\n  tag_52\n  jump\t// in\ntag_159:\n    /* \"#utility.yul\":8104:8243   */\ntag_158:\n    /* \"#utility.yul\":7888:8250   */\n  pop\n    /* \"#utility.yul\":7840:8250   */\n  swap3\n  swap2\n  pop\n  pop\n  jump\t// out\n    /* \"#utility.yul\":8256:8425   */\ntag_57:\n    /* \"#utility.yul\":8340:8351   */\n  0x00\n    /* \"#utility.yul\":8374:8380   */\n  dup3\n    /* \"#utility.yul\":8369:8372   */\n  dup3\n    /* \"#utility.yul\":8362:8381   */\n  mstore\n    /* \"#utility.yul\":8414:8418   */\n  0x20\n    /* \"#utility.yul\":8409:8412   */\n  dup3\n    /* \"#utility.yul\":8405:8419   */\n  add\n    /* \"#utility.yul\":8390:8419   */\n  swap1\n  pop\n    /* \"#utility.yul\":8256:8425   */\n  swap3\n  swap2\n  pop\n  pop\n  jump\t// out\n    /* \"#utility.yul\":8431:8612   */\ntag_58:\n    /* \"#utility.yul\":8571:8604   */\n  0x45524332303a206d696e7420746f20746865207a65726f206164647265737300\n    /* \"#utility.yul\":8567:8568   */\n  0x00\n    /* \"#utility.yul\":8559:8565   */\n  dup3\n    /* \"#utility.yul\":8555:8569   */\n  add\n    /* \"#utility.yul\":8548:8605   */\n  mstore\n    /* \"#utility.yul\":8431:8612   */\n  pop\n  jump\t// out\n    /* \"#utility.yul\":8618:8984   */\ntag_59:\n    /* \"#utility.yul\":8760:8763   */\n  0x00\n    /* \"#utility.yul\":8781:8848   */\n  tag_163\n    /* \"#utility.yul\":8845:8847   */\n  0x1f\n    /* \"#utility.yul\":8840:8843   */\n  dup4\n    /* \"#utility.yul\":8781:8848   */\n  tag_57\n  jump\t// in\ntag_163:\n    /* \"#utility.yul\":8774:8848   */\n  swap2\n  pop\n    /* \"#utility.yul\":8857:8950   */\n  tag_164\n    /* \"#utility.yul\":8946:8949   */\n  dup3\n    /* \"#utility.yul\":8857:8950   */\n  tag_58\n  jump\t// in\ntag_164:\n    /* \"#utility.yul\":8975:8977   */\n  0x20\n    /* \"#utility.yul\":8970:8973   */\n  dup3\n    /* \"#utility.yul\":8966:8978   */\n  add\n    /* \"#utility.yul\":8959:8978   */\n  swap1\n  pop\n    /* \"#utility.yul\":8618:8984   */\n  swap2\n  swap1\n  pop\n  jump\t// out\n    /* \"#utility.yul\":8990:9409   */\ntag_21:\n    /* \"#utility.yul\":9156:9160   */\n  0x00\n    /* \"#utility.yul\":9194:9196   */\n  0x20\n    /* \"#utility.yul\":9183:9192   */\n  dup3\n    /* \"#utility.yul\":9179:9197   */\n  add\n    /* \"#utility.yul\":9171:9197   */\n  swap1\n  pop\n    /* \"#utility.yul\":9243:9252   */\n  dup2\n    /* \"#utility.yul\":9237:9241   */\n  dup2\n    /* \"#utility.yul\":9233:9253   */\n  sub\n    /* \"#utility.yul\":9229:9230   */\n  0x00\n    /* \"#utility.yul\":9218:9227   */\n  dup4\n    /* \"#utility.yul\":9214:9231   */\n  add\n    /* \"#utility.yul\":9207:9254   */\n  mstore\n    /* \"#utility.yul\":9271:9402   */\n  tag_166\n    /* \"#utility.yul\":9397:9401   */\n  dup2\n    /* \"#utility.yul\":9271:9402   */\n  tag_59\n  jump\t// in\ntag_166:\n    /* \"#utility.yul\":9263:9402   */\n  swap1\n  pop\n    /* \"#utility.yul\":8990:9409   */\n  swap2\n  swap1\n  pop\n  jump\t// out\n    /* \"#utility.yul\":9415:9606   */\ntag_25:\n    /* \"#utility.yul\":9455:9458   */\n  0x00\n    /* \"#utility.yul\":9474:9494   */\n  tag_168\n    /* \"#utility.yul\":9492:9493   */\n  dup3\n    /* \"#utility.yul\":9474:9494   */\n  tag_40\n  jump\t// in\ntag_168:\n    /* \"#utility.yul\":9469:9494   */\n  swap2\n  pop\n    /* \"#utility.yul\":9508:9528   */\n  tag_169\n    /* \"#utility.yul\":9526:9527   */\n  dup4\n    /* \"#utility.yul\":9508:9528   */\n  tag_40\n  jump\t// in\ntag_169:\n    /* \"#utility.yul\":9503:9528   */\n  swap3\n  pop\n    /* \"#utility.yul\":9551:9552   */\n  dup3\n    /* \"#utility.yul\":9548:9549   */\n  dup3\n    /* \"#utility.yul\":9544:9553   */\n  add\n    /* \"#utility.yul\":9537:9553   */\n  swap1\n  pop\n    /* \"#utility.yul\":9572:9575   */\n  dup1\n    /* \"#utility.yul\":9569:9570   */\n  dup3\n    /* \"#utility.yul\":9566:9576   */\n  gt\n    /* \"#utility.yul\":9563:9599   */\n  iszero\n  tag_170\n  jumpi\n    /* \"#utility.yul\":9579:9597   */\n  tag_171\n  tag_52\n  jump\t// in\ntag_171:\n    /* \"#utility.yul\":9563:9599   */\ntag_170:\n    /* \"#utility.yul\":9415:9606   */\n  swap3\n  swap2\n  pop\n  pop\n  jump\t// out\n    /* \"#utility.yul\":9612:9730   */\ntag_60:\n    /* \"#utility.yul\":9699:9723   */\n  tag_173\n    /* \"#utility.yul\":9717:9722   */\n  dup2\n    /* \"#utility.yul\":9699:9723   */\n  tag_40\n  jump\t// in\ntag_173:\n    /* \"#utility.yul\":9694:9697   */\n  dup3\n    /* \"#utility.yul\":9687:9724   */\n  mstore\n    /* \"#utility.yul\":9612:9730   */\n  pop\n  pop\n  jump\t// out\n    /* \"#utility.yul\":9736:9958   */\ntag_27:\n    /* \"#utility.yul\":9829:9833   */\n  0x00\n    /* \"#utility.yul\":9867:9869   */\n  0x20\n    /* \"#utility.yul\":9856:9865   */\n  dup3\n    /* \"#utility.yul\":9852:9870   */\n  add\n    /* \"#utility.yul\":9844:9870   */\n  swap1\n  pop\n    /* \"#utility.yul\":9880:9951   */\n  tag_175\n    /* \"#utility.yul\":9948:9949   */\n  0x00\n    /* \"#utility.yul\":9937:9946   */\n  dup4\n    /* \"#utility.yul\":9933:9950   */\n  add\n    /* \"#utility.yul\":9924:9930   */\n  dup5\n    /* \"#utility.yul\":9880:9951   */\n  tag_60\n  jump\t// in\ntag_175:\n    /* \"#utility.yul\":9736:9958   */\n  swap3\n  swap2\n  pop\n  pop\n  jump\t// out\n    /* \"Carbon Token/CT.sol\":119:3475  contract CTToken is ERC20 {... */\ntag_16:\n  dataSize(sub_0)\n  dup1\n  dataOffset(sub_0)\n  0x00\n  codecopy\n  0x00\n  return\nstop\n\nsub_0: assembly {\n        /* \"Carbon Token/CT.sol\":119:3475  contract CTToken is ERC20 {... */\n      mstore(0x40, 0x80)\n      jumpi(tag_1, lt(calldatasize, 0x04))\n      shr(0xe0, calldataload(0x00))\n      dup1\n      0x4bd09c2a\n      gt\n      tag_25\n      jumpi\n      dup1\n      0x95d89b41\n      gt\n      tag_26\n      jumpi\n      dup1\n      0x95d89b41\n      eq\n      tag_19\n      jumpi\n      dup1\n      0xa457c2d7\n      eq\n      tag_20\n      jumpi\n      dup1\n      0xa9059cbb\n      eq\n      tag_21\n      jumpi\n      dup1\n      0xd8e3fa68\n      eq\n      tag_22\n      jumpi\n      dup1\n      0xdd62ed3e\n      eq\n      tag_23\n      jumpi\n      dup1\n      0xf6326fb3\n      eq\n      tag_24\n      jumpi\n      jump(tag_2)\n    tag_26:\n      dup1\n      0x4bd09c2a\n      eq\n      tag_14\n      jumpi\n      dup1\n      0x6d23932e\n      eq\n      tag_15\n      jumpi\n      dup1\n      0x6f9fb98a\n      eq\n      tag_16\n      jumpi\n      dup1\n      0x70a08231\n      eq\n      tag_17\n      jumpi\n      dup1\n      0x865cf788\n      eq\n      tag_18\n      jumpi\n      jump(tag_2)\n    tag_25:\n      dup1\n      0x294715d8\n      gt\n      tag_27\n      jumpi\n      dup1\n      0x294715d8\n      eq\n      tag_8\n      jumpi\n      dup1\n      0x2eb4a7ab\n      eq\n      tag_9\n      jumpi\n      dup1\n      0x2ecd4e7d\n      eq\n      tag_10\n      jumpi\n      dup1\n      0x313ce567\n      eq\n      tag_11\n      jumpi\n      dup1\n      0x39509351\n      eq\n      tag_12\n      jumpi\n      dup1\n      0x3f52f56b\n      eq\n      tag_13\n      jumpi\n      jump(tag_2)\n    tag_27:\n      dup1\n      0x06fdde03\n      eq\n      tag_3\n      jumpi\n      dup1\n      0x095ea7b3\n      eq\n      tag_4\n      jumpi\n      dup1\n      0x146bea7b\n      eq\n      tag_5\n      jumpi\n      dup1\n      0x18160ddd\n      eq\n      tag_6\n      jumpi\n      dup1\n      0x23b872dd\n      eq\n      tag_7\n      jumpi\n      jump(tag_2)\n    tag_1:\n      jumpi(tag_2, calldatasize)\n      stop\n    tag_2:\n      0x00\n      dup1\n      revert\n        /* \"@openzeppelin/contracts/token/ERC20/ERC20.sol\":2154:2252  function name() public view virtual override returns (string memory) {... */\n    tag_3:\n      callvalue\n      dup1\n      iszero\n      tag_30\n      jumpi\n      0x00\n      dup1\n      revert\n    tag_30:\n      pop\n      tag_31\n      tag_32\n      jump\t// in\n    tag_31:\n      mload(0x40)\n      tag_33\n      swap2\n      swap1\n      tag_34\n      jump\t// in\n    tag_33:\n      mload(0x40)\n      dup1\n      swap2\n      sub\n      swap1\n      return\n        /* \"@openzeppelin/contracts/token/ERC20/ERC20.sol\":4431:4628  function approve(address spender, uint256 amount) public virtual override returns (bool) {... */\n    tag_4:\n      callvalue\n      dup1\n      iszero\n      tag_35\n      jumpi\n      0x00\n      dup1\n      revert\n    tag_35:\n      pop\n      tag_36\n      0x04\n      dup1\n      calldatasize\n      sub\n      dup2\n      add\n      swap1\n      tag_37\n      swap2\n      swap1\n      tag_38\n      jump\t// in\n    tag_37:\n      tag_39\n      jump\t// in\n    tag_36:\n      mload(0x40)\n      tag_40\n      swap2\n      swap1\n      tag_41\n      jump\t// in\n    tag_40:\n      mload(0x40)\n      dup1\n      swap2\n      sub\n      swap1\n      return\n        /* \"Carbon Token/CT.sol\":2272:2372  function nextYear() external {... */\n    tag_5:\n      callvalue\n      dup1\n      iszero\n      tag_42\n      jumpi\n      0x00\n      dup1\n      revert\n    tag_42:\n      pop\n      tag_43\n      tag_44\n      jump\t// in\n    tag_43:\n      stop\n        /* \"@openzeppelin/contracts/token/ERC20/ERC20.sol\":3242:3348  function totalSupply() public view virtual override returns (uint256) {... */\n    tag_6:\n      callvalue\n      dup1\n      iszero\n      tag_45\n      jumpi\n      0x00\n      dup1\n      revert\n    tag_45:\n      pop\n      tag_46\n      tag_47\n      jump\t// in\n    tag_46:\n      mload(0x40)\n      tag_48\n      swap2\n      swap1\n      tag_49\n      jump\t// in\n    tag_48:\n      mload(0x40)\n      dup1\n      swap2\n      sub\n      swap1\n      return\n        /* \"@openzeppelin/contracts/token/ERC20/ERC20.sol\":5190:5476  function transferFrom(... */\n    tag_7:\n      callvalue\n      dup1\n      iszero\n      tag_50\n      jumpi\n      0x00\n      dup1\n      revert\n    tag_50:\n      pop\n      tag_51\n      0x04\n      dup1\n      calldatasize\n      sub\n      dup2\n      add\n      swap1\n      tag_52\n      swap2\n      swap1\n      tag_53\n      jump\t// in\n    tag_52:\n      tag_54\n      jump\t// in\n    tag_51:\n      mload(0x40)\n      tag_55\n      swap2\n      swap1\n      tag_41\n      jump\t// in\n    tag_55:\n      mload(0x40)\n      dup1\n      swap2\n      sub\n      swap1\n      return\n        /* \"Carbon Token/CT.sol\":3028:3164  function transferETHToExternalAccount(address payable recipient, uint256 amount) external {... */\n    tag_8:\n      callvalue\n      dup1\n      iszero\n      tag_56\n      jumpi\n      0x00\n      dup1\n      revert\n    tag_56:\n      pop\n      tag_57\n      0x04\n      dup1\n      calldatasize\n      sub\n      dup2\n      add\n      swap1\n      tag_58\n      swap2\n      swap1\n      tag_59\n      jump\t// in\n    tag_58:\n      tag_60\n      jump\t// in\n    tag_57:\n      stop\n        /* \"Carbon Token/CT.sol\":383:408  bytes32 public merkleRoot */\n    tag_9:\n      callvalue\n      dup1\n      iszero\n      tag_61\n      jumpi\n      0x00\n      dup1\n      revert\n    tag_61:\n      pop\n      tag_62\n      tag_63\n      jump\t// in\n    tag_62:\n      mload(0x40)\n      tag_64\n      swap2\n      swap1\n      tag_65\n      jump\t// in\n    tag_64:\n      mload(0x40)\n      dup1\n      swap2\n      sub\n      swap1\n      return\n        /* \"Carbon Token/CT.sol\":531:571  mapping(address => uint256) public debts */\n    tag_10:\n      callvalue\n      dup1\n      iszero\n      tag_66\n      jumpi\n      0x00\n      dup1\n      revert\n    tag_66:\n      pop\n      tag_67\n      0x04\n      dup1\n      calldatasize\n      sub\n      dup2\n      add\n      swap1\n      tag_68\n      swap2\n      swap1\n      tag_69\n      jump\t// in\n    tag_68:\n      tag_70\n      jump\t// in\n    tag_67:\n      mload(0x40)\n      tag_71\n      swap2\n      swap1\n      tag_49\n      jump\t// in\n    tag_71:\n      mload(0x40)\n      dup1\n      swap2\n      sub\n      swap1\n      return\n        /* \"@openzeppelin/contracts/token/ERC20/ERC20.sol\":3091:3182  function decimals() public view virtual override returns (uint8) {... */\n    tag_11:\n      callvalue\n      dup1\n      iszero\n      tag_72\n      jumpi\n      0x00\n      dup1\n      revert\n    tag_72:\n      pop\n      tag_73\n      tag_74\n      jump\t// in\n    tag_73:\n      mload(0x40)\n      tag_75\n      swap2\n      swap1\n      tag_76\n      jump\t// in\n    tag_75:\n      mload(0x40)\n      dup1\n      swap2\n      sub\n      swap1\n      return\n        /* \"@openzeppelin/contracts/token/ERC20/ERC20.sol\":5871:6105  function increaseAllowance(address spender, uint256 addedValue) public virtual returns (bool) {... */\n    tag_12:\n      callvalue\n      dup1\n      iszero\n      tag_77\n      jumpi\n      0x00\n      dup1\n      revert\n    tag_77:\n      pop\n      tag_78\n      0x04\n      dup1\n      calldatasize\n      sub\n      dup2\n      add\n      swap1\n      tag_79\n      swap2\n      swap1\n      tag_38\n      jump\t// in\n    tag_79:\n      tag_80\n      jump\t// in\n    tag_78:\n      mload(0x40)\n      tag_81\n      swap2\n      swap1\n      tag_41\n      jump\t// in\n    tag_81:\n      mload(0x40)\n      dup1\n      swap2\n      sub\n      swap1\n      return\n        /* \"Carbon Token/CT.sol\":309:350  uint256 constant public CT_DEFAULT = 1000 */\n    tag_13:\n      callvalue\n      dup1\n      iszero\n      tag_82\n      jumpi\n      0x00\n      dup1\n      revert\n    tag_82:\n      pop\n      tag_83\n      tag_84\n      jump\t// in\n    tag_83:\n      mload(0x40)\n      tag_85\n      swap2\n      swap1\n      tag_49\n      jump\t// in\n    tag_85:\n      mload(0x40)\n      dup1\n      swap2\n      sub\n      swap1\n      return\n        /* \"Carbon Token/CT.sol\":1276:2264  function distributeTokens(address[] memory addresses, uint256[] memory amounts) external {... */\n    tag_14:\n      callvalue\n      dup1\n      iszero\n      tag_86\n      jumpi\n      0x00\n      dup1\n      revert\n    tag_86:\n      pop\n      tag_87\n      0x04\n      dup1\n      calldatasize\n      sub\n      dup2\n      add\n      swap1\n      tag_88\n      swap2\n      swap1\n      tag_89\n      jump\t// in\n    tag_88:\n      tag_90\n      jump\t// in\n    tag_87:\n      stop\n        /* \"Carbon Token/CT.sol\":439:492  mapping(address => bool) public isAddressInMerkleTree */\n    tag_15:\n      callvalue\n      dup1\n      iszero\n      tag_91\n      jumpi\n      0x00\n      dup1\n      revert\n    tag_91:\n      pop\n      tag_92\n      0x04\n      dup1\n      calldatasize\n      sub\n      dup2\n      add\n      swap1\n      tag_93\n      swap2\n      swap1\n      tag_69\n      jump\t// in\n    tag_93:\n      tag_94\n      jump\t// in\n    tag_92:\n      mload(0x40)\n      tag_95\n      swap2\n      swap1\n      tag_41\n      jump\t// in\n    tag_95:\n      mload(0x40)\n      dup1\n      swap2\n      sub\n      swap1\n      return\n        /* \"Carbon Token/CT.sol\":3365:3472  function getContractBalance() public view returns (uint256) {... */\n    tag_16:\n      callvalue\n      dup1\n      iszero\n      tag_96\n      jumpi\n      0x00\n      dup1\n      revert\n    tag_96:\n      pop\n      tag_97\n      tag_98\n      jump\t// in\n    tag_97:\n      mload(0x40)\n      tag_99\n      swap2\n      swap1\n      tag_49\n      jump\t// in\n    tag_99:\n      mload(0x40)\n      dup1\n      swap2\n      sub\n      swap1\n      return\n        /* \"@openzeppelin/contracts/token/ERC20/ERC20.sol\":3406:3531  function balanceOf(address account) public view virtual override returns (uint256) {... */\n    tag_17:\n      callvalue\n      dup1\n      iszero\n      tag_100\n      jumpi\n      0x00\n      dup1\n      revert\n    tag_100:\n      pop\n      tag_101\n      0x04\n      dup1\n      calldatasize\n      sub\n      dup2\n      add\n      swap1\n      tag_102\n      swap2\n      swap1\n      tag_69\n      jump\t// in\n    tag_102:\n      tag_103\n      jump\t// in\n    tag_101:\n      mload(0x40)\n      tag_104\n      swap2\n      swap1\n      tag_49\n      jump\t// in\n    tag_104:\n      mload(0x40)\n      dup1\n      swap2\n      sub\n      swap1\n      return\n        /* \"Carbon Token/CT.sol\":919:1268  function setAddressInfo(address[] memory addresses, bool[] memory isEnterprise) external {... */\n    tag_18:\n      callvalue\n      dup1\n      iszero\n      tag_105\n      jumpi\n      0x00\n      dup1\n      revert\n    tag_105:\n      pop\n      tag_106\n      0x04\n      dup1\n      calldatasize\n      sub\n      dup2\n      add\n      swap1\n      tag_107\n      swap2\n      swap1\n      tag_108\n      jump\t// in\n    tag_107:\n      tag_109\n      jump\t// in\n    tag_106:\n      stop\n        /* \"@openzeppelin/contracts/token/ERC20/ERC20.sol\":2365:2467  function symbol() public view virtual override returns (string memory) {... */\n    tag_19:\n      callvalue\n      dup1\n      iszero\n      tag_110\n      jumpi\n      0x00\n      dup1\n      revert\n    tag_110:\n      pop\n      tag_111\n      tag_112\n      jump\t// in\n    tag_111:\n      mload(0x40)\n      tag_113\n      swap2\n      swap1\n      tag_34\n      jump\t// in\n    tag_113:\n      mload(0x40)\n      dup1\n      swap2\n      sub\n      swap1\n      return\n        /* \"@openzeppelin/contracts/token/ERC20/ERC20.sol\":6592:7019  function decreaseAllowance(address spender, uint256 subtractedValue) public virtual returns (bool) {... */\n    tag_20:\n      callvalue\n      dup1\n      iszero\n      tag_114\n      jumpi\n      0x00\n      dup1\n      revert\n    tag_114:\n      pop\n      tag_115\n      0x04\n      dup1\n      calldatasize\n      sub\n      dup2\n      add\n      swap1\n      tag_116\n      swap2\n      swap1\n      tag_38\n      jump\t// in\n    tag_116:\n      tag_117\n      jump\t// in\n    tag_115:\n      mload(0x40)\n      tag_118\n      swap2\n      swap1\n      tag_41\n      jump\t// in\n    tag_118:\n      mload(0x40)\n      dup1\n      swap2\n      sub\n      swap1\n      return\n        /* \"@openzeppelin/contracts/token/ERC20/ERC20.sol\":3727:3916  function transfer(address to, uint256 amount) public virtual override returns (bool) {... */\n    tag_21:\n      callvalue\n      dup1\n      iszero\n      tag_119\n      jumpi\n      0x00\n      dup1\n      revert\n    tag_119:\n      pop\n      tag_120\n      0x04\n      dup1\n      calldatasize\n      sub\n      dup2\n      add\n      swap1\n      tag_121\n      swap2\n      swap1\n      tag_38\n      jump\t// in\n    tag_121:\n      tag_122\n      jump\t// in\n    tag_120:\n      mload(0x40)\n      tag_123\n      swap2\n      swap1\n      tag_41\n      jump\t// in\n    tag_123:\n      mload(0x40)\n      dup1\n      swap2\n      sub\n      swap1\n      return\n        /* \"Carbon Token/CT.sol\":2599:3022  function settleAccounts(address user, uint256 amount) public {... */\n    tag_22:\n      callvalue\n      dup1\n      iszero\n      tag_124\n      jumpi\n      0x00\n      dup1\n      revert\n    tag_124:\n      pop\n      tag_125\n      0x04\n      dup1\n      calldatasize\n      sub\n      dup2\n      add\n      swap1\n      tag_126\n      swap2\n      swap1\n      tag_38\n      jump\t// in\n    tag_126:\n      tag_127\n      jump\t// in\n    tag_125:\n      stop\n        /* \"@openzeppelin/contracts/token/ERC20/ERC20.sol\":3974:4123  function allowance(address owner, address spender) public view virtual override returns (uint256) {... */\n    tag_23:\n      callvalue\n      dup1\n      iszero\n      tag_128\n      jumpi\n      0x00\n      dup1\n      revert\n    tag_128:\n      pop\n      tag_129\n      0x04\n      dup1\n      calldatasize\n      sub\n      dup2\n      add\n      swap1\n      tag_130\n      swap2\n      swap1\n      tag_131\n      jump\t// in\n    tag_130:\n      tag_132\n      jump\t// in\n    tag_129:\n      mload(0x40)\n      tag_133\n      swap2\n      swap1\n      tag_49\n      jump\t// in\n    tag_133:\n      mload(0x40)\n      dup1\n      swap2\n      sub\n      swap1\n      return\n        /* \"Carbon Token/CT.sol\":3318:3359  function depositETH() external payable {} */\n    tag_24:\n      tag_134\n      tag_135\n      jump\t// in\n    tag_134:\n      stop\n        /* \"@openzeppelin/contracts/token/ERC20/ERC20.sol\":2154:2252  function name() public view virtual override returns (string memory) {... */\n    tag_32:\n        /* \"@openzeppelin/contracts/token/ERC20/ERC20.sol\":2208:2221  string memory */\n      0x60\n        /* \"@openzeppelin/contracts/token/ERC20/ERC20.sol\":2240:2245  _name */\n      0x03\n        /* \"@openzeppelin/contracts/token/ERC20/ERC20.sol\":2233:2245  return _name */\n      dup1\n      sload\n      tag_137\n      swap1\n      tag_138\n      jump\t// in\n    tag_137:\n      dup1\n      0x1f\n      add\n      0x20\n      dup1\n      swap2\n      div\n      mul\n      0x20\n      add\n      mload(0x40)\n      swap1\n      dup2\n      add\n      0x40\n      mstore\n      dup1\n      swap3\n      swap2\n      swap1\n      dup2\n      dup2\n      mstore\n      0x20\n      add\n      dup3\n      dup1\n      sload\n      tag_139\n      swap1\n      tag_138\n      jump\t// in\n    tag_139:\n      dup1\n      iszero\n      tag_140\n      jumpi\n      dup1\n      0x1f\n      lt\n      tag_141\n      jumpi\n      0x0100\n      dup1\n      dup4\n      sload\n      div\n      mul\n      dup4\n      mstore\n      swap2\n      0x20\n      add\n      swap2\n      jump(tag_140)\n    tag_141:\n      dup3\n      add\n      swap2\n      swap1\n      0x00\n      mstore\n      keccak256(0x00, 0x20)\n      swap1\n    tag_142:\n      dup2\n      sload\n      dup2\n      mstore\n      swap1\n      0x01\n      add\n      swap1\n      0x20\n      add\n      dup1\n      dup4\n      gt\n      tag_142\n      jumpi\n      dup3\n      swap1\n      sub\n      0x1f\n      and\n      dup3\n      add\n      swap2\n    tag_140:\n      pop\n      pop\n      pop\n      pop\n      pop\n      swap1\n      pop\n        /* \"@openzeppelin/contracts/token/ERC20/ERC20.sol\":2154:2252  function name() public view virtual override returns (string memory) {... */\n      swap1\n      jump\t// out\n        /* \"@openzeppelin/contracts/token/ERC20/ERC20.sol\":4431:4628  function approve(address spender, uint256 amount) public virtual override returns (bool) {... */\n    tag_39:\n        /* \"@openzeppelin/contracts/token/ERC20/ERC20.sol\":4514:4518  bool */\n      0x00\n        /* \"@openzeppelin/contracts/token/ERC20/ERC20.sol\":4530:4543  address owner */\n      dup1\n        /* \"@openzeppelin/contracts/token/ERC20/ERC20.sol\":4546:4558  _msgSender() */\n      tag_144\n        /* \"@openzeppelin/contracts/token/ERC20/ERC20.sol\":4546:4556  _msgSender */\n      tag_145\n        /* \"@openzeppelin/contracts/token/ERC20/ERC20.sol\":4546:4558  _msgSender() */\n      jump\t// in\n    tag_144:\n        /* \"@openzeppelin/contracts/token/ERC20/ERC20.sol\":4530:4558  address owner = _msgSender() */\n      swap1\n      pop\n        /* \"@openzeppelin/contracts/token/ERC20/ERC20.sol\":4568:4600  _approve(owner, spender, amount) */\n      tag_146\n        /* \"@openzeppelin/contracts/token/ERC20/ERC20.sol\":4577:4582  owner */\n      dup2\n        /* \"@openzeppelin/contracts/token/ERC20/ERC20.sol\":4584:4591  spender */\n      dup6\n        /* \"@openzeppelin/contracts/token/ERC20/ERC20.sol\":4593:4599  amount */\n      dup6\n        /* \"@openzeppelin/contracts/token/ERC20/ERC20.sol\":4568:4576  _approve */\n      tag_147\n        /* \"@openzeppelin/contracts/token/ERC20/ERC20.sol\":4568:4600  _approve(owner, spender, amount) */\n      jump\t// in\n    tag_146:\n        /* \"@openzeppelin/contracts/token/ERC20/ERC20.sol\":4617:4621  true */\n      0x01\n        /* \"@openzeppelin/contracts/token/ERC20/ERC20.sol\":4610:4621  return true */\n      swap2\n      pop\n      pop\n        /* \"@openzeppelin/contracts/token/ERC20/ERC20.sol\":4431:4628  function approve(address spender, uint256 amount) public virtual override returns (bool) {... */\n      swap3\n      swap2\n      pop\n      pop\n      jump\t// out\n        /* \"Carbon Token/CT.sol\":2272:2372  function nextYear() external {... */\n    tag_44:\n        /* \"Carbon Token/CT.sol\":2312:2323  currentYear */\n      0x09\n      0x00\n        /* \"Carbon Token/CT.sol\":2312:2325  currentYear++ */\n      dup2\n      sload\n      dup1\n      swap3\n      swap2\n      swap1\n      tag_149\n      swap1\n      tag_150\n      jump\t// in\n    tag_149:\n      swap2\n      swap1\n      pop\n      sstore\n      pop\n        /* \"Carbon Token/CT.sol\":2272:2372  function nextYear() external {... */\n      jump\t// out\n        /* \"@openzeppelin/contracts/token/ERC20/ERC20.sol\":3242:3348  function totalSupply() public view virtual override returns (uint256) {... */\n    tag_47:\n        /* \"@openzeppelin/contracts/token/ERC20/ERC20.sol\":3303:3310  uint256 */\n      0x00\n        /* \"@openzeppelin/contracts/token/ERC20/ERC20.sol\":3329:3341  _totalSupply */\n      sload(0x02)\n        /* \"@openzeppelin/contracts/token/ERC20/ERC20.sol\":3322:3341  return _totalSupply */\n      swap1\n      pop\n        /* \"@openzeppelin/contracts/token/ERC20/ERC20.sol\":3242:3348  function totalSupply() public view virtual override returns (uint256) {... */\n      swap1\n      jump\t// out\n        /* \"@openzeppelin/contracts/token/ERC20/ERC20.sol\":5190:5476  function transferFrom(... */\n    tag_54:\n        /* \"@openzeppelin/contracts/token/ERC20/ERC20.sol\":5317:5321  bool */\n      0x00\n        /* \"@openzeppelin/contracts/token/ERC20/ERC20.sol\":5333:5348  address spender */\n      dup1\n        /* \"@openzeppelin/contracts/token/ERC20/ERC20.sol\":5351:5363  _msgSender() */\n      tag_153\n        /* \"@openzeppelin/contracts/token/ERC20/ERC20.sol\":5351:5361  _msgSender */\n      tag_145\n        /* \"@openzeppelin/contracts/token/ERC20/ERC20.sol\":5351:5363  _msgSender() */\n      jump\t// in\n    tag_153:\n        /* \"@openzeppelin/contracts/token/ERC20/ERC20.sol\":5333:5363  address spender = _msgSender() */\n      swap1\n      pop\n        /* \"@openzeppelin/contracts/token/ERC20/ERC20.sol\":5373:5411  _spendAllowance(from, spender, amount) */\n      tag_154\n        /* \"@openzeppelin/contracts/token/ERC20/ERC20.sol\":5389:5393  from */\n      dup6\n        /* \"@openzeppelin/contracts/token/ERC20/ERC20.sol\":5395:5402  spender */\n      dup3\n        /* \"@openzeppelin/contracts/token/ERC20/ERC20.sol\":5404:5410  amount */\n      dup6\n        /* \"@openzeppelin/contracts/token/ERC20/ERC20.sol\":5373:5388  _spendAllowance */\n      tag_155\n        /* \"@openzeppelin/contracts/token/ERC20/ERC20.sol\":5373:5411  _spendAllowance(from, spender, amount) */\n      jump\t// in\n    tag_154:\n        /* \"@openzeppelin/contracts/token/ERC20/ERC20.sol\":5421:5448  _transfer(from, to, amount) */\n      tag_156\n        /* \"@openzeppelin/contracts/token/ERC20/ERC20.sol\":5431:5435  from */\n      dup6\n        /* \"@openzeppelin/contracts/token/ERC20/ERC20.sol\":5437:5439  to */\n      dup6\n        /* \"@openzeppelin/contracts/token/ERC20/ERC20.sol\":5441:5447  amount */\n      dup6\n        /* \"@openzeppelin/contracts/token/ERC20/ERC20.sol\":5421:5430  _transfer */\n      tag_157\n        /* \"@openzeppelin/contracts/token/ERC20/ERC20.sol\":5421:5448  _transfer(from, to, amount) */\n      jump\t// in\n    tag_156:\n        /* \"@openzeppelin/contracts/token/ERC20/ERC20.sol\":5465:5469  true */\n      0x01\n        /* \"@openzeppelin/contracts/token/ERC20/ERC20.sol\":5458:5469  return true */\n      swap2\n      pop\n      pop\n        /* \"@openzeppelin/contracts/token/ERC20/ERC20.sol\":5190:5476  function transferFrom(... */\n      swap4\n      swap3\n      pop\n      pop\n      pop\n      jump\t// out\n        /* \"Carbon Token/CT.sol\":3028:3164  function transferETHToExternalAccount(address payable recipient, uint256 amount) external {... */\n    tag_60:\n        /* \"Carbon Token/CT.sol\":3129:3138  recipient */\n      dup2\n        /* \"Carbon Token/CT.sol\":3129:3147  recipient.transfer */\n      0xffffffffffffffffffffffffffffffffffffffff\n      and\n        /* \"Carbon Token/CT.sol\":3129:3155  recipient.transfer(amount) */\n      0x08fc\n        /* \"Carbon Token/CT.sol\":3148:3154  amount */\n      dup3\n        /* \"Carbon Token/CT.sol\":3129:3155  recipient.transfer(amount) */\n      swap1\n      dup2\n      iszero\n      mul\n      swap1\n      mload(0x40)\n      0x00\n      mload(0x40)\n      dup1\n      dup4\n      sub\n      dup2\n      dup6\n      dup9\n      dup9\n      call\n      swap4\n      pop\n      pop\n      pop\n      pop\n      iszero\n      dup1\n      iszero\n      tag_160\n      jumpi\n      returndatasize\n      0x00\n      dup1\n      returndatacopy\n      revert(0x00, returndatasize)\n    tag_160:\n      pop\n        /* \"Carbon Token/CT.sol\":3028:3164  function transferETHToExternalAccount(address payable recipient, uint256 amount) external {... */\n      pop\n      pop\n      jump\t// out\n        /* \"Carbon Token/CT.sol\":383:408  bytes32 public merkleRoot */\n    tag_63:\n      sload(0x05)\n      dup2\n      jump\t// out\n        /* \"Carbon Token/CT.sol\":531:571  mapping(address => uint256) public debts */\n    tag_70:\n      mstore(0x20, 0x07)\n      dup1\n      0x00\n      mstore\n      keccak256(0x00, 0x40)\n      0x00\n      swap2\n      pop\n      swap1\n      pop\n      sload\n      dup2\n      jump\t// out\n        /* \"@openzeppelin/contracts/token/ERC20/ERC20.sol\":3091:3182  function decimals() public view virtual override returns (uint8) {... */\n    tag_74:\n        /* \"@openzeppelin/contracts/token/ERC20/ERC20.sol\":3149:3154  uint8 */\n      0x00\n        /* \"@openzeppelin/contracts/token/ERC20/ERC20.sol\":3173:3175  18 */\n      0x12\n        /* \"@openzeppelin/contracts/token/ERC20/ERC20.sol\":3166:3175  return 18 */\n      swap1\n      pop\n        /* \"@openzeppelin/contracts/token/ERC20/ERC20.sol\":3091:3182  function decimals() public view virtual override returns (uint8) {... */\n      swap1\n      jump\t// out\n        /* \"@openzeppelin/contracts/token/ERC20/ERC20.sol\":5871:6105  function increaseAllowance(address spender, uint256 addedValue) public virtual returns (bool) {... */\n    tag_80:\n        /* \"@openzeppelin/contracts/token/ERC20/ERC20.sol\":5959:5963  bool */\n      0x00\n        /* \"@openzeppelin/contracts/token/ERC20/ERC20.sol\":5975:5988  address owner */\n      dup1\n        /* \"@openzeppelin/contracts/token/ERC20/ERC20.sol\":5991:6003  _msgSender() */\n      tag_163\n        /* \"@openzeppelin/contracts/token/ERC20/ERC20.sol\":5991:6001  _msgSender */\n      tag_145\n        /* \"@openzeppelin/contracts/token/ERC20/ERC20.sol\":5991:6003  _msgSender() */\n      jump\t// in\n    tag_163:\n        /* \"@openzeppelin/contracts/token/ERC20/ERC20.sol\":5975:6003  address owner = _msgSender() */\n      swap1\n      pop\n        /* \"@openzeppelin/contracts/token/ERC20/ERC20.sol\":6013:6077  _approve(owner, spender, allowance(owner, spender) + addedValue) */\n      tag_164\n        /* \"@openzeppelin/contracts/token/ERC20/ERC20.sol\":6022:6027  owner */\n      dup2\n        /* \"@openzeppelin/contracts/token/ERC20/ERC20.sol\":6029:6036  spender */\n      dup6\n        /* \"@openzeppelin/contracts/token/ERC20/ERC20.sol\":6066:6076  addedValue */\n      dup6\n        /* \"@openzeppelin/contracts/token/ERC20/ERC20.sol\":6038:6063  allowance(owner, spender) */\n      tag_165\n        /* \"@openzeppelin/contracts/token/ERC20/ERC20.sol\":6048:6053  owner */\n      dup6\n        /* \"@openzeppelin/contracts/token/ERC20/ERC20.sol\":6055:6062  spender */\n      dup10\n        /* \"@openzeppelin/contracts/token/ERC20/ERC20.sol\":6038:6047  allowance */\n      tag_132\n        /* \"@openzeppelin/contracts/token/ERC20/ERC20.sol\":6038:6063  allowance(owner, spender) */\n      jump\t// in\n    tag_165:\n        /* \"@openzeppelin/contracts/token/ERC20/ERC20.sol\":6038:6076  allowance(owner, spender) + addedValue */\n      tag_166\n      swap2\n      swap1\n      tag_167\n      jump\t// in\n    tag_166:\n        /* \"@openzeppelin/contracts/token/ERC20/ERC20.sol\":6013:6021  _approve */\n      tag_147\n        /* \"@openzeppelin/contracts/token/ERC20/ERC20.sol\":6013:6077  _approve(owner, spender, allowance(owner, spender) + addedValue) */\n      jump\t// in\n    tag_164:\n        /* \"@openzeppelin/contracts/token/ERC20/ERC20.sol\":6094:6098  true */\n      0x01\n        /* \"@openzeppelin/contracts/token/ERC20/ERC20.sol\":6087:6098  return true */\n      swap2\n      pop\n      pop\n        /* \"@openzeppelin/contracts/token/ERC20/ERC20.sol\":5871:6105  function increaseAllowance(address spender, uint256 addedValue) public virtual returns (bool) {... */\n      swap3\n      swap2\n      pop\n      pop\n      jump\t// out\n        /* \"Carbon Token/CT.sol\":309:350  uint256 constant public CT_DEFAULT = 1000 */\n    tag_84:\n        /* \"Carbon Token/CT.sol\":346:350  1000 */\n      0x03e8\n        /* \"Carbon Token/CT.sol\":309:350  uint256 constant public CT_DEFAULT = 1000 */\n      dup2\n      jump\t// out\n        /* \"Carbon Token/CT.sol\":1276:2264  function distributeTokens(address[] memory addresses, uint256[] memory amounts) external {... */\n    tag_90:\n        /* \"Carbon Token/CT.sol\":1404:1411  amounts */\n      dup1\n        /* \"Carbon Token/CT.sol\":1404:1418  amounts.length */\n      mload\n        /* \"Carbon Token/CT.sol\":1384:1393  addresses */\n      dup3\n        /* \"Carbon Token/CT.sol\":1384:1400  addresses.length */\n      mload\n        /* \"Carbon Token/CT.sol\":1384:1418  addresses.length == amounts.length */\n      eq\n        /* \"Carbon Token/CT.sol\":1376:1436  require(addresses.length == amounts.length, \"Invalid input\") */\n      tag_169\n      jumpi\n      mload(0x40)\n      0x08c379a000000000000000000000000000000000000000000000000000000000\n      dup2\n      mstore\n      0x04\n      add\n      tag_170\n      swap1\n      tag_171\n      jump\t// in\n    tag_170:\n      mload(0x40)\n      dup1\n      swap2\n      sub\n      swap1\n      revert\n    tag_169:\n        /* \"Carbon Token/CT.sol\":1473:1482  uint256 i */\n      0x00\n        /* \"Carbon Token/CT.sol\":1468:2257  for (uint256 i = 0; i < addresses.length; i++) {... */\n    tag_172:\n        /* \"Carbon Token/CT.sol\":1492:1501  addresses */\n      dup3\n        /* \"Carbon Token/CT.sol\":1492:1508  addresses.length */\n      mload\n        /* \"Carbon Token/CT.sol\":1488:1489  i */\n      dup2\n        /* \"Carbon Token/CT.sol\":1488:1508  i < addresses.length */\n      lt\n        /* \"Carbon Token/CT.sol\":1468:2257  for (uint256 i = 0; i < addresses.length; i++) {... */\n      iszero\n      tag_173\n      jumpi\n        /* \"Carbon Token/CT.sol\":1551:1552  0 */\n      0x00\n        /* \"Carbon Token/CT.sol\":1538:1545  amounts */\n      dup3\n        /* \"Carbon Token/CT.sol\":1546:1547  i */\n      dup3\n        /* \"Carbon Token/CT.sol\":1538:1548  amounts[i] */\n      dup2\n      mload\n      dup2\n      lt\n      tag_175\n      jumpi\n      tag_176\n      tag_177\n      jump\t// in\n    tag_176:\n    tag_175:\n      0x20\n      mul\n      0x20\n      add\n      add\n      mload\n        /* \"Carbon Token/CT.sol\":1538:1552  amounts[i] > 0 */\n      gt\n        /* \"Carbon Token/CT.sol\":1530:1589  require(amounts[i] > 0, \"Amount must be greater than zero\") */\n      tag_178\n      jumpi\n      mload(0x40)\n      0x08c379a000000000000000000000000000000000000000000000000000000000\n      dup2\n      mstore\n      0x04\n      add\n      tag_179\n      swap1\n      tag_180\n      jump\t// in\n    tag_179:\n      mload(0x40)\n      dup1\n      swap2\n      sub\n      swap1\n      revert\n    tag_178:\n        /* \"Carbon Token/CT.sol\":1608:1625  address recipient */\n      0x00\n        /* \"Carbon Token/CT.sol\":1628:1637  addresses */\n      dup4\n        /* \"Carbon Token/CT.sol\":1638:1639  i */\n      dup3\n        /* \"Carbon Token/CT.sol\":1628:1640  addresses[i] */\n      dup2\n      mload\n      dup2\n      lt\n      tag_181\n      jumpi\n      tag_182\n      tag_177\n      jump\t// in\n    tag_182:\n    tag_181:\n      0x20\n      mul\n      0x20\n      add\n      add\n      mload\n        /* \"Carbon Token/CT.sol\":1608:1640  address recipient = addresses[i] */\n      swap1\n      pop\n        /* \"Carbon Token/CT.sol\":1714:1728  uint256 amount */\n      0x00\n        /* \"Carbon Token/CT.sol\":1731:1738  amounts */\n      dup4\n        /* \"Carbon Token/CT.sol\":1739:1740  i */\n      dup4\n        /* \"Carbon Token/CT.sol\":1731:1741  amounts[i] */\n      dup2\n      mload\n      dup2\n      lt\n      tag_183\n      jumpi\n      tag_184\n      tag_177\n      jump\t// in\n    tag_184:\n    tag_183:\n      0x20\n      mul\n      0x20\n      add\n      add\n      mload\n        /* \"Carbon Token/CT.sol\":1714:1741  uint256 amount = amounts[i] */\n      swap1\n      pop\n        /* \"Carbon Token/CT.sol\":1767:1778  addressInfo */\n      0x08\n        /* \"Carbon Token/CT.sol\":1767:1789  addressInfo[recipient] */\n      0x00\n        /* \"Carbon Token/CT.sol\":1779:1788  recipient */\n      dup4\n        /* \"Carbon Token/CT.sol\":1767:1789  addressInfo[recipient] */\n      0xffffffffffffffffffffffffffffffffffffffff\n      and\n      0xffffffffffffffffffffffffffffffffffffffff\n      and\n      dup2\n      mstore\n      0x20\n      add\n      swap1\n      dup2\n      mstore\n      0x20\n      add\n      0x00\n      keccak256\n        /* \"Carbon Token/CT.sol\":1767:1803  addressInfo[recipient].isDistributed */\n      0x00\n      add\n      0x01\n      swap1\n      sload\n      swap1\n      0x0100\n      exp\n      swap1\n      div\n      0xff\n      and\n        /* \"Carbon Token/CT.sol\":1766:1803  !addressInfo[recipient].isDistributed */\n      iszero\n        /* \"Carbon Token/CT.sol\":1758:1848  require(!addressInfo[recipient].isDistributed, \"Tokens already distributed for this year\") */\n      tag_185\n      jumpi\n      mload(0x40)\n      0x08c379a000000000000000000000000000000000000000000000000000000000\n      dup2\n      mstore\n      0x04\n      add\n      tag_186\n      swap1\n      tag_187\n      jump\t// in\n    tag_186:\n      mload(0x40)\n      dup1\n      swap2\n      sub\n      swap1\n      revert\n    tag_185:\n        /* \"Carbon Token/CT.sol\":1869:1880  addressInfo */\n      0x08\n        /* \"Carbon Token/CT.sol\":1869:1891  addressInfo[recipient] */\n      0x00\n        /* \"Carbon Token/CT.sol\":1881:1890  recipient */\n      dup4\n        /* \"Carbon Token/CT.sol\":1869:1891  addressInfo[recipient] */\n      0xffffffffffffffffffffffffffffffffffffffff\n      and\n      0xffffffffffffffffffffffffffffffffffffffff\n      and\n      dup2\n      mstore\n      0x20\n      add\n      swap1\n      dup2\n      mstore\n      0x20\n      add\n      0x00\n      keccak256\n        /* \"Carbon Token/CT.sol\":1869:1904  addressInfo[recipient].isEnterprise */\n      0x00\n      add\n      0x00\n      swap1\n      sload\n      swap1\n      0x0100\n      exp\n      swap1\n      div\n      0xff\n      and\n        /* \"Carbon Token/CT.sol\":1865:2186  if (addressInfo[recipient].isEnterprise) {... */\n      iszero\n      tag_188\n      jumpi\n        /* \"Carbon Token/CT.sol\":1967:2011  _transfer(msg.sender, recipient, CT_DEFAULT) */\n      tag_189\n        /* \"Carbon Token/CT.sol\":1977:1987  msg.sender */\n      caller\n        /* \"Carbon Token/CT.sol\":1989:1998  recipient */\n      dup4\n        /* \"Carbon Token/CT.sol\":346:350  1000 */\n      0x03e8\n        /* \"Carbon Token/CT.sol\":1967:1976  _transfer */\n      tag_157\n        /* \"Carbon Token/CT.sol\":1967:2011  _transfer(msg.sender, recipient, CT_DEFAULT) */\n      jump\t// in\n    tag_189:\n        /* \"Carbon Token/CT.sol\":1865:2186  if (addressInfo[recipient].isEnterprise) {... */\n      jump(tag_190)\n    tag_188:\n        /* \"Carbon Token/CT.sol\":2126:2170  _transfer(msg.sender, recipient, CT_DEFAULT) */\n      tag_191\n        /* \"Carbon Token/CT.sol\":2136:2146  msg.sender */\n      caller\n        /* \"Carbon Token/CT.sol\":2148:2157  recipient */\n      dup4\n        /* \"Carbon Token/CT.sol\":346:350  1000 */\n      0x03e8\n        /* \"Carbon Token/CT.sol\":2126:2135  _transfer */\n      tag_157\n        /* \"Carbon Token/CT.sol\":2126:2170  _transfer(msg.sender, recipient, CT_DEFAULT) */\n      jump\t// in\n    tag_191:\n        /* \"Carbon Token/CT.sol\":1865:2186  if (addressInfo[recipient].isEnterprise) {... */\n    tag_190:\n        /* \"Carbon Token/CT.sol\":2241:2245  true */\n      0x01\n        /* \"Carbon Token/CT.sol\":2202:2213  addressInfo */\n      0x08\n        /* \"Carbon Token/CT.sol\":2202:2224  addressInfo[recipient] */\n      0x00\n        /* \"Carbon Token/CT.sol\":2214:2223  recipient */\n      dup5\n        /* \"Carbon Token/CT.sol\":2202:2224  addressInfo[recipient] */\n      0xffffffffffffffffffffffffffffffffffffffff\n      and\n      0xffffffffffffffffffffffffffffffffffffffff\n      and\n      dup2\n      mstore\n      0x20\n      add\n      swap1\n      dup2\n      mstore\n      0x20\n      add\n      0x00\n      keccak256\n        /* \"Carbon Token/CT.sol\":2202:2238  addressInfo[recipient].isDistributed */\n      0x00\n      add\n      0x01\n        /* \"Carbon Token/CT.sol\":2202:2245  addressInfo[recipient].isDistributed = true */\n      0x0100\n      exp\n      dup2\n      sload\n      dup2\n      0xff\n      mul\n      not\n      and\n      swap1\n      dup4\n      iszero\n      iszero\n      mul\n      or\n      swap1\n      sstore\n      pop\n        /* \"Carbon Token/CT.sol\":1515:2257  {... */\n      pop\n      pop\n        /* \"Carbon Token/CT.sol\":1510:1513  i++ */\n      dup1\n      dup1\n      tag_192\n      swap1\n      tag_150\n      jump\t// in\n    tag_192:\n      swap2\n      pop\n      pop\n        /* \"Carbon Token/CT.sol\":1468:2257  for (uint256 i = 0; i < addresses.length; i++) {... */\n      jump(tag_172)\n    tag_173:\n      pop\n        /* \"Carbon Token/CT.sol\":1276:2264  function distributeTokens(address[] memory addresses, uint256[] memory amounts) external {... */\n      pop\n      pop\n      jump\t// out\n        /* \"Carbon Token/CT.sol\":439:492  mapping(address => bool) public isAddressInMerkleTree */\n    tag_94:\n      mstore(0x20, 0x06)\n      dup1\n      0x00\n      mstore\n      keccak256(0x00, 0x40)\n      0x00\n      swap2\n      pop\n      sload\n      swap1\n      0x0100\n      exp\n      swap1\n      div\n      0xff\n      and\n      dup2\n      jump\t// out\n        /* \"Carbon Token/CT.sol\":3365:3472  function getContractBalance() public view returns (uint256) {... */\n    tag_98:\n        /* \"Carbon Token/CT.sol\":3416:3423  uint256 */\n      0x00\n        /* \"Carbon Token/CT.sol\":3443:3464  address(this).balance */\n      selfbalance\n        /* \"Carbon Token/CT.sol\":3436:3464  return address(this).balance */\n      swap1\n      pop\n        /* \"Carbon Token/CT.sol\":3365:3472  function getContractBalance() public view returns (uint256) {... */\n      swap1\n      jump\t// out\n        /* \"@openzeppelin/contracts/token/ERC20/ERC20.sol\":3406:3531  function balanceOf(address account) public view virtual override returns (uint256) {... */\n    tag_103:\n        /* \"@openzeppelin/contracts/token/ERC20/ERC20.sol\":3480:3487  uint256 */\n      0x00\n        /* \"@openzeppelin/contracts/token/ERC20/ERC20.sol\":3506:3515  _balances */\n      dup1\n        /* \"@openzeppelin/contracts/token/ERC20/ERC20.sol\":3506:3524  _balances[account] */\n      0x00\n        /* \"@openzeppelin/contracts/token/ERC20/ERC20.sol\":3516:3523  account */\n      dup4\n        /* \"@openzeppelin/contracts/token/ERC20/ERC20.sol\":3506:3524  _balances[account] */\n      0xffffffffffffffffffffffffffffffffffffffff\n      and\n      0xffffffffffffffffffffffffffffffffffffffff\n      and\n      dup2\n      mstore\n      0x20\n      add\n      swap1\n      dup2\n      mstore\n      0x20\n      add\n      0x00\n      keccak256\n      sload\n        /* \"@openzeppelin/contracts/token/ERC20/ERC20.sol\":3499:3524  return _balances[account] */\n      swap1\n      pop\n        /* \"@openzeppelin/contracts/token/ERC20/ERC20.sol\":3406:3531  function balanceOf(address account) public view virtual override returns (uint256) {... */\n      swap2\n      swap1\n      pop\n      jump\t// out\n        /* \"Carbon Token/CT.sol\":919:1268  function setAddressInfo(address[] memory addresses, bool[] memory isEnterprise) external {... */\n    tag_109:\n        /* \"Carbon Token/CT.sol\":1047:1059  isEnterprise */\n      dup1\n        /* \"Carbon Token/CT.sol\":1047:1066  isEnterprise.length */\n      mload\n        /* \"Carbon Token/CT.sol\":1027:1036  addresses */\n      dup3\n        /* \"Carbon Token/CT.sol\":1027:1043  addresses.length */\n      mload\n        /* \"Carbon Token/CT.sol\":1027:1066  addresses.length == isEnterprise.length */\n      eq\n        /* \"Carbon Token/CT.sol\":1019:1084  require(addresses.length == isEnterprise.length, \"Invalid input\") */\n      tag_196\n      jumpi\n      mload(0x40)\n      0x08c379a000000000000000000000000000000000000000000000000000000000\n      dup2\n      mstore\n      0x04\n      add\n      tag_197\n      swap1\n      tag_171\n      jump\t// in\n    tag_197:\n      mload(0x40)\n      dup1\n      swap2\n      sub\n      swap1\n      revert\n    tag_196:\n        /* \"Carbon Token/CT.sol\":1102:1111  uint256 i */\n      0x00\n        /* \"Carbon Token/CT.sol\":1097:1261  for (uint256 i = 0; i < addresses.length; i++) {... */\n    tag_198:\n        /* \"Carbon Token/CT.sol\":1121:1130  addresses */\n      dup3\n        /* \"Carbon Token/CT.sol\":1121:1137  addresses.length */\n      mload\n        /* \"Carbon Token/CT.sol\":1117:1118  i */\n      dup2\n        /* \"Carbon Token/CT.sol\":1117:1137  i < addresses.length */\n      lt\n        /* \"Carbon Token/CT.sol\":1097:1261  for (uint256 i = 0; i < addresses.length; i++) {... */\n      iszero\n      tag_199\n      jumpi\n        /* \"Carbon Token/CT.sol\":1159:1171  address addr */\n      0x00\n        /* \"Carbon Token/CT.sol\":1174:1183  addresses */\n      dup4\n        /* \"Carbon Token/CT.sol\":1184:1185  i */\n      dup3\n        /* \"Carbon Token/CT.sol\":1174:1186  addresses[i] */\n      dup2\n      mload\n      dup2\n      lt\n      tag_201\n      jumpi\n      tag_202\n      tag_177\n      jump\t// in\n    tag_202:\n    tag_201:\n      0x20\n      mul\n      0x20\n      add\n      add\n      mload\n        /* \"Carbon Token/CT.sol\":1159:1186  address addr = addresses[i] */\n      swap1\n      pop\n        /* \"Carbon Token/CT.sol\":1234:1246  isEnterprise */\n      dup3\n        /* \"Carbon Token/CT.sol\":1247:1248  i */\n      dup3\n        /* \"Carbon Token/CT.sol\":1234:1249  isEnterprise[i] */\n      dup2\n      mload\n      dup2\n      lt\n      tag_203\n      jumpi\n      tag_204\n      tag_177\n      jump\t// in\n    tag_204:\n    tag_203:\n      0x20\n      mul\n      0x20\n      add\n      add\n      mload\n        /* \"Carbon Token/CT.sol\":1201:1212  addressInfo */\n      0x08\n        /* \"Carbon Token/CT.sol\":1201:1218  addressInfo[addr] */\n      0x00\n        /* \"Carbon Token/CT.sol\":1213:1217  addr */\n      dup4\n        /* \"Carbon Token/CT.sol\":1201:1218  addressInfo[addr] */\n      0xffffffffffffffffffffffffffffffffffffffff\n      and\n      0xffffffffffffffffffffffffffffffffffffffff\n      and\n      dup2\n      mstore\n      0x20\n      add\n      swap1\n      dup2\n      mstore\n      0x20\n      add\n      0x00\n      keccak256\n        /* \"Carbon Token/CT.sol\":1201:1231  addressInfo[addr].isEnterprise */\n      0x00\n      add\n      0x00\n        /* \"Carbon Token/CT.sol\":1201:1249  addressInfo[addr].isEnterprise = isEnterprise[i] */\n      0x0100\n      exp\n      dup2\n      sload\n      dup2\n      0xff\n      mul\n      not\n      and\n      swap1\n      dup4\n      iszero\n      iszero\n      mul\n      or\n      swap1\n      sstore\n      pop\n        /* \"Carbon Token/CT.sol\":1144:1261  {... */\n      pop\n        /* \"Carbon Token/CT.sol\":1139:1142  i++ */\n      dup1\n      dup1\n      tag_205\n      swap1\n      tag_150\n      jump\t// in\n    tag_205:\n      swap2\n      pop\n      pop\n        /* \"Carbon Token/CT.sol\":1097:1261  for (uint256 i = 0; i < addresses.length; i++) {... */\n      jump(tag_198)\n    tag_199:\n      pop\n        /* \"Carbon Token/CT.sol\":919:1268  function setAddressInfo(address[] memory addresses, bool[] memory isEnterprise) external {... */\n      pop\n      pop\n      jump\t// out\n        /* \"@openzeppelin/contracts/token/ERC20/ERC20.sol\":2365:2467  function symbol() public view virtual override returns (string memory) {... */\n    tag_112:\n        /* \"@openzeppelin/contracts/token/ERC20/ERC20.sol\":2421:2434  string memory */\n      0x60\n        /* \"@openzeppelin/contracts/token/ERC20/ERC20.sol\":2453:2460  _symbol */\n      0x04\n        /* \"@openzeppelin/contracts/token/ERC20/ERC20.sol\":2446:2460  return _symbol */\n      dup1\n      sload\n      tag_207\n      swap1\n      tag_138\n      jump\t// in\n    tag_207:\n      dup1\n      0x1f\n      add\n      0x20\n      dup1\n      swap2\n      div\n      mul\n      0x20\n      add\n      mload(0x40)\n      swap1\n      dup2\n      add\n      0x40\n      mstore\n      dup1\n      swap3\n      swap2\n      swap1\n      dup2\n      dup2\n      mstore\n      0x20\n      add\n      dup3\n      dup1\n      sload\n      tag_208\n      swap1\n      tag_138\n      jump\t// in\n    tag_208:\n      dup1\n      iszero\n      tag_209\n      jumpi\n      dup1\n      0x1f\n      lt\n      tag_210\n      jumpi\n      0x0100\n      dup1\n      dup4\n      sload\n      div\n      mul\n      dup4\n      mstore\n      swap2\n      0x20\n      add\n      swap2\n      jump(tag_209)\n    tag_210:\n      dup3\n      add\n      swap2\n      swap1\n      0x00\n      mstore\n      keccak256(0x00, 0x20)\n      swap1\n    tag_211:\n      dup2\n      sload\n      dup2\n      mstore\n      swap1\n      0x01\n      add\n      swap1\n      0x20\n      add\n      dup1\n      dup4\n      gt\n      tag_211\n      jumpi\n      dup3\n      swap1\n      sub\n      0x1f\n      and\n      dup3\n      add\n      swap2\n    tag_209:\n      pop\n      pop\n      pop\n      pop\n      pop\n      swap1\n      pop\n        /* \"@openzeppelin/contracts/token/ERC20/ERC20.sol\":2365:2467  function symbol() public view virtual override returns (string memory) {... */\n      swap1\n      jump\t// out\n        /* \"@openzeppelin/contracts/token/ERC20/ERC20.sol\":6592:7019  function decreaseAllowance(address spender, uint256 subtractedValue) public virtual returns (bool) {... */\n    tag_117:\n        /* \"@openzeppelin/contracts/token/ERC20/ERC20.sol\":6685:6689  bool */\n      0x00\n        /* \"@openzeppelin/contracts/token/ERC20/ERC20.sol\":6701:6714  address owner */\n      dup1\n        /* \"@openzeppelin/contracts/token/ERC20/ERC20.sol\":6717:6729  _msgSender() */\n      tag_213\n        /* \"@openzeppelin/contracts/token/ERC20/ERC20.sol\":6717:6727  _msgSender */\n      tag_145\n        /* \"@openzeppelin/contracts/token/ERC20/ERC20.sol\":6717:6729  _msgSender() */\n      jump\t// in\n    tag_213:\n        /* \"@openzeppelin/contracts/token/ERC20/ERC20.sol\":6701:6729  address owner = _msgSender() */\n      swap1\n      pop\n        /* \"@openzeppelin/contracts/token/ERC20/ERC20.sol\":6739:6763  uint256 currentAllowance */\n      0x00\n        /* \"@openzeppelin/contracts/token/ERC20/ERC20.sol\":6766:6791  allowance(owner, spender) */\n      tag_214\n        /* \"@openzeppelin/contracts/token/ERC20/ERC20.sol\":6776:6781  owner */\n      dup3\n        /* \"@openzeppelin/contracts/token/ERC20/ERC20.sol\":6783:6790  spender */\n      dup7\n        /* \"@openzeppelin/contracts/token/ERC20/ERC20.sol\":6766:6775  allowance */\n      tag_132\n        /* \"@openzeppelin/contracts/token/ERC20/ERC20.sol\":6766:6791  allowance(owner, spender) */\n      jump\t// in\n    tag_214:\n        /* \"@openzeppelin/contracts/token/ERC20/ERC20.sol\":6739:6791  uint256 currentAllowance = allowance(owner, spender) */\n      swap1\n      pop\n        /* \"@openzeppelin/contracts/token/ERC20/ERC20.sol\":6829:6844  subtractedValue */\n      dup4\n        /* \"@openzeppelin/contracts/token/ERC20/ERC20.sol\":6809:6825  currentAllowance */\n      dup2\n        /* \"@openzeppelin/contracts/token/ERC20/ERC20.sol\":6809:6844  currentAllowance >= subtractedValue */\n      lt\n      iszero\n        /* \"@openzeppelin/contracts/token/ERC20/ERC20.sol\":6801:6886  require(currentAllowance >= subtractedValue, \"ERC20: decreased allowance below zero\") */\n      tag_215\n      jumpi\n      mload(0x40)\n      0x08c379a000000000000000000000000000000000000000000000000000000000\n      dup2\n      mstore\n      0x04\n      add\n      tag_216\n      swap1\n      tag_217\n      jump\t// in\n    tag_216:\n      mload(0x40)\n      dup1\n      swap2\n      sub\n      swap1\n      revert\n    tag_215:\n        /* \"@openzeppelin/contracts/token/ERC20/ERC20.sol\":6920:6980  _approve(owner, spender, currentAllowance - subtractedValue) */\n      tag_218\n        /* \"@openzeppelin/contracts/token/ERC20/ERC20.sol\":6929:6934  owner */\n      dup3\n        /* \"@openzeppelin/contracts/token/ERC20/ERC20.sol\":6936:6943  spender */\n      dup7\n        /* \"@openzeppelin/contracts/token/ERC20/ERC20.sol\":6964:6979  subtractedValue */\n      dup7\n        /* \"@openzeppelin/contracts/token/ERC20/ERC20.sol\":6945:6961  currentAllowance */\n      dup5\n        /* \"@openzeppelin/contracts/token/ERC20/ERC20.sol\":6945:6979  currentAllowance - subtractedValue */\n      sub\n        /* \"@openzeppelin/contracts/token/ERC20/ERC20.sol\":6920:6928  _approve */\n      tag_147\n        /* \"@openzeppelin/contracts/token/ERC20/ERC20.sol\":6920:6980  _approve(owner, spender, currentAllowance - subtractedValue) */\n      jump\t// in\n    tag_218:\n        /* \"@openzeppelin/contracts/token/ERC20/ERC20.sol\":7008:7012  true */\n      0x01\n        /* \"@openzeppelin/contracts/token/ERC20/ERC20.sol\":7001:7012  return true */\n      swap3\n      pop\n      pop\n      pop\n        /* \"@openzeppelin/contracts/token/ERC20/ERC20.sol\":6592:7019  function decreaseAllowance(address spender, uint256 subtractedValue) public virtual returns (bool) {... */\n      swap3\n      swap2\n      pop\n      pop\n      jump\t// out\n        /* \"@openzeppelin/contracts/token/ERC20/ERC20.sol\":3727:3916  function transfer(address to, uint256 amount) public virtual override returns (bool) {... */\n    tag_122:\n        /* \"@openzeppelin/contracts/token/ERC20/ERC20.sol\":3806:3810  bool */\n      0x00\n        /* \"@openzeppelin/contracts/token/ERC20/ERC20.sol\":3822:3835  address owner */\n      dup1\n        /* \"@openzeppelin/contracts/token/ERC20/ERC20.sol\":3838:3850  _msgSender() */\n      tag_220\n        /* \"@openzeppelin/contracts/token/ERC20/ERC20.sol\":3838:3848  _msgSender */\n      tag_145\n        /* \"@openzeppelin/contracts/token/ERC20/ERC20.sol\":3838:3850  _msgSender() */\n      jump\t// in\n    tag_220:\n        /* \"@openzeppelin/contracts/token/ERC20/ERC20.sol\":3822:3850  address owner = _msgSender() */\n      swap1\n      pop\n        /* \"@openzeppelin/contracts/token/ERC20/ERC20.sol\":3860:3888  _transfer(owner, to, amount) */\n      tag_221\n        /* \"@openzeppelin/contracts/token/ERC20/ERC20.sol\":3870:3875  owner */\n      dup2\n        /* \"@openzeppelin/contracts/token/ERC20/ERC20.sol\":3877:3879  to */\n      dup6\n        /* \"@openzeppelin/contracts/token/ERC20/ERC20.sol\":3881:3887  amount */\n      dup6\n        /* \"@openzeppelin/contracts/token/ERC20/ERC20.sol\":3860:3869  _transfer */\n      tag_157\n        /* \"@openzeppelin/contracts/token/ERC20/ERC20.sol\":3860:3888  _transfer(owner, to, amount) */\n      jump\t// in\n    tag_221:\n        /* \"@openzeppelin/contracts/token/ERC20/ERC20.sol\":3905:3909  true */\n      0x01\n        /* \"@openzeppelin/contracts/token/ERC20/ERC20.sol\":3898:3909  return true */\n      swap2\n      pop\n      pop\n        /* \"@openzeppelin/contracts/token/ERC20/ERC20.sol\":3727:3916  function transfer(address to, uint256 amount) public virtual override returns (bool) {... */\n      swap3\n      swap2\n      pop\n      pop\n      jump\t// out\n        /* \"Carbon Token/CT.sol\":2599:3022  function settleAccounts(address user, uint256 amount) public {... */\n    tag_127:\n        /* \"Carbon Token/CT.sol\":2701:2705  this */\n      address\n        /* \"Carbon Token/CT.sol\":2679:2706  msg.sender == address(this) */\n      0xffffffffffffffffffffffffffffffffffffffff\n      and\n        /* \"Carbon Token/CT.sol\":2679:2689  msg.sender */\n      caller\n        /* \"Carbon Token/CT.sol\":2679:2706  msg.sender == address(this) */\n      0xffffffffffffffffffffffffffffffffffffffff\n      and\n      eq\n        /* \"Carbon Token/CT.sol\":2671:2753  require(msg.sender == address(this), \"Only contract owner can call this function\") */\n      tag_223\n      jumpi\n      mload(0x40)\n      0x08c379a000000000000000000000000000000000000000000000000000000000\n      dup2\n      mstore\n      0x04\n      add\n      tag_224\n      swap1\n      tag_225\n      jump\t// in\n    tag_224:\n      mload(0x40)\n      dup1\n      swap2\n      sub\n      swap1\n      revert\n    tag_223:\n        /* \"Carbon Token/CT.sol\":2789:2795  amount */\n      dup1\n        /* \"Carbon Token/CT.sol\":2770:2785  balanceOf(user) */\n      tag_226\n        /* \"Carbon Token/CT.sol\":2780:2784  user */\n      dup4\n        /* \"Carbon Token/CT.sol\":2770:2779  balanceOf */\n      tag_103\n        /* \"Carbon Token/CT.sol\":2770:2785  balanceOf(user) */\n      jump\t// in\n    tag_226:\n        /* \"Carbon Token/CT.sol\":2770:2795  balanceOf(user) >= amount */\n      lt\n        /* \"Carbon Token/CT.sol\":2766:3015  if (balanceOf(user) >= amount) {                //如果余额足够... */\n      tag_227\n      jumpi\n        /* \"Carbon Token/CT.sol\":2848:2876  _transfer(user,admin,amount) */\n      tag_228\n        /* \"Carbon Token/CT.sol\":2858:2862  user */\n      dup3\n        /* \"Carbon Token/CT.sol\":2863:2868  admin */\n      0x0a\n      0x00\n      swap1\n      sload\n      swap1\n      0x0100\n      exp\n      swap1\n      div\n      0xffffffffffffffffffffffffffffffffffffffff\n      and\n        /* \"Carbon Token/CT.sol\":2869:2875  amount */\n      dup4\n        /* \"Carbon Token/CT.sol\":2848:2857  _transfer */\n      tag_157\n        /* \"Carbon Token/CT.sol\":2848:2876  _transfer(user,admin,amount) */\n      jump\t// in\n    tag_228:\n        /* \"Carbon Token/CT.sol\":2766:3015  if (balanceOf(user) >= amount) {                //如果余额足够... */\n      jump(tag_229)\n    tag_227:\n        /* \"Carbon Token/CT.sol\":2909:2946  _transfer(user,admin,balanceOf(user)) */\n      tag_230\n        /* \"Carbon Token/CT.sol\":2919:2923  user */\n      dup3\n        /* \"Carbon Token/CT.sol\":2924:2929  admin */\n      0x0a\n      0x00\n      swap1\n      sload\n      swap1\n      0x0100\n      exp\n      swap1\n      div\n      0xffffffffffffffffffffffffffffffffffffffff\n      and\n        /* \"Carbon Token/CT.sol\":2930:2945  balanceOf(user) */\n      tag_231\n        /* \"Carbon Token/CT.sol\":2940:2944  user */\n      dup6\n        /* \"Carbon Token/CT.sol\":2930:2939  balanceOf */\n      tag_103\n        /* \"Carbon Token/CT.sol\":2930:2945  balanceOf(user) */\n      jump\t// in\n    tag_231:\n        /* \"Carbon Token/CT.sol\":2909:2918  _transfer */\n      tag_157\n        /* \"Carbon Token/CT.sol\":2909:2946  _transfer(user,admin,balanceOf(user)) */\n      jump\t// in\n    tag_230:\n        /* \"Carbon Token/CT.sol\":2985:3000  balanceOf(user) */\n      tag_232\n        /* \"Carbon Token/CT.sol\":2995:2999  user */\n      dup3\n        /* \"Carbon Token/CT.sol\":2985:2994  balanceOf */\n      tag_103\n        /* \"Carbon Token/CT.sol\":2985:3000  balanceOf(user) */\n      jump\t// in\n    tag_232:\n        /* \"Carbon Token/CT.sol\":2976:2982  amount */\n      dup2\n        /* \"Carbon Token/CT.sol\":2976:3000  amount - balanceOf(user) */\n      tag_233\n      swap2\n      swap1\n      tag_234\n      jump\t// in\n    tag_233:\n        /* \"Carbon Token/CT.sol\":2961:2966  debts */\n      0x07\n        /* \"Carbon Token/CT.sol\":2961:2972  debts[user] */\n      0x00\n        /* \"Carbon Token/CT.sol\":2967:2971  user */\n      dup5\n        /* \"Carbon Token/CT.sol\":2961:2972  debts[user] */\n      0xffffffffffffffffffffffffffffffffffffffff\n      and\n      0xffffffffffffffffffffffffffffffffffffffff\n      and\n      dup2\n      mstore\n      0x20\n      add\n      swap1\n      dup2\n      mstore\n      0x20\n      add\n      0x00\n      keccak256\n      0x00\n        /* \"Carbon Token/CT.sol\":2961:3000  debts[user] += amount - balanceOf(user) */\n      dup3\n      dup3\n      sload\n      tag_235\n      swap2\n      swap1\n      tag_167\n      jump\t// in\n    tag_235:\n      swap3\n      pop\n      pop\n      dup2\n      swap1\n      sstore\n      pop\n        /* \"Carbon Token/CT.sol\":2766:3015  if (balanceOf(user) >= amount) {                //如果余额足够... */\n    tag_229:\n        /* \"Carbon Token/CT.sol\":2599:3022  function settleAccounts(address user, uint256 amount) public {... */\n      pop\n      pop\n      jump\t// out\n        /* \"@openzeppelin/contracts/token/ERC20/ERC20.sol\":3974:4123  function allowance(address owner, address spender) public view virtual override returns (uint256) {... */\n    tag_132:\n        /* \"@openzeppelin/contracts/token/ERC20/ERC20.sol\":4063:4070  uint256 */\n      0x00\n        /* \"@openzeppelin/contracts/token/ERC20/ERC20.sol\":4089:4100  _allowances */\n      0x01\n        /* \"@openzeppelin/contracts/token/ERC20/ERC20.sol\":4089:4107  _allowances[owner] */\n      0x00\n        /* \"@openzeppelin/contracts/token/ERC20/ERC20.sol\":4101:4106  owner */\n      dup5\n        /* \"@openzeppelin/contracts/token/ERC20/ERC20.sol\":4089:4107  _allowances[owner] */\n      0xffffffffffffffffffffffffffffffffffffffff\n      and\n      0xffffffffffffffffffffffffffffffffffffffff\n      and\n      dup2\n      mstore\n      0x20\n      add\n      swap1\n      dup2\n      mstore\n      0x20\n      add\n      0x00\n      keccak256\n        /* \"@openzeppelin/contracts/token/ERC20/ERC20.sol\":4089:4116  _allowances[owner][spender] */\n      0x00\n        /* \"@openzeppelin/contracts/token/ERC20/ERC20.sol\":4108:4115  spender */\n      dup4\n        /* \"@openzeppelin/contracts/token/ERC20/ERC20.sol\":4089:4116  _allowances[owner][spender] */\n      0xffffffffffffffffffffffffffffffffffffffff\n      and\n      0xffffffffffffffffffffffffffffffffffffffff\n      and\n      dup2\n      mstore\n      0x20\n      add\n      swap1\n      dup2\n      mstore\n      0x20\n      add\n      0x00\n      keccak256\n      sload\n        /* \"@openzeppelin/contracts/token/ERC20/ERC20.sol\":4082:4116  return _allowances[owner][spender] */\n      swap1\n      pop\n        /* \"@openzeppelin/contracts/token/ERC20/ERC20.sol\":3974:4123  function allowance(address owner, address spender) public view virtual override returns (uint256) {... */\n      swap3\n      swap2\n      pop\n      pop\n      jump\t// out\n        /* \"Carbon Token/CT.sol\":3318:3359  function depositETH() external payable {} */\n    tag_135:\n      jump\t// out\n        /* \"@openzeppelin/contracts/utils/Context.sol\":640:736  function _msgSender() internal view virtual returns (address) {... */\n    tag_145:\n        /* \"@openzeppelin/contracts/utils/Context.sol\":693:700  address */\n      0x00\n        /* \"@openzeppelin/contracts/utils/Context.sol\":719:729  msg.sender */\n      caller\n        /* \"@openzeppelin/contracts/utils/Context.sol\":712:729  return msg.sender */\n      swap1\n      pop\n        /* \"@openzeppelin/contracts/utils/Context.sol\":640:736  function _msgSender() internal view virtual returns (address) {... */\n      swap1\n      jump\t// out\n        /* \"@openzeppelin/contracts/token/ERC20/ERC20.sol\":10504:10874  function _approve(... */\n    tag_147:\n        /* \"@openzeppelin/contracts/token/ERC20/ERC20.sol\":10652:10653  0 */\n      0x00\n        /* \"@openzeppelin/contracts/token/ERC20/ERC20.sol\":10635:10654  owner != address(0) */\n      0xffffffffffffffffffffffffffffffffffffffff\n      and\n        /* \"@openzeppelin/contracts/token/ERC20/ERC20.sol\":10635:10640  owner */\n      dup4\n        /* \"@openzeppelin/contracts/token/ERC20/ERC20.sol\":10635:10654  owner != address(0) */\n      0xffffffffffffffffffffffffffffffffffffffff\n      and\n      sub\n        /* \"@openzeppelin/contracts/token/ERC20/ERC20.sol\":10627:10695  require(owner != address(0), \"ERC20: approve from the zero address\") */\n      tag_240\n      jumpi\n      mload(0x40)\n      0x08c379a000000000000000000000000000000000000000000000000000000000\n      dup2\n      mstore\n      0x04\n      add\n      tag_241\n      swap1\n      tag_242\n      jump\t// in\n    tag_241:\n      mload(0x40)\n      dup1\n      swap2\n      sub\n      swap1\n      revert\n    tag_240:\n        /* \"@openzeppelin/contracts/token/ERC20/ERC20.sol\":10732:10733  0 */\n      0x00\n        /* \"@openzeppelin/contracts/token/ERC20/ERC20.sol\":10713:10734  spender != address(0) */\n      0xffffffffffffffffffffffffffffffffffffffff\n      and\n        /* \"@openzeppelin/contracts/token/ERC20/ERC20.sol\":10713:10720  spender */\n      dup3\n        /* \"@openzeppelin/contracts/token/ERC20/ERC20.sol\":10713:10734  spender != address(0) */\n      0xffffffffffffffffffffffffffffffffffffffff\n      and\n      sub\n        /* \"@openzeppelin/contracts/token/ERC20/ERC20.sol\":10705:10773  require(spender != address(0), \"ERC20: approve to the zero address\") */\n      tag_243\n      jumpi\n      mload(0x40)\n      0x08c379a000000000000000000000000000000000000000000000000000000000\n      dup2\n      mstore\n      0x04\n      add\n      tag_244\n      swap1\n      tag_245\n      jump\t// in\n    tag_244:\n      mload(0x40)\n      dup1\n      swap2\n      sub\n      swap1\n      revert\n    tag_243:\n        /* \"@openzeppelin/contracts/token/ERC20/ERC20.sol\":10814:10820  amount */\n      dup1\n        /* \"@openzeppelin/contracts/token/ERC20/ERC20.sol\":10784:10795  _allowances */\n      0x01\n        /* \"@openzeppelin/contracts/token/ERC20/ERC20.sol\":10784:10802  _allowances[owner] */\n      0x00\n        /* \"@openzeppelin/contracts/token/ERC20/ERC20.sol\":10796:10801  owner */\n      dup6\n        /* \"@openzeppelin/contracts/token/ERC20/ERC20.sol\":10784:10802  _allowances[owner] */\n      0xffffffffffffffffffffffffffffffffffffffff\n      and\n      0xffffffffffffffffffffffffffffffffffffffff\n      and\n      dup2\n      mstore\n      0x20\n      add\n      swap1\n      dup2\n      mstore\n      0x20\n      add\n      0x00\n      keccak256\n        /* \"@openzeppelin/contracts/token/ERC20/ERC20.sol\":10784:10811  _allowances[owner][spender] */\n      0x00\n        /* \"@openzeppelin/contracts/token/ERC20/ERC20.sol\":10803:10810  spender */\n      dup5\n        /* \"@openzeppelin/contracts/token/ERC20/ERC20.sol\":10784:10811  _allowances[owner][spender] */\n      0xffffffffffffffffffffffffffffffffffffffff\n      and\n      0xffffffffffffffffffffffffffffffffffffffff\n      and\n      dup2\n      mstore\n      0x20\n      add\n      swap1\n      dup2\n      mstore\n      0x20\n      add\n      0x00\n      keccak256\n        /* \"@openzeppelin/contracts/token/ERC20/ERC20.sol\":10784:10820  _allowances[owner][spender] = amount */\n      dup2\n      swap1\n      sstore\n      pop\n        /* \"@openzeppelin/contracts/token/ERC20/ERC20.sol\":10851:10858  spender */\n      dup2\n        /* \"@openzeppelin/contracts/token/ERC20/ERC20.sol\":10835:10867  Approval(owner, spender, amount) */\n      0xffffffffffffffffffffffffffffffffffffffff\n      and\n        /* \"@openzeppelin/contracts/token/ERC20/ERC20.sol\":10844:10849  owner */\n      dup4\n        /* \"@openzeppelin/contracts/token/ERC20/ERC20.sol\":10835:10867  Approval(owner, spender, amount) */\n      0xffffffffffffffffffffffffffffffffffffffff\n      and\n      0x8c5be1e5ebec7d5bd14f71427d1e84f3dd0314c0f7b2291e5b200ac8c7c3b925\n        /* \"@openzeppelin/contracts/token/ERC20/ERC20.sol\":10860:10866  amount */\n      dup4\n        /* \"@openzeppelin/contracts/token/ERC20/ERC20.sol\":10835:10867  Approval(owner, spender, amount) */\n      mload(0x40)\n      tag_246\n      swap2\n      swap1\n      tag_49\n      jump\t// in\n    tag_246:\n      mload(0x40)\n      dup1\n      swap2\n      sub\n      swap1\n      log3\n        /* \"@openzeppelin/contracts/token/ERC20/ERC20.sol\":10504:10874  function _approve(... */\n      pop\n      pop\n      pop\n      jump\t// out\n        /* \"@openzeppelin/contracts/token/ERC20/ERC20.sol\":11155:11596  function _spendAllowance(... */\n    tag_155:\n        /* \"@openzeppelin/contracts/token/ERC20/ERC20.sol\":11285:11309  uint256 currentAllowance */\n      0x00\n        /* \"@openzeppelin/contracts/token/ERC20/ERC20.sol\":11312:11337  allowance(owner, spender) */\n      tag_248\n        /* \"@openzeppelin/contracts/token/ERC20/ERC20.sol\":11322:11327  owner */\n      dup5\n        /* \"@openzeppelin/contracts/token/ERC20/ERC20.sol\":11329:11336  spender */\n      dup5\n        /* \"@openzeppelin/contracts/token/ERC20/ERC20.sol\":11312:11321  allowance */\n      tag_132\n        /* \"@openzeppelin/contracts/token/ERC20/ERC20.sol\":11312:11337  allowance(owner, spender) */\n      jump\t// in\n    tag_248:\n        /* \"@openzeppelin/contracts/token/ERC20/ERC20.sol\":11285:11337  uint256 currentAllowance = allowance(owner, spender) */\n      swap1\n      pop\n        /* \"@openzeppelin/contracts/token/ERC20/ERC20.sol\":11371:11388  type(uint256).max */\n      0xffffffffffffffffffffffffffffffffffffffffffffffffffffffffffffffff\n        /* \"@openzeppelin/contracts/token/ERC20/ERC20.sol\":11351:11367  currentAllowance */\n      dup2\n        /* \"@openzeppelin/contracts/token/ERC20/ERC20.sol\":11351:11388  currentAllowance != type(uint256).max */\n      eq\n        /* \"@openzeppelin/contracts/token/ERC20/ERC20.sol\":11347:11590  if (currentAllowance != type(uint256).max) {... */\n      tag_249\n      jumpi\n        /* \"@openzeppelin/contracts/token/ERC20/ERC20.sol\":11432:11438  amount */\n      dup2\n        /* \"@openzeppelin/contracts/token/ERC20/ERC20.sol\":11412:11428  currentAllowance */\n      dup2\n        /* \"@openzeppelin/contracts/token/ERC20/ERC20.sol\":11412:11438  currentAllowance >= amount */\n      lt\n      iszero\n        /* \"@openzeppelin/contracts/token/ERC20/ERC20.sol\":11404:11472  require(currentAllowance >= amount, \"ERC20: insufficient allowance\") */\n      tag_250\n      jumpi\n      mload(0x40)\n      0x08c379a000000000000000000000000000000000000000000000000000000000\n      dup2\n      mstore\n      0x04\n      add\n      tag_251\n      swap1\n      tag_252\n      jump\t// in\n    tag_251:\n      mload(0x40)\n      dup1\n      swap2\n      sub\n      swap1\n      revert\n    tag_250:\n        /* \"@openzeppelin/contracts/token/ERC20/ERC20.sol\":11514:11565  _approve(owner, spender, currentAllowance - amount) */\n      tag_253\n        /* \"@openzeppelin/contracts/token/ERC20/ERC20.sol\":11523:11528  owner */\n      dup5\n        /* \"@openzeppelin/contracts/token/ERC20/ERC20.sol\":11530:11537  spender */\n      dup5\n        /* \"@openzeppelin/contracts/token/ERC20/ERC20.sol\":11558:11564  amount */\n      dup5\n        /* \"@openzeppelin/contracts/token/ERC20/ERC20.sol\":11539:11555  currentAllowance */\n      dup5\n        /* \"@openzeppelin/contracts/token/ERC20/ERC20.sol\":11539:11564  currentAllowance - amount */\n      sub\n        /* \"@openzeppelin/contracts/token/ERC20/ERC20.sol\":11514:11522  _approve */\n      tag_147\n        /* \"@openzeppelin/contracts/token/ERC20/ERC20.sol\":11514:11565  _approve(owner, spender, currentAllowance - amount) */\n      jump\t// in\n    tag_253:\n        /* \"@openzeppelin/contracts/token/ERC20/ERC20.sol\":11347:11590  if (currentAllowance != type(uint256).max) {... */\n    tag_249:\n        /* \"@openzeppelin/contracts/token/ERC20/ERC20.sol\":11275:11596  {... */\n      pop\n        /* \"@openzeppelin/contracts/token/ERC20/ERC20.sol\":11155:11596  function _spendAllowance(... */\n      pop\n      pop\n      pop\n      jump\t// out\n        /* \"@openzeppelin/contracts/token/ERC20/ERC20.sol\":7473:8291  function _transfer(... */\n    tag_157:\n        /* \"@openzeppelin/contracts/token/ERC20/ERC20.sol\":7615:7616  0 */\n      0x00\n        /* \"@openzeppelin/contracts/token/ERC20/ERC20.sol\":7599:7617  from != address(0) */\n      0xffffffffffffffffffffffffffffffffffffffff\n      and\n        /* \"@openzeppelin/contracts/token/ERC20/ERC20.sol\":7599:7603  from */\n      dup4\n        /* \"@openzeppelin/contracts/token/ERC20/ERC20.sol\":7599:7617  from != address(0) */\n      0xffffffffffffffffffffffffffffffffffffffff\n      and\n      sub\n        /* \"@openzeppelin/contracts/token/ERC20/ERC20.sol\":7591:7659  require(from != address(0), \"ERC20: transfer from the zero address\") */\n      tag_255\n      jumpi\n      mload(0x40)\n      0x08c379a000000000000000000000000000000000000000000000000000000000\n      dup2\n      mstore\n      0x04\n      add\n      tag_256\n      swap1\n      tag_257\n      jump\t// in\n    tag_256:\n      mload(0x40)\n      dup1\n      swap2\n      sub\n      swap1\n      revert\n    tag_255:\n        /* \"@openzeppelin/contracts/token/ERC20/ERC20.sol\":7691:7692  0 */\n      0x00\n        /* \"@openzeppelin/contracts/token/ERC20/ERC20.sol\":7677:7693  to != address(0) */\n      0xffffffffffffffffffffffffffffffffffffffff\n      and\n        /* \"@openzeppelin/contracts/token/ERC20/ERC20.sol\":7677:7679  to */\n      dup3\n        /* \"@openzeppelin/contracts/token/ERC20/ERC20.sol\":7677:7693  to != address(0) */\n      0xffffffffffffffffffffffffffffffffffffffff\n      and\n      sub\n        /* \"@openzeppelin/contracts/token/ERC20/ERC20.sol\":7669:7733  require(to != address(0), \"ERC20: transfer to the zero address\") */\n      tag_258\n      jumpi\n      mload(0x40)\n      0x08c379a000000000000000000000000000000000000000000000000000000000\n      dup2\n      mstore\n      0x04\n      add\n      tag_259\n      swap1\n      tag_260\n      jump\t// in\n    tag_259:\n      mload(0x40)\n      dup1\n      swap2\n      sub\n      swap1\n      revert\n    tag_258:\n        /* \"@openzeppelin/contracts/token/ERC20/ERC20.sol\":7744:7782  _beforeTokenTransfer(from, to, amount) */\n      tag_261\n        /* \"@openzeppelin/contracts/token/ERC20/ERC20.sol\":7765:7769  from */\n      dup4\n        /* \"@openzeppelin/contracts/token/ERC20/ERC20.sol\":7771:7773  to */\n      dup4\n        /* \"@openzeppelin/contracts/token/ERC20/ERC20.sol\":7775:7781  amount */\n      dup4\n        /* \"@openzeppelin/contracts/token/ERC20/ERC20.sol\":7744:7764  _beforeTokenTransfer */\n      tag_262\n        /* \"@openzeppelin/contracts/token/ERC20/ERC20.sol\":7744:7782  _beforeTokenTransfer(from, to, amount) */\n      jump\t// in\n    tag_261:\n        /* \"@openzeppelin/contracts/token/ERC20/ERC20.sol\":7793:7812  uint256 fromBalance */\n      0x00\n        /* \"@openzeppelin/contracts/token/ERC20/ERC20.sol\":7815:7824  _balances */\n      dup1\n        /* \"@openzeppelin/contracts/token/ERC20/ERC20.sol\":7815:7830  _balances[from] */\n      0x00\n        /* \"@openzeppelin/contracts/token/ERC20/ERC20.sol\":7825:7829  from */\n      dup6\n        /* \"@openzeppelin/contracts/token/ERC20/ERC20.sol\":7815:7830  _balances[from] */\n      0xffffffffffffffffffffffffffffffffffffffff\n      and\n      0xffffffffffffffffffffffffffffffffffffffff\n      and\n      dup2\n      mstore\n      0x20\n      add\n      swap1\n      dup2\n      mstore\n      0x20\n      add\n      0x00\n      keccak256\n      sload\n        /* \"@openzeppelin/contracts/token/ERC20/ERC20.sol\":7793:7830  uint256 fromBalance = _balances[from] */\n      swap1\n      pop\n        /* \"@openzeppelin/contracts/token/ERC20/ERC20.sol\":7863:7869  amount */\n      dup2\n        /* \"@openzeppelin/contracts/token/ERC20/ERC20.sol\":7848:7859  fromBalance */\n      dup2\n        /* \"@openzeppelin/contracts/token/ERC20/ERC20.sol\":7848:7869  fromBalance >= amount */\n      lt\n      iszero\n        /* \"@openzeppelin/contracts/token/ERC20/ERC20.sol\":7840:7912  require(fromBalance >= amount, \"ERC20: transfer amount exceeds balance\") */\n      tag_263\n      jumpi\n      mload(0x40)\n      0x08c379a000000000000000000000000000000000000000000000000000000000\n      dup2\n      mstore\n      0x04\n      add\n      tag_264\n      swap1\n      tag_265\n      jump\t// in\n    tag_264:\n      mload(0x40)\n      dup1\n      swap2\n      sub\n      swap1\n      revert\n    tag_263:\n        /* \"@openzeppelin/contracts/token/ERC20/ERC20.sol\":7978:7984  amount */\n      dup2\n        /* \"@openzeppelin/contracts/token/ERC20/ERC20.sol\":7964:7975  fromBalance */\n      dup2\n        /* \"@openzeppelin/contracts/token/ERC20/ERC20.sol\":7964:7984  fromBalance - amount */\n      sub\n        /* \"@openzeppelin/contracts/token/ERC20/ERC20.sol\":7946:7955  _balances */\n      0x00\n        /* \"@openzeppelin/contracts/token/ERC20/ERC20.sol\":7946:7961  _balances[from] */\n      dup1\n        /* \"@openzeppelin/contracts/token/ERC20/ERC20.sol\":7956:7960  from */\n      dup7\n        /* \"@openzeppelin/contracts/token/ERC20/ERC20.sol\":7946:7961  _balances[from] */\n      0xffffffffffffffffffffffffffffffffffffffff\n      and\n      0xffffffffffffffffffffffffffffffffffffffff\n      and\n      dup2\n      mstore\n      0x20\n      add\n      swap1\n      dup2\n      mstore\n      0x20\n      add\n      0x00\n      keccak256\n        /* \"@openzeppelin/contracts/token/ERC20/ERC20.sol\":7946:7984  _balances[from] = fromBalance - amount */\n      dup2\n      swap1\n      sstore\n      pop\n        /* \"@openzeppelin/contracts/token/ERC20/ERC20.sol\":8178:8184  amount */\n      dup2\n        /* \"@openzeppelin/contracts/token/ERC20/ERC20.sol\":8161:8170  _balances */\n      0x00\n        /* \"@openzeppelin/contracts/token/ERC20/ERC20.sol\":8161:8174  _balances[to] */\n      dup1\n        /* \"@openzeppelin/contracts/token/ERC20/ERC20.sol\":8171:8173  to */\n      dup6\n        /* \"@openzeppelin/contracts/token/ERC20/ERC20.sol\":8161:8174  _balances[to] */\n      0xffffffffffffffffffffffffffffffffffffffff\n      and\n      0xffffffffffffffffffffffffffffffffffffffff\n      and\n      dup2\n      mstore\n      0x20\n      add\n      swap1\n      dup2\n      mstore\n      0x20\n      add\n      0x00\n      keccak256\n      0x00\n        /* \"@openzeppelin/contracts/token/ERC20/ERC20.sol\":8161:8184  _balances[to] += amount */\n      dup3\n      dup3\n      sload\n      add\n      swap3\n      pop\n      pop\n      dup2\n      swap1\n      sstore\n      pop\n        /* \"@openzeppelin/contracts/token/ERC20/ERC20.sol\":8225:8227  to */\n      dup3\n        /* \"@openzeppelin/contracts/token/ERC20/ERC20.sol\":8210:8236  Transfer(from, to, amount) */\n      0xffffffffffffffffffffffffffffffffffffffff\n      and\n        /* \"@openzeppelin/contracts/token/ERC20/ERC20.sol\":8219:8223  from */\n      dup5\n        /* \"@openzeppelin/contracts/token/ERC20/ERC20.sol\":8210:8236  Transfer(from, to, amount) */\n      0xffffffffffffffffffffffffffffffffffffffff\n      and\n      0xddf252ad1be2c89b69c2b068fc378daa952ba7f163c4a11628f55a4df523b3ef\n        /* \"@openzeppelin/contracts/token/ERC20/ERC20.sol\":8229:8235  amount */\n      dup5\n        /* \"@openzeppelin/contracts/token/ERC20/ERC20.sol\":8210:8236  Transfer(from, to, amount) */\n      mload(0x40)\n      tag_266\n      swap2\n      swap1\n      tag_49\n      jump\t// in\n    tag_266:\n      mload(0x40)\n      dup1\n      swap2\n      sub\n      swap1\n      log3\n        /* \"@openzeppelin/contracts/token/ERC20/ERC20.sol\":8247:8284  _afterTokenTransfer(from, to, amount) */\n      tag_267\n        /* \"@openzeppelin/contracts/token/ERC20/ERC20.sol\":8267:8271  from */\n      dup5\n        /* \"@openzeppelin/contracts/token/ERC20/ERC20.sol\":8273:8275  to */\n      dup5\n        /* \"@openzeppelin/contracts/token/ERC20/ERC20.sol\":8277:8283  amount */\n      dup5\n        /* \"@openzeppelin/contracts/token/ERC20/ERC20.sol\":8247:8266  _afterTokenTransfer */\n      tag_268\n        /* \"@openzeppelin/contracts/token/ERC20/ERC20.sol\":8247:8284  _afterTokenTransfer(from, to, amount) */\n      jump\t// in\n    tag_267:\n        /* \"@openzeppelin/contracts/token/ERC20/ERC20.sol\":7581:8291  {... */\n      pop\n        /* \"@openzeppelin/contracts/token/ERC20/ERC20.sol\":7473:8291  function _transfer(... */\n      pop\n      pop\n      pop\n      jump\t// out\n        /* \"@openzeppelin/contracts/token/ERC20/ERC20.sol\":12180:12301  function _beforeTokenTransfer(... */\n    tag_262:\n      pop\n      pop\n      pop\n      jump\t// out\n        /* \"@openzeppelin/contracts/token/ERC20/ERC20.sol\":12889:13009  function _afterTokenTransfer(... */\n    tag_268:\n      pop\n      pop\n      pop\n      jump\t// out\n        /* \"#utility.yul\":7:106   */\n    tag_271:\n        /* \"#utility.yul\":59:65   */\n      0x00\n        /* \"#utility.yul\":93:98   */\n      dup2\n        /* \"#utility.yul\":87:99   */\n      mload\n        /* \"#utility.yul\":77:99   */\n      swap1\n      pop\n        /* \"#utility.yul\":7:106   */\n      swap2\n      swap1\n      pop\n      jump\t// out\n        /* \"#utility.yul\":112:281   */\n    tag_272:\n        /* \"#utility.yul\":196:207   */\n      0x00\n        /* \"#utility.yul\":230:236   */\n      dup3\n        /* \"#utility.yul\":225:228   */\n      dup3\n        /* \"#utility.yul\":218:237   */\n      mstore\n        /* \"#utility.yul\":270:274   */\n      0x20\n        /* \"#utility.yul\":265:268   */\n      dup3\n        /* \"#utility.yul\":261:275   */\n      add\n        /* \"#utility.yul\":246:275   */\n      swap1\n      pop\n        /* \"#utility.yul\":112:281   */\n      swap3\n      swap2\n      pop\n      pop\n      jump\t// out\n        /* \"#utility.yul\":287:533   */\n    tag_273:\n        /* \"#utility.yul\":368:369   */\n      0x00\n        /* \"#utility.yul\":378:491   */\n    tag_340:\n        /* \"#utility.yul\":392:398   */\n      dup4\n        /* \"#utility.yul\":389:390   */\n      dup2\n        /* \"#utility.yul\":386:399   */\n      lt\n        /* \"#utility.yul\":378:491   */\n      iszero\n      tag_342\n      jumpi\n        /* \"#utility.yul\":477:478   */\n      dup1\n        /* \"#utility.yul\":472:475   */\n      dup3\n        /* \"#utility.yul\":468:479   */\n      add\n        /* \"#utility.yul\":462:480   */\n      mload\n        /* \"#utility.yul\":458:459   */\n      dup2\n        /* \"#utility.yul\":453:456   */\n      dup5\n        /* \"#utility.yul\":449:460   */\n      add\n        /* \"#utility.yul\":442:481   */\n      mstore\n        /* \"#utility.yul\":414:416   */\n      0x20\n        /* \"#utility.yul\":411:412   */\n      dup2\n        /* \"#utility.yul\":407:417   */\n      add\n        /* \"#utility.yul\":402:417   */\n      swap1\n      pop\n        /* \"#utility.yul\":378:491   */\n      jump(tag_340)\n    tag_342:\n        /* \"#utility.yul\":525:526   */\n      0x00\n        /* \"#utility.yul\":516:522   */\n      dup5\n        /* \"#utility.yul\":511:514   */\n      dup5\n        /* \"#utility.yul\":507:523   */\n      add\n        /* \"#utility.yul\":500:527   */\n      mstore\n        /* \"#utility.yul\":349:533   */\n      pop\n        /* \"#utility.yul\":287:533   */\n      pop\n      pop\n      pop\n      jump\t// out\n        /* \"#utility.yul\":539:641   */\n    tag_274:\n        /* \"#utility.yul\":580:586   */\n      0x00\n        /* \"#utility.yul\":631:633   */\n      0x1f\n        /* \"#utility.yul\":627:634   */\n      not\n        /* \"#utility.yul\":622:624   */\n      0x1f\n        /* \"#utility.yul\":615:620   */\n      dup4\n        /* \"#utility.yul\":611:625   */\n      add\n        /* \"#utility.yul\":607:635   */\n      and\n        /* \"#utility.yul\":597:635   */\n      swap1\n      pop\n        /* \"#utility.yul\":539:641   */\n      swap2\n      swap1\n      pop\n      jump\t// out\n        /* \"#utility.yul\":647:1024   */\n    tag_275:\n        /* \"#utility.yul\":735:738   */\n      0x00\n        /* \"#utility.yul\":763:802   */\n      tag_345\n        /* \"#utility.yul\":796:801   */\n      dup3\n        /* \"#utility.yul\":763:802   */\n      tag_271\n      jump\t// in\n    tag_345:\n        /* \"#utility.yul\":818:889   */\n      tag_346\n        /* \"#utility.yul\":882:888   */\n      dup2\n        /* \"#utility.yul\":877:880   */\n      dup6\n        /* \"#utility.yul\":818:889   */\n      tag_272\n      jump\t// in\n    tag_346:\n        /* \"#utility.yul\":811:889   */\n      swap4\n      pop\n        /* \"#utility.yul\":898:963   */\n      tag_347\n        /* \"#utility.yul\":956:962   */\n      dup2\n        /* \"#utility.yul\":951:954   */\n      dup6\n        /* \"#utility.yul\":944:948   */\n      0x20\n        /* \"#utility.yul\":937:942   */\n      dup7\n        /* \"#utility.yul\":933:949   */\n      add\n        /* \"#utility.yul\":898:963   */\n      tag_273\n      jump\t// in\n    tag_347:\n        /* \"#utility.yul\":988:1017   */\n      tag_348\n        /* \"#utility.yul\":1010:1016   */\n      dup2\n        /* \"#utility.yul\":988:1017   */\n      tag_274\n      jump\t// in\n    tag_348:\n        /* \"#utility.yul\":983:986   */\n      dup5\n        /* \"#utility.yul\":979:1018   */\n      add\n        /* \"#utility.yul\":972:1018   */\n      swap2\n      pop\n        /* \"#utility.yul\":739:1024   */\n      pop\n        /* \"#utility.yul\":647:1024   */\n      swap3\n      swap2\n      pop\n      pop\n      jump\t// out\n        /* \"#utility.yul\":1030:1343   */\n    tag_34:\n        /* \"#utility.yul\":1143:1147   */\n      0x00\n        /* \"#utility.yul\":1181:1183   */\n      0x20\n        /* \"#utility.yul\":1170:1179   */\n      dup3\n        /* \"#utility.yul\":1166:1184   */\n      add\n        /* \"#utility.yul\":1158:1184   */\n      swap1\n      pop\n        /* \"#utility.yul\":1230:1239   */\n      dup2\n        /* \"#utility.yul\":1224:1228   */\n      dup2\n        /* \"#utility.yul\":1220:1240   */\n      sub\n        /* \"#utility.yul\":1216:1217   */\n      0x00\n        /* \"#utility.yul\":1205:1214   */\n      dup4\n        /* \"#utility.yul\":1201:1218   */\n      add\n        /* \"#utility.yul\":1194:1241   */\n      mstore\n        /* \"#utility.yul\":1258:1336   */\n      tag_350\n        /* \"#utility.yul\":1331:1335   */\n      dup2\n        /* \"#utility.yul\":1322:1328   */\n      dup5\n        /* \"#utility.yul\":1258:1336   */\n      tag_275\n      jump\t// in\n    tag_350:\n        /* \"#utility.yul\":1250:1336   */\n      swap1\n      pop\n        /* \"#utility.yul\":1030:1343   */\n      swap3\n      swap2\n      pop\n      pop\n      jump\t// out\n        /* \"#utility.yul\":1349:1424   */\n    tag_276:\n        /* \"#utility.yul\":1382:1388   */\n      0x00\n        /* \"#utility.yul\":1415:1417   */\n      0x40\n        /* \"#utility.yul\":1409:1418   */\n      mload\n        /* \"#utility.yul\":1399:1418   */\n      swap1\n      pop\n        /* \"#utility.yul\":1349:1424   */\n      swap1\n      jump\t// out\n        /* \"#utility.yul\":1430:1547   */\n    tag_277:\n        /* \"#utility.yul\":1539:1540   */\n      0x00\n        /* \"#utility.yul\":1536:1537   */\n      dup1\n        /* \"#utility.yul\":1529:1541   */\n      revert\n        /* \"#utility.yul\":1553:1670   */\n    tag_278:\n        /* \"#utility.yul\":1662:1663   */\n      0x00\n        /* \"#utility.yul\":1659:1660   */\n      dup1\n        /* \"#utility.yul\":1652:1664   */\n      revert\n        /* \"#utility.yul\":1676:1802   */\n    tag_279:\n        /* \"#utility.yul\":1713:1720   */\n      0x00\n        /* \"#utility.yul\":1753:1795   */\n      0xffffffffffffffffffffffffffffffffffffffff\n        /* \"#utility.yul\":1746:1751   */\n      dup3\n        /* \"#utility.yul\":1742:1796   */\n      and\n        /* \"#utility.yul\":1731:1796   */\n      swap1\n      pop\n        /* \"#utility.yul\":1676:1802   */\n      swap2\n      swap1\n      pop\n      jump\t// out\n        /* \"#utility.yul\":1808:1904   */\n    tag_280:\n        /* \"#utility.yul\":1845:1852   */\n      0x00\n        /* \"#utility.yul\":1874:1898   */\n      tag_356\n        /* \"#utility.yul\":1892:1897   */\n      dup3\n        /* \"#utility.yul\":1874:1898   */\n      tag_279\n      jump\t// in\n    tag_356:\n        /* \"#utility.yul\":1863:1898   */\n      swap1\n      pop\n        /* \"#utility.yul\":1808:1904   */\n      swap2\n      swap1\n      pop\n      jump\t// out\n        /* \"#utility.yul\":1910:2032   */\n    tag_281:\n        /* \"#utility.yul\":1983:2007   */\n      tag_358\n        /* \"#utility.yul\":2001:2006   */\n      dup2\n        /* \"#utility.yul\":1983:2007   */\n      tag_280\n      jump\t// in\n    tag_358:\n        /* \"#utility.yul\":1976:1981   */\n      dup2\n        /* \"#utility.yul\":1973:2008   */\n      eq\n        /* \"#utility.yul\":1963:2026   */\n      tag_359\n      jumpi\n        /* \"#utility.yul\":2022:2023   */\n      0x00\n        /* \"#utility.yul\":2019:2020   */\n      dup1\n        /* \"#utility.yul\":2012:2024   */\n      revert\n        /* \"#utility.yul\":1963:2026   */\n    tag_359:\n        /* \"#utility.yul\":1910:2032   */\n      pop\n      jump\t// out\n        /* \"#utility.yul\":2038:2177   */\n    tag_282:\n        /* \"#utility.yul\":2084:2089   */\n      0x00\n        /* \"#utility.yul\":2122:2128   */\n      dup2\n        /* \"#utility.yul\":2109:2129   */\n      calldataload\n        /* \"#utility.yul\":2100:2129   */\n      swap1\n      pop\n        /* \"#utility.yul\":2138:2171   */\n      tag_361\n        /* \"#utility.yul\":2165:2170   */\n      dup2\n        /* \"#utility.yul\":2138:2171   */\n      tag_281\n      jump\t// in\n    tag_361:\n        /* \"#utility.yul\":2038:2177   */\n      swap3\n      swap2\n      pop\n      pop\n      jump\t// out\n        /* \"#utility.yul\":2183:2260   */\n    tag_283:\n        /* \"#utility.yul\":2220:2227   */\n      0x00\n        /* \"#utility.yul\":2249:2254   */\n      dup2\n        /* \"#utility.yul\":2238:2254   */\n      swap1\n      pop\n        /* \"#utility.yul\":2183:2260   */\n      swap2\n      swap1\n      pop\n      jump\t// out\n        /* \"#utility.yul\":2266:2388   */\n    tag_284:\n        /* \"#utility.yul\":2339:2363   */\n      tag_364\n        /* \"#utility.yul\":2357:2362   */\n      dup2\n        /* \"#utility.yul\":2339:2363   */\n      tag_283\n      jump\t// in\n    tag_364:\n        /* \"#utility.yul\":2332:2337   */\n      dup2\n        /* \"#utility.yul\":2329:2364   */\n      eq\n        /* \"#utility.yul\":2319:2382   */\n      tag_365\n      jumpi\n        /* \"#utility.yul\":2378:2379   */\n      0x00\n        /* \"#utility.yul\":2375:2376   */\n      dup1\n        /* \"#utility.yul\":2368:2380   */\n      revert\n        /* \"#utility.yul\":2319:2382   */\n    tag_365:\n        /* \"#utility.yul\":2266:2388   */\n      pop\n      jump\t// out\n        /* \"#utility.yul\":2394:2533   */\n    tag_285:\n        /* \"#utility.yul\":2440:2445   */\n      0x00\n        /* \"#utility.yul\":2478:2484   */\n      dup2\n        /* \"#utility.yul\":2465:2485   */\n      calldataload\n        /* \"#utility.yul\":2456:2485   */\n      swap1\n      pop\n        /* \"#utility.yul\":2494:2527   */\n      tag_367\n        /* \"#utility.yul\":2521:2526   */\n      dup2\n        /* \"#utility.yul\":2494:2527   */\n      tag_284\n      jump\t// in\n    tag_367:\n        /* \"#utility.yul\":2394:2533   */\n      swap3\n      swap2\n      pop\n      pop\n      jump\t// out\n        /* \"#utility.yul\":2539:3013   */\n    tag_38:\n        /* \"#utility.yul\":2607:2613   */\n      0x00\n        /* \"#utility.yul\":2615:2621   */\n      dup1\n        /* \"#utility.yul\":2664:2666   */\n      0x40\n        /* \"#utility.yul\":2652:2661   */\n      dup4\n        /* \"#utility.yul\":2643:2650   */\n      dup6\n        /* \"#utility.yul\":2639:2662   */\n      sub\n        /* \"#utility.yul\":2635:2667   */\n      slt\n        /* \"#utility.yul\":2632:2751   */\n      iszero\n      tag_369\n      jumpi\n        /* \"#utility.yul\":2670:2749   */\n      tag_370\n      tag_277\n      jump\t// in\n    tag_370:\n        /* \"#utility.yul\":2632:2751   */\n    tag_369:\n        /* \"#utility.yul\":2790:2791   */\n      0x00\n        /* \"#utility.yul\":2815:2868   */\n      tag_371\n        /* \"#utility.yul\":2860:2867   */\n      dup6\n        /* \"#utility.yul\":2851:2857   */\n      dup3\n        /* \"#utility.yul\":2840:2849   */\n      dup7\n        /* \"#utility.yul\":2836:2858   */\n      add\n        /* \"#utility.yul\":2815:2868   */\n      tag_282\n      jump\t// in\n    tag_371:\n        /* \"#utility.yul\":2805:2868   */\n      swap3\n      pop\n        /* \"#utility.yul\":2761:2878   */\n      pop\n        /* \"#utility.yul\":2917:2919   */\n      0x20\n        /* \"#utility.yul\":2943:2996   */\n      tag_372\n        /* \"#utility.yul\":2988:2995   */\n      dup6\n        /* \"#utility.yul\":2979:2985   */\n      dup3\n        /* \"#utility.yul\":2968:2977   */\n      dup7\n        /* \"#utility.yul\":2964:2986   */\n      add\n        /* \"#utility.yul\":2943:2996   */\n      tag_285\n      jump\t// in\n    tag_372:\n        /* \"#utility.yul\":2933:2996   */\n      swap2\n      pop\n        /* \"#utility.yul\":2888:3006   */\n      pop\n        /* \"#utility.yul\":2539:3013   */\n      swap3\n      pop\n      swap3\n      swap1\n      pop\n      jump\t// out\n        /* \"#utility.yul\":3019:3109   */\n    tag_286:\n        /* \"#utility.yul\":3053:3060   */\n      0x00\n        /* \"#utility.yul\":3096:3101   */\n      dup2\n        /* \"#utility.yul\":3089:3102   */\n      iszero\n        /* \"#utility.yul\":3082:3103   */\n      iszero\n        /* \"#utility.yul\":3071:3103   */\n      swap1\n      pop\n        /* \"#utility.yul\":3019:3109   */\n      swap2\n      swap1\n      pop\n      jump\t// out\n        /* \"#utility.yul\":3115:3224   */\n    tag_287:\n        /* \"#utility.yul\":3196:3217   */\n      tag_375\n        /* \"#utility.yul\":3211:3216   */\n      dup2\n        /* \"#utility.yul\":3196:3217   */\n      tag_286\n      jump\t// in\n    tag_375:\n        /* \"#utility.yul\":3191:3194   */\n      dup3\n        /* \"#utility.yul\":3184:3218   */\n      mstore\n        /* \"#utility.yul\":3115:3224   */\n      pop\n      pop\n      jump\t// out\n        /* \"#utility.yul\":3230:3440   */\n    tag_41:\n        /* \"#utility.yul\":3317:3321   */\n      0x00\n        /* \"#utility.yul\":3355:3357   */\n      0x20\n        /* \"#utility.yul\":3344:3353   */\n      dup3\n        /* \"#utility.yul\":3340:3358   */\n      add\n        /* \"#utility.yul\":3332:3358   */\n      swap1\n      pop\n        /* \"#utility.yul\":3368:3433   */\n      tag_377\n        /* \"#utility.yul\":3430:3431   */\n      0x00\n        /* \"#utility.yul\":3419:3428   */\n      dup4\n        /* \"#utility.yul\":3415:3432   */\n      add\n        /* \"#utility.yul\":3406:3412   */\n      dup5\n        /* \"#utility.yul\":3368:3433   */\n      tag_287\n      jump\t// in\n    tag_377:\n        /* \"#utility.yul\":3230:3440   */\n      swap3\n      swap2\n      pop\n      pop\n      jump\t// out\n        /* \"#utility.yul\":3446:3564   */\n    tag_288:\n        /* \"#utility.yul\":3533:3557   */\n      tag_379\n        /* \"#utility.yul\":3551:3556   */\n      dup2\n        /* \"#utility.yul\":3533:3557   */\n      tag_283\n      jump\t// in\n    tag_379:\n        /* \"#utility.yul\":3528:3531   */\n      dup3\n        /* \"#utility.yul\":3521:3558   */\n      mstore\n        /* \"#utility.yul\":3446:3564   */\n      pop\n      pop\n      jump\t// out\n        /* \"#utility.yul\":3570:3792   */\n    tag_49:\n        /* \"#utility.yul\":3663:3667   */\n      0x00\n        /* \"#utility.yul\":3701:3703   */\n      0x20\n        /* \"#utility.yul\":3690:3699   */\n      dup3\n        /* \"#utility.yul\":3686:3704   */\n      add\n        /* \"#utility.yul\":3678:3704   */\n      swap1\n      pop\n        /* \"#utility.yul\":3714:3785   */\n      tag_381\n        /* \"#utility.yul\":3782:3783   */\n      0x00\n        /* \"#utility.yul\":3771:3780   */\n      dup4\n        /* \"#utility.yul\":3767:3784   */\n      add\n        /* \"#utility.yul\":3758:3764   */\n      dup5\n        /* \"#utility.yul\":3714:3785   */\n      tag_288\n      jump\t// in\n    tag_381:\n        /* \"#utility.yul\":3570:3792   */\n      swap3\n      swap2\n      pop\n      pop\n      jump\t// out\n        /* \"#utility.yul\":3798:4417   */\n    tag_53:\n        /* \"#utility.yul\":3875:3881   */\n      0x00\n        /* \"#utility.yul\":3883:3889   */\n      dup1\n        /* \"#utility.yul\":3891:3897   */\n      0x00\n        /* \"#utility.yul\":3940:3942   */\n      0x60\n        /* \"#utility.yul\":3928:3937   */\n      dup5\n        /* \"#utility.yul\":3919:3926   */\n      dup7\n        /* \"#utility.yul\":3915:3938   */\n      sub\n        /* \"#utility.yul\":3911:3943   */\n      slt\n        /* \"#utility.yul\":3908:4027   */\n      iszero\n      tag_383\n      jumpi\n        /* \"#utility.yul\":3946:4025   */\n      tag_384\n      tag_277\n      jump\t// in\n    tag_384:\n        /* \"#utility.yul\":3908:4027   */\n    tag_383:\n        /* \"#utility.yul\":4066:4067   */\n      0x00\n        /* \"#utility.yul\":4091:4144   */\n      tag_385\n        /* \"#utility.yul\":4136:4143   */\n      dup7\n        /* \"#utility.yul\":4127:4133   */\n      dup3\n        /* \"#utility.yul\":4116:4125   */\n      dup8\n        /* \"#utility.yul\":4112:4134   */\n      add\n        /* \"#utility.yul\":4091:4144   */\n      tag_282\n      jump\t// in\n    tag_385:\n        /* \"#utility.yul\":4081:4144   */\n      swap4\n      pop\n        /* \"#utility.yul\":4037:4154   */\n      pop\n        /* \"#utility.yul\":4193:4195   */\n      0x20\n        /* \"#utility.yul\":4219:4272   */\n      tag_386\n        /* \"#utility.yul\":4264:4271   */\n      dup7\n        /* \"#utility.yul\":4255:4261   */\n      dup3\n        /* \"#utility.yul\":4244:4253   */\n      dup8\n        /* \"#utility.yul\":4240:4262   */\n      add\n        /* \"#utility.yul\":4219:4272   */\n      tag_282\n      jump\t// in\n    tag_386:\n        /* \"#utility.yul\":4209:4272   */\n      swap3\n      pop\n        /* \"#utility.yul\":4164:4282   */\n      pop\n        /* \"#utility.yul\":4321:4323   */\n      0x40\n        /* \"#utility.yul\":4347:4400   */\n      tag_387\n        /* \"#utility.yul\":4392:4399   */\n      dup7\n        /* \"#utility.yul\":4383:4389   */\n      dup3\n        /* \"#utility.yul\":4372:4381   */\n      dup8\n        /* \"#utility.yul\":4368:4390   */\n      add\n        /* \"#utility.yul\":4347:4400   */\n      tag_285\n      jump\t// in\n    tag_387:\n        /* \"#utility.yul\":4337:4400   */\n      swap2\n      pop\n        /* \"#utility.yul\":4292:4410   */\n      pop\n        /* \"#utility.yul\":3798:4417   */\n      swap3\n      pop\n      swap3\n      pop\n      swap3\n      jump\t// out\n        /* \"#utility.yul\":4423:4527   */\n    tag_289:\n        /* \"#utility.yul\":4468:4475   */\n      0x00\n        /* \"#utility.yul\":4497:4521   */\n      tag_389\n        /* \"#utility.yul\":4515:4520   */\n      dup3\n        /* \"#utility.yul\":4497:4521   */\n      tag_279\n      jump\t// in\n    tag_389:\n        /* \"#utility.yul\":4486:4521   */\n      swap1\n      pop\n        /* \"#utility.yul\":4423:4527   */\n      swap2\n      swap1\n      pop\n      jump\t// out\n        /* \"#utility.yul\":4533:4671   */\n    tag_290:\n        /* \"#utility.yul\":4614:4646   */\n      tag_391\n        /* \"#utility.yul\":4640:4645   */\n      dup2\n        /* \"#utility.yul\":4614:4646   */\n      tag_289\n      jump\t// in\n    tag_391:\n        /* \"#utility.yul\":4607:4612   */\n      dup2\n        /* \"#utility.yul\":4604:4647   */\n      eq\n        /* \"#utility.yul\":4594:4665   */\n      tag_392\n      jumpi\n        /* \"#utility.yul\":4661:4662   */\n      0x00\n        /* \"#utility.yul\":4658:4659   */\n      dup1\n        /* \"#utility.yul\":4651:4663   */\n      revert\n        /* \"#utility.yul\":4594:4665   */\n    tag_392:\n        /* \"#utility.yul\":4533:4671   */\n      pop\n      jump\t// out\n        /* \"#utility.yul\":4677:4832   */\n    tag_291:\n        /* \"#utility.yul\":4731:4736   */\n      0x00\n        /* \"#utility.yul\":4769:4775   */\n      dup2\n        /* \"#utility.yul\":4756:4776   */\n      calldataload\n        /* \"#utility.yul\":4747:4776   */\n      swap1\n      pop\n        /* \"#utility.yul\":4785:4826   */\n      tag_394\n        /* \"#utility.yul\":4820:4825   */\n      dup2\n        /* \"#utility.yul\":4785:4826   */\n      tag_290\n      jump\t// in\n    tag_394:\n        /* \"#utility.yul\":4677:4832   */\n      swap3\n      swap2\n      pop\n      pop\n      jump\t// out\n        /* \"#utility.yul\":4838:5328   */\n    tag_59:\n        /* \"#utility.yul\":4914:4920   */\n      0x00\n        /* \"#utility.yul\":4922:4928   */\n      dup1\n        /* \"#utility.yul\":4971:4973   */\n      0x40\n        /* \"#utility.yul\":4959:4968   */\n      dup4\n        /* \"#utility.yul\":4950:4957   */\n      dup6\n        /* \"#utility.yul\":4946:4969   */\n      sub\n        /* \"#utility.yul\":4942:4974   */\n      slt\n        /* \"#utility.yul\":4939:5058   */\n      iszero\n      tag_396\n      jumpi\n        /* \"#utility.yul\":4977:5056   */\n      tag_397\n      tag_277\n      jump\t// in\n    tag_397:\n        /* \"#utility.yul\":4939:5058   */\n    tag_396:\n        /* \"#utility.yul\":5097:5098   */\n      0x00\n        /* \"#utility.yul\":5122:5183   */\n      tag_398\n        /* \"#utility.yul\":5175:5182   */\n      dup6\n        /* \"#utility.yul\":5166:5172   */\n      dup3\n        /* \"#utility.yul\":5155:5164   */\n      dup7\n        /* \"#utility.yul\":5151:5173   */\n      add\n        /* \"#utility.yul\":5122:5183   */\n      tag_291\n      jump\t// in\n    tag_398:\n        /* \"#utility.yul\":5112:5183   */\n      swap3\n      pop\n        /* \"#utility.yul\":5068:5193   */\n      pop\n        /* \"#utility.yul\":5232:5234   */\n      0x20\n        /* \"#utility.yul\":5258:5311   */\n      tag_399\n        /* \"#utility.yul\":5303:5310   */\n      dup6\n        /* \"#utility.yul\":5294:5300   */\n      dup3\n        /* \"#utility.yul\":5283:5292   */\n      dup7\n        /* \"#utility.yul\":5279:5301   */\n      add\n        /* \"#utility.yul\":5258:5311   */\n      tag_285\n      jump\t// in\n    tag_399:\n        /* \"#utility.yul\":5248:5311   */\n      swap2\n      pop\n        /* \"#utility.yul\":5203:5321   */\n      pop\n        /* \"#utility.yul\":4838:5328   */\n      swap3\n      pop\n      swap3\n      swap1\n      pop\n      jump\t// out\n        /* \"#utility.yul\":5334:5411   */\n    tag_292:\n        /* \"#utility.yul\":5371:5378   */\n      0x00\n        /* \"#utility.yul\":5400:5405   */\n      dup2\n        /* \"#utility.yul\":5389:5405   */\n      swap1\n      pop\n        /* \"#utility.yul\":5334:5411   */\n      swap2\n      swap1\n      pop\n      jump\t// out\n        /* \"#utility.yul\":5417:5535   */\n    tag_293:\n        /* \"#utility.yul\":5504:5528   */\n      tag_402\n        /* \"#utility.yul\":5522:5527   */\n      dup2\n        /* \"#utility.yul\":5504:5528   */\n      tag_292\n      jump\t// in\n    tag_402:\n        /* \"#utility.yul\":5499:5502   */\n      dup3\n        /* \"#utility.yul\":5492:5529   */\n      mstore\n        /* \"#utility.yul\":5417:5535   */\n      pop\n      pop\n      jump\t// out\n        /* \"#utility.yul\":5541:5763   */\n    tag_65:\n        /* \"#utility.yul\":5634:5638   */\n      0x00\n        /* \"#utility.yul\":5672:5674   */\n      0x20\n        /* \"#utility.yul\":5661:5670   */\n      dup3\n        /* \"#utility.yul\":5657:5675   */\n      add\n        /* \"#utility.yul\":5649:5675   */\n      swap1\n      pop\n        /* \"#utility.yul\":5685:5756   */\n      tag_404\n        /* \"#utility.yul\":5753:5754   */\n      0x00\n        /* \"#utility.yul\":5742:5751   */\n      dup4\n        /* \"#utility.yul\":5738:5755   */\n      add\n        /* \"#utility.yul\":5729:5735   */\n      dup5\n        /* \"#utility.yul\":5685:5756   */\n      tag_293\n      jump\t// in\n    tag_404:\n        /* \"#utility.yul\":5541:5763   */\n      swap3\n      swap2\n      pop\n      pop\n      jump\t// out\n        /* \"#utility.yul\":5769:6098   */\n    tag_69:\n        /* \"#utility.yul\":5828:5834   */\n      0x00\n        /* \"#utility.yul\":5877:5879   */\n      0x20\n        /* \"#utility.yul\":5865:5874   */\n      dup3\n        /* \"#utility.yul\":5856:5863   */\n      dup5\n        /* \"#utility.yul\":5852:5875   */\n      sub\n        /* \"#utility.yul\":5848:5880   */\n      slt\n        /* \"#utility.yul\":5845:5964   */\n      iszero\n      tag_406\n      jumpi\n        /* \"#utility.yul\":5883:5962   */\n      tag_407\n      tag_277\n      jump\t// in\n    tag_407:\n        /* \"#utility.yul\":5845:5964   */\n    tag_406:\n        /* \"#utility.yul\":6003:6004   */\n      0x00\n        /* \"#utility.yul\":6028:6081   */\n      tag_408\n        /* \"#utility.yul\":6073:6080   */\n      dup5\n        /* \"#utility.yul\":6064:6070   */\n      dup3\n        /* \"#utility.yul\":6053:6062   */\n      dup6\n        /* \"#utility.yul\":6049:6071   */\n      add\n        /* \"#utility.yul\":6028:6081   */\n      tag_282\n      jump\t// in\n    tag_408:\n        /* \"#utility.yul\":6018:6081   */\n      swap2\n      pop\n        /* \"#utility.yul\":5974:6091   */\n      pop\n        /* \"#utility.yul\":5769:6098   */\n      swap3\n      swap2\n      pop\n      pop\n      jump\t// out\n        /* \"#utility.yul\":6104:6190   */\n    tag_294:\n        /* \"#utility.yul\":6139:6146   */\n      0x00\n        /* \"#utility.yul\":6179:6183   */\n      0xff\n        /* \"#utility.yul\":6172:6177   */\n      dup3\n        /* \"#utility.yul\":6168:6184   */\n      and\n        /* \"#utility.yul\":6157:6184   */\n      swap1\n      pop\n        /* \"#utility.yul\":6104:6190   */\n      swap2\n      swap1\n      pop\n      jump\t// out\n        /* \"#utility.yul\":6196:6308   */\n    tag_295:\n        /* \"#utility.yul\":6279:6301   */\n      tag_411\n        /* \"#utility.yul\":6295:6300   */\n      dup2\n        /* \"#utility.yul\":6279:6301   */\n      tag_294\n      jump\t// in\n    tag_411:\n        /* \"#utility.yul\":6274:6277   */\n      dup3\n        /* \"#utility.yul\":6267:6302   */\n      mstore\n        /* \"#utility.yul\":6196:6308   */\n      pop\n      pop\n      jump\t// out\n        /* \"#utility.yul\":6314:6528   */\n    tag_76:\n        /* \"#utility.yul\":6403:6407   */\n      0x00\n        /* \"#utility.yul\":6441:6443   */\n      0x20\n        /* \"#utility.yul\":6430:6439   */\n      dup3\n        /* \"#utility.yul\":6426:6444   */\n      add\n        /* \"#utility.yul\":6418:6444   */\n      swap1\n      pop\n        /* \"#utility.yul\":6454:6521   */\n      tag_413\n        /* \"#utility.yul\":6518:6519   */\n      0x00\n        /* \"#utility.yul\":6507:6516   */\n      dup4\n        /* \"#utility.yul\":6503:6520   */\n      add\n        /* \"#utility.yul\":6494:6500   */\n      dup5\n        /* \"#utility.yul\":6454:6521   */\n      tag_295\n      jump\t// in\n    tag_413:\n        /* \"#utility.yul\":6314:6528   */\n      swap3\n      swap2\n      pop\n      pop\n      jump\t// out\n        /* \"#utility.yul\":6534:6651   */\n    tag_296:\n        /* \"#utility.yul\":6643:6644   */\n      0x00\n        /* \"#utility.yul\":6640:6641   */\n      dup1\n        /* \"#utility.yul\":6633:6645   */\n      revert\n        /* \"#utility.yul\":6657:6837   */\n    tag_297:\n        /* \"#utility.yul\":6705:6782   */\n      0x4e487b7100000000000000000000000000000000000000000000000000000000\n        /* \"#utility.yul\":6702:6703   */\n      0x00\n        /* \"#utility.yul\":6695:6783   */\n      mstore\n        /* \"#utility.yul\":6802:6806   */\n      0x41\n        /* \"#utility.yul\":6799:6800   */\n      0x04\n        /* \"#utility.yul\":6792:6807   */\n      mstore\n        /* \"#utility.yul\":6826:6830   */\n      0x24\n        /* \"#utility.yul\":6823:6824   */\n      0x00\n        /* \"#utility.yul\":6816:6831   */\n      revert\n        /* \"#utility.yul\":6843:7124   */\n    tag_298:\n        /* \"#utility.yul\":6926:6953   */\n      tag_417\n        /* \"#utility.yul\":6948:6952   */\n      dup3\n        /* \"#utility.yul\":6926:6953   */\n      tag_274\n      jump\t// in\n    tag_417:\n        /* \"#utility.yul\":6918:6924   */\n      dup2\n        /* \"#utility.yul\":6914:6954   */\n      add\n        /* \"#utility.yul\":7056:7062   */\n      dup2\n        /* \"#utility.yul\":7044:7054   */\n      dup2\n        /* \"#utility.yul\":7041:7063   */\n      lt\n        /* \"#utility.yul\":7020:7038   */\n      0xffffffffffffffff\n        /* \"#utility.yul\":7008:7018   */\n      dup3\n        /* \"#utility.yul\":7005:7039   */\n      gt\n        /* \"#utility.yul\":7002:7064   */\n      or\n        /* \"#utility.yul\":6999:7087   */\n      iszero\n      tag_418\n      jumpi\n        /* \"#utility.yul\":7067:7085   */\n      tag_419\n      tag_297\n      jump\t// in\n    tag_419:\n        /* \"#utility.yul\":6999:7087   */\n    tag_418:\n        /* \"#utility.yul\":7107:7117   */\n      dup1\n        /* \"#utility.yul\":7103:7105   */\n      0x40\n        /* \"#utility.yul\":7096:7118   */\n      mstore\n        /* \"#utility.yul\":6886:7124   */\n      pop\n        /* \"#utility.yul\":6843:7124   */\n      pop\n      pop\n      jump\t// out\n        /* \"#utility.yul\":7130:7259   */\n    tag_299:\n        /* \"#utility.yul\":7164:7170   */\n      0x00\n        /* \"#utility.yul\":7191:7211   */\n      tag_421\n      tag_276\n      jump\t// in\n    tag_421:\n        /* \"#utility.yul\":7181:7211   */\n      swap1\n      pop\n        /* \"#utility.yul\":7220:7253   */\n      tag_422\n        /* \"#utility.yul\":7248:7252   */\n      dup3\n        /* \"#utility.yul\":7240:7246   */\n      dup3\n        /* \"#utility.yul\":7220:7253   */\n      tag_298\n      jump\t// in\n    tag_422:\n        /* \"#utility.yul\":7130:7259   */\n      swap2\n      swap1\n      pop\n      jump\t// out\n        /* \"#utility.yul\":7265:7576   */\n    tag_300:\n        /* \"#utility.yul\":7342:7346   */\n      0x00\n        /* \"#utility.yul\":7432:7450   */\n      0xffffffffffffffff\n        /* \"#utility.yul\":7424:7430   */\n      dup3\n        /* \"#utility.yul\":7421:7451   */\n      gt\n        /* \"#utility.yul\":7418:7474   */\n      iszero\n      tag_424\n      jumpi\n        /* \"#utility.yul\":7454:7472   */\n      tag_425\n      tag_297\n      jump\t// in\n    tag_425:\n        /* \"#utility.yul\":7418:7474   */\n    tag_424:\n        /* \"#utility.yul\":7504:7508   */\n      0x20\n        /* \"#utility.yul\":7496:7502   */\n      dup3\n        /* \"#utility.yul\":7492:7509   */\n      mul\n        /* \"#utility.yul\":7484:7509   */\n      swap1\n      pop\n        /* \"#utility.yul\":7564:7568   */\n      0x20\n        /* \"#utility.yul\":7558:7562   */\n      dup2\n        /* \"#utility.yul\":7554:7569   */\n      add\n        /* \"#utility.yul\":7546:7569   */\n      swap1\n      pop\n        /* \"#utility.yul\":7265:7576   */\n      swap2\n      swap1\n      pop\n      jump\t// out\n        /* \"#utility.yul\":7582:7699   */\n    tag_301:\n        /* \"#utility.yul\":7691:7692   */\n      0x00\n        /* \"#utility.yul\":7688:7689   */\n      dup1\n        /* \"#utility.yul\":7681:7693   */\n      revert\n        /* \"#utility.yul\":7722:8432   */\n    tag_302:\n        /* \"#utility.yul\":7818:7823   */\n      0x00\n        /* \"#utility.yul\":7843:7924   */\n      tag_428\n        /* \"#utility.yul\":7859:7923   */\n      tag_429\n        /* \"#utility.yul\":7916:7922   */\n      dup5\n        /* \"#utility.yul\":7859:7923   */\n      tag_300\n      jump\t// in\n    tag_429:\n        /* \"#utility.yul\":7843:7924   */\n      tag_299\n      jump\t// in\n    tag_428:\n        /* \"#utility.yul\":7834:7924   */\n      swap1\n      pop\n        /* \"#utility.yul\":7944:7949   */\n      dup1\n        /* \"#utility.yul\":7973:7979   */\n      dup4\n        /* \"#utility.yul\":7966:7971   */\n      dup3\n        /* \"#utility.yul\":7959:7980   */\n      mstore\n        /* \"#utility.yul\":8007:8011   */\n      0x20\n        /* \"#utility.yul\":8000:8005   */\n      dup3\n        /* \"#utility.yul\":7996:8012   */\n      add\n        /* \"#utility.yul\":7989:8012   */\n      swap1\n      pop\n        /* \"#utility.yul\":8060:8064   */\n      0x20\n        /* \"#utility.yul\":8052:8058   */\n      dup5\n        /* \"#utility.yul\":8048:8065   */\n      mul\n        /* \"#utility.yul\":8040:8046   */\n      dup4\n        /* \"#utility.yul\":8036:8066   */\n      add\n        /* \"#utility.yul\":8089:8092   */\n      dup6\n        /* \"#utility.yul\":8081:8087   */\n      dup2\n        /* \"#utility.yul\":8078:8093   */\n      gt\n        /* \"#utility.yul\":8075:8197   */\n      iszero\n      tag_430\n      jumpi\n        /* \"#utility.yul\":8108:8187   */\n      tag_431\n      tag_301\n      jump\t// in\n    tag_431:\n        /* \"#utility.yul\":8075:8197   */\n    tag_430:\n        /* \"#utility.yul\":8223:8229   */\n      dup4\n        /* \"#utility.yul\":8206:8426   */\n    tag_432:\n        /* \"#utility.yul\":8240:8246   */\n      dup2\n        /* \"#utility.yul\":8235:8238   */\n      dup2\n        /* \"#utility.yul\":8232:8247   */\n      lt\n        /* \"#utility.yul\":8206:8426   */\n      iszero\n      tag_434\n      jumpi\n        /* \"#utility.yul\":8315:8318   */\n      dup1\n        /* \"#utility.yul\":8344:8381   */\n      tag_435\n        /* \"#utility.yul\":8377:8380   */\n      dup9\n        /* \"#utility.yul\":8365:8375   */\n      dup3\n        /* \"#utility.yul\":8344:8381   */\n      tag_282\n      jump\t// in\n    tag_435:\n        /* \"#utility.yul\":8339:8342   */\n      dup5\n        /* \"#utility.yul\":8332:8382   */\n      mstore\n        /* \"#utility.yul\":8411:8415   */\n      0x20\n        /* \"#utility.yul\":8406:8409   */\n      dup5\n        /* \"#utility.yul\":8402:8416   */\n      add\n        /* \"#utility.yul\":8395:8416   */\n      swap4\n      pop\n        /* \"#utility.yul\":8282:8426   */\n      pop\n        /* \"#utility.yul\":8266:8270   */\n      0x20\n        /* \"#utility.yul\":8261:8264   */\n      dup2\n        /* \"#utility.yul\":8257:8271   */\n      add\n        /* \"#utility.yul\":8250:8271   */\n      swap1\n      pop\n        /* \"#utility.yul\":8206:8426   */\n      jump(tag_432)\n    tag_434:\n        /* \"#utility.yul\":8210:8231   */\n      pop\n        /* \"#utility.yul\":7824:8432   */\n      pop\n      pop\n        /* \"#utility.yul\":7722:8432   */\n      swap4\n      swap3\n      pop\n      pop\n      pop\n      jump\t// out\n        /* \"#utility.yul\":8455:8825   */\n    tag_303:\n        /* \"#utility.yul\":8526:8531   */\n      0x00\n        /* \"#utility.yul\":8575:8578   */\n      dup3\n        /* \"#utility.yul\":8568:8572   */\n      0x1f\n        /* \"#utility.yul\":8560:8566   */\n      dup4\n        /* \"#utility.yul\":8556:8573   */\n      add\n        /* \"#utility.yul\":8552:8579   */\n      slt\n        /* \"#utility.yul\":8542:8664   */\n      tag_437\n      jumpi\n        /* \"#utility.yul\":8583:8662   */\n      tag_438\n      tag_296\n      jump\t// in\n    tag_438:\n        /* \"#utility.yul\":8542:8664   */\n    tag_437:\n        /* \"#utility.yul\":8700:8706   */\n      dup2\n        /* \"#utility.yul\":8687:8707   */\n      calldataload\n        /* \"#utility.yul\":8725:8819   */\n      tag_439\n        /* \"#utility.yul\":8815:8818   */\n      dup5\n        /* \"#utility.yul\":8807:8813   */\n      dup3\n        /* \"#utility.yul\":8800:8804   */\n      0x20\n        /* \"#utility.yul\":8792:8798   */\n      dup7\n        /* \"#utility.yul\":8788:8805   */\n      add\n        /* \"#utility.yul\":8725:8819   */\n      tag_302\n      jump\t// in\n    tag_439:\n        /* \"#utility.yul\":8716:8819   */\n      swap2\n      pop\n        /* \"#utility.yul\":8532:8825   */\n      pop\n        /* \"#utility.yul\":8455:8825   */\n      swap3\n      swap2\n      pop\n      pop\n      jump\t// out\n        /* \"#utility.yul\":8831:9142   */\n    tag_304:\n        /* \"#utility.yul\":8908:8912   */\n      0x00\n        /* \"#utility.yul\":8998:9016   */\n      0xffffffffffffffff\n        /* \"#utility.yul\":8990:8996   */\n      dup3\n        /* \"#utility.yul\":8987:9017   */\n      gt\n        /* \"#utility.yul\":8984:9040   */\n      iszero\n      tag_441\n      jumpi\n        /* \"#utility.yul\":9020:9038   */\n      tag_442\n      tag_297\n      jump\t// in\n    tag_442:\n        /* \"#utility.yul\":8984:9040   */\n    tag_441:\n        /* \"#utility.yul\":9070:9074   */\n      0x20\n        /* \"#utility.yul\":9062:9068   */\n      dup3\n        /* \"#utility.yul\":9058:9075   */\n      mul\n        /* \"#utility.yul\":9050:9075   */\n      swap1\n      pop\n        /* \"#utility.yul\":9130:9134   */\n      0x20\n        /* \"#utility.yul\":9124:9128   */\n      dup2\n        /* \"#utility.yul\":9120:9135   */\n      add\n        /* \"#utility.yul\":9112:9135   */\n      swap1\n      pop\n        /* \"#utility.yul\":8831:9142   */\n      swap2\n      swap1\n      pop\n      jump\t// out\n        /* \"#utility.yul\":9165:9875   */\n    tag_305:\n        /* \"#utility.yul\":9261:9266   */\n      0x00\n        /* \"#utility.yul\":9286:9367   */\n      tag_444\n        /* \"#utility.yul\":9302:9366   */\n      tag_445\n        /* \"#utility.yul\":9359:9365   */\n      dup5\n        /* \"#utility.yul\":9302:9366   */\n      tag_304\n      jump\t// in\n    tag_445:\n        /* \"#utility.yul\":9286:9367   */\n      tag_299\n      jump\t// in\n    tag_444:\n        /* \"#utility.yul\":9277:9367   */\n      swap1\n      pop\n        /* \"#utility.yul\":9387:9392   */\n      dup1\n        /* \"#utility.yul\":9416:9422   */\n      dup4\n        /* \"#utility.yul\":9409:9414   */\n      dup3\n        /* \"#utility.yul\":9402:9423   */\n      mstore\n        /* \"#utility.yul\":9450:9454   */\n      0x20\n        /* \"#utility.yul\":9443:9448   */\n      dup3\n        /* \"#utility.yul\":9439:9455   */\n      add\n        /* \"#utility.yul\":9432:9455   */\n      swap1\n      pop\n        /* \"#utility.yul\":9503:9507   */\n      0x20\n        /* \"#utility.yul\":9495:9501   */\n      dup5\n        /* \"#utility.yul\":9491:9508   */\n      mul\n        /* \"#utility.yul\":9483:9489   */\n      dup4\n        /* \"#utility.yul\":9479:9509   */\n      add\n        /* \"#utility.yul\":9532:9535   */\n      dup6\n        /* \"#utility.yul\":9524:9530   */\n      dup2\n        /* \"#utility.yul\":9521:9536   */\n      gt\n        /* \"#utility.yul\":9518:9640   */\n      iszero\n      tag_446\n      jumpi\n        /* \"#utility.yul\":9551:9630   */\n      tag_447\n      tag_301\n      jump\t// in\n    tag_447:\n        /* \"#utility.yul\":9518:9640   */\n    tag_446:\n        /* \"#utility.yul\":9666:9672   */\n      dup4\n        /* \"#utility.yul\":9649:9869   */\n    tag_448:\n        /* \"#utility.yul\":9683:9689   */\n      dup2\n        /* \"#utility.yul\":9678:9681   */\n      dup2\n        /* \"#utility.yul\":9675:9690   */\n      lt\n        /* \"#utility.yul\":9649:9869   */\n      iszero\n      tag_450\n      jumpi\n        /* \"#utility.yul\":9758:9761   */\n      dup1\n        /* \"#utility.yul\":9787:9824   */\n      tag_451\n        /* \"#utility.yul\":9820:9823   */\n      dup9\n        /* \"#utility.yul\":9808:9818   */\n      dup3\n        /* \"#utility.yul\":9787:9824   */\n      tag_285\n      jump\t// in\n    tag_451:\n        /* \"#utility.yul\":9782:9785   */\n      dup5\n        /* \"#utility.yul\":9775:9825   */\n      mstore\n        /* \"#utility.yul\":9854:9858   */\n      0x20\n        /* \"#utility.yul\":9849:9852   */\n      dup5\n        /* \"#utility.yul\":9845:9859   */\n      add\n        /* \"#utility.yul\":9838:9859   */\n      swap4\n      pop\n        /* \"#utility.yul\":9725:9869   */\n      pop\n        /* \"#utility.yul\":9709:9713   */\n      0x20\n        /* \"#utility.yul\":9704:9707   */\n      dup2\n        /* \"#utility.yul\":9700:9714   */\n      add\n        /* \"#utility.yul\":9693:9714   */\n      swap1\n      pop\n        /* \"#utility.yul\":9649:9869   */\n      jump(tag_448)\n    tag_450:\n        /* \"#utility.yul\":9653:9674   */\n      pop\n        /* \"#utility.yul\":9267:9875   */\n      pop\n      pop\n        /* \"#utility.yul\":9165:9875   */\n      swap4\n      swap3\n      pop\n      pop\n      pop\n      jump\t// out\n        /* \"#utility.yul\":9898:10268   */\n    tag_306:\n        /* \"#utility.yul\":9969:9974   */\n      0x00\n        /* \"#utility.yul\":10018:10021   */\n      dup3\n        /* \"#utility.yul\":10011:10015   */\n      0x1f\n        /* \"#utility.yul\":10003:10009   */\n      dup4\n        /* \"#utility.yul\":9999:10016   */\n      add\n        /* \"#utility.yul\":9995:10022   */\n      slt\n        /* \"#utility.yul\":9985:10107   */\n      tag_453\n      jumpi\n        /* \"#utility.yul\":10026:10105   */\n      tag_454\n      tag_296\n      jump\t// in\n    tag_454:\n        /* \"#utility.yul\":9985:10107   */\n    tag_453:\n        /* \"#utility.yul\":10143:10149   */\n      dup2\n        /* \"#utility.yul\":10130:10150   */\n      calldataload\n        /* \"#utility.yul\":10168:10262   */\n      tag_455\n        /* \"#utility.yul\":10258:10261   */\n      dup5\n        /* \"#utility.yul\":10250:10256   */\n      dup3\n        /* \"#utility.yul\":10243:10247   */\n      0x20\n        /* \"#utility.yul\":10235:10241   */\n      dup7\n        /* \"#utility.yul\":10231:10248   */\n      add\n        /* \"#utility.yul\":10168:10262   */\n      tag_305\n      jump\t// in\n    tag_455:\n        /* \"#utility.yul\":10159:10262   */\n      swap2\n      pop\n        /* \"#utility.yul\":9975:10268   */\n      pop\n        /* \"#utility.yul\":9898:10268   */\n      swap3\n      swap2\n      pop\n      pop\n      jump\t// out\n        /* \"#utility.yul\":10274:11168   */\n    tag_89:\n        /* \"#utility.yul\":10392:10398   */\n      0x00\n        /* \"#utility.yul\":10400:10406   */\n      dup1\n        /* \"#utility.yul\":10449:10451   */\n      0x40\n        /* \"#utility.yul\":10437:10446   */\n      dup4\n        /* \"#utility.yul\":10428:10435   */\n      dup6\n        /* \"#utility.yul\":10424:10447   */\n      sub\n        /* \"#utility.yul\":10420:10452   */\n      slt\n        /* \"#utility.yul\":10417:10536   */\n      iszero\n      tag_457\n      jumpi\n        /* \"#utility.yul\":10455:10534   */\n      tag_458\n      tag_277\n      jump\t// in\n    tag_458:\n        /* \"#utility.yul\":10417:10536   */\n    tag_457:\n        /* \"#utility.yul\":10603:10604   */\n      0x00\n        /* \"#utility.yul\":10592:10601   */\n      dup4\n        /* \"#utility.yul\":10588:10605   */\n      add\n        /* \"#utility.yul\":10575:10606   */\n      calldataload\n        /* \"#utility.yul\":10633:10651   */\n      0xffffffffffffffff\n        /* \"#utility.yul\":10625:10631   */\n      dup2\n        /* \"#utility.yul\":10622:10652   */\n      gt\n        /* \"#utility.yul\":10619:10736   */\n      iszero\n      tag_459\n      jumpi\n        /* \"#utility.yul\":10655:10734   */\n      tag_460\n      tag_278\n      jump\t// in\n    tag_460:\n        /* \"#utility.yul\":10619:10736   */\n    tag_459:\n        /* \"#utility.yul\":10760:10838   */\n      tag_461\n        /* \"#utility.yul\":10830:10837   */\n      dup6\n        /* \"#utility.yul\":10821:10827   */\n      dup3\n        /* \"#utility.yul\":10810:10819   */\n      dup7\n        /* \"#utility.yul\":10806:10828   */\n      add\n        /* \"#utility.yul\":10760:10838   */\n      tag_303\n      jump\t// in\n    tag_461:\n        /* \"#utility.yul\":10750:10838   */\n      swap3\n      pop\n        /* \"#utility.yul\":10546:10848   */\n      pop\n        /* \"#utility.yul\":10915:10917   */\n      0x20\n        /* \"#utility.yul\":10904:10913   */\n      dup4\n        /* \"#utility.yul\":10900:10918   */\n      add\n        /* \"#utility.yul\":10887:10919   */\n      calldataload\n        /* \"#utility.yul\":10946:10964   */\n      0xffffffffffffffff\n        /* \"#utility.yul\":10938:10944   */\n      dup2\n        /* \"#utility.yul\":10935:10965   */\n      gt\n        /* \"#utility.yul\":10932:11049   */\n      iszero\n      tag_462\n      jumpi\n        /* \"#utility.yul\":10968:11047   */\n      tag_463\n      tag_278\n      jump\t// in\n    tag_463:\n        /* \"#utility.yul\":10932:11049   */\n    tag_462:\n        /* \"#utility.yul\":11073:11151   */\n      tag_464\n        /* \"#utility.yul\":11143:11150   */\n      dup6\n        /* \"#utility.yul\":11134:11140   */\n      dup3\n        /* \"#utility.yul\":11123:11132   */\n      dup7\n        /* \"#utility.yul\":11119:11141   */\n      add\n        /* \"#utility.yul\":11073:11151   */\n      tag_306\n      jump\t// in\n    tag_464:\n        /* \"#utility.yul\":11063:11151   */\n      swap2\n      pop\n        /* \"#utility.yul\":10858:11161   */\n      pop\n        /* \"#utility.yul\":10274:11168   */\n      swap3\n      pop\n      swap3\n      swap1\n      pop\n      jump\t// out\n        /* \"#utility.yul\":11174:11482   */\n    tag_307:\n        /* \"#utility.yul\":11248:11252   */\n      0x00\n        /* \"#utility.yul\":11338:11356   */\n      0xffffffffffffffff\n        /* \"#utility.yul\":11330:11336   */\n      dup3\n        /* \"#utility.yul\":11327:11357   */\n      gt\n        /* \"#utility.yul\":11324:11380   */\n      iszero\n      tag_466\n      jumpi\n        /* \"#utility.yul\":11360:11378   */\n      tag_467\n      tag_297\n      jump\t// in\n    tag_467:\n        /* \"#utility.yul\":11324:11380   */\n    tag_466:\n        /* \"#utility.yul\":11410:11414   */\n      0x20\n        /* \"#utility.yul\":11402:11408   */\n      dup3\n        /* \"#utility.yul\":11398:11415   */\n      mul\n        /* \"#utility.yul\":11390:11415   */\n      swap1\n      pop\n        /* \"#utility.yul\":11470:11474   */\n      0x20\n        /* \"#utility.yul\":11464:11468   */\n      dup2\n        /* \"#utility.yul\":11460:11475   */\n      add\n        /* \"#utility.yul\":11452:11475   */\n      swap1\n      pop\n        /* \"#utility.yul\":11174:11482   */\n      swap2\n      swap1\n      pop\n      jump\t// out\n        /* \"#utility.yul\":11488:11604   */\n    tag_308:\n        /* \"#utility.yul\":11558:11579   */\n      tag_469\n        /* \"#utility.yul\":11573:11578   */\n      dup2\n        /* \"#utility.yul\":11558:11579   */\n      tag_286\n      jump\t// in\n    tag_469:\n        /* \"#utility.yul\":11551:11556   */\n      dup2\n        /* \"#utility.yul\":11548:11580   */\n      eq\n        /* \"#utility.yul\":11538:11598   */\n      tag_470\n      jumpi\n        /* \"#utility.yul\":11594:11595   */\n      0x00\n        /* \"#utility.yul\":11591:11592   */\n      dup1\n        /* \"#utility.yul\":11584:11596   */\n      revert\n        /* \"#utility.yul\":11538:11598   */\n    tag_470:\n        /* \"#utility.yul\":11488:11604   */\n      pop\n      jump\t// out\n        /* \"#utility.yul\":11610:11743   */\n    tag_309:\n        /* \"#utility.yul\":11653:11658   */\n      0x00\n        /* \"#utility.yul\":11691:11697   */\n      dup2\n        /* \"#utility.yul\":11678:11698   */\n      calldataload\n        /* \"#utility.yul\":11669:11698   */\n      swap1\n      pop\n        /* \"#utility.yul\":11707:11737   */\n      tag_472\n        /* \"#utility.yul\":11731:11736   */\n      dup2\n        /* \"#utility.yul\":11707:11737   */\n      tag_308\n      jump\t// in\n    tag_472:\n        /* \"#utility.yul\":11610:11743   */\n      swap3\n      swap2\n      pop\n      pop\n      jump\t// out\n        /* \"#utility.yul\":11763:12464   */\n    tag_310:\n        /* \"#utility.yul\":11856:11861   */\n      0x00\n        /* \"#utility.yul\":11881:11959   */\n      tag_474\n        /* \"#utility.yul\":11897:11958   */\n      tag_475\n        /* \"#utility.yul\":11951:11957   */\n      dup5\n        /* \"#utility.yul\":11897:11958   */\n      tag_307\n      jump\t// in\n    tag_475:\n        /* \"#utility.yul\":11881:11959   */\n      tag_299\n      jump\t// in\n    tag_474:\n        /* \"#utility.yul\":11872:11959   */\n      swap1\n      pop\n        /* \"#utility.yul\":11979:11984   */\n      dup1\n        /* \"#utility.yul\":12008:12014   */\n      dup4\n        /* \"#utility.yul\":12001:12006   */\n      dup3\n        /* \"#utility.yul\":11994:12015   */\n      mstore\n        /* \"#utility.yul\":12042:12046   */\n      0x20\n        /* \"#utility.yul\":12035:12040   */\n      dup3\n        /* \"#utility.yul\":12031:12047   */\n      add\n        /* \"#utility.yul\":12024:12047   */\n      swap1\n      pop\n        /* \"#utility.yul\":12095:12099   */\n      0x20\n        /* \"#utility.yul\":12087:12093   */\n      dup5\n        /* \"#utility.yul\":12083:12100   */\n      mul\n        /* \"#utility.yul\":12075:12081   */\n      dup4\n        /* \"#utility.yul\":12071:12101   */\n      add\n        /* \"#utility.yul\":12124:12127   */\n      dup6\n        /* \"#utility.yul\":12116:12122   */\n      dup2\n        /* \"#utility.yul\":12113:12128   */\n      gt\n        /* \"#utility.yul\":12110:12232   */\n      iszero\n      tag_476\n      jumpi\n        /* \"#utility.yul\":12143:12222   */\n      tag_477\n      tag_301\n      jump\t// in\n    tag_477:\n        /* \"#utility.yul\":12110:12232   */\n    tag_476:\n        /* \"#utility.yul\":12258:12264   */\n      dup4\n        /* \"#utility.yul\":12241:12458   */\n    tag_478:\n        /* \"#utility.yul\":12275:12281   */\n      dup2\n        /* \"#utility.yul\":12270:12273   */\n      dup2\n        /* \"#utility.yul\":12267:12282   */\n      lt\n        /* \"#utility.yul\":12241:12458   */\n      iszero\n      tag_480\n      jumpi\n        /* \"#utility.yul\":12350:12353   */\n      dup1\n        /* \"#utility.yul\":12379:12413   */\n      tag_481\n        /* \"#utility.yul\":12409:12412   */\n      dup9\n        /* \"#utility.yul\":12397:12407   */\n      dup3\n        /* \"#utility.yul\":12379:12413   */\n      tag_309\n      jump\t// in\n    tag_481:\n        /* \"#utility.yul\":12374:12377   */\n      dup5\n        /* \"#utility.yul\":12367:12414   */\n      mstore\n        /* \"#utility.yul\":12443:12447   */\n      0x20\n        /* \"#utility.yul\":12438:12441   */\n      dup5\n        /* \"#utility.yul\":12434:12448   */\n      add\n        /* \"#utility.yul\":12427:12448   */\n      swap4\n      pop\n        /* \"#utility.yul\":12317:12458   */\n      pop\n        /* \"#utility.yul\":12301:12305   */\n      0x20\n        /* \"#utility.yul\":12296:12299   */\n      dup2\n        /* \"#utility.yul\":12292:12306   */\n      add\n        /* \"#utility.yul\":12285:12306   */\n      swap1\n      pop\n        /* \"#utility.yul\":12241:12458   */\n      jump(tag_478)\n    tag_480:\n        /* \"#utility.yul\":12245:12266   */\n      pop\n        /* \"#utility.yul\":11862:12464   */\n      pop\n      pop\n        /* \"#utility.yul\":11763:12464   */\n      swap4\n      swap3\n      pop\n      pop\n      pop\n      jump\t// out\n        /* \"#utility.yul\":12484:12848   */\n    tag_311:\n        /* \"#utility.yul\":12552:12557   */\n      0x00\n        /* \"#utility.yul\":12601:12604   */\n      dup3\n        /* \"#utility.yul\":12594:12598   */\n      0x1f\n        /* \"#utility.yul\":12586:12592   */\n      dup4\n        /* \"#utility.yul\":12582:12599   */\n      add\n        /* \"#utility.yul\":12578:12605   */\n      slt\n        /* \"#utility.yul\":12568:12690   */\n      tag_483\n      jumpi\n        /* \"#utility.yul\":12609:12688   */\n      tag_484\n      tag_296\n      jump\t// in\n    tag_484:\n        /* \"#utility.yul\":12568:12690   */\n    tag_483:\n        /* \"#utility.yul\":12726:12732   */\n      dup2\n        /* \"#utility.yul\":12713:12733   */\n      calldataload\n        /* \"#utility.yul\":12751:12842   */\n      tag_485\n        /* \"#utility.yul\":12838:12841   */\n      dup5\n        /* \"#utility.yul\":12830:12836   */\n      dup3\n        /* \"#utility.yul\":12823:12827   */\n      0x20\n        /* \"#utility.yul\":12815:12821   */\n      dup7\n        /* \"#utility.yul\":12811:12828   */\n      add\n        /* \"#utility.yul\":12751:12842   */\n      tag_310\n      jump\t// in\n    tag_485:\n        /* \"#utility.yul\":12742:12842   */\n      swap2\n      pop\n        /* \"#utility.yul\":12558:12848   */\n      pop\n        /* \"#utility.yul\":12484:12848   */\n      swap3\n      swap2\n      pop\n      pop\n      jump\t// out\n        /* \"#utility.yul\":12854:13742   */\n    tag_108:\n        /* \"#utility.yul\":12969:12975   */\n      0x00\n        /* \"#utility.yul\":12977:12983   */\n      dup1\n        /* \"#utility.yul\":13026:13028   */\n      0x40\n        /* \"#utility.yul\":13014:13023   */\n      dup4\n        /* \"#utility.yul\":13005:13012   */\n      dup6\n        /* \"#utility.yul\":13001:13024   */\n      sub\n        /* \"#utility.yul\":12997:13029   */\n      slt\n        /* \"#utility.yul\":12994:13113   */\n      iszero\n      tag_487\n      jumpi\n        /* \"#utility.yul\":13032:13111   */\n      tag_488\n      tag_277\n      jump\t// in\n    tag_488:\n        /* \"#utility.yul\":12994:13113   */\n    tag_487:\n        /* \"#utility.yul\":13180:13181   */\n      0x00\n        /* \"#utility.yul\":13169:13178   */\n      dup4\n        /* \"#utility.yul\":13165:13182   */\n      add\n        /* \"#utility.yul\":13152:13183   */\n      calldataload\n        /* \"#utility.yul\":13210:13228   */\n      0xffffffffffffffff\n        /* \"#utility.yul\":13202:13208   */\n      dup2\n        /* \"#utility.yul\":13199:13229   */\n      gt\n        /* \"#utility.yul\":13196:13313   */\n      iszero\n      tag_489\n      jumpi\n        /* \"#utility.yul\":13232:13311   */\n      tag_490\n      tag_278\n      jump\t// in\n    tag_490:\n        /* \"#utility.yul\":13196:13313   */\n    tag_489:\n        /* \"#utility.yul\":13337:13415   */\n      tag_491\n        /* \"#utility.yul\":13407:13414   */\n      dup6\n        /* \"#utility.yul\":13398:13404   */\n      dup3\n        /* \"#utility.yul\":13387:13396   */\n      dup7\n        /* \"#utility.yul\":13383:13405   */\n      add\n        /* \"#utility.yul\":13337:13415   */\n      tag_303\n      jump\t// in\n    tag_491:\n        /* \"#utility.yul\":13327:13415   */\n      swap3\n      pop\n        /* \"#utility.yul\":13123:13425   */\n      pop\n        /* \"#utility.yul\":13492:13494   */\n      0x20\n        /* \"#utility.yul\":13481:13490   */\n      dup4\n        /* \"#utility.yul\":13477:13495   */\n      add\n        /* \"#utility.yul\":13464:13496   */\n      calldataload\n        /* \"#utility.yul\":13523:13541   */\n      0xffffffffffffffff\n        /* \"#utility.yul\":13515:13521   */\n      dup2\n        /* \"#utility.yul\":13512:13542   */\n      gt\n        /* \"#utility.yul\":13509:13626   */\n      iszero\n      tag_492\n      jumpi\n        /* \"#utility.yul\":13545:13624   */\n      tag_493\n      tag_278\n      jump\t// in\n    tag_493:\n        /* \"#utility.yul\":13509:13626   */\n    tag_492:\n        /* \"#utility.yul\":13650:13725   */\n      tag_494\n        /* \"#utility.yul\":13717:13724   */\n      dup6\n        /* \"#utility.yul\":13708:13714   */\n      dup3\n        /* \"#utility.yul\":13697:13706   */\n      dup7\n        /* \"#utility.yul\":13693:13715   */\n      add\n        /* \"#utility.yul\":13650:13725   */\n      tag_311\n      jump\t// in\n    tag_494:\n        /* \"#utility.yul\":13640:13725   */\n      swap2\n      pop\n        /* \"#utility.yul\":13435:13735   */\n      pop\n        /* \"#utility.yul\":12854:13742   */\n      swap3\n      pop\n      swap3\n      swap1\n      pop\n      jump\t// out\n        /* \"#utility.yul\":13748:14222   */\n    tag_131:\n        /* \"#utility.yul\":13816:13822   */\n      0x00\n        /* \"#utility.yul\":13824:13830   */\n      dup1\n        /* \"#utility.yul\":13873:13875   */\n      0x40\n        /* \"#utility.yul\":13861:13870   */\n      dup4\n        /* \"#utility.yul\":13852:13859   */\n      dup6\n        /* \"#utility.yul\":13848:13871   */\n      sub\n        /* \"#utility.yul\":13844:13876   */\n      slt\n        /* \"#utility.yul\":13841:13960   */\n      iszero\n      tag_496\n      jumpi\n        /* \"#utility.yul\":13879:13958   */\n      tag_497\n      tag_277\n      jump\t// in\n    tag_497:\n        /* \"#utility.yul\":13841:13960   */\n    tag_496:\n        /* \"#utility.yul\":13999:14000   */\n      0x00\n        /* \"#utility.yul\":14024:14077   */\n      tag_498\n        /* \"#utility.yul\":14069:14076   */\n      dup6\n        /* \"#utility.yul\":14060:14066   */\n      dup3\n        /* \"#utility.yul\":14049:14058   */\n      dup7\n        /* \"#utility.yul\":14045:14067   */\n      add\n        /* \"#utility.yul\":14024:14077   */\n      tag_282\n      jump\t// in\n    tag_498:\n        /* \"#utility.yul\":14014:14077   */\n      swap3\n      pop\n        /* \"#utility.yul\":13970:14087   */\n      pop\n        /* \"#utility.yul\":14126:14128   */\n      0x20\n        /* \"#utility.yul\":14152:14205   */\n      tag_499\n        /* \"#utility.yul\":14197:14204   */\n      dup6\n        /* \"#utility.yul\":14188:14194   */\n      dup3\n        /* \"#utility.yul\":14177:14186   */\n      dup7\n        /* \"#utility.yul\":14173:14195   */\n      add\n        /* \"#utility.yul\":14152:14205   */\n      tag_282\n      jump\t// in\n    tag_499:\n        /* \"#utility.yul\":14142:14205   */\n      swap2\n      pop\n        /* \"#utility.yul\":14097:14215   */\n      pop\n        /* \"#utility.yul\":13748:14222   */\n      swap3\n      pop\n      swap3\n      swap1\n      pop\n      jump\t// out\n        /* \"#utility.yul\":14228:14408   */\n    tag_312:\n        /* \"#utility.yul\":14276:14353   */\n      0x4e487b7100000000000000000000000000000000000000000000000000000000\n        /* \"#utility.yul\":14273:14274   */\n      0x00\n        /* \"#utility.yul\":14266:14354   */\n      mstore\n        /* \"#utility.yul\":14373:14377   */\n      0x22\n        /* \"#utility.yul\":14370:14371   */\n      0x04\n        /* \"#utility.yul\":14363:14378   */\n      mstore\n        /* \"#utility.yul\":14397:14401   */\n      0x24\n        /* \"#utility.yul\":14394:14395   */\n      0x00\n        /* \"#utility.yul\":14387:14402   */\n      revert\n        /* \"#utility.yul\":14414:14734   */\n    tag_138:\n        /* \"#utility.yul\":14458:14464   */\n      0x00\n        /* \"#utility.yul\":14495:14496   */\n      0x02\n        /* \"#utility.yul\":14489:14493   */\n      dup3\n        /* \"#utility.yul\":14485:14497   */\n      div\n        /* \"#utility.yul\":14475:14497   */\n      swap1\n      pop\n        /* \"#utility.yul\":14542:14543   */\n      0x01\n        /* \"#utility.yul\":14536:14540   */\n      dup3\n        /* \"#utility.yul\":14532:14544   */\n      and\n        /* \"#utility.yul\":14563:14581   */\n      dup1\n        /* \"#utility.yul\":14553:14634   */\n      tag_502\n      jumpi\n        /* \"#utility.yul\":14619:14623   */\n      0x7f\n        /* \"#utility.yul\":14611:14617   */\n      dup3\n        /* \"#utility.yul\":14607:14624   */\n      and\n        /* \"#utility.yul\":14597:14624   */\n      swap2\n      pop\n        /* \"#utility.yul\":14553:14634   */\n    tag_502:\n        /* \"#utility.yul\":14681:14683   */\n      0x20\n        /* \"#utility.yul\":14673:14679   */\n      dup3\n        /* \"#utility.yul\":14670:14684   */\n      lt\n        /* \"#utility.yul\":14650:14668   */\n      dup2\n        /* \"#utility.yul\":14647:14685   */\n      sub\n        /* \"#utility.yul\":14644:14728   */\n      tag_503\n      jumpi\n        /* \"#utility.yul\":14700:14718   */\n      tag_504\n      tag_312\n      jump\t// in\n    tag_504:\n        /* \"#utility.yul\":14644:14728   */\n    tag_503:\n        /* \"#utility.yul\":14465:14734   */\n      pop\n        /* \"#utility.yul\":14414:14734   */\n      swap2\n      swap1\n      pop\n      jump\t// out\n        /* \"#utility.yul\":14740:14920   */\n    tag_313:\n        /* \"#utility.yul\":14788:14865   */\n      0x4e487b7100000000000000000000000000000000000000000000000000000000\n        /* \"#utility.yul\":14785:14786   */\n      0x00\n        /* \"#utility.yul\":14778:14866   */\n      mstore\n        /* \"#utility.yul\":14885:14889   */\n      0x11\n        /* \"#utility.yul\":14882:14883   */\n      0x04\n        /* \"#utility.yul\":14875:14890   */\n      mstore\n        /* \"#utility.yul\":14909:14913   */\n      0x24\n        /* \"#utility.yul\":14906:14907   */\n      0x00\n        /* \"#utility.yul\":14899:14914   */\n      revert\n        /* \"#utility.yul\":14926:15159   */\n    tag_150:\n        /* \"#utility.yul\":14965:14968   */\n      0x00\n        /* \"#utility.yul\":14988:15012   */\n      tag_507\n        /* \"#utility.yul\":15006:15011   */\n      dup3\n        /* \"#utility.yul\":14988:15012   */\n      tag_283\n      jump\t// in\n    tag_507:\n        /* \"#utility.yul\":14979:15012   */\n      swap2\n      pop\n        /* \"#utility.yul\":15034:15100   */\n      0xffffffffffffffffffffffffffffffffffffffffffffffffffffffffffffffff\n        /* \"#utility.yul\":15027:15032   */\n      dup3\n        /* \"#utility.yul\":15024:15101   */\n      sub\n        /* \"#utility.yul\":15021:15124   */\n      tag_508\n      jumpi\n        /* \"#utility.yul\":15104:15122   */\n      tag_509\n      tag_313\n      jump\t// in\n    tag_509:\n        /* \"#utility.yul\":15021:15124   */\n    tag_508:\n        /* \"#utility.yul\":15151:15152   */\n      0x01\n        /* \"#utility.yul\":15144:15149   */\n      dup3\n        /* \"#utility.yul\":15140:15153   */\n      add\n        /* \"#utility.yul\":15133:15153   */\n      swap1\n      pop\n        /* \"#utility.yul\":14926:15159   */\n      swap2\n      swap1\n      pop\n      jump\t// out\n        /* \"#utility.yul\":15165:15356   */\n    tag_167:\n        /* \"#utility.yul\":15205:15208   */\n      0x00\n        /* \"#utility.yul\":15224:15244   */\n      tag_511\n        /* \"#utility.yul\":15242:15243   */\n      dup3\n        /* \"#utility.yul\":15224:15244   */\n      tag_283\n      jump\t// in\n    tag_511:\n        /* \"#utility.yul\":15219:15244   */\n      swap2\n      pop\n        /* \"#utility.yul\":15258:15278   */\n      tag_512\n        /* \"#utility.yul\":15276:15277   */\n      dup4\n        /* \"#utility.yul\":15258:15278   */\n      tag_283\n      jump\t// in\n    tag_512:\n        /* \"#utility.yul\":15253:15278   */\n      swap3\n      pop\n        /* \"#utility.yul\":15301:15302   */\n      dup3\n        /* \"#utility.yul\":15298:15299   */\n      dup3\n        /* \"#utility.yul\":15294:15303   */\n      add\n        /* \"#utility.yul\":15287:15303   */\n      swap1\n      pop\n        /* \"#utility.yul\":15322:15325   */\n      dup1\n        /* \"#utility.yul\":15319:15320   */\n      dup3\n        /* \"#utility.yul\":15316:15326   */\n      gt\n        /* \"#utility.yul\":15313:15349   */\n      iszero\n      tag_513\n      jumpi\n        /* \"#utility.yul\":15329:15347   */\n      tag_514\n      tag_313\n      jump\t// in\n    tag_514:\n        /* \"#utility.yul\":15313:15349   */\n    tag_513:\n        /* \"#utility.yul\":15165:15356   */\n      swap3\n      swap2\n      pop\n      pop\n      jump\t// out\n        /* \"#utility.yul\":15362:15525   */\n    tag_314:\n        /* \"#utility.yul\":15502:15517   */\n      0x496e76616c696420696e70757400000000000000000000000000000000000000\n        /* \"#utility.yul\":15498:15499   */\n      0x00\n        /* \"#utility.yul\":15490:15496   */\n      dup3\n        /* \"#utility.yul\":15486:15500   */\n      add\n        /* \"#utility.yul\":15479:15518   */\n      mstore\n        /* \"#utility.yul\":15362:15525   */\n      pop\n      jump\t// out\n        /* \"#utility.yul\":15531:15897   */\n    tag_315:\n        /* \"#utility.yul\":15673:15676   */\n      0x00\n        /* \"#utility.yul\":15694:15761   */\n      tag_517\n        /* \"#utility.yul\":15758:15760   */\n      0x0d\n        /* \"#utility.yul\":15753:15756   */\n      dup4\n        /* \"#utility.yul\":15694:15761   */\n      tag_272\n      jump\t// in\n    tag_517:\n        /* \"#utility.yul\":15687:15761   */\n      swap2\n      pop\n        /* \"#utility.yul\":15770:15863   */\n      tag_518\n        /* \"#utility.yul\":15859:15862   */\n      dup3\n        /* \"#utility.yul\":15770:15863   */\n      tag_314\n      jump\t// in\n    tag_518:\n        /* \"#utility.yul\":15888:15890   */\n      0x20\n        /* \"#utility.yul\":15883:15886   */\n      dup3\n        /* \"#utility.yul\":15879:15891   */\n      add\n        /* \"#utility.yul\":15872:15891   */\n      swap1\n      pop\n        /* \"#utility.yul\":15531:15897   */\n      swap2\n      swap1\n      pop\n      jump\t// out\n        /* \"#utility.yul\":15903:16322   */\n    tag_171:\n        /* \"#utility.yul\":16069:16073   */\n      0x00\n        /* \"#utility.yul\":16107:16109   */\n      0x20\n        /* \"#utility.yul\":16096:16105   */\n      dup3\n        /* \"#utility.yul\":16092:16110   */\n      add\n        /* \"#utility.yul\":16084:16110   */\n      swap1\n      pop\n        /* \"#utility.yul\":16156:16165   */\n      dup2\n        /* \"#utility.yul\":16150:16154   */\n      dup2\n        /* \"#utility.yul\":16146:16166   */\n      sub\n        /* \"#utility.yul\":16142:16143   */\n      0x00\n        /* \"#utility.yul\":16131:16140   */\n      dup4\n        /* \"#utility.yul\":16127:16144   */\n      add\n        /* \"#utility.yul\":16120:16167   */\n      mstore\n        /* \"#utility.yul\":16184:16315   */\n      tag_520\n        /* \"#utility.yul\":16310:16314   */\n      dup2\n        /* \"#utility.yul\":16184:16315   */\n      tag_315\n      jump\t// in\n    tag_520:\n        /* \"#utility.yul\":16176:16315   */\n      swap1\n      pop\n        /* \"#utility.yul\":15903:16322   */\n      swap2\n      swap1\n      pop\n      jump\t// out\n        /* \"#utility.yul\":16328:16508   */\n    tag_177:\n        /* \"#utility.yul\":16376:16453   */\n      0x4e487b7100000000000000000000000000000000000000000000000000000000\n        /* \"#utility.yul\":16373:16374   */\n      0x00\n        /* \"#utility.yul\":16366:16454   */\n      mstore\n        /* \"#utility.yul\":16473:16477   */\n      0x32\n        /* \"#utility.yul\":16470:16471   */\n      0x04\n        /* \"#utility.yul\":16463:16478   */\n      mstore\n        /* \"#utility.yul\":16497:16501   */\n      0x24\n        /* \"#utility.yul\":16494:16495   */\n      0x00\n        /* \"#utility.yul\":16487:16502   */\n      revert\n        /* \"#utility.yul\":16514:16696   */\n    tag_316:\n        /* \"#utility.yul\":16654:16688   */\n      0x416d6f756e74206d7573742062652067726561746572207468616e207a65726f\n        /* \"#utility.yul\":16650:16651   */\n      0x00\n        /* \"#utility.yul\":16642:16648   */\n      dup3\n        /* \"#utility.yul\":16638:16652   */\n      add\n        /* \"#utility.yul\":16631:16689   */\n      mstore\n        /* \"#utility.yul\":16514:16696   */\n      pop\n      jump\t// out\n        /* \"#utility.yul\":16702:17068   */\n    tag_317:\n        /* \"#utility.yul\":16844:16847   */\n      0x00\n        /* \"#utility.yul\":16865:16932   */\n      tag_524\n        /* \"#utility.yul\":16929:16931   */\n      0x20\n        /* \"#utility.yul\":16924:16927   */\n      dup4\n        /* \"#utility.yul\":16865:16932   */\n      tag_272\n      jump\t// in\n    tag_524:\n        /* \"#utility.yul\":16858:16932   */\n      swap2\n      pop\n        /* \"#utility.yul\":16941:17034   */\n      tag_525\n        /* \"#utility.yul\":17030:17033   */\n      dup3\n        /* \"#utility.yul\":16941:17034   */\n      tag_316\n      jump\t// in\n    tag_525:\n        /* \"#utility.yul\":17059:17061   */\n      0x20\n        /* \"#utility.yul\":17054:17057   */\n      dup3\n        /* \"#utility.yul\":17050:17062   */\n      add\n        /* \"#utility.yul\":17043:17062   */\n      swap1\n      pop\n        /* \"#utility.yul\":16702:17068   */\n      swap2\n      swap1\n      pop\n      jump\t// out\n        /* \"#utility.yul\":17074:17493   */\n    tag_180:\n        /* \"#utility.yul\":17240:17244   */\n      0x00\n        /* \"#utility.yul\":17278:17280   */\n      0x20\n        /* \"#utility.yul\":17267:17276   */\n      dup3\n        /* \"#utility.yul\":17263:17281   */\n      add\n        /* \"#utility.yul\":17255:17281   */\n      swap1\n      pop\n        /* \"#utility.yul\":17327:17336   */\n      dup2\n        /* \"#utility.yul\":17321:17325   */\n      dup2\n        /* \"#utility.yul\":17317:17337   */\n      sub\n        /* \"#utility.yul\":17313:17314   */\n      0x00\n        /* \"#utility.yul\":17302:17311   */\n      dup4\n        /* \"#utility.yul\":17298:17315   */\n      add\n        /* \"#utility.yul\":17291:17338   */\n      mstore\n        /* \"#utility.yul\":17355:17486   */\n      tag_527\n        /* \"#utility.yul\":17481:17485   */\n      dup2\n        /* \"#utility.yul\":17355:17486   */\n      tag_317\n      jump\t// in\n    tag_527:\n        /* \"#utility.yul\":17347:17486   */\n      swap1\n      pop\n        /* \"#utility.yul\":17074:17493   */\n      swap2\n      swap1\n      pop\n      jump\t// out\n        /* \"#utility.yul\":17499:17726   */\n    tag_318:\n        /* \"#utility.yul\":17639:17673   */\n      0x546f6b656e7320616c726561647920646973747269627574656420666f722074\n        /* \"#utility.yul\":17635:17636   */\n      0x00\n        /* \"#utility.yul\":17627:17633   */\n      dup3\n        /* \"#utility.yul\":17623:17637   */\n      add\n        /* \"#utility.yul\":17616:17674   */\n      mstore\n        /* \"#utility.yul\":17708:17718   */\n      0x6869732079656172000000000000000000000000000000000000000000000000\n        /* \"#utility.yul\":17703:17705   */\n      0x20\n        /* \"#utility.yul\":17695:17701   */\n      dup3\n        /* \"#utility.yul\":17691:17706   */\n      add\n        /* \"#utility.yul\":17684:17719   */\n      mstore\n        /* \"#utility.yul\":17499:17726   */\n      pop\n      jump\t// out\n        /* \"#utility.yul\":17732:18098   */\n    tag_319:\n        /* \"#utility.yul\":17874:17877   */\n      0x00\n        /* \"#utility.yul\":17895:17962   */\n      tag_530\n        /* \"#utility.yul\":17959:17961   */\n      0x28\n        /* \"#utility.yul\":17954:17957   */\n      dup4\n        /* \"#utility.yul\":17895:17962   */\n      tag_272\n      jump\t// in\n    tag_530:\n        /* \"#utility.yul\":17888:17962   */\n      swap2\n      pop\n        /* \"#utility.yul\":17971:18064   */\n      tag_531\n        /* \"#utility.yul\":18060:18063   */\n      dup3\n        /* \"#utility.yul\":17971:18064   */\n      tag_318\n      jump\t// in\n    tag_531:\n        /* \"#utility.yul\":18089:18091   */\n      0x40\n        /* \"#utility.yul\":18084:18087   */\n      dup3\n        /* \"#utility.yul\":18080:18092   */\n      add\n        /* \"#utility.yul\":18073:18092   */\n      swap1\n      pop\n        /* \"#utility.yul\":17732:18098   */\n      swap2\n      swap1\n      pop\n      jump\t// out\n        /* \"#utility.yul\":18104:18523   */\n    tag_187:\n        /* \"#utility.yul\":18270:18274   */\n      0x00\n        /* \"#utility.yul\":18308:18310   */\n      0x20\n        /* \"#utility.yul\":18297:18306   */\n      dup3\n        /* \"#utility.yul\":18293:18311   */\n      add\n        /* \"#utility.yul\":18285:18311   */\n      swap1\n      pop\n        /* \"#utility.yul\":18357:18366   */\n      dup2\n        /* \"#utility.yul\":18351:18355   */\n      dup2\n        /* \"#utility.yul\":18347:18367   */\n      sub\n        /* \"#utility.yul\":18343:18344   */\n      0x00\n        /* \"#utility.yul\":18332:18341   */\n      dup4\n        /* \"#utility.yul\":18328:18345   */\n      add\n        /* \"#utility.yul\":18321:18368   */\n      mstore\n        /* \"#utility.yul\":18385:18516   */\n      tag_533\n        /* \"#utility.yul\":18511:18515   */\n      dup2\n        /* \"#utility.yul\":18385:18516   */\n      tag_319\n      jump\t// in\n    tag_533:\n        /* \"#utility.yul\":18377:18516   */\n      swap1\n      pop\n        /* \"#utility.yul\":18104:18523   */\n      swap2\n      swap1\n      pop\n      jump\t// out\n        /* \"#utility.yul\":18529:18753   */\n    tag_320:\n        /* \"#utility.yul\":18669:18703   */\n      0x45524332303a2064656372656173656420616c6c6f77616e63652062656c6f77\n        /* \"#utility.yul\":18665:18666   */\n      0x00\n        /* \"#utility.yul\":18657:18663   */\n      dup3\n        /* \"#utility.yul\":18653:18667   */\n      add\n        /* \"#utility.yul\":18646:18704   */\n      mstore\n        /* \"#utility.yul\":18738:18745   */\n      0x207a65726f000000000000000000000000000000000000000000000000000000\n        /* \"#utility.yul\":18733:18735   */\n      0x20\n        /* \"#utility.yul\":18725:18731   */\n      dup3\n        /* \"#utility.yul\":18721:18736   */\n      add\n        /* \"#utility.yul\":18714:18746   */\n      mstore\n        /* \"#utility.yul\":18529:18753   */\n      pop\n      jump\t// out\n        /* \"#utility.yul\":18759:19125   */\n    tag_321:\n        /* \"#utility.yul\":18901:18904   */\n      0x00\n        /* \"#utility.yul\":18922:18989   */\n      tag_536\n        /* \"#utility.yul\":18986:18988   */\n      0x25\n        /* \"#utility.yul\":18981:18984   */\n      dup4\n        /* \"#utility.yul\":18922:18989   */\n      tag_272\n      jump\t// in\n    tag_536:\n        /* \"#utility.yul\":18915:18989   */\n      swap2\n      pop\n        /* \"#utility.yul\":18998:19091   */\n      tag_537\n        /* \"#utility.yul\":19087:19090   */\n      dup3\n        /* \"#utility.yul\":18998:19091   */\n      tag_320\n      jump\t// in\n    tag_537:\n        /* \"#utility.yul\":19116:19118   */\n      0x40\n        /* \"#utility.yul\":19111:19114   */\n      dup3\n        /* \"#utility.yul\":19107:19119   */\n      add\n        /* \"#utility.yul\":19100:19119   */\n      swap1\n      pop\n        /* \"#utility.yul\":18759:19125   */\n      swap2\n      swap1\n      pop\n      jump\t// out\n        /* \"#utility.yul\":19131:19550   */\n    tag_217:\n        /* \"#utility.yul\":19297:19301   */\n      0x00\n        /* \"#utility.yul\":19335:19337   */\n      0x20\n        /* \"#utility.yul\":19324:19333   */\n      dup3\n        /* \"#utility.yul\":19320:19338   */\n      add\n        /* \"#utility.yul\":19312:19338   */\n      swap1\n      pop\n        /* \"#utility.yul\":19384:19393   */\n      dup2\n        /* \"#utility.yul\":19378:19382   */\n      dup2\n        /* \"#utility.yul\":19374:19394   */\n      sub\n        /* \"#utility.yul\":19370:19371   */\n      0x00\n        /* \"#utility.yul\":19359:19368   */\n      dup4\n        /* \"#utility.yul\":19355:19372   */\n      add\n        /* \"#utility.yul\":19348:19395   */\n      mstore\n        /* \"#utility.yul\":19412:19543   */\n      tag_539\n        /* \"#utility.yul\":19538:19542   */\n      dup2\n        /* \"#utility.yul\":19412:19543   */\n      tag_321\n      jump\t// in\n    tag_539:\n        /* \"#utility.yul\":19404:19543   */\n      swap1\n      pop\n        /* \"#utility.yul\":19131:19550   */\n      swap2\n      swap1\n      pop\n      jump\t// out\n        /* \"#utility.yul\":19556:19785   */\n    tag_322:\n        /* \"#utility.yul\":19696:19730   */\n      0x4f6e6c7920636f6e7472616374206f776e65722063616e2063616c6c20746869\n        /* \"#utility.yul\":19692:19693   */\n      0x00\n        /* \"#utility.yul\":19684:19690   */\n      dup3\n        /* \"#utility.yul\":19680:19694   */\n      add\n        /* \"#utility.yul\":19673:19731   */\n      mstore\n        /* \"#utility.yul\":19765:19777   */\n      0x732066756e6374696f6e00000000000000000000000000000000000000000000\n        /* \"#utility.yul\":19760:19762   */\n      0x20\n        /* \"#utility.yul\":19752:19758   */\n      dup3\n        /* \"#utility.yul\":19748:19763   */\n      add\n        /* \"#utility.yul\":19741:19778   */\n      mstore\n        /* \"#utility.yul\":19556:19785   */\n      pop\n      jump\t// out\n        /* \"#utility.yul\":19791:20157   */\n    tag_323:\n        /* \"#utility.yul\":19933:19936   */\n      0x00\n        /* \"#utility.yul\":19954:20021   */\n      tag_542\n        /* \"#utility.yul\":20018:20020   */\n      0x2a\n        /* \"#utility.yul\":20013:20016   */\n      dup4\n        /* \"#utility.yul\":19954:20021   */\n      tag_272\n      jump\t// in\n    tag_542:\n        /* \"#utility.yul\":19947:20021   */\n      swap2\n      pop\n        /* \"#utility.yul\":20030:20123   */\n      tag_543\n        /* \"#utility.yul\":20119:20122   */\n      dup3\n        /* \"#utility.yul\":20030:20123   */\n      tag_322\n      jump\t// in\n    tag_543:\n        /* \"#utility.yul\":20148:20150   */\n      0x40\n        /* \"#utility.yul\":20143:20146   */\n      dup3\n        /* \"#utility.yul\":20139:20151   */\n      add\n        /* \"#utility.yul\":20132:20151   */\n      swap1\n      pop\n        /* \"#utility.yul\":19791:20157   */\n      swap2\n      swap1\n      pop\n      jump\t// out\n        /* \"#utility.yul\":20163:20582   */\n    tag_225:\n        /* \"#utility.yul\":20329:20333   */\n      0x00\n        /* \"#utility.yul\":20367:20369   */\n      0x20\n        /* \"#utility.yul\":20356:20365   */\n      dup3\n        /* \"#utility.yul\":20352:20370   */\n      add\n        /* \"#utility.yul\":20344:20370   */\n      swap1\n      pop\n        /* \"#utility.yul\":20416:20425   */\n      dup2\n        /* \"#utility.yul\":20410:20414   */\n      dup2\n        /* \"#utility.yul\":20406:20426   */\n      sub\n        /* \"#utility.yul\":20402:20403   */\n      0x00\n        /* \"#utility.yul\":20391:20400   */\n      dup4\n        /* \"#utility.yul\":20387:20404   */\n      add\n        /* \"#utility.yul\":20380:20427   */\n      mstore\n        /* \"#utility.yul\":20444:20575   */\n      tag_545\n        /* \"#utility.yul\":20570:20574   */\n      dup2\n        /* \"#utility.yul\":20444:20575   */\n      tag_323\n      jump\t// in\n    tag_545:\n        /* \"#utility.yul\":20436:20575   */\n      swap1\n      pop\n        /* \"#utility.yul\":20163:20582   */\n      swap2\n      swap1\n      pop\n      jump\t// out\n        /* \"#utility.yul\":20588:20782   */\n    tag_234:\n        /* \"#utility.yul\":20628:20632   */\n      0x00\n        /* \"#utility.yul\":20648:20668   */\n      tag_547\n        /* \"#utility.yul\":20666:20667   */\n      dup3\n        /* \"#utility.yul\":20648:20668   */\n      tag_283\n      jump\t// in\n    tag_547:\n        /* \"#utility.yul\":20643:20668   */\n      swap2\n      pop\n        /* \"#utility.yul\":20682:20702   */\n      tag_548\n        /* \"#utility.yul\":20700:20701   */\n      dup4\n        /* \"#utility.yul\":20682:20702   */\n      tag_283\n      jump\t// in\n    tag_548:\n        /* \"#utility.yul\":20677:20702   */\n      swap3\n      pop\n        /* \"#utility.yul\":20726:20727   */\n      dup3\n        /* \"#utility.yul\":20723:20724   */\n      dup3\n        /* \"#utility.yul\":20719:20728   */\n      sub\n        /* \"#utility.yul\":20711:20728   */\n      swap1\n      pop\n        /* \"#utility.yul\":20750:20751   */\n      dup2\n        /* \"#utility.yul\":20744:20748   */\n      dup2\n        /* \"#utility.yul\":20741:20752   */\n      gt\n        /* \"#utility.yul\":20738:20775   */\n      iszero\n      tag_549\n      jumpi\n        /* \"#utility.yul\":20755:20773   */\n      tag_550\n      tag_313\n      jump\t// in\n    tag_550:\n        /* \"#utility.yul\":20738:20775   */\n    tag_549:\n        /* \"#utility.yul\":20588:20782   */\n      swap3\n      swap2\n      pop\n      pop\n      jump\t// out\n        /* \"#utility.yul\":20788:21011   */\n    tag_324:\n        /* \"#utility.yul\":20928:20962   */\n      0x45524332303a20617070726f76652066726f6d20746865207a65726f20616464\n        /* \"#utility.yul\":20924:20925   */\n      0x00\n        /* \"#utility.yul\":20916:20922   */\n      dup3\n        /* \"#utility.yul\":20912:20926   */\n      add\n        /* \"#utility.yul\":20905:20963   */\n      mstore\n        /* \"#utility.yul\":20997:21003   */\n      0x7265737300000000000000000000000000000000000000000000000000000000\n        /* \"#utility.yul\":20992:20994   */\n      0x20\n        /* \"#utility.yul\":20984:20990   */\n      dup3\n        /* \"#utility.yul\":20980:20995   */\n      add\n        /* \"#utility.yul\":20973:21004   */\n      mstore\n        /* \"#utility.yul\":20788:21011   */\n      pop\n      jump\t// out\n        /* \"#utility.yul\":21017:21383   */\n    tag_325:\n        /* \"#utility.yul\":21159:21162   */\n      0x00\n        /* \"#utility.yul\":21180:21247   */\n      tag_553\n        /* \"#utility.yul\":21244:21246   */\n      0x24\n        /* \"#utility.yul\":21239:21242   */\n      dup4\n        /* \"#utility.yul\":21180:21247   */\n      tag_272\n      jump\t// in\n    tag_553:\n        /* \"#utility.yul\":21173:21247   */\n      swap2\n      pop\n        /* \"#utility.yul\":21256:21349   */\n      tag_554\n        /* \"#utility.yul\":21345:21348   */\n      dup3\n        /* \"#utility.yul\":21256:21349   */\n      tag_324\n      jump\t// in\n    tag_554:\n        /* \"#utility.yul\":21374:21376   */\n      0x40\n        /* \"#utility.yul\":21369:21372   */\n      dup3\n        /* \"#utility.yul\":21365:21377   */\n      add\n        /* \"#utility.yul\":21358:21377   */\n      swap1\n      pop\n        /* \"#utility.yul\":21017:21383   */\n      swap2\n      swap1\n      pop\n      jump\t// out\n        /* \"#utility.yul\":21389:21808   */\n    tag_242:\n        /* \"#utility.yul\":21555:21559   */\n      0x00\n        /* \"#utility.yul\":21593:21595   */\n      0x20\n        /* \"#utility.yul\":21582:21591   */\n      dup3\n        /* \"#utility.yul\":21578:21596   */\n      add\n        /* \"#utility.yul\":21570:21596   */\n      swap1\n      pop\n        /* \"#utility.yul\":21642:21651   */\n      dup2\n        /* \"#utility.yul\":21636:21640   */\n      dup2\n        /* \"#utility.yul\":21632:21652   */\n      sub\n        /* \"#utility.yul\":21628:21629   */\n      0x00\n        /* \"#utility.yul\":21617:21626   */\n      dup4\n        /* \"#utility.yul\":21613:21630   */\n      add\n        /* \"#utility.yul\":21606:21653   */\n      mstore\n        /* \"#utility.yul\":21670:21801   */\n      tag_556\n        /* \"#utility.yul\":21796:21800   */\n      dup2\n        /* \"#utility.yul\":21670:21801   */\n      tag_325\n      jump\t// in\n    tag_556:\n        /* \"#utility.yul\":21662:21801   */\n      swap1\n      pop\n        /* \"#utility.yul\":21389:21808   */\n      swap2\n      swap1\n      pop\n      jump\t// out\n        /* \"#utility.yul\":21814:22035   */\n    tag_326:\n        /* \"#utility.yul\":21954:21988   */\n      0x45524332303a20617070726f766520746f20746865207a65726f206164647265\n        /* \"#utility.yul\":21950:21951   */\n      0x00\n        /* \"#utility.yul\":21942:21948   */\n      dup3\n        /* \"#utility.yul\":21938:21952   */\n      add\n        /* \"#utility.yul\":21931:21989   */\n      mstore\n        /* \"#utility.yul\":22023:22027   */\n      0x7373000000000000000000000000000000000000000000000000000000000000\n        /* \"#utility.yul\":22018:22020   */\n      0x20\n        /* \"#utility.yul\":22010:22016   */\n      dup3\n        /* \"#utility.yul\":22006:22021   */\n      add\n        /* \"#utility.yul\":21999:22028   */\n      mstore\n        /* \"#utility.yul\":21814:22035   */\n      pop\n      jump\t// out\n        /* \"#utility.yul\":22041:22407   */\n    tag_327:\n        /* \"#utility.yul\":22183:22186   */\n      0x00\n        /* \"#utility.yul\":22204:22271   */\n      tag_559\n        /* \"#utility.yul\":22268:22270   */\n      0x22\n        /* \"#utility.yul\":22263:22266   */\n      dup4\n        /* \"#utility.yul\":22204:22271   */\n      tag_272\n      jump\t// in\n    tag_559:\n        /* \"#utility.yul\":22197:22271   */\n      swap2\n      pop\n        /* \"#utility.yul\":22280:22373   */\n      tag_560\n        /* \"#utility.yul\":22369:22372   */\n      dup3\n        /* \"#utility.yul\":22280:22373   */\n      tag_326\n      jump\t// in\n    tag_560:\n        /* \"#utility.yul\":22398:22400   */\n      0x40\n        /* \"#utility.yul\":22393:22396   */\n      dup3\n        /* \"#utility.yul\":22389:22401   */\n      add\n        /* \"#utility.yul\":22382:22401   */\n      swap1\n      pop\n        /* \"#utility.yul\":22041:22407   */\n      swap2\n      swap1\n      pop\n      jump\t// out\n        /* \"#utility.yul\":22413:22832   */\n    tag_245:\n        /* \"#utility.yul\":22579:22583   */\n      0x00\n        /* \"#utility.yul\":22617:22619   */\n      0x20\n        /* \"#utility.yul\":22606:22615   */\n      dup3\n        /* \"#utility.yul\":22602:22620   */\n      add\n        /* \"#utility.yul\":22594:22620   */\n      swap1\n      pop\n        /* \"#utility.yul\":22666:22675   */\n      dup2\n        /* \"#utility.yul\":22660:22664   */\n      dup2\n        /* \"#utility.yul\":22656:22676   */\n      sub\n        /* \"#utility.yul\":22652:22653   */\n      0x00\n        /* \"#utility.yul\":22641:22650   */\n      dup4\n        /* \"#utility.yul\":22637:22654   */\n      add\n        /* \"#utility.yul\":22630:22677   */\n      mstore\n        /* \"#utility.yul\":22694:22825   */\n      tag_562\n        /* \"#utility.yul\":22820:22824   */\n      dup2\n        /* \"#utility.yul\":22694:22825   */\n      tag_327\n      jump\t// in\n    tag_562:\n        /* \"#utility.yul\":22686:22825   */\n      swap1\n      pop\n        /* \"#utility.yul\":22413:22832   */\n      swap2\n      swap1\n      pop\n      jump\t// out\n        /* \"#utility.yul\":22838:23017   */\n    tag_328:\n        /* \"#utility.yul\":22978:23009   */\n      0x45524332303a20696e73756666696369656e7420616c6c6f77616e6365000000\n        /* \"#utility.yul\":22974:22975   */\n      0x00\n        /* \"#utility.yul\":22966:22972   */\n      dup3\n        /* \"#utility.yul\":22962:22976   */\n      add\n        /* \"#utility.yul\":22955:23010   */\n      mstore\n        /* \"#utility.yul\":22838:23017   */\n      pop\n      jump\t// out\n        /* \"#utility.yul\":23023:23389   */\n    tag_329:\n        /* \"#utility.yul\":23165:23168   */\n      0x00\n        /* \"#utility.yul\":23186:23253   */\n      tag_565\n        /* \"#utility.yul\":23250:23252   */\n      0x1d\n        /* \"#utility.yul\":23245:23248   */\n      dup4\n        /* \"#utility.yul\":23186:23253   */\n      tag_272\n      jump\t// in\n    tag_565:\n        /* \"#utility.yul\":23179:23253   */\n      swap2\n      pop\n        /* \"#utility.yul\":23262:23355   */\n      tag_566\n        /* \"#utility.yul\":23351:23354   */\n      dup3\n        /* \"#utility.yul\":23262:23355   */\n      tag_328\n      jump\t// in\n    tag_566:\n        /* \"#utility.yul\":23380:23382   */\n      0x20\n        /* \"#utility.yul\":23375:23378   */\n      dup3\n        /* \"#utility.yul\":23371:23383   */\n      add\n        /* \"#utility.yul\":23364:23383   */\n      swap1\n      pop\n        /* \"#utility.yul\":23023:23389   */\n      swap2\n      swap1\n      pop\n      jump\t// out\n        /* \"#utility.yul\":23395:23814   */\n    tag_252:\n        /* \"#utility.yul\":23561:23565   */\n      0x00\n        /* \"#utility.yul\":23599:23601   */\n      0x20\n        /* \"#utility.yul\":23588:23597   */\n      dup3\n        /* \"#utility.yul\":23584:23602   */\n      add\n        /* \"#utility.yul\":23576:23602   */\n      swap1\n      pop\n        /* \"#utility.yul\":23648:23657   */\n      dup2\n        /* \"#utility.yul\":23642:23646   */\n      dup2\n        /* \"#utility.yul\":23638:23658   */\n      sub\n        /* \"#utility.yul\":23634:23635   */\n      0x00\n        /* \"#utility.yul\":23623:23632   */\n      dup4\n        /* \"#utility.yul\":23619:23636   */\n      add\n        /* \"#utility.yul\":23612:23659   */\n      mstore\n        /* \"#utility.yul\":23676:23807   */\n      tag_568\n        /* \"#utility.yul\":23802:23806   */\n      dup2\n        /* \"#utility.yul\":23676:23807   */\n      tag_329\n      jump\t// in\n    tag_568:\n        /* \"#utility.yul\":23668:23807   */\n      swap1\n      pop\n        /* \"#utility.yul\":23395:23814   */\n      swap2\n      swap1\n      pop\n      jump\t// out\n        /* \"#utility.yul\":23820:24044   */\n    tag_330:\n        /* \"#utility.yul\":23960:23994   */\n      0x45524332303a207472616e736665722066726f6d20746865207a65726f206164\n        /* \"#utility.yul\":23956:23957   */\n      0x00\n        /* \"#utility.yul\":23948:23954   */\n      dup3\n        /* \"#utility.yul\":23944:23958   */\n      add\n        /* \"#utility.yul\":23937:23995   */\n      mstore\n        /* \"#utility.yul\":24029:24036   */\n      0x6472657373000000000000000000000000000000000000000000000000000000\n        /* \"#utility.yul\":24024:24026   */\n      0x20\n        /* \"#utility.yul\":24016:24022   */\n      dup3\n        /* \"#utility.yul\":24012:24027   */\n      add\n        /* \"#utility.yul\":24005:24037   */\n      mstore\n        /* \"#utility.yul\":23820:24044   */\n      pop\n      jump\t// out\n        /* \"#utility.yul\":24050:24416   */\n    tag_331:\n        /* \"#utility.yul\":24192:24195   */\n      0x00\n        /* \"#utility.yul\":24213:24280   */\n      tag_571\n        /* \"#utility.yul\":24277:24279   */\n      0x25\n        /* \"#utility.yul\":24272:24275   */\n      dup4\n        /* \"#utility.yul\":24213:24280   */\n      tag_272\n      jump\t// in\n    tag_571:\n        /* \"#utility.yul\":24206:24280   */\n      swap2\n      pop\n        /* \"#utility.yul\":24289:24382   */\n      tag_572\n        /* \"#utility.yul\":24378:24381   */\n      dup3\n        /* \"#utility.yul\":24289:24382   */\n      tag_330\n      jump\t// in\n    tag_572:\n        /* \"#utility.yul\":24407:24409   */\n      0x40\n        /* \"#utility.yul\":24402:24405   */\n      dup3\n        /* \"#utility.yul\":24398:24410   */\n      add\n        /* \"#utility.yul\":24391:24410   */\n      swap1\n      pop\n        /* \"#utility.yul\":24050:24416   */\n      swap2\n      swap1\n      pop\n      jump\t// out\n        /* \"#utility.yul\":24422:24841   */\n    tag_257:\n        /* \"#utility.yul\":24588:24592   */\n      0x00\n        /* \"#utility.yul\":24626:24628   */\n      0x20\n        /* \"#utility.yul\":24615:24624   */\n      dup3\n        /* \"#utility.yul\":24611:24629   */\n      add\n        /* \"#utility.yul\":24603:24629   */\n      swap1\n      pop\n        /* \"#utility.yul\":24675:24684   */\n      dup2\n        /* \"#utility.yul\":24669:24673   */\n      dup2\n        /* \"#utility.yul\":24665:24685   */\n      sub\n        /* \"#utility.yul\":24661:24662   */\n      0x00\n        /* \"#utility.yul\":24650:24659   */\n      dup4\n        /* \"#utility.yul\":24646:24663   */\n      add\n        /* \"#utility.yul\":24639:24686   */\n      mstore\n        /* \"#utility.yul\":24703:24834   */\n      tag_574\n        /* \"#utility.yul\":24829:24833   */\n      dup2\n        /* \"#utility.yul\":24703:24834   */\n      tag_331\n      jump\t// in\n    tag_574:\n        /* \"#utility.yul\":24695:24834   */\n      swap1\n      pop\n        /* \"#utility.yul\":24422:24841   */\n      swap2\n      swap1\n      pop\n      jump\t// out\n        /* \"#utility.yul\":24847:25069   */\n    tag_332:\n        /* \"#utility.yul\":24987:25021   */\n      0x45524332303a207472616e7366657220746f20746865207a65726f2061646472\n        /* \"#utility.yul\":24983:24984   */\n      0x00\n        /* \"#utility.yul\":24975:24981   */\n      dup3\n        /* \"#utility.yul\":24971:24985   */\n      add\n        /* \"#utility.yul\":24964:25022   */\n      mstore\n        /* \"#utility.yul\":25056:25061   */\n      0x6573730000000000000000000000000000000000000000000000000000000000\n        /* \"#utility.yul\":25051:25053   */\n      0x20\n        /* \"#utility.yul\":25043:25049   */\n      dup3\n        /* \"#utility.yul\":25039:25054   */\n      add\n        /* \"#utility.yul\":25032:25062   */\n      mstore\n        /* \"#utility.yul\":24847:25069   */\n      pop\n      jump\t// out\n        /* \"#utility.yul\":25075:25441   */\n    tag_333:\n        /* \"#utility.yul\":25217:25220   */\n      0x00\n        /* \"#utility.yul\":25238:25305   */\n      tag_577\n        /* \"#utility.yul\":25302:25304   */\n      0x23\n        /* \"#utility.yul\":25297:25300   */\n      dup4\n        /* \"#utility.yul\":25238:25305   */\n      tag_272\n      jump\t// in\n    tag_577:\n        /* \"#utility.yul\":25231:25305   */\n      swap2\n      pop\n        /* \"#utility.yul\":25314:25407   */\n      tag_578\n        /* \"#utility.yul\":25403:25406   */\n      dup3\n        /* \"#utility.yul\":25314:25407   */\n      tag_332\n      jump\t// in\n    tag_578:\n        /* \"#utility.yul\":25432:25434   */\n      0x40\n        /* \"#utility.yul\":25427:25430   */\n      dup3\n        /* \"#utility.yul\":25423:25435   */\n      add\n        /* \"#utility.yul\":25416:25435   */\n      swap1\n      pop\n        /* \"#utility.yul\":25075:25441   */\n      swap2\n      swap1\n      pop\n      jump\t// out\n        /* \"#utility.yul\":25447:25866   */\n    tag_260:\n        /* \"#utility.yul\":25613:25617   */\n      0x00\n        /* \"#utility.yul\":25651:25653   */\n      0x20\n        /* \"#utility.yul\":25640:25649   */\n      dup3\n        /* \"#utility.yul\":25636:25654   */\n      add\n        /* \"#utility.yul\":25628:25654   */\n      swap1\n      pop\n        /* \"#utility.yul\":25700:25709   */\n      dup2\n        /* \"#utility.yul\":25694:25698   */\n      dup2\n        /* \"#utility.yul\":25690:25710   */\n      sub\n        /* \"#utility.yul\":25686:25687   */\n      0x00\n        /* \"#utility.yul\":25675:25684   */\n      dup4\n        /* \"#utility.yul\":25671:25688   */\n      add\n        /* \"#utility.yul\":25664:25711   */\n      mstore\n        /* \"#utility.yul\":25728:25859   */\n      tag_580\n        /* \"#utility.yul\":25854:25858   */\n      dup2\n        /* \"#utility.yul\":25728:25859   */\n      tag_333\n      jump\t// in\n    tag_580:\n        /* \"#utility.yul\":25720:25859   */\n      swap1\n      pop\n        /* \"#utility.yul\":25447:25866   */\n      swap2\n      swap1\n      pop\n      jump\t// out\n        /* \"#utility.yul\":25872:26097   */\n    tag_334:\n        /* \"#utility.yul\":26012:26046   */\n      0x45524332303a207472616e7366657220616d6f756e7420657863656564732062\n        /* \"#utility.yul\":26008:26009   */\n      0x00\n        /* \"#utility.yul\":26000:26006   */\n      dup3\n        /* \"#utility.yul\":25996:26010   */\n      add\n        /* \"#utility.yul\":25989:26047   */\n      mstore\n        /* \"#utility.yul\":26081:26089   */\n      0x616c616e63650000000000000000000000000000000000000000000000000000\n        /* \"#utility.yul\":26076:26078   */\n      0x20\n        /* \"#utility.yul\":26068:26074   */\n      dup3\n        /* \"#utility.yul\":26064:26079   */\n      add\n        /* \"#utility.yul\":26057:26090   */\n      mstore\n        /* \"#utility.yul\":25872:26097   */\n      pop\n      jump\t// out\n        /* \"#utility.yul\":26103:26469   */\n    tag_335:\n        /* \"#utility.yul\":26245:26248   */\n      0x00\n        /* \"#utility.yul\":26266:26333   */\n      tag_583\n        /* \"#utility.yul\":26330:26332   */\n      0x26\n        /* \"#utility.yul\":26325:26328   */\n      dup4\n        /* \"#utility.yul\":26266:26333   */\n      tag_272\n      jump\t// in\n    tag_583:\n        /* \"#utility.yul\":26259:26333   */\n      swap2\n      pop\n        /* \"#utility.yul\":26342:26435   */\n      tag_584\n        /* \"#utility.yul\":26431:26434   */\n      dup3\n        /* \"#utility.yul\":26342:26435   */\n      tag_334\n      jump\t// in\n    tag_584:\n        /* \"#utility.yul\":26460:26462   */\n      0x40\n        /* \"#utility.yul\":26455:26458   */\n      dup3\n        /* \"#utility.yul\":26451:26463   */\n      add\n        /* \"#utility.yul\":26444:26463   */\n      swap1\n      pop\n        /* \"#utility.yul\":26103:26469   */\n      swap2\n      swap1\n      pop\n      jump\t// out\n        /* \"#utility.yul\":26475:26894   */\n    tag_265:\n        /* \"#utility.yul\":26641:26645   */\n      0x00\n        /* \"#utility.yul\":26679:26681   */\n      0x20\n        /* \"#utility.yul\":26668:26677   */\n      dup3\n        /* \"#utility.yul\":26664:26682   */\n      add\n        /* \"#utility.yul\":26656:26682   */\n      swap1\n      pop\n        /* \"#utility.yul\":26728:26737   */\n      dup2\n        /* \"#utility.yul\":26722:26726   */\n      dup2\n        /* \"#utility.yul\":26718:26738   */\n      sub\n        /* \"#utility.yul\":26714:26715   */\n      0x00\n        /* \"#utility.yul\":26703:26712   */\n      dup4\n        /* \"#utility.yul\":26699:26716   */\n      add\n        /* \"#utility.yul\":26692:26739   */\n      mstore\n        /* \"#utility.yul\":26756:26887   */\n      tag_586\n        /* \"#utility.yul\":26882:26886   */\n      dup2\n        /* \"#utility.yul\":26756:26887   */\n      tag_335\n      jump\t// in\n    tag_586:\n        /* \"#utility.yul\":26748:26887   */\n      swap1\n      pop\n        /* \"#utility.yul\":26475:26894   */\n      swap2\n      swap1\n      pop\n      jump\t// out\n\n    auxdata: 0xa26469706673582212209c08b01419dbf2ca6e997b4e0358655803aca98bedca03ce0d2faefb8a2b8c5164736f6c63430008120033\n}\n",
				"bytecode": {
					"linkReferences": {},
					"object": "60806040526040518060400160405280600281526020017f43540000000000000000000000000000000000000000000000000000000000008152506040518060400160405280600281526020017f435400000000000000000000000000000000000000000000000000000000000081525081600390816200008191906200051e565b5080600490816200009391906200051e565b505050620000d533620000ab6200012460201b60201c565b600a620000b9919062000795565b620f4240620000c99190620007e6565b6200012d60201b60201c565b33600a60006101000a81548173ffffffffffffffffffffffffffffffffffffffff021916908373ffffffffffffffffffffffffffffffffffffffff16021790555060016009819055506200091d565b60006012905090565b600073ffffffffffffffffffffffffffffffffffffffff168273ffffffffffffffffffffffffffffffffffffffff16036200019f576040517f08c379a0000000000000000000000000000000000000000000000000000000008152600401620001969062000892565b60405180910390fd5b620001b3600083836200029a60201b60201c565b8060026000828254620001c79190620008b4565b92505081905550806000808473ffffffffffffffffffffffffffffffffffffffff1673ffffffffffffffffffffffffffffffffffffffff168152602001908152602001600020600082825401925050819055508173ffffffffffffffffffffffffffffffffffffffff16600073ffffffffffffffffffffffffffffffffffffffff167fddf252ad1be2c89b69c2b068fc378daa952ba7f163c4a11628f55a4df523b3ef836040516200027a919062000900565b60405180910390a362000296600083836200029f60201b60201c565b5050565b505050565b505050565b600081519050919050565b7f4e487b7100000000000000000000000000000000000000000000000000000000600052604160045260246000fd5b7f4e487b7100000000000000000000000000000000000000000000000000000000600052602260045260246000fd5b600060028204905060018216806200032657607f821691505b6020821081036200033c576200033b620002de565b5b50919050565b60008190508160005260206000209050919050565b60006020601f8301049050919050565b600082821b905092915050565b600060088302620003a67fffffffffffffffffffffffffffffffffffffffffffffffffffffffffffffffff8262000367565b620003b2868362000367565b95508019841693508086168417925050509392505050565b6000819050919050565b6000819050919050565b6000620003ff620003f9620003f384620003ca565b620003d4565b620003ca565b9050919050565b6000819050919050565b6200041b83620003de565b620004336200042a8262000406565b84845462000374565b825550505050565b600090565b6200044a6200043b565b6200045781848462000410565b505050565b5b818110156200047f576200047360008262000440565b6001810190506200045d565b5050565b601f821115620004ce57620004988162000342565b620004a38462000357565b81016020851015620004b3578190505b620004cb620004c28562000357565b8301826200045c565b50505b505050565b600082821c905092915050565b6000620004f360001984600802620004d3565b1980831691505092915050565b60006200050e8383620004e0565b9150826002028217905092915050565b6200052982620002a4565b67ffffffffffffffff811115620005455762000544620002af565b5b6200055182546200030d565b6200055e82828562000483565b600060209050601f83116001811462000596576000841562000581578287015190505b6200058d858262000500565b865550620005fd565b601f198416620005a68662000342565b60005b82811015620005d057848901518255600182019150602085019450602081019050620005a9565b86831015620005f05784890151620005ec601f891682620004e0565b8355505b6001600288020188555050505b505050505050565b7f4e487b7100000000000000000000000000000000000000000000000000000000600052601160045260246000fd5b60008160011c9050919050565b6000808291508390505b600185111562000693578086048111156200066b576200066a62000605565b5b60018516156200067b5780820291505b80810290506200068b8562000634565b94506200064b565b94509492505050565b600082620006ae576001905062000781565b81620006be576000905062000781565b8160018114620006d75760028114620006e25762000718565b600191505062000781565b60ff841115620006f757620006f662000605565b5b8360020a91508482111562000711576200071062000605565b5b5062000781565b5060208310610133831016604e8410600b8410161715620007525782820a9050838111156200074c576200074b62000605565b5b62000781565b62000761848484600162000641565b925090508184048111156200077b576200077a62000605565b5b81810290505b9392505050565b600060ff82169050919050565b6000620007a282620003ca565b9150620007af8362000788565b9250620007de7fffffffffffffffffffffffffffffffffffffffffffffffffffffffffffffffff84846200069c565b905092915050565b6000620007f382620003ca565b91506200080083620003ca565b92508282026200081081620003ca565b915082820484148315176200082a576200082962000605565b5b5092915050565b600082825260208201905092915050565b7f45524332303a206d696e7420746f20746865207a65726f206164647265737300600082015250565b60006200087a601f8362000831565b9150620008878262000842565b602082019050919050565b60006020820190508181036000830152620008ad816200086b565b9050919050565b6000620008c182620003ca565b9150620008ce83620003ca565b9250828201905080821115620008e957620008e862000605565b5b92915050565b620008fa81620003ca565b82525050565b6000602082019050620009176000830184620008ef565b92915050565b6121cd806200092d6000396000f3fe6080604052600436106101395760003560e01c80634bd09c2a116100ab57806395d89b411161006f57806395d89b4114610447578063a457c2d714610472578063a9059cbb146104af578063d8e3fa68146104ec578063dd62ed3e14610515578063f6326fb31461055257610140565b80634bd09c2a146103505780636d23932e146103795780636f9fb98a146103b657806370a08231146103e1578063865cf7881461041e57610140565b8063294715d8116100fd578063294715d81461022c5780632eb4a7ab146102555780632ecd4e7d14610280578063313ce567146102bd57806339509351146102e85780633f52f56b1461032557610140565b806306fdde0314610145578063095ea7b314610170578063146bea7b146101ad57806318160ddd146101c457806323b872dd146101ef57610140565b3661014057005b600080fd5b34801561015157600080fd5b5061015a61055c565b6040516101679190611358565b60405180910390f35b34801561017c57600080fd5b5061019760048036038101906101929190611422565b6105ee565b6040516101a4919061147d565b60405180910390f35b3480156101b957600080fd5b506101c2610611565b005b3480156101d057600080fd5b506101d961062b565b6040516101e691906114a7565b60405180910390f35b3480156101fb57600080fd5b50610216600480360381019061021191906114c2565b610635565b604051610223919061147d565b60405180910390f35b34801561023857600080fd5b50610253600480360381019061024e9190611553565b610664565b005b34801561026157600080fd5b5061026a6106af565b60405161027791906115ac565b60405180910390f35b34801561028c57600080fd5b506102a760048036038101906102a291906115c7565b6106b5565b6040516102b491906114a7565b60405180910390f35b3480156102c957600080fd5b506102d26106cd565b6040516102df9190611610565b60405180910390f35b3480156102f457600080fd5b5061030f600480360381019061030a9190611422565b6106d6565b60405161031c919061147d565b60405180910390f35b34801561033157600080fd5b5061033a61070d565b60405161034791906114a7565b60405180910390f35b34801561035c57600080fd5b5061037760048036038101906103729190611836565b610713565b005b34801561038557600080fd5b506103a0600480360381019061039b91906115c7565b610978565b6040516103ad919061147d565b60405180910390f35b3480156103c257600080fd5b506103cb610998565b6040516103d891906114a7565b60405180910390f35b3480156103ed57600080fd5b50610408600480360381019061040391906115c7565b6109a0565b60405161041591906114a7565b60405180910390f35b34801561042a57600080fd5b506104456004803603810190610440919061199d565b6109e8565b005b34801561045357600080fd5b5061045c610ae4565b6040516104699190611358565b60405180910390f35b34801561047e57600080fd5b5061049960048036038101906104949190611422565b610b76565b6040516104a6919061147d565b60405180910390f35b3480156104bb57600080fd5b506104d660048036038101906104d19190611422565b610bed565b6040516104e3919061147d565b60405180910390f35b3480156104f857600080fd5b50610513600480360381019061050e9190611422565b610c10565b005b34801561052157600080fd5b5061053c60048036038101906105379190611a15565b610d62565b60405161054991906114a7565b60405180910390f35b61055a610de9565b005b60606003805461056b90611a84565b80601f016020809104026020016040519081016040528092919081815260200182805461059790611a84565b80156105e45780601f106105b9576101008083540402835291602001916105e4565b820191906000526020600020905b8154815290600101906020018083116105c757829003601f168201915b5050505050905090565b6000806105f9610deb565b9050610606818585610df3565b600191505092915050565b6009600081548092919061062490611ae4565b9190505550565b6000600254905090565b600080610640610deb565b905061064d858285610fbc565b610658858585611048565b60019150509392505050565b8173ffffffffffffffffffffffffffffffffffffffff166108fc829081150290604051600060405180830381858888f193505050501580156106aa573d6000803e3d6000fd5b505050565b60055481565b60076020528060005260406000206000915090505481565b60006012905090565b6000806106e1610deb565b90506107028185856106f38589610d62565b6106fd9190611b2c565b610df3565b600191505092915050565b6103e881565b8051825114610757576040517f08c379a000000000000000000000000000000000000000000000000000000000815260040161074e90611bac565b60405180910390fd5b60005b825181101561097357600082828151811061077857610777611bcc565b5b6020026020010151116107c0576040517f08c379a00000000000000000000000000000000000000000000000000000000081526004016107b790611c47565b60405180910390fd5b60008382815181106107d5576107d4611bcc565b5b6020026020010151905060008383815181106107f4576107f3611bcc565b5b60200260200101519050600860008373ffffffffffffffffffffffffffffffffffffffff1673ffffffffffffffffffffffffffffffffffffffff16815260200190815260200160002060000160019054906101000a900460ff161561088e576040517f08c379a000000000000000000000000000000000000000000000000000000000815260040161088590611cd9565b60405180910390fd5b600860008373ffffffffffffffffffffffffffffffffffffffff1673ffffffffffffffffffffffffffffffffffffffff16815260200190815260200160002060000160009054906101000a900460ff16156108f5576108f033836103e8611048565b610903565b61090233836103e8611048565b5b6001600860008473ffffffffffffffffffffffffffffffffffffffff1673ffffffffffffffffffffffffffffffffffffffff16815260200190815260200160002060000160016101000a81548160ff0219169083151502179055505050808061096b90611ae4565b91505061075a565b505050565b60066020528060005260406000206000915054906101000a900460ff1681565b600047905090565b60008060008373ffffffffffffffffffffffffffffffffffffffff1673ffffffffffffffffffffffffffffffffffffffff168152602001908152602001600020549050919050565b8051825114610a2c576040517f08c379a0000000000000000000000000000000000000000000000000000000008152600401610a2390611bac565b60405180910390fd5b60005b8251811015610adf576000838281518110610a4d57610a4c611bcc565b5b60200260200101519050828281518110610a6a57610a69611bcc565b5b6020026020010151600860008373ffffffffffffffffffffffffffffffffffffffff1673ffffffffffffffffffffffffffffffffffffffff16815260200190815260200160002060000160006101000a81548160ff021916908315150217905550508080610ad790611ae4565b915050610a2f565b505050565b606060048054610af390611a84565b80601f0160208091040260200160405190810160405280929190818152602001828054610b1f90611a84565b8015610b6c5780601f10610b4157610100808354040283529160200191610b6c565b820191906000526020600020905b815481529060010190602001808311610b4f57829003601f168201915b5050505050905090565b600080610b81610deb565b90506000610b8f8286610d62565b905083811015610bd4576040517f08c379a0000000000000000000000000000000000000000000000000000000008152600401610bcb90611d6b565b60405180910390fd5b610be18286868403610df3565b60019250505092915050565b600080610bf8610deb565b9050610c05818585611048565b600191505092915050565b3073ffffffffffffffffffffffffffffffffffffffff163373ffffffffffffffffffffffffffffffffffffffff1614610c7e576040517f08c379a0000000000000000000000000000000000000000000000000000000008152600401610c7590611dfd565b60405180910390fd5b80610c88836109a0565b10610cbf57610cba82600a60009054906101000a900473ffffffffffffffffffffffffffffffffffffffff1683611048565b610d5e565b610cf482600a60009054906101000a900473ffffffffffffffffffffffffffffffffffffffff16610cef856109a0565b611048565b610cfd826109a0565b81610d089190611e1d565b600760008473ffffffffffffffffffffffffffffffffffffffff1673ffffffffffffffffffffffffffffffffffffffff1681526020019081526020016000206000828254610d569190611b2c565b925050819055505b5050565b6000600160008473ffffffffffffffffffffffffffffffffffffffff1673ffffffffffffffffffffffffffffffffffffffff16815260200190815260200160002060008373ffffffffffffffffffffffffffffffffffffffff1673ffffffffffffffffffffffffffffffffffffffff16815260200190815260200160002054905092915050565b565b600033905090565b600073ffffffffffffffffffffffffffffffffffffffff168373ffffffffffffffffffffffffffffffffffffffff1603610e62576040517f08c379a0000000000000000000000000000000000000000000000000000000008152600401610e5990611ec3565b60405180910390fd5b600073ffffffffffffffffffffffffffffffffffffffff168273ffffffffffffffffffffffffffffffffffffffff1603610ed1576040517f08c379a0000000000000000000000000000000000000000000000000000000008152600401610ec890611f55565b60405180910390fd5b80600160008573ffffffffffffffffffffffffffffffffffffffff1673ffffffffffffffffffffffffffffffffffffffff16815260200190815260200160002060008473ffffffffffffffffffffffffffffffffffffffff1673ffffffffffffffffffffffffffffffffffffffff168152602001908152602001600020819055508173ffffffffffffffffffffffffffffffffffffffff168373ffffffffffffffffffffffffffffffffffffffff167f8c5be1e5ebec7d5bd14f71427d1e84f3dd0314c0f7b2291e5b200ac8c7c3b92583604051610faf91906114a7565b60405180910390a3505050565b6000610fc88484610d62565b90507fffffffffffffffffffffffffffffffffffffffffffffffffffffffffffffffff81146110425781811015611034576040517f08c379a000000000000000000000000000000000000000000000000000000000815260040161102b90611fc1565b60405180910390fd5b6110418484848403610df3565b5b50505050565b600073ffffffffffffffffffffffffffffffffffffffff168373ffffffffffffffffffffffffffffffffffffffff16036110b7576040517f08c379a00000000000000000000000000000000000000000000000000000000081526004016110ae90612053565b60405180910390fd5b600073ffffffffffffffffffffffffffffffffffffffff168273ffffffffffffffffffffffffffffffffffffffff1603611126576040517f08c379a000000000000000000000000000000000000000000000000000000000815260040161111d906120e5565b60405180910390fd5b6111318383836112be565b60008060008573ffffffffffffffffffffffffffffffffffffffff1673ffffffffffffffffffffffffffffffffffffffff168152602001908152602001600020549050818110156111b7576040517f08c379a00000000000000000000000000000000000000000000000000000000081526004016111ae90612177565b60405180910390fd5b8181036000808673ffffffffffffffffffffffffffffffffffffffff1673ffffffffffffffffffffffffffffffffffffffff16815260200190815260200160002081905550816000808573ffffffffffffffffffffffffffffffffffffffff1673ffffffffffffffffffffffffffffffffffffffff168152602001908152602001600020600082825401925050819055508273ffffffffffffffffffffffffffffffffffffffff168473ffffffffffffffffffffffffffffffffffffffff167fddf252ad1be2c89b69c2b068fc378daa952ba7f163c4a11628f55a4df523b3ef846040516112a591906114a7565b60405180910390a36112b88484846112c3565b50505050565b505050565b505050565b600081519050919050565b600082825260208201905092915050565b60005b838110156113025780820151818401526020810190506112e7565b60008484015250505050565b6000601f19601f8301169050919050565b600061132a826112c8565b61133481856112d3565b93506113448185602086016112e4565b61134d8161130e565b840191505092915050565b60006020820190508181036000830152611372818461131f565b905092915050565b6000604051905090565b600080fd5b600080fd5b600073ffffffffffffffffffffffffffffffffffffffff82169050919050565b60006113b98261138e565b9050919050565b6113c9816113ae565b81146113d457600080fd5b50565b6000813590506113e6816113c0565b92915050565b6000819050919050565b6113ff816113ec565b811461140a57600080fd5b50565b60008135905061141c816113f6565b92915050565b6000806040838503121561143957611438611384565b5b6000611447858286016113d7565b92505060206114588582860161140d565b9150509250929050565b60008115159050919050565b61147781611462565b82525050565b6000602082019050611492600083018461146e565b92915050565b6114a1816113ec565b82525050565b60006020820190506114bc6000830184611498565b92915050565b6000806000606084860312156114db576114da611384565b5b60006114e9868287016113d7565b93505060206114fa868287016113d7565b925050604061150b8682870161140d565b9150509250925092565b60006115208261138e565b9050919050565b61153081611515565b811461153b57600080fd5b50565b60008135905061154d81611527565b92915050565b6000806040838503121561156a57611569611384565b5b60006115788582860161153e565b92505060206115898582860161140d565b9150509250929050565b6000819050919050565b6115a681611593565b82525050565b60006020820190506115c1600083018461159d565b92915050565b6000602082840312156115dd576115dc611384565b5b60006115eb848285016113d7565b91505092915050565b600060ff82169050919050565b61160a816115f4565b82525050565b60006020820190506116256000830184611601565b92915050565b600080fd5b7f4e487b7100000000000000000000000000000000000000000000000000000000600052604160045260246000fd5b6116688261130e565b810181811067ffffffffffffffff8211171561168757611686611630565b5b80604052505050565b600061169a61137a565b90506116a6828261165f565b919050565b600067ffffffffffffffff8211156116c6576116c5611630565b5b602082029050602081019050919050565b600080fd5b60006116ef6116ea846116ab565b611690565b90508083825260208201905060208402830185811115611712576117116116d7565b5b835b8181101561173b578061172788826113d7565b845260208401935050602081019050611714565b5050509392505050565b600082601f83011261175a5761175961162b565b5b813561176a8482602086016116dc565b91505092915050565b600067ffffffffffffffff82111561178e5761178d611630565b5b602082029050602081019050919050565b60006117b26117ad84611773565b611690565b905080838252602082019050602084028301858111156117d5576117d46116d7565b5b835b818110156117fe57806117ea888261140d565b8452602084019350506020810190506117d7565b5050509392505050565b600082601f83011261181d5761181c61162b565b5b813561182d84826020860161179f565b91505092915050565b6000806040838503121561184d5761184c611384565b5b600083013567ffffffffffffffff81111561186b5761186a611389565b5b61187785828601611745565b925050602083013567ffffffffffffffff81111561189857611897611389565b5b6118a485828601611808565b9150509250929050565b600067ffffffffffffffff8211156118c9576118c8611630565b5b602082029050602081019050919050565b6118e381611462565b81146118ee57600080fd5b50565b600081359050611900816118da565b92915050565b6000611919611914846118ae565b611690565b9050808382526020820190506020840283018581111561193c5761193b6116d7565b5b835b81811015611965578061195188826118f1565b84526020840193505060208101905061193e565b5050509392505050565b600082601f8301126119845761198361162b565b5b8135611994848260208601611906565b91505092915050565b600080604083850312156119b4576119b3611384565b5b600083013567ffffffffffffffff8111156119d2576119d1611389565b5b6119de85828601611745565b925050602083013567ffffffffffffffff8111156119ff576119fe611389565b5b611a0b8582860161196f565b9150509250929050565b60008060408385031215611a2c57611a2b611384565b5b6000611a3a858286016113d7565b9250506020611a4b858286016113d7565b9150509250929050565b7f4e487b7100000000000000000000000000000000000000000000000000000000600052602260045260246000fd5b60006002820490506001821680611a9c57607f821691505b602082108103611aaf57611aae611a55565b5b50919050565b7f4e487b7100000000000000000000000000000000000000000000000000000000600052601160045260246000fd5b6000611aef826113ec565b91507fffffffffffffffffffffffffffffffffffffffffffffffffffffffffffffffff8203611b2157611b20611ab5565b5b600182019050919050565b6000611b37826113ec565b9150611b42836113ec565b9250828201905080821115611b5a57611b59611ab5565b5b92915050565b7f496e76616c696420696e70757400000000000000000000000000000000000000600082015250565b6000611b96600d836112d3565b9150611ba182611b60565b602082019050919050565b60006020820190508181036000830152611bc581611b89565b9050919050565b7f4e487b7100000000000000000000000000000000000000000000000000000000600052603260045260246000fd5b7f416d6f756e74206d7573742062652067726561746572207468616e207a65726f600082015250565b6000611c316020836112d3565b9150611c3c82611bfb565b602082019050919050565b60006020820190508181036000830152611c6081611c24565b9050919050565b7f546f6b656e7320616c726561647920646973747269627574656420666f72207460008201527f6869732079656172000000000000000000000000000000000000000000000000602082015250565b6000611cc36028836112d3565b9150611cce82611c67565b604082019050919050565b60006020820190508181036000830152611cf281611cb6565b9050919050565b7f45524332303a2064656372656173656420616c6c6f77616e63652062656c6f7760008201527f207a65726f000000000000000000000000000000000000000000000000000000602082015250565b6000611d556025836112d3565b9150611d6082611cf9565b604082019050919050565b60006020820190508181036000830152611d8481611d48565b9050919050565b7f4f6e6c7920636f6e7472616374206f776e65722063616e2063616c6c2074686960008201527f732066756e6374696f6e00000000000000000000000000000000000000000000602082015250565b6000611de7602a836112d3565b9150611df282611d8b565b604082019050919050565b60006020820190508181036000830152611e1681611dda565b9050919050565b6000611e28826113ec565b9150611e33836113ec565b9250828203905081811115611e4b57611e4a611ab5565b5b92915050565b7f45524332303a20617070726f76652066726f6d20746865207a65726f2061646460008201527f7265737300000000000000000000000000000000000000000000000000000000602082015250565b6000611ead6024836112d3565b9150611eb882611e51565b604082019050919050565b60006020820190508181036000830152611edc81611ea0565b9050919050565b7f45524332303a20617070726f766520746f20746865207a65726f20616464726560008201527f7373000000000000000000000000000000000000000000000000000000000000602082015250565b6000611f3f6022836112d3565b9150611f4a82611ee3565b604082019050919050565b60006020820190508181036000830152611f6e81611f32565b9050919050565b7f45524332303a20696e73756666696369656e7420616c6c6f77616e6365000000600082015250565b6000611fab601d836112d3565b9150611fb682611f75565b602082019050919050565b60006020820190508181036000830152611fda81611f9e565b9050919050565b7f45524332303a207472616e736665722066726f6d20746865207a65726f20616460008201527f6472657373000000000000000000000000000000000000000000000000000000602082015250565b600061203d6025836112d3565b915061204882611fe1565b604082019050919050565b6000602082019050818103600083015261206c81612030565b9050919050565b7f45524332303a207472616e7366657220746f20746865207a65726f206164647260008201527f6573730000000000000000000000000000000000000000000000000000000000602082015250565b60006120cf6023836112d3565b91506120da82612073565b604082019050919050565b600060208201905081810360008301526120fe816120c2565b9050919050565b7f45524332303a207472616e7366657220616d6f756e742065786365656473206260008201527f616c616e63650000000000000000000000000000000000000000000000000000602082015250565b60006121616026836112d3565b915061216c82612105565b604082019050919050565b6000602082019050818103600083015261219081612154565b905091905056fea26469706673582212209c08b01419dbf2ca6e997b4e0358655803aca98bedca03ce0d2faefb8a2b8c5164736f6c63430008120033",
					"opcodes": "PUSH1 0x80 PUSH1 0x40 MSTORE PUSH1 0x40 MLOAD DUP1 PUSH1 0x40 ADD PUSH1 0x40 MSTORE DUP1 PUSH1 0x2 DUP2 MSTORE PUSH1 0x20 ADD PUSH32 0x4354000000000000000000000000000000000000000000000000000000000000 DUP2 MSTORE POP PUSH1 0x40 MLOAD DUP1 PUSH1 0x40 ADD PUSH1 0x40 MSTORE DUP1 PUSH1 0x2 DUP2 MSTORE PUSH1 0x20 ADD PUSH32 0x4354000000000000000000000000000000000000000000000000000000000000 DUP2 MSTORE POP DUP2 PUSH1 0x3 SWAP1 DUP2 PUSH3 0x81 SWAP2 SWAP1 PUSH3 0x51E JUMP JUMPDEST POP DUP1 PUSH1 0x4 SWAP1 DUP2 PUSH3 0x93 SWAP2 SWAP1 PUSH3 0x51E JUMP JUMPDEST POP POP POP PUSH3 0xD5 CALLER PUSH3 0xAB PUSH3 0x124 PUSH1 0x20 SHL PUSH1 0x20 SHR JUMP JUMPDEST PUSH1 0xA PUSH3 0xB9 SWAP2 SWAP1 PUSH3 0x795 JUMP JUMPDEST PUSH3 0xF4240 PUSH3 0xC9 SWAP2 SWAP1 PUSH3 0x7E6 JUMP JUMPDEST PUSH3 0x12D PUSH1 0x20 SHL PUSH1 0x20 SHR JUMP JUMPDEST CALLER PUSH1 0xA PUSH1 0x0 PUSH2 0x100 EXP DUP2 SLOAD DUP2 PUSH20 0xFFFFFFFFFFFFFFFFFFFFFFFFFFFFFFFFFFFFFFFF MUL NOT AND SWAP1 DUP4 PUSH20 0xFFFFFFFFFFFFFFFFFFFFFFFFFFFFFFFFFFFFFFFF AND MUL OR SWAP1 SSTORE POP PUSH1 0x1 PUSH1 0x9 DUP2 SWAP1 SSTORE POP PUSH3 0x91D JUMP JUMPDEST PUSH1 0x0 PUSH1 0x12 SWAP1 POP SWAP1 JUMP JUMPDEST PUSH1 0x0 PUSH20 0xFFFFFFFFFFFFFFFFFFFFFFFFFFFFFFFFFFFFFFFF AND DUP3 PUSH20 0xFFFFFFFFFFFFFFFFFFFFFFFFFFFFFFFFFFFFFFFF AND SUB PUSH3 0x19F JUMPI PUSH1 0x40 MLOAD PUSH32 0x8C379A000000000000000000000000000000000000000000000000000000000 DUP2 MSTORE PUSH1 0x4 ADD PUSH3 0x196 SWAP1 PUSH3 0x892 JUMP JUMPDEST PUSH1 0x40 MLOAD DUP1 SWAP2 SUB SWAP1 REVERT JUMPDEST PUSH3 0x1B3 PUSH1 0x0 DUP4 DUP4 PUSH3 0x29A PUSH1 0x20 SHL PUSH1 0x20 SHR JUMP JUMPDEST DUP1 PUSH1 0x2 PUSH1 0x0 DUP3 DUP3 SLOAD PUSH3 0x1C7 SWAP2 SWAP1 PUSH3 0x8B4 JUMP JUMPDEST SWAP3 POP POP DUP2 SWAP1 SSTORE POP DUP1 PUSH1 0x0 DUP1 DUP5 PUSH20 0xFFFFFFFFFFFFFFFFFFFFFFFFFFFFFFFFFFFFFFFF AND PUSH20 0xFFFFFFFFFFFFFFFFFFFFFFFFFFFFFFFFFFFFFFFF AND DUP2 MSTORE PUSH1 0x20 ADD SWAP1 DUP2 MSTORE PUSH1 0x20 ADD PUSH1 0x0 KECCAK256 PUSH1 0x0 DUP3 DUP3 SLOAD ADD SWAP3 POP POP DUP2 SWAP1 SSTORE POP DUP2 PUSH20 0xFFFFFFFFFFFFFFFFFFFFFFFFFFFFFFFFFFFFFFFF AND PUSH1 0x0 PUSH20 0xFFFFFFFFFFFFFFFFFFFFFFFFFFFFFFFFFFFFFFFF AND PUSH32 0xDDF252AD1BE2C89B69C2B068FC378DAA952BA7F163C4A11628F55A4DF523B3EF DUP4 PUSH1 0x40 MLOAD PUSH3 0x27A SWAP2 SWAP1 PUSH3 0x900 JUMP JUMPDEST PUSH1 0x40 MLOAD DUP1 SWAP2 SUB SWAP1 LOG3 PUSH3 0x296 PUSH1 0x0 DUP4 DUP4 PUSH3 0x29F PUSH1 0x20 SHL PUSH1 0x20 SHR JUMP JUMPDEST POP POP JUMP JUMPDEST POP POP POP JUMP JUMPDEST POP POP POP JUMP JUMPDEST PUSH1 0x0 DUP2 MLOAD SWAP1 POP SWAP2 SWAP1 POP JUMP JUMPDEST PUSH32 0x4E487B7100000000000000000000000000000000000000000000000000000000 PUSH1 0x0 MSTORE PUSH1 0x41 PUSH1 0x4 MSTORE PUSH1 0x24 PUSH1 0x0 REVERT JUMPDEST PUSH32 0x4E487B7100000000000000000000000000000000000000000000000000000000 PUSH1 0x0 MSTORE PUSH1 0x22 PUSH1 0x4 MSTORE PUSH1 0x24 PUSH1 0x0 REVERT JUMPDEST PUSH1 0x0 PUSH1 0x2 DUP3 DIV SWAP1 POP PUSH1 0x1 DUP3 AND DUP1 PUSH3 0x326 JUMPI PUSH1 0x7F DUP3 AND SWAP2 POP JUMPDEST PUSH1 0x20 DUP3 LT DUP2 SUB PUSH3 0x33C JUMPI PUSH3 0x33B PUSH3 0x2DE JUMP JUMPDEST JUMPDEST POP SWAP2 SWAP1 POP JUMP JUMPDEST PUSH1 0x0 DUP2 SWAP1 POP DUP2 PUSH1 0x0 MSTORE PUSH1 0x20 PUSH1 0x0 KECCAK256 SWAP1 POP SWAP2 SWAP1 POP JUMP JUMPDEST PUSH1 0x0 PUSH1 0x20 PUSH1 0x1F DUP4 ADD DIV SWAP1 POP SWAP2 SWAP1 POP JUMP JUMPDEST PUSH1 0x0 DUP3 DUP3 SHL SWAP1 POP SWAP3 SWAP2 POP POP JUMP JUMPDEST PUSH1 0x0 PUSH1 0x8 DUP4 MUL PUSH3 0x3A6 PUSH32 0xFFFFFFFFFFFFFFFFFFFFFFFFFFFFFFFFFFFFFFFFFFFFFFFFFFFFFFFFFFFFFFFF DUP3 PUSH3 0x367 JUMP JUMPDEST PUSH3 0x3B2 DUP7 DUP4 PUSH3 0x367 JUMP JUMPDEST SWAP6 POP DUP1 NOT DUP5 AND SWAP4 POP DUP1 DUP7 AND DUP5 OR SWAP3 POP POP POP SWAP4 SWAP3 POP POP POP JUMP JUMPDEST PUSH1 0x0 DUP2 SWAP1 POP SWAP2 SWAP1 POP JUMP JUMPDEST PUSH1 0x0 DUP2 SWAP1 POP SWAP2 SWAP1 POP JUMP JUMPDEST PUSH1 0x0 PUSH3 0x3FF PUSH3 0x3F9 PUSH3 0x3F3 DUP5 PUSH3 0x3CA JUMP JUMPDEST PUSH3 0x3D4 JUMP JUMPDEST PUSH3 0x3CA JUMP JUMPDEST SWAP1 POP SWAP2 SWAP1 POP JUMP JUMPDEST PUSH1 0x0 DUP2 SWAP1 POP SWAP2 SWAP1 POP JUMP JUMPDEST PUSH3 0x41B DUP4 PUSH3 0x3DE JUMP JUMPDEST PUSH3 0x433 PUSH3 0x42A DUP3 PUSH3 0x406 JUMP JUMPDEST DUP5 DUP5 SLOAD PUSH3 0x374 JUMP JUMPDEST DUP3 SSTORE POP POP POP POP JUMP JUMPDEST PUSH1 0x0 SWAP1 JUMP JUMPDEST PUSH3 0x44A PUSH3 0x43B JUMP JUMPDEST PUSH3 0x457 DUP2 DUP5 DUP5 PUSH3 0x410 JUMP JUMPDEST POP POP POP JUMP JUMPDEST JUMPDEST DUP2 DUP2 LT ISZERO PUSH3 0x47F JUMPI PUSH3 0x473 PUSH1 0x0 DUP3 PUSH3 0x440 JUMP JUMPDEST PUSH1 0x1 DUP2 ADD SWAP1 POP PUSH3 0x45D JUMP JUMPDEST POP POP JUMP JUMPDEST PUSH1 0x1F DUP3 GT ISZERO PUSH3 0x4CE JUMPI PUSH3 0x498 DUP2 PUSH3 0x342 JUMP JUMPDEST PUSH3 0x4A3 DUP5 PUSH3 0x357 JUMP JUMPDEST DUP2 ADD PUSH1 0x20 DUP6 LT ISZERO PUSH3 0x4B3 JUMPI DUP2 SWAP1 POP JUMPDEST PUSH3 0x4CB PUSH3 0x4C2 DUP6 PUSH3 0x357 JUMP JUMPDEST DUP4 ADD DUP3 PUSH3 0x45C JUMP JUMPDEST POP POP JUMPDEST POP POP POP JUMP JUMPDEST PUSH1 0x0 DUP3 DUP3 SHR SWAP1 POP SWAP3 SWAP2 POP POP JUMP JUMPDEST PUSH1 0x0 PUSH3 0x4F3 PUSH1 0x0 NOT DUP5 PUSH1 0x8 MUL PUSH3 0x4D3 JUMP JUMPDEST NOT DUP1 DUP4 AND SWAP2 POP POP SWAP3 SWAP2 POP POP JUMP JUMPDEST PUSH1 0x0 PUSH3 0x50E DUP4 DUP4 PUSH3 0x4E0 JUMP JUMPDEST SWAP2 POP DUP3 PUSH1 0x2 MUL DUP3 OR SWAP1 POP SWAP3 SWAP2 POP POP JUMP JUMPDEST PUSH3 0x529 DUP3 PUSH3 0x2A4 JUMP JUMPDEST PUSH8 0xFFFFFFFFFFFFFFFF DUP2 GT ISZERO PUSH3 0x545 JUMPI PUSH3 0x544 PUSH3 0x2AF JUMP JUMPDEST JUMPDEST PUSH3 0x551 DUP3 SLOAD PUSH3 0x30D JUMP JUMPDEST PUSH3 0x55E DUP3 DUP3 DUP6 PUSH3 0x483 JUMP JUMPDEST PUSH1 0x0 PUSH1 0x20 SWAP1 POP PUSH1 0x1F DUP4 GT PUSH1 0x1 DUP2 EQ PUSH3 0x596 JUMPI PUSH1 0x0 DUP5 ISZERO PUSH3 0x581 JUMPI DUP3 DUP8 ADD MLOAD SWAP1 POP JUMPDEST PUSH3 0x58D DUP6 DUP3 PUSH3 0x500 JUMP JUMPDEST DUP7 SSTORE POP PUSH3 0x5FD JUMP JUMPDEST PUSH1 0x1F NOT DUP5 AND PUSH3 0x5A6 DUP7 PUSH3 0x342 JUMP JUMPDEST PUSH1 0x0 JUMPDEST DUP3 DUP2 LT ISZERO PUSH3 0x5D0 JUMPI DUP5 DUP10 ADD MLOAD DUP3 SSTORE PUSH1 0x1 DUP3 ADD SWAP2 POP PUSH1 0x20 DUP6 ADD SWAP5 POP PUSH1 0x20 DUP2 ADD SWAP1 POP PUSH3 0x5A9 JUMP JUMPDEST DUP7 DUP4 LT ISZERO PUSH3 0x5F0 JUMPI DUP5 DUP10 ADD MLOAD PUSH3 0x5EC PUSH1 0x1F DUP10 AND DUP3 PUSH3 0x4E0 JUMP JUMPDEST DUP4 SSTORE POP JUMPDEST PUSH1 0x1 PUSH1 0x2 DUP9 MUL ADD DUP9 SSTORE POP POP POP JUMPDEST POP POP POP POP POP POP JUMP JUMPDEST PUSH32 0x4E487B7100000000000000000000000000000000000000000000000000000000 PUSH1 0x0 MSTORE PUSH1 0x11 PUSH1 0x4 MSTORE PUSH1 0x24 PUSH1 0x0 REVERT JUMPDEST PUSH1 0x0 DUP2 PUSH1 0x1 SHR SWAP1 POP SWAP2 SWAP1 POP JUMP JUMPDEST PUSH1 0x0 DUP1 DUP3 SWAP2 POP DUP4 SWAP1 POP JUMPDEST PUSH1 0x1 DUP6 GT ISZERO PUSH3 0x693 JUMPI DUP1 DUP7 DIV DUP2 GT ISZERO PUSH3 0x66B JUMPI PUSH3 0x66A PUSH3 0x605 JUMP JUMPDEST JUMPDEST PUSH1 0x1 DUP6 AND ISZERO PUSH3 0x67B JUMPI DUP1 DUP3 MUL SWAP2 POP JUMPDEST DUP1 DUP2 MUL SWAP1 POP PUSH3 0x68B DUP6 PUSH3 0x634 JUMP JUMPDEST SWAP5 POP PUSH3 0x64B JUMP JUMPDEST SWAP5 POP SWAP5 SWAP3 POP POP POP JUMP JUMPDEST PUSH1 0x0 DUP3 PUSH3 0x6AE JUMPI PUSH1 0x1 SWAP1 POP PUSH3 0x781 JUMP JUMPDEST DUP2 PUSH3 0x6BE JUMPI PUSH1 0x0 SWAP1 POP PUSH3 0x781 JUMP JUMPDEST DUP2 PUSH1 0x1 DUP2 EQ PUSH3 0x6D7 JUMPI PUSH1 0x2 DUP2 EQ PUSH3 0x6E2 JUMPI PUSH3 0x718 JUMP JUMPDEST PUSH1 0x1 SWAP2 POP POP PUSH3 0x781 JUMP JUMPDEST PUSH1 0xFF DUP5 GT ISZERO PUSH3 0x6F7 JUMPI PUSH3 0x6F6 PUSH3 0x605 JUMP JUMPDEST JUMPDEST DUP4 PUSH1 0x2 EXP SWAP2 POP DUP5 DUP3 GT ISZERO PUSH3 0x711 JUMPI PUSH3 0x710 PUSH3 0x605 JUMP JUMPDEST JUMPDEST POP PUSH3 0x781 JUMP JUMPDEST POP PUSH1 0x20 DUP4 LT PUSH2 0x133 DUP4 LT AND PUSH1 0x4E DUP5 LT PUSH1 0xB DUP5 LT AND OR ISZERO PUSH3 0x752 JUMPI DUP3 DUP3 EXP SWAP1 POP DUP4 DUP2 GT ISZERO PUSH3 0x74C JUMPI PUSH3 0x74B PUSH3 0x605 JUMP JUMPDEST JUMPDEST PUSH3 0x781 JUMP JUMPDEST PUSH3 0x761 DUP5 DUP5 DUP5 PUSH1 0x1 PUSH3 0x641 JUMP JUMPDEST SWAP3 POP SWAP1 POP DUP2 DUP5 DIV DUP2 GT ISZERO PUSH3 0x77B JUMPI PUSH3 0x77A PUSH3 0x605 JUMP JUMPDEST JUMPDEST DUP2 DUP2 MUL SWAP1 POP JUMPDEST SWAP4 SWAP3 POP POP POP JUMP JUMPDEST PUSH1 0x0 PUSH1 0xFF DUP3 AND SWAP1 POP SWAP2 SWAP1 POP JUMP JUMPDEST PUSH1 0x0 PUSH3 0x7A2 DUP3 PUSH3 0x3CA JUMP JUMPDEST SWAP2 POP PUSH3 0x7AF DUP4 PUSH3 0x788 JUMP JUMPDEST SWAP3 POP PUSH3 0x7DE PUSH32 0xFFFFFFFFFFFFFFFFFFFFFFFFFFFFFFFFFFFFFFFFFFFFFFFFFFFFFFFFFFFFFFFF DUP5 DUP5 PUSH3 0x69C JUMP JUMPDEST SWAP1 POP SWAP3 SWAP2 POP POP JUMP JUMPDEST PUSH1 0x0 PUSH3 0x7F3 DUP3 PUSH3 0x3CA JUMP JUMPDEST SWAP2 POP PUSH3 0x800 DUP4 PUSH3 0x3CA JUMP JUMPDEST SWAP3 POP DUP3 DUP3 MUL PUSH3 0x810 DUP2 PUSH3 0x3CA JUMP JUMPDEST SWAP2 POP DUP3 DUP3 DIV DUP5 EQ DUP4 ISZERO OR PUSH3 0x82A JUMPI PUSH3 0x829 PUSH3 0x605 JUMP JUMPDEST JUMPDEST POP SWAP3 SWAP2 POP POP JUMP JUMPDEST PUSH1 0x0 DUP3 DUP3 MSTORE PUSH1 0x20 DUP3 ADD SWAP1 POP SWAP3 SWAP2 POP POP JUMP JUMPDEST PUSH32 0x45524332303A206D696E7420746F20746865207A65726F206164647265737300 PUSH1 0x0 DUP3 ADD MSTORE POP JUMP JUMPDEST PUSH1 0x0 PUSH3 0x87A PUSH1 0x1F DUP4 PUSH3 0x831 JUMP JUMPDEST SWAP2 POP PUSH3 0x887 DUP3 PUSH3 0x842 JUMP JUMPDEST PUSH1 0x20 DUP3 ADD SWAP1 POP SWAP2 SWAP1 POP JUMP JUMPDEST PUSH1 0x0 PUSH1 0x20 DUP3 ADD SWAP1 POP DUP2 DUP2 SUB PUSH1 0x0 DUP4 ADD MSTORE PUSH3 0x8AD DUP2 PUSH3 0x86B JUMP JUMPDEST SWAP1 POP SWAP2 SWAP1 POP JUMP JUMPDEST PUSH1 0x0 PUSH3 0x8C1 DUP3 PUSH3 0x3CA JUMP JUMPDEST SWAP2 POP PUSH3 0x8CE DUP4 PUSH3 0x3CA JUMP JUMPDEST SWAP3 POP DUP3 DUP3 ADD SWAP1 POP DUP1 DUP3 GT ISZERO PUSH3 0x8E9 JUMPI PUSH3 0x8E8 PUSH3 0x605 JUMP JUMPDEST JUMPDEST SWAP3 SWAP2 POP POP JUMP JUMPDEST PUSH3 0x8FA DUP2 PUSH3 0x3CA JUMP JUMPDEST DUP3 MSTORE POP POP JUMP JUMPDEST PUSH1 0x0 PUSH1 0x20 DUP3 ADD SWAP1 POP PUSH3 0x917 PUSH1 0x0 DUP4 ADD DUP5 PUSH3 0x8EF JUMP JUMPDEST SWAP3 SWAP2 POP POP JUMP JUMPDEST PUSH2 0x21CD DUP1 PUSH3 0x92D PUSH1 0x0 CODECOPY PUSH1 0x0 RETURN INVALID PUSH1 0x80 PUSH1 0x40 MSTORE PUSH1 0x4 CALLDATASIZE LT PUSH2 0x139 JUMPI PUSH1 0x0 CALLDATALOAD PUSH1 0xE0 SHR DUP1 PUSH4 0x4BD09C2A GT PUSH2 0xAB JUMPI DUP1 PUSH4 0x95D89B41 GT PUSH2 0x6F JUMPI DUP1 PUSH4 0x95D89B41 EQ PUSH2 0x447 JUMPI DUP1 PUSH4 0xA457C2D7 EQ PUSH2 0x472 JUMPI DUP1 PUSH4 0xA9059CBB EQ PUSH2 0x4AF JUMPI DUP1 PUSH4 0xD8E3FA68 EQ PUSH2 0x4EC JUMPI DUP1 PUSH4 0xDD62ED3E EQ PUSH2 0x515 JUMPI DUP1 PUSH4 0xF6326FB3 EQ PUSH2 0x552 JUMPI PUSH2 0x140 JUMP JUMPDEST DUP1 PUSH4 0x4BD09C2A EQ PUSH2 0x350 JUMPI DUP1 PUSH4 0x6D23932E EQ PUSH2 0x379 JUMPI DUP1 PUSH4 0x6F9FB98A EQ PUSH2 0x3B6 JUMPI DUP1 PUSH4 0x70A08231 EQ PUSH2 0x3E1 JUMPI DUP1 PUSH4 0x865CF788 EQ PUSH2 0x41E JUMPI PUSH2 0x140 JUMP JUMPDEST DUP1 PUSH4 0x294715D8 GT PUSH2 0xFD JUMPI DUP1 PUSH4 0x294715D8 EQ PUSH2 0x22C JUMPI DUP1 PUSH4 0x2EB4A7AB EQ PUSH2 0x255 JUMPI DUP1 PUSH4 0x2ECD4E7D EQ PUSH2 0x280 JUMPI DUP1 PUSH4 0x313CE567 EQ PUSH2 0x2BD JUMPI DUP1 PUSH4 0x39509351 EQ PUSH2 0x2E8 JUMPI DUP1 PUSH4 0x3F52F56B EQ PUSH2 0x325 JUMPI PUSH2 0x140 JUMP JUMPDEST DUP1 PUSH4 0x6FDDE03 EQ PUSH2 0x145 JUMPI DUP1 PUSH4 0x95EA7B3 EQ PUSH2 0x170 JUMPI DUP1 PUSH4 0x146BEA7B EQ PUSH2 0x1AD JUMPI DUP1 PUSH4 0x18160DDD EQ PUSH2 0x1C4 JUMPI DUP1 PUSH4 0x23B872DD EQ PUSH2 0x1EF JUMPI PUSH2 0x140 JUMP JUMPDEST CALLDATASIZE PUSH2 0x140 JUMPI STOP JUMPDEST PUSH1 0x0 DUP1 REVERT JUMPDEST CALLVALUE DUP1 ISZERO PUSH2 0x151 JUMPI PUSH1 0x0 DUP1 REVERT JUMPDEST POP PUSH2 0x15A PUSH2 0x55C JUMP JUMPDEST PUSH1 0x40 MLOAD PUSH2 0x167 SWAP2 SWAP1 PUSH2 0x1358 JUMP JUMPDEST PUSH1 0x40 MLOAD DUP1 SWAP2 SUB SWAP1 RETURN JUMPDEST CALLVALUE DUP1 ISZERO PUSH2 0x17C JUMPI PUSH1 0x0 DUP1 REVERT JUMPDEST POP PUSH2 0x197 PUSH1 0x4 DUP1 CALLDATASIZE SUB DUP2 ADD SWAP1 PUSH2 0x192 SWAP2 SWAP1 PUSH2 0x1422 JUMP JUMPDEST PUSH2 0x5EE JUMP JUMPDEST PUSH1 0x40 MLOAD PUSH2 0x1A4 SWAP2 SWAP1 PUSH2 0x147D JUMP JUMPDEST PUSH1 0x40 MLOAD DUP1 SWAP2 SUB SWAP1 RETURN JUMPDEST CALLVALUE DUP1 ISZERO PUSH2 0x1B9 JUMPI PUSH1 0x0 DUP1 REVERT JUMPDEST POP PUSH2 0x1C2 PUSH2 0x611 JUMP JUMPDEST STOP JUMPDEST CALLVALUE DUP1 ISZERO PUSH2 0x1D0 JUMPI PUSH1 0x0 DUP1 REVERT JUMPDEST POP PUSH2 0x1D9 PUSH2 0x62B JUMP JUMPDEST PUSH1 0x40 MLOAD PUSH2 0x1E6 SWAP2 SWAP1 PUSH2 0x14A7 JUMP JUMPDEST PUSH1 0x40 MLOAD DUP1 SWAP2 SUB SWAP1 RETURN JUMPDEST CALLVALUE DUP1 ISZERO PUSH2 0x1FB JUMPI PUSH1 0x0 DUP1 REVERT JUMPDEST POP PUSH2 0x216 PUSH1 0x4 DUP1 CALLDATASIZE SUB DUP2 ADD SWAP1 PUSH2 0x211 SWAP2 SWAP1 PUSH2 0x14C2 JUMP JUMPDEST PUSH2 0x635 JUMP JUMPDEST PUSH1 0x40 MLOAD PUSH2 0x223 SWAP2 SWAP1 PUSH2 0x147D JUMP JUMPDEST PUSH1 0x40 MLOAD DUP1 SWAP2 SUB SWAP1 RETURN JUMPDEST CALLVALUE DUP1 ISZERO PUSH2 0x238 JUMPI PUSH1 0x0 DUP1 REVERT JUMPDEST POP PUSH2 0x253 PUSH1 0x4 DUP1 CALLDATASIZE SUB DUP2 ADD SWAP1 PUSH2 0x24E SWAP2 SWAP1 PUSH2 0x1553 JUMP JUMPDEST PUSH2 0x664 JUMP JUMPDEST STOP JUMPDEST CALLVALUE DUP1 ISZERO PUSH2 0x261 JUMPI PUSH1 0x0 DUP1 REVERT JUMPDEST POP PUSH2 0x26A PUSH2 0x6AF JUMP JUMPDEST PUSH1 0x40 MLOAD PUSH2 0x277 SWAP2 SWAP1 PUSH2 0x15AC JUMP JUMPDEST PUSH1 0x40 MLOAD DUP1 SWAP2 SUB SWAP1 RETURN JUMPDEST CALLVALUE DUP1 ISZERO PUSH2 0x28C JUMPI PUSH1 0x0 DUP1 REVERT JUMPDEST POP PUSH2 0x2A7 PUSH1 0x4 DUP1 CALLDATASIZE SUB DUP2 ADD SWAP1 PUSH2 0x2A2 SWAP2 SWAP1 PUSH2 0x15C7 JUMP JUMPDEST PUSH2 0x6B5 JUMP JUMPDEST PUSH1 0x40 MLOAD PUSH2 0x2B4 SWAP2 SWAP1 PUSH2 0x14A7 JUMP JUMPDEST PUSH1 0x40 MLOAD DUP1 SWAP2 SUB SWAP1 RETURN JUMPDEST CALLVALUE DUP1 ISZERO PUSH2 0x2C9 JUMPI PUSH1 0x0 DUP1 REVERT JUMPDEST POP PUSH2 0x2D2 PUSH2 0x6CD JUMP JUMPDEST PUSH1 0x40 MLOAD PUSH2 0x2DF SWAP2 SWAP1 PUSH2 0x1610 JUMP JUMPDEST PUSH1 0x40 MLOAD DUP1 SWAP2 SUB SWAP1 RETURN JUMPDEST CALLVALUE DUP1 ISZERO PUSH2 0x2F4 JUMPI PUSH1 0x0 DUP1 REVERT JUMPDEST POP PUSH2 0x30F PUSH1 0x4 DUP1 CALLDATASIZE SUB DUP2 ADD SWAP1 PUSH2 0x30A SWAP2 SWAP1 PUSH2 0x1422 JUMP JUMPDEST PUSH2 0x6D6 JUMP JUMPDEST PUSH1 0x40 MLOAD PUSH2 0x31C SWAP2 SWAP1 PUSH2 0x147D JUMP JUMPDEST PUSH1 0x40 MLOAD DUP1 SWAP2 SUB SWAP1 RETURN JUMPDEST CALLVALUE DUP1 ISZERO PUSH2 0x331 JUMPI PUSH1 0x0 DUP1 REVERT JUMPDEST POP PUSH2 0x33A PUSH2 0x70D JUMP JUMPDEST PUSH1 0x40 MLOAD PUSH2 0x347 SWAP2 SWAP1 PUSH2 0x14A7 JUMP JUMPDEST PUSH1 0x40 MLOAD DUP1 SWAP2 SUB SWAP1 RETURN JUMPDEST CALLVALUE DUP1 ISZERO PUSH2 0x35C JUMPI PUSH1 0x0 DUP1 REVERT JUMPDEST POP PUSH2 0x377 PUSH1 0x4 DUP1 CALLDATASIZE SUB DUP2 ADD SWAP1 PUSH2 0x372 SWAP2 SWAP1 PUSH2 0x1836 JUMP JUMPDEST PUSH2 0x713 JUMP JUMPDEST STOP JUMPDEST CALLVALUE DUP1 ISZERO PUSH2 0x385 JUMPI PUSH1 0x0 DUP1 REVERT JUMPDEST POP PUSH2 0x3A0 PUSH1 0x4 DUP1 CALLDATASIZE SUB DUP2 ADD SWAP1 PUSH2 0x39B SWAP2 SWAP1 PUSH2 0x15C7 JUMP JUMPDEST PUSH2 0x978 JUMP JUMPDEST PUSH1 0x40 MLOAD PUSH2 0x3AD SWAP2 SWAP1 PUSH2 0x147D JUMP JUMPDEST PUSH1 0x40 MLOAD DUP1 SWAP2 SUB SWAP1 RETURN JUMPDEST CALLVALUE DUP1 ISZERO PUSH2 0x3C2 JUMPI PUSH1 0x0 DUP1 REVERT JUMPDEST POP PUSH2 0x3CB PUSH2 0x998 JUMP JUMPDEST PUSH1 0x40 MLOAD PUSH2 0x3D8 SWAP2 SWAP1 PUSH2 0x14A7 JUMP JUMPDEST PUSH1 0x40 MLOAD DUP1 SWAP2 SUB SWAP1 RETURN JUMPDEST CALLVALUE DUP1 ISZERO PUSH2 0x3ED JUMPI PUSH1 0x0 DUP1 REVERT JUMPDEST POP PUSH2 0x408 PUSH1 0x4 DUP1 CALLDATASIZE SUB DUP2 ADD SWAP1 PUSH2 0x403 SWAP2 SWAP1 PUSH2 0x15C7 JUMP JUMPDEST PUSH2 0x9A0 JUMP JUMPDEST PUSH1 0x40 MLOAD PUSH2 0x415 SWAP2 SWAP1 PUSH2 0x14A7 JUMP JUMPDEST PUSH1 0x40 MLOAD DUP1 SWAP2 SUB SWAP1 RETURN JUMPDEST CALLVALUE DUP1 ISZERO PUSH2 0x42A JUMPI PUSH1 0x0 DUP1 REVERT JUMPDEST POP PUSH2 0x445 PUSH1 0x4 DUP1 CALLDATASIZE SUB DUP2 ADD SWAP1 PUSH2 0x440 SWAP2 SWAP1 PUSH2 0x199D JUMP JUMPDEST PUSH2 0x9E8 JUMP JUMPDEST STOP JUMPDEST CALLVALUE DUP1 ISZERO PUSH2 0x453 JUMPI PUSH1 0x0 DUP1 REVERT JUMPDEST POP PUSH2 0x45C PUSH2 0xAE4 JUMP JUMPDEST PUSH1 0x40 MLOAD PUSH2 0x469 SWAP2 SWAP1 PUSH2 0x1358 JUMP JUMPDEST PUSH1 0x40 MLOAD DUP1 SWAP2 SUB SWAP1 RETURN JUMPDEST CALLVALUE DUP1 ISZERO PUSH2 0x47E JUMPI PUSH1 0x0 DUP1 REVERT JUMPDEST POP PUSH2 0x499 PUSH1 0x4 DUP1 CALLDATASIZE SUB DUP2 ADD SWAP1 PUSH2 0x494 SWAP2 SWAP1 PUSH2 0x1422 JUMP JUMPDEST PUSH2 0xB76 JUMP JUMPDEST PUSH1 0x40 MLOAD PUSH2 0x4A6 SWAP2 SWAP1 PUSH2 0x147D JUMP JUMPDEST PUSH1 0x40 MLOAD DUP1 SWAP2 SUB SWAP1 RETURN JUMPDEST CALLVALUE DUP1 ISZERO PUSH2 0x4BB JUMPI PUSH1 0x0 DUP1 REVERT JUMPDEST POP PUSH2 0x4D6 PUSH1 0x4 DUP1 CALLDATASIZE SUB DUP2 ADD SWAP1 PUSH2 0x4D1 SWAP2 SWAP1 PUSH2 0x1422 JUMP JUMPDEST PUSH2 0xBED JUMP JUMPDEST PUSH1 0x40 MLOAD PUSH2 0x4E3 SWAP2 SWAP1 PUSH2 0x147D JUMP JUMPDEST PUSH1 0x40 MLOAD DUP1 SWAP2 SUB SWAP1 RETURN JUMPDEST CALLVALUE DUP1 ISZERO PUSH2 0x4F8 JUMPI PUSH1 0x0 DUP1 REVERT JUMPDEST POP PUSH2 0x513 PUSH1 0x4 DUP1 CALLDATASIZE SUB DUP2 ADD SWAP1 PUSH2 0x50E SWAP2 SWAP1 PUSH2 0x1422 JUMP JUMPDEST PUSH2 0xC10 JUMP JUMPDEST STOP JUMPDEST CALLVALUE DUP1 ISZERO PUSH2 0x521 JUMPI PUSH1 0x0 DUP1 REVERT JUMPDEST POP PUSH2 0x53C PUSH1 0x4 DUP1 CALLDATASIZE SUB DUP2 ADD SWAP1 PUSH2 0x537 SWAP2 SWAP1 PUSH2 0x1A15 JUMP JUMPDEST PUSH2 0xD62 JUMP JUMPDEST PUSH1 0x40 MLOAD PUSH2 0x549 SWAP2 SWAP1 PUSH2 0x14A7 JUMP JUMPDEST PUSH1 0x40 MLOAD DUP1 SWAP2 SUB SWAP1 RETURN JUMPDEST PUSH2 0x55A PUSH2 0xDE9 JUMP JUMPDEST STOP JUMPDEST PUSH1 0x60 PUSH1 0x3 DUP1 SLOAD PUSH2 0x56B SWAP1 PUSH2 0x1A84 JUMP JUMPDEST DUP1 PUSH1 0x1F ADD PUSH1 0x20 DUP1 SWAP2 DIV MUL PUSH1 0x20 ADD PUSH1 0x40 MLOAD SWAP1 DUP2 ADD PUSH1 0x40 MSTORE DUP1 SWAP3 SWAP2 SWAP1 DUP2 DUP2 MSTORE PUSH1 0x20 ADD DUP3 DUP1 SLOAD PUSH2 0x597 SWAP1 PUSH2 0x1A84 JUMP JUMPDEST DUP1 ISZERO PUSH2 0x5E4 JUMPI DUP1 PUSH1 0x1F LT PUSH2 0x5B9 JUMPI PUSH2 0x100 DUP1 DUP4 SLOAD DIV MUL DUP4 MSTORE SWAP2 PUSH1 0x20 ADD SWAP2 PUSH2 0x5E4 JUMP JUMPDEST DUP3 ADD SWAP2 SWAP1 PUSH1 0x0 MSTORE PUSH1 0x20 PUSH1 0x0 KECCAK256 SWAP1 JUMPDEST DUP2 SLOAD DUP2 MSTORE SWAP1 PUSH1 0x1 ADD SWAP1 PUSH1 0x20 ADD DUP1 DUP4 GT PUSH2 0x5C7 JUMPI DUP3 SWAP1 SUB PUSH1 0x1F AND DUP3 ADD SWAP2 JUMPDEST POP POP POP POP POP SWAP1 POP SWAP1 JUMP JUMPDEST PUSH1 0x0 DUP1 PUSH2 0x5F9 PUSH2 0xDEB JUMP JUMPDEST SWAP1 POP PUSH2 0x606 DUP2 DUP6 DUP6 PUSH2 0xDF3 JUMP JUMPDEST PUSH1 0x1 SWAP2 POP POP SWAP3 SWAP2 POP POP JUMP JUMPDEST PUSH1 0x9 PUSH1 0x0 DUP2 SLOAD DUP1 SWAP3 SWAP2 SWAP1 PUSH2 0x624 SWAP1 PUSH2 0x1AE4 JUMP JUMPDEST SWAP2 SWAP1 POP SSTORE POP JUMP JUMPDEST PUSH1 0x0 PUSH1 0x2 SLOAD SWAP1 POP SWAP1 JUMP JUMPDEST PUSH1 0x0 DUP1 PUSH2 0x640 PUSH2 0xDEB JUMP JUMPDEST SWAP1 POP PUSH2 0x64D DUP6 DUP3 DUP6 PUSH2 0xFBC JUMP JUMPDEST PUSH2 0x658 DUP6 DUP6 DUP6 PUSH2 0x1048 JUMP JUMPDEST PUSH1 0x1 SWAP2 POP POP SWAP4 SWAP3 POP POP POP JUMP JUMPDEST DUP2 PUSH20 0xFFFFFFFFFFFFFFFFFFFFFFFFFFFFFFFFFFFFFFFF AND PUSH2 0x8FC DUP3 SWAP1 DUP2 ISZERO MUL SWAP1 PUSH1 0x40 MLOAD PUSH1 0x0 PUSH1 0x40 MLOAD DUP1 DUP4 SUB DUP2 DUP6 DUP9 DUP9 CALL SWAP4 POP POP POP POP ISZERO DUP1 ISZERO PUSH2 0x6AA JUMPI RETURNDATASIZE PUSH1 0x0 DUP1 RETURNDATACOPY RETURNDATASIZE PUSH1 0x0 REVERT JUMPDEST POP POP POP JUMP JUMPDEST PUSH1 0x5 SLOAD DUP2 JUMP JUMPDEST PUSH1 0x7 PUSH1 0x20 MSTORE DUP1 PUSH1 0x0 MSTORE PUSH1 0x40 PUSH1 0x0 KECCAK256 PUSH1 0x0 SWAP2 POP SWAP1 POP SLOAD DUP2 JUMP JUMPDEST PUSH1 0x0 PUSH1 0x12 SWAP1 POP SWAP1 JUMP JUMPDEST PUSH1 0x0 DUP1 PUSH2 0x6E1 PUSH2 0xDEB JUMP JUMPDEST SWAP1 POP PUSH2 0x702 DUP2 DUP6 DUP6 PUSH2 0x6F3 DUP6 DUP10 PUSH2 0xD62 JUMP JUMPDEST PUSH2 0x6FD SWAP2 SWAP1 PUSH2 0x1B2C JUMP JUMPDEST PUSH2 0xDF3 JUMP JUMPDEST PUSH1 0x1 SWAP2 POP POP SWAP3 SWAP2 POP POP JUMP JUMPDEST PUSH2 0x3E8 DUP2 JUMP JUMPDEST DUP1 MLOAD DUP3 MLOAD EQ PUSH2 0x757 JUMPI PUSH1 0x40 MLOAD PUSH32 0x8C379A000000000000000000000000000000000000000000000000000000000 DUP2 MSTORE PUSH1 0x4 ADD PUSH2 0x74E SWAP1 PUSH2 0x1BAC JUMP JUMPDEST PUSH1 0x40 MLOAD DUP1 SWAP2 SUB SWAP1 REVERT JUMPDEST PUSH1 0x0 JUMPDEST DUP3 MLOAD DUP2 LT ISZERO PUSH2 0x973 JUMPI PUSH1 0x0 DUP3 DUP3 DUP2 MLOAD DUP2 LT PUSH2 0x778 JUMPI PUSH2 0x777 PUSH2 0x1BCC JUMP JUMPDEST JUMPDEST PUSH1 0x20 MUL PUSH1 0x20 ADD ADD MLOAD GT PUSH2 0x7C0 JUMPI PUSH1 0x40 MLOAD PUSH32 0x8C379A000000000000000000000000000000000000000000000000000000000 DUP2 MSTORE PUSH1 0x4 ADD PUSH2 0x7B7 SWAP1 PUSH2 0x1C47 JUMP JUMPDEST PUSH1 0x40 MLOAD DUP1 SWAP2 SUB SWAP1 REVERT JUMPDEST PUSH1 0x0 DUP4 DUP3 DUP2 MLOAD DUP2 LT PUSH2 0x7D5 JUMPI PUSH2 0x7D4 PUSH2 0x1BCC JUMP JUMPDEST JUMPDEST PUSH1 0x20 MUL PUSH1 0x20 ADD ADD MLOAD SWAP1 POP PUSH1 0x0 DUP4 DUP4 DUP2 MLOAD DUP2 LT PUSH2 0x7F4 JUMPI PUSH2 0x7F3 PUSH2 0x1BCC JUMP JUMPDEST JUMPDEST PUSH1 0x20 MUL PUSH1 0x20 ADD ADD MLOAD SWAP1 POP PUSH1 0x8 PUSH1 0x0 DUP4 PUSH20 0xFFFFFFFFFFFFFFFFFFFFFFFFFFFFFFFFFFFFFFFF AND PUSH20 0xFFFFFFFFFFFFFFFFFFFFFFFFFFFFFFFFFFFFFFFF AND DUP2 MSTORE PUSH1 0x20 ADD SWAP1 DUP2 MSTORE PUSH1 0x20 ADD PUSH1 0x0 KECCAK256 PUSH1 0x0 ADD PUSH1 0x1 SWAP1 SLOAD SWAP1 PUSH2 0x100 EXP SWAP1 DIV PUSH1 0xFF AND ISZERO PUSH2 0x88E JUMPI PUSH1 0x40 MLOAD PUSH32 0x8C379A000000000000000000000000000000000000000000000000000000000 DUP2 MSTORE PUSH1 0x4 ADD PUSH2 0x885 SWAP1 PUSH2 0x1CD9 JUMP JUMPDEST PUSH1 0x40 MLOAD DUP1 SWAP2 SUB SWAP1 REVERT JUMPDEST PUSH1 0x8 PUSH1 0x0 DUP4 PUSH20 0xFFFFFFFFFFFFFFFFFFFFFFFFFFFFFFFFFFFFFFFF AND PUSH20 0xFFFFFFFFFFFFFFFFFFFFFFFFFFFFFFFFFFFFFFFF AND DUP2 MSTORE PUSH1 0x20 ADD SWAP1 DUP2 MSTORE PUSH1 0x20 ADD PUSH1 0x0 KECCAK256 PUSH1 0x0 ADD PUSH1 0x0 SWAP1 SLOAD SWAP1 PUSH2 0x100 EXP SWAP1 DIV PUSH1 0xFF AND ISZERO PUSH2 0x8F5 JUMPI PUSH2 0x8F0 CALLER DUP4 PUSH2 0x3E8 PUSH2 0x1048 JUMP JUMPDEST PUSH2 0x903 JUMP JUMPDEST PUSH2 0x902 CALLER DUP4 PUSH2 0x3E8 PUSH2 0x1048 JUMP JUMPDEST JUMPDEST PUSH1 0x1 PUSH1 0x8 PUSH1 0x0 DUP5 PUSH20 0xFFFFFFFFFFFFFFFFFFFFFFFFFFFFFFFFFFFFFFFF AND PUSH20 0xFFFFFFFFFFFFFFFFFFFFFFFFFFFFFFFFFFFFFFFF AND DUP2 MSTORE PUSH1 0x20 ADD SWAP1 DUP2 MSTORE PUSH1 0x20 ADD PUSH1 0x0 KECCAK256 PUSH1 0x0 ADD PUSH1 0x1 PUSH2 0x100 EXP DUP2 SLOAD DUP2 PUSH1 0xFF MUL NOT AND SWAP1 DUP4 ISZERO ISZERO MUL OR SWAP1 SSTORE POP POP POP DUP1 DUP1 PUSH2 0x96B SWAP1 PUSH2 0x1AE4 JUMP JUMPDEST SWAP2 POP POP PUSH2 0x75A JUMP JUMPDEST POP POP POP JUMP JUMPDEST PUSH1 0x6 PUSH1 0x20 MSTORE DUP1 PUSH1 0x0 MSTORE PUSH1 0x40 PUSH1 0x0 KECCAK256 PUSH1 0x0 SWAP2 POP SLOAD SWAP1 PUSH2 0x100 EXP SWAP1 DIV PUSH1 0xFF AND DUP2 JUMP JUMPDEST PUSH1 0x0 SELFBALANCE SWAP1 POP SWAP1 JUMP JUMPDEST PUSH1 0x0 DUP1 PUSH1 0x0 DUP4 PUSH20 0xFFFFFFFFFFFFFFFFFFFFFFFFFFFFFFFFFFFFFFFF AND PUSH20 0xFFFFFFFFFFFFFFFFFFFFFFFFFFFFFFFFFFFFFFFF AND DUP2 MSTORE PUSH1 0x20 ADD SWAP1 DUP2 MSTORE PUSH1 0x20 ADD PUSH1 0x0 KECCAK256 SLOAD SWAP1 POP SWAP2 SWAP1 POP JUMP JUMPDEST DUP1 MLOAD DUP3 MLOAD EQ PUSH2 0xA2C JUMPI PUSH1 0x40 MLOAD PUSH32 0x8C379A000000000000000000000000000000000000000000000000000000000 DUP2 MSTORE PUSH1 0x4 ADD PUSH2 0xA23 SWAP1 PUSH2 0x1BAC JUMP JUMPDEST PUSH1 0x40 MLOAD DUP1 SWAP2 SUB SWAP1 REVERT JUMPDEST PUSH1 0x0 JUMPDEST DUP3 MLOAD DUP2 LT ISZERO PUSH2 0xADF JUMPI PUSH1 0x0 DUP4 DUP3 DUP2 MLOAD DUP2 LT PUSH2 0xA4D JUMPI PUSH2 0xA4C PUSH2 0x1BCC JUMP JUMPDEST JUMPDEST PUSH1 0x20 MUL PUSH1 0x20 ADD ADD MLOAD SWAP1 POP DUP3 DUP3 DUP2 MLOAD DUP2 LT PUSH2 0xA6A JUMPI PUSH2 0xA69 PUSH2 0x1BCC JUMP JUMPDEST JUMPDEST PUSH1 0x20 MUL PUSH1 0x20 ADD ADD MLOAD PUSH1 0x8 PUSH1 0x0 DUP4 PUSH20 0xFFFFFFFFFFFFFFFFFFFFFFFFFFFFFFFFFFFFFFFF AND PUSH20 0xFFFFFFFFFFFFFFFFFFFFFFFFFFFFFFFFFFFFFFFF AND DUP2 MSTORE PUSH1 0x20 ADD SWAP1 DUP2 MSTORE PUSH1 0x20 ADD PUSH1 0x0 KECCAK256 PUSH1 0x0 ADD PUSH1 0x0 PUSH2 0x100 EXP DUP2 SLOAD DUP2 PUSH1 0xFF MUL NOT AND SWAP1 DUP4 ISZERO ISZERO MUL OR SWAP1 SSTORE POP POP DUP1 DUP1 PUSH2 0xAD7 SWAP1 PUSH2 0x1AE4 JUMP JUMPDEST SWAP2 POP POP PUSH2 0xA2F JUMP JUMPDEST POP POP POP JUMP JUMPDEST PUSH1 0x60 PUSH1 0x4 DUP1 SLOAD PUSH2 0xAF3 SWAP1 PUSH2 0x1A84 JUMP JUMPDEST DUP1 PUSH1 0x1F ADD PUSH1 0x20 DUP1 SWAP2 DIV MUL PUSH1 0x20 ADD PUSH1 0x40 MLOAD SWAP1 DUP2 ADD PUSH1 0x40 MSTORE DUP1 SWAP3 SWAP2 SWAP1 DUP2 DUP2 MSTORE PUSH1 0x20 ADD DUP3 DUP1 SLOAD PUSH2 0xB1F SWAP1 PUSH2 0x1A84 JUMP JUMPDEST DUP1 ISZERO PUSH2 0xB6C JUMPI DUP1 PUSH1 0x1F LT PUSH2 0xB41 JUMPI PUSH2 0x100 DUP1 DUP4 SLOAD DIV MUL DUP4 MSTORE SWAP2 PUSH1 0x20 ADD SWAP2 PUSH2 0xB6C JUMP JUMPDEST DUP3 ADD SWAP2 SWAP1 PUSH1 0x0 MSTORE PUSH1 0x20 PUSH1 0x0 KECCAK256 SWAP1 JUMPDEST DUP2 SLOAD DUP2 MSTORE SWAP1 PUSH1 0x1 ADD SWAP1 PUSH1 0x20 ADD DUP1 DUP4 GT PUSH2 0xB4F JUMPI DUP3 SWAP1 SUB PUSH1 0x1F AND DUP3 ADD SWAP2 JUMPDEST POP POP POP POP POP SWAP1 POP SWAP1 JUMP JUMPDEST PUSH1 0x0 DUP1 PUSH2 0xB81 PUSH2 0xDEB JUMP JUMPDEST SWAP1 POP PUSH1 0x0 PUSH2 0xB8F DUP3 DUP7 PUSH2 0xD62 JUMP JUMPDEST SWAP1 POP DUP4 DUP2 LT ISZERO PUSH2 0xBD4 JUMPI PUSH1 0x40 MLOAD PUSH32 0x8C379A000000000000000000000000000000000000000000000000000000000 DUP2 MSTORE PUSH1 0x4 ADD PUSH2 0xBCB SWAP1 PUSH2 0x1D6B JUMP JUMPDEST PUSH1 0x40 MLOAD DUP1 SWAP2 SUB SWAP1 REVERT JUMPDEST PUSH2 0xBE1 DUP3 DUP7 DUP7 DUP5 SUB PUSH2 0xDF3 JUMP JUMPDEST PUSH1 0x1 SWAP3 POP POP POP SWAP3 SWAP2 POP POP JUMP JUMPDEST PUSH1 0x0 DUP1 PUSH2 0xBF8 PUSH2 0xDEB JUMP JUMPDEST SWAP1 POP PUSH2 0xC05 DUP2 DUP6 DUP6 PUSH2 0x1048 JUMP JUMPDEST PUSH1 0x1 SWAP2 POP POP SWAP3 SWAP2 POP POP JUMP JUMPDEST ADDRESS PUSH20 0xFFFFFFFFFFFFFFFFFFFFFFFFFFFFFFFFFFFFFFFF AND CALLER PUSH20 0xFFFFFFFFFFFFFFFFFFFFFFFFFFFFFFFFFFFFFFFF AND EQ PUSH2 0xC7E JUMPI PUSH1 0x40 MLOAD PUSH32 0x8C379A000000000000000000000000000000000000000000000000000000000 DUP2 MSTORE PUSH1 0x4 ADD PUSH2 0xC75 SWAP1 PUSH2 0x1DFD JUMP JUMPDEST PUSH1 0x40 MLOAD DUP1 SWAP2 SUB SWAP1 REVERT JUMPDEST DUP1 PUSH2 0xC88 DUP4 PUSH2 0x9A0 JUMP JUMPDEST LT PUSH2 0xCBF JUMPI PUSH2 0xCBA DUP3 PUSH1 0xA PUSH1 0x0 SWAP1 SLOAD SWAP1 PUSH2 0x100 EXP SWAP1 DIV PUSH20 0xFFFFFFFFFFFFFFFFFFFFFFFFFFFFFFFFFFFFFFFF AND DUP4 PUSH2 0x1048 JUMP JUMPDEST PUSH2 0xD5E JUMP JUMPDEST PUSH2 0xCF4 DUP3 PUSH1 0xA PUSH1 0x0 SWAP1 SLOAD SWAP1 PUSH2 0x100 EXP SWAP1 DIV PUSH20 0xFFFFFFFFFFFFFFFFFFFFFFFFFFFFFFFFFFFFFFFF AND PUSH2 0xCEF DUP6 PUSH2 0x9A0 JUMP JUMPDEST PUSH2 0x1048 JUMP JUMPDEST PUSH2 0xCFD DUP3 PUSH2 0x9A0 JUMP JUMPDEST DUP2 PUSH2 0xD08 SWAP2 SWAP1 PUSH2 0x1E1D JUMP JUMPDEST PUSH1 0x7 PUSH1 0x0 DUP5 PUSH20 0xFFFFFFFFFFFFFFFFFFFFFFFFFFFFFFFFFFFFFFFF AND PUSH20 0xFFFFFFFFFFFFFFFFFFFFFFFFFFFFFFFFFFFFFFFF AND DUP2 MSTORE PUSH1 0x20 ADD SWAP1 DUP2 MSTORE PUSH1 0x20 ADD PUSH1 0x0 KECCAK256 PUSH1 0x0 DUP3 DUP3 SLOAD PUSH2 0xD56 SWAP2 SWAP1 PUSH2 0x1B2C JUMP JUMPDEST SWAP3 POP POP DUP2 SWAP1 SSTORE POP JUMPDEST POP POP JUMP JUMPDEST PUSH1 0x0 PUSH1 0x1 PUSH1 0x0 DUP5 PUSH20 0xFFFFFFFFFFFFFFFFFFFFFFFFFFFFFFFFFFFFFFFF AND PUSH20 0xFFFFFFFFFFFFFFFFFFFFFFFFFFFFFFFFFFFFFFFF AND DUP2 MSTORE PUSH1 0x20 ADD SWAP1 DUP2 MSTORE PUSH1 0x20 ADD PUSH1 0x0 KECCAK256 PUSH1 0x0 DUP4 PUSH20 0xFFFFFFFFFFFFFFFFFFFFFFFFFFFFFFFFFFFFFFFF AND PUSH20 0xFFFFFFFFFFFFFFFFFFFFFFFFFFFFFFFFFFFFFFFF AND DUP2 MSTORE PUSH1 0x20 ADD SWAP1 DUP2 MSTORE PUSH1 0x20 ADD PUSH1 0x0 KECCAK256 SLOAD SWAP1 POP SWAP3 SWAP2 POP POP JUMP JUMPDEST JUMP JUMPDEST PUSH1 0x0 CALLER SWAP1 POP SWAP1 JUMP JUMPDEST PUSH1 0x0 PUSH20 0xFFFFFFFFFFFFFFFFFFFFFFFFFFFFFFFFFFFFFFFF AND DUP4 PUSH20 0xFFFFFFFFFFFFFFFFFFFFFFFFFFFFFFFFFFFFFFFF AND SUB PUSH2 0xE62 JUMPI PUSH1 0x40 MLOAD PUSH32 0x8C379A000000000000000000000000000000000000000000000000000000000 DUP2 MSTORE PUSH1 0x4 ADD PUSH2 0xE59 SWAP1 PUSH2 0x1EC3 JUMP JUMPDEST PUSH1 0x40 MLOAD DUP1 SWAP2 SUB SWAP1 REVERT JUMPDEST PUSH1 0x0 PUSH20 0xFFFFFFFFFFFFFFFFFFFFFFFFFFFFFFFFFFFFFFFF AND DUP3 PUSH20 0xFFFFFFFFFFFFFFFFFFFFFFFFFFFFFFFFFFFFFFFF AND SUB PUSH2 0xED1 JUMPI PUSH1 0x40 MLOAD PUSH32 0x8C379A000000000000000000000000000000000000000000000000000000000 DUP2 MSTORE PUSH1 0x4 ADD PUSH2 0xEC8 SWAP1 PUSH2 0x1F55 JUMP JUMPDEST PUSH1 0x40 MLOAD DUP1 SWAP2 SUB SWAP1 REVERT JUMPDEST DUP1 PUSH1 0x1 PUSH1 0x0 DUP6 PUSH20 0xFFFFFFFFFFFFFFFFFFFFFFFFFFFFFFFFFFFFFFFF AND PUSH20 0xFFFFFFFFFFFFFFFFFFFFFFFFFFFFFFFFFFFFFFFF AND DUP2 MSTORE PUSH1 0x20 ADD SWAP1 DUP2 MSTORE PUSH1 0x20 ADD PUSH1 0x0 KECCAK256 PUSH1 0x0 DUP5 PUSH20 0xFFFFFFFFFFFFFFFFFFFFFFFFFFFFFFFFFFFFFFFF AND PUSH20 0xFFFFFFFFFFFFFFFFFFFFFFFFFFFFFFFFFFFFFFFF AND DUP2 MSTORE PUSH1 0x20 ADD SWAP1 DUP2 MSTORE PUSH1 0x20 ADD PUSH1 0x0 KECCAK256 DUP2 SWAP1 SSTORE POP DUP2 PUSH20 0xFFFFFFFFFFFFFFFFFFFFFFFFFFFFFFFFFFFFFFFF AND DUP4 PUSH20 0xFFFFFFFFFFFFFFFFFFFFFFFFFFFFFFFFFFFFFFFF AND PUSH32 0x8C5BE1E5EBEC7D5BD14F71427D1E84F3DD0314C0F7B2291E5B200AC8C7C3B925 DUP4 PUSH1 0x40 MLOAD PUSH2 0xFAF SWAP2 SWAP1 PUSH2 0x14A7 JUMP JUMPDEST PUSH1 0x40 MLOAD DUP1 SWAP2 SUB SWAP1 LOG3 POP POP POP JUMP JUMPDEST PUSH1 0x0 PUSH2 0xFC8 DUP5 DUP5 PUSH2 0xD62 JUMP JUMPDEST SWAP1 POP PUSH32 0xFFFFFFFFFFFFFFFFFFFFFFFFFFFFFFFFFFFFFFFFFFFFFFFFFFFFFFFFFFFFFFFF DUP2 EQ PUSH2 0x1042 JUMPI DUP2 DUP2 LT ISZERO PUSH2 0x1034 JUMPI PUSH1 0x40 MLOAD PUSH32 0x8C379A000000000000000000000000000000000000000000000000000000000 DUP2 MSTORE PUSH1 0x4 ADD PUSH2 0x102B SWAP1 PUSH2 0x1FC1 JUMP JUMPDEST PUSH1 0x40 MLOAD DUP1 SWAP2 SUB SWAP1 REVERT JUMPDEST PUSH2 0x1041 DUP5 DUP5 DUP5 DUP5 SUB PUSH2 0xDF3 JUMP JUMPDEST JUMPDEST POP POP POP POP JUMP JUMPDEST PUSH1 0x0 PUSH20 0xFFFFFFFFFFFFFFFFFFFFFFFFFFFFFFFFFFFFFFFF AND DUP4 PUSH20 0xFFFFFFFFFFFFFFFFFFFFFFFFFFFFFFFFFFFFFFFF AND SUB PUSH2 0x10B7 JUMPI PUSH1 0x40 MLOAD PUSH32 0x8C379A000000000000000000000000000000000000000000000000000000000 DUP2 MSTORE PUSH1 0x4 ADD PUSH2 0x10AE SWAP1 PUSH2 0x2053 JUMP JUMPDEST PUSH1 0x40 MLOAD DUP1 SWAP2 SUB SWAP1 REVERT JUMPDEST PUSH1 0x0 PUSH20 0xFFFFFFFFFFFFFFFFFFFFFFFFFFFFFFFFFFFFFFFF AND DUP3 PUSH20 0xFFFFFFFFFFFFFFFFFFFFFFFFFFFFFFFFFFFFFFFF AND SUB PUSH2 0x1126 JUMPI PUSH1 0x40 MLOAD PUSH32 0x8C379A000000000000000000000000000000000000000000000000000000000 DUP2 MSTORE PUSH1 0x4 ADD PUSH2 0x111D SWAP1 PUSH2 0x20E5 JUMP JUMPDEST PUSH1 0x40 MLOAD DUP1 SWAP2 SUB SWAP1 REVERT JUMPDEST PUSH2 0x1131 DUP4 DUP4 DUP4 PUSH2 0x12BE JUMP JUMPDEST PUSH1 0x0 DUP1 PUSH1 0x0 DUP6 PUSH20 0xFFFFFFFFFFFFFFFFFFFFFFFFFFFFFFFFFFFFFFFF AND PUSH20 0xFFFFFFFFFFFFFFFFFFFFFFFFFFFFFFFFFFFFFFFF AND DUP2 MSTORE PUSH1 0x20 ADD SWAP1 DUP2 MSTORE PUSH1 0x20 ADD PUSH1 0x0 KECCAK256 SLOAD SWAP1 POP DUP2 DUP2 LT ISZERO PUSH2 0x11B7 JUMPI PUSH1 0x40 MLOAD PUSH32 0x8C379A000000000000000000000000000000000000000000000000000000000 DUP2 MSTORE PUSH1 0x4 ADD PUSH2 0x11AE SWAP1 PUSH2 0x2177 JUMP JUMPDEST PUSH1 0x40 MLOAD DUP1 SWAP2 SUB SWAP1 REVERT JUMPDEST DUP2 DUP2 SUB PUSH1 0x0 DUP1 DUP7 PUSH20 0xFFFFFFFFFFFFFFFFFFFFFFFFFFFFFFFFFFFFFFFF AND PUSH20 0xFFFFFFFFFFFFFFFFFFFFFFFFFFFFFFFFFFFFFFFF AND DUP2 MSTORE PUSH1 0x20 ADD SWAP1 DUP2 MSTORE PUSH1 0x20 ADD PUSH1 0x0 KECCAK256 DUP2 SWAP1 SSTORE POP DUP2 PUSH1 0x0 DUP1 DUP6 PUSH20 0xFFFFFFFFFFFFFFFFFFFFFFFFFFFFFFFFFFFFFFFF AND PUSH20 0xFFFFFFFFFFFFFFFFFFFFFFFFFFFFFFFFFFFFFFFF AND DUP2 MSTORE PUSH1 0x20 ADD SWAP1 DUP2 MSTORE PUSH1 0x20 ADD PUSH1 0x0 KECCAK256 PUSH1 0x0 DUP3 DUP3 SLOAD ADD SWAP3 POP POP DUP2 SWAP1 SSTORE POP DUP3 PUSH20 0xFFFFFFFFFFFFFFFFFFFFFFFFFFFFFFFFFFFFFFFF AND DUP5 PUSH20 0xFFFFFFFFFFFFFFFFFFFFFFFFFFFFFFFFFFFFFFFF AND PUSH32 0xDDF252AD1BE2C89B69C2B068FC378DAA952BA7F163C4A11628F55A4DF523B3EF DUP5 PUSH1 0x40 MLOAD PUSH2 0x12A5 SWAP2 SWAP1 PUSH2 0x14A7 JUMP JUMPDEST PUSH1 0x40 MLOAD DUP1 SWAP2 SUB SWAP1 LOG3 PUSH2 0x12B8 DUP5 DUP5 DUP5 PUSH2 0x12C3 JUMP JUMPDEST POP POP POP POP JUMP JUMPDEST POP POP POP JUMP JUMPDEST POP POP POP JUMP JUMPDEST PUSH1 0x0 DUP2 MLOAD SWAP1 POP SWAP2 SWAP1 POP JUMP JUMPDEST PUSH1 0x0 DUP3 DUP3 MSTORE PUSH1 0x20 DUP3 ADD SWAP1 POP SWAP3 SWAP2 POP POP JUMP JUMPDEST PUSH1 0x0 JUMPDEST DUP4 DUP2 LT ISZERO PUSH2 0x1302 JUMPI DUP1 DUP3 ADD MLOAD DUP2 DUP5 ADD MSTORE PUSH1 0x20 DUP2 ADD SWAP1 POP PUSH2 0x12E7 JUMP JUMPDEST PUSH1 0x0 DUP5 DUP5 ADD MSTORE POP POP POP POP JUMP JUMPDEST PUSH1 0x0 PUSH1 0x1F NOT PUSH1 0x1F DUP4 ADD AND SWAP1 POP SWAP2 SWAP1 POP JUMP JUMPDEST PUSH1 0x0 PUSH2 0x132A DUP3 PUSH2 0x12C8 JUMP JUMPDEST PUSH2 0x1334 DUP2 DUP6 PUSH2 0x12D3 JUMP JUMPDEST SWAP4 POP PUSH2 0x1344 DUP2 DUP6 PUSH1 0x20 DUP7 ADD PUSH2 0x12E4 JUMP JUMPDEST PUSH2 0x134D DUP2 PUSH2 0x130E JUMP JUMPDEST DUP5 ADD SWAP2 POP POP SWAP3 SWAP2 POP POP JUMP JUMPDEST PUSH1 0x0 PUSH1 0x20 DUP3 ADD SWAP1 POP DUP2 DUP2 SUB PUSH1 0x0 DUP4 ADD MSTORE PUSH2 0x1372 DUP2 DUP5 PUSH2 0x131F JUMP JUMPDEST SWAP1 POP SWAP3 SWAP2 POP POP JUMP JUMPDEST PUSH1 0x0 PUSH1 0x40 MLOAD SWAP1 POP SWAP1 JUMP JUMPDEST PUSH1 0x0 DUP1 REVERT JUMPDEST PUSH1 0x0 DUP1 REVERT JUMPDEST PUSH1 0x0 PUSH20 0xFFFFFFFFFFFFFFFFFFFFFFFFFFFFFFFFFFFFFFFF DUP3 AND SWAP1 POP SWAP2 SWAP1 POP JUMP JUMPDEST PUSH1 0x0 PUSH2 0x13B9 DUP3 PUSH2 0x138E JUMP JUMPDEST SWAP1 POP SWAP2 SWAP1 POP JUMP JUMPDEST PUSH2 0x13C9 DUP2 PUSH2 0x13AE JUMP JUMPDEST DUP2 EQ PUSH2 0x13D4 JUMPI PUSH1 0x0 DUP1 REVERT JUMPDEST POP JUMP JUMPDEST PUSH1 0x0 DUP2 CALLDATALOAD SWAP1 POP PUSH2 0x13E6 DUP2 PUSH2 0x13C0 JUMP JUMPDEST SWAP3 SWAP2 POP POP JUMP JUMPDEST PUSH1 0x0 DUP2 SWAP1 POP SWAP2 SWAP1 POP JUMP JUMPDEST PUSH2 0x13FF DUP2 PUSH2 0x13EC JUMP JUMPDEST DUP2 EQ PUSH2 0x140A JUMPI PUSH1 0x0 DUP1 REVERT JUMPDEST POP JUMP JUMPDEST PUSH1 0x0 DUP2 CALLDATALOAD SWAP1 POP PUSH2 0x141C DUP2 PUSH2 0x13F6 JUMP JUMPDEST SWAP3 SWAP2 POP POP JUMP JUMPDEST PUSH1 0x0 DUP1 PUSH1 0x40 DUP4 DUP6 SUB SLT ISZERO PUSH2 0x1439 JUMPI PUSH2 0x1438 PUSH2 0x1384 JUMP JUMPDEST JUMPDEST PUSH1 0x0 PUSH2 0x1447 DUP6 DUP3 DUP7 ADD PUSH2 0x13D7 JUMP JUMPDEST SWAP3 POP POP PUSH1 0x20 PUSH2 0x1458 DUP6 DUP3 DUP7 ADD PUSH2 0x140D JUMP JUMPDEST SWAP2 POP POP SWAP3 POP SWAP3 SWAP1 POP JUMP JUMPDEST PUSH1 0x0 DUP2 ISZERO ISZERO SWAP1 POP SWAP2 SWAP1 POP JUMP JUMPDEST PUSH2 0x1477 DUP2 PUSH2 0x1462 JUMP JUMPDEST DUP3 MSTORE POP POP JUMP JUMPDEST PUSH1 0x0 PUSH1 0x20 DUP3 ADD SWAP1 POP PUSH2 0x1492 PUSH1 0x0 DUP4 ADD DUP5 PUSH2 0x146E JUMP JUMPDEST SWAP3 SWAP2 POP POP JUMP JUMPDEST PUSH2 0x14A1 DUP2 PUSH2 0x13EC JUMP JUMPDEST DUP3 MSTORE POP POP JUMP JUMPDEST PUSH1 0x0 PUSH1 0x20 DUP3 ADD SWAP1 POP PUSH2 0x14BC PUSH1 0x0 DUP4 ADD DUP5 PUSH2 0x1498 JUMP JUMPDEST SWAP3 SWAP2 POP POP JUMP JUMPDEST PUSH1 0x0 DUP1 PUSH1 0x0 PUSH1 0x60 DUP5 DUP7 SUB SLT ISZERO PUSH2 0x14DB JUMPI PUSH2 0x14DA PUSH2 0x1384 JUMP JUMPDEST JUMPDEST PUSH1 0x0 PUSH2 0x14E9 DUP7 DUP3 DUP8 ADD PUSH2 0x13D7 JUMP JUMPDEST SWAP4 POP POP PUSH1 0x20 PUSH2 0x14FA DUP7 DUP3 DUP8 ADD PUSH2 0x13D7 JUMP JUMPDEST SWAP3 POP POP PUSH1 0x40 PUSH2 0x150B DUP7 DUP3 DUP8 ADD PUSH2 0x140D JUMP JUMPDEST SWAP2 POP POP SWAP3 POP SWAP3 POP SWAP3 JUMP JUMPDEST PUSH1 0x0 PUSH2 0x1520 DUP3 PUSH2 0x138E JUMP JUMPDEST SWAP1 POP SWAP2 SWAP1 POP JUMP JUMPDEST PUSH2 0x1530 DUP2 PUSH2 0x1515 JUMP JUMPDEST DUP2 EQ PUSH2 0x153B JUMPI PUSH1 0x0 DUP1 REVERT JUMPDEST POP JUMP JUMPDEST PUSH1 0x0 DUP2 CALLDATALOAD SWAP1 POP PUSH2 0x154D DUP2 PUSH2 0x1527 JUMP JUMPDEST SWAP3 SWAP2 POP POP JUMP JUMPDEST PUSH1 0x0 DUP1 PUSH1 0x40 DUP4 DUP6 SUB SLT ISZERO PUSH2 0x156A JUMPI PUSH2 0x1569 PUSH2 0x1384 JUMP JUMPDEST JUMPDEST PUSH1 0x0 PUSH2 0x1578 DUP6 DUP3 DUP7 ADD PUSH2 0x153E JUMP JUMPDEST SWAP3 POP POP PUSH1 0x20 PUSH2 0x1589 DUP6 DUP3 DUP7 ADD PUSH2 0x140D JUMP JUMPDEST SWAP2 POP POP SWAP3 POP SWAP3 SWAP1 POP JUMP JUMPDEST PUSH1 0x0 DUP2 SWAP1 POP SWAP2 SWAP1 POP JUMP JUMPDEST PUSH2 0x15A6 DUP2 PUSH2 0x1593 JUMP JUMPDEST DUP3 MSTORE POP POP JUMP JUMPDEST PUSH1 0x0 PUSH1 0x20 DUP3 ADD SWAP1 POP PUSH2 0x15C1 PUSH1 0x0 DUP4 ADD DUP5 PUSH2 0x159D JUMP JUMPDEST SWAP3 SWAP2 POP POP JUMP JUMPDEST PUSH1 0x0 PUSH1 0x20 DUP3 DUP5 SUB SLT ISZERO PUSH2 0x15DD JUMPI PUSH2 0x15DC PUSH2 0x1384 JUMP JUMPDEST JUMPDEST PUSH1 0x0 PUSH2 0x15EB DUP5 DUP3 DUP6 ADD PUSH2 0x13D7 JUMP JUMPDEST SWAP2 POP POP SWAP3 SWAP2 POP POP JUMP JUMPDEST PUSH1 0x0 PUSH1 0xFF DUP3 AND SWAP1 POP SWAP2 SWAP1 POP JUMP JUMPDEST PUSH2 0x160A DUP2 PUSH2 0x15F4 JUMP JUMPDEST DUP3 MSTORE POP POP JUMP JUMPDEST PUSH1 0x0 PUSH1 0x20 DUP3 ADD SWAP1 POP PUSH2 0x1625 PUSH1 0x0 DUP4 ADD DUP5 PUSH2 0x1601 JUMP JUMPDEST SWAP3 SWAP2 POP POP JUMP JUMPDEST PUSH1 0x0 DUP1 REVERT JUMPDEST PUSH32 0x4E487B7100000000000000000000000000000000000000000000000000000000 PUSH1 0x0 MSTORE PUSH1 0x41 PUSH1 0x4 MSTORE PUSH1 0x24 PUSH1 0x0 REVERT JUMPDEST PUSH2 0x1668 DUP3 PUSH2 0x130E JUMP JUMPDEST DUP2 ADD DUP2 DUP2 LT PUSH8 0xFFFFFFFFFFFFFFFF DUP3 GT OR ISZERO PUSH2 0x1687 JUMPI PUSH2 0x1686 PUSH2 0x1630 JUMP JUMPDEST JUMPDEST DUP1 PUSH1 0x40 MSTORE POP POP POP JUMP JUMPDEST PUSH1 0x0 PUSH2 0x169A PUSH2 0x137A JUMP JUMPDEST SWAP1 POP PUSH2 0x16A6 DUP3 DUP3 PUSH2 0x165F JUMP JUMPDEST SWAP2 SWAP1 POP JUMP JUMPDEST PUSH1 0x0 PUSH8 0xFFFFFFFFFFFFFFFF DUP3 GT ISZERO PUSH2 0x16C6 JUMPI PUSH2 0x16C5 PUSH2 0x1630 JUMP JUMPDEST JUMPDEST PUSH1 0x20 DUP3 MUL SWAP1 POP PUSH1 0x20 DUP2 ADD SWAP1 POP SWAP2 SWAP1 POP JUMP JUMPDEST PUSH1 0x0 DUP1 REVERT JUMPDEST PUSH1 0x0 PUSH2 0x16EF PUSH2 0x16EA DUP5 PUSH2 0x16AB JUMP JUMPDEST PUSH2 0x1690 JUMP JUMPDEST SWAP1 POP DUP1 DUP4 DUP3 MSTORE PUSH1 0x20 DUP3 ADD SWAP1 POP PUSH1 0x20 DUP5 MUL DUP4 ADD DUP6 DUP2 GT ISZERO PUSH2 0x1712 JUMPI PUSH2 0x1711 PUSH2 0x16D7 JUMP JUMPDEST JUMPDEST DUP4 JUMPDEST DUP2 DUP2 LT ISZERO PUSH2 0x173B JUMPI DUP1 PUSH2 0x1727 DUP9 DUP3 PUSH2 0x13D7 JUMP JUMPDEST DUP5 MSTORE PUSH1 0x20 DUP5 ADD SWAP4 POP POP PUSH1 0x20 DUP2 ADD SWAP1 POP PUSH2 0x1714 JUMP JUMPDEST POP POP POP SWAP4 SWAP3 POP POP POP JUMP JUMPDEST PUSH1 0x0 DUP3 PUSH1 0x1F DUP4 ADD SLT PUSH2 0x175A JUMPI PUSH2 0x1759 PUSH2 0x162B JUMP JUMPDEST JUMPDEST DUP2 CALLDATALOAD PUSH2 0x176A DUP5 DUP3 PUSH1 0x20 DUP7 ADD PUSH2 0x16DC JUMP JUMPDEST SWAP2 POP POP SWAP3 SWAP2 POP POP JUMP JUMPDEST PUSH1 0x0 PUSH8 0xFFFFFFFFFFFFFFFF DUP3 GT ISZERO PUSH2 0x178E JUMPI PUSH2 0x178D PUSH2 0x1630 JUMP JUMPDEST JUMPDEST PUSH1 0x20 DUP3 MUL SWAP1 POP PUSH1 0x20 DUP2 ADD SWAP1 POP SWAP2 SWAP1 POP JUMP JUMPDEST PUSH1 0x0 PUSH2 0x17B2 PUSH2 0x17AD DUP5 PUSH2 0x1773 JUMP JUMPDEST PUSH2 0x1690 JUMP JUMPDEST SWAP1 POP DUP1 DUP4 DUP3 MSTORE PUSH1 0x20 DUP3 ADD SWAP1 POP PUSH1 0x20 DUP5 MUL DUP4 ADD DUP6 DUP2 GT ISZERO PUSH2 0x17D5 JUMPI PUSH2 0x17D4 PUSH2 0x16D7 JUMP JUMPDEST JUMPDEST DUP4 JUMPDEST DUP2 DUP2 LT ISZERO PUSH2 0x17FE JUMPI DUP1 PUSH2 0x17EA DUP9 DUP3 PUSH2 0x140D JUMP JUMPDEST DUP5 MSTORE PUSH1 0x20 DUP5 ADD SWAP4 POP POP PUSH1 0x20 DUP2 ADD SWAP1 POP PUSH2 0x17D7 JUMP JUMPDEST POP POP POP SWAP4 SWAP3 POP POP POP JUMP JUMPDEST PUSH1 0x0 DUP3 PUSH1 0x1F DUP4 ADD SLT PUSH2 0x181D JUMPI PUSH2 0x181C PUSH2 0x162B JUMP JUMPDEST JUMPDEST DUP2 CALLDATALOAD PUSH2 0x182D DUP5 DUP3 PUSH1 0x20 DUP7 ADD PUSH2 0x179F JUMP JUMPDEST SWAP2 POP POP SWAP3 SWAP2 POP POP JUMP JUMPDEST PUSH1 0x0 DUP1 PUSH1 0x40 DUP4 DUP6 SUB SLT ISZERO PUSH2 0x184D JUMPI PUSH2 0x184C PUSH2 0x1384 JUMP JUMPDEST JUMPDEST PUSH1 0x0 DUP4 ADD CALLDATALOAD PUSH8 0xFFFFFFFFFFFFFFFF DUP2 GT ISZERO PUSH2 0x186B JUMPI PUSH2 0x186A PUSH2 0x1389 JUMP JUMPDEST JUMPDEST PUSH2 0x1877 DUP6 DUP3 DUP7 ADD PUSH2 0x1745 JUMP JUMPDEST SWAP3 POP POP PUSH1 0x20 DUP4 ADD CALLDATALOAD PUSH8 0xFFFFFFFFFFFFFFFF DUP2 GT ISZERO PUSH2 0x1898 JUMPI PUSH2 0x1897 PUSH2 0x1389 JUMP JUMPDEST JUMPDEST PUSH2 0x18A4 DUP6 DUP3 DUP7 ADD PUSH2 0x1808 JUMP JUMPDEST SWAP2 POP POP SWAP3 POP SWAP3 SWAP1 POP JUMP JUMPDEST PUSH1 0x0 PUSH8 0xFFFFFFFFFFFFFFFF DUP3 GT ISZERO PUSH2 0x18C9 JUMPI PUSH2 0x18C8 PUSH2 0x1630 JUMP JUMPDEST JUMPDEST PUSH1 0x20 DUP3 MUL SWAP1 POP PUSH1 0x20 DUP2 ADD SWAP1 POP SWAP2 SWAP1 POP JUMP JUMPDEST PUSH2 0x18E3 DUP2 PUSH2 0x1462 JUMP JUMPDEST DUP2 EQ PUSH2 0x18EE JUMPI PUSH1 0x0 DUP1 REVERT JUMPDEST POP JUMP JUMPDEST PUSH1 0x0 DUP2 CALLDATALOAD SWAP1 POP PUSH2 0x1900 DUP2 PUSH2 0x18DA JUMP JUMPDEST SWAP3 SWAP2 POP POP JUMP JUMPDEST PUSH1 0x0 PUSH2 0x1919 PUSH2 0x1914 DUP5 PUSH2 0x18AE JUMP JUMPDEST PUSH2 0x1690 JUMP JUMPDEST SWAP1 POP DUP1 DUP4 DUP3 MSTORE PUSH1 0x20 DUP3 ADD SWAP1 POP PUSH1 0x20 DUP5 MUL DUP4 ADD DUP6 DUP2 GT ISZERO PUSH2 0x193C JUMPI PUSH2 0x193B PUSH2 0x16D7 JUMP JUMPDEST JUMPDEST DUP4 JUMPDEST DUP2 DUP2 LT ISZERO PUSH2 0x1965 JUMPI DUP1 PUSH2 0x1951 DUP9 DUP3 PUSH2 0x18F1 JUMP JUMPDEST DUP5 MSTORE PUSH1 0x20 DUP5 ADD SWAP4 POP POP PUSH1 0x20 DUP2 ADD SWAP1 POP PUSH2 0x193E JUMP JUMPDEST POP POP POP SWAP4 SWAP3 POP POP POP JUMP JUMPDEST PUSH1 0x0 DUP3 PUSH1 0x1F DUP4 ADD SLT PUSH2 0x1984 JUMPI PUSH2 0x1983 PUSH2 0x162B JUMP JUMPDEST JUMPDEST DUP2 CALLDATALOAD PUSH2 0x1994 DUP5 DUP3 PUSH1 0x20 DUP7 ADD PUSH2 0x1906 JUMP JUMPDEST SWAP2 POP POP SWAP3 SWAP2 POP POP JUMP JUMPDEST PUSH1 0x0 DUP1 PUSH1 0x40 DUP4 DUP6 SUB SLT ISZERO PUSH2 0x19B4 JUMPI PUSH2 0x19B3 PUSH2 0x1384 JUMP JUMPDEST JUMPDEST PUSH1 0x0 DUP4 ADD CALLDATALOAD PUSH8 0xFFFFFFFFFFFFFFFF DUP2 GT ISZERO PUSH2 0x19D2 JUMPI PUSH2 0x19D1 PUSH2 0x1389 JUMP JUMPDEST JUMPDEST PUSH2 0x19DE DUP6 DUP3 DUP7 ADD PUSH2 0x1745 JUMP JUMPDEST SWAP3 POP POP PUSH1 0x20 DUP4 ADD CALLDATALOAD PUSH8 0xFFFFFFFFFFFFFFFF DUP2 GT ISZERO PUSH2 0x19FF JUMPI PUSH2 0x19FE PUSH2 0x1389 JUMP JUMPDEST JUMPDEST PUSH2 0x1A0B DUP6 DUP3 DUP7 ADD PUSH2 0x196F JUMP JUMPDEST SWAP2 POP POP SWAP3 POP SWAP3 SWAP1 POP JUMP JUMPDEST PUSH1 0x0 DUP1 PUSH1 0x40 DUP4 DUP6 SUB SLT ISZERO PUSH2 0x1A2C JUMPI PUSH2 0x1A2B PUSH2 0x1384 JUMP JUMPDEST JUMPDEST PUSH1 0x0 PUSH2 0x1A3A DUP6 DUP3 DUP7 ADD PUSH2 0x13D7 JUMP JUMPDEST SWAP3 POP POP PUSH1 0x20 PUSH2 0x1A4B DUP6 DUP3 DUP7 ADD PUSH2 0x13D7 JUMP JUMPDEST SWAP2 POP POP SWAP3 POP SWAP3 SWAP1 POP JUMP JUMPDEST PUSH32 0x4E487B7100000000000000000000000000000000000000000000000000000000 PUSH1 0x0 MSTORE PUSH1 0x22 PUSH1 0x4 MSTORE PUSH1 0x24 PUSH1 0x0 REVERT JUMPDEST PUSH1 0x0 PUSH1 0x2 DUP3 DIV SWAP1 POP PUSH1 0x1 DUP3 AND DUP1 PUSH2 0x1A9C JUMPI PUSH1 0x7F DUP3 AND SWAP2 POP JUMPDEST PUSH1 0x20 DUP3 LT DUP2 SUB PUSH2 0x1AAF JUMPI PUSH2 0x1AAE PUSH2 0x1A55 JUMP JUMPDEST JUMPDEST POP SWAP2 SWAP1 POP JUMP JUMPDEST PUSH32 0x4E487B7100000000000000000000000000000000000000000000000000000000 PUSH1 0x0 MSTORE PUSH1 0x11 PUSH1 0x4 MSTORE PUSH1 0x24 PUSH1 0x0 REVERT JUMPDEST PUSH1 0x0 PUSH2 0x1AEF DUP3 PUSH2 0x13EC JUMP JUMPDEST SWAP2 POP PUSH32 0xFFFFFFFFFFFFFFFFFFFFFFFFFFFFFFFFFFFFFFFFFFFFFFFFFFFFFFFFFFFFFFFF DUP3 SUB PUSH2 0x1B21 JUMPI PUSH2 0x1B20 PUSH2 0x1AB5 JUMP JUMPDEST JUMPDEST PUSH1 0x1 DUP3 ADD SWAP1 POP SWAP2 SWAP1 POP JUMP JUMPDEST PUSH1 0x0 PUSH2 0x1B37 DUP3 PUSH2 0x13EC JUMP JUMPDEST SWAP2 POP PUSH2 0x1B42 DUP4 PUSH2 0x13EC JUMP JUMPDEST SWAP3 POP DUP3 DUP3 ADD SWAP1 POP DUP1 DUP3 GT ISZERO PUSH2 0x1B5A JUMPI PUSH2 0x1B59 PUSH2 0x1AB5 JUMP JUMPDEST JUMPDEST SWAP3 SWAP2 POP POP JUMP JUMPDEST PUSH32 0x496E76616C696420696E70757400000000000000000000000000000000000000 PUSH1 0x0 DUP3 ADD MSTORE POP JUMP JUMPDEST PUSH1 0x0 PUSH2 0x1B96 PUSH1 0xD DUP4 PUSH2 0x12D3 JUMP JUMPDEST SWAP2 POP PUSH2 0x1BA1 DUP3 PUSH2 0x1B60 JUMP JUMPDEST PUSH1 0x20 DUP3 ADD SWAP1 POP SWAP2 SWAP1 POP JUMP JUMPDEST PUSH1 0x0 PUSH1 0x20 DUP3 ADD SWAP1 POP DUP2 DUP2 SUB PUSH1 0x0 DUP4 ADD MSTORE PUSH2 0x1BC5 DUP2 PUSH2 0x1B89 JUMP JUMPDEST SWAP1 POP SWAP2 SWAP1 POP JUMP JUMPDEST PUSH32 0x4E487B7100000000000000000000000000000000000000000000000000000000 PUSH1 0x0 MSTORE PUSH1 0x32 PUSH1 0x4 MSTORE PUSH1 0x24 PUSH1 0x0 REVERT JUMPDEST PUSH32 0x416D6F756E74206D7573742062652067726561746572207468616E207A65726F PUSH1 0x0 DUP3 ADD MSTORE POP JUMP JUMPDEST PUSH1 0x0 PUSH2 0x1C31 PUSH1 0x20 DUP4 PUSH2 0x12D3 JUMP JUMPDEST SWAP2 POP PUSH2 0x1C3C DUP3 PUSH2 0x1BFB JUMP JUMPDEST PUSH1 0x20 DUP3 ADD SWAP1 POP SWAP2 SWAP1 POP JUMP JUMPDEST PUSH1 0x0 PUSH1 0x20 DUP3 ADD SWAP1 POP DUP2 DUP2 SUB PUSH1 0x0 DUP4 ADD MSTORE PUSH2 0x1C60 DUP2 PUSH2 0x1C24 JUMP JUMPDEST SWAP1 POP SWAP2 SWAP1 POP JUMP JUMPDEST PUSH32 0x546F6B656E7320616C726561647920646973747269627574656420666F722074 PUSH1 0x0 DUP3 ADD MSTORE PUSH32 0x6869732079656172000000000000000000000000000000000000000000000000 PUSH1 0x20 DUP3 ADD MSTORE POP JUMP JUMPDEST PUSH1 0x0 PUSH2 0x1CC3 PUSH1 0x28 DUP4 PUSH2 0x12D3 JUMP JUMPDEST SWAP2 POP PUSH2 0x1CCE DUP3 PUSH2 0x1C67 JUMP JUMPDEST PUSH1 0x40 DUP3 ADD SWAP1 POP SWAP2 SWAP1 POP JUMP JUMPDEST PUSH1 0x0 PUSH1 0x20 DUP3 ADD SWAP1 POP DUP2 DUP2 SUB PUSH1 0x0 DUP4 ADD MSTORE PUSH2 0x1CF2 DUP2 PUSH2 0x1CB6 JUMP JUMPDEST SWAP1 POP SWAP2 SWAP1 POP JUMP JUMPDEST PUSH32 0x45524332303A2064656372656173656420616C6C6F77616E63652062656C6F77 PUSH1 0x0 DUP3 ADD MSTORE PUSH32 0x207A65726F000000000000000000000000000000000000000000000000000000 PUSH1 0x20 DUP3 ADD MSTORE POP JUMP JUMPDEST PUSH1 0x0 PUSH2 0x1D55 PUSH1 0x25 DUP4 PUSH2 0x12D3 JUMP JUMPDEST SWAP2 POP PUSH2 0x1D60 DUP3 PUSH2 0x1CF9 JUMP JUMPDEST PUSH1 0x40 DUP3 ADD SWAP1 POP SWAP2 SWAP1 POP JUMP JUMPDEST PUSH1 0x0 PUSH1 0x20 DUP3 ADD SWAP1 POP DUP2 DUP2 SUB PUSH1 0x0 DUP4 ADD MSTORE PUSH2 0x1D84 DUP2 PUSH2 0x1D48 JUMP JUMPDEST SWAP1 POP SWAP2 SWAP1 POP JUMP JUMPDEST PUSH32 0x4F6E6C7920636F6E7472616374206F776E65722063616E2063616C6C20746869 PUSH1 0x0 DUP3 ADD MSTORE PUSH32 0x732066756E6374696F6E00000000000000000000000000000000000000000000 PUSH1 0x20 DUP3 ADD MSTORE POP JUMP JUMPDEST PUSH1 0x0 PUSH2 0x1DE7 PUSH1 0x2A DUP4 PUSH2 0x12D3 JUMP JUMPDEST SWAP2 POP PUSH2 0x1DF2 DUP3 PUSH2 0x1D8B JUMP JUMPDEST PUSH1 0x40 DUP3 ADD SWAP1 POP SWAP2 SWAP1 POP JUMP JUMPDEST PUSH1 0x0 PUSH1 0x20 DUP3 ADD SWAP1 POP DUP2 DUP2 SUB PUSH1 0x0 DUP4 ADD MSTORE PUSH2 0x1E16 DUP2 PUSH2 0x1DDA JUMP JUMPDEST SWAP1 POP SWAP2 SWAP1 POP JUMP JUMPDEST PUSH1 0x0 PUSH2 0x1E28 DUP3 PUSH2 0x13EC JUMP JUMPDEST SWAP2 POP PUSH2 0x1E33 DUP4 PUSH2 0x13EC JUMP JUMPDEST SWAP3 POP DUP3 DUP3 SUB SWAP1 POP DUP2 DUP2 GT ISZERO PUSH2 0x1E4B JUMPI PUSH2 0x1E4A PUSH2 0x1AB5 JUMP JUMPDEST JUMPDEST SWAP3 SWAP2 POP POP JUMP JUMPDEST PUSH32 0x45524332303A20617070726F76652066726F6D20746865207A65726F20616464 PUSH1 0x0 DUP3 ADD MSTORE PUSH32 0x7265737300000000000000000000000000000000000000000000000000000000 PUSH1 0x20 DUP3 ADD MSTORE POP JUMP JUMPDEST PUSH1 0x0 PUSH2 0x1EAD PUSH1 0x24 DUP4 PUSH2 0x12D3 JUMP JUMPDEST SWAP2 POP PUSH2 0x1EB8 DUP3 PUSH2 0x1E51 JUMP JUMPDEST PUSH1 0x40 DUP3 ADD SWAP1 POP SWAP2 SWAP1 POP JUMP JUMPDEST PUSH1 0x0 PUSH1 0x20 DUP3 ADD SWAP1 POP DUP2 DUP2 SUB PUSH1 0x0 DUP4 ADD MSTORE PUSH2 0x1EDC DUP2 PUSH2 0x1EA0 JUMP JUMPDEST SWAP1 POP SWAP2 SWAP1 POP JUMP JUMPDEST PUSH32 0x45524332303A20617070726F766520746F20746865207A65726F206164647265 PUSH1 0x0 DUP3 ADD MSTORE PUSH32 0x7373000000000000000000000000000000000000000000000000000000000000 PUSH1 0x20 DUP3 ADD MSTORE POP JUMP JUMPDEST PUSH1 0x0 PUSH2 0x1F3F PUSH1 0x22 DUP4 PUSH2 0x12D3 JUMP JUMPDEST SWAP2 POP PUSH2 0x1F4A DUP3 PUSH2 0x1EE3 JUMP JUMPDEST PUSH1 0x40 DUP3 ADD SWAP1 POP SWAP2 SWAP1 POP JUMP JUMPDEST PUSH1 0x0 PUSH1 0x20 DUP3 ADD SWAP1 POP DUP2 DUP2 SUB PUSH1 0x0 DUP4 ADD MSTORE PUSH2 0x1F6E DUP2 PUSH2 0x1F32 JUMP JUMPDEST SWAP1 POP SWAP2 SWAP1 POP JUMP JUMPDEST PUSH32 0x45524332303A20696E73756666696369656E7420616C6C6F77616E6365000000 PUSH1 0x0 DUP3 ADD MSTORE POP JUMP JUMPDEST PUSH1 0x0 PUSH2 0x1FAB PUSH1 0x1D DUP4 PUSH2 0x12D3 JUMP JUMPDEST SWAP2 POP PUSH2 0x1FB6 DUP3 PUSH2 0x1F75 JUMP JUMPDEST PUSH1 0x20 DUP3 ADD SWAP1 POP SWAP2 SWAP1 POP JUMP JUMPDEST PUSH1 0x0 PUSH1 0x20 DUP3 ADD SWAP1 POP DUP2 DUP2 SUB PUSH1 0x0 DUP4 ADD MSTORE PUSH2 0x1FDA DUP2 PUSH2 0x1F9E JUMP JUMPDEST SWAP1 POP SWAP2 SWAP1 POP JUMP JUMPDEST PUSH32 0x45524332303A207472616E736665722066726F6D20746865207A65726F206164 PUSH1 0x0 DUP3 ADD MSTORE PUSH32 0x6472657373000000000000000000000000000000000000000000000000000000 PUSH1 0x20 DUP3 ADD MSTORE POP JUMP JUMPDEST PUSH1 0x0 PUSH2 0x203D PUSH1 0x25 DUP4 PUSH2 0x12D3 JUMP JUMPDEST SWAP2 POP PUSH2 0x2048 DUP3 PUSH2 0x1FE1 JUMP JUMPDEST PUSH1 0x40 DUP3 ADD SWAP1 POP SWAP2 SWAP1 POP JUMP JUMPDEST PUSH1 0x0 PUSH1 0x20 DUP3 ADD SWAP1 POP DUP2 DUP2 SUB PUSH1 0x0 DUP4 ADD MSTORE PUSH2 0x206C DUP2 PUSH2 0x2030 JUMP JUMPDEST SWAP1 POP SWAP2 SWAP1 POP JUMP JUMPDEST PUSH32 0x45524332303A207472616E7366657220746F20746865207A65726F2061646472 PUSH1 0x0 DUP3 ADD MSTORE PUSH32 0x6573730000000000000000000000000000000000000000000000000000000000 PUSH1 0x20 DUP3 ADD MSTORE POP JUMP JUMPDEST PUSH1 0x0 PUSH2 0x20CF PUSH1 0x23 DUP4 PUSH2 0x12D3 JUMP JUMPDEST SWAP2 POP PUSH2 0x20DA DUP3 PUSH2 0x2073 JUMP JUMPDEST PUSH1 0x40 DUP3 ADD SWAP1 POP SWAP2 SWAP1 POP JUMP JUMPDEST PUSH1 0x0 PUSH1 0x20 DUP3 ADD SWAP1 POP DUP2 DUP2 SUB PUSH1 0x0 DUP4 ADD MSTORE PUSH2 0x20FE DUP2 PUSH2 0x20C2 JUMP JUMPDEST SWAP1 POP SWAP2 SWAP1 POP JUMP JUMPDEST PUSH32 0x45524332303A207472616E7366657220616D6F756E7420657863656564732062 PUSH1 0x0 DUP3 ADD MSTORE PUSH32 0x616C616E63650000000000000000000000000000000000000000000000000000 PUSH1 0x20 DUP3 ADD MSTORE POP JUMP JUMPDEST PUSH1 0x0 PUSH2 0x2161 PUSH1 0x26 DUP4 PUSH2 0x12D3 JUMP JUMPDEST SWAP2 POP PUSH2 0x216C DUP3 PUSH2 0x2105 JUMP JUMPDEST PUSH1 0x40 DUP3 ADD SWAP1 POP SWAP2 SWAP1 POP JUMP JUMPDEST PUSH1 0x0 PUSH1 0x20 DUP3 ADD SWAP1 POP DUP2 DUP2 SUB PUSH1 0x0 DUP4 ADD MSTORE PUSH2 0x2190 DUP2 PUSH2 0x2154 JUMP JUMPDEST SWAP1 POP SWAP2 SWAP1 POP JUMP INVALID LOG2 PUSH5 0x6970667358 0x22 SLT KECCAK256 SWAP13 ADDMOD 0xB0 EQ NOT 0xDB CALLCODE 0xCA PUSH15 0x997B4E0358655803ACA98BEDCA03CE 0xD 0x2F 0xAE 0xFB DUP11 0x2B DUP13 MLOAD PUSH5 0x736F6C6343 STOP ADDMOD SLT STOP CALLER "
				},
				"gasEstimates": {
					"creation": {
						"codeDepositCost": "1730600",
						"executionCost": "infinite",
						"totalCost": "infinite"
					},
					"external": {
						"CT_DEFAULT()": "462",
						"allowance(address,address)": "infinite",
						"approve(address,uint256)": "infinite",
						"balanceOf(address)": "2930",
						"debts(address)": "2881",
						"decimals()": "432",
						"decreaseAllowance(address,uint256)": "infinite",
						"depositETH()": "252",
						"distributeTokens(address[],uint256[])": "infinite",
						"getContractBalance()": "406",
						"increaseAllowance(address,uint256)": "infinite",
						"isAddressInMerkleTree(address)": "2890",
						"merkleRoot()": "2474",
						"name()": "infinite",
						"nextYear()": "24569",
						"setAddressInfo(address[],bool[])": "infinite",
						"settleAccounts(address,uint256)": "infinite",
						"symbol()": "infinite",
						"totalSupply()": "2527",
						"transfer(address,uint256)": "infinite",
						"transferETHToExternalAccount(address,uint256)": "infinite",
						"transferFrom(address,address,uint256)": "infinite"
					}
				},
				"methodIdentifiers": {
					"CT_DEFAULT()": "3f52f56b",
					"allowance(address,address)": "dd62ed3e",
					"approve(address,uint256)": "095ea7b3",
					"balanceOf(address)": "70a08231",
					"debts(address)": "2ecd4e7d",
					"decimals()": "313ce567",
					"decreaseAllowance(address,uint256)": "a457c2d7",
					"depositETH()": "f6326fb3",
					"distributeTokens(address[],uint256[])": "4bd09c2a",
					"getContractBalance()": "6f9fb98a",
					"increaseAllowance(address,uint256)": "39509351",
					"isAddressInMerkleTree(address)": "6d23932e",
					"merkleRoot()": "2eb4a7ab",
					"name()": "06fdde03",
					"nextYear()": "146bea7b",
					"setAddressInfo(address[],bool[])": "865cf788",
					"settleAccounts(address,uint256)": "d8e3fa68",
					"symbol()": "95d89b41",
					"totalSupply()": "18160ddd",
					"transfer(address,uint256)": "a9059cbb",
					"transferETHToExternalAccount(address,uint256)": "294715d8",
					"transferFrom(address,address,uint256)": "23b872dd"
				}
			},
			"storageLayout": {
				"storage": [
					{
						"astId": 15,
						"contract": "Carbon Token/CT.sol:CTToken",
						"label": "_balances",
						"offset": 0,
						"slot": "0",
						"type": "t_mapping(t_address,t_uint256)"
					},
					{
						"astId": 21,
						"contract": "Carbon Token/CT.sol:CTToken",
						"label": "_allowances",
						"offset": 0,
						"slot": "1",
						"type": "t_mapping(t_address,t_mapping(t_address,t_uint256))"
					},
					{
						"astId": 23,
						"contract": "Carbon Token/CT.sol:CTToken",
						"label": "_totalSupply",
						"offset": 0,
						"slot": "2",
						"type": "t_uint256"
					},
					{
						"astId": 25,
						"contract": "Carbon Token/CT.sol:CTToken",
						"label": "_name",
						"offset": 0,
						"slot": "3",
						"type": "t_string_storage"
					},
					{
						"astId": 27,
						"contract": "Carbon Token/CT.sol:CTToken",
						"label": "_symbol",
						"offset": 0,
						"slot": "4",
						"type": "t_string_storage"
					},
					{
						"astId": 726,
						"contract": "Carbon Token/CT.sol:CTToken",
						"label": "merkleRoot",
						"offset": 0,
						"slot": "5",
						"type": "t_bytes32"
					},
					{
						"astId": 730,
						"contract": "Carbon Token/CT.sol:CTToken",
						"label": "isAddressInMerkleTree",
						"offset": 0,
						"slot": "6",
						"type": "t_mapping(t_address,t_bool)"
					},
					{
						"astId": 734,
						"contract": "Carbon Token/CT.sol:CTToken",
						"label": "debts",
						"offset": 0,
						"slot": "7",
						"type": "t_mapping(t_address,t_uint256)"
					},
					{
						"astId": 739,
						"contract": "Carbon Token/CT.sol:CTToken",
						"label": "addressInfo",
						"offset": 0,
						"slot": "8",
						"type": "t_mapping(t_address,t_struct(AddressInfo)721_storage)"
					},
					{
						"astId": 741,
						"contract": "Carbon Token/CT.sol:CTToken",
						"label": "currentYear",
						"offset": 0,
						"slot": "9",
						"type": "t_uint256"
					},
					{
						"astId": 743,
						"contract": "Carbon Token/CT.sol:CTToken",
						"label": "admin",
						"offset": 0,
						"slot": "10",
						"type": "t_address"
					}
				],
				"types": {
					"t_address": {
						"encoding": "inplace",
						"label": "address",
						"numberOfBytes": "20"
					},
					"t_bool": {
						"encoding": "inplace",
						"label": "bool",
						"numberOfBytes": "1"
					},
					"t_bytes32": {
						"encoding": "inplace",
						"label": "bytes32",
						"numberOfBytes": "32"
					},
					"t_mapping(t_address,t_bool)": {
						"encoding": "mapping",
						"key": "t_address",
						"label": "mapping(address => bool)",
						"numberOfBytes": "32",
						"value": "t_bool"
					},
					"t_mapping(t_address,t_mapping(t_address,t_uint256))": {
						"encoding": "mapping",
						"key": "t_address",
						"label": "mapping(address => mapping(address => uint256))",
						"numberOfBytes": "32",
						"value": "t_mapping(t_address,t_uint256)"
					},
					"t_mapping(t_address,t_struct(AddressInfo)721_storage)": {
						"encoding": "mapping",
						"key": "t_address",
						"label": "mapping(address => struct CTToken.AddressInfo)",
						"numberOfBytes": "32",
						"value": "t_struct(AddressInfo)721_storage"
					},
					"t_mapping(t_address,t_uint256)": {
						"encoding": "mapping",
						"key": "t_address",
						"label": "mapping(address => uint256)",
						"numberOfBytes": "32",
						"value": "t_uint256"
					},
					"t_string_storage": {
						"encoding": "bytes",
						"label": "string",
						"numberOfBytes": "32"
					},
					"t_struct(AddressInfo)721_storage": {
						"encoding": "inplace",
						"label": "struct CTToken.AddressInfo",
						"members": [
							{
								"astId": 718,
								"contract": "Carbon Token/CT.sol:CTToken",
								"label": "isEnterprise",
								"offset": 0,
								"slot": "0",
								"type": "t_bool"
							},
							{
								"astId": 720,
								"contract": "Carbon Token/CT.sol:CTToken",
								"label": "isDistributed",
								"offset": 1,
								"slot": "0",
								"type": "t_bool"
							}
						],
						"numberOfBytes": "32"
					},
					"t_uint256": {
						"encoding": "inplace",
						"label": "uint256",
						"numberOfBytes": "32"
					}
				}
			},
			"userdoc": {
				"kind": "user",
				"methods": {},
				"version": 1
			}
		}
	}
}