{
	"data": {
		"bytecode": {
			"linkReferences": {},
			"object": "608060405234801562000010575f80fd5b5060405162001213380380620012138339818101604052810190620000369190620004d2565b5f8151116200007c576040517f08c379a000000000000000000000000000000000000000000000000000000000815260040162000073906200057f565b60405180910390fd5b6200008d816200010360201b60201c565b6028819055505f5b8151811015620000fb57600160295f848481518110620000ba57620000b96200059f565b5b602002602001015181526020019081526020015f205f6101000a81548160ff0219169083151502179055508080620000f29062000602565b91505062000095565b5050620007fb565b5f808251116200014a576040517f08c379a000000000000000000000000000000000000000000000000000000000815260040162000141906200057f565b60405180910390fd5b5f8290505f835190505b6001811115620002f6575f805b82811015620002cf57826001826200017a91906200064e565b1015620002675760028482815181106200019957620001986200059f565b5b602002602001015185600184620001b191906200064e565b81518110620001c557620001c46200059f565b5b6020026020010151604051602001620001e0929190620006ac565b604051602081830303815290604052604051620001fe91906200074f565b602060405180830381855afa1580156200021a573d5f803e3d5ffd5b5050506040513d601f19601f820116820180604052508101906200023f919062000767565b8483815181106200025557620002546200059f565b5b602002602001018181525050620002a8565b8381815181106200027d576200027c6200059f565b5b60200260200101518483815181106200029b576200029a6200059f565b5b6020026020010181815250505b8180620002b59062000602565b925050600281620002c791906200064e565b905062000161565b506002600183620002e191906200064e565b620002ed9190620007c4565b91505062000154565b815f815181106200030c576200030b6200059f565b5b602002602001015192505050919050565b5f604051905090565b5f80fd5b5f80fd5b5f80fd5b5f601f19601f8301169050919050565b7f4e487b71000000000000000000000000000000000000000000000000000000005f52604160045260245ffd5b6200037a8262000332565b810181811067ffffffffffffffff821117156200039c576200039b62000342565b5b80604052505050565b5f620003b06200031d565b9050620003be82826200036f565b919050565b5f67ffffffffffffffff821115620003e057620003df62000342565b5b602082029050602081019050919050565b5f80fd5b5f819050919050565b6200040981620003f5565b811462000414575f80fd5b50565b5f815190506200042781620003fe565b92915050565b5f620004436200043d84620003c3565b620003a5565b90508083825260208201905060208402830185811115620004695762000468620003f1565b5b835b8181101562000496578062000481888262000417565b8452602084019350506020810190506200046b565b5050509392505050565b5f82601f830112620004b757620004b66200032e565b5b8151620004c98482602086016200042d565b91505092915050565b5f60208284031215620004ea57620004e962000326565b5b5f82015167ffffffffffffffff8111156200050a57620005096200032a565b5b6200051884828501620004a0565b91505092915050565b5f82825260208201905092915050565b7f4e6f206164647265737365732070726f766964656400000000000000000000005f82015250565b5f6200056760158362000521565b9150620005748262000531565b602082019050919050565b5f6020820190508181035f830152620005988162000559565b9050919050565b7f4e487b71000000000000000000000000000000000000000000000000000000005f52603260045260245ffd5b7f4e487b71000000000000000000000000000000000000000000000000000000005f52601160045260245ffd5b5f819050919050565b5f6200060e82620005f9565b91507fffffffffffffffffffffffffffffffffffffffffffffffffffffffffffffffff8203620006435762000642620005cc565b5b600182019050919050565b5f6200065a82620005f9565b91506200066783620005f9565b9250828201905080821115620006825762000681620005cc565b5b92915050565b5f819050919050565b620006a6620006a082620003f5565b62000688565b82525050565b5f620006b9828562000691565b602082019150620006cb828462000691565b6020820191508190509392505050565b5f81519050919050565b5f81905092915050565b5f5b838110156200070e578082015181840152602081019050620006f1565b5f8484015250505050565b5f6200072582620006db565b620007318185620006e5565b935062000743818560208601620006ef565b80840191505092915050565b5f6200075c828462000719565b915081905092915050565b5f602082840312156200077f576200077e62000326565b5b5f6200078e8482850162000417565b91505092915050565b7f4e487b71000000000000000000000000000000000000000000000000000000005f52601260045260245ffd5b5f620007d082620005f9565b9150620007dd83620005f9565b925082620007f057620007ef62000797565b5b828204905092915050565b610a0a80620008095f395ff3fe608060405234801561000f575f80fd5b5060043610610055575f3560e01c80631b80bb3a14610059578063436fd96814610089578063e8295588146100a7578063ebf0c717146100d7578063f178e47c146100f5575b5f80fd5b610073600480360381019061006e91906104ec565b610125565b60405161008091906105ce565b60405180910390f35b610091610401565b60405161009e9190610606565b60405180910390f35b6100c160048036038101906100bc9190610649565b610406565b6040516100ce9190610683565b60405180910390f35b6100df61041f565b6040516100ec9190610683565b60405180910390f35b61010f600480360381019061010a9190610649565b610425565b60405161011c9190610683565b60405180910390f35b606060295f8381526020019081526020015f205f9054906101000a900460ff16610184576040517f08c379a000000000000000000000000000000000000000000000000000000000815260040161017b9061071c565b60405180910390fd5b5f601467ffffffffffffffff8111156101a05761019f61073a565b5b6040519080825280602002602001820160405280156101ce5781602001602082028036833780820191505090505b5090505f600160146101e09190610794565b67ffffffffffffffff8111156101f9576101f861073a565b5b6040519080825280602002602001820160405280156102275781602001602082028036833780820191505090505b5090505f8085835f815181106102405761023f6107c7565b5b6020026020010181815250505f5b60148110156103f4575f6002846102659190610821565b03610319576102a38483815181106102805761027f6107c7565b5b60200260200101516014836014811061029c5761029b6107c7565b5b015461043d565b846001846102b19190610794565b815181106102c2576102c16107c7565b5b602002602001018181525050836001836102dc9190610794565b815181106102ed576102ec6107c7565b5b6020026020010151858281518110610308576103076107c7565b5b6020026020010181815250506103c4565b610352601482601481106103305761032f6107c7565b5b0154858481518110610345576103446107c7565b5b602002602001015161043d565b846001846103609190610794565b81518110610371576103706107c7565b5b6020026020010181815250508360018361038b9190610794565b8151811061039c5761039b6107c7565b5b60200260200101518582815181106103b7576103b66107c7565b5b6020026020010181815250505b6002836103d19190610851565b925081806103de90610881565b92505080806103ec90610881565b91505061024e565b5083945050505050919050565b601481565b60148160148110610415575f80fd5b015f915090505481565b60285481565b5f8160148110610433575f80fd5b015f915090505481565b5f600283836040516020016104539291906108e8565b60405160208183030381529060405260405161046f919061097f565b602060405180830381855afa15801561048a573d5f803e3d5ffd5b5050506040513d601f19601f820116820180604052508101906104ad91906109a9565b905092915050565b5f80fd5b5f819050919050565b6104cb816104b9565b81146104d5575f80fd5b50565b5f813590506104e6816104c2565b92915050565b5f60208284031215610501576105006104b5565b5b5f61050e848285016104d8565b91505092915050565b5f81519050919050565b5f82825260208201905092915050565b5f819050602082019050919050565b610549816104b9565b82525050565b5f61055a8383610540565b60208301905092915050565b5f602082019050919050565b5f61057c82610517565b6105868185610521565b935061059183610531565b805f5b838110156105c15781516105a8888261054f565b97506105b383610566565b925050600181019050610594565b5085935050505092915050565b5f6020820190508181035f8301526105e68184610572565b905092915050565b5f819050919050565b610600816105ee565b82525050565b5f6020820190506106195f8301846105f7565b92915050565b610628816105ee565b8114610632575f80fd5b50565b5f813590506106438161061f565b92915050565b5f6020828403121561065e5761065d6104b5565b5b5f61066b84828501610635565b91505092915050565b61067d816104b9565b82525050565b5f6020820190506106965f830184610674565b92915050565b5f82825260208201905092915050565b7f41646472657373206e6f7420666f756e6420696e20746865204d65726b6c65205f8201527f7472656500000000000000000000000000000000000000000000000000000000602082015250565b5f61070660248361069c565b9150610711826106ac565b604082019050919050565b5f6020820190508181035f830152610733816106fa565b9050919050565b7f4e487b71000000000000000000000000000000000000000000000000000000005f52604160045260245ffd5b7f4e487b71000000000000000000000000000000000000000000000000000000005f52601160045260245ffd5b5f61079e826105ee565b91506107a9836105ee565b92508282019050808211156107c1576107c0610767565b5b92915050565b7f4e487b71000000000000000000000000000000000000000000000000000000005f52603260045260245ffd5b7f4e487b71000000000000000000000000000000000000000000000000000000005f52601260045260245ffd5b5f61082b826105ee565b9150610836836105ee565b925082610846576108456107f4565b5b828206905092915050565b5f61085b826105ee565b9150610866836105ee565b925082610876576108756107f4565b5b828204905092915050565b5f61088b826105ee565b91507fffffffffffffffffffffffffffffffffffffffffffffffffffffffffffffffff82036108bd576108bc610767565b5b600182019050919050565b5f819050919050565b6108e26108dd826104b9565b6108c8565b82525050565b5f6108f382856108d1565b60208201915061090382846108d1565b6020820191508190509392505050565b5f81519050919050565b5f81905092915050565b5f5b83811015610944578082015181840152602081019050610929565b5f8484015250505050565b5f61095982610913565b610963818561091d565b9350610973818560208601610927565b80840191505092915050565b5f61098a828461094f565b915081905092915050565b5f815190506109a3816104c2565b92915050565b5f602082840312156109be576109bd6104b5565b5b5f6109cb84828501610995565b9150509291505056fea26469706673582212200e0a5c771a052f86289e9fe8dd03f3e926f8f1cb3216f4eebb1d12625b7e504264736f6c63430008140033",
			"opcodes": "PUSH1 0x80 PUSH1 0x40 MSTORE CALLVALUE DUP1 ISZERO PUSH3 0x10 JUMPI PUSH0 DUP1 REVERT JUMPDEST POP PUSH1 0x40 MLOAD PUSH3 0x1213 CODESIZE SUB DUP1 PUSH3 0x1213 DUP4 CODECOPY DUP2 DUP2 ADD PUSH1 0x40 MSTORE DUP2 ADD SWAP1 PUSH3 0x36 SWAP2 SWAP1 PUSH3 0x4D2 JUMP JUMPDEST PUSH0 DUP2 MLOAD GT PUSH3 0x7C JUMPI PUSH1 0x40 MLOAD PUSH32 0x8C379A000000000000000000000000000000000000000000000000000000000 DUP2 MSTORE PUSH1 0x4 ADD PUSH3 0x73 SWAP1 PUSH3 0x57F JUMP JUMPDEST PUSH1 0x40 MLOAD DUP1 SWAP2 SUB SWAP1 REVERT JUMPDEST PUSH3 0x8D DUP2 PUSH3 0x103 PUSH1 0x20 SHL PUSH1 0x20 SHR JUMP JUMPDEST PUSH1 0x28 DUP2 SWAP1 SSTORE POP PUSH0 JUMPDEST DUP2 MLOAD DUP2 LT ISZERO PUSH3 0xFB JUMPI PUSH1 0x1 PUSH1 0x29 PUSH0 DUP5 DUP5 DUP2 MLOAD DUP2 LT PUSH3 0xBA JUMPI PUSH3 0xB9 PUSH3 0x59F JUMP JUMPDEST JUMPDEST PUSH1 0x20 MUL PUSH1 0x20 ADD ADD MLOAD DUP2 MSTORE PUSH1 0x20 ADD SWAP1 DUP2 MSTORE PUSH1 0x20 ADD PUSH0 KECCAK256 PUSH0 PUSH2 0x100 EXP DUP2 SLOAD DUP2 PUSH1 0xFF MUL NOT AND SWAP1 DUP4 ISZERO ISZERO MUL OR SWAP1 SSTORE POP DUP1 DUP1 PUSH3 0xF2 SWAP1 PUSH3 0x602 JUMP JUMPDEST SWAP2 POP POP PUSH3 0x95 JUMP JUMPDEST POP POP PUSH3 0x7FB JUMP JUMPDEST PUSH0 DUP1 DUP3 MLOAD GT PUSH3 0x14A JUMPI PUSH1 0x40 MLOAD PUSH32 0x8C379A000000000000000000000000000000000000000000000000000000000 DUP2 MSTORE PUSH1 0x4 ADD PUSH3 0x141 SWAP1 PUSH3 0x57F JUMP JUMPDEST PUSH1 0x40 MLOAD DUP1 SWAP2 SUB SWAP1 REVERT JUMPDEST PUSH0 DUP3 SWAP1 POP PUSH0 DUP4 MLOAD SWAP1 POP JUMPDEST PUSH1 0x1 DUP2 GT ISZERO PUSH3 0x2F6 JUMPI PUSH0 DUP1 JUMPDEST DUP3 DUP2 LT ISZERO PUSH3 0x2CF JUMPI DUP3 PUSH1 0x1 DUP3 PUSH3 0x17A SWAP2 SWAP1 PUSH3 0x64E JUMP JUMPDEST LT ISZERO PUSH3 0x267 JUMPI PUSH1 0x2 DUP5 DUP3 DUP2 MLOAD DUP2 LT PUSH3 0x199 JUMPI PUSH3 0x198 PUSH3 0x59F JUMP JUMPDEST JUMPDEST PUSH1 0x20 MUL PUSH1 0x20 ADD ADD MLOAD DUP6 PUSH1 0x1 DUP5 PUSH3 0x1B1 SWAP2 SWAP1 PUSH3 0x64E JUMP JUMPDEST DUP2 MLOAD DUP2 LT PUSH3 0x1C5 JUMPI PUSH3 0x1C4 PUSH3 0x59F JUMP JUMPDEST JUMPDEST PUSH1 0x20 MUL PUSH1 0x20 ADD ADD MLOAD PUSH1 0x40 MLOAD PUSH1 0x20 ADD PUSH3 0x1E0 SWAP3 SWAP2 SWAP1 PUSH3 0x6AC JUMP JUMPDEST PUSH1 0x40 MLOAD PUSH1 0x20 DUP2 DUP4 SUB SUB DUP2 MSTORE SWAP1 PUSH1 0x40 MSTORE PUSH1 0x40 MLOAD PUSH3 0x1FE SWAP2 SWAP1 PUSH3 0x74F JUMP JUMPDEST PUSH1 0x20 PUSH1 0x40 MLOAD DUP1 DUP4 SUB DUP2 DUP6 GAS STATICCALL ISZERO DUP1 ISZERO PUSH3 0x21A JUMPI RETURNDATASIZE PUSH0 DUP1 RETURNDATACOPY RETURNDATASIZE PUSH0 REVERT JUMPDEST POP POP POP PUSH1 0x40 MLOAD RETURNDATASIZE PUSH1 0x1F NOT PUSH1 0x1F DUP3 ADD AND DUP3 ADD DUP1 PUSH1 0x40 MSTORE POP DUP2 ADD SWAP1 PUSH3 0x23F SWAP2 SWAP1 PUSH3 0x767 JUMP JUMPDEST DUP5 DUP4 DUP2 MLOAD DUP2 LT PUSH3 0x255 JUMPI PUSH3 0x254 PUSH3 0x59F JUMP JUMPDEST JUMPDEST PUSH1 0x20 MUL PUSH1 0x20 ADD ADD DUP2 DUP2 MSTORE POP POP PUSH3 0x2A8 JUMP JUMPDEST DUP4 DUP2 DUP2 MLOAD DUP2 LT PUSH3 0x27D JUMPI PUSH3 0x27C PUSH3 0x59F JUMP JUMPDEST JUMPDEST PUSH1 0x20 MUL PUSH1 0x20 ADD ADD MLOAD DUP5 DUP4 DUP2 MLOAD DUP2 LT PUSH3 0x29B JUMPI PUSH3 0x29A PUSH3 0x59F JUMP JUMPDEST JUMPDEST PUSH1 0x20 MUL PUSH1 0x20 ADD ADD DUP2 DUP2 MSTORE POP POP JUMPDEST DUP2 DUP1 PUSH3 0x2B5 SWAP1 PUSH3 0x602 JUMP JUMPDEST SWAP3 POP POP PUSH1 0x2 DUP2 PUSH3 0x2C7 SWAP2 SWAP1 PUSH3 0x64E JUMP JUMPDEST SWAP1 POP PUSH3 0x161 JUMP JUMPDEST POP PUSH1 0x2 PUSH1 0x1 DUP4 PUSH3 0x2E1 SWAP2 SWAP1 PUSH3 0x64E JUMP JUMPDEST PUSH3 0x2ED SWAP2 SWAP1 PUSH3 0x7C4 JUMP JUMPDEST SWAP2 POP POP PUSH3 0x154 JUMP JUMPDEST DUP2 PUSH0 DUP2 MLOAD DUP2 LT PUSH3 0x30C JUMPI PUSH3 0x30B PUSH3 0x59F JUMP JUMPDEST JUMPDEST PUSH1 0x20 MUL PUSH1 0x20 ADD ADD MLOAD SWAP3 POP POP POP SWAP2 SWAP1 POP JUMP JUMPDEST PUSH0 PUSH1 0x40 MLOAD SWAP1 POP SWAP1 JUMP JUMPDEST PUSH0 DUP1 REVERT JUMPDEST PUSH0 DUP1 REVERT JUMPDEST PUSH0 DUP1 REVERT JUMPDEST PUSH0 PUSH1 0x1F NOT PUSH1 0x1F DUP4 ADD AND SWAP1 POP SWAP2 SWAP1 POP JUMP JUMPDEST PUSH32 0x4E487B7100000000000000000000000000000000000000000000000000000000 PUSH0 MSTORE PUSH1 0x41 PUSH1 0x4 MSTORE PUSH1 0x24 PUSH0 REVERT JUMPDEST PUSH3 0x37A DUP3 PUSH3 0x332 JUMP JUMPDEST DUP2 ADD DUP2 DUP2 LT PUSH8 0xFFFFFFFFFFFFFFFF DUP3 GT OR ISZERO PUSH3 0x39C JUMPI PUSH3 0x39B PUSH3 0x342 JUMP JUMPDEST JUMPDEST DUP1 PUSH1 0x40 MSTORE POP POP POP JUMP JUMPDEST PUSH0 PUSH3 0x3B0 PUSH3 0x31D JUMP JUMPDEST SWAP1 POP PUSH3 0x3BE DUP3 DUP3 PUSH3 0x36F JUMP JUMPDEST SWAP2 SWAP1 POP JUMP JUMPDEST PUSH0 PUSH8 0xFFFFFFFFFFFFFFFF DUP3 GT ISZERO PUSH3 0x3E0 JUMPI PUSH3 0x3DF PUSH3 0x342 JUMP JUMPDEST JUMPDEST PUSH1 0x20 DUP3 MUL SWAP1 POP PUSH1 0x20 DUP2 ADD SWAP1 POP SWAP2 SWAP1 POP JUMP JUMPDEST PUSH0 DUP1 REVERT JUMPDEST PUSH0 DUP2 SWAP1 POP SWAP2 SWAP1 POP JUMP JUMPDEST PUSH3 0x409 DUP2 PUSH3 0x3F5 JUMP JUMPDEST DUP2 EQ PUSH3 0x414 JUMPI PUSH0 DUP1 REVERT JUMPDEST POP JUMP JUMPDEST PUSH0 DUP2 MLOAD SWAP1 POP PUSH3 0x427 DUP2 PUSH3 0x3FE JUMP JUMPDEST SWAP3 SWAP2 POP POP JUMP JUMPDEST PUSH0 PUSH3 0x443 PUSH3 0x43D DUP5 PUSH3 0x3C3 JUMP JUMPDEST PUSH3 0x3A5 JUMP JUMPDEST SWAP1 POP DUP1 DUP4 DUP3 MSTORE PUSH1 0x20 DUP3 ADD SWAP1 POP PUSH1 0x20 DUP5 MUL DUP4 ADD DUP6 DUP2 GT ISZERO PUSH3 0x469 JUMPI PUSH3 0x468 PUSH3 0x3F1 JUMP JUMPDEST JUMPDEST DUP4 JUMPDEST DUP2 DUP2 LT ISZERO PUSH3 0x496 JUMPI DUP1 PUSH3 0x481 DUP9 DUP3 PUSH3 0x417 JUMP JUMPDEST DUP5 MSTORE PUSH1 0x20 DUP5 ADD SWAP4 POP POP PUSH1 0x20 DUP2 ADD SWAP1 POP PUSH3 0x46B JUMP JUMPDEST POP POP POP SWAP4 SWAP3 POP POP POP JUMP JUMPDEST PUSH0 DUP3 PUSH1 0x1F DUP4 ADD SLT PUSH3 0x4B7 JUMPI PUSH3 0x4B6 PUSH3 0x32E JUMP JUMPDEST JUMPDEST DUP2 MLOAD PUSH3 0x4C9 DUP5 DUP3 PUSH1 0x20 DUP7 ADD PUSH3 0x42D JUMP JUMPDEST SWAP2 POP POP SWAP3 SWAP2 POP POP JUMP JUMPDEST PUSH0 PUSH1 0x20 DUP3 DUP5 SUB SLT ISZERO PUSH3 0x4EA JUMPI PUSH3 0x4E9 PUSH3 0x326 JUMP JUMPDEST JUMPDEST PUSH0 DUP3 ADD MLOAD PUSH8 0xFFFFFFFFFFFFFFFF DUP2 GT ISZERO PUSH3 0x50A JUMPI PUSH3 0x509 PUSH3 0x32A JUMP JUMPDEST JUMPDEST PUSH3 0x518 DUP5 DUP3 DUP6 ADD PUSH3 0x4A0 JUMP JUMPDEST SWAP2 POP POP SWAP3 SWAP2 POP POP JUMP JUMPDEST PUSH0 DUP3 DUP3 MSTORE PUSH1 0x20 DUP3 ADD SWAP1 POP SWAP3 SWAP2 POP POP JUMP JUMPDEST PUSH32 0x4E6F206164647265737365732070726F76696465640000000000000000000000 PUSH0 DUP3 ADD MSTORE POP JUMP JUMPDEST PUSH0 PUSH3 0x567 PUSH1 0x15 DUP4 PUSH3 0x521 JUMP JUMPDEST SWAP2 POP PUSH3 0x574 DUP3 PUSH3 0x531 JUMP JUMPDEST PUSH1 0x20 DUP3 ADD SWAP1 POP SWAP2 SWAP1 POP JUMP JUMPDEST PUSH0 PUSH1 0x20 DUP3 ADD SWAP1 POP DUP2 DUP2 SUB PUSH0 DUP4 ADD MSTORE PUSH3 0x598 DUP2 PUSH3 0x559 JUMP JUMPDEST SWAP1 POP SWAP2 SWAP1 POP JUMP JUMPDEST PUSH32 0x4E487B7100000000000000000000000000000000000000000000000000000000 PUSH0 MSTORE PUSH1 0x32 PUSH1 0x4 MSTORE PUSH1 0x24 PUSH0 REVERT JUMPDEST PUSH32 0x4E487B7100000000000000000000000000000000000000000000000000000000 PUSH0 MSTORE PUSH1 0x11 PUSH1 0x4 MSTORE PUSH1 0x24 PUSH0 REVERT JUMPDEST PUSH0 DUP2 SWAP1 POP SWAP2 SWAP1 POP JUMP JUMPDEST PUSH0 PUSH3 0x60E DUP3 PUSH3 0x5F9 JUMP JUMPDEST SWAP2 POP PUSH32 0xFFFFFFFFFFFFFFFFFFFFFFFFFFFFFFFFFFFFFFFFFFFFFFFFFFFFFFFFFFFFFFFF DUP3 SUB PUSH3 0x643 JUMPI PUSH3 0x642 PUSH3 0x5CC JUMP JUMPDEST JUMPDEST PUSH1 0x1 DUP3 ADD SWAP1 POP SWAP2 SWAP1 POP JUMP JUMPDEST PUSH0 PUSH3 0x65A DUP3 PUSH3 0x5F9 JUMP JUMPDEST SWAP2 POP PUSH3 0x667 DUP4 PUSH3 0x5F9 JUMP JUMPDEST SWAP3 POP DUP3 DUP3 ADD SWAP1 POP DUP1 DUP3 GT ISZERO PUSH3 0x682 JUMPI PUSH3 0x681 PUSH3 0x5CC JUMP JUMPDEST JUMPDEST SWAP3 SWAP2 POP POP JUMP JUMPDEST PUSH0 DUP2 SWAP1 POP SWAP2 SWAP1 POP JUMP JUMPDEST PUSH3 0x6A6 PUSH3 0x6A0 DUP3 PUSH3 0x3F5 JUMP JUMPDEST PUSH3 0x688 JUMP JUMPDEST DUP3 MSTORE POP POP JUMP JUMPDEST PUSH0 PUSH3 0x6B9 DUP3 DUP6 PUSH3 0x691 JUMP JUMPDEST PUSH1 0x20 DUP3 ADD SWAP2 POP PUSH3 0x6CB DUP3 DUP5 PUSH3 0x691 JUMP JUMPDEST PUSH1 0x20 DUP3 ADD SWAP2 POP DUP2 SWAP1 POP SWAP4 SWAP3 POP POP POP JUMP JUMPDEST PUSH0 DUP2 MLOAD SWAP1 POP SWAP2 SWAP1 POP JUMP JUMPDEST PUSH0 DUP2 SWAP1 POP SWAP3 SWAP2 POP POP JUMP JUMPDEST PUSH0 JUMPDEST DUP4 DUP2 LT ISZERO PUSH3 0x70E JUMPI DUP1 DUP3 ADD MLOAD DUP2 DUP5 ADD MSTORE PUSH1 0x20 DUP2 ADD SWAP1 POP PUSH3 0x6F1 JUMP JUMPDEST PUSH0 DUP5 DUP5 ADD MSTORE POP POP POP POP JUMP JUMPDEST PUSH0 PUSH3 0x725 DUP3 PUSH3 0x6DB JUMP JUMPDEST PUSH3 0x731 DUP2 DUP6 PUSH3 0x6E5 JUMP JUMPDEST SWAP4 POP PUSH3 0x743 DUP2 DUP6 PUSH1 0x20 DUP7 ADD PUSH3 0x6EF JUMP JUMPDEST DUP1 DUP5 ADD SWAP2 POP POP SWAP3 SWAP2 POP POP JUMP JUMPDEST PUSH0 PUSH3 0x75C DUP3 DUP5 PUSH3 0x719 JUMP JUMPDEST SWAP2 POP DUP2 SWAP1 POP SWAP3 SWAP2 POP POP JUMP JUMPDEST PUSH0 PUSH1 0x20 DUP3 DUP5 SUB SLT ISZERO PUSH3 0x77F JUMPI PUSH3 0x77E PUSH3 0x326 JUMP JUMPDEST JUMPDEST PUSH0 PUSH3 0x78E DUP5 DUP3 DUP6 ADD PUSH3 0x417 JUMP JUMPDEST SWAP2 POP POP SWAP3 SWAP2 POP POP JUMP JUMPDEST PUSH32 0x4E487B7100000000000000000000000000000000000000000000000000000000 PUSH0 MSTORE PUSH1 0x12 PUSH1 0x4 MSTORE PUSH1 0x24 PUSH0 REVERT JUMPDEST PUSH0 PUSH3 0x7D0 DUP3 PUSH3 0x5F9 JUMP JUMPDEST SWAP2 POP PUSH3 0x7DD DUP4 PUSH3 0x5F9 JUMP JUMPDEST SWAP3 POP DUP3 PUSH3 0x7F0 JUMPI PUSH3 0x7EF PUSH3 0x797 JUMP JUMPDEST JUMPDEST DUP3 DUP3 DIV SWAP1 POP SWAP3 SWAP2 POP POP JUMP JUMPDEST PUSH2 0xA0A DUP1 PUSH3 0x809 PUSH0 CODECOPY PUSH0 RETURN INVALID PUSH1 0x80 PUSH1 0x40 MSTORE CALLVALUE DUP1 ISZERO PUSH2 0xF JUMPI PUSH0 DUP1 REVERT JUMPDEST POP PUSH1 0x4 CALLDATASIZE LT PUSH2 0x55 JUMPI PUSH0 CALLDATALOAD PUSH1 0xE0 SHR DUP1 PUSH4 0x1B80BB3A EQ PUSH2 0x59 JUMPI DUP1 PUSH4 0x436FD968 EQ PUSH2 0x89 JUMPI DUP1 PUSH4 0xE8295588 EQ PUSH2 0xA7 JUMPI DUP1 PUSH4 0xEBF0C717 EQ PUSH2 0xD7 JUMPI DUP1 PUSH4 0xF178E47C EQ PUSH2 0xF5 JUMPI JUMPDEST PUSH0 DUP1 REVERT JUMPDEST PUSH2 0x73 PUSH1 0x4 DUP1 CALLDATASIZE SUB DUP2 ADD SWAP1 PUSH2 0x6E SWAP2 SWAP1 PUSH2 0x4EC JUMP JUMPDEST PUSH2 0x125 JUMP JUMPDEST PUSH1 0x40 MLOAD PUSH2 0x80 SWAP2 SWAP1 PUSH2 0x5CE JUMP JUMPDEST PUSH1 0x40 MLOAD DUP1 SWAP2 SUB SWAP1 RETURN JUMPDEST PUSH2 0x91 PUSH2 0x401 JUMP JUMPDEST PUSH1 0x40 MLOAD PUSH2 0x9E SWAP2 SWAP1 PUSH2 0x606 JUMP JUMPDEST PUSH1 0x40 MLOAD DUP1 SWAP2 SUB SWAP1 RETURN JUMPDEST PUSH2 0xC1 PUSH1 0x4 DUP1 CALLDATASIZE SUB DUP2 ADD SWAP1 PUSH2 0xBC SWAP2 SWAP1 PUSH2 0x649 JUMP JUMPDEST PUSH2 0x406 JUMP JUMPDEST PUSH1 0x40 MLOAD PUSH2 0xCE SWAP2 SWAP1 PUSH2 0x683 JUMP JUMPDEST PUSH1 0x40 MLOAD DUP1 SWAP2 SUB SWAP1 RETURN JUMPDEST PUSH2 0xDF PUSH2 0x41F JUMP JUMPDEST PUSH1 0x40 MLOAD PUSH2 0xEC SWAP2 SWAP1 PUSH2 0x683 JUMP JUMPDEST PUSH1 0x40 MLOAD DUP1 SWAP2 SUB SWAP1 RETURN JUMPDEST PUSH2 0x10F PUSH1 0x4 DUP1 CALLDATASIZE SUB DUP2 ADD SWAP1 PUSH2 0x10A SWAP2 SWAP1 PUSH2 0x649 JUMP JUMPDEST PUSH2 0x425 JUMP JUMPDEST PUSH1 0x40 MLOAD PUSH2 0x11C SWAP2 SWAP1 PUSH2 0x683 JUMP JUMPDEST PUSH1 0x40 MLOAD DUP1 SWAP2 SUB SWAP1 RETURN JUMPDEST PUSH1 0x60 PUSH1 0x29 PUSH0 DUP4 DUP2 MSTORE PUSH1 0x20 ADD SWAP1 DUP2 MSTORE PUSH1 0x20 ADD PUSH0 KECCAK256 PUSH0 SWAP1 SLOAD SWAP1 PUSH2 0x100 EXP SWAP1 DIV PUSH1 0xFF AND PUSH2 0x184 JUMPI PUSH1 0x40 MLOAD PUSH32 0x8C379A000000000000000000000000000000000000000000000000000000000 DUP2 MSTORE PUSH1 0x4 ADD PUSH2 0x17B SWAP1 PUSH2 0x71C JUMP JUMPDEST PUSH1 0x40 MLOAD DUP1 SWAP2 SUB SWAP1 REVERT JUMPDEST PUSH0 PUSH1 0x14 PUSH8 0xFFFFFFFFFFFFFFFF DUP2 GT ISZERO PUSH2 0x1A0 JUMPI PUSH2 0x19F PUSH2 0x73A JUMP JUMPDEST JUMPDEST PUSH1 0x40 MLOAD SWAP1 DUP1 DUP3 MSTORE DUP1 PUSH1 0x20 MUL PUSH1 0x20 ADD DUP3 ADD PUSH1 0x40 MSTORE DUP1 ISZERO PUSH2 0x1CE JUMPI DUP2 PUSH1 0x20 ADD PUSH1 0x20 DUP3 MUL DUP1 CALLDATASIZE DUP4 CALLDATACOPY DUP1 DUP3 ADD SWAP2 POP POP SWAP1 POP JUMPDEST POP SWAP1 POP PUSH0 PUSH1 0x1 PUSH1 0x14 PUSH2 0x1E0 SWAP2 SWAP1 PUSH2 0x794 JUMP JUMPDEST PUSH8 0xFFFFFFFFFFFFFFFF DUP2 GT ISZERO PUSH2 0x1F9 JUMPI PUSH2 0x1F8 PUSH2 0x73A JUMP JUMPDEST JUMPDEST PUSH1 0x40 MLOAD SWAP1 DUP1 DUP3 MSTORE DUP1 PUSH1 0x20 MUL PUSH1 0x20 ADD DUP3 ADD PUSH1 0x40 MSTORE DUP1 ISZERO PUSH2 0x227 JUMPI DUP2 PUSH1 0x20 ADD PUSH1 0x20 DUP3 MUL DUP1 CALLDATASIZE DUP4 CALLDATACOPY DUP1 DUP3 ADD SWAP2 POP POP SWAP1 POP JUMPDEST POP SWAP1 POP PUSH0 DUP1 DUP6 DUP4 PUSH0 DUP2 MLOAD DUP2 LT PUSH2 0x240 JUMPI PUSH2 0x23F PUSH2 0x7C7 JUMP JUMPDEST JUMPDEST PUSH1 0x20 MUL PUSH1 0x20 ADD ADD DUP2 DUP2 MSTORE POP POP PUSH0 JUMPDEST PUSH1 0x14 DUP2 LT ISZERO PUSH2 0x3F4 JUMPI PUSH0 PUSH1 0x2 DUP5 PUSH2 0x265 SWAP2 SWAP1 PUSH2 0x821 JUMP JUMPDEST SUB PUSH2 0x319 JUMPI PUSH2 0x2A3 DUP5 DUP4 DUP2 MLOAD DUP2 LT PUSH2 0x280 JUMPI PUSH2 0x27F PUSH2 0x7C7 JUMP JUMPDEST JUMPDEST PUSH1 0x20 MUL PUSH1 0x20 ADD ADD MLOAD PUSH1 0x14 DUP4 PUSH1 0x14 DUP2 LT PUSH2 0x29C JUMPI PUSH2 0x29B PUSH2 0x7C7 JUMP JUMPDEST JUMPDEST ADD SLOAD PUSH2 0x43D JUMP JUMPDEST DUP5 PUSH1 0x1 DUP5 PUSH2 0x2B1 SWAP2 SWAP1 PUSH2 0x794 JUMP JUMPDEST DUP2 MLOAD DUP2 LT PUSH2 0x2C2 JUMPI PUSH2 0x2C1 PUSH2 0x7C7 JUMP JUMPDEST JUMPDEST PUSH1 0x20 MUL PUSH1 0x20 ADD ADD DUP2 DUP2 MSTORE POP POP DUP4 PUSH1 0x1 DUP4 PUSH2 0x2DC SWAP2 SWAP1 PUSH2 0x794 JUMP JUMPDEST DUP2 MLOAD DUP2 LT PUSH2 0x2ED JUMPI PUSH2 0x2EC PUSH2 0x7C7 JUMP JUMPDEST JUMPDEST PUSH1 0x20 MUL PUSH1 0x20 ADD ADD MLOAD DUP6 DUP3 DUP2 MLOAD DUP2 LT PUSH2 0x308 JUMPI PUSH2 0x307 PUSH2 0x7C7 JUMP JUMPDEST JUMPDEST PUSH1 0x20 MUL PUSH1 0x20 ADD ADD DUP2 DUP2 MSTORE POP POP PUSH2 0x3C4 JUMP JUMPDEST PUSH2 0x352 PUSH1 0x14 DUP3 PUSH1 0x14 DUP2 LT PUSH2 0x330 JUMPI PUSH2 0x32F PUSH2 0x7C7 JUMP JUMPDEST JUMPDEST ADD SLOAD DUP6 DUP5 DUP2 MLOAD DUP2 LT PUSH2 0x345 JUMPI PUSH2 0x344 PUSH2 0x7C7 JUMP JUMPDEST JUMPDEST PUSH1 0x20 MUL PUSH1 0x20 ADD ADD MLOAD PUSH2 0x43D JUMP JUMPDEST DUP5 PUSH1 0x1 DUP5 PUSH2 0x360 SWAP2 SWAP1 PUSH2 0x794 JUMP JUMPDEST DUP2 MLOAD DUP2 LT PUSH2 0x371 JUMPI PUSH2 0x370 PUSH2 0x7C7 JUMP JUMPDEST JUMPDEST PUSH1 0x20 MUL PUSH1 0x20 ADD ADD DUP2 DUP2 MSTORE POP POP DUP4 PUSH1 0x1 DUP4 PUSH2 0x38B SWAP2 SWAP1 PUSH2 0x794 JUMP JUMPDEST DUP2 MLOAD DUP2 LT PUSH2 0x39C JUMPI PUSH2 0x39B PUSH2 0x7C7 JUMP JUMPDEST JUMPDEST PUSH1 0x20 MUL PUSH1 0x20 ADD ADD MLOAD DUP6 DUP3 DUP2 MLOAD DUP2 LT PUSH2 0x3B7 JUMPI PUSH2 0x3B6 PUSH2 0x7C7 JUMP JUMPDEST JUMPDEST PUSH1 0x20 MUL PUSH1 0x20 ADD ADD DUP2 DUP2 MSTORE POP POP JUMPDEST PUSH1 0x2 DUP4 PUSH2 0x3D1 SWAP2 SWAP1 PUSH2 0x851 JUMP JUMPDEST SWAP3 POP DUP2 DUP1 PUSH2 0x3DE SWAP1 PUSH2 0x881 JUMP JUMPDEST SWAP3 POP POP DUP1 DUP1 PUSH2 0x3EC SWAP1 PUSH2 0x881 JUMP JUMPDEST SWAP2 POP POP PUSH2 0x24E JUMP JUMPDEST POP DUP4 SWAP5 POP POP POP POP POP SWAP2 SWAP1 POP JUMP JUMPDEST PUSH1 0x14 DUP2 JUMP JUMPDEST PUSH1 0x14 DUP2 PUSH1 0x14 DUP2 LT PUSH2 0x415 JUMPI PUSH0 DUP1 REVERT JUMPDEST ADD PUSH0 SWAP2 POP SWAP1 POP SLOAD DUP2 JUMP JUMPDEST PUSH1 0x28 SLOAD DUP2 JUMP JUMPDEST PUSH0 DUP2 PUSH1 0x14 DUP2 LT PUSH2 0x433 JUMPI PUSH0 DUP1 REVERT JUMPDEST ADD PUSH0 SWAP2 POP SWAP1 POP SLOAD DUP2 JUMP JUMPDEST PUSH0 PUSH1 0x2 DUP4 DUP4 PUSH1 0x40 MLOAD PUSH1 0x20 ADD PUSH2 0x453 SWAP3 SWAP2 SWAP1 PUSH2 0x8E8 JUMP JUMPDEST PUSH1 0x40 MLOAD PUSH1 0x20 DUP2 DUP4 SUB SUB DUP2 MSTORE SWAP1 PUSH1 0x40 MSTORE PUSH1 0x40 MLOAD PUSH2 0x46F SWAP2 SWAP1 PUSH2 0x97F JUMP JUMPDEST PUSH1 0x20 PUSH1 0x40 MLOAD DUP1 DUP4 SUB DUP2 DUP6 GAS STATICCALL ISZERO DUP1 ISZERO PUSH2 0x48A JUMPI RETURNDATASIZE PUSH0 DUP1 RETURNDATACOPY RETURNDATASIZE PUSH0 REVERT JUMPDEST POP POP POP PUSH1 0x40 MLOAD RETURNDATASIZE PUSH1 0x1F NOT PUSH1 0x1F DUP3 ADD AND DUP3 ADD DUP1 PUSH1 0x40 MSTORE POP DUP2 ADD SWAP1 PUSH2 0x4AD SWAP2 SWAP1 PUSH2 0x9A9 JUMP JUMPDEST SWAP1 POP SWAP3 SWAP2 POP POP JUMP JUMPDEST PUSH0 DUP1 REVERT JUMPDEST PUSH0 DUP2 SWAP1 POP SWAP2 SWAP1 POP JUMP JUMPDEST PUSH2 0x4CB DUP2 PUSH2 0x4B9 JUMP JUMPDEST DUP2 EQ PUSH2 0x4D5 JUMPI PUSH0 DUP1 REVERT JUMPDEST POP JUMP JUMPDEST PUSH0 DUP2 CALLDATALOAD SWAP1 POP PUSH2 0x4E6 DUP2 PUSH2 0x4C2 JUMP JUMPDEST SWAP3 SWAP2 POP POP JUMP JUMPDEST PUSH0 PUSH1 0x20 DUP3 DUP5 SUB SLT ISZERO PUSH2 0x501 JUMPI PUSH2 0x500 PUSH2 0x4B5 JUMP JUMPDEST JUMPDEST PUSH0 PUSH2 0x50E DUP5 DUP3 DUP6 ADD PUSH2 0x4D8 JUMP JUMPDEST SWAP2 POP POP SWAP3 SWAP2 POP POP JUMP JUMPDEST PUSH0 DUP2 MLOAD SWAP1 POP SWAP2 SWAP1 POP JUMP JUMPDEST PUSH0 DUP3 DUP3 MSTORE PUSH1 0x20 DUP3 ADD SWAP1 POP SWAP3 SWAP2 POP POP JUMP JUMPDEST PUSH0 DUP2 SWAP1 POP PUSH1 0x20 DUP3 ADD SWAP1 POP SWAP2 SWAP1 POP JUMP JUMPDEST PUSH2 0x549 DUP2 PUSH2 0x4B9 JUMP JUMPDEST DUP3 MSTORE POP POP JUMP JUMPDEST PUSH0 PUSH2 0x55A DUP4 DUP4 PUSH2 0x540 JUMP JUMPDEST PUSH1 0x20 DUP4 ADD SWAP1 POP SWAP3 SWAP2 POP POP JUMP JUMPDEST PUSH0 PUSH1 0x20 DUP3 ADD SWAP1 POP SWAP2 SWAP1 POP JUMP JUMPDEST PUSH0 PUSH2 0x57C DUP3 PUSH2 0x517 JUMP JUMPDEST PUSH2 0x586 DUP2 DUP6 PUSH2 0x521 JUMP JUMPDEST SWAP4 POP PUSH2 0x591 DUP4 PUSH2 0x531 JUMP JUMPDEST DUP1 PUSH0 JUMPDEST DUP4 DUP2 LT ISZERO PUSH2 0x5C1 JUMPI DUP2 MLOAD PUSH2 0x5A8 DUP9 DUP3 PUSH2 0x54F JUMP JUMPDEST SWAP8 POP PUSH2 0x5B3 DUP4 PUSH2 0x566 JUMP JUMPDEST SWAP3 POP POP PUSH1 0x1 DUP2 ADD SWAP1 POP PUSH2 0x594 JUMP JUMPDEST POP DUP6 SWAP4 POP POP POP POP SWAP3 SWAP2 POP POP JUMP JUMPDEST PUSH0 PUSH1 0x20 DUP3 ADD SWAP1 POP DUP2 DUP2 SUB PUSH0 DUP4 ADD MSTORE PUSH2 0x5E6 DUP2 DUP5 PUSH2 0x572 JUMP JUMPDEST SWAP1 POP SWAP3 SWAP2 POP POP JUMP JUMPDEST PUSH0 DUP2 SWAP1 POP SWAP2 SWAP1 POP JUMP JUMPDEST PUSH2 0x600 DUP2 PUSH2 0x5EE JUMP JUMPDEST DUP3 MSTORE POP POP JUMP JUMPDEST PUSH0 PUSH1 0x20 DUP3 ADD SWAP1 POP PUSH2 0x619 PUSH0 DUP4 ADD DUP5 PUSH2 0x5F7 JUMP JUMPDEST SWAP3 SWAP2 POP POP JUMP JUMPDEST PUSH2 0x628 DUP2 PUSH2 0x5EE JUMP JUMPDEST DUP2 EQ PUSH2 0x632 JUMPI PUSH0 DUP1 REVERT JUMPDEST POP JUMP JUMPDEST PUSH0 DUP2 CALLDATALOAD SWAP1 POP PUSH2 0x643 DUP2 PUSH2 0x61F JUMP JUMPDEST SWAP3 SWAP2 POP POP JUMP JUMPDEST PUSH0 PUSH1 0x20 DUP3 DUP5 SUB SLT ISZERO PUSH2 0x65E JUMPI PUSH2 0x65D PUSH2 0x4B5 JUMP JUMPDEST JUMPDEST PUSH0 PUSH2 0x66B DUP5 DUP3 DUP6 ADD PUSH2 0x635 JUMP JUMPDEST SWAP2 POP POP SWAP3 SWAP2 POP POP JUMP JUMPDEST PUSH2 0x67D DUP2 PUSH2 0x4B9 JUMP JUMPDEST DUP3 MSTORE POP POP JUMP JUMPDEST PUSH0 PUSH1 0x20 DUP3 ADD SWAP1 POP PUSH2 0x696 PUSH0 DUP4 ADD DUP5 PUSH2 0x674 JUMP JUMPDEST SWAP3 SWAP2 POP POP JUMP JUMPDEST PUSH0 DUP3 DUP3 MSTORE PUSH1 0x20 DUP3 ADD SWAP1 POP SWAP3 SWAP2 POP POP JUMP JUMPDEST PUSH32 0x41646472657373206E6F7420666F756E6420696E20746865204D65726B6C6520 PUSH0 DUP3 ADD MSTORE PUSH32 0x7472656500000000000000000000000000000000000000000000000000000000 PUSH1 0x20 DUP3 ADD MSTORE POP JUMP JUMPDEST PUSH0 PUSH2 0x706 PUSH1 0x24 DUP4 PUSH2 0x69C JUMP JUMPDEST SWAP2 POP PUSH2 0x711 DUP3 PUSH2 0x6AC JUMP JUMPDEST PUSH1 0x40 DUP3 ADD SWAP1 POP SWAP2 SWAP1 POP JUMP JUMPDEST PUSH0 PUSH1 0x20 DUP3 ADD SWAP1 POP DUP2 DUP2 SUB PUSH0 DUP4 ADD MSTORE PUSH2 0x733 DUP2 PUSH2 0x6FA JUMP JUMPDEST SWAP1 POP SWAP2 SWAP1 POP JUMP JUMPDEST PUSH32 0x4E487B7100000000000000000000000000000000000000000000000000000000 PUSH0 MSTORE PUSH1 0x41 PUSH1 0x4 MSTORE PUSH1 0x24 PUSH0 REVERT JUMPDEST PUSH32 0x4E487B7100000000000000000000000000000000000000000000000000000000 PUSH0 MSTORE PUSH1 0x11 PUSH1 0x4 MSTORE PUSH1 0x24 PUSH0 REVERT JUMPDEST PUSH0 PUSH2 0x79E DUP3 PUSH2 0x5EE JUMP JUMPDEST SWAP2 POP PUSH2 0x7A9 DUP4 PUSH2 0x5EE JUMP JUMPDEST SWAP3 POP DUP3 DUP3 ADD SWAP1 POP DUP1 DUP3 GT ISZERO PUSH2 0x7C1 JUMPI PUSH2 0x7C0 PUSH2 0x767 JUMP JUMPDEST JUMPDEST SWAP3 SWAP2 POP POP JUMP JUMPDEST PUSH32 0x4E487B7100000000000000000000000000000000000000000000000000000000 PUSH0 MSTORE PUSH1 0x32 PUSH1 0x4 MSTORE PUSH1 0x24 PUSH0 REVERT JUMPDEST PUSH32 0x4E487B7100000000000000000000000000000000000000000000000000000000 PUSH0 MSTORE PUSH1 0x12 PUSH1 0x4 MSTORE PUSH1 0x24 PUSH0 REVERT JUMPDEST PUSH0 PUSH2 0x82B DUP3 PUSH2 0x5EE JUMP JUMPDEST SWAP2 POP PUSH2 0x836 DUP4 PUSH2 0x5EE JUMP JUMPDEST SWAP3 POP DUP3 PUSH2 0x846 JUMPI PUSH2 0x845 PUSH2 0x7F4 JUMP JUMPDEST JUMPDEST DUP3 DUP3 MOD SWAP1 POP SWAP3 SWAP2 POP POP JUMP JUMPDEST PUSH0 PUSH2 0x85B DUP3 PUSH2 0x5EE JUMP JUMPDEST SWAP2 POP PUSH2 0x866 DUP4 PUSH2 0x5EE JUMP JUMPDEST SWAP3 POP DUP3 PUSH2 0x876 JUMPI PUSH2 0x875 PUSH2 0x7F4 JUMP JUMPDEST JUMPDEST DUP3 DUP3 DIV SWAP1 POP SWAP3 SWAP2 POP POP JUMP JUMPDEST PUSH0 PUSH2 0x88B DUP3 PUSH2 0x5EE JUMP JUMPDEST SWAP2 POP PUSH32 0xFFFFFFFFFFFFFFFFFFFFFFFFFFFFFFFFFFFFFFFFFFFFFFFFFFFFFFFFFFFFFFFF DUP3 SUB PUSH2 0x8BD JUMPI PUSH2 0x8BC PUSH2 0x767 JUMP JUMPDEST JUMPDEST PUSH1 0x1 DUP3 ADD SWAP1 POP SWAP2 SWAP1 POP JUMP JUMPDEST PUSH0 DUP2 SWAP1 POP SWAP2 SWAP1 POP JUMP JUMPDEST PUSH2 0x8E2 PUSH2 0x8DD DUP3 PUSH2 0x4B9 JUMP JUMPDEST PUSH2 0x8C8 JUMP JUMPDEST DUP3 MSTORE POP POP JUMP JUMPDEST PUSH0 PUSH2 0x8F3 DUP3 DUP6 PUSH2 0x8D1 JUMP JUMPDEST PUSH1 0x20 DUP3 ADD SWAP2 POP PUSH2 0x903 DUP3 DUP5 PUSH2 0x8D1 JUMP JUMPDEST PUSH1 0x20 DUP3 ADD SWAP2 POP DUP2 SWAP1 POP SWAP4 SWAP3 POP POP POP JUMP JUMPDEST PUSH0 DUP2 MLOAD SWAP1 POP SWAP2 SWAP1 POP JUMP JUMPDEST PUSH0 DUP2 SWAP1 POP SWAP3 SWAP2 POP POP JUMP JUMPDEST PUSH0 JUMPDEST DUP4 DUP2 LT ISZERO PUSH2 0x944 JUMPI DUP1 DUP3 ADD MLOAD DUP2 DUP5 ADD MSTORE PUSH1 0x20 DUP2 ADD SWAP1 POP PUSH2 0x929 JUMP JUMPDEST PUSH0 DUP5 DUP5 ADD MSTORE POP POP POP POP JUMP JUMPDEST PUSH0 PUSH2 0x959 DUP3 PUSH2 0x913 JUMP JUMPDEST PUSH2 0x963 DUP2 DUP6 PUSH2 0x91D JUMP JUMPDEST SWAP4 POP PUSH2 0x973 DUP2 DUP6 PUSH1 0x20 DUP7 ADD PUSH2 0x927 JUMP JUMPDEST DUP1 DUP5 ADD SWAP2 POP POP SWAP3 SWAP2 POP POP JUMP JUMPDEST PUSH0 PUSH2 0x98A DUP3 DUP5 PUSH2 0x94F JUMP JUMPDEST SWAP2 POP DUP2 SWAP1 POP SWAP3 SWAP2 POP POP JUMP JUMPDEST PUSH0 DUP2 MLOAD SWAP1 POP PUSH2 0x9A3 DUP2 PUSH2 0x4C2 JUMP JUMPDEST SWAP3 SWAP2 POP POP JUMP JUMPDEST PUSH0 PUSH1 0x20 DUP3 DUP5 SUB SLT ISZERO PUSH2 0x9BE JUMPI PUSH2 0x9BD PUSH2 0x4B5 JUMP JUMPDEST JUMPDEST PUSH0 PUSH2 0x9CB DUP5 DUP3 DUP6 ADD PUSH2 0x995 JUMP JUMPDEST SWAP2 POP POP SWAP3 SWAP2 POP POP JUMP INVALID LOG2 PUSH5 0x6970667358 0x22 SLT KECCAK256 0xE EXP 0x5C PUSH24 0x1A052F86289E9FE8DD03F3E926F8F1CB3216F4EEBB1D1262 JUMPDEST PUSH31 0x504264736F6C63430008140033000000000000000000000000000000000000 "
		},
		"gasEstimates": {
			"creation": {
				"codeDepositCost": "514000",
				"executionCost": "infinite",
				"totalCost": "infinite"
			},
			"external": {
				"TREE_HEIGHT()": "325",
				"filledSubtrees(uint256)": "2787",
				"getProof(bytes32)": "infinite",
				"root()": "2469",
				"zeros(uint256)": "2744"
			},
			"internal": {
				"_hashLeftRight(bytes32,bytes32)": "infinite",
				"generateMerkleTree(bytes32[] memory)": "infinite"
			}
		},
		"methodIdentifiers": {
			"TREE_HEIGHT()": "436fd968",
			"filledSubtrees(uint256)": "f178e47c",
			"getProof(bytes32)": "1b80bb3a",
			"root()": "ebf0c717",
			"zeros(uint256)": "e8295588"
		}
	},
	"abi": [
		{
			"inputs": [
				{
					"internalType": "bytes32[]",
					"name": "addresses",
					"type": "bytes32[]"
				}
			],
			"stateMutability": "nonpayable",
			"type": "constructor"
		},
		{
			"inputs": [],
			"name": "TREE_HEIGHT",
			"outputs": [
				{
					"internalType": "uint256",
					"name": "",
					"type": "uint256"
				}
			],
			"stateMutability": "view",
			"type": "function"
		},
		{
			"inputs": [
				{
					"internalType": "uint256",
					"name": "",
					"type": "uint256"
				}
			],
			"name": "filledSubtrees",
			"outputs": [
				{
					"internalType": "bytes32",
					"name": "",
					"type": "bytes32"
				}
			],
			"stateMutability": "view",
			"type": "function"
		},
		{
			"inputs": [
				{
					"internalType": "bytes32",
					"name": "leaf",
					"type": "bytes32"
				}
			],
			"name": "getProof",
			"outputs": [
				{
					"internalType": "bytes32[]",
					"name": "",
					"type": "bytes32[]"
				}
			],
			"stateMutability": "view",
			"type": "function"
		},
		{
			"inputs": [],
			"name": "root",
			"outputs": [
				{
					"internalType": "bytes32",
					"name": "",
					"type": "bytes32"
				}
			],
			"stateMutability": "view",
			"type": "function"
		},
		{
			"inputs": [
				{
					"internalType": "uint256",
					"name": "",
					"type": "uint256"
				}
			],
			"name": "zeros",
			"outputs": [
				{
					"internalType": "bytes32",
					"name": "",
					"type": "bytes32"
				}
			],
			"stateMutability": "view",
			"type": "function"
		}
	]
}